{
	"contract/entities.sol": {
		"Entities": {
			"abi": [
				{
					"inputs": [
						{
							"internalType": "address",
							"name": "tokenaddress",
							"type": "address"
						}
					],
					"stateMutability": "nonpayable",
					"type": "constructor"
				},
				{
					"anonymous": false,
					"inputs": [
						{
							"components": [
								{
									"internalType": "uint256",
									"name": "ID_Titulaire",
									"type": "uint256"
								},
								{
									"internalType": "string",
									"name": "Nom_Etablisement_Enseignement_Superieur",
									"type": "string"
								},
								{
									"internalType": "uint256",
									"name": "ID_EES",
									"type": "uint256"
								},
								{
									"internalType": "string",
									"name": "Pays",
									"type": "string"
								},
								{
									"internalType": "string",
									"name": "Type_Diplome",
									"type": "string"
								},
								{
									"internalType": "string",
									"name": "Specialite",
									"type": "string"
								},
								{
									"internalType": "string",
									"name": "Mention",
									"type": "string"
								},
								{
									"internalType": "uint256",
									"name": "Date_d_obtention",
									"type": "uint256"
								}
							],
							"indexed": false,
							"internalType": "struct Entities.Diplome",
							"name": "",
							"type": "tuple"
						}
					],
					"name": "verifierresult",
					"type": "event"
				},
				{
					"inputs": [
						{
							"internalType": "address",
							"name": "",
							"type": "address"
						}
					],
					"name": "AddressEntreprises",
					"outputs": [
						{
							"internalType": "uint256",
							"name": "",
							"type": "uint256"
						}
					],
					"stateMutability": "view",
					"type": "function"
				},
				{
					"inputs": [
						{
							"internalType": "uint256",
							"name": "",
							"type": "uint256"
						}
					],
					"name": "Diplomes",
					"outputs": [
						{
							"internalType": "uint256",
							"name": "ID_Titulaire",
							"type": "uint256"
						},
						{
							"internalType": "string",
							"name": "Nom_Etablisement_Enseignement_Superieur",
							"type": "string"
						},
						{
							"internalType": "uint256",
							"name": "ID_EES",
							"type": "uint256"
						},
						{
							"internalType": "string",
							"name": "Pays",
							"type": "string"
						},
						{
							"internalType": "string",
							"name": "Type_Diplome",
							"type": "string"
						},
						{
							"internalType": "string",
							"name": "Specialite",
							"type": "string"
						},
						{
							"internalType": "string",
							"name": "Mention",
							"type": "string"
						},
						{
							"internalType": "uint256",
							"name": "Date_d_obtention",
							"type": "uint256"
						}
					],
					"stateMutability": "view",
					"type": "function"
				},
				{
					"inputs": [
						{
							"internalType": "uint256",
							"name": "",
							"type": "uint256"
						}
					],
					"name": "Entreprises",
					"outputs": [
						{
							"internalType": "string",
							"name": "Nom",
							"type": "string"
						},
						{
							"internalType": "string",
							"name": "Secteur",
							"type": "string"
						},
						{
							"internalType": "uint256",
							"name": "Date_Creation",
							"type": "uint256"
						},
						{
							"internalType": "string",
							"name": "Classification_Taille",
							"type": "string"
						},
						{
							"internalType": "string",
							"name": "Pays",
							"type": "string"
						},
						{
							"internalType": "string",
							"name": "Adresse",
							"type": "string"
						},
						{
							"internalType": "string",
							"name": "Courriel",
							"type": "string"
						},
						{
							"internalType": "string",
							"name": "telephone",
							"type": "string"
						},
						{
							"internalType": "string",
							"name": "Site_Web",
							"type": "string"
						}
					],
					"stateMutability": "view",
					"type": "function"
				},
				{
					"inputs": [
						{
							"internalType": "uint256",
							"name": "",
							"type": "uint256"
						}
					],
					"name": "Etablisements",
					"outputs": [
						{
							"internalType": "string",
							"name": "Nom_Etablisement",
							"type": "string"
						},
						{
							"internalType": "string",
							"name": "Type",
							"type": "string"
						},
						{
							"internalType": "string",
							"name": "Pays",
							"type": "string"
						},
						{
							"internalType": "string",
							"name": "Adresse",
							"type": "string"
						},
						{
							"internalType": "string",
							"name": "Site_Web",
							"type": "string"
						},
						{
							"internalType": "uint256",
							"name": "ID_Agent",
							"type": "uint256"
						}
					],
					"stateMutability": "view",
					"type": "function"
				},
				{
					"inputs": [],
					"name": "NbDiplomes",
					"outputs": [
						{
							"internalType": "uint256",
							"name": "",
							"type": "uint256"
						}
					],
					"stateMutability": "view",
					"type": "function"
				},
				{
					"inputs": [],
					"name": "NbEntreprises",
					"outputs": [
						{
							"internalType": "uint256",
							"name": "",
							"type": "uint256"
						}
					],
					"stateMutability": "view",
					"type": "function"
				},
				{
					"inputs": [],
					"name": "NbEtablisements",
					"outputs": [
						{
							"internalType": "uint256",
							"name": "",
							"type": "uint256"
						}
					],
					"stateMutability": "view",
					"type": "function"
				},
				{
					"inputs": [],
					"name": "NbEtudiants",
					"outputs": [
						{
							"internalType": "uint256",
							"name": "",
							"type": "uint256"
						}
					],
					"stateMutability": "view",
					"type": "function"
				},
				{
					"inputs": [
						{
							"internalType": "uint256",
							"name": "ID_Titulaire",
							"type": "uint256"
						}
					],
					"name": "ajouter_diplome",
					"outputs": [],
					"stateMutability": "nonpayable",
					"type": "function"
				},
				{
					"inputs": [
						{
							"internalType": "string",
							"name": "Nom",
							"type": "string"
						}
					],
					"name": "ajouter_entreprise",
					"outputs": [],
					"stateMutability": "nonpayable",
					"type": "function"
				},
				{
					"inputs": [
						{
							"internalType": "string",
							"name": "Nom",
							"type": "string"
						}
					],
					"name": "ajouter_etablisement",
					"outputs": [],
					"stateMutability": "nonpayable",
					"type": "function"
				},
				{
					"inputs": [
						{
							"internalType": "string",
							"name": "Nom",
							"type": "string"
						},
						{
							"internalType": "string",
							"name": "Prenom",
							"type": "string"
						}
					],
					"name": "ajouter_etudiant",
					"outputs": [],
					"stateMutability": "nonpayable",
					"type": "function"
				},
				{
					"inputs": [
						{
							"internalType": "uint256",
							"name": "EtudiantID",
							"type": "uint256"
						},
						{
							"internalType": "string",
							"name": "Sujet_PFE",
							"type": "string"
						},
						{
							"internalType": "string",
							"name": "Entreprise_Stage_PFE",
							"type": "string"
						},
						{
							"internalType": "string",
							"name": "NomPrenom_MaitreDuStage",
							"type": "string"
						},
						{
							"internalType": "uint256",
							"name": "Date_debut_stage",
							"type": "uint256"
						},
						{
							"internalType": "uint256",
							"name": "Date_fin_stage",
							"type": "uint256"
						},
						{
							"internalType": "string",
							"name": "Evaluation",
							"type": "string"
						}
					],
					"name": "evaluer",
					"outputs": [],
					"stateMutability": "nonpayable",
					"type": "function"
				},
				{
					"inputs": [
						{
							"internalType": "uint256",
							"name": "id",
							"type": "uint256"
						}
					],
					"name": "get_Etudiants",
					"outputs": [
						{
							"components": [
								{
									"internalType": "string",
									"name": "Nom",
									"type": "string"
								},
								{
									"internalType": "string",
									"name": "Prenom",
									"type": "string"
								},
								{
									"internalType": "string",
									"name": "Date_de_naisance",
									"type": "string"
								},
								{
									"internalType": "string",
									"name": "Sexe",
									"type": "string"
								},
								{
									"internalType": "string",
									"name": "Nationalite",
									"type": "string"
								},
								{
									"internalType": "string",
									"name": "Statut_civil",
									"type": "string"
								},
								{
									"internalType": "string",
									"name": "Adresse",
									"type": "string"
								},
								{
									"internalType": "string",
									"name": "Courriel",
									"type": "string"
								},
								{
									"internalType": "string",
									"name": "Telephone",
									"type": "string"
								},
								{
									"internalType": "string",
									"name": "Section",
									"type": "string"
								},
								{
									"internalType": "string",
									"name": "Sujet_PFE",
									"type": "string"
								},
								{
									"internalType": "string",
									"name": "Entreprise_Stage_PFE",
									"type": "string"
								},
								{
									"internalType": "string",
									"name": "NomPrenom_MaitreDuStage",
									"type": "string"
								},
								{
									"internalType": "uint256",
									"name": "Date_debut_stage",
									"type": "uint256"
								},
								{
									"internalType": "uint256",
									"name": "Date_fin_stage",
									"type": "uint256"
								},
								{
									"internalType": "string",
									"name": "Evaluation",
									"type": "string"
								}
							],
							"internalType": "struct Entities.Etudiant",
							"name": "",
							"type": "tuple"
						}
					],
					"stateMutability": "view",
					"type": "function"
				},
				{
					"inputs": [
						{
							"internalType": "uint256",
							"name": "DiplomeID",
							"type": "uint256"
						}
					],
					"name": "verifier",
					"outputs": [
						{
							"components": [
								{
									"internalType": "uint256",
									"name": "ID_Titulaire",
									"type": "uint256"
								},
								{
									"internalType": "string",
									"name": "Nom_Etablisement_Enseignement_Superieur",
									"type": "string"
								},
								{
									"internalType": "uint256",
									"name": "ID_EES",
									"type": "uint256"
								},
								{
									"internalType": "string",
									"name": "Pays",
									"type": "string"
								},
								{
									"internalType": "string",
									"name": "Type_Diplome",
									"type": "string"
								},
								{
									"internalType": "string",
									"name": "Specialite",
									"type": "string"
								},
								{
									"internalType": "string",
									"name": "Mention",
									"type": "string"
								},
								{
									"internalType": "uint256",
									"name": "Date_d_obtention",
									"type": "uint256"
								}
							],
							"internalType": "struct Entities.Diplome",
							"name": "",
							"type": "tuple"
						}
					],
					"stateMutability": "nonpayable",
					"type": "function"
				}
			],
			"devdoc": {
				"methods": {}
			},
			"evm": {
				"assembly": "    /* \"contract/entities.sol\":95:5486  contract Entities {\r... */\n  mstore(0x40, 0x80)\n    /* \"contract/entities.sol\":2015:2235  constructor(address tokenaddress) public {\r... */\n  callvalue\n    /* \"--CODEGEN--\":8:17   */\n  dup1\n    /* \"--CODEGEN--\":5:7   */\n  iszero\n  tag_1\n  jumpi\n    /* \"--CODEGEN--\":30:31   */\n  0x00\n    /* \"--CODEGEN--\":27:28   */\n  dup1\n    /* \"--CODEGEN--\":20:32   */\n  revert\n    /* \"--CODEGEN--\":5:7   */\ntag_1:\n    /* \"contract/entities.sol\":2015:2235  constructor(address tokenaddress) public {\r... */\n  pop\n  mload(0x40)\n  sub(codesize, bytecodeSize)\n  dup1\n  bytecodeSize\n  dup4\n  codecopy\n  dup2\n  dup2\n  add\n  0x40\n  mstore\n  tag_2\n  swap2\n  swap1\n  dup2\n  add\n  swap1\n  jump(tag_3)\ntag_2:\n    /* \"contract/entities.sol\":2075:2087  tokenaddress */\n  dup1\n    /* \"contract/entities.sol\":2067:2072  token */\n  0x01\n  0x00\n    /* \"contract/entities.sol\":2067:2087  token = tokenaddress */\n  0x0100\n  exp\n  dup2\n  sload\n  dup2\n  0xffffffffffffffffffffffffffffffffffffffff\n  mul\n  not\n  and\n  swap1\n  dup4\n  0xffffffffffffffffffffffffffffffffffffffff\n  and\n  mul\n  or\n  swap1\n  sstore\n  pop\n    /* \"contract/entities.sol\":2106:2116  msg.sender */\n  caller\n    /* \"contract/entities.sol\":2098:2103  owner */\n  0x00\n  dup1\n    /* \"contract/entities.sol\":2098:2116  owner = msg.sender */\n  0x0100\n  exp\n  dup2\n  sload\n  dup2\n  0xffffffffffffffffffffffffffffffffffffffff\n  mul\n  not\n  and\n  swap1\n  dup4\n  0xffffffffffffffffffffffffffffffffffffffff\n  and\n  mul\n  or\n  swap1\n  sstore\n  pop\n    /* \"contract/entities.sol\":2147:2148  0 */\n  0x00\n    /* \"contract/entities.sol\":2129:2144  NbEtablisements */\n  0x08\n    /* \"contract/entities.sol\":2129:2148  NbEtablisements = 0 */\n  dup2\n  swap1\n  sstore\n  pop\n    /* \"contract/entities.sol\":2173:2174  0 */\n  0x00\n    /* \"contract/entities.sol\":2159:2170  NbEtudiants */\n  0x09\n    /* \"contract/entities.sol\":2159:2174  NbEtudiants = 0 */\n  dup2\n  swap1\n  sstore\n  pop\n    /* \"contract/entities.sol\":2201:2202  0 */\n  0x00\n    /* \"contract/entities.sol\":2185:2198  NbEntreprises */\n  0x0a\n    /* \"contract/entities.sol\":2185:2202  NbEntreprises = 0 */\n  dup2\n  swap1\n  sstore\n  pop\n    /* \"contract/entities.sol\":2226:2227  0 */\n  0x00\n    /* \"contract/entities.sol\":2213:2223  NbDiplomes */\n  0x0b\n    /* \"contract/entities.sol\":2213:2227  NbDiplomes = 0 */\n  dup2\n  swap1\n  sstore\n  pop\n    /* \"contract/entities.sol\":2015:2235  constructor(address tokenaddress) public {\r... */\n  pop\n    /* \"contract/entities.sol\":95:5486  contract Entities {\r... */\n  jump(tag_6)\n    /* \"--CODEGEN--\":5:139   */\ntag_8:\n  0x00\n    /* \"--CODEGEN--\":89:95   */\n  dup2\n    /* \"--CODEGEN--\":83:96   */\n  mload\n    /* \"--CODEGEN--\":74:96   */\n  swap1\n  pop\n    /* \"--CODEGEN--\":101:134   */\n  tag_10\n    /* \"--CODEGEN--\":128:133   */\n  dup2\n    /* \"--CODEGEN--\":101:134   */\n  jump(tag_11)\ntag_10:\n    /* \"--CODEGEN--\":68:139   */\n  swap3\n  swap2\n  pop\n  pop\n  jump\n    /* \"--CODEGEN--\":146:409   */\ntag_3:\n  0x00\n    /* \"--CODEGEN--\":261:263   */\n  0x20\n    /* \"--CODEGEN--\":249:258   */\n  dup3\n    /* \"--CODEGEN--\":240:247   */\n  dup5\n    /* \"--CODEGEN--\":236:259   */\n  sub\n    /* \"--CODEGEN--\":232:264   */\n  slt\n    /* \"--CODEGEN--\":229:231   */\n  iszero\n  tag_13\n  jumpi\n    /* \"--CODEGEN--\":277:278   */\n  0x00\n    /* \"--CODEGEN--\":274:275   */\n  dup1\n    /* \"--CODEGEN--\":267:279   */\n  revert\n    /* \"--CODEGEN--\":229:231   */\ntag_13:\n    /* \"--CODEGEN--\":312:313   */\n  0x00\n    /* \"--CODEGEN--\":329:393   */\n  tag_14\n    /* \"--CODEGEN--\":385:392   */\n  dup5\n    /* \"--CODEGEN--\":376:382   */\n  dup3\n    /* \"--CODEGEN--\":365:374   */\n  dup6\n    /* \"--CODEGEN--\":361:383   */\n  add\n    /* \"--CODEGEN--\":329:393   */\n  jump(tag_8)\ntag_14:\n    /* \"--CODEGEN--\":319:393   */\n  swap2\n  pop\n    /* \"--CODEGEN--\":291:399   */\n  pop\n    /* \"--CODEGEN--\":223:409   */\n  swap3\n  swap2\n  pop\n  pop\n  jump\n    /* \"--CODEGEN--\":416:507   */\ntag_15:\n  0x00\n    /* \"--CODEGEN--\":478:502   */\n  tag_17\n    /* \"--CODEGEN--\":496:501   */\n  dup3\n    /* \"--CODEGEN--\":478:502   */\n  jump(tag_18)\ntag_17:\n    /* \"--CODEGEN--\":467:502   */\n  swap1\n  pop\n    /* \"--CODEGEN--\":461:507   */\n  swap2\n  swap1\n  pop\n  jump\n    /* \"--CODEGEN--\":514:635   */\ntag_18:\n  0x00\n    /* \"--CODEGEN--\":587:629   */\n  0xffffffffffffffffffffffffffffffffffffffff\n    /* \"--CODEGEN--\":580:585   */\n  dup3\n    /* \"--CODEGEN--\":576:630   */\n  and\n    /* \"--CODEGEN--\":565:630   */\n  swap1\n  pop\n    /* \"--CODEGEN--\":559:635   */\n  swap2\n  swap1\n  pop\n  jump\n    /* \"--CODEGEN--\":642:759   */\ntag_11:\n    /* \"--CODEGEN--\":711:735   */\n  tag_21\n    /* \"--CODEGEN--\":729:734   */\n  dup2\n    /* \"--CODEGEN--\":711:735   */\n  jump(tag_15)\ntag_21:\n    /* \"--CODEGEN--\":704:709   */\n  dup2\n    /* \"--CODEGEN--\":701:736   */\n  eq\n    /* \"--CODEGEN--\":691:693   */\n  tag_22\n  jumpi\n    /* \"--CODEGEN--\":750:751   */\n  0x00\n    /* \"--CODEGEN--\":747:748   */\n  dup1\n    /* \"--CODEGEN--\":740:752   */\n  revert\n    /* \"--CODEGEN--\":691:693   */\ntag_22:\n    /* \"--CODEGEN--\":685:759   */\n  pop\n  jump\n    /* \"contract/entities.sol\":95:5486  contract Entities {\r... */\ntag_6:\n  dataSize(sub_0)\n  dup1\n  dataOffset(sub_0)\n  0x00\n  codecopy\n  0x00\n  return\nstop\n\nsub_0: assembly {\n        /* \"contract/entities.sol\":95:5486  contract Entities {\r... */\n      mstore(0x40, 0x80)\n      callvalue\n        /* \"--CODEGEN--\":8:17   */\n      dup1\n        /* \"--CODEGEN--\":5:7   */\n      iszero\n      tag_1\n      jumpi\n        /* \"--CODEGEN--\":30:31   */\n      0x00\n        /* \"--CODEGEN--\":27:28   */\n      dup1\n        /* \"--CODEGEN--\":20:32   */\n      revert\n        /* \"--CODEGEN--\":5:7   */\n    tag_1:\n        /* \"contract/entities.sol\":95:5486  contract Entities {\r... */\n      pop\n      jumpi(tag_2, lt(calldatasize, 0x04))\n      shr(0xe0, calldataload(0x00))\n      dup1\n      0x6573f803\n      gt\n      tag_18\n      jumpi\n      dup1\n      0x7eae205d\n      gt\n      tag_19\n      jumpi\n      dup1\n      0x7eae205d\n      eq\n      tag_14\n      jumpi\n      dup1\n      0x8d129178\n      eq\n      tag_15\n      jumpi\n      dup1\n      0xc685e978\n      eq\n      tag_16\n      jumpi\n      dup1\n      0xe23cc50d\n      eq\n      tag_17\n      jumpi\n      jump(tag_2)\n    tag_19:\n      dup1\n      0x6573f803\n      eq\n      tag_10\n      jumpi\n      dup1\n      0x6b6df2be\n      eq\n      tag_11\n      jumpi\n      dup1\n      0x6f2962b7\n      eq\n      tag_12\n      jumpi\n      dup1\n      0x78a31262\n      eq\n      tag_13\n      jumpi\n      jump(tag_2)\n    tag_18:\n      dup1\n      0x37683976\n      gt\n      tag_20\n      jumpi\n      dup1\n      0x37683976\n      eq\n      tag_6\n      jumpi\n      dup1\n      0x4accf9a7\n      eq\n      tag_7\n      jumpi\n      dup1\n      0x56faba43\n      eq\n      tag_8\n      jumpi\n      dup1\n      0x5e00c8a2\n      eq\n      tag_9\n      jumpi\n      jump(tag_2)\n    tag_20:\n      dup1\n      0x05d728f5\n      eq\n      tag_3\n      jumpi\n      dup1\n      0x161a9fb5\n      eq\n      tag_4\n      jumpi\n      dup1\n      0x27edee9e\n      eq\n      tag_5\n      jumpi\n    tag_2:\n      0x00\n      dup1\n      revert\n        /* \"contract/entities.sol\":3582:3932  function ajouter_diplome(uint256 ID_Titulaire) public {\r... */\n    tag_3:\n      tag_21\n      0x04\n      dup1\n      calldatasize\n      sub\n      tag_22\n      swap2\n      swap1\n      dup2\n      add\n      swap1\n      jump(tag_23)\n    tag_22:\n      tag_24\n      jump\t// in\n    tag_21:\n      stop\n        /* \"contract/entities.sol\":1913:1939  uint256 public NbEtudiants */\n    tag_4:\n      tag_25\n      tag_26\n      jump\t// in\n    tag_25:\n      mload(0x40)\n      tag_27\n      swap2\n      swap1\n      jump(tag_28)\n    tag_27:\n      mload(0x40)\n      dup1\n      swap2\n      sub\n      swap1\n      return\n        /* \"contract/entities.sol\":3940:4992  function evaluer(\r... */\n    tag_5:\n      tag_29\n      0x04\n      dup1\n      calldatasize\n      sub\n      tag_30\n      swap2\n      swap1\n      dup2\n      add\n      swap1\n      jump(tag_31)\n    tag_30:\n      tag_32\n      jump\t// in\n    tag_29:\n      stop\n        /* \"contract/entities.sol\":1876:1906  uint256 public NbEtablisements */\n    tag_6:\n      tag_33\n      tag_34\n      jump\t// in\n    tag_33:\n      mload(0x40)\n      tag_35\n      swap2\n      swap1\n      jump(tag_28)\n    tag_35:\n      mload(0x40)\n      dup1\n      swap2\n      sub\n      swap1\n      return\n        /* \"contract/entities.sol\":1704:1747  mapping(uint256 => Diplome) public Diplomes */\n    tag_7:\n      tag_36\n      0x04\n      dup1\n      calldatasize\n      sub\n      tag_37\n      swap2\n      swap1\n      dup2\n      add\n      swap1\n      jump(tag_23)\n    tag_37:\n      tag_38\n      jump\t// in\n    tag_36:\n      mload(0x40)\n      tag_39\n      swap9\n      swap8\n      swap7\n      swap6\n      swap5\n      swap4\n      swap3\n      swap2\n      swap1\n      jump(tag_40)\n    tag_39:\n      mload(0x40)\n      dup1\n      swap2\n      sub\n      swap1\n      return\n        /* \"contract/entities.sol\":1588:1637  mapping(uint256 => Entreprise) public Entreprises */\n    tag_8:\n      tag_41\n      0x04\n      dup1\n      calldatasize\n      sub\n      tag_42\n      swap2\n      swap1\n      dup2\n      add\n      swap1\n      jump(tag_23)\n    tag_42:\n      tag_43\n      jump\t// in\n    tag_41:\n      mload(0x40)\n      tag_44\n      swap10\n      swap9\n      swap8\n      swap7\n      swap6\n      swap5\n      swap4\n      swap3\n      swap2\n      swap1\n      jump(tag_45)\n    tag_44:\n      mload(0x40)\n      dup1\n      swap2\n      sub\n      swap1\n      return\n        /* \"contract/entities.sol\":2930:3107  function ajouter_etablisement(string memory Nom) public {\r... */\n    tag_9:\n      tag_46\n      0x04\n      dup1\n      calldatasize\n      sub\n      tag_47\n      swap2\n      swap1\n      dup2\n      add\n      swap1\n      jump(tag_48)\n    tag_47:\n      tag_49\n      jump\t// in\n    tag_46:\n      stop\n        /* \"contract/entities.sol\":3281:3574  function ajouter_etudiant(string memory Nom, string memory Prenom) public {\r... */\n    tag_10:\n      tag_50\n      0x04\n      dup1\n      calldatasize\n      sub\n      tag_51\n      swap2\n      swap1\n      dup2\n      add\n      swap1\n      jump(tag_52)\n    tag_51:\n      tag_53\n      jump\t// in\n    tag_50:\n      stop\n        /* \"contract/entities.sol\":1756:1868  function get_Etudiants(uint256 id) public view returns (Etudiant memory) {\r... */\n    tag_11:\n      tag_54\n      0x04\n      dup1\n      calldatasize\n      sub\n      tag_55\n      swap2\n      swap1\n      dup2\n      add\n      swap1\n      jump(tag_23)\n    tag_55:\n      tag_56\n      jump\t// in\n    tag_54:\n      mload(0x40)\n      tag_57\n      swap2\n      swap1\n      jump(tag_58)\n    tag_57:\n      mload(0x40)\n      dup1\n      swap2\n      sub\n      swap1\n      return\n        /* \"contract/entities.sol\":1981:2006  uint256 public NbDiplomes */\n    tag_12:\n      tag_59\n      tag_60\n      jump\t// in\n    tag_59:\n      mload(0x40)\n      tag_61\n      swap2\n      swap1\n      jump(tag_28)\n    tag_61:\n      mload(0x40)\n      dup1\n      swap2\n      sub\n      swap1\n      return\n        /* \"contract/entities.sol\":1644:1697  mapping(address => uint256) public AddressEntreprises */\n    tag_13:\n      tag_62\n      0x04\n      dup1\n      calldatasize\n      sub\n      tag_63\n      swap2\n      swap1\n      dup2\n      add\n      swap1\n      jump(tag_64)\n    tag_63:\n      tag_65\n      jump\t// in\n    tag_62:\n      mload(0x40)\n      tag_66\n      swap2\n      swap1\n      jump(tag_28)\n    tag_66:\n      mload(0x40)\n      dup1\n      swap2\n      sub\n      swap1\n      return\n        /* \"contract/entities.sol\":1428:1481  mapping(uint256 => Etablisement) public Etablisements */\n    tag_14:\n      tag_67\n      0x04\n      dup1\n      calldatasize\n      sub\n      tag_68\n      swap2\n      swap1\n      dup2\n      add\n      swap1\n      jump(tag_23)\n    tag_68:\n      tag_69\n      jump\t// in\n    tag_67:\n      mload(0x40)\n      tag_70\n      swap7\n      swap6\n      swap5\n      swap4\n      swap3\n      swap2\n      swap1\n      jump(tag_71)\n    tag_70:\n      mload(0x40)\n      dup1\n      swap2\n      sub\n      swap1\n      return\n        /* \"contract/entities.sol\":5038:5483  function verifier(uint256 DiplomeID) public returns (Diplome memory) {\r... */\n    tag_15:\n      tag_72\n      0x04\n      dup1\n      calldatasize\n      sub\n      tag_73\n      swap2\n      swap1\n      dup2\n      add\n      swap1\n      jump(tag_23)\n    tag_73:\n      tag_74\n      jump\t// in\n    tag_72:\n      mload(0x40)\n      tag_75\n      swap2\n      swap1\n      jump(tag_76)\n    tag_75:\n      mload(0x40)\n      dup1\n      swap2\n      sub\n      swap1\n      return\n        /* \"contract/entities.sol\":3115:3273  function ajouter_entreprise(string memory Nom) public {\r... */\n    tag_16:\n      tag_77\n      0x04\n      dup1\n      calldatasize\n      sub\n      tag_78\n      swap2\n      swap1\n      dup2\n      add\n      swap1\n      jump(tag_48)\n    tag_78:\n      tag_79\n      jump\t// in\n    tag_77:\n      stop\n        /* \"contract/entities.sol\":1946:1974  uint256 public NbEntreprises */\n    tag_17:\n      tag_80\n      tag_81\n      jump\t// in\n    tag_80:\n      mload(0x40)\n      tag_82\n      swap2\n      swap1\n      jump(tag_28)\n    tag_82:\n      mload(0x40)\n      dup1\n      swap2\n      sub\n      swap1\n      return\n        /* \"contract/entities.sol\":3582:3932  function ajouter_diplome(uint256 ID_Titulaire) public {\r... */\n    tag_24:\n        /* \"contract/entities.sol\":3647:3657  uint256 id */\n      0x00\n        /* \"contract/entities.sol\":3660:3680  AddressEtablisements */\n      0x03\n        /* \"contract/entities.sol\":3660:3692  AddressEtablisements[msg.sender] */\n      0x00\n        /* \"contract/entities.sol\":3681:3691  msg.sender */\n      caller\n        /* \"contract/entities.sol\":3660:3692  AddressEtablisements[msg.sender] */\n      0xffffffffffffffffffffffffffffffffffffffff\n      and\n      0xffffffffffffffffffffffffffffffffffffffff\n      and\n      dup2\n      mstore\n      0x20\n      add\n      swap1\n      dup2\n      mstore\n      0x20\n      add\n      0x00\n      keccak256\n      sload\n        /* \"contract/entities.sol\":3647:3692  uint256 id = AddressEtablisements[msg.sender] */\n      swap1\n      pop\n        /* \"contract/entities.sol\":3717:3718  0 */\n      0x00\n        /* \"contract/entities.sol\":3711:3713  id */\n      dup2\n        /* \"contract/entities.sol\":3711:3718  id != 0 */\n      eq\n      iszero\n        /* \"contract/entities.sol\":3703:3739  require(id != 0, \"not etablisement\") */\n      tag_84\n      jumpi\n      mload(0x40)\n      0x08c379a000000000000000000000000000000000000000000000000000000000\n      dup2\n      mstore\n      0x04\n      add\n      tag_85\n      swap1\n      jump(tag_86)\n    tag_85:\n      mload(0x40)\n      dup1\n      swap2\n      sub\n      swap1\n      revert\n    tag_84:\n        /* \"contract/entities.sol\":3750:3766  Diplome memory d */\n      tag_87\n      tag_88\n      jump\t// in\n    tag_87:\n        /* \"contract/entities.sol\":3794:3806  ID_Titulaire */\n      dup3\n        /* \"contract/entities.sol\":3777:3778  d */\n      dup2\n        /* \"contract/entities.sol\":3777:3791  d.ID_Titulaire */\n      0x00\n      add\n        /* \"contract/entities.sol\":3777:3806  d.ID_Titulaire = ID_Titulaire */\n      dup2\n      dup2\n      mstore\n      pop\n      pop\n        /* \"contract/entities.sol\":3861:3874  Etablisements */\n      0x02\n        /* \"contract/entities.sol\":3861:3878  Etablisements[id] */\n      0x00\n        /* \"contract/entities.sol\":3875:3877  id */\n      dup4\n        /* \"contract/entities.sol\":3861:3878  Etablisements[id] */\n      dup2\n      mstore\n      0x20\n      add\n      swap1\n      dup2\n      mstore\n      0x20\n      add\n      0x00\n      keccak256\n        /* \"contract/entities.sol\":3861:3895  Etablisements[id].Nom_Etablisement */\n      0x00\n      add\n        /* \"contract/entities.sol\":3817:3895  d.Nom_Etablisement_Enseignement_Superieur = Etablisements[id].Nom_Etablisement */\n      dup1\n      sload\n      0x01\n      dup2\n      0x01\n      and\n      iszero\n      0x0100\n      mul\n      sub\n      and\n      0x02\n      swap1\n      div\n      dup1\n      0x1f\n      add\n      0x20\n      dup1\n      swap2\n      div\n      mul\n      0x20\n      add\n      mload(0x40)\n      swap1\n      dup2\n      add\n      0x40\n      mstore\n      dup1\n      swap3\n      swap2\n      swap1\n      dup2\n      dup2\n      mstore\n      0x20\n      add\n      dup3\n      dup1\n      sload\n      0x01\n      dup2\n      0x01\n      and\n      iszero\n      0x0100\n      mul\n      sub\n      and\n      0x02\n      swap1\n      div\n      dup1\n      iszero\n      tag_89\n      jumpi\n      dup1\n      0x1f\n      lt\n      tag_90\n      jumpi\n      0x0100\n      dup1\n      dup4\n      sload\n      div\n      mul\n      dup4\n      mstore\n      swap2\n      0x20\n      add\n      swap2\n      jump(tag_89)\n    tag_90:\n      dup3\n      add\n      swap2\n      swap1\n      0x00\n      mstore\n      keccak256(0x00, 0x20)\n      swap1\n    tag_91:\n      dup2\n      sload\n      dup2\n      mstore\n      swap1\n      0x01\n      add\n      swap1\n      0x20\n      add\n      dup1\n      dup4\n      gt\n      tag_91\n      jumpi\n      dup3\n      swap1\n      sub\n      0x1f\n      and\n      dup3\n      add\n      swap2\n    tag_89:\n      pop\n      pop\n      pop\n      pop\n      pop\n        /* \"contract/entities.sol\":3817:3818  d */\n      dup2\n        /* \"contract/entities.sol\":3817:3858  d.Nom_Etablisement_Enseignement_Superieur */\n      0x20\n      add\n        /* \"contract/entities.sol\":3817:3895  d.Nom_Etablisement_Enseignement_Superieur = Etablisements[id].Nom_Etablisement */\n      dup2\n      swap1\n      mstore\n      pop\n        /* \"contract/entities.sol\":3906:3924  ajouter_diplome(d) */\n      tag_92\n        /* \"contract/entities.sol\":3922:3923  d */\n      dup2\n        /* \"contract/entities.sol\":3906:3921  ajouter_diplome */\n      tag_93\n        /* \"contract/entities.sol\":3906:3924  ajouter_diplome(d) */\n      jump\t// in\n    tag_92:\n        /* \"contract/entities.sol\":3582:3932  function ajouter_diplome(uint256 ID_Titulaire) public {\r... */\n      pop\n      pop\n      pop\n      jump\t// out\n        /* \"contract/entities.sol\":1913:1939  uint256 public NbEtudiants */\n    tag_26:\n      sload(0x09)\n      dup2\n      jump\t// out\n        /* \"contract/entities.sol\":3940:4992  function evaluer(\r... */\n    tag_32:\n        /* \"contract/entities.sol\":4241:4251  uint256 id */\n      0x00\n        /* \"contract/entities.sol\":4254:4272  AddressEntreprises */\n      0x06\n        /* \"contract/entities.sol\":4254:4284  AddressEntreprises[msg.sender] */\n      0x00\n        /* \"contract/entities.sol\":4273:4283  msg.sender */\n      caller\n        /* \"contract/entities.sol\":4254:4284  AddressEntreprises[msg.sender] */\n      0xffffffffffffffffffffffffffffffffffffffff\n      and\n      0xffffffffffffffffffffffffffffffffffffffff\n      and\n      dup2\n      mstore\n      0x20\n      add\n      swap1\n      dup2\n      mstore\n      0x20\n      add\n      0x00\n      keccak256\n      sload\n        /* \"contract/entities.sol\":4241:4284  uint256 id = AddressEntreprises[msg.sender] */\n      swap1\n      pop\n        /* \"contract/entities.sol\":4309:4310  0 */\n      0x00\n        /* \"contract/entities.sol\":4303:4305  id */\n      dup2\n        /* \"contract/entities.sol\":4303:4310  id != 0 */\n      eq\n      iszero\n        /* \"contract/entities.sol\":4295:4329  require(id != 0, \"no Entreprises\") */\n      tag_95\n      jumpi\n      mload(0x40)\n      0x08c379a000000000000000000000000000000000000000000000000000000000\n      dup2\n      mstore\n      0x04\n      add\n      tag_96\n      swap1\n      jump(tag_97)\n    tag_96:\n      mload(0x40)\n      dup1\n      swap2\n      sub\n      swap1\n      revert\n    tag_95:\n        /* \"contract/entities.sol\":4374:4383  Sujet_PFE */\n      dup7\n        /* \"contract/entities.sol\":4340:4349  Etudiants */\n      0x04\n        /* \"contract/entities.sol\":4340:4361  Etudiants[EtudiantID] */\n      0x00\n        /* \"contract/entities.sol\":4350:4360  EtudiantID */\n      dup11\n        /* \"contract/entities.sol\":4340:4361  Etudiants[EtudiantID] */\n      dup2\n      mstore\n      0x20\n      add\n      swap1\n      dup2\n      mstore\n      0x20\n      add\n      0x00\n      keccak256\n        /* \"contract/entities.sol\":4340:4371  Etudiants[EtudiantID].Sujet_PFE */\n      0x0a\n      add\n        /* \"contract/entities.sol\":4340:4383  Etudiants[EtudiantID].Sujet_PFE = Sujet_PFE */\n      swap1\n      dup1\n      mload\n      swap1\n      0x20\n      add\n      swap1\n      tag_98\n      swap3\n      swap2\n      swap1\n      tag_99\n      jump\t// in\n    tag_98:\n      pop\n        /* \"contract/entities.sol\":4439:4459  Entreprise_Stage_PFE */\n      dup6\n        /* \"contract/entities.sol\":4394:4403  Etudiants */\n      0x04\n        /* \"contract/entities.sol\":4394:4415  Etudiants[EtudiantID] */\n      0x00\n        /* \"contract/entities.sol\":4404:4414  EtudiantID */\n      dup11\n        /* \"contract/entities.sol\":4394:4415  Etudiants[EtudiantID] */\n      dup2\n      mstore\n      0x20\n      add\n      swap1\n      dup2\n      mstore\n      0x20\n      add\n      0x00\n      keccak256\n        /* \"contract/entities.sol\":4394:4436  Etudiants[EtudiantID].Entreprise_Stage_PFE */\n      0x0b\n      add\n        /* \"contract/entities.sol\":4394:4459  Etudiants[EtudiantID].Entreprise_Stage_PFE = Entreprise_Stage_PFE */\n      swap1\n      dup1\n      mload\n      swap1\n      0x20\n      add\n      swap1\n      tag_100\n      swap3\n      swap2\n      swap1\n      tag_99\n      jump\t// in\n    tag_100:\n      pop\n        /* \"contract/entities.sol\":4518:4541  NomPrenom_MaitreDuStage */\n      dup5\n        /* \"contract/entities.sol\":4470:4479  Etudiants */\n      0x04\n        /* \"contract/entities.sol\":4470:4491  Etudiants[EtudiantID] */\n      0x00\n        /* \"contract/entities.sol\":4480:4490  EtudiantID */\n      dup11\n        /* \"contract/entities.sol\":4470:4491  Etudiants[EtudiantID] */\n      dup2\n      mstore\n      0x20\n      add\n      swap1\n      dup2\n      mstore\n      0x20\n      add\n      0x00\n      keccak256\n        /* \"contract/entities.sol\":4470:4515  Etudiants[EtudiantID].NomPrenom_MaitreDuStage */\n      0x0c\n      add\n        /* \"contract/entities.sol\":4470:4541  Etudiants[EtudiantID].NomPrenom_MaitreDuStage = NomPrenom_MaitreDuStage */\n      swap1\n      dup1\n      mload\n      swap1\n      0x20\n      add\n      swap1\n      tag_101\n      swap3\n      swap2\n      swap1\n      tag_99\n      jump\t// in\n    tag_101:\n      pop\n        /* \"contract/entities.sol\":4593:4609  Date_debut_stage */\n      dup4\n        /* \"contract/entities.sol\":4552:4561  Etudiants */\n      0x04\n        /* \"contract/entities.sol\":4552:4573  Etudiants[EtudiantID] */\n      0x00\n        /* \"contract/entities.sol\":4562:4572  EtudiantID */\n      dup11\n        /* \"contract/entities.sol\":4552:4573  Etudiants[EtudiantID] */\n      dup2\n      mstore\n      0x20\n      add\n      swap1\n      dup2\n      mstore\n      0x20\n      add\n      0x00\n      keccak256\n        /* \"contract/entities.sol\":4552:4590  Etudiants[EtudiantID].Date_debut_stage */\n      0x0d\n      add\n        /* \"contract/entities.sol\":4552:4609  Etudiants[EtudiantID].Date_debut_stage = Date_debut_stage */\n      dup2\n      swap1\n      sstore\n      pop\n        /* \"contract/entities.sol\":4659:4673  Date_fin_stage */\n      dup3\n        /* \"contract/entities.sol\":4620:4629  Etudiants */\n      0x04\n        /* \"contract/entities.sol\":4620:4641  Etudiants[EtudiantID] */\n      0x00\n        /* \"contract/entities.sol\":4630:4640  EtudiantID */\n      dup11\n        /* \"contract/entities.sol\":4620:4641  Etudiants[EtudiantID] */\n      dup2\n      mstore\n      0x20\n      add\n      swap1\n      dup2\n      mstore\n      0x20\n      add\n      0x00\n      keccak256\n        /* \"contract/entities.sol\":4620:4656  Etudiants[EtudiantID].Date_fin_stage */\n      0x0e\n      add\n        /* \"contract/entities.sol\":4620:4673  Etudiants[EtudiantID].Date_fin_stage = Date_fin_stage */\n      dup2\n      swap1\n      sstore\n      pop\n        /* \"contract/entities.sol\":4719:4729  Evaluation */\n      dup2\n        /* \"contract/entities.sol\":4684:4693  Etudiants */\n      0x04\n        /* \"contract/entities.sol\":4684:4705  Etudiants[EtudiantID] */\n      0x00\n        /* \"contract/entities.sol\":4694:4704  EtudiantID */\n      dup11\n        /* \"contract/entities.sol\":4684:4705  Etudiants[EtudiantID] */\n      dup2\n      mstore\n      0x20\n      add\n      swap1\n      dup2\n      mstore\n      0x20\n      add\n      0x00\n      keccak256\n        /* \"contract/entities.sol\":4684:4716  Etudiants[EtudiantID].Evaluation */\n      0x0f\n      add\n        /* \"contract/entities.sol\":4684:4729  Etudiants[EtudiantID].Evaluation = Evaluation */\n      swap1\n      dup1\n      mload\n      swap1\n      0x20\n      add\n      swap1\n      tag_102\n      swap3\n      swap2\n      swap1\n      tag_99\n      jump\t// in\n    tag_102:\n      pop\n        /* \"contract/entities.sol\":4812:4814  15 */\n      0x0f\n        /* \"contract/entities.sol\":4770:4775  token */\n      0x01\n      0x00\n      swap1\n      sload\n      swap1\n      0x0100\n      exp\n      swap1\n      div\n      0xffffffffffffffffffffffffffffffffffffffff\n      and\n        /* \"contract/entities.sol\":4762:4786  MyToken(token).allowance */\n      0xffffffffffffffffffffffffffffffffffffffff\n      and\n      0xdd62ed3e\n        /* \"contract/entities.sol\":4787:4792  owner */\n      0x00\n      dup1\n      swap1\n      sload\n      swap1\n      0x0100\n      exp\n      swap1\n      div\n      0xffffffffffffffffffffffffffffffffffffffff\n      and\n        /* \"contract/entities.sol\":4802:4806  this */\n      address\n        /* \"contract/entities.sol\":4762:4808  MyToken(token).allowance(owner, address(this)) */\n      mload(0x40)\n      dup4\n      0xffffffff\n      and\n      0xe0\n      shl\n      dup2\n      mstore\n      0x04\n      add\n      tag_103\n      swap3\n      swap2\n      swap1\n      jump(tag_104)\n    tag_103:\n      0x20\n      mload(0x40)\n      dup1\n      dup4\n      sub\n      dup2\n      dup7\n      dup1\n      extcodesize\n      iszero\n        /* \"--CODEGEN--\":8:17   */\n      dup1\n        /* \"--CODEGEN--\":5:7   */\n      iszero\n      tag_105\n      jumpi\n        /* \"--CODEGEN--\":30:31   */\n      0x00\n        /* \"--CODEGEN--\":27:28   */\n      dup1\n        /* \"--CODEGEN--\":20:32   */\n      revert\n        /* \"--CODEGEN--\":5:7   */\n    tag_105:\n        /* \"contract/entities.sol\":4762:4808  MyToken(token).allowance(owner, address(this)) */\n      pop\n      gas\n      staticcall\n      iszero\n        /* \"--CODEGEN--\":8:17   */\n      dup1\n        /* \"--CODEGEN--\":5:7   */\n      iszero\n      tag_107\n      jumpi\n        /* \"--CODEGEN--\":45:61   */\n      returndatasize\n        /* \"--CODEGEN--\":42:43   */\n      0x00\n        /* \"--CODEGEN--\":39:40   */\n      dup1\n        /* \"--CODEGEN--\":24:62   */\n      returndatacopy\n        /* \"--CODEGEN--\":77:93   */\n      returndatasize\n        /* \"--CODEGEN--\":74:75   */\n      0x00\n        /* \"--CODEGEN--\":67:94   */\n      revert\n        /* \"--CODEGEN--\":5:7   */\n    tag_107:\n        /* \"contract/entities.sol\":4762:4808  MyToken(token).allowance(owner, address(this)) */\n      pop\n      pop\n      pop\n      pop\n      mload(0x40)\n      returndatasize\n        /* \"--CODEGEN--\":101:105   */\n      0x1f\n        /* \"--CODEGEN--\":97:106   */\n      not\n        /* \"--CODEGEN--\":90:94   */\n      0x1f\n        /* \"--CODEGEN--\":84:88   */\n      dup3\n        /* \"--CODEGEN--\":80:95   */\n      add\n        /* \"--CODEGEN--\":76:107   */\n      and\n        /* \"--CODEGEN--\":69:74   */\n      dup3\n        /* \"--CODEGEN--\":65:108   */\n      add\n        /* \"--CODEGEN--\":126:132   */\n      dup1\n        /* \"--CODEGEN--\":120:124   */\n      0x40\n        /* \"--CODEGEN--\":113:133   */\n      mstore\n        /* \"--CODEGEN--\":0:138   */\n      pop\n        /* \"contract/entities.sol\":4762:4808  MyToken(token).allowance(owner, address(this)) */\n      tag_108\n      swap2\n      swap1\n      dup2\n      add\n      swap1\n      jump(tag_109)\n    tag_108:\n        /* \"contract/entities.sol\":4762:4814  MyToken(token).allowance(owner, address(this)) >= 15 */\n      lt\n      iszero\n        /* \"contract/entities.sol\":4740:4859  require(\r... */\n      tag_110\n      jumpi\n      mload(0x40)\n      0x08c379a000000000000000000000000000000000000000000000000000000000\n      dup2\n      mstore\n      0x04\n      add\n      tag_111\n      swap1\n      jump(tag_112)\n    tag_111:\n      mload(0x40)\n      dup1\n      swap2\n      sub\n      swap1\n      revert\n    tag_110:\n        /* \"contract/entities.sol\":4900:4905  token */\n      0x01\n      0x00\n      swap1\n      sload\n      swap1\n      0x0100\n      exp\n      swap1\n      div\n      0xffffffffffffffffffffffffffffffffffffffff\n      and\n        /* \"contract/entities.sol\":4892:4919  MyToken(token).transferFrom */\n      0xffffffffffffffffffffffffffffffffffffffff\n      and\n      0x23b872dd\n        /* \"contract/entities.sol\":4920:4925  owner */\n      0x00\n      dup1\n      swap1\n      sload\n      swap1\n      0x0100\n      exp\n      swap1\n      div\n      0xffffffffffffffffffffffffffffffffffffffff\n      and\n        /* \"contract/entities.sol\":4927:4937  msg.sender */\n      caller\n        /* \"contract/entities.sol\":4939:4941  15 */\n      0x0f\n        /* \"contract/entities.sol\":4892:4942  MyToken(token).transferFrom(owner, msg.sender, 15) */\n      mload(0x40)\n      dup5\n      0xffffffff\n      and\n      0xe0\n      shl\n      dup2\n      mstore\n      0x04\n      add\n      tag_113\n      swap4\n      swap3\n      swap2\n      swap1\n      jump(tag_114)\n    tag_113:\n      0x20\n      mload(0x40)\n      dup1\n      dup4\n      sub\n      dup2\n      0x00\n      dup8\n      dup1\n      extcodesize\n      iszero\n        /* \"--CODEGEN--\":8:17   */\n      dup1\n        /* \"--CODEGEN--\":5:7   */\n      iszero\n      tag_115\n      jumpi\n        /* \"--CODEGEN--\":30:31   */\n      0x00\n        /* \"--CODEGEN--\":27:28   */\n      dup1\n        /* \"--CODEGEN--\":20:32   */\n      revert\n        /* \"--CODEGEN--\":5:7   */\n    tag_115:\n        /* \"contract/entities.sol\":4892:4942  MyToken(token).transferFrom(owner, msg.sender, 15) */\n      pop\n      gas\n      call\n      iszero\n        /* \"--CODEGEN--\":8:17   */\n      dup1\n        /* \"--CODEGEN--\":5:7   */\n      iszero\n      tag_117\n      jumpi\n        /* \"--CODEGEN--\":45:61   */\n      returndatasize\n        /* \"--CODEGEN--\":42:43   */\n      0x00\n        /* \"--CODEGEN--\":39:40   */\n      dup1\n        /* \"--CODEGEN--\":24:62   */\n      returndatacopy\n        /* \"--CODEGEN--\":77:93   */\n      returndatasize\n        /* \"--CODEGEN--\":74:75   */\n      0x00\n        /* \"--CODEGEN--\":67:94   */\n      revert\n        /* \"--CODEGEN--\":5:7   */\n    tag_117:\n        /* \"contract/entities.sol\":4892:4942  MyToken(token).transferFrom(owner, msg.sender, 15) */\n      pop\n      pop\n      pop\n      pop\n      mload(0x40)\n      returndatasize\n        /* \"--CODEGEN--\":101:105   */\n      0x1f\n        /* \"--CODEGEN--\":97:106   */\n      not\n        /* \"--CODEGEN--\":90:94   */\n      0x1f\n        /* \"--CODEGEN--\":84:88   */\n      dup3\n        /* \"--CODEGEN--\":80:95   */\n      add\n        /* \"--CODEGEN--\":76:107   */\n      and\n        /* \"--CODEGEN--\":69:74   */\n      dup3\n        /* \"--CODEGEN--\":65:108   */\n      add\n        /* \"--CODEGEN--\":126:132   */\n      dup1\n        /* \"--CODEGEN--\":120:124   */\n      0x40\n        /* \"--CODEGEN--\":113:133   */\n      mstore\n        /* \"--CODEGEN--\":0:138   */\n      pop\n        /* \"contract/entities.sol\":4892:4942  MyToken(token).transferFrom(owner, msg.sender, 15) */\n      tag_118\n      swap2\n      swap1\n      dup2\n      add\n      swap1\n      jump(tag_119)\n    tag_118:\n        /* \"contract/entities.sol\":4870:4984  require(\r... */\n      tag_120\n      jumpi\n      mload(0x40)\n      0x08c379a000000000000000000000000000000000000000000000000000000000\n      dup2\n      mstore\n      0x04\n      add\n      tag_121\n      swap1\n      jump(tag_122)\n    tag_121:\n      mload(0x40)\n      dup1\n      swap2\n      sub\n      swap1\n      revert\n    tag_120:\n        /* \"contract/entities.sol\":3940:4992  function evaluer(\r... */\n      pop\n      pop\n      pop\n      pop\n      pop\n      pop\n      pop\n      pop\n      jump\t// out\n        /* \"contract/entities.sol\":1876:1906  uint256 public NbEtablisements */\n    tag_34:\n      sload(0x08)\n      dup2\n      jump\t// out\n        /* \"contract/entities.sol\":1704:1747  mapping(uint256 => Diplome) public Diplomes */\n    tag_38:\n      mstore(0x20, 0x07)\n      dup1\n      0x00\n      mstore\n      keccak256(0x00, 0x40)\n      0x00\n      swap2\n      pop\n      swap1\n      pop\n      dup1\n      0x00\n      add\n      sload\n      swap1\n      dup1\n      0x01\n      add\n      dup1\n      sload\n      0x01\n      dup2\n      0x01\n      and\n      iszero\n      0x0100\n      mul\n      sub\n      and\n      0x02\n      swap1\n      div\n      dup1\n      0x1f\n      add\n      0x20\n      dup1\n      swap2\n      div\n      mul\n      0x20\n      add\n      mload(0x40)\n      swap1\n      dup2\n      add\n      0x40\n      mstore\n      dup1\n      swap3\n      swap2\n      swap1\n      dup2\n      dup2\n      mstore\n      0x20\n      add\n      dup3\n      dup1\n      sload\n      0x01\n      dup2\n      0x01\n      and\n      iszero\n      0x0100\n      mul\n      sub\n      and\n      0x02\n      swap1\n      div\n      dup1\n      iszero\n      tag_123\n      jumpi\n      dup1\n      0x1f\n      lt\n      tag_124\n      jumpi\n      0x0100\n      dup1\n      dup4\n      sload\n      div\n      mul\n      dup4\n      mstore\n      swap2\n      0x20\n      add\n      swap2\n      jump(tag_123)\n    tag_124:\n      dup3\n      add\n      swap2\n      swap1\n      0x00\n      mstore\n      keccak256(0x00, 0x20)\n      swap1\n    tag_125:\n      dup2\n      sload\n      dup2\n      mstore\n      swap1\n      0x01\n      add\n      swap1\n      0x20\n      add\n      dup1\n      dup4\n      gt\n      tag_125\n      jumpi\n      dup3\n      swap1\n      sub\n      0x1f\n      and\n      dup3\n      add\n      swap2\n    tag_123:\n      pop\n      pop\n      pop\n      pop\n      pop\n      swap1\n      dup1\n      0x02\n      add\n      sload\n      swap1\n      dup1\n      0x03\n      add\n      dup1\n      sload\n      0x01\n      dup2\n      0x01\n      and\n      iszero\n      0x0100\n      mul\n      sub\n      and\n      0x02\n      swap1\n      div\n      dup1\n      0x1f\n      add\n      0x20\n      dup1\n      swap2\n      div\n      mul\n      0x20\n      add\n      mload(0x40)\n      swap1\n      dup2\n      add\n      0x40\n      mstore\n      dup1\n      swap3\n      swap2\n      swap1\n      dup2\n      dup2\n      mstore\n      0x20\n      add\n      dup3\n      dup1\n      sload\n      0x01\n      dup2\n      0x01\n      and\n      iszero\n      0x0100\n      mul\n      sub\n      and\n      0x02\n      swap1\n      div\n      dup1\n      iszero\n      tag_126\n      jumpi\n      dup1\n      0x1f\n      lt\n      tag_127\n      jumpi\n      0x0100\n      dup1\n      dup4\n      sload\n      div\n      mul\n      dup4\n      mstore\n      swap2\n      0x20\n      add\n      swap2\n      jump(tag_126)\n    tag_127:\n      dup3\n      add\n      swap2\n      swap1\n      0x00\n      mstore\n      keccak256(0x00, 0x20)\n      swap1\n    tag_128:\n      dup2\n      sload\n      dup2\n      mstore\n      swap1\n      0x01\n      add\n      swap1\n      0x20\n      add\n      dup1\n      dup4\n      gt\n      tag_128\n      jumpi\n      dup3\n      swap1\n      sub\n      0x1f\n      and\n      dup3\n      add\n      swap2\n    tag_126:\n      pop\n      pop\n      pop\n      pop\n      pop\n      swap1\n      dup1\n      0x04\n      add\n      dup1\n      sload\n      0x01\n      dup2\n      0x01\n      and\n      iszero\n      0x0100\n      mul\n      sub\n      and\n      0x02\n      swap1\n      div\n      dup1\n      0x1f\n      add\n      0x20\n      dup1\n      swap2\n      div\n      mul\n      0x20\n      add\n      mload(0x40)\n      swap1\n      dup2\n      add\n      0x40\n      mstore\n      dup1\n      swap3\n      swap2\n      swap1\n      dup2\n      dup2\n      mstore\n      0x20\n      add\n      dup3\n      dup1\n      sload\n      0x01\n      dup2\n      0x01\n      and\n      iszero\n      0x0100\n      mul\n      sub\n      and\n      0x02\n      swap1\n      div\n      dup1\n      iszero\n      tag_129\n      jumpi\n      dup1\n      0x1f\n      lt\n      tag_130\n      jumpi\n      0x0100\n      dup1\n      dup4\n      sload\n      div\n      mul\n      dup4\n      mstore\n      swap2\n      0x20\n      add\n      swap2\n      jump(tag_129)\n    tag_130:\n      dup3\n      add\n      swap2\n      swap1\n      0x00\n      mstore\n      keccak256(0x00, 0x20)\n      swap1\n    tag_131:\n      dup2\n      sload\n      dup2\n      mstore\n      swap1\n      0x01\n      add\n      swap1\n      0x20\n      add\n      dup1\n      dup4\n      gt\n      tag_131\n      jumpi\n      dup3\n      swap1\n      sub\n      0x1f\n      and\n      dup3\n      add\n      swap2\n    tag_129:\n      pop\n      pop\n      pop\n      pop\n      pop\n      swap1\n      dup1\n      0x05\n      add\n      dup1\n      sload\n      0x01\n      dup2\n      0x01\n      and\n      iszero\n      0x0100\n      mul\n      sub\n      and\n      0x02\n      swap1\n      div\n      dup1\n      0x1f\n      add\n      0x20\n      dup1\n      swap2\n      div\n      mul\n      0x20\n      add\n      mload(0x40)\n      swap1\n      dup2\n      add\n      0x40\n      mstore\n      dup1\n      swap3\n      swap2\n      swap1\n      dup2\n      dup2\n      mstore\n      0x20\n      add\n      dup3\n      dup1\n      sload\n      0x01\n      dup2\n      0x01\n      and\n      iszero\n      0x0100\n      mul\n      sub\n      and\n      0x02\n      swap1\n      div\n      dup1\n      iszero\n      tag_132\n      jumpi\n      dup1\n      0x1f\n      lt\n      tag_133\n      jumpi\n      0x0100\n      dup1\n      dup4\n      sload\n      div\n      mul\n      dup4\n      mstore\n      swap2\n      0x20\n      add\n      swap2\n      jump(tag_132)\n    tag_133:\n      dup3\n      add\n      swap2\n      swap1\n      0x00\n      mstore\n      keccak256(0x00, 0x20)\n      swap1\n    tag_134:\n      dup2\n      sload\n      dup2\n      mstore\n      swap1\n      0x01\n      add\n      swap1\n      0x20\n      add\n      dup1\n      dup4\n      gt\n      tag_134\n      jumpi\n      dup3\n      swap1\n      sub\n      0x1f\n      and\n      dup3\n      add\n      swap2\n    tag_132:\n      pop\n      pop\n      pop\n      pop\n      pop\n      swap1\n      dup1\n      0x06\n      add\n      dup1\n      sload\n      0x01\n      dup2\n      0x01\n      and\n      iszero\n      0x0100\n      mul\n      sub\n      and\n      0x02\n      swap1\n      div\n      dup1\n      0x1f\n      add\n      0x20\n      dup1\n      swap2\n      div\n      mul\n      0x20\n      add\n      mload(0x40)\n      swap1\n      dup2\n      add\n      0x40\n      mstore\n      dup1\n      swap3\n      swap2\n      swap1\n      dup2\n      dup2\n      mstore\n      0x20\n      add\n      dup3\n      dup1\n      sload\n      0x01\n      dup2\n      0x01\n      and\n      iszero\n      0x0100\n      mul\n      sub\n      and\n      0x02\n      swap1\n      div\n      dup1\n      iszero\n      tag_135\n      jumpi\n      dup1\n      0x1f\n      lt\n      tag_136\n      jumpi\n      0x0100\n      dup1\n      dup4\n      sload\n      div\n      mul\n      dup4\n      mstore\n      swap2\n      0x20\n      add\n      swap2\n      jump(tag_135)\n    tag_136:\n      dup3\n      add\n      swap2\n      swap1\n      0x00\n      mstore\n      keccak256(0x00, 0x20)\n      swap1\n    tag_137:\n      dup2\n      sload\n      dup2\n      mstore\n      swap1\n      0x01\n      add\n      swap1\n      0x20\n      add\n      dup1\n      dup4\n      gt\n      tag_137\n      jumpi\n      dup3\n      swap1\n      sub\n      0x1f\n      and\n      dup3\n      add\n      swap2\n    tag_135:\n      pop\n      pop\n      pop\n      pop\n      pop\n      swap1\n      dup1\n      0x07\n      add\n      sload\n      swap1\n      pop\n      dup9\n      jump\t// out\n        /* \"contract/entities.sol\":1588:1637  mapping(uint256 => Entreprise) public Entreprises */\n    tag_43:\n      mstore(0x20, 0x05)\n      dup1\n      0x00\n      mstore\n      keccak256(0x00, 0x40)\n      0x00\n      swap2\n      pop\n      swap1\n      pop\n      dup1\n      0x00\n      add\n      dup1\n      sload\n      0x01\n      dup2\n      0x01\n      and\n      iszero\n      0x0100\n      mul\n      sub\n      and\n      0x02\n      swap1\n      div\n      dup1\n      0x1f\n      add\n      0x20\n      dup1\n      swap2\n      div\n      mul\n      0x20\n      add\n      mload(0x40)\n      swap1\n      dup2\n      add\n      0x40\n      mstore\n      dup1\n      swap3\n      swap2\n      swap1\n      dup2\n      dup2\n      mstore\n      0x20\n      add\n      dup3\n      dup1\n      sload\n      0x01\n      dup2\n      0x01\n      and\n      iszero\n      0x0100\n      mul\n      sub\n      and\n      0x02\n      swap1\n      div\n      dup1\n      iszero\n      tag_138\n      jumpi\n      dup1\n      0x1f\n      lt\n      tag_139\n      jumpi\n      0x0100\n      dup1\n      dup4\n      sload\n      div\n      mul\n      dup4\n      mstore\n      swap2\n      0x20\n      add\n      swap2\n      jump(tag_138)\n    tag_139:\n      dup3\n      add\n      swap2\n      swap1\n      0x00\n      mstore\n      keccak256(0x00, 0x20)\n      swap1\n    tag_140:\n      dup2\n      sload\n      dup2\n      mstore\n      swap1\n      0x01\n      add\n      swap1\n      0x20\n      add\n      dup1\n      dup4\n      gt\n      tag_140\n      jumpi\n      dup3\n      swap1\n      sub\n      0x1f\n      and\n      dup3\n      add\n      swap2\n    tag_138:\n      pop\n      pop\n      pop\n      pop\n      pop\n      swap1\n      dup1\n      0x01\n      add\n      dup1\n      sload\n      0x01\n      dup2\n      0x01\n      and\n      iszero\n      0x0100\n      mul\n      sub\n      and\n      0x02\n      swap1\n      div\n      dup1\n      0x1f\n      add\n      0x20\n      dup1\n      swap2\n      div\n      mul\n      0x20\n      add\n      mload(0x40)\n      swap1\n      dup2\n      add\n      0x40\n      mstore\n      dup1\n      swap3\n      swap2\n      swap1\n      dup2\n      dup2\n      mstore\n      0x20\n      add\n      dup3\n      dup1\n      sload\n      0x01\n      dup2\n      0x01\n      and\n      iszero\n      0x0100\n      mul\n      sub\n      and\n      0x02\n      swap1\n      div\n      dup1\n      iszero\n      tag_141\n      jumpi\n      dup1\n      0x1f\n      lt\n      tag_142\n      jumpi\n      0x0100\n      dup1\n      dup4\n      sload\n      div\n      mul\n      dup4\n      mstore\n      swap2\n      0x20\n      add\n      swap2\n      jump(tag_141)\n    tag_142:\n      dup3\n      add\n      swap2\n      swap1\n      0x00\n      mstore\n      keccak256(0x00, 0x20)\n      swap1\n    tag_143:\n      dup2\n      sload\n      dup2\n      mstore\n      swap1\n      0x01\n      add\n      swap1\n      0x20\n      add\n      dup1\n      dup4\n      gt\n      tag_143\n      jumpi\n      dup3\n      swap1\n      sub\n      0x1f\n      and\n      dup3\n      add\n      swap2\n    tag_141:\n      pop\n      pop\n      pop\n      pop\n      pop\n      swap1\n      dup1\n      0x02\n      add\n      sload\n      swap1\n      dup1\n      0x03\n      add\n      dup1\n      sload\n      0x01\n      dup2\n      0x01\n      and\n      iszero\n      0x0100\n      mul\n      sub\n      and\n      0x02\n      swap1\n      div\n      dup1\n      0x1f\n      add\n      0x20\n      dup1\n      swap2\n      div\n      mul\n      0x20\n      add\n      mload(0x40)\n      swap1\n      dup2\n      add\n      0x40\n      mstore\n      dup1\n      swap3\n      swap2\n      swap1\n      dup2\n      dup2\n      mstore\n      0x20\n      add\n      dup3\n      dup1\n      sload\n      0x01\n      dup2\n      0x01\n      and\n      iszero\n      0x0100\n      mul\n      sub\n      and\n      0x02\n      swap1\n      div\n      dup1\n      iszero\n      tag_144\n      jumpi\n      dup1\n      0x1f\n      lt\n      tag_145\n      jumpi\n      0x0100\n      dup1\n      dup4\n      sload\n      div\n      mul\n      dup4\n      mstore\n      swap2\n      0x20\n      add\n      swap2\n      jump(tag_144)\n    tag_145:\n      dup3\n      add\n      swap2\n      swap1\n      0x00\n      mstore\n      keccak256(0x00, 0x20)\n      swap1\n    tag_146:\n      dup2\n      sload\n      dup2\n      mstore\n      swap1\n      0x01\n      add\n      swap1\n      0x20\n      add\n      dup1\n      dup4\n      gt\n      tag_146\n      jumpi\n      dup3\n      swap1\n      sub\n      0x1f\n      and\n      dup3\n      add\n      swap2\n    tag_144:\n      pop\n      pop\n      pop\n      pop\n      pop\n      swap1\n      dup1\n      0x04\n      add\n      dup1\n      sload\n      0x01\n      dup2\n      0x01\n      and\n      iszero\n      0x0100\n      mul\n      sub\n      and\n      0x02\n      swap1\n      div\n      dup1\n      0x1f\n      add\n      0x20\n      dup1\n      swap2\n      div\n      mul\n      0x20\n      add\n      mload(0x40)\n      swap1\n      dup2\n      add\n      0x40\n      mstore\n      dup1\n      swap3\n      swap2\n      swap1\n      dup2\n      dup2\n      mstore\n      0x20\n      add\n      dup3\n      dup1\n      sload\n      0x01\n      dup2\n      0x01\n      and\n      iszero\n      0x0100\n      mul\n      sub\n      and\n      0x02\n      swap1\n      div\n      dup1\n      iszero\n      tag_147\n      jumpi\n      dup1\n      0x1f\n      lt\n      tag_148\n      jumpi\n      0x0100\n      dup1\n      dup4\n      sload\n      div\n      mul\n      dup4\n      mstore\n      swap2\n      0x20\n      add\n      swap2\n      jump(tag_147)\n    tag_148:\n      dup3\n      add\n      swap2\n      swap1\n      0x00\n      mstore\n      keccak256(0x00, 0x20)\n      swap1\n    tag_149:\n      dup2\n      sload\n      dup2\n      mstore\n      swap1\n      0x01\n      add\n      swap1\n      0x20\n      add\n      dup1\n      dup4\n      gt\n      tag_149\n      jumpi\n      dup3\n      swap1\n      sub\n      0x1f\n      and\n      dup3\n      add\n      swap2\n    tag_147:\n      pop\n      pop\n      pop\n      pop\n      pop\n      swap1\n      dup1\n      0x05\n      add\n      dup1\n      sload\n      0x01\n      dup2\n      0x01\n      and\n      iszero\n      0x0100\n      mul\n      sub\n      and\n      0x02\n      swap1\n      div\n      dup1\n      0x1f\n      add\n      0x20\n      dup1\n      swap2\n      div\n      mul\n      0x20\n      add\n      mload(0x40)\n      swap1\n      dup2\n      add\n      0x40\n      mstore\n      dup1\n      swap3\n      swap2\n      swap1\n      dup2\n      dup2\n      mstore\n      0x20\n      add\n      dup3\n      dup1\n      sload\n      0x01\n      dup2\n      0x01\n      and\n      iszero\n      0x0100\n      mul\n      sub\n      and\n      0x02\n      swap1\n      div\n      dup1\n      iszero\n      tag_150\n      jumpi\n      dup1\n      0x1f\n      lt\n      tag_151\n      jumpi\n      0x0100\n      dup1\n      dup4\n      sload\n      div\n      mul\n      dup4\n      mstore\n      swap2\n      0x20\n      add\n      swap2\n      jump(tag_150)\n    tag_151:\n      dup3\n      add\n      swap2\n      swap1\n      0x00\n      mstore\n      keccak256(0x00, 0x20)\n      swap1\n    tag_152:\n      dup2\n      sload\n      dup2\n      mstore\n      swap1\n      0x01\n      add\n      swap1\n      0x20\n      add\n      dup1\n      dup4\n      gt\n      tag_152\n      jumpi\n      dup3\n      swap1\n      sub\n      0x1f\n      and\n      dup3\n      add\n      swap2\n    tag_150:\n      pop\n      pop\n      pop\n      pop\n      pop\n      swap1\n      dup1\n      0x06\n      add\n      dup1\n      sload\n      0x01\n      dup2\n      0x01\n      and\n      iszero\n      0x0100\n      mul\n      sub\n      and\n      0x02\n      swap1\n      div\n      dup1\n      0x1f\n      add\n      0x20\n      dup1\n      swap2\n      div\n      mul\n      0x20\n      add\n      mload(0x40)\n      swap1\n      dup2\n      add\n      0x40\n      mstore\n      dup1\n      swap3\n      swap2\n      swap1\n      dup2\n      dup2\n      mstore\n      0x20\n      add\n      dup3\n      dup1\n      sload\n      0x01\n      dup2\n      0x01\n      and\n      iszero\n      0x0100\n      mul\n      sub\n      and\n      0x02\n      swap1\n      div\n      dup1\n      iszero\n      tag_153\n      jumpi\n      dup1\n      0x1f\n      lt\n      tag_154\n      jumpi\n      0x0100\n      dup1\n      dup4\n      sload\n      div\n      mul\n      dup4\n      mstore\n      swap2\n      0x20\n      add\n      swap2\n      jump(tag_153)\n    tag_154:\n      dup3\n      add\n      swap2\n      swap1\n      0x00\n      mstore\n      keccak256(0x00, 0x20)\n      swap1\n    tag_155:\n      dup2\n      sload\n      dup2\n      mstore\n      swap1\n      0x01\n      add\n      swap1\n      0x20\n      add\n      dup1\n      dup4\n      gt\n      tag_155\n      jumpi\n      dup3\n      swap1\n      sub\n      0x1f\n      and\n      dup3\n      add\n      swap2\n    tag_153:\n      pop\n      pop\n      pop\n      pop\n      pop\n      swap1\n      dup1\n      0x07\n      add\n      dup1\n      sload\n      0x01\n      dup2\n      0x01\n      and\n      iszero\n      0x0100\n      mul\n      sub\n      and\n      0x02\n      swap1\n      div\n      dup1\n      0x1f\n      add\n      0x20\n      dup1\n      swap2\n      div\n      mul\n      0x20\n      add\n      mload(0x40)\n      swap1\n      dup2\n      add\n      0x40\n      mstore\n      dup1\n      swap3\n      swap2\n      swap1\n      dup2\n      dup2\n      mstore\n      0x20\n      add\n      dup3\n      dup1\n      sload\n      0x01\n      dup2\n      0x01\n      and\n      iszero\n      0x0100\n      mul\n      sub\n      and\n      0x02\n      swap1\n      div\n      dup1\n      iszero\n      tag_156\n      jumpi\n      dup1\n      0x1f\n      lt\n      tag_157\n      jumpi\n      0x0100\n      dup1\n      dup4\n      sload\n      div\n      mul\n      dup4\n      mstore\n      swap2\n      0x20\n      add\n      swap2\n      jump(tag_156)\n    tag_157:\n      dup3\n      add\n      swap2\n      swap1\n      0x00\n      mstore\n      keccak256(0x00, 0x20)\n      swap1\n    tag_158:\n      dup2\n      sload\n      dup2\n      mstore\n      swap1\n      0x01\n      add\n      swap1\n      0x20\n      add\n      dup1\n      dup4\n      gt\n      tag_158\n      jumpi\n      dup3\n      swap1\n      sub\n      0x1f\n      and\n      dup3\n      add\n      swap2\n    tag_156:\n      pop\n      pop\n      pop\n      pop\n      pop\n      swap1\n      dup1\n      0x08\n      add\n      dup1\n      sload\n      0x01\n      dup2\n      0x01\n      and\n      iszero\n      0x0100\n      mul\n      sub\n      and\n      0x02\n      swap1\n      div\n      dup1\n      0x1f\n      add\n      0x20\n      dup1\n      swap2\n      div\n      mul\n      0x20\n      add\n      mload(0x40)\n      swap1\n      dup2\n      add\n      0x40\n      mstore\n      dup1\n      swap3\n      swap2\n      swap1\n      dup2\n      dup2\n      mstore\n      0x20\n      add\n      dup3\n      dup1\n      sload\n      0x01\n      dup2\n      0x01\n      and\n      iszero\n      0x0100\n      mul\n      sub\n      and\n      0x02\n      swap1\n      div\n      dup1\n      iszero\n      tag_159\n      jumpi\n      dup1\n      0x1f\n      lt\n      tag_160\n      jumpi\n      0x0100\n      dup1\n      dup4\n      sload\n      div\n      mul\n      dup4\n      mstore\n      swap2\n      0x20\n      add\n      swap2\n      jump(tag_159)\n    tag_160:\n      dup3\n      add\n      swap2\n      swap1\n      0x00\n      mstore\n      keccak256(0x00, 0x20)\n      swap1\n    tag_161:\n      dup2\n      sload\n      dup2\n      mstore\n      swap1\n      0x01\n      add\n      swap1\n      0x20\n      add\n      dup1\n      dup4\n      gt\n      tag_161\n      jumpi\n      dup3\n      swap1\n      sub\n      0x1f\n      and\n      dup3\n      add\n      swap2\n    tag_159:\n      pop\n      pop\n      pop\n      pop\n      pop\n      swap1\n      pop\n      dup10\n      jump\t// out\n        /* \"contract/entities.sol\":2930:3107  function ajouter_etablisement(string memory Nom) public {\r... */\n    tag_49:\n        /* \"contract/entities.sol\":2997:3018  Etablisement memory e */\n      tag_163\n      tag_164\n      jump\t// in\n    tag_163:\n        /* \"contract/entities.sol\":3050:3053  Nom */\n      dup2\n        /* \"contract/entities.sol\":3029:3030  e */\n      dup2\n        /* \"contract/entities.sol\":3029:3047  e.Nom_Etablisement */\n      0x00\n      add\n        /* \"contract/entities.sol\":3029:3053  e.Nom_Etablisement = Nom */\n      dup2\n      swap1\n      mstore\n      pop\n        /* \"contract/entities.sol\":3064:3099  ajouter_etablisement(e, msg.sender) */\n      tag_165\n        /* \"contract/entities.sol\":3085:3086  e */\n      dup2\n        /* \"contract/entities.sol\":3088:3098  msg.sender */\n      caller\n        /* \"contract/entities.sol\":3064:3084  ajouter_etablisement */\n      tag_166\n        /* \"contract/entities.sol\":3064:3099  ajouter_etablisement(e, msg.sender) */\n      jump\t// in\n    tag_165:\n        /* \"contract/entities.sol\":2930:3107  function ajouter_etablisement(string memory Nom) public {\r... */\n      pop\n      pop\n      jump\t// out\n        /* \"contract/entities.sol\":3281:3574  function ajouter_etudiant(string memory Nom, string memory Prenom) public {\r... */\n    tag_53:\n        /* \"contract/entities.sol\":3366:3376  uint256 id */\n      0x00\n        /* \"contract/entities.sol\":3379:3399  AddressEtablisements */\n      0x03\n        /* \"contract/entities.sol\":3379:3411  AddressEtablisements[msg.sender] */\n      0x00\n        /* \"contract/entities.sol\":3400:3410  msg.sender */\n      caller\n        /* \"contract/entities.sol\":3379:3411  AddressEtablisements[msg.sender] */\n      0xffffffffffffffffffffffffffffffffffffffff\n      and\n      0xffffffffffffffffffffffffffffffffffffffff\n      and\n      dup2\n      mstore\n      0x20\n      add\n      swap1\n      dup2\n      mstore\n      0x20\n      add\n      0x00\n      keccak256\n      sload\n        /* \"contract/entities.sol\":3366:3411  uint256 id = AddressEtablisements[msg.sender] */\n      swap1\n      pop\n        /* \"contract/entities.sol\":3436:3437  0 */\n      0x00\n        /* \"contract/entities.sol\":3430:3432  id */\n      dup2\n        /* \"contract/entities.sol\":3430:3437  id != 0 */\n      eq\n      iszero\n        /* \"contract/entities.sol\":3422:3458  require(id != 0, \"not etablisement\") */\n      tag_168\n      jumpi\n      mload(0x40)\n      0x08c379a000000000000000000000000000000000000000000000000000000000\n      dup2\n      mstore\n      0x04\n      add\n      tag_169\n      swap1\n      jump(tag_86)\n    tag_169:\n      mload(0x40)\n      dup1\n      swap2\n      sub\n      swap1\n      revert\n    tag_168:\n        /* \"contract/entities.sol\":3469:3486  Etudiant memory e */\n      tag_170\n      tag_171\n      jump\t// in\n    tag_170:\n        /* \"contract/entities.sol\":3505:3508  Nom */\n      dup4\n        /* \"contract/entities.sol\":3497:3498  e */\n      dup2\n        /* \"contract/entities.sol\":3497:3502  e.Nom */\n      0x00\n      add\n        /* \"contract/entities.sol\":3497:3508  e.Nom = Nom */\n      dup2\n      swap1\n      mstore\n      pop\n        /* \"contract/entities.sol\":3530:3536  Prenom */\n      dup3\n        /* \"contract/entities.sol\":3519:3520  e */\n      dup2\n        /* \"contract/entities.sol\":3519:3527  e.Prenom */\n      0x20\n      add\n        /* \"contract/entities.sol\":3519:3536  e.Prenom = Prenom */\n      dup2\n      swap1\n      mstore\n      pop\n        /* \"contract/entities.sol\":3547:3566  ajouter_etudiant(e) */\n      tag_172\n        /* \"contract/entities.sol\":3564:3565  e */\n      dup2\n        /* \"contract/entities.sol\":3547:3563  ajouter_etudiant */\n      tag_173\n        /* \"contract/entities.sol\":3547:3566  ajouter_etudiant(e) */\n      jump\t// in\n    tag_172:\n        /* \"contract/entities.sol\":3281:3574  function ajouter_etudiant(string memory Nom, string memory Prenom) public {\r... */\n      pop\n      pop\n      pop\n      pop\n      jump\t// out\n        /* \"contract/entities.sol\":1756:1868  function get_Etudiants(uint256 id) public view returns (Etudiant memory) {\r... */\n    tag_56:\n        /* \"contract/entities.sol\":1812:1827  Etudiant memory */\n      tag_174\n      tag_171\n      jump\t// in\n    tag_174:\n        /* \"contract/entities.sol\":1847:1856  Etudiants */\n      0x04\n        /* \"contract/entities.sol\":1847:1860  Etudiants[id] */\n      0x00\n        /* \"contract/entities.sol\":1857:1859  id */\n      dup4\n        /* \"contract/entities.sol\":1847:1860  Etudiants[id] */\n      dup2\n      mstore\n      0x20\n      add\n      swap1\n      dup2\n      mstore\n      0x20\n      add\n      0x00\n      keccak256\n        /* \"contract/entities.sol\":1840:1860  return Etudiants[id] */\n      mload(0x40)\n      dup1\n      0x0200\n      add\n      0x40\n      mstore\n      swap1\n      dup2\n      0x00\n      dup3\n      add\n      dup1\n      sload\n      0x01\n      dup2\n      0x01\n      and\n      iszero\n      0x0100\n      mul\n      sub\n      and\n      0x02\n      swap1\n      div\n      dup1\n      0x1f\n      add\n      0x20\n      dup1\n      swap2\n      div\n      mul\n      0x20\n      add\n      mload(0x40)\n      swap1\n      dup2\n      add\n      0x40\n      mstore\n      dup1\n      swap3\n      swap2\n      swap1\n      dup2\n      dup2\n      mstore\n      0x20\n      add\n      dup3\n      dup1\n      sload\n      0x01\n      dup2\n      0x01\n      and\n      iszero\n      0x0100\n      mul\n      sub\n      and\n      0x02\n      swap1\n      div\n      dup1\n      iszero\n      tag_176\n      jumpi\n      dup1\n      0x1f\n      lt\n      tag_177\n      jumpi\n      0x0100\n      dup1\n      dup4\n      sload\n      div\n      mul\n      dup4\n      mstore\n      swap2\n      0x20\n      add\n      swap2\n      jump(tag_176)\n    tag_177:\n      dup3\n      add\n      swap2\n      swap1\n      0x00\n      mstore\n      keccak256(0x00, 0x20)\n      swap1\n    tag_178:\n      dup2\n      sload\n      dup2\n      mstore\n      swap1\n      0x01\n      add\n      swap1\n      0x20\n      add\n      dup1\n      dup4\n      gt\n      tag_178\n      jumpi\n      dup3\n      swap1\n      sub\n      0x1f\n      and\n      dup3\n      add\n      swap2\n    tag_176:\n      pop\n      pop\n      pop\n      pop\n      pop\n      dup2\n      mstore\n      0x20\n      add\n      0x01\n      dup3\n      add\n      dup1\n      sload\n      0x01\n      dup2\n      0x01\n      and\n      iszero\n      0x0100\n      mul\n      sub\n      and\n      0x02\n      swap1\n      div\n      dup1\n      0x1f\n      add\n      0x20\n      dup1\n      swap2\n      div\n      mul\n      0x20\n      add\n      mload(0x40)\n      swap1\n      dup2\n      add\n      0x40\n      mstore\n      dup1\n      swap3\n      swap2\n      swap1\n      dup2\n      dup2\n      mstore\n      0x20\n      add\n      dup3\n      dup1\n      sload\n      0x01\n      dup2\n      0x01\n      and\n      iszero\n      0x0100\n      mul\n      sub\n      and\n      0x02\n      swap1\n      div\n      dup1\n      iszero\n      tag_179\n      jumpi\n      dup1\n      0x1f\n      lt\n      tag_180\n      jumpi\n      0x0100\n      dup1\n      dup4\n      sload\n      div\n      mul\n      dup4\n      mstore\n      swap2\n      0x20\n      add\n      swap2\n      jump(tag_179)\n    tag_180:\n      dup3\n      add\n      swap2\n      swap1\n      0x00\n      mstore\n      keccak256(0x00, 0x20)\n      swap1\n    tag_181:\n      dup2\n      sload\n      dup2\n      mstore\n      swap1\n      0x01\n      add\n      swap1\n      0x20\n      add\n      dup1\n      dup4\n      gt\n      tag_181\n      jumpi\n      dup3\n      swap1\n      sub\n      0x1f\n      and\n      dup3\n      add\n      swap2\n    tag_179:\n      pop\n      pop\n      pop\n      pop\n      pop\n      dup2\n      mstore\n      0x20\n      add\n      0x02\n      dup3\n      add\n      dup1\n      sload\n      0x01\n      dup2\n      0x01\n      and\n      iszero\n      0x0100\n      mul\n      sub\n      and\n      0x02\n      swap1\n      div\n      dup1\n      0x1f\n      add\n      0x20\n      dup1\n      swap2\n      div\n      mul\n      0x20\n      add\n      mload(0x40)\n      swap1\n      dup2\n      add\n      0x40\n      mstore\n      dup1\n      swap3\n      swap2\n      swap1\n      dup2\n      dup2\n      mstore\n      0x20\n      add\n      dup3\n      dup1\n      sload\n      0x01\n      dup2\n      0x01\n      and\n      iszero\n      0x0100\n      mul\n      sub\n      and\n      0x02\n      swap1\n      div\n      dup1\n      iszero\n      tag_182\n      jumpi\n      dup1\n      0x1f\n      lt\n      tag_183\n      jumpi\n      0x0100\n      dup1\n      dup4\n      sload\n      div\n      mul\n      dup4\n      mstore\n      swap2\n      0x20\n      add\n      swap2\n      jump(tag_182)\n    tag_183:\n      dup3\n      add\n      swap2\n      swap1\n      0x00\n      mstore\n      keccak256(0x00, 0x20)\n      swap1\n    tag_184:\n      dup2\n      sload\n      dup2\n      mstore\n      swap1\n      0x01\n      add\n      swap1\n      0x20\n      add\n      dup1\n      dup4\n      gt\n      tag_184\n      jumpi\n      dup3\n      swap1\n      sub\n      0x1f\n      and\n      dup3\n      add\n      swap2\n    tag_182:\n      pop\n      pop\n      pop\n      pop\n      pop\n      dup2\n      mstore\n      0x20\n      add\n      0x03\n      dup3\n      add\n      dup1\n      sload\n      0x01\n      dup2\n      0x01\n      and\n      iszero\n      0x0100\n      mul\n      sub\n      and\n      0x02\n      swap1\n      div\n      dup1\n      0x1f\n      add\n      0x20\n      dup1\n      swap2\n      div\n      mul\n      0x20\n      add\n      mload(0x40)\n      swap1\n      dup2\n      add\n      0x40\n      mstore\n      dup1\n      swap3\n      swap2\n      swap1\n      dup2\n      dup2\n      mstore\n      0x20\n      add\n      dup3\n      dup1\n      sload\n      0x01\n      dup2\n      0x01\n      and\n      iszero\n      0x0100\n      mul\n      sub\n      and\n      0x02\n      swap1\n      div\n      dup1\n      iszero\n      tag_185\n      jumpi\n      dup1\n      0x1f\n      lt\n      tag_186\n      jumpi\n      0x0100\n      dup1\n      dup4\n      sload\n      div\n      mul\n      dup4\n      mstore\n      swap2\n      0x20\n      add\n      swap2\n      jump(tag_185)\n    tag_186:\n      dup3\n      add\n      swap2\n      swap1\n      0x00\n      mstore\n      keccak256(0x00, 0x20)\n      swap1\n    tag_187:\n      dup2\n      sload\n      dup2\n      mstore\n      swap1\n      0x01\n      add\n      swap1\n      0x20\n      add\n      dup1\n      dup4\n      gt\n      tag_187\n      jumpi\n      dup3\n      swap1\n      sub\n      0x1f\n      and\n      dup3\n      add\n      swap2\n    tag_185:\n      pop\n      pop\n      pop\n      pop\n      pop\n      dup2\n      mstore\n      0x20\n      add\n      0x04\n      dup3\n      add\n      dup1\n      sload\n      0x01\n      dup2\n      0x01\n      and\n      iszero\n      0x0100\n      mul\n      sub\n      and\n      0x02\n      swap1\n      div\n      dup1\n      0x1f\n      add\n      0x20\n      dup1\n      swap2\n      div\n      mul\n      0x20\n      add\n      mload(0x40)\n      swap1\n      dup2\n      add\n      0x40\n      mstore\n      dup1\n      swap3\n      swap2\n      swap1\n      dup2\n      dup2\n      mstore\n      0x20\n      add\n      dup3\n      dup1\n      sload\n      0x01\n      dup2\n      0x01\n      and\n      iszero\n      0x0100\n      mul\n      sub\n      and\n      0x02\n      swap1\n      div\n      dup1\n      iszero\n      tag_188\n      jumpi\n      dup1\n      0x1f\n      lt\n      tag_189\n      jumpi\n      0x0100\n      dup1\n      dup4\n      sload\n      div\n      mul\n      dup4\n      mstore\n      swap2\n      0x20\n      add\n      swap2\n      jump(tag_188)\n    tag_189:\n      dup3\n      add\n      swap2\n      swap1\n      0x00\n      mstore\n      keccak256(0x00, 0x20)\n      swap1\n    tag_190:\n      dup2\n      sload\n      dup2\n      mstore\n      swap1\n      0x01\n      add\n      swap1\n      0x20\n      add\n      dup1\n      dup4\n      gt\n      tag_190\n      jumpi\n      dup3\n      swap1\n      sub\n      0x1f\n      and\n      dup3\n      add\n      swap2\n    tag_188:\n      pop\n      pop\n      pop\n      pop\n      pop\n      dup2\n      mstore\n      0x20\n      add\n      0x05\n      dup3\n      add\n      dup1\n      sload\n      0x01\n      dup2\n      0x01\n      and\n      iszero\n      0x0100\n      mul\n      sub\n      and\n      0x02\n      swap1\n      div\n      dup1\n      0x1f\n      add\n      0x20\n      dup1\n      swap2\n      div\n      mul\n      0x20\n      add\n      mload(0x40)\n      swap1\n      dup2\n      add\n      0x40\n      mstore\n      dup1\n      swap3\n      swap2\n      swap1\n      dup2\n      dup2\n      mstore\n      0x20\n      add\n      dup3\n      dup1\n      sload\n      0x01\n      dup2\n      0x01\n      and\n      iszero\n      0x0100\n      mul\n      sub\n      and\n      0x02\n      swap1\n      div\n      dup1\n      iszero\n      tag_191\n      jumpi\n      dup1\n      0x1f\n      lt\n      tag_192\n      jumpi\n      0x0100\n      dup1\n      dup4\n      sload\n      div\n      mul\n      dup4\n      mstore\n      swap2\n      0x20\n      add\n      swap2\n      jump(tag_191)\n    tag_192:\n      dup3\n      add\n      swap2\n      swap1\n      0x00\n      mstore\n      keccak256(0x00, 0x20)\n      swap1\n    tag_193:\n      dup2\n      sload\n      dup2\n      mstore\n      swap1\n      0x01\n      add\n      swap1\n      0x20\n      add\n      dup1\n      dup4\n      gt\n      tag_193\n      jumpi\n      dup3\n      swap1\n      sub\n      0x1f\n      and\n      dup3\n      add\n      swap2\n    tag_191:\n      pop\n      pop\n      pop\n      pop\n      pop\n      dup2\n      mstore\n      0x20\n      add\n      0x06\n      dup3\n      add\n      dup1\n      sload\n      0x01\n      dup2\n      0x01\n      and\n      iszero\n      0x0100\n      mul\n      sub\n      and\n      0x02\n      swap1\n      div\n      dup1\n      0x1f\n      add\n      0x20\n      dup1\n      swap2\n      div\n      mul\n      0x20\n      add\n      mload(0x40)\n      swap1\n      dup2\n      add\n      0x40\n      mstore\n      dup1\n      swap3\n      swap2\n      swap1\n      dup2\n      dup2\n      mstore\n      0x20\n      add\n      dup3\n      dup1\n      sload\n      0x01\n      dup2\n      0x01\n      and\n      iszero\n      0x0100\n      mul\n      sub\n      and\n      0x02\n      swap1\n      div\n      dup1\n      iszero\n      tag_194\n      jumpi\n      dup1\n      0x1f\n      lt\n      tag_195\n      jumpi\n      0x0100\n      dup1\n      dup4\n      sload\n      div\n      mul\n      dup4\n      mstore\n      swap2\n      0x20\n      add\n      swap2\n      jump(tag_194)\n    tag_195:\n      dup3\n      add\n      swap2\n      swap1\n      0x00\n      mstore\n      keccak256(0x00, 0x20)\n      swap1\n    tag_196:\n      dup2\n      sload\n      dup2\n      mstore\n      swap1\n      0x01\n      add\n      swap1\n      0x20\n      add\n      dup1\n      dup4\n      gt\n      tag_196\n      jumpi\n      dup3\n      swap1\n      sub\n      0x1f\n      and\n      dup3\n      add\n      swap2\n    tag_194:\n      pop\n      pop\n      pop\n      pop\n      pop\n      dup2\n      mstore\n      0x20\n      add\n      0x07\n      dup3\n      add\n      dup1\n      sload\n      0x01\n      dup2\n      0x01\n      and\n      iszero\n      0x0100\n      mul\n      sub\n      and\n      0x02\n      swap1\n      div\n      dup1\n      0x1f\n      add\n      0x20\n      dup1\n      swap2\n      div\n      mul\n      0x20\n      add\n      mload(0x40)\n      swap1\n      dup2\n      add\n      0x40\n      mstore\n      dup1\n      swap3\n      swap2\n      swap1\n      dup2\n      dup2\n      mstore\n      0x20\n      add\n      dup3\n      dup1\n      sload\n      0x01\n      dup2\n      0x01\n      and\n      iszero\n      0x0100\n      mul\n      sub\n      and\n      0x02\n      swap1\n      div\n      dup1\n      iszero\n      tag_197\n      jumpi\n      dup1\n      0x1f\n      lt\n      tag_198\n      jumpi\n      0x0100\n      dup1\n      dup4\n      sload\n      div\n      mul\n      dup4\n      mstore\n      swap2\n      0x20\n      add\n      swap2\n      jump(tag_197)\n    tag_198:\n      dup3\n      add\n      swap2\n      swap1\n      0x00\n      mstore\n      keccak256(0x00, 0x20)\n      swap1\n    tag_199:\n      dup2\n      sload\n      dup2\n      mstore\n      swap1\n      0x01\n      add\n      swap1\n      0x20\n      add\n      dup1\n      dup4\n      gt\n      tag_199\n      jumpi\n      dup3\n      swap1\n      sub\n      0x1f\n      and\n      dup3\n      add\n      swap2\n    tag_197:\n      pop\n      pop\n      pop\n      pop\n      pop\n      dup2\n      mstore\n      0x20\n      add\n      0x08\n      dup3\n      add\n      dup1\n      sload\n      0x01\n      dup2\n      0x01\n      and\n      iszero\n      0x0100\n      mul\n      sub\n      and\n      0x02\n      swap1\n      div\n      dup1\n      0x1f\n      add\n      0x20\n      dup1\n      swap2\n      div\n      mul\n      0x20\n      add\n      mload(0x40)\n      swap1\n      dup2\n      add\n      0x40\n      mstore\n      dup1\n      swap3\n      swap2\n      swap1\n      dup2\n      dup2\n      mstore\n      0x20\n      add\n      dup3\n      dup1\n      sload\n      0x01\n      dup2\n      0x01\n      and\n      iszero\n      0x0100\n      mul\n      sub\n      and\n      0x02\n      swap1\n      div\n      dup1\n      iszero\n      tag_200\n      jumpi\n      dup1\n      0x1f\n      lt\n      tag_201\n      jumpi\n      0x0100\n      dup1\n      dup4\n      sload\n      div\n      mul\n      dup4\n      mstore\n      swap2\n      0x20\n      add\n      swap2\n      jump(tag_200)\n    tag_201:\n      dup3\n      add\n      swap2\n      swap1\n      0x00\n      mstore\n      keccak256(0x00, 0x20)\n      swap1\n    tag_202:\n      dup2\n      sload\n      dup2\n      mstore\n      swap1\n      0x01\n      add\n      swap1\n      0x20\n      add\n      dup1\n      dup4\n      gt\n      tag_202\n      jumpi\n      dup3\n      swap1\n      sub\n      0x1f\n      and\n      dup3\n      add\n      swap2\n    tag_200:\n      pop\n      pop\n      pop\n      pop\n      pop\n      dup2\n      mstore\n      0x20\n      add\n      0x09\n      dup3\n      add\n      dup1\n      sload\n      0x01\n      dup2\n      0x01\n      and\n      iszero\n      0x0100\n      mul\n      sub\n      and\n      0x02\n      swap1\n      div\n      dup1\n      0x1f\n      add\n      0x20\n      dup1\n      swap2\n      div\n      mul\n      0x20\n      add\n      mload(0x40)\n      swap1\n      dup2\n      add\n      0x40\n      mstore\n      dup1\n      swap3\n      swap2\n      swap1\n      dup2\n      dup2\n      mstore\n      0x20\n      add\n      dup3\n      dup1\n      sload\n      0x01\n      dup2\n      0x01\n      and\n      iszero\n      0x0100\n      mul\n      sub\n      and\n      0x02\n      swap1\n      div\n      dup1\n      iszero\n      tag_203\n      jumpi\n      dup1\n      0x1f\n      lt\n      tag_204\n      jumpi\n      0x0100\n      dup1\n      dup4\n      sload\n      div\n      mul\n      dup4\n      mstore\n      swap2\n      0x20\n      add\n      swap2\n      jump(tag_203)\n    tag_204:\n      dup3\n      add\n      swap2\n      swap1\n      0x00\n      mstore\n      keccak256(0x00, 0x20)\n      swap1\n    tag_205:\n      dup2\n      sload\n      dup2\n      mstore\n      swap1\n      0x01\n      add\n      swap1\n      0x20\n      add\n      dup1\n      dup4\n      gt\n      tag_205\n      jumpi\n      dup3\n      swap1\n      sub\n      0x1f\n      and\n      dup3\n      add\n      swap2\n    tag_203:\n      pop\n      pop\n      pop\n      pop\n      pop\n      dup2\n      mstore\n      0x20\n      add\n      0x0a\n      dup3\n      add\n      dup1\n      sload\n      0x01\n      dup2\n      0x01\n      and\n      iszero\n      0x0100\n      mul\n      sub\n      and\n      0x02\n      swap1\n      div\n      dup1\n      0x1f\n      add\n      0x20\n      dup1\n      swap2\n      div\n      mul\n      0x20\n      add\n      mload(0x40)\n      swap1\n      dup2\n      add\n      0x40\n      mstore\n      dup1\n      swap3\n      swap2\n      swap1\n      dup2\n      dup2\n      mstore\n      0x20\n      add\n      dup3\n      dup1\n      sload\n      0x01\n      dup2\n      0x01\n      and\n      iszero\n      0x0100\n      mul\n      sub\n      and\n      0x02\n      swap1\n      div\n      dup1\n      iszero\n      tag_206\n      jumpi\n      dup1\n      0x1f\n      lt\n      tag_207\n      jumpi\n      0x0100\n      dup1\n      dup4\n      sload\n      div\n      mul\n      dup4\n      mstore\n      swap2\n      0x20\n      add\n      swap2\n      jump(tag_206)\n    tag_207:\n      dup3\n      add\n      swap2\n      swap1\n      0x00\n      mstore\n      keccak256(0x00, 0x20)\n      swap1\n    tag_208:\n      dup2\n      sload\n      dup2\n      mstore\n      swap1\n      0x01\n      add\n      swap1\n      0x20\n      add\n      dup1\n      dup4\n      gt\n      tag_208\n      jumpi\n      dup3\n      swap1\n      sub\n      0x1f\n      and\n      dup3\n      add\n      swap2\n    tag_206:\n      pop\n      pop\n      pop\n      pop\n      pop\n      dup2\n      mstore\n      0x20\n      add\n      0x0b\n      dup3\n      add\n      dup1\n      sload\n      0x01\n      dup2\n      0x01\n      and\n      iszero\n      0x0100\n      mul\n      sub\n      and\n      0x02\n      swap1\n      div\n      dup1\n      0x1f\n      add\n      0x20\n      dup1\n      swap2\n      div\n      mul\n      0x20\n      add\n      mload(0x40)\n      swap1\n      dup2\n      add\n      0x40\n      mstore\n      dup1\n      swap3\n      swap2\n      swap1\n      dup2\n      dup2\n      mstore\n      0x20\n      add\n      dup3\n      dup1\n      sload\n      0x01\n      dup2\n      0x01\n      and\n      iszero\n      0x0100\n      mul\n      sub\n      and\n      0x02\n      swap1\n      div\n      dup1\n      iszero\n      tag_209\n      jumpi\n      dup1\n      0x1f\n      lt\n      tag_210\n      jumpi\n      0x0100\n      dup1\n      dup4\n      sload\n      div\n      mul\n      dup4\n      mstore\n      swap2\n      0x20\n      add\n      swap2\n      jump(tag_209)\n    tag_210:\n      dup3\n      add\n      swap2\n      swap1\n      0x00\n      mstore\n      keccak256(0x00, 0x20)\n      swap1\n    tag_211:\n      dup2\n      sload\n      dup2\n      mstore\n      swap1\n      0x01\n      add\n      swap1\n      0x20\n      add\n      dup1\n      dup4\n      gt\n      tag_211\n      jumpi\n      dup3\n      swap1\n      sub\n      0x1f\n      and\n      dup3\n      add\n      swap2\n    tag_209:\n      pop\n      pop\n      pop\n      pop\n      pop\n      dup2\n      mstore\n      0x20\n      add\n      0x0c\n      dup3\n      add\n      dup1\n      sload\n      0x01\n      dup2\n      0x01\n      and\n      iszero\n      0x0100\n      mul\n      sub\n      and\n      0x02\n      swap1\n      div\n      dup1\n      0x1f\n      add\n      0x20\n      dup1\n      swap2\n      div\n      mul\n      0x20\n      add\n      mload(0x40)\n      swap1\n      dup2\n      add\n      0x40\n      mstore\n      dup1\n      swap3\n      swap2\n      swap1\n      dup2\n      dup2\n      mstore\n      0x20\n      add\n      dup3\n      dup1\n      sload\n      0x01\n      dup2\n      0x01\n      and\n      iszero\n      0x0100\n      mul\n      sub\n      and\n      0x02\n      swap1\n      div\n      dup1\n      iszero\n      tag_212\n      jumpi\n      dup1\n      0x1f\n      lt\n      tag_213\n      jumpi\n      0x0100\n      dup1\n      dup4\n      sload\n      div\n      mul\n      dup4\n      mstore\n      swap2\n      0x20\n      add\n      swap2\n      jump(tag_212)\n    tag_213:\n      dup3\n      add\n      swap2\n      swap1\n      0x00\n      mstore\n      keccak256(0x00, 0x20)\n      swap1\n    tag_214:\n      dup2\n      sload\n      dup2\n      mstore\n      swap1\n      0x01\n      add\n      swap1\n      0x20\n      add\n      dup1\n      dup4\n      gt\n      tag_214\n      jumpi\n      dup3\n      swap1\n      sub\n      0x1f\n      and\n      dup3\n      add\n      swap2\n    tag_212:\n      pop\n      pop\n      pop\n      pop\n      pop\n      dup2\n      mstore\n      0x20\n      add\n      0x0d\n      dup3\n      add\n      sload\n      dup2\n      mstore\n      0x20\n      add\n      0x0e\n      dup3\n      add\n      sload\n      dup2\n      mstore\n      0x20\n      add\n      0x0f\n      dup3\n      add\n      dup1\n      sload\n      0x01\n      dup2\n      0x01\n      and\n      iszero\n      0x0100\n      mul\n      sub\n      and\n      0x02\n      swap1\n      div\n      dup1\n      0x1f\n      add\n      0x20\n      dup1\n      swap2\n      div\n      mul\n      0x20\n      add\n      mload(0x40)\n      swap1\n      dup2\n      add\n      0x40\n      mstore\n      dup1\n      swap3\n      swap2\n      swap1\n      dup2\n      dup2\n      mstore\n      0x20\n      add\n      dup3\n      dup1\n      sload\n      0x01\n      dup2\n      0x01\n      and\n      iszero\n      0x0100\n      mul\n      sub\n      and\n      0x02\n      swap1\n      div\n      dup1\n      iszero\n      tag_215\n      jumpi\n      dup1\n      0x1f\n      lt\n      tag_216\n      jumpi\n      0x0100\n      dup1\n      dup4\n      sload\n      div\n      mul\n      dup4\n      mstore\n      swap2\n      0x20\n      add\n      swap2\n      jump(tag_215)\n    tag_216:\n      dup3\n      add\n      swap2\n      swap1\n      0x00\n      mstore\n      keccak256(0x00, 0x20)\n      swap1\n    tag_217:\n      dup2\n      sload\n      dup2\n      mstore\n      swap1\n      0x01\n      add\n      swap1\n      0x20\n      add\n      dup1\n      dup4\n      gt\n      tag_217\n      jumpi\n      dup3\n      swap1\n      sub\n      0x1f\n      and\n      dup3\n      add\n      swap2\n    tag_215:\n      pop\n      pop\n      pop\n      pop\n      pop\n      dup2\n      mstore\n      pop\n      pop\n      swap1\n      pop\n        /* \"contract/entities.sol\":1756:1868  function get_Etudiants(uint256 id) public view returns (Etudiant memory) {\r... */\n      swap2\n      swap1\n      pop\n      jump\t// out\n        /* \"contract/entities.sol\":1981:2006  uint256 public NbDiplomes */\n    tag_60:\n      sload(0x0b)\n      dup2\n      jump\t// out\n        /* \"contract/entities.sol\":1644:1697  mapping(address => uint256) public AddressEntreprises */\n    tag_65:\n      mstore(0x20, 0x06)\n      dup1\n      0x00\n      mstore\n      keccak256(0x00, 0x40)\n      0x00\n      swap2\n      pop\n      swap1\n      pop\n      sload\n      dup2\n      jump\t// out\n        /* \"contract/entities.sol\":1428:1481  mapping(uint256 => Etablisement) public Etablisements */\n    tag_69:\n      mstore(0x20, 0x02)\n      dup1\n      0x00\n      mstore\n      keccak256(0x00, 0x40)\n      0x00\n      swap2\n      pop\n      swap1\n      pop\n      dup1\n      0x00\n      add\n      dup1\n      sload\n      0x01\n      dup2\n      0x01\n      and\n      iszero\n      0x0100\n      mul\n      sub\n      and\n      0x02\n      swap1\n      div\n      dup1\n      0x1f\n      add\n      0x20\n      dup1\n      swap2\n      div\n      mul\n      0x20\n      add\n      mload(0x40)\n      swap1\n      dup2\n      add\n      0x40\n      mstore\n      dup1\n      swap3\n      swap2\n      swap1\n      dup2\n      dup2\n      mstore\n      0x20\n      add\n      dup3\n      dup1\n      sload\n      0x01\n      dup2\n      0x01\n      and\n      iszero\n      0x0100\n      mul\n      sub\n      and\n      0x02\n      swap1\n      div\n      dup1\n      iszero\n      tag_218\n      jumpi\n      dup1\n      0x1f\n      lt\n      tag_219\n      jumpi\n      0x0100\n      dup1\n      dup4\n      sload\n      div\n      mul\n      dup4\n      mstore\n      swap2\n      0x20\n      add\n      swap2\n      jump(tag_218)\n    tag_219:\n      dup3\n      add\n      swap2\n      swap1\n      0x00\n      mstore\n      keccak256(0x00, 0x20)\n      swap1\n    tag_220:\n      dup2\n      sload\n      dup2\n      mstore\n      swap1\n      0x01\n      add\n      swap1\n      0x20\n      add\n      dup1\n      dup4\n      gt\n      tag_220\n      jumpi\n      dup3\n      swap1\n      sub\n      0x1f\n      and\n      dup3\n      add\n      swap2\n    tag_218:\n      pop\n      pop\n      pop\n      pop\n      pop\n      swap1\n      dup1\n      0x01\n      add\n      dup1\n      sload\n      0x01\n      dup2\n      0x01\n      and\n      iszero\n      0x0100\n      mul\n      sub\n      and\n      0x02\n      swap1\n      div\n      dup1\n      0x1f\n      add\n      0x20\n      dup1\n      swap2\n      div\n      mul\n      0x20\n      add\n      mload(0x40)\n      swap1\n      dup2\n      add\n      0x40\n      mstore\n      dup1\n      swap3\n      swap2\n      swap1\n      dup2\n      dup2\n      mstore\n      0x20\n      add\n      dup3\n      dup1\n      sload\n      0x01\n      dup2\n      0x01\n      and\n      iszero\n      0x0100\n      mul\n      sub\n      and\n      0x02\n      swap1\n      div\n      dup1\n      iszero\n      tag_221\n      jumpi\n      dup1\n      0x1f\n      lt\n      tag_222\n      jumpi\n      0x0100\n      dup1\n      dup4\n      sload\n      div\n      mul\n      dup4\n      mstore\n      swap2\n      0x20\n      add\n      swap2\n      jump(tag_221)\n    tag_222:\n      dup3\n      add\n      swap2\n      swap1\n      0x00\n      mstore\n      keccak256(0x00, 0x20)\n      swap1\n    tag_223:\n      dup2\n      sload\n      dup2\n      mstore\n      swap1\n      0x01\n      add\n      swap1\n      0x20\n      add\n      dup1\n      dup4\n      gt\n      tag_223\n      jumpi\n      dup3\n      swap1\n      sub\n      0x1f\n      and\n      dup3\n      add\n      swap2\n    tag_221:\n      pop\n      pop\n      pop\n      pop\n      pop\n      swap1\n      dup1\n      0x02\n      add\n      dup1\n      sload\n      0x01\n      dup2\n      0x01\n      and\n      iszero\n      0x0100\n      mul\n      sub\n      and\n      0x02\n      swap1\n      div\n      dup1\n      0x1f\n      add\n      0x20\n      dup1\n      swap2\n      div\n      mul\n      0x20\n      add\n      mload(0x40)\n      swap1\n      dup2\n      add\n      0x40\n      mstore\n      dup1\n      swap3\n      swap2\n      swap1\n      dup2\n      dup2\n      mstore\n      0x20\n      add\n      dup3\n      dup1\n      sload\n      0x01\n      dup2\n      0x01\n      and\n      iszero\n      0x0100\n      mul\n      sub\n      and\n      0x02\n      swap1\n      div\n      dup1\n      iszero\n      tag_224\n      jumpi\n      dup1\n      0x1f\n      lt\n      tag_225\n      jumpi\n      0x0100\n      dup1\n      dup4\n      sload\n      div\n      mul\n      dup4\n      mstore\n      swap2\n      0x20\n      add\n      swap2\n      jump(tag_224)\n    tag_225:\n      dup3\n      add\n      swap2\n      swap1\n      0x00\n      mstore\n      keccak256(0x00, 0x20)\n      swap1\n    tag_226:\n      dup2\n      sload\n      dup2\n      mstore\n      swap1\n      0x01\n      add\n      swap1\n      0x20\n      add\n      dup1\n      dup4\n      gt\n      tag_226\n      jumpi\n      dup3\n      swap1\n      sub\n      0x1f\n      and\n      dup3\n      add\n      swap2\n    tag_224:\n      pop\n      pop\n      pop\n      pop\n      pop\n      swap1\n      dup1\n      0x03\n      add\n      dup1\n      sload\n      0x01\n      dup2\n      0x01\n      and\n      iszero\n      0x0100\n      mul\n      sub\n      and\n      0x02\n      swap1\n      div\n      dup1\n      0x1f\n      add\n      0x20\n      dup1\n      swap2\n      div\n      mul\n      0x20\n      add\n      mload(0x40)\n      swap1\n      dup2\n      add\n      0x40\n      mstore\n      dup1\n      swap3\n      swap2\n      swap1\n      dup2\n      dup2\n      mstore\n      0x20\n      add\n      dup3\n      dup1\n      sload\n      0x01\n      dup2\n      0x01\n      and\n      iszero\n      0x0100\n      mul\n      sub\n      and\n      0x02\n      swap1\n      div\n      dup1\n      iszero\n      tag_227\n      jumpi\n      dup1\n      0x1f\n      lt\n      tag_228\n      jumpi\n      0x0100\n      dup1\n      dup4\n      sload\n      div\n      mul\n      dup4\n      mstore\n      swap2\n      0x20\n      add\n      swap2\n      jump(tag_227)\n    tag_228:\n      dup3\n      add\n      swap2\n      swap1\n      0x00\n      mstore\n      keccak256(0x00, 0x20)\n      swap1\n    tag_229:\n      dup2\n      sload\n      dup2\n      mstore\n      swap1\n      0x01\n      add\n      swap1\n      0x20\n      add\n      dup1\n      dup4\n      gt\n      tag_229\n      jumpi\n      dup3\n      swap1\n      sub\n      0x1f\n      and\n      dup3\n      add\n      swap2\n    tag_227:\n      pop\n      pop\n      pop\n      pop\n      pop\n      swap1\n      dup1\n      0x04\n      add\n      dup1\n      sload\n      0x01\n      dup2\n      0x01\n      and\n      iszero\n      0x0100\n      mul\n      sub\n      and\n      0x02\n      swap1\n      div\n      dup1\n      0x1f\n      add\n      0x20\n      dup1\n      swap2\n      div\n      mul\n      0x20\n      add\n      mload(0x40)\n      swap1\n      dup2\n      add\n      0x40\n      mstore\n      dup1\n      swap3\n      swap2\n      swap1\n      dup2\n      dup2\n      mstore\n      0x20\n      add\n      dup3\n      dup1\n      sload\n      0x01\n      dup2\n      0x01\n      and\n      iszero\n      0x0100\n      mul\n      sub\n      and\n      0x02\n      swap1\n      div\n      dup1\n      iszero\n      tag_230\n      jumpi\n      dup1\n      0x1f\n      lt\n      tag_231\n      jumpi\n      0x0100\n      dup1\n      dup4\n      sload\n      div\n      mul\n      dup4\n      mstore\n      swap2\n      0x20\n      add\n      swap2\n      jump(tag_230)\n    tag_231:\n      dup3\n      add\n      swap2\n      swap1\n      0x00\n      mstore\n      keccak256(0x00, 0x20)\n      swap1\n    tag_232:\n      dup2\n      sload\n      dup2\n      mstore\n      swap1\n      0x01\n      add\n      swap1\n      0x20\n      add\n      dup1\n      dup4\n      gt\n      tag_232\n      jumpi\n      dup3\n      swap1\n      sub\n      0x1f\n      and\n      dup3\n      add\n      swap2\n    tag_230:\n      pop\n      pop\n      pop\n      pop\n      pop\n      swap1\n      dup1\n      0x05\n      add\n      sload\n      swap1\n      pop\n      dup7\n      jump\t// out\n        /* \"contract/entities.sol\":5038:5483  function verifier(uint256 DiplomeID) public returns (Diplome memory) {\r... */\n    tag_74:\n        /* \"contract/entities.sol\":5091:5105  Diplome memory */\n      tag_233\n      tag_88\n      jump\t// in\n    tag_233:\n        /* \"contract/entities.sol\":5195:5197  10 */\n      0x0a\n        /* \"contract/entities.sol\":5148:5153  token */\n      0x01\n      0x00\n      swap1\n      sload\n      swap1\n      0x0100\n      exp\n      swap1\n      div\n      0xffffffffffffffffffffffffffffffffffffffff\n      and\n        /* \"contract/entities.sol\":5140:5164  MyToken(token).allowance */\n      0xffffffffffffffffffffffffffffffffffffffff\n      and\n      0xdd62ed3e\n        /* \"contract/entities.sol\":5165:5175  msg.sender */\n      caller\n        /* \"contract/entities.sol\":5185:5189  this */\n      address\n        /* \"contract/entities.sol\":5140:5191  MyToken(token).allowance(msg.sender, address(this)) */\n      mload(0x40)\n      dup4\n      0xffffffff\n      and\n      0xe0\n      shl\n      dup2\n      mstore\n      0x04\n      add\n      tag_235\n      swap3\n      swap2\n      swap1\n      jump(tag_236)\n    tag_235:\n      0x20\n      mload(0x40)\n      dup1\n      dup4\n      sub\n      dup2\n      dup7\n      dup1\n      extcodesize\n      iszero\n        /* \"--CODEGEN--\":8:17   */\n      dup1\n        /* \"--CODEGEN--\":5:7   */\n      iszero\n      tag_237\n      jumpi\n        /* \"--CODEGEN--\":30:31   */\n      0x00\n        /* \"--CODEGEN--\":27:28   */\n      dup1\n        /* \"--CODEGEN--\":20:32   */\n      revert\n        /* \"--CODEGEN--\":5:7   */\n    tag_237:\n        /* \"contract/entities.sol\":5140:5191  MyToken(token).allowance(msg.sender, address(this)) */\n      pop\n      gas\n      staticcall\n      iszero\n        /* \"--CODEGEN--\":8:17   */\n      dup1\n        /* \"--CODEGEN--\":5:7   */\n      iszero\n      tag_239\n      jumpi\n        /* \"--CODEGEN--\":45:61   */\n      returndatasize\n        /* \"--CODEGEN--\":42:43   */\n      0x00\n        /* \"--CODEGEN--\":39:40   */\n      dup1\n        /* \"--CODEGEN--\":24:62   */\n      returndatacopy\n        /* \"--CODEGEN--\":77:93   */\n      returndatasize\n        /* \"--CODEGEN--\":74:75   */\n      0x00\n        /* \"--CODEGEN--\":67:94   */\n      revert\n        /* \"--CODEGEN--\":5:7   */\n    tag_239:\n        /* \"contract/entities.sol\":5140:5191  MyToken(token).allowance(msg.sender, address(this)) */\n      pop\n      pop\n      pop\n      pop\n      mload(0x40)\n      returndatasize\n        /* \"--CODEGEN--\":101:105   */\n      0x1f\n        /* \"--CODEGEN--\":97:106   */\n      not\n        /* \"--CODEGEN--\":90:94   */\n      0x1f\n        /* \"--CODEGEN--\":84:88   */\n      dup3\n        /* \"--CODEGEN--\":80:95   */\n      add\n        /* \"--CODEGEN--\":76:107   */\n      and\n        /* \"--CODEGEN--\":69:74   */\n      dup3\n        /* \"--CODEGEN--\":65:108   */\n      add\n        /* \"--CODEGEN--\":126:132   */\n      dup1\n        /* \"--CODEGEN--\":120:124   */\n      0x40\n        /* \"--CODEGEN--\":113:133   */\n      mstore\n        /* \"--CODEGEN--\":0:138   */\n      pop\n        /* \"contract/entities.sol\":5140:5191  MyToken(token).allowance(msg.sender, address(this)) */\n      tag_240\n      swap2\n      swap1\n      dup2\n      add\n      swap1\n      jump(tag_109)\n    tag_240:\n        /* \"contract/entities.sol\":5140:5197  MyToken(token).allowance(msg.sender, address(this)) >= 10 */\n      lt\n      iszero\n        /* \"contract/entities.sol\":5118:5242  require(\r... */\n      tag_241\n      jumpi\n      mload(0x40)\n      0x08c379a000000000000000000000000000000000000000000000000000000000\n      dup2\n      mstore\n      0x04\n      add\n      tag_242\n      swap1\n      jump(tag_112)\n    tag_242:\n      mload(0x40)\n      dup1\n      swap2\n      sub\n      swap1\n      revert\n    tag_241:\n        /* \"contract/entities.sol\":5283:5288  token */\n      0x01\n      0x00\n      swap1\n      sload\n      swap1\n      0x0100\n      exp\n      swap1\n      div\n      0xffffffffffffffffffffffffffffffffffffffff\n      and\n        /* \"contract/entities.sol\":5275:5302  MyToken(token).transferFrom */\n      0xffffffffffffffffffffffffffffffffffffffff\n      and\n      0x23b872dd\n        /* \"contract/entities.sol\":5303:5313  msg.sender */\n      caller\n        /* \"contract/entities.sol\":5315:5320  owner */\n      0x00\n      dup1\n      swap1\n      sload\n      swap1\n      0x0100\n      exp\n      swap1\n      div\n      0xffffffffffffffffffffffffffffffffffffffff\n      and\n        /* \"contract/entities.sol\":5322:5324  10 */\n      0x0a\n        /* \"contract/entities.sol\":5275:5325  MyToken(token).transferFrom(msg.sender, owner, 10) */\n      mload(0x40)\n      dup5\n      0xffffffff\n      and\n      0xe0\n      shl\n      dup2\n      mstore\n      0x04\n      add\n      tag_243\n      swap4\n      swap3\n      swap2\n      swap1\n      jump(tag_244)\n    tag_243:\n      0x20\n      mload(0x40)\n      dup1\n      dup4\n      sub\n      dup2\n      0x00\n      dup8\n      dup1\n      extcodesize\n      iszero\n        /* \"--CODEGEN--\":8:17   */\n      dup1\n        /* \"--CODEGEN--\":5:7   */\n      iszero\n      tag_245\n      jumpi\n        /* \"--CODEGEN--\":30:31   */\n      0x00\n        /* \"--CODEGEN--\":27:28   */\n      dup1\n        /* \"--CODEGEN--\":20:32   */\n      revert\n        /* \"--CODEGEN--\":5:7   */\n    tag_245:\n        /* \"contract/entities.sol\":5275:5325  MyToken(token).transferFrom(msg.sender, owner, 10) */\n      pop\n      gas\n      call\n      iszero\n        /* \"--CODEGEN--\":8:17   */\n      dup1\n        /* \"--CODEGEN--\":5:7   */\n      iszero\n      tag_247\n      jumpi\n        /* \"--CODEGEN--\":45:61   */\n      returndatasize\n        /* \"--CODEGEN--\":42:43   */\n      0x00\n        /* \"--CODEGEN--\":39:40   */\n      dup1\n        /* \"--CODEGEN--\":24:62   */\n      returndatacopy\n        /* \"--CODEGEN--\":77:93   */\n      returndatasize\n        /* \"--CODEGEN--\":74:75   */\n      0x00\n        /* \"--CODEGEN--\":67:94   */\n      revert\n        /* \"--CODEGEN--\":5:7   */\n    tag_247:\n        /* \"contract/entities.sol\":5275:5325  MyToken(token).transferFrom(msg.sender, owner, 10) */\n      pop\n      pop\n      pop\n      pop\n      mload(0x40)\n      returndatasize\n        /* \"--CODEGEN--\":101:105   */\n      0x1f\n        /* \"--CODEGEN--\":97:106   */\n      not\n        /* \"--CODEGEN--\":90:94   */\n      0x1f\n        /* \"--CODEGEN--\":84:88   */\n      dup3\n        /* \"--CODEGEN--\":80:95   */\n      add\n        /* \"--CODEGEN--\":76:107   */\n      and\n        /* \"--CODEGEN--\":69:74   */\n      dup3\n        /* \"--CODEGEN--\":65:108   */\n      add\n        /* \"--CODEGEN--\":126:132   */\n      dup1\n        /* \"--CODEGEN--\":120:124   */\n      0x40\n        /* \"--CODEGEN--\":113:133   */\n      mstore\n        /* \"--CODEGEN--\":0:138   */\n      pop\n        /* \"contract/entities.sol\":5275:5325  MyToken(token).transferFrom(msg.sender, owner, 10) */\n      tag_248\n      swap2\n      swap1\n      dup2\n      add\n      swap1\n      jump(tag_119)\n    tag_248:\n        /* \"contract/entities.sol\":5253:5385  require(\r... */\n      tag_249\n      jumpi\n      mload(0x40)\n      0x08c379a000000000000000000000000000000000000000000000000000000000\n      dup2\n      mstore\n      0x04\n      add\n      tag_250\n      swap1\n      jump(tag_122)\n    tag_250:\n      mload(0x40)\n      dup1\n      swap2\n      sub\n      swap1\n      revert\n    tag_249:\n        /* \"contract/entities.sol\":5456:5464  Diplomes */\n      0x07\n        /* \"contract/entities.sol\":5456:5475  Diplomes[DiplomeID] */\n      0x00\n        /* \"contract/entities.sol\":5465:5474  DiplomeID */\n      dup4\n        /* \"contract/entities.sol\":5456:5475  Diplomes[DiplomeID] */\n      dup2\n      mstore\n      0x20\n      add\n      swap1\n      dup2\n      mstore\n      0x20\n      add\n      0x00\n      keccak256\n        /* \"contract/entities.sol\":5449:5475  return Diplomes[DiplomeID] */\n      mload(0x40)\n      dup1\n      0x0100\n      add\n      0x40\n      mstore\n      swap1\n      dup2\n      0x00\n      dup3\n      add\n      sload\n      dup2\n      mstore\n      0x20\n      add\n      0x01\n      dup3\n      add\n      dup1\n      sload\n      0x01\n      dup2\n      0x01\n      and\n      iszero\n      0x0100\n      mul\n      sub\n      and\n      0x02\n      swap1\n      div\n      dup1\n      0x1f\n      add\n      0x20\n      dup1\n      swap2\n      div\n      mul\n      0x20\n      add\n      mload(0x40)\n      swap1\n      dup2\n      add\n      0x40\n      mstore\n      dup1\n      swap3\n      swap2\n      swap1\n      dup2\n      dup2\n      mstore\n      0x20\n      add\n      dup3\n      dup1\n      sload\n      0x01\n      dup2\n      0x01\n      and\n      iszero\n      0x0100\n      mul\n      sub\n      and\n      0x02\n      swap1\n      div\n      dup1\n      iszero\n      tag_251\n      jumpi\n      dup1\n      0x1f\n      lt\n      tag_252\n      jumpi\n      0x0100\n      dup1\n      dup4\n      sload\n      div\n      mul\n      dup4\n      mstore\n      swap2\n      0x20\n      add\n      swap2\n      jump(tag_251)\n    tag_252:\n      dup3\n      add\n      swap2\n      swap1\n      0x00\n      mstore\n      keccak256(0x00, 0x20)\n      swap1\n    tag_253:\n      dup2\n      sload\n      dup2\n      mstore\n      swap1\n      0x01\n      add\n      swap1\n      0x20\n      add\n      dup1\n      dup4\n      gt\n      tag_253\n      jumpi\n      dup3\n      swap1\n      sub\n      0x1f\n      and\n      dup3\n      add\n      swap2\n    tag_251:\n      pop\n      pop\n      pop\n      pop\n      pop\n      dup2\n      mstore\n      0x20\n      add\n      0x02\n      dup3\n      add\n      sload\n      dup2\n      mstore\n      0x20\n      add\n      0x03\n      dup3\n      add\n      dup1\n      sload\n      0x01\n      dup2\n      0x01\n      and\n      iszero\n      0x0100\n      mul\n      sub\n      and\n      0x02\n      swap1\n      div\n      dup1\n      0x1f\n      add\n      0x20\n      dup1\n      swap2\n      div\n      mul\n      0x20\n      add\n      mload(0x40)\n      swap1\n      dup2\n      add\n      0x40\n      mstore\n      dup1\n      swap3\n      swap2\n      swap1\n      dup2\n      dup2\n      mstore\n      0x20\n      add\n      dup3\n      dup1\n      sload\n      0x01\n      dup2\n      0x01\n      and\n      iszero\n      0x0100\n      mul\n      sub\n      and\n      0x02\n      swap1\n      div\n      dup1\n      iszero\n      tag_254\n      jumpi\n      dup1\n      0x1f\n      lt\n      tag_255\n      jumpi\n      0x0100\n      dup1\n      dup4\n      sload\n      div\n      mul\n      dup4\n      mstore\n      swap2\n      0x20\n      add\n      swap2\n      jump(tag_254)\n    tag_255:\n      dup3\n      add\n      swap2\n      swap1\n      0x00\n      mstore\n      keccak256(0x00, 0x20)\n      swap1\n    tag_256:\n      dup2\n      sload\n      dup2\n      mstore\n      swap1\n      0x01\n      add\n      swap1\n      0x20\n      add\n      dup1\n      dup4\n      gt\n      tag_256\n      jumpi\n      dup3\n      swap1\n      sub\n      0x1f\n      and\n      dup3\n      add\n      swap2\n    tag_254:\n      pop\n      pop\n      pop\n      pop\n      pop\n      dup2\n      mstore\n      0x20\n      add\n      0x04\n      dup3\n      add\n      dup1\n      sload\n      0x01\n      dup2\n      0x01\n      and\n      iszero\n      0x0100\n      mul\n      sub\n      and\n      0x02\n      swap1\n      div\n      dup1\n      0x1f\n      add\n      0x20\n      dup1\n      swap2\n      div\n      mul\n      0x20\n      add\n      mload(0x40)\n      swap1\n      dup2\n      add\n      0x40\n      mstore\n      dup1\n      swap3\n      swap2\n      swap1\n      dup2\n      dup2\n      mstore\n      0x20\n      add\n      dup3\n      dup1\n      sload\n      0x01\n      dup2\n      0x01\n      and\n      iszero\n      0x0100\n      mul\n      sub\n      and\n      0x02\n      swap1\n      div\n      dup1\n      iszero\n      tag_257\n      jumpi\n      dup1\n      0x1f\n      lt\n      tag_258\n      jumpi\n      0x0100\n      dup1\n      dup4\n      sload\n      div\n      mul\n      dup4\n      mstore\n      swap2\n      0x20\n      add\n      swap2\n      jump(tag_257)\n    tag_258:\n      dup3\n      add\n      swap2\n      swap1\n      0x00\n      mstore\n      keccak256(0x00, 0x20)\n      swap1\n    tag_259:\n      dup2\n      sload\n      dup2\n      mstore\n      swap1\n      0x01\n      add\n      swap1\n      0x20\n      add\n      dup1\n      dup4\n      gt\n      tag_259\n      jumpi\n      dup3\n      swap1\n      sub\n      0x1f\n      and\n      dup3\n      add\n      swap2\n    tag_257:\n      pop\n      pop\n      pop\n      pop\n      pop\n      dup2\n      mstore\n      0x20\n      add\n      0x05\n      dup3\n      add\n      dup1\n      sload\n      0x01\n      dup2\n      0x01\n      and\n      iszero\n      0x0100\n      mul\n      sub\n      and\n      0x02\n      swap1\n      div\n      dup1\n      0x1f\n      add\n      0x20\n      dup1\n      swap2\n      div\n      mul\n      0x20\n      add\n      mload(0x40)\n      swap1\n      dup2\n      add\n      0x40\n      mstore\n      dup1\n      swap3\n      swap2\n      swap1\n      dup2\n      dup2\n      mstore\n      0x20\n      add\n      dup3\n      dup1\n      sload\n      0x01\n      dup2\n      0x01\n      and\n      iszero\n      0x0100\n      mul\n      sub\n      and\n      0x02\n      swap1\n      div\n      dup1\n      iszero\n      tag_260\n      jumpi\n      dup1\n      0x1f\n      lt\n      tag_261\n      jumpi\n      0x0100\n      dup1\n      dup4\n      sload\n      div\n      mul\n      dup4\n      mstore\n      swap2\n      0x20\n      add\n      swap2\n      jump(tag_260)\n    tag_261:\n      dup3\n      add\n      swap2\n      swap1\n      0x00\n      mstore\n      keccak256(0x00, 0x20)\n      swap1\n    tag_262:\n      dup2\n      sload\n      dup2\n      mstore\n      swap1\n      0x01\n      add\n      swap1\n      0x20\n      add\n      dup1\n      dup4\n      gt\n      tag_262\n      jumpi\n      dup3\n      swap1\n      sub\n      0x1f\n      and\n      dup3\n      add\n      swap2\n    tag_260:\n      pop\n      pop\n      pop\n      pop\n      pop\n      dup2\n      mstore\n      0x20\n      add\n      0x06\n      dup3\n      add\n      dup1\n      sload\n      0x01\n      dup2\n      0x01\n      and\n      iszero\n      0x0100\n      mul\n      sub\n      and\n      0x02\n      swap1\n      div\n      dup1\n      0x1f\n      add\n      0x20\n      dup1\n      swap2\n      div\n      mul\n      0x20\n      add\n      mload(0x40)\n      swap1\n      dup2\n      add\n      0x40\n      mstore\n      dup1\n      swap3\n      swap2\n      swap1\n      dup2\n      dup2\n      mstore\n      0x20\n      add\n      dup3\n      dup1\n      sload\n      0x01\n      dup2\n      0x01\n      and\n      iszero\n      0x0100\n      mul\n      sub\n      and\n      0x02\n      swap1\n      div\n      dup1\n      iszero\n      tag_263\n      jumpi\n      dup1\n      0x1f\n      lt\n      tag_264\n      jumpi\n      0x0100\n      dup1\n      dup4\n      sload\n      div\n      mul\n      dup4\n      mstore\n      swap2\n      0x20\n      add\n      swap2\n      jump(tag_263)\n    tag_264:\n      dup3\n      add\n      swap2\n      swap1\n      0x00\n      mstore\n      keccak256(0x00, 0x20)\n      swap1\n    tag_265:\n      dup2\n      sload\n      dup2\n      mstore\n      swap1\n      0x01\n      add\n      swap1\n      0x20\n      add\n      dup1\n      dup4\n      gt\n      tag_265\n      jumpi\n      dup3\n      swap1\n      sub\n      0x1f\n      and\n      dup3\n      add\n      swap2\n    tag_263:\n      pop\n      pop\n      pop\n      pop\n      pop\n      dup2\n      mstore\n      0x20\n      add\n      0x07\n      dup3\n      add\n      sload\n      dup2\n      mstore\n      pop\n      pop\n      swap1\n      pop\n        /* \"contract/entities.sol\":5038:5483  function verifier(uint256 DiplomeID) public returns (Diplome memory) {\r... */\n      swap2\n      swap1\n      pop\n      jump\t// out\n        /* \"contract/entities.sol\":3115:3273  function ajouter_entreprise(string memory Nom) public {\r... */\n    tag_79:\n        /* \"contract/entities.sol\":3180:3199  Entreprise memory e */\n      tag_267\n      tag_268\n      jump\t// in\n    tag_267:\n        /* \"contract/entities.sol\":3218:3221  Nom */\n      dup2\n        /* \"contract/entities.sol\":3210:3211  e */\n      dup2\n        /* \"contract/entities.sol\":3210:3215  e.Nom */\n      0x00\n      add\n        /* \"contract/entities.sol\":3210:3221  e.Nom = Nom */\n      dup2\n      swap1\n      mstore\n      pop\n        /* \"contract/entities.sol\":3232:3265  ajouter_entreprise(e, msg.sender) */\n      tag_269\n        /* \"contract/entities.sol\":3251:3252  e */\n      dup2\n        /* \"contract/entities.sol\":3254:3264  msg.sender */\n      caller\n        /* \"contract/entities.sol\":3232:3250  ajouter_entreprise */\n      tag_270\n        /* \"contract/entities.sol\":3232:3265  ajouter_entreprise(e, msg.sender) */\n      jump\t// in\n    tag_269:\n        /* \"contract/entities.sol\":3115:3273  function ajouter_entreprise(string memory Nom) public {\r... */\n      pop\n      pop\n      jump\t// out\n        /* \"contract/entities.sol\":1946:1974  uint256 public NbEntreprises */\n    tag_81:\n      sload(0x0a)\n      dup2\n      jump\t// out\n        /* \"contract/entities.sol\":2794:2914  function ajouter_diplome(Diplome memory d) private {\r... */\n    tag_93:\n        /* \"contract/entities.sol\":2870:2871  1 */\n      0x01\n        /* \"contract/entities.sol\":2856:2866  NbDiplomes */\n      0x0b\n      0x00\n        /* \"contract/entities.sol\":2856:2871  NbDiplomes += 1 */\n      dup3\n      dup3\n      sload\n      add\n      swap3\n      pop\n      pop\n      dup2\n      swap1\n      sstore\n      pop\n        /* \"contract/entities.sol\":2905:2906  d */\n      dup1\n        /* \"contract/entities.sol\":2882:2890  Diplomes */\n      0x07\n        /* \"contract/entities.sol\":2882:2902  Diplomes[NbDiplomes] */\n      0x00\n        /* \"contract/entities.sol\":2891:2901  NbDiplomes */\n      sload(0x0b)\n        /* \"contract/entities.sol\":2882:2902  Diplomes[NbDiplomes] */\n      dup2\n      mstore\n      0x20\n      add\n      swap1\n      dup2\n      mstore\n      0x20\n      add\n      0x00\n      keccak256\n        /* \"contract/entities.sol\":2882:2906  Diplomes[NbDiplomes] = d */\n      0x00\n      dup3\n      add\n      mload\n      dup2\n      0x00\n      add\n      sstore\n      0x20\n      dup3\n      add\n      mload\n      dup2\n      0x01\n      add\n      swap1\n      dup1\n      mload\n      swap1\n      0x20\n      add\n      swap1\n      tag_272\n      swap3\n      swap2\n      swap1\n      tag_273\n      jump\t// in\n    tag_272:\n      pop\n      0x40\n      dup3\n      add\n      mload\n      dup2\n      0x02\n      add\n      sstore\n      0x60\n      dup3\n      add\n      mload\n      dup2\n      0x03\n      add\n      swap1\n      dup1\n      mload\n      swap1\n      0x20\n      add\n      swap1\n      tag_274\n      swap3\n      swap2\n      swap1\n      tag_273\n      jump\t// in\n    tag_274:\n      pop\n      0x80\n      dup3\n      add\n      mload\n      dup2\n      0x04\n      add\n      swap1\n      dup1\n      mload\n      swap1\n      0x20\n      add\n      swap1\n      tag_275\n      swap3\n      swap2\n      swap1\n      tag_273\n      jump\t// in\n    tag_275:\n      pop\n      0xa0\n      dup3\n      add\n      mload\n      dup2\n      0x05\n      add\n      swap1\n      dup1\n      mload\n      swap1\n      0x20\n      add\n      swap1\n      tag_276\n      swap3\n      swap2\n      swap1\n      tag_273\n      jump\t// in\n    tag_276:\n      pop\n      0xc0\n      dup3\n      add\n      mload\n      dup2\n      0x06\n      add\n      swap1\n      dup1\n      mload\n      swap1\n      0x20\n      add\n      swap1\n      tag_277\n      swap3\n      swap2\n      swap1\n      tag_273\n      jump\t// in\n    tag_277:\n      pop\n      0xe0\n      dup3\n      add\n      mload\n      dup2\n      0x07\n      add\n      sstore\n      swap1\n      pop\n      pop\n        /* \"contract/entities.sol\":2794:2914  function ajouter_diplome(Diplome memory d) private {\r... */\n      pop\n      jump\t// out\n        /* \"contract/entities.sol\":2243:2451  function ajouter_etablisement(Etablisement memory e, address a) private {\r... */\n    tag_166:\n        /* \"contract/entities.sol\":2345:2346  1 */\n      0x01\n        /* \"contract/entities.sol\":2326:2341  NbEtablisements */\n      0x08\n      0x00\n        /* \"contract/entities.sol\":2326:2346  NbEtablisements += 1 */\n      dup3\n      dup3\n      sload\n      add\n      swap3\n      pop\n      pop\n      dup2\n      swap1\n      sstore\n      pop\n        /* \"contract/entities.sol\":2390:2391  e */\n      dup2\n        /* \"contract/entities.sol\":2357:2370  Etablisements */\n      0x02\n        /* \"contract/entities.sol\":2357:2387  Etablisements[NbEtablisements] */\n      0x00\n        /* \"contract/entities.sol\":2371:2386  NbEtablisements */\n      sload(0x08)\n        /* \"contract/entities.sol\":2357:2387  Etablisements[NbEtablisements] */\n      dup2\n      mstore\n      0x20\n      add\n      swap1\n      dup2\n      mstore\n      0x20\n      add\n      0x00\n      keccak256\n        /* \"contract/entities.sol\":2357:2391  Etablisements[NbEtablisements] = e */\n      0x00\n      dup3\n      add\n      mload\n      dup2\n      0x00\n      add\n      swap1\n      dup1\n      mload\n      swap1\n      0x20\n      add\n      swap1\n      tag_279\n      swap3\n      swap2\n      swap1\n      tag_273\n      jump\t// in\n    tag_279:\n      pop\n      0x20\n      dup3\n      add\n      mload\n      dup2\n      0x01\n      add\n      swap1\n      dup1\n      mload\n      swap1\n      0x20\n      add\n      swap1\n      tag_280\n      swap3\n      swap2\n      swap1\n      tag_273\n      jump\t// in\n    tag_280:\n      pop\n      0x40\n      dup3\n      add\n      mload\n      dup2\n      0x02\n      add\n      swap1\n      dup1\n      mload\n      swap1\n      0x20\n      add\n      swap1\n      tag_281\n      swap3\n      swap2\n      swap1\n      tag_273\n      jump\t// in\n    tag_281:\n      pop\n      0x60\n      dup3\n      add\n      mload\n      dup2\n      0x03\n      add\n      swap1\n      dup1\n      mload\n      swap1\n      0x20\n      add\n      swap1\n      tag_282\n      swap3\n      swap2\n      swap1\n      tag_273\n      jump\t// in\n    tag_282:\n      pop\n      0x80\n      dup3\n      add\n      mload\n      dup2\n      0x04\n      add\n      swap1\n      dup1\n      mload\n      swap1\n      0x20\n      add\n      swap1\n      tag_283\n      swap3\n      swap2\n      swap1\n      tag_273\n      jump\t// in\n    tag_283:\n      pop\n      0xa0\n      dup3\n      add\n      mload\n      dup2\n      0x05\n      add\n      sstore\n      swap1\n      pop\n      pop\n        /* \"contract/entities.sol\":2428:2443  NbEtablisements */\n      sload(0x08)\n        /* \"contract/entities.sol\":2402:2422  AddressEtablisements */\n      0x03\n        /* \"contract/entities.sol\":2402:2425  AddressEtablisements[a] */\n      0x00\n        /* \"contract/entities.sol\":2423:2424  a */\n      dup4\n        /* \"contract/entities.sol\":2402:2425  AddressEtablisements[a] */\n      0xffffffffffffffffffffffffffffffffffffffff\n      and\n      0xffffffffffffffffffffffffffffffffffffffff\n      and\n      dup2\n      mstore\n      0x20\n      add\n      swap1\n      dup2\n      mstore\n      0x20\n      add\n      0x00\n      keccak256\n        /* \"contract/entities.sol\":2402:2443  AddressEtablisements[a] = NbEtablisements */\n      dup2\n      swap1\n      sstore\n      pop\n        /* \"contract/entities.sol\":2243:2451  function ajouter_etablisement(Etablisement memory e, address a) private {\r... */\n      pop\n      pop\n      jump\t// out\n        /* \"contract/entities.sol\":2661:2786  function ajouter_etudiant(Etudiant memory e) private {\r... */\n    tag_173:\n        /* \"contract/entities.sol\":2740:2741  1 */\n      0x01\n        /* \"contract/entities.sol\":2725:2736  NbEtudiants */\n      0x09\n      0x00\n        /* \"contract/entities.sol\":2725:2741  NbEtudiants += 1 */\n      dup3\n      dup3\n      sload\n      add\n      swap3\n      pop\n      pop\n      dup2\n      swap1\n      sstore\n      pop\n        /* \"contract/entities.sol\":2777:2778  e */\n      dup1\n        /* \"contract/entities.sol\":2752:2761  Etudiants */\n      0x04\n        /* \"contract/entities.sol\":2752:2774  Etudiants[NbEtudiants] */\n      0x00\n        /* \"contract/entities.sol\":2762:2773  NbEtudiants */\n      sload(0x09)\n        /* \"contract/entities.sol\":2752:2774  Etudiants[NbEtudiants] */\n      dup2\n      mstore\n      0x20\n      add\n      swap1\n      dup2\n      mstore\n      0x20\n      add\n      0x00\n      keccak256\n        /* \"contract/entities.sol\":2752:2778  Etudiants[NbEtudiants] = e */\n      0x00\n      dup3\n      add\n      mload\n      dup2\n      0x00\n      add\n      swap1\n      dup1\n      mload\n      swap1\n      0x20\n      add\n      swap1\n      tag_285\n      swap3\n      swap2\n      swap1\n      tag_273\n      jump\t// in\n    tag_285:\n      pop\n      0x20\n      dup3\n      add\n      mload\n      dup2\n      0x01\n      add\n      swap1\n      dup1\n      mload\n      swap1\n      0x20\n      add\n      swap1\n      tag_286\n      swap3\n      swap2\n      swap1\n      tag_273\n      jump\t// in\n    tag_286:\n      pop\n      0x40\n      dup3\n      add\n      mload\n      dup2\n      0x02\n      add\n      swap1\n      dup1\n      mload\n      swap1\n      0x20\n      add\n      swap1\n      tag_287\n      swap3\n      swap2\n      swap1\n      tag_273\n      jump\t// in\n    tag_287:\n      pop\n      0x60\n      dup3\n      add\n      mload\n      dup2\n      0x03\n      add\n      swap1\n      dup1\n      mload\n      swap1\n      0x20\n      add\n      swap1\n      tag_288\n      swap3\n      swap2\n      swap1\n      tag_273\n      jump\t// in\n    tag_288:\n      pop\n      0x80\n      dup3\n      add\n      mload\n      dup2\n      0x04\n      add\n      swap1\n      dup1\n      mload\n      swap1\n      0x20\n      add\n      swap1\n      tag_289\n      swap3\n      swap2\n      swap1\n      tag_273\n      jump\t// in\n    tag_289:\n      pop\n      0xa0\n      dup3\n      add\n      mload\n      dup2\n      0x05\n      add\n      swap1\n      dup1\n      mload\n      swap1\n      0x20\n      add\n      swap1\n      tag_290\n      swap3\n      swap2\n      swap1\n      tag_273\n      jump\t// in\n    tag_290:\n      pop\n      0xc0\n      dup3\n      add\n      mload\n      dup2\n      0x06\n      add\n      swap1\n      dup1\n      mload\n      swap1\n      0x20\n      add\n      swap1\n      tag_291\n      swap3\n      swap2\n      swap1\n      tag_273\n      jump\t// in\n    tag_291:\n      pop\n      0xe0\n      dup3\n      add\n      mload\n      dup2\n      0x07\n      add\n      swap1\n      dup1\n      mload\n      swap1\n      0x20\n      add\n      swap1\n      tag_292\n      swap3\n      swap2\n      swap1\n      tag_273\n      jump\t// in\n    tag_292:\n      pop\n      0x0100\n      dup3\n      add\n      mload\n      dup2\n      0x08\n      add\n      swap1\n      dup1\n      mload\n      swap1\n      0x20\n      add\n      swap1\n      tag_293\n      swap3\n      swap2\n      swap1\n      tag_273\n      jump\t// in\n    tag_293:\n      pop\n      0x0120\n      dup3\n      add\n      mload\n      dup2\n      0x09\n      add\n      swap1\n      dup1\n      mload\n      swap1\n      0x20\n      add\n      swap1\n      tag_294\n      swap3\n      swap2\n      swap1\n      tag_273\n      jump\t// in\n    tag_294:\n      pop\n      0x0140\n      dup3\n      add\n      mload\n      dup2\n      0x0a\n      add\n      swap1\n      dup1\n      mload\n      swap1\n      0x20\n      add\n      swap1\n      tag_295\n      swap3\n      swap2\n      swap1\n      tag_273\n      jump\t// in\n    tag_295:\n      pop\n      0x0160\n      dup3\n      add\n      mload\n      dup2\n      0x0b\n      add\n      swap1\n      dup1\n      mload\n      swap1\n      0x20\n      add\n      swap1\n      tag_296\n      swap3\n      swap2\n      swap1\n      tag_273\n      jump\t// in\n    tag_296:\n      pop\n      0x0180\n      dup3\n      add\n      mload\n      dup2\n      0x0c\n      add\n      swap1\n      dup1\n      mload\n      swap1\n      0x20\n      add\n      swap1\n      tag_297\n      swap3\n      swap2\n      swap1\n      tag_273\n      jump\t// in\n    tag_297:\n      pop\n      0x01a0\n      dup3\n      add\n      mload\n      dup2\n      0x0d\n      add\n      sstore\n      0x01c0\n      dup3\n      add\n      mload\n      dup2\n      0x0e\n      add\n      sstore\n      0x01e0\n      dup3\n      add\n      mload\n      dup2\n      0x0f\n      add\n      swap1\n      dup1\n      mload\n      swap1\n      0x20\n      add\n      swap1\n      tag_298\n      swap3\n      swap2\n      swap1\n      tag_273\n      jump\t// in\n    tag_298:\n      pop\n      swap1\n      pop\n      pop\n        /* \"contract/entities.sol\":2661:2786  function ajouter_etudiant(Etudiant memory e) private {\r... */\n      pop\n      jump\t// out\n        /* \"contract/entities.sol\":2459:2653  function ajouter_entreprise(Entreprise memory e, address a) private {\r... */\n    tag_270:\n        /* \"contract/entities.sol\":2555:2556  1 */\n      0x01\n        /* \"contract/entities.sol\":2538:2551  NbEntreprises */\n      0x0a\n      0x00\n        /* \"contract/entities.sol\":2538:2556  NbEntreprises += 1 */\n      dup3\n      dup3\n      sload\n      add\n      swap3\n      pop\n      pop\n      dup2\n      swap1\n      sstore\n      pop\n        /* \"contract/entities.sol\":2596:2597  e */\n      dup2\n        /* \"contract/entities.sol\":2567:2578  Entreprises */\n      0x05\n        /* \"contract/entities.sol\":2567:2593  Entreprises[NbEntreprises] */\n      0x00\n        /* \"contract/entities.sol\":2579:2592  NbEntreprises */\n      sload(0x0a)\n        /* \"contract/entities.sol\":2567:2593  Entreprises[NbEntreprises] */\n      dup2\n      mstore\n      0x20\n      add\n      swap1\n      dup2\n      mstore\n      0x20\n      add\n      0x00\n      keccak256\n        /* \"contract/entities.sol\":2567:2597  Entreprises[NbEntreprises] = e */\n      0x00\n      dup3\n      add\n      mload\n      dup2\n      0x00\n      add\n      swap1\n      dup1\n      mload\n      swap1\n      0x20\n      add\n      swap1\n      tag_300\n      swap3\n      swap2\n      swap1\n      tag_273\n      jump\t// in\n    tag_300:\n      pop\n      0x20\n      dup3\n      add\n      mload\n      dup2\n      0x01\n      add\n      swap1\n      dup1\n      mload\n      swap1\n      0x20\n      add\n      swap1\n      tag_301\n      swap3\n      swap2\n      swap1\n      tag_273\n      jump\t// in\n    tag_301:\n      pop\n      0x40\n      dup3\n      add\n      mload\n      dup2\n      0x02\n      add\n      sstore\n      0x60\n      dup3\n      add\n      mload\n      dup2\n      0x03\n      add\n      swap1\n      dup1\n      mload\n      swap1\n      0x20\n      add\n      swap1\n      tag_302\n      swap3\n      swap2\n      swap1\n      tag_273\n      jump\t// in\n    tag_302:\n      pop\n      0x80\n      dup3\n      add\n      mload\n      dup2\n      0x04\n      add\n      swap1\n      dup1\n      mload\n      swap1\n      0x20\n      add\n      swap1\n      tag_303\n      swap3\n      swap2\n      swap1\n      tag_273\n      jump\t// in\n    tag_303:\n      pop\n      0xa0\n      dup3\n      add\n      mload\n      dup2\n      0x05\n      add\n      swap1\n      dup1\n      mload\n      swap1\n      0x20\n      add\n      swap1\n      tag_304\n      swap3\n      swap2\n      swap1\n      tag_273\n      jump\t// in\n    tag_304:\n      pop\n      0xc0\n      dup3\n      add\n      mload\n      dup2\n      0x06\n      add\n      swap1\n      dup1\n      mload\n      swap1\n      0x20\n      add\n      swap1\n      tag_305\n      swap3\n      swap2\n      swap1\n      tag_273\n      jump\t// in\n    tag_305:\n      pop\n      0xe0\n      dup3\n      add\n      mload\n      dup2\n      0x07\n      add\n      swap1\n      dup1\n      mload\n      swap1\n      0x20\n      add\n      swap1\n      tag_306\n      swap3\n      swap2\n      swap1\n      tag_273\n      jump\t// in\n    tag_306:\n      pop\n      0x0100\n      dup3\n      add\n      mload\n      dup2\n      0x08\n      add\n      swap1\n      dup1\n      mload\n      swap1\n      0x20\n      add\n      swap1\n      tag_307\n      swap3\n      swap2\n      swap1\n      tag_273\n      jump\t// in\n    tag_307:\n      pop\n      swap1\n      pop\n      pop\n        /* \"contract/entities.sol\":2632:2645  NbEntreprises */\n      sload(0x0a)\n        /* \"contract/entities.sol\":2608:2626  AddressEntreprises */\n      0x06\n        /* \"contract/entities.sol\":2608:2629  AddressEntreprises[a] */\n      0x00\n        /* \"contract/entities.sol\":2627:2628  a */\n      dup4\n        /* \"contract/entities.sol\":2608:2629  AddressEntreprises[a] */\n      0xffffffffffffffffffffffffffffffffffffffff\n      and\n      0xffffffffffffffffffffffffffffffffffffffff\n      and\n      dup2\n      mstore\n      0x20\n      add\n      swap1\n      dup2\n      mstore\n      0x20\n      add\n      0x00\n      keccak256\n        /* \"contract/entities.sol\":2608:2645  AddressEntreprises[a] = NbEntreprises */\n      dup2\n      swap1\n      sstore\n      pop\n        /* \"contract/entities.sol\":2459:2653  function ajouter_entreprise(Entreprise memory e, address a) private {\r... */\n      pop\n      pop\n      jump\t// out\n        /* \"contract/entities.sol\":95:5486  contract Entities {\r... */\n    tag_88:\n      mload(0x40)\n      dup1\n      0x0100\n      add\n      0x40\n      mstore\n      dup1\n      0x00\n      dup2\n      mstore\n      0x20\n      add\n      0x60\n      dup2\n      mstore\n      0x20\n      add\n      0x00\n      dup2\n      mstore\n      0x20\n      add\n      0x60\n      dup2\n      mstore\n      0x20\n      add\n      0x60\n      dup2\n      mstore\n      0x20\n      add\n      0x60\n      dup2\n      mstore\n      0x20\n      add\n      0x60\n      dup2\n      mstore\n      0x20\n      add\n      0x00\n      dup2\n      mstore\n      pop\n      swap1\n      jump\t// out\n    tag_99:\n      dup3\n      dup1\n      sload\n      0x01\n      dup2\n      0x01\n      and\n      iszero\n      0x0100\n      mul\n      sub\n      and\n      0x02\n      swap1\n      div\n      swap1\n      0x00\n      mstore\n      keccak256(0x00, 0x20)\n      swap1\n      0x1f\n      add\n      0x20\n      swap1\n      div\n      dup2\n      add\n      swap3\n      dup3\n      0x1f\n      lt\n      tag_309\n      jumpi\n      dup1\n      mload\n      not(0xff)\n      and\n      dup4\n      dup1\n      add\n      or\n      dup6\n      sstore\n      jump(tag_308)\n    tag_309:\n      dup3\n      dup1\n      add\n      0x01\n      add\n      dup6\n      sstore\n      dup3\n      iszero\n      tag_308\n      jumpi\n      swap2\n      dup3\n      add\n    tag_310:\n      dup3\n      dup2\n      gt\n      iszero\n      tag_311\n      jumpi\n      dup3\n      mload\n      dup3\n      sstore\n      swap2\n      0x20\n      add\n      swap2\n      swap1\n      0x01\n      add\n      swap1\n      jump(tag_310)\n    tag_311:\n    tag_308:\n      pop\n      swap1\n      pop\n      tag_312\n      swap2\n      swap1\n      tag_313\n      jump\t// in\n    tag_312:\n      pop\n      swap1\n      jump\t// out\n    tag_164:\n      mload(0x40)\n      dup1\n      0xc0\n      add\n      0x40\n      mstore\n      dup1\n      0x60\n      dup2\n      mstore\n      0x20\n      add\n      0x60\n      dup2\n      mstore\n      0x20\n      add\n      0x60\n      dup2\n      mstore\n      0x20\n      add\n      0x60\n      dup2\n      mstore\n      0x20\n      add\n      0x60\n      dup2\n      mstore\n      0x20\n      add\n      0x00\n      dup2\n      mstore\n      pop\n      swap1\n      jump\t// out\n    tag_171:\n      mload(0x40)\n      dup1\n      0x0200\n      add\n      0x40\n      mstore\n      dup1\n      0x60\n      dup2\n      mstore\n      0x20\n      add\n      0x60\n      dup2\n      mstore\n      0x20\n      add\n      0x60\n      dup2\n      mstore\n      0x20\n      add\n      0x60\n      dup2\n      mstore\n      0x20\n      add\n      0x60\n      dup2\n      mstore\n      0x20\n      add\n      0x60\n      dup2\n      mstore\n      0x20\n      add\n      0x60\n      dup2\n      mstore\n      0x20\n      add\n      0x60\n      dup2\n      mstore\n      0x20\n      add\n      0x60\n      dup2\n      mstore\n      0x20\n      add\n      0x60\n      dup2\n      mstore\n      0x20\n      add\n      0x60\n      dup2\n      mstore\n      0x20\n      add\n      0x60\n      dup2\n      mstore\n      0x20\n      add\n      0x60\n      dup2\n      mstore\n      0x20\n      add\n      0x00\n      dup2\n      mstore\n      0x20\n      add\n      0x00\n      dup2\n      mstore\n      0x20\n      add\n      0x60\n      dup2\n      mstore\n      pop\n      swap1\n      jump\t// out\n    tag_268:\n      mload(0x40)\n      dup1\n      0x0120\n      add\n      0x40\n      mstore\n      dup1\n      0x60\n      dup2\n      mstore\n      0x20\n      add\n      0x60\n      dup2\n      mstore\n      0x20\n      add\n      0x00\n      dup2\n      mstore\n      0x20\n      add\n      0x60\n      dup2\n      mstore\n      0x20\n      add\n      0x60\n      dup2\n      mstore\n      0x20\n      add\n      0x60\n      dup2\n      mstore\n      0x20\n      add\n      0x60\n      dup2\n      mstore\n      0x20\n      add\n      0x60\n      dup2\n      mstore\n      0x20\n      add\n      0x60\n      dup2\n      mstore\n      pop\n      swap1\n      jump\t// out\n    tag_273:\n      dup3\n      dup1\n      sload\n      0x01\n      dup2\n      0x01\n      and\n      iszero\n      0x0100\n      mul\n      sub\n      and\n      0x02\n      swap1\n      div\n      swap1\n      0x00\n      mstore\n      keccak256(0x00, 0x20)\n      swap1\n      0x1f\n      add\n      0x20\n      swap1\n      div\n      dup2\n      add\n      swap3\n      dup3\n      0x1f\n      lt\n      tag_315\n      jumpi\n      dup1\n      mload\n      not(0xff)\n      and\n      dup4\n      dup1\n      add\n      or\n      dup6\n      sstore\n      jump(tag_314)\n    tag_315:\n      dup3\n      dup1\n      add\n      0x01\n      add\n      dup6\n      sstore\n      dup3\n      iszero\n      tag_314\n      jumpi\n      swap2\n      dup3\n      add\n    tag_316:\n      dup3\n      dup2\n      gt\n      iszero\n      tag_317\n      jumpi\n      dup3\n      mload\n      dup3\n      sstore\n      swap2\n      0x20\n      add\n      swap2\n      swap1\n      0x01\n      add\n      swap1\n      jump(tag_316)\n    tag_317:\n    tag_314:\n      pop\n      swap1\n      pop\n      tag_318\n      swap2\n      swap1\n      tag_313\n      jump\t// in\n    tag_318:\n      pop\n      swap1\n      jump\t// out\n    tag_313:\n      tag_319\n      swap2\n      swap1\n    tag_320:\n      dup1\n      dup3\n      gt\n      iszero\n      tag_321\n      jumpi\n      0x00\n      dup2\n      0x00\n      swap1\n      sstore\n      pop\n      0x01\n      add\n      jump(tag_320)\n    tag_321:\n      pop\n      swap1\n      jump\n    tag_319:\n      swap1\n      jump\t// out\n        /* \"--CODEGEN--\":5:135   */\n    tag_323:\n      0x00\n        /* \"--CODEGEN--\":85:91   */\n      dup2\n        /* \"--CODEGEN--\":72:92   */\n      calldataload\n        /* \"--CODEGEN--\":63:92   */\n      swap1\n      pop\n        /* \"--CODEGEN--\":97:130   */\n      tag_325\n        /* \"--CODEGEN--\":124:129   */\n      dup2\n        /* \"--CODEGEN--\":97:130   */\n      jump(tag_326)\n    tag_325:\n        /* \"--CODEGEN--\":57:135   */\n      swap3\n      swap2\n      pop\n      pop\n      jump\n        /* \"--CODEGEN--\":142:270   */\n    tag_327:\n      0x00\n        /* \"--CODEGEN--\":223:229   */\n      dup2\n        /* \"--CODEGEN--\":217:230   */\n      mload\n        /* \"--CODEGEN--\":208:230   */\n      swap1\n      pop\n        /* \"--CODEGEN--\":235:265   */\n      tag_329\n        /* \"--CODEGEN--\":259:264   */\n      dup2\n        /* \"--CODEGEN--\":235:265   */\n      jump(tag_330)\n    tag_329:\n        /* \"--CODEGEN--\":202:270   */\n      swap3\n      swap2\n      pop\n      pop\n      jump\n        /* \"--CODEGEN--\":278:720   */\n    tag_331:\n      0x00\n        /* \"--CODEGEN--\":380:383   */\n      dup3\n        /* \"--CODEGEN--\":373:377   */\n      0x1f\n        /* \"--CODEGEN--\":365:371   */\n      dup4\n        /* \"--CODEGEN--\":361:378   */\n      add\n        /* \"--CODEGEN--\":357:384   */\n      slt\n        /* \"--CODEGEN--\":347:349   */\n      tag_333\n      jumpi\n        /* \"--CODEGEN--\":398:399   */\n      0x00\n        /* \"--CODEGEN--\":395:396   */\n      dup1\n        /* \"--CODEGEN--\":388:400   */\n      revert\n        /* \"--CODEGEN--\":347:349   */\n    tag_333:\n        /* \"--CODEGEN--\":435:441   */\n      dup2\n        /* \"--CODEGEN--\":422:442   */\n      calldataload\n        /* \"--CODEGEN--\":457:522   */\n      tag_334\n        /* \"--CODEGEN--\":472:521   */\n      tag_335\n        /* \"--CODEGEN--\":514:520   */\n      dup3\n        /* \"--CODEGEN--\":472:521   */\n      jump(tag_336)\n    tag_335:\n        /* \"--CODEGEN--\":457:522   */\n      jump(tag_337)\n    tag_334:\n        /* \"--CODEGEN--\":448:522   */\n      swap2\n      pop\n        /* \"--CODEGEN--\":542:548   */\n      dup1\n        /* \"--CODEGEN--\":535:540   */\n      dup3\n        /* \"--CODEGEN--\":528:549   */\n      mstore\n        /* \"--CODEGEN--\":578:582   */\n      0x20\n        /* \"--CODEGEN--\":570:576   */\n      dup4\n        /* \"--CODEGEN--\":566:583   */\n      add\n        /* \"--CODEGEN--\":611:615   */\n      0x20\n        /* \"--CODEGEN--\":604:609   */\n      dup4\n        /* \"--CODEGEN--\":600:616   */\n      add\n        /* \"--CODEGEN--\":646:649   */\n      dup6\n        /* \"--CODEGEN--\":637:643   */\n      dup4\n        /* \"--CODEGEN--\":632:635   */\n      dup4\n        /* \"--CODEGEN--\":628:644   */\n      add\n        /* \"--CODEGEN--\":625:650   */\n      gt\n        /* \"--CODEGEN--\":622:624   */\n      iszero\n      tag_338\n      jumpi\n        /* \"--CODEGEN--\":663:664   */\n      0x00\n        /* \"--CODEGEN--\":660:661   */\n      dup1\n        /* \"--CODEGEN--\":653:665   */\n      revert\n        /* \"--CODEGEN--\":622:624   */\n    tag_338:\n        /* \"--CODEGEN--\":673:714   */\n      tag_339\n        /* \"--CODEGEN--\":707:713   */\n      dup4\n        /* \"--CODEGEN--\":702:705   */\n      dup3\n        /* \"--CODEGEN--\":697:700   */\n      dup5\n        /* \"--CODEGEN--\":673:714   */\n      jump(tag_340)\n    tag_339:\n        /* \"--CODEGEN--\":340:720   */\n      pop\n      pop\n      pop\n      swap3\n      swap2\n      pop\n      pop\n      jump\n        /* \"--CODEGEN--\":728:858   */\n    tag_341:\n      0x00\n        /* \"--CODEGEN--\":808:814   */\n      dup2\n        /* \"--CODEGEN--\":795:815   */\n      calldataload\n        /* \"--CODEGEN--\":786:815   */\n      swap1\n      pop\n        /* \"--CODEGEN--\":820:853   */\n      tag_343\n        /* \"--CODEGEN--\":847:852   */\n      dup2\n        /* \"--CODEGEN--\":820:853   */\n      jump(tag_344)\n    tag_343:\n        /* \"--CODEGEN--\":780:858   */\n      swap3\n      swap2\n      pop\n      pop\n      jump\n        /* \"--CODEGEN--\":865:999   */\n    tag_345:\n      0x00\n        /* \"--CODEGEN--\":949:955   */\n      dup2\n        /* \"--CODEGEN--\":943:956   */\n      mload\n        /* \"--CODEGEN--\":934:956   */\n      swap1\n      pop\n        /* \"--CODEGEN--\":961:994   */\n      tag_347\n        /* \"--CODEGEN--\":988:993   */\n      dup2\n        /* \"--CODEGEN--\":961:994   */\n      jump(tag_344)\n    tag_347:\n        /* \"--CODEGEN--\":928:999   */\n      swap3\n      swap2\n      pop\n      pop\n      jump\n        /* \"--CODEGEN--\":1006:1247   */\n    tag_64:\n      0x00\n        /* \"--CODEGEN--\":1110:1112   */\n      0x20\n        /* \"--CODEGEN--\":1098:1107   */\n      dup3\n        /* \"--CODEGEN--\":1089:1096   */\n      dup5\n        /* \"--CODEGEN--\":1085:1108   */\n      sub\n        /* \"--CODEGEN--\":1081:1113   */\n      slt\n        /* \"--CODEGEN--\":1078:1080   */\n      iszero\n      tag_349\n      jumpi\n        /* \"--CODEGEN--\":1126:1127   */\n      0x00\n        /* \"--CODEGEN--\":1123:1124   */\n      dup1\n        /* \"--CODEGEN--\":1116:1128   */\n      revert\n        /* \"--CODEGEN--\":1078:1080   */\n    tag_349:\n        /* \"--CODEGEN--\":1161:1162   */\n      0x00\n        /* \"--CODEGEN--\":1178:1231   */\n      tag_350\n        /* \"--CODEGEN--\":1223:1230   */\n      dup5\n        /* \"--CODEGEN--\":1214:1220   */\n      dup3\n        /* \"--CODEGEN--\":1203:1212   */\n      dup6\n        /* \"--CODEGEN--\":1199:1221   */\n      add\n        /* \"--CODEGEN--\":1178:1231   */\n      jump(tag_323)\n    tag_350:\n        /* \"--CODEGEN--\":1168:1231   */\n      swap2\n      pop\n        /* \"--CODEGEN--\":1140:1237   */\n      pop\n        /* \"--CODEGEN--\":1072:1247   */\n      swap3\n      swap2\n      pop\n      pop\n      jump\n        /* \"--CODEGEN--\":1254:1511   */\n    tag_119:\n      0x00\n        /* \"--CODEGEN--\":1366:1368   */\n      0x20\n        /* \"--CODEGEN--\":1354:1363   */\n      dup3\n        /* \"--CODEGEN--\":1345:1352   */\n      dup5\n        /* \"--CODEGEN--\":1341:1364   */\n      sub\n        /* \"--CODEGEN--\":1337:1369   */\n      slt\n        /* \"--CODEGEN--\":1334:1336   */\n      iszero\n      tag_352\n      jumpi\n        /* \"--CODEGEN--\":1382:1383   */\n      0x00\n        /* \"--CODEGEN--\":1379:1380   */\n      dup1\n        /* \"--CODEGEN--\":1372:1384   */\n      revert\n        /* \"--CODEGEN--\":1334:1336   */\n    tag_352:\n        /* \"--CODEGEN--\":1417:1418   */\n      0x00\n        /* \"--CODEGEN--\":1434:1495   */\n      tag_353\n        /* \"--CODEGEN--\":1487:1494   */\n      dup5\n        /* \"--CODEGEN--\":1478:1484   */\n      dup3\n        /* \"--CODEGEN--\":1467:1476   */\n      dup6\n        /* \"--CODEGEN--\":1463:1485   */\n      add\n        /* \"--CODEGEN--\":1434:1495   */\n      jump(tag_327)\n    tag_353:\n        /* \"--CODEGEN--\":1424:1495   */\n      swap2\n      pop\n        /* \"--CODEGEN--\":1396:1501   */\n      pop\n        /* \"--CODEGEN--\":1328:1511   */\n      swap3\n      swap2\n      pop\n      pop\n      jump\n        /* \"--CODEGEN--\":1518:1865   */\n    tag_48:\n      0x00\n        /* \"--CODEGEN--\":1632:1634   */\n      0x20\n        /* \"--CODEGEN--\":1620:1629   */\n      dup3\n        /* \"--CODEGEN--\":1611:1618   */\n      dup5\n        /* \"--CODEGEN--\":1607:1630   */\n      sub\n        /* \"--CODEGEN--\":1603:1635   */\n      slt\n        /* \"--CODEGEN--\":1600:1602   */\n      iszero\n      tag_355\n      jumpi\n        /* \"--CODEGEN--\":1648:1649   */\n      0x00\n        /* \"--CODEGEN--\":1645:1646   */\n      dup1\n        /* \"--CODEGEN--\":1638:1650   */\n      revert\n        /* \"--CODEGEN--\":1600:1602   */\n    tag_355:\n        /* \"--CODEGEN--\":1711:1712   */\n      0x00\n        /* \"--CODEGEN--\":1700:1709   */\n      dup3\n        /* \"--CODEGEN--\":1696:1713   */\n      add\n        /* \"--CODEGEN--\":1683:1714   */\n      calldataload\n        /* \"--CODEGEN--\":1734:1752   */\n      0xffffffffffffffff\n        /* \"--CODEGEN--\":1726:1732   */\n      dup2\n        /* \"--CODEGEN--\":1723:1753   */\n      gt\n        /* \"--CODEGEN--\":1720:1722   */\n      iszero\n      tag_356\n      jumpi\n        /* \"--CODEGEN--\":1766:1767   */\n      0x00\n        /* \"--CODEGEN--\":1763:1764   */\n      dup1\n        /* \"--CODEGEN--\":1756:1768   */\n      revert\n        /* \"--CODEGEN--\":1720:1722   */\n    tag_356:\n        /* \"--CODEGEN--\":1786:1849   */\n      tag_357\n        /* \"--CODEGEN--\":1841:1848   */\n      dup5\n        /* \"--CODEGEN--\":1832:1838   */\n      dup3\n        /* \"--CODEGEN--\":1821:1830   */\n      dup6\n        /* \"--CODEGEN--\":1817:1839   */\n      add\n        /* \"--CODEGEN--\":1786:1849   */\n      jump(tag_331)\n    tag_357:\n        /* \"--CODEGEN--\":1776:1849   */\n      swap2\n      pop\n        /* \"--CODEGEN--\":1662:1855   */\n      pop\n        /* \"--CODEGEN--\":1594:1865   */\n      swap3\n      swap2\n      pop\n      pop\n      jump\n        /* \"--CODEGEN--\":1872:2450   */\n    tag_52:\n      0x00\n      dup1\n        /* \"--CODEGEN--\":2013:2015   */\n      0x40\n        /* \"--CODEGEN--\":2001:2010   */\n      dup4\n        /* \"--CODEGEN--\":1992:1999   */\n      dup6\n        /* \"--CODEGEN--\":1988:2011   */\n      sub\n        /* \"--CODEGEN--\":1984:2016   */\n      slt\n        /* \"--CODEGEN--\":1981:1983   */\n      iszero\n      tag_359\n      jumpi\n        /* \"--CODEGEN--\":2029:2030   */\n      0x00\n        /* \"--CODEGEN--\":2026:2027   */\n      dup1\n        /* \"--CODEGEN--\":2019:2031   */\n      revert\n        /* \"--CODEGEN--\":1981:1983   */\n    tag_359:\n        /* \"--CODEGEN--\":2092:2093   */\n      0x00\n        /* \"--CODEGEN--\":2081:2090   */\n      dup4\n        /* \"--CODEGEN--\":2077:2094   */\n      add\n        /* \"--CODEGEN--\":2064:2095   */\n      calldataload\n        /* \"--CODEGEN--\":2115:2133   */\n      0xffffffffffffffff\n        /* \"--CODEGEN--\":2107:2113   */\n      dup2\n        /* \"--CODEGEN--\":2104:2134   */\n      gt\n        /* \"--CODEGEN--\":2101:2103   */\n      iszero\n      tag_360\n      jumpi\n        /* \"--CODEGEN--\":2147:2148   */\n      0x00\n        /* \"--CODEGEN--\":2144:2145   */\n      dup1\n        /* \"--CODEGEN--\":2137:2149   */\n      revert\n        /* \"--CODEGEN--\":2101:2103   */\n    tag_360:\n        /* \"--CODEGEN--\":2167:2230   */\n      tag_361\n        /* \"--CODEGEN--\":2222:2229   */\n      dup6\n        /* \"--CODEGEN--\":2213:2219   */\n      dup3\n        /* \"--CODEGEN--\":2202:2211   */\n      dup7\n        /* \"--CODEGEN--\":2198:2220   */\n      add\n        /* \"--CODEGEN--\":2167:2230   */\n      jump(tag_331)\n    tag_361:\n        /* \"--CODEGEN--\":2157:2230   */\n      swap3\n      pop\n        /* \"--CODEGEN--\":2043:2236   */\n      pop\n        /* \"--CODEGEN--\":2295:2297   */\n      0x20\n        /* \"--CODEGEN--\":2284:2293   */\n      dup4\n        /* \"--CODEGEN--\":2280:2298   */\n      add\n        /* \"--CODEGEN--\":2267:2299   */\n      calldataload\n        /* \"--CODEGEN--\":2319:2337   */\n      0xffffffffffffffff\n        /* \"--CODEGEN--\":2311:2317   */\n      dup2\n        /* \"--CODEGEN--\":2308:2338   */\n      gt\n        /* \"--CODEGEN--\":2305:2307   */\n      iszero\n      tag_362\n      jumpi\n        /* \"--CODEGEN--\":2351:2352   */\n      0x00\n        /* \"--CODEGEN--\":2348:2349   */\n      dup1\n        /* \"--CODEGEN--\":2341:2353   */\n      revert\n        /* \"--CODEGEN--\":2305:2307   */\n    tag_362:\n        /* \"--CODEGEN--\":2371:2434   */\n      tag_363\n        /* \"--CODEGEN--\":2426:2433   */\n      dup6\n        /* \"--CODEGEN--\":2417:2423   */\n      dup3\n        /* \"--CODEGEN--\":2406:2415   */\n      dup7\n        /* \"--CODEGEN--\":2402:2424   */\n      add\n        /* \"--CODEGEN--\":2371:2434   */\n      jump(tag_331)\n    tag_363:\n        /* \"--CODEGEN--\":2361:2434   */\n      swap2\n      pop\n        /* \"--CODEGEN--\":2246:2440   */\n      pop\n        /* \"--CODEGEN--\":1975:2450   */\n      swap3\n      pop\n      swap3\n      swap1\n      pop\n      jump\n        /* \"--CODEGEN--\":2457:2698   */\n    tag_23:\n      0x00\n        /* \"--CODEGEN--\":2561:2563   */\n      0x20\n        /* \"--CODEGEN--\":2549:2558   */\n      dup3\n        /* \"--CODEGEN--\":2540:2547   */\n      dup5\n        /* \"--CODEGEN--\":2536:2559   */\n      sub\n        /* \"--CODEGEN--\":2532:2564   */\n      slt\n        /* \"--CODEGEN--\":2529:2531   */\n      iszero\n      tag_365\n      jumpi\n        /* \"--CODEGEN--\":2577:2578   */\n      0x00\n        /* \"--CODEGEN--\":2574:2575   */\n      dup1\n        /* \"--CODEGEN--\":2567:2579   */\n      revert\n        /* \"--CODEGEN--\":2529:2531   */\n    tag_365:\n        /* \"--CODEGEN--\":2612:2613   */\n      0x00\n        /* \"--CODEGEN--\":2629:2682   */\n      tag_366\n        /* \"--CODEGEN--\":2674:2681   */\n      dup5\n        /* \"--CODEGEN--\":2665:2671   */\n      dup3\n        /* \"--CODEGEN--\":2654:2663   */\n      dup6\n        /* \"--CODEGEN--\":2650:2672   */\n      add\n        /* \"--CODEGEN--\":2629:2682   */\n      jump(tag_341)\n    tag_366:\n        /* \"--CODEGEN--\":2619:2682   */\n      swap2\n      pop\n        /* \"--CODEGEN--\":2591:2688   */\n      pop\n        /* \"--CODEGEN--\":2523:2698   */\n      swap3\n      swap2\n      pop\n      pop\n      jump\n        /* \"--CODEGEN--\":2705:2968   */\n    tag_109:\n      0x00\n        /* \"--CODEGEN--\":2820:2822   */\n      0x20\n        /* \"--CODEGEN--\":2808:2817   */\n      dup3\n        /* \"--CODEGEN--\":2799:2806   */\n      dup5\n        /* \"--CODEGEN--\":2795:2818   */\n      sub\n        /* \"--CODEGEN--\":2791:2823   */\n      slt\n        /* \"--CODEGEN--\":2788:2790   */\n      iszero\n      tag_368\n      jumpi\n        /* \"--CODEGEN--\":2836:2837   */\n      0x00\n        /* \"--CODEGEN--\":2833:2834   */\n      dup1\n        /* \"--CODEGEN--\":2826:2838   */\n      revert\n        /* \"--CODEGEN--\":2788:2790   */\n    tag_368:\n        /* \"--CODEGEN--\":2871:2872   */\n      0x00\n        /* \"--CODEGEN--\":2888:2952   */\n      tag_369\n        /* \"--CODEGEN--\":2944:2951   */\n      dup5\n        /* \"--CODEGEN--\":2935:2941   */\n      dup3\n        /* \"--CODEGEN--\":2924:2933   */\n      dup6\n        /* \"--CODEGEN--\":2920:2942   */\n      add\n        /* \"--CODEGEN--\":2888:2952   */\n      jump(tag_345)\n    tag_369:\n        /* \"--CODEGEN--\":2878:2952   */\n      swap2\n      pop\n        /* \"--CODEGEN--\":2850:2958   */\n      pop\n        /* \"--CODEGEN--\":2782:2968   */\n      swap3\n      swap2\n      pop\n      pop\n      jump\n        /* \"--CODEGEN--\":2975:4394   */\n    tag_31:\n      0x00\n      dup1\n      0x00\n      dup1\n      0x00\n      dup1\n      0x00\n        /* \"--CODEGEN--\":3221:3224   */\n      0xe0\n        /* \"--CODEGEN--\":3209:3218   */\n      dup9\n        /* \"--CODEGEN--\":3200:3207   */\n      dup11\n        /* \"--CODEGEN--\":3196:3219   */\n      sub\n        /* \"--CODEGEN--\":3192:3225   */\n      slt\n        /* \"--CODEGEN--\":3189:3191   */\n      iszero\n      tag_371\n      jumpi\n        /* \"--CODEGEN--\":3238:3239   */\n      0x00\n        /* \"--CODEGEN--\":3235:3236   */\n      dup1\n        /* \"--CODEGEN--\":3228:3240   */\n      revert\n        /* \"--CODEGEN--\":3189:3191   */\n    tag_371:\n        /* \"--CODEGEN--\":3273:3274   */\n      0x00\n        /* \"--CODEGEN--\":3290:3343   */\n      tag_372\n        /* \"--CODEGEN--\":3335:3342   */\n      dup11\n        /* \"--CODEGEN--\":3326:3332   */\n      dup3\n        /* \"--CODEGEN--\":3315:3324   */\n      dup12\n        /* \"--CODEGEN--\":3311:3333   */\n      add\n        /* \"--CODEGEN--\":3290:3343   */\n      jump(tag_341)\n    tag_372:\n        /* \"--CODEGEN--\":3280:3343   */\n      swap8\n      pop\n        /* \"--CODEGEN--\":3252:3349   */\n      pop\n        /* \"--CODEGEN--\":3408:3410   */\n      0x20\n        /* \"--CODEGEN--\":3397:3406   */\n      dup9\n        /* \"--CODEGEN--\":3393:3411   */\n      add\n        /* \"--CODEGEN--\":3380:3412   */\n      calldataload\n        /* \"--CODEGEN--\":3432:3450   */\n      0xffffffffffffffff\n        /* \"--CODEGEN--\":3424:3430   */\n      dup2\n        /* \"--CODEGEN--\":3421:3451   */\n      gt\n        /* \"--CODEGEN--\":3418:3420   */\n      iszero\n      tag_373\n      jumpi\n        /* \"--CODEGEN--\":3464:3465   */\n      0x00\n        /* \"--CODEGEN--\":3461:3462   */\n      dup1\n        /* \"--CODEGEN--\":3454:3466   */\n      revert\n        /* \"--CODEGEN--\":3418:3420   */\n    tag_373:\n        /* \"--CODEGEN--\":3484:3547   */\n      tag_374\n        /* \"--CODEGEN--\":3539:3546   */\n      dup11\n        /* \"--CODEGEN--\":3530:3536   */\n      dup3\n        /* \"--CODEGEN--\":3519:3528   */\n      dup12\n        /* \"--CODEGEN--\":3515:3537   */\n      add\n        /* \"--CODEGEN--\":3484:3547   */\n      jump(tag_331)\n    tag_374:\n        /* \"--CODEGEN--\":3474:3547   */\n      swap7\n      pop\n        /* \"--CODEGEN--\":3359:3553   */\n      pop\n        /* \"--CODEGEN--\":3612:3614   */\n      0x40\n        /* \"--CODEGEN--\":3601:3610   */\n      dup9\n        /* \"--CODEGEN--\":3597:3615   */\n      add\n        /* \"--CODEGEN--\":3584:3616   */\n      calldataload\n        /* \"--CODEGEN--\":3636:3654   */\n      0xffffffffffffffff\n        /* \"--CODEGEN--\":3628:3634   */\n      dup2\n        /* \"--CODEGEN--\":3625:3655   */\n      gt\n        /* \"--CODEGEN--\":3622:3624   */\n      iszero\n      tag_375\n      jumpi\n        /* \"--CODEGEN--\":3668:3669   */\n      0x00\n        /* \"--CODEGEN--\":3665:3666   */\n      dup1\n        /* \"--CODEGEN--\":3658:3670   */\n      revert\n        /* \"--CODEGEN--\":3622:3624   */\n    tag_375:\n        /* \"--CODEGEN--\":3688:3751   */\n      tag_376\n        /* \"--CODEGEN--\":3743:3750   */\n      dup11\n        /* \"--CODEGEN--\":3734:3740   */\n      dup3\n        /* \"--CODEGEN--\":3723:3732   */\n      dup12\n        /* \"--CODEGEN--\":3719:3741   */\n      add\n        /* \"--CODEGEN--\":3688:3751   */\n      jump(tag_331)\n    tag_376:\n        /* \"--CODEGEN--\":3678:3751   */\n      swap6\n      pop\n        /* \"--CODEGEN--\":3563:3757   */\n      pop\n        /* \"--CODEGEN--\":3816:3818   */\n      0x60\n        /* \"--CODEGEN--\":3805:3814   */\n      dup9\n        /* \"--CODEGEN--\":3801:3819   */\n      add\n        /* \"--CODEGEN--\":3788:3820   */\n      calldataload\n        /* \"--CODEGEN--\":3840:3858   */\n      0xffffffffffffffff\n        /* \"--CODEGEN--\":3832:3838   */\n      dup2\n        /* \"--CODEGEN--\":3829:3859   */\n      gt\n        /* \"--CODEGEN--\":3826:3828   */\n      iszero\n      tag_377\n      jumpi\n        /* \"--CODEGEN--\":3872:3873   */\n      0x00\n        /* \"--CODEGEN--\":3869:3870   */\n      dup1\n        /* \"--CODEGEN--\":3862:3874   */\n      revert\n        /* \"--CODEGEN--\":3826:3828   */\n    tag_377:\n        /* \"--CODEGEN--\":3892:3955   */\n      tag_378\n        /* \"--CODEGEN--\":3947:3954   */\n      dup11\n        /* \"--CODEGEN--\":3938:3944   */\n      dup3\n        /* \"--CODEGEN--\":3927:3936   */\n      dup12\n        /* \"--CODEGEN--\":3923:3945   */\n      add\n        /* \"--CODEGEN--\":3892:3955   */\n      jump(tag_331)\n    tag_378:\n        /* \"--CODEGEN--\":3882:3955   */\n      swap5\n      pop\n        /* \"--CODEGEN--\":3767:3961   */\n      pop\n        /* \"--CODEGEN--\":3992:3995   */\n      0x80\n        /* \"--CODEGEN--\":4011:4064   */\n      tag_379\n        /* \"--CODEGEN--\":4056:4063   */\n      dup11\n        /* \"--CODEGEN--\":4047:4053   */\n      dup3\n        /* \"--CODEGEN--\":4036:4045   */\n      dup12\n        /* \"--CODEGEN--\":4032:4054   */\n      add\n        /* \"--CODEGEN--\":4011:4064   */\n      jump(tag_341)\n    tag_379:\n        /* \"--CODEGEN--\":4001:4064   */\n      swap4\n      pop\n        /* \"--CODEGEN--\":3971:4070   */\n      pop\n        /* \"--CODEGEN--\":4101:4104   */\n      0xa0\n        /* \"--CODEGEN--\":4120:4173   */\n      tag_380\n        /* \"--CODEGEN--\":4165:4172   */\n      dup11\n        /* \"--CODEGEN--\":4156:4162   */\n      dup3\n        /* \"--CODEGEN--\":4145:4154   */\n      dup12\n        /* \"--CODEGEN--\":4141:4163   */\n      add\n        /* \"--CODEGEN--\":4120:4173   */\n      jump(tag_341)\n    tag_380:\n        /* \"--CODEGEN--\":4110:4173   */\n      swap3\n      pop\n        /* \"--CODEGEN--\":4080:4179   */\n      pop\n        /* \"--CODEGEN--\":4238:4241   */\n      0xc0\n        /* \"--CODEGEN--\":4227:4236   */\n      dup9\n        /* \"--CODEGEN--\":4223:4242   */\n      add\n        /* \"--CODEGEN--\":4210:4243   */\n      calldataload\n        /* \"--CODEGEN--\":4263:4281   */\n      0xffffffffffffffff\n        /* \"--CODEGEN--\":4255:4261   */\n      dup2\n        /* \"--CODEGEN--\":4252:4282   */\n      gt\n        /* \"--CODEGEN--\":4249:4251   */\n      iszero\n      tag_381\n      jumpi\n        /* \"--CODEGEN--\":4295:4296   */\n      0x00\n        /* \"--CODEGEN--\":4292:4293   */\n      dup1\n        /* \"--CODEGEN--\":4285:4297   */\n      revert\n        /* \"--CODEGEN--\":4249:4251   */\n    tag_381:\n        /* \"--CODEGEN--\":4315:4378   */\n      tag_382\n        /* \"--CODEGEN--\":4370:4377   */\n      dup11\n        /* \"--CODEGEN--\":4361:4367   */\n      dup3\n        /* \"--CODEGEN--\":4350:4359   */\n      dup12\n        /* \"--CODEGEN--\":4346:4368   */\n      add\n        /* \"--CODEGEN--\":4315:4378   */\n      jump(tag_331)\n    tag_382:\n        /* \"--CODEGEN--\":4305:4378   */\n      swap2\n      pop\n        /* \"--CODEGEN--\":4189:4384   */\n      pop\n        /* \"--CODEGEN--\":3183:4394   */\n      swap3\n      swap6\n      swap9\n      swap2\n      swap5\n      swap8\n      pop\n      swap3\n      swap6\n      pop\n      jump\n        /* \"--CODEGEN--\":4401:4543   */\n    tag_383:\n        /* \"--CODEGEN--\":4492:4537   */\n      tag_385\n        /* \"--CODEGEN--\":4531:4536   */\n      dup2\n        /* \"--CODEGEN--\":4492:4537   */\n      jump(tag_386)\n    tag_385:\n        /* \"--CODEGEN--\":4487:4490   */\n      dup3\n        /* \"--CODEGEN--\":4480:4538   */\n      mstore\n        /* \"--CODEGEN--\":4474:4543   */\n      pop\n      pop\n      jump\n        /* \"--CODEGEN--\":4550:4663   */\n    tag_387:\n        /* \"--CODEGEN--\":4633:4657   */\n      tag_389\n        /* \"--CODEGEN--\":4651:4656   */\n      dup2\n        /* \"--CODEGEN--\":4633:4657   */\n      jump(tag_390)\n    tag_389:\n        /* \"--CODEGEN--\":4628:4631   */\n      dup3\n        /* \"--CODEGEN--\":4621:4658   */\n      mstore\n        /* \"--CODEGEN--\":4615:4663   */\n      pop\n      pop\n      jump\n        /* \"--CODEGEN--\":4670:4814   */\n    tag_391:\n        /* \"--CODEGEN--\":4762:4808   */\n      tag_393\n        /* \"--CODEGEN--\":4802:4807   */\n      dup2\n        /* \"--CODEGEN--\":4762:4808   */\n      jump(tag_394)\n    tag_393:\n        /* \"--CODEGEN--\":4757:4760   */\n      dup3\n        /* \"--CODEGEN--\":4750:4809   */\n      mstore\n        /* \"--CODEGEN--\":4744:4814   */\n      pop\n      pop\n      jump\n        /* \"--CODEGEN--\":4821:4965   */\n    tag_395:\n        /* \"--CODEGEN--\":4913:4959   */\n      tag_397\n        /* \"--CODEGEN--\":4953:4958   */\n      dup2\n        /* \"--CODEGEN--\":4913:4959   */\n      jump(tag_398)\n    tag_397:\n        /* \"--CODEGEN--\":4908:4911   */\n      dup3\n        /* \"--CODEGEN--\":4901:4960   */\n      mstore\n        /* \"--CODEGEN--\":4895:4965   */\n      pop\n      pop\n      jump\n        /* \"--CODEGEN--\":4972:5291   */\n    tag_399:\n      0x00\n        /* \"--CODEGEN--\":5070:5105   */\n      tag_401\n        /* \"--CODEGEN--\":5099:5104   */\n      dup3\n        /* \"--CODEGEN--\":5070:5105   */\n      jump(tag_402)\n    tag_401:\n        /* \"--CODEGEN--\":5117:5178   */\n      tag_403\n        /* \"--CODEGEN--\":5171:5177   */\n      dup2\n        /* \"--CODEGEN--\":5166:5169   */\n      dup6\n        /* \"--CODEGEN--\":5117:5178   */\n      jump(tag_404)\n    tag_403:\n        /* \"--CODEGEN--\":5110:5178   */\n      swap4\n      pop\n        /* \"--CODEGEN--\":5183:5235   */\n      tag_405\n        /* \"--CODEGEN--\":5228:5234   */\n      dup2\n        /* \"--CODEGEN--\":5223:5226   */\n      dup6\n        /* \"--CODEGEN--\":5216:5220   */\n      0x20\n        /* \"--CODEGEN--\":5209:5214   */\n      dup7\n        /* \"--CODEGEN--\":5205:5221   */\n      add\n        /* \"--CODEGEN--\":5183:5235   */\n      jump(tag_406)\n    tag_405:\n        /* \"--CODEGEN--\":5256:5285   */\n      tag_407\n        /* \"--CODEGEN--\":5278:5284   */\n      dup2\n        /* \"--CODEGEN--\":5256:5285   */\n      jump(tag_408)\n    tag_407:\n        /* \"--CODEGEN--\":5251:5254   */\n      dup5\n        /* \"--CODEGEN--\":5247:5286   */\n      add\n        /* \"--CODEGEN--\":5240:5286   */\n      swap2\n      pop\n        /* \"--CODEGEN--\":5050:5291   */\n      pop\n      swap3\n      swap2\n      pop\n      pop\n      jump\n        /* \"--CODEGEN--\":5298:5637   */\n    tag_409:\n      0x00\n        /* \"--CODEGEN--\":5406:5441   */\n      tag_411\n        /* \"--CODEGEN--\":5435:5440   */\n      dup3\n        /* \"--CODEGEN--\":5406:5441   */\n      jump(tag_402)\n    tag_411:\n        /* \"--CODEGEN--\":5453:5524   */\n      tag_412\n        /* \"--CODEGEN--\":5517:5523   */\n      dup2\n        /* \"--CODEGEN--\":5512:5515   */\n      dup6\n        /* \"--CODEGEN--\":5453:5524   */\n      jump(tag_413)\n    tag_412:\n        /* \"--CODEGEN--\":5446:5524   */\n      swap4\n      pop\n        /* \"--CODEGEN--\":5529:5581   */\n      tag_414\n        /* \"--CODEGEN--\":5574:5580   */\n      dup2\n        /* \"--CODEGEN--\":5569:5572   */\n      dup6\n        /* \"--CODEGEN--\":5562:5566   */\n      0x20\n        /* \"--CODEGEN--\":5555:5560   */\n      dup7\n        /* \"--CODEGEN--\":5551:5567   */\n      add\n        /* \"--CODEGEN--\":5529:5581   */\n      jump(tag_406)\n    tag_414:\n        /* \"--CODEGEN--\":5602:5631   */\n      tag_415\n        /* \"--CODEGEN--\":5624:5630   */\n      dup2\n        /* \"--CODEGEN--\":5602:5631   */\n      jump(tag_408)\n    tag_415:\n        /* \"--CODEGEN--\":5597:5600   */\n      dup5\n        /* \"--CODEGEN--\":5593:5632   */\n      add\n        /* \"--CODEGEN--\":5586:5632   */\n      swap2\n      pop\n        /* \"--CODEGEN--\":5386:5637   */\n      pop\n      swap3\n      swap2\n      pop\n      pop\n      jump\n        /* \"--CODEGEN--\":5645:5961   */\n    tag_416:\n      0x00\n        /* \"--CODEGEN--\":5805:5872   */\n      tag_418\n        /* \"--CODEGEN--\":5869:5871   */\n      0x10\n        /* \"--CODEGEN--\":5864:5867   */\n      dup4\n        /* \"--CODEGEN--\":5805:5872   */\n      jump(tag_413)\n    tag_418:\n        /* \"--CODEGEN--\":5798:5872   */\n      swap2\n      pop\n        /* \"--CODEGEN--\":5905:5923   */\n      0x6e6f7420657461626c6973656d656e7400000000000000000000000000000000\n        /* \"--CODEGEN--\":5901:5902   */\n      0x00\n        /* \"--CODEGEN--\":5896:5899   */\n      dup4\n        /* \"--CODEGEN--\":5892:5903   */\n      add\n        /* \"--CODEGEN--\":5885:5924   */\n      mstore\n        /* \"--CODEGEN--\":5952:5954   */\n      0x20\n        /* \"--CODEGEN--\":5947:5950   */\n      dup3\n        /* \"--CODEGEN--\":5943:5955   */\n      add\n        /* \"--CODEGEN--\":5936:5955   */\n      swap1\n      pop\n        /* \"--CODEGEN--\":5791:5961   */\n      swap2\n      swap1\n      pop\n      jump\n        /* \"--CODEGEN--\":5970:6287   */\n    tag_419:\n      0x00\n        /* \"--CODEGEN--\":6130:6197   */\n      tag_421\n        /* \"--CODEGEN--\":6194:6196   */\n      0x11\n        /* \"--CODEGEN--\":6189:6192   */\n      dup4\n        /* \"--CODEGEN--\":6130:6197   */\n      jump(tag_413)\n    tag_421:\n        /* \"--CODEGEN--\":6123:6197   */\n      swap2\n      pop\n        /* \"--CODEGEN--\":6230:6249   */\n      0x746f6b656e206e6f7420616c6c6f776564000000000000000000000000000000\n        /* \"--CODEGEN--\":6226:6227   */\n      0x00\n        /* \"--CODEGEN--\":6221:6224   */\n      dup4\n        /* \"--CODEGEN--\":6217:6228   */\n      add\n        /* \"--CODEGEN--\":6210:6250   */\n      mstore\n        /* \"--CODEGEN--\":6278:6280   */\n      0x20\n        /* \"--CODEGEN--\":6273:6276   */\n      dup3\n        /* \"--CODEGEN--\":6269:6281   */\n      add\n        /* \"--CODEGEN--\":6262:6281   */\n      swap1\n      pop\n        /* \"--CODEGEN--\":6116:6287   */\n      swap2\n      swap1\n      pop\n      jump\n        /* \"--CODEGEN--\":6296:6610   */\n    tag_422:\n      0x00\n        /* \"--CODEGEN--\":6456:6523   */\n      tag_424\n        /* \"--CODEGEN--\":6520:6522   */\n      0x0e\n        /* \"--CODEGEN--\":6515:6518   */\n      dup4\n        /* \"--CODEGEN--\":6456:6523   */\n      jump(tag_413)\n    tag_424:\n        /* \"--CODEGEN--\":6449:6523   */\n      swap2\n      pop\n        /* \"--CODEGEN--\":6556:6572   */\n      0x6e6f20456e747265707269736573000000000000000000000000000000000000\n        /* \"--CODEGEN--\":6552:6553   */\n      0x00\n        /* \"--CODEGEN--\":6547:6550   */\n      dup4\n        /* \"--CODEGEN--\":6543:6554   */\n      add\n        /* \"--CODEGEN--\":6536:6573   */\n      mstore\n        /* \"--CODEGEN--\":6601:6603   */\n      0x20\n        /* \"--CODEGEN--\":6596:6599   */\n      dup3\n        /* \"--CODEGEN--\":6592:6604   */\n      add\n        /* \"--CODEGEN--\":6585:6604   */\n      swap1\n      pop\n        /* \"--CODEGEN--\":6442:6610   */\n      swap2\n      swap1\n      pop\n      jump\n        /* \"--CODEGEN--\":6619:6933   */\n    tag_425:\n      0x00\n        /* \"--CODEGEN--\":6779:6846   */\n      tag_427\n        /* \"--CODEGEN--\":6843:6845   */\n      0x0e\n        /* \"--CODEGEN--\":6838:6841   */\n      dup4\n        /* \"--CODEGEN--\":6779:6846   */\n      jump(tag_413)\n    tag_427:\n        /* \"--CODEGEN--\":6772:6846   */\n      swap2\n      pop\n        /* \"--CODEGEN--\":6879:6895   */\n      0x7472616e7366657274206661696c000000000000000000000000000000000000\n        /* \"--CODEGEN--\":6875:6876   */\n      0x00\n        /* \"--CODEGEN--\":6870:6873   */\n      dup4\n        /* \"--CODEGEN--\":6866:6877   */\n      add\n        /* \"--CODEGEN--\":6859:6896   */\n      mstore\n        /* \"--CODEGEN--\":6924:6926   */\n      0x20\n        /* \"--CODEGEN--\":6919:6922   */\n      dup3\n        /* \"--CODEGEN--\":6915:6927   */\n      add\n        /* \"--CODEGEN--\":6908:6927   */\n      swap1\n      pop\n        /* \"--CODEGEN--\":6765:6933   */\n      swap2\n      swap1\n      pop\n      jump\n        /* \"--CODEGEN--\":6998:8849   */\n    tag_428:\n      0x00\n        /* \"--CODEGEN--\":7145:7151   */\n      0x0100\n        /* \"--CODEGEN--\":7140:7143   */\n      dup4\n        /* \"--CODEGEN--\":7136:7152   */\n      add\n        /* \"--CODEGEN--\":7238:7242   */\n      0x00\n        /* \"--CODEGEN--\":7231:7236   */\n      dup4\n        /* \"--CODEGEN--\":7227:7243   */\n      add\n        /* \"--CODEGEN--\":7221:7244   */\n      mload\n        /* \"--CODEGEN--\":7250:7313   */\n      tag_430\n        /* \"--CODEGEN--\":7307:7311   */\n      0x00\n        /* \"--CODEGEN--\":7302:7305   */\n      dup7\n        /* \"--CODEGEN--\":7298:7312   */\n      add\n        /* \"--CODEGEN--\":7284:7296   */\n      dup3\n        /* \"--CODEGEN--\":7250:7313   */\n      jump(tag_431)\n    tag_430:\n        /* \"--CODEGEN--\":7167:7319   */\n      pop\n        /* \"--CODEGEN--\":7427:7431   */\n      0x20\n        /* \"--CODEGEN--\":7420:7425   */\n      dup4\n        /* \"--CODEGEN--\":7416:7432   */\n      add\n        /* \"--CODEGEN--\":7410:7433   */\n      mload\n        /* \"--CODEGEN--\":7479:7482   */\n      dup5\n        /* \"--CODEGEN--\":7473:7477   */\n      dup3\n        /* \"--CODEGEN--\":7469:7483   */\n      sub\n        /* \"--CODEGEN--\":7462:7466   */\n      0x20\n        /* \"--CODEGEN--\":7457:7460   */\n      dup7\n        /* \"--CODEGEN--\":7453:7467   */\n      add\n        /* \"--CODEGEN--\":7446:7484   */\n      mstore\n        /* \"--CODEGEN--\":7499:7568   */\n      tag_432\n        /* \"--CODEGEN--\":7563:7567   */\n      dup3\n        /* \"--CODEGEN--\":7549:7561   */\n      dup3\n        /* \"--CODEGEN--\":7499:7568   */\n      jump(tag_399)\n    tag_432:\n        /* \"--CODEGEN--\":7491:7568   */\n      swap2\n      pop\n        /* \"--CODEGEN--\":7329:7580   */\n      pop\n        /* \"--CODEGEN--\":7655:7659   */\n      0x40\n        /* \"--CODEGEN--\":7648:7653   */\n      dup4\n        /* \"--CODEGEN--\":7644:7660   */\n      add\n        /* \"--CODEGEN--\":7638:7661   */\n      mload\n        /* \"--CODEGEN--\":7667:7730   */\n      tag_433\n        /* \"--CODEGEN--\":7724:7728   */\n      0x40\n        /* \"--CODEGEN--\":7719:7722   */\n      dup7\n        /* \"--CODEGEN--\":7715:7729   */\n      add\n        /* \"--CODEGEN--\":7701:7713   */\n      dup3\n        /* \"--CODEGEN--\":7667:7730   */\n      jump(tag_431)\n    tag_433:\n        /* \"--CODEGEN--\":7590:7736   */\n      pop\n        /* \"--CODEGEN--\":7809:7813   */\n      0x60\n        /* \"--CODEGEN--\":7802:7807   */\n      dup4\n        /* \"--CODEGEN--\":7798:7814   */\n      add\n        /* \"--CODEGEN--\":7792:7815   */\n      mload\n        /* \"--CODEGEN--\":7861:7864   */\n      dup5\n        /* \"--CODEGEN--\":7855:7859   */\n      dup3\n        /* \"--CODEGEN--\":7851:7865   */\n      sub\n        /* \"--CODEGEN--\":7844:7848   */\n      0x60\n        /* \"--CODEGEN--\":7839:7842   */\n      dup7\n        /* \"--CODEGEN--\":7835:7849   */\n      add\n        /* \"--CODEGEN--\":7828:7866   */\n      mstore\n        /* \"--CODEGEN--\":7881:7950   */\n      tag_434\n        /* \"--CODEGEN--\":7945:7949   */\n      dup3\n        /* \"--CODEGEN--\":7931:7943   */\n      dup3\n        /* \"--CODEGEN--\":7881:7950   */\n      jump(tag_399)\n    tag_434:\n        /* \"--CODEGEN--\":7873:7950   */\n      swap2\n      pop\n        /* \"--CODEGEN--\":7746:7962   */\n      pop\n        /* \"--CODEGEN--\":8043:8047   */\n      0x80\n        /* \"--CODEGEN--\":8036:8041   */\n      dup4\n        /* \"--CODEGEN--\":8032:8048   */\n      add\n        /* \"--CODEGEN--\":8026:8049   */\n      mload\n        /* \"--CODEGEN--\":8095:8098   */\n      dup5\n        /* \"--CODEGEN--\":8089:8093   */\n      dup3\n        /* \"--CODEGEN--\":8085:8099   */\n      sub\n        /* \"--CODEGEN--\":8078:8082   */\n      0x80\n        /* \"--CODEGEN--\":8073:8076   */\n      dup7\n        /* \"--CODEGEN--\":8069:8083   */\n      add\n        /* \"--CODEGEN--\":8062:8100   */\n      mstore\n        /* \"--CODEGEN--\":8115:8184   */\n      tag_435\n        /* \"--CODEGEN--\":8179:8183   */\n      dup3\n        /* \"--CODEGEN--\":8165:8177   */\n      dup3\n        /* \"--CODEGEN--\":8115:8184   */\n      jump(tag_399)\n    tag_435:\n        /* \"--CODEGEN--\":8107:8184   */\n      swap2\n      pop\n        /* \"--CODEGEN--\":7972:8196   */\n      pop\n        /* \"--CODEGEN--\":8275:8279   */\n      0xa0\n        /* \"--CODEGEN--\":8268:8273   */\n      dup4\n        /* \"--CODEGEN--\":8264:8280   */\n      add\n        /* \"--CODEGEN--\":8258:8281   */\n      mload\n        /* \"--CODEGEN--\":8327:8330   */\n      dup5\n        /* \"--CODEGEN--\":8321:8325   */\n      dup3\n        /* \"--CODEGEN--\":8317:8331   */\n      sub\n        /* \"--CODEGEN--\":8310:8314   */\n      0xa0\n        /* \"--CODEGEN--\":8305:8308   */\n      dup7\n        /* \"--CODEGEN--\":8301:8315   */\n      add\n        /* \"--CODEGEN--\":8294:8332   */\n      mstore\n        /* \"--CODEGEN--\":8347:8416   */\n      tag_436\n        /* \"--CODEGEN--\":8411:8415   */\n      dup3\n        /* \"--CODEGEN--\":8397:8409   */\n      dup3\n        /* \"--CODEGEN--\":8347:8416   */\n      jump(tag_399)\n    tag_436:\n        /* \"--CODEGEN--\":8339:8416   */\n      swap2\n      pop\n        /* \"--CODEGEN--\":8206:8428   */\n      pop\n        /* \"--CODEGEN--\":8504:8508   */\n      0xc0\n        /* \"--CODEGEN--\":8497:8502   */\n      dup4\n        /* \"--CODEGEN--\":8493:8509   */\n      add\n        /* \"--CODEGEN--\":8487:8510   */\n      mload\n        /* \"--CODEGEN--\":8556:8559   */\n      dup5\n        /* \"--CODEGEN--\":8550:8554   */\n      dup3\n        /* \"--CODEGEN--\":8546:8560   */\n      sub\n        /* \"--CODEGEN--\":8539:8543   */\n      0xc0\n        /* \"--CODEGEN--\":8534:8537   */\n      dup7\n        /* \"--CODEGEN--\":8530:8544   */\n      add\n        /* \"--CODEGEN--\":8523:8561   */\n      mstore\n        /* \"--CODEGEN--\":8576:8645   */\n      tag_437\n        /* \"--CODEGEN--\":8640:8644   */\n      dup3\n        /* \"--CODEGEN--\":8626:8638   */\n      dup3\n        /* \"--CODEGEN--\":8576:8645   */\n      jump(tag_399)\n    tag_437:\n        /* \"--CODEGEN--\":8568:8645   */\n      swap2\n      pop\n        /* \"--CODEGEN--\":8438:8657   */\n      pop\n        /* \"--CODEGEN--\":8742:8746   */\n      0xe0\n        /* \"--CODEGEN--\":8735:8740   */\n      dup4\n        /* \"--CODEGEN--\":8731:8747   */\n      add\n        /* \"--CODEGEN--\":8725:8748   */\n      mload\n        /* \"--CODEGEN--\":8754:8817   */\n      tag_438\n        /* \"--CODEGEN--\":8811:8815   */\n      0xe0\n        /* \"--CODEGEN--\":8806:8809   */\n      dup7\n        /* \"--CODEGEN--\":8802:8816   */\n      add\n        /* \"--CODEGEN--\":8788:8800   */\n      dup3\n        /* \"--CODEGEN--\":8754:8817   */\n      jump(tag_431)\n    tag_438:\n        /* \"--CODEGEN--\":8667:8823   */\n      pop\n        /* \"--CODEGEN--\":8840:8844   */\n      dup1\n        /* \"--CODEGEN--\":8833:8844   */\n      swap2\n      pop\n        /* \"--CODEGEN--\":7118:8849   */\n      pop\n      swap3\n      swap2\n      pop\n      pop\n      jump\n        /* \"--CODEGEN--\":8915:12717   */\n    tag_439:\n      0x00\n        /* \"--CODEGEN--\":9064:9070   */\n      0x0200\n        /* \"--CODEGEN--\":9059:9062   */\n      dup4\n        /* \"--CODEGEN--\":9055:9071   */\n      add\n        /* \"--CODEGEN--\":9148:9152   */\n      0x00\n        /* \"--CODEGEN--\":9141:9146   */\n      dup4\n        /* \"--CODEGEN--\":9137:9153   */\n      add\n        /* \"--CODEGEN--\":9131:9154   */\n      mload\n        /* \"--CODEGEN--\":9200:9203   */\n      dup5\n        /* \"--CODEGEN--\":9194:9198   */\n      dup3\n        /* \"--CODEGEN--\":9190:9204   */\n      sub\n        /* \"--CODEGEN--\":9183:9187   */\n      0x00\n        /* \"--CODEGEN--\":9178:9181   */\n      dup7\n        /* \"--CODEGEN--\":9174:9188   */\n      add\n        /* \"--CODEGEN--\":9167:9205   */\n      mstore\n        /* \"--CODEGEN--\":9220:9289   */\n      tag_441\n        /* \"--CODEGEN--\":9284:9288   */\n      dup3\n        /* \"--CODEGEN--\":9270:9282   */\n      dup3\n        /* \"--CODEGEN--\":9220:9289   */\n      jump(tag_399)\n    tag_441:\n        /* \"--CODEGEN--\":9212:9289   */\n      swap2\n      pop\n        /* \"--CODEGEN--\":9086:9301   */\n      pop\n        /* \"--CODEGEN--\":9376:9380   */\n      0x20\n        /* \"--CODEGEN--\":9369:9374   */\n      dup4\n        /* \"--CODEGEN--\":9365:9381   */\n      add\n        /* \"--CODEGEN--\":9359:9382   */\n      mload\n        /* \"--CODEGEN--\":9428:9431   */\n      dup5\n        /* \"--CODEGEN--\":9422:9426   */\n      dup3\n        /* \"--CODEGEN--\":9418:9432   */\n      sub\n        /* \"--CODEGEN--\":9411:9415   */\n      0x20\n        /* \"--CODEGEN--\":9406:9409   */\n      dup7\n        /* \"--CODEGEN--\":9402:9416   */\n      add\n        /* \"--CODEGEN--\":9395:9433   */\n      mstore\n        /* \"--CODEGEN--\":9448:9517   */\n      tag_442\n        /* \"--CODEGEN--\":9512:9516   */\n      dup3\n        /* \"--CODEGEN--\":9498:9510   */\n      dup3\n        /* \"--CODEGEN--\":9448:9517   */\n      jump(tag_399)\n    tag_442:\n        /* \"--CODEGEN--\":9440:9517   */\n      swap2\n      pop\n        /* \"--CODEGEN--\":9311:9529   */\n      pop\n        /* \"--CODEGEN--\":9614:9618   */\n      0x40\n        /* \"--CODEGEN--\":9607:9612   */\n      dup4\n        /* \"--CODEGEN--\":9603:9619   */\n      add\n        /* \"--CODEGEN--\":9597:9620   */\n      mload\n        /* \"--CODEGEN--\":9666:9669   */\n      dup5\n        /* \"--CODEGEN--\":9660:9664   */\n      dup3\n        /* \"--CODEGEN--\":9656:9670   */\n      sub\n        /* \"--CODEGEN--\":9649:9653   */\n      0x40\n        /* \"--CODEGEN--\":9644:9647   */\n      dup7\n        /* \"--CODEGEN--\":9640:9654   */\n      add\n        /* \"--CODEGEN--\":9633:9671   */\n      mstore\n        /* \"--CODEGEN--\":9686:9755   */\n      tag_443\n        /* \"--CODEGEN--\":9750:9754   */\n      dup3\n        /* \"--CODEGEN--\":9736:9748   */\n      dup3\n        /* \"--CODEGEN--\":9686:9755   */\n      jump(tag_399)\n    tag_443:\n        /* \"--CODEGEN--\":9678:9755   */\n      swap2\n      pop\n        /* \"--CODEGEN--\":9539:9767   */\n      pop\n        /* \"--CODEGEN--\":9840:9844   */\n      0x60\n        /* \"--CODEGEN--\":9833:9838   */\n      dup4\n        /* \"--CODEGEN--\":9829:9845   */\n      add\n        /* \"--CODEGEN--\":9823:9846   */\n      mload\n        /* \"--CODEGEN--\":9892:9895   */\n      dup5\n        /* \"--CODEGEN--\":9886:9890   */\n      dup3\n        /* \"--CODEGEN--\":9882:9896   */\n      sub\n        /* \"--CODEGEN--\":9875:9879   */\n      0x60\n        /* \"--CODEGEN--\":9870:9873   */\n      dup7\n        /* \"--CODEGEN--\":9866:9880   */\n      add\n        /* \"--CODEGEN--\":9859:9897   */\n      mstore\n        /* \"--CODEGEN--\":9912:9981   */\n      tag_444\n        /* \"--CODEGEN--\":9976:9980   */\n      dup3\n        /* \"--CODEGEN--\":9962:9974   */\n      dup3\n        /* \"--CODEGEN--\":9912:9981   */\n      jump(tag_399)\n    tag_444:\n        /* \"--CODEGEN--\":9904:9981   */\n      swap2\n      pop\n        /* \"--CODEGEN--\":9777:9993   */\n      pop\n        /* \"--CODEGEN--\":10073:10077   */\n      0x80\n        /* \"--CODEGEN--\":10066:10071   */\n      dup4\n        /* \"--CODEGEN--\":10062:10078   */\n      add\n        /* \"--CODEGEN--\":10056:10079   */\n      mload\n        /* \"--CODEGEN--\":10125:10128   */\n      dup5\n        /* \"--CODEGEN--\":10119:10123   */\n      dup3\n        /* \"--CODEGEN--\":10115:10129   */\n      sub\n        /* \"--CODEGEN--\":10108:10112   */\n      0x80\n        /* \"--CODEGEN--\":10103:10106   */\n      dup7\n        /* \"--CODEGEN--\":10099:10113   */\n      add\n        /* \"--CODEGEN--\":10092:10130   */\n      mstore\n        /* \"--CODEGEN--\":10145:10214   */\n      tag_445\n        /* \"--CODEGEN--\":10209:10213   */\n      dup3\n        /* \"--CODEGEN--\":10195:10207   */\n      dup3\n        /* \"--CODEGEN--\":10145:10214   */\n      jump(tag_399)\n    tag_445:\n        /* \"--CODEGEN--\":10137:10214   */\n      swap2\n      pop\n        /* \"--CODEGEN--\":10003:10226   */\n      pop\n        /* \"--CODEGEN--\":10307:10311   */\n      0xa0\n        /* \"--CODEGEN--\":10300:10305   */\n      dup4\n        /* \"--CODEGEN--\":10296:10312   */\n      add\n        /* \"--CODEGEN--\":10290:10313   */\n      mload\n        /* \"--CODEGEN--\":10359:10362   */\n      dup5\n        /* \"--CODEGEN--\":10353:10357   */\n      dup3\n        /* \"--CODEGEN--\":10349:10363   */\n      sub\n        /* \"--CODEGEN--\":10342:10346   */\n      0xa0\n        /* \"--CODEGEN--\":10337:10340   */\n      dup7\n        /* \"--CODEGEN--\":10333:10347   */\n      add\n        /* \"--CODEGEN--\":10326:10364   */\n      mstore\n        /* \"--CODEGEN--\":10379:10448   */\n      tag_446\n        /* \"--CODEGEN--\":10443:10447   */\n      dup3\n        /* \"--CODEGEN--\":10429:10441   */\n      dup3\n        /* \"--CODEGEN--\":10379:10448   */\n      jump(tag_399)\n    tag_446:\n        /* \"--CODEGEN--\":10371:10448   */\n      swap2\n      pop\n        /* \"--CODEGEN--\":10236:10460   */\n      pop\n        /* \"--CODEGEN--\":10536:10540   */\n      0xc0\n        /* \"--CODEGEN--\":10529:10534   */\n      dup4\n        /* \"--CODEGEN--\":10525:10541   */\n      add\n        /* \"--CODEGEN--\":10519:10542   */\n      mload\n        /* \"--CODEGEN--\":10588:10591   */\n      dup5\n        /* \"--CODEGEN--\":10582:10586   */\n      dup3\n        /* \"--CODEGEN--\":10578:10592   */\n      sub\n        /* \"--CODEGEN--\":10571:10575   */\n      0xc0\n        /* \"--CODEGEN--\":10566:10569   */\n      dup7\n        /* \"--CODEGEN--\":10562:10576   */\n      add\n        /* \"--CODEGEN--\":10555:10593   */\n      mstore\n        /* \"--CODEGEN--\":10608:10677   */\n      tag_447\n        /* \"--CODEGEN--\":10672:10676   */\n      dup3\n        /* \"--CODEGEN--\":10658:10670   */\n      dup3\n        /* \"--CODEGEN--\":10608:10677   */\n      jump(tag_399)\n    tag_447:\n        /* \"--CODEGEN--\":10600:10677   */\n      swap2\n      pop\n        /* \"--CODEGEN--\":10470:10689   */\n      pop\n        /* \"--CODEGEN--\":10766:10770   */\n      0xe0\n        /* \"--CODEGEN--\":10759:10764   */\n      dup4\n        /* \"--CODEGEN--\":10755:10771   */\n      add\n        /* \"--CODEGEN--\":10749:10772   */\n      mload\n        /* \"--CODEGEN--\":10818:10821   */\n      dup5\n        /* \"--CODEGEN--\":10812:10816   */\n      dup3\n        /* \"--CODEGEN--\":10808:10822   */\n      sub\n        /* \"--CODEGEN--\":10801:10805   */\n      0xe0\n        /* \"--CODEGEN--\":10796:10799   */\n      dup7\n        /* \"--CODEGEN--\":10792:10806   */\n      add\n        /* \"--CODEGEN--\":10785:10823   */\n      mstore\n        /* \"--CODEGEN--\":10838:10907   */\n      tag_448\n        /* \"--CODEGEN--\":10902:10906   */\n      dup3\n        /* \"--CODEGEN--\":10888:10900   */\n      dup3\n        /* \"--CODEGEN--\":10838:10907   */\n      jump(tag_399)\n    tag_448:\n        /* \"--CODEGEN--\":10830:10907   */\n      swap2\n      pop\n        /* \"--CODEGEN--\":10699:10919   */\n      pop\n        /* \"--CODEGEN--\":10997:11003   */\n      0x0100\n        /* \"--CODEGEN--\":10990:10995   */\n      dup4\n        /* \"--CODEGEN--\":10986:11004   */\n      add\n        /* \"--CODEGEN--\":10980:11005   */\n      mload\n        /* \"--CODEGEN--\":11053:11056   */\n      dup5\n        /* \"--CODEGEN--\":11047:11051   */\n      dup3\n        /* \"--CODEGEN--\":11043:11057   */\n      sub\n        /* \"--CODEGEN--\":11034:11040   */\n      0x0100\n        /* \"--CODEGEN--\":11029:11032   */\n      dup7\n        /* \"--CODEGEN--\":11025:11041   */\n      add\n        /* \"--CODEGEN--\":11018:11058   */\n      mstore\n        /* \"--CODEGEN--\":11073:11142   */\n      tag_449\n        /* \"--CODEGEN--\":11137:11141   */\n      dup3\n        /* \"--CODEGEN--\":11123:11135   */\n      dup3\n        /* \"--CODEGEN--\":11073:11142   */\n      jump(tag_399)\n    tag_449:\n        /* \"--CODEGEN--\":11065:11142   */\n      swap2\n      pop\n        /* \"--CODEGEN--\":10929:11154   */\n      pop\n        /* \"--CODEGEN--\":11230:11236   */\n      0x0120\n        /* \"--CODEGEN--\":11223:11228   */\n      dup4\n        /* \"--CODEGEN--\":11219:11237   */\n      add\n        /* \"--CODEGEN--\":11213:11238   */\n      mload\n        /* \"--CODEGEN--\":11286:11289   */\n      dup5\n        /* \"--CODEGEN--\":11280:11284   */\n      dup3\n        /* \"--CODEGEN--\":11276:11290   */\n      sub\n        /* \"--CODEGEN--\":11267:11273   */\n      0x0120\n        /* \"--CODEGEN--\":11262:11265   */\n      dup7\n        /* \"--CODEGEN--\":11258:11274   */\n      add\n        /* \"--CODEGEN--\":11251:11291   */\n      mstore\n        /* \"--CODEGEN--\":11306:11375   */\n      tag_450\n        /* \"--CODEGEN--\":11370:11374   */\n      dup3\n        /* \"--CODEGEN--\":11356:11368   */\n      dup3\n        /* \"--CODEGEN--\":11306:11375   */\n      jump(tag_399)\n    tag_450:\n        /* \"--CODEGEN--\":11298:11375   */\n      swap2\n      pop\n        /* \"--CODEGEN--\":11164:11387   */\n      pop\n        /* \"--CODEGEN--\":11465:11471   */\n      0x0140\n        /* \"--CODEGEN--\":11458:11463   */\n      dup4\n        /* \"--CODEGEN--\":11454:11472   */\n      add\n        /* \"--CODEGEN--\":11448:11473   */\n      mload\n        /* \"--CODEGEN--\":11521:11524   */\n      dup5\n        /* \"--CODEGEN--\":11515:11519   */\n      dup3\n        /* \"--CODEGEN--\":11511:11525   */\n      sub\n        /* \"--CODEGEN--\":11502:11508   */\n      0x0140\n        /* \"--CODEGEN--\":11497:11500   */\n      dup7\n        /* \"--CODEGEN--\":11493:11509   */\n      add\n        /* \"--CODEGEN--\":11486:11526   */\n      mstore\n        /* \"--CODEGEN--\":11541:11610   */\n      tag_451\n        /* \"--CODEGEN--\":11605:11609   */\n      dup3\n        /* \"--CODEGEN--\":11591:11603   */\n      dup3\n        /* \"--CODEGEN--\":11541:11610   */\n      jump(tag_399)\n    tag_451:\n        /* \"--CODEGEN--\":11533:11610   */\n      swap2\n      pop\n        /* \"--CODEGEN--\":11397:11622   */\n      pop\n        /* \"--CODEGEN--\":11711:11717   */\n      0x0160\n        /* \"--CODEGEN--\":11704:11709   */\n      dup4\n        /* \"--CODEGEN--\":11700:11718   */\n      add\n        /* \"--CODEGEN--\":11694:11719   */\n      mload\n        /* \"--CODEGEN--\":11767:11770   */\n      dup5\n        /* \"--CODEGEN--\":11761:11765   */\n      dup3\n        /* \"--CODEGEN--\":11757:11771   */\n      sub\n        /* \"--CODEGEN--\":11748:11754   */\n      0x0160\n        /* \"--CODEGEN--\":11743:11746   */\n      dup7\n        /* \"--CODEGEN--\":11739:11755   */\n      add\n        /* \"--CODEGEN--\":11732:11772   */\n      mstore\n        /* \"--CODEGEN--\":11787:11856   */\n      tag_452\n        /* \"--CODEGEN--\":11851:11855   */\n      dup3\n        /* \"--CODEGEN--\":11837:11849   */\n      dup3\n        /* \"--CODEGEN--\":11787:11856   */\n      jump(tag_399)\n    tag_452:\n        /* \"--CODEGEN--\":11779:11856   */\n      swap2\n      pop\n        /* \"--CODEGEN--\":11632:11868   */\n      pop\n        /* \"--CODEGEN--\":11960:11966   */\n      0x0180\n        /* \"--CODEGEN--\":11953:11958   */\n      dup4\n        /* \"--CODEGEN--\":11949:11967   */\n      add\n        /* \"--CODEGEN--\":11943:11968   */\n      mload\n        /* \"--CODEGEN--\":12016:12019   */\n      dup5\n        /* \"--CODEGEN--\":12010:12014   */\n      dup3\n        /* \"--CODEGEN--\":12006:12020   */\n      sub\n        /* \"--CODEGEN--\":11997:12003   */\n      0x0180\n        /* \"--CODEGEN--\":11992:11995   */\n      dup7\n        /* \"--CODEGEN--\":11988:12004   */\n      add\n        /* \"--CODEGEN--\":11981:12021   */\n      mstore\n        /* \"--CODEGEN--\":12036:12105   */\n      tag_453\n        /* \"--CODEGEN--\":12100:12104   */\n      dup3\n        /* \"--CODEGEN--\":12086:12098   */\n      dup3\n        /* \"--CODEGEN--\":12036:12105   */\n      jump(tag_399)\n    tag_453:\n        /* \"--CODEGEN--\":12028:12105   */\n      swap2\n      pop\n        /* \"--CODEGEN--\":11878:12117   */\n      pop\n        /* \"--CODEGEN--\":12202:12208   */\n      0x01a0\n        /* \"--CODEGEN--\":12195:12200   */\n      dup4\n        /* \"--CODEGEN--\":12191:12209   */\n      add\n        /* \"--CODEGEN--\":12185:12210   */\n      mload\n        /* \"--CODEGEN--\":12216:12281   */\n      tag_454\n        /* \"--CODEGEN--\":12273:12279   */\n      0x01a0\n        /* \"--CODEGEN--\":12268:12271   */\n      dup7\n        /* \"--CODEGEN--\":12264:12280   */\n      add\n        /* \"--CODEGEN--\":12250:12262   */\n      dup3\n        /* \"--CODEGEN--\":12216:12281   */\n      jump(tag_431)\n    tag_454:\n        /* \"--CODEGEN--\":12127:12287   */\n      pop\n        /* \"--CODEGEN--\":12370:12376   */\n      0x01c0\n        /* \"--CODEGEN--\":12363:12368   */\n      dup4\n        /* \"--CODEGEN--\":12359:12377   */\n      add\n        /* \"--CODEGEN--\":12353:12378   */\n      mload\n        /* \"--CODEGEN--\":12384:12449   */\n      tag_455\n        /* \"--CODEGEN--\":12441:12447   */\n      0x01c0\n        /* \"--CODEGEN--\":12436:12439   */\n      dup7\n        /* \"--CODEGEN--\":12432:12448   */\n      add\n        /* \"--CODEGEN--\":12418:12430   */\n      dup3\n        /* \"--CODEGEN--\":12384:12449   */\n      jump(tag_431)\n    tag_455:\n        /* \"--CODEGEN--\":12297:12455   */\n      pop\n        /* \"--CODEGEN--\":12534:12540   */\n      0x01e0\n        /* \"--CODEGEN--\":12527:12532   */\n      dup4\n        /* \"--CODEGEN--\":12523:12541   */\n      add\n        /* \"--CODEGEN--\":12517:12542   */\n      mload\n        /* \"--CODEGEN--\":12590:12593   */\n      dup5\n        /* \"--CODEGEN--\":12584:12588   */\n      dup3\n        /* \"--CODEGEN--\":12580:12594   */\n      sub\n        /* \"--CODEGEN--\":12571:12577   */\n      0x01e0\n        /* \"--CODEGEN--\":12566:12569   */\n      dup7\n        /* \"--CODEGEN--\":12562:12578   */\n      add\n        /* \"--CODEGEN--\":12555:12595   */\n      mstore\n        /* \"--CODEGEN--\":12610:12679   */\n      tag_456\n        /* \"--CODEGEN--\":12674:12678   */\n      dup3\n        /* \"--CODEGEN--\":12660:12672   */\n      dup3\n        /* \"--CODEGEN--\":12610:12679   */\n      jump(tag_399)\n    tag_456:\n        /* \"--CODEGEN--\":12602:12679   */\n      swap2\n      pop\n        /* \"--CODEGEN--\":12465:12691   */\n      pop\n        /* \"--CODEGEN--\":12708:12712   */\n      dup1\n        /* \"--CODEGEN--\":12701:12712   */\n      swap2\n      pop\n        /* \"--CODEGEN--\":9037:12717   */\n      pop\n      swap3\n      swap2\n      pop\n      pop\n      jump\n        /* \"--CODEGEN--\":12724:12827   */\n    tag_431:\n        /* \"--CODEGEN--\":12797:12821   */\n      tag_458\n        /* \"--CODEGEN--\":12815:12820   */\n      dup2\n        /* \"--CODEGEN--\":12797:12821   */\n      jump(tag_459)\n    tag_458:\n        /* \"--CODEGEN--\":12792:12795   */\n      dup3\n        /* \"--CODEGEN--\":12785:12822   */\n      mstore\n        /* \"--CODEGEN--\":12779:12827   */\n      pop\n      pop\n      jump\n        /* \"--CODEGEN--\":12834:12947   */\n    tag_460:\n        /* \"--CODEGEN--\":12917:12941   */\n      tag_462\n        /* \"--CODEGEN--\":12935:12940   */\n      dup2\n        /* \"--CODEGEN--\":12917:12941   */\n      jump(tag_459)\n    tag_462:\n        /* \"--CODEGEN--\":12912:12915   */\n      dup3\n        /* \"--CODEGEN--\":12905:12942   */\n      mstore\n        /* \"--CODEGEN--\":12899:12947   */\n      pop\n      pop\n      jump\n        /* \"--CODEGEN--\":12954:13294   */\n    tag_236:\n      0x00\n        /* \"--CODEGEN--\":13108:13110   */\n      0x40\n        /* \"--CODEGEN--\":13097:13106   */\n      dup3\n        /* \"--CODEGEN--\":13093:13111   */\n      add\n        /* \"--CODEGEN--\":13085:13111   */\n      swap1\n      pop\n        /* \"--CODEGEN--\":13122:13201   */\n      tag_464\n        /* \"--CODEGEN--\":13198:13199   */\n      0x00\n        /* \"--CODEGEN--\":13187:13196   */\n      dup4\n        /* \"--CODEGEN--\":13183:13200   */\n      add\n        /* \"--CODEGEN--\":13174:13180   */\n      dup6\n        /* \"--CODEGEN--\":13122:13201   */\n      jump(tag_383)\n    tag_464:\n        /* \"--CODEGEN--\":13212:13284   */\n      tag_465\n        /* \"--CODEGEN--\":13280:13282   */\n      0x20\n        /* \"--CODEGEN--\":13269:13278   */\n      dup4\n        /* \"--CODEGEN--\":13265:13283   */\n      add\n        /* \"--CODEGEN--\":13256:13262   */\n      dup5\n        /* \"--CODEGEN--\":13212:13284   */\n      jump(tag_387)\n    tag_465:\n        /* \"--CODEGEN--\":13079:13294   */\n      swap4\n      swap3\n      pop\n      pop\n      pop\n      jump\n        /* \"--CODEGEN--\":13301:13770   */\n    tag_244:\n      0x00\n        /* \"--CODEGEN--\":13492:13494   */\n      0x60\n        /* \"--CODEGEN--\":13481:13490   */\n      dup3\n        /* \"--CODEGEN--\":13477:13495   */\n      add\n        /* \"--CODEGEN--\":13469:13495   */\n      swap1\n      pop\n        /* \"--CODEGEN--\":13506:13585   */\n      tag_467\n        /* \"--CODEGEN--\":13582:13583   */\n      0x00\n        /* \"--CODEGEN--\":13571:13580   */\n      dup4\n        /* \"--CODEGEN--\":13567:13584   */\n      add\n        /* \"--CODEGEN--\":13558:13564   */\n      dup7\n        /* \"--CODEGEN--\":13506:13585   */\n      jump(tag_383)\n    tag_467:\n        /* \"--CODEGEN--\":13596:13668   */\n      tag_468\n        /* \"--CODEGEN--\":13664:13666   */\n      0x20\n        /* \"--CODEGEN--\":13653:13662   */\n      dup4\n        /* \"--CODEGEN--\":13649:13667   */\n      add\n        /* \"--CODEGEN--\":13640:13646   */\n      dup6\n        /* \"--CODEGEN--\":13596:13668   */\n      jump(tag_387)\n    tag_468:\n        /* \"--CODEGEN--\":13679:13760   */\n      tag_469\n        /* \"--CODEGEN--\":13756:13758   */\n      0x40\n        /* \"--CODEGEN--\":13745:13754   */\n      dup4\n        /* \"--CODEGEN--\":13741:13759   */\n      add\n        /* \"--CODEGEN--\":13732:13738   */\n      dup5\n        /* \"--CODEGEN--\":13679:13760   */\n      jump(tag_391)\n    tag_469:\n        /* \"--CODEGEN--\":13463:13770   */\n      swap5\n      swap4\n      pop\n      pop\n      pop\n      pop\n      jump\n        /* \"--CODEGEN--\":13777:14101   */\n    tag_104:\n      0x00\n        /* \"--CODEGEN--\":13923:13925   */\n      0x40\n        /* \"--CODEGEN--\":13912:13921   */\n      dup3\n        /* \"--CODEGEN--\":13908:13926   */\n      add\n        /* \"--CODEGEN--\":13900:13926   */\n      swap1\n      pop\n        /* \"--CODEGEN--\":13937:14008   */\n      tag_471\n        /* \"--CODEGEN--\":14005:14006   */\n      0x00\n        /* \"--CODEGEN--\":13994:14003   */\n      dup4\n        /* \"--CODEGEN--\":13990:14007   */\n      add\n        /* \"--CODEGEN--\":13981:13987   */\n      dup6\n        /* \"--CODEGEN--\":13937:14008   */\n      jump(tag_387)\n    tag_471:\n        /* \"--CODEGEN--\":14019:14091   */\n      tag_472\n        /* \"--CODEGEN--\":14087:14089   */\n      0x20\n        /* \"--CODEGEN--\":14076:14085   */\n      dup4\n        /* \"--CODEGEN--\":14072:14090   */\n      add\n        /* \"--CODEGEN--\":14063:14069   */\n      dup5\n        /* \"--CODEGEN--\":14019:14091   */\n      jump(tag_387)\n    tag_472:\n        /* \"--CODEGEN--\":13894:14101   */\n      swap4\n      swap3\n      pop\n      pop\n      pop\n      jump\n        /* \"--CODEGEN--\":14108:14577   */\n    tag_114:\n      0x00\n        /* \"--CODEGEN--\":14299:14301   */\n      0x60\n        /* \"--CODEGEN--\":14288:14297   */\n      dup3\n        /* \"--CODEGEN--\":14284:14302   */\n      add\n        /* \"--CODEGEN--\":14276:14302   */\n      swap1\n      pop\n        /* \"--CODEGEN--\":14313:14384   */\n      tag_474\n        /* \"--CODEGEN--\":14381:14382   */\n      0x00\n        /* \"--CODEGEN--\":14370:14379   */\n      dup4\n        /* \"--CODEGEN--\":14366:14383   */\n      add\n        /* \"--CODEGEN--\":14357:14363   */\n      dup7\n        /* \"--CODEGEN--\":14313:14384   */\n      jump(tag_387)\n    tag_474:\n        /* \"--CODEGEN--\":14395:14475   */\n      tag_475\n        /* \"--CODEGEN--\":14471:14473   */\n      0x20\n        /* \"--CODEGEN--\":14460:14469   */\n      dup4\n        /* \"--CODEGEN--\":14456:14474   */\n      add\n        /* \"--CODEGEN--\":14447:14453   */\n      dup6\n        /* \"--CODEGEN--\":14395:14475   */\n      jump(tag_383)\n    tag_475:\n        /* \"--CODEGEN--\":14486:14567   */\n      tag_476\n        /* \"--CODEGEN--\":14563:14565   */\n      0x40\n        /* \"--CODEGEN--\":14552:14561   */\n      dup4\n        /* \"--CODEGEN--\":14548:14566   */\n      add\n        /* \"--CODEGEN--\":14539:14545   */\n      dup5\n        /* \"--CODEGEN--\":14486:14567   */\n      jump(tag_395)\n    tag_476:\n        /* \"--CODEGEN--\":14270:14577   */\n      swap5\n      swap4\n      pop\n      pop\n      pop\n      pop\n      jump\n        /* \"--CODEGEN--\":14584:15755   */\n    tag_71:\n      0x00\n        /* \"--CODEGEN--\":14922:14925   */\n      0xc0\n        /* \"--CODEGEN--\":14911:14920   */\n      dup3\n        /* \"--CODEGEN--\":14907:14926   */\n      add\n        /* \"--CODEGEN--\":14899:14926   */\n      swap1\n      pop\n        /* \"--CODEGEN--\":14973:14982   */\n      dup2\n        /* \"--CODEGEN--\":14967:14971   */\n      dup2\n        /* \"--CODEGEN--\":14963:14983   */\n      sub\n        /* \"--CODEGEN--\":14959:14960   */\n      0x00\n        /* \"--CODEGEN--\":14948:14957   */\n      dup4\n        /* \"--CODEGEN--\":14944:14961   */\n      add\n        /* \"--CODEGEN--\":14937:14984   */\n      mstore\n        /* \"--CODEGEN--\":14998:15072   */\n      tag_478\n        /* \"--CODEGEN--\":15067:15071   */\n      dup2\n        /* \"--CODEGEN--\":15058:15064   */\n      dup10\n        /* \"--CODEGEN--\":14998:15072   */\n      jump(tag_409)\n    tag_478:\n        /* \"--CODEGEN--\":14990:15072   */\n      swap1\n      pop\n        /* \"--CODEGEN--\":15120:15129   */\n      dup2\n        /* \"--CODEGEN--\":15114:15118   */\n      dup2\n        /* \"--CODEGEN--\":15110:15130   */\n      sub\n        /* \"--CODEGEN--\":15105:15107   */\n      0x20\n        /* \"--CODEGEN--\":15094:15103   */\n      dup4\n        /* \"--CODEGEN--\":15090:15108   */\n      add\n        /* \"--CODEGEN--\":15083:15131   */\n      mstore\n        /* \"--CODEGEN--\":15145:15219   */\n      tag_479\n        /* \"--CODEGEN--\":15214:15218   */\n      dup2\n        /* \"--CODEGEN--\":15205:15211   */\n      dup9\n        /* \"--CODEGEN--\":15145:15219   */\n      jump(tag_409)\n    tag_479:\n        /* \"--CODEGEN--\":15137:15219   */\n      swap1\n      pop\n        /* \"--CODEGEN--\":15267:15276   */\n      dup2\n        /* \"--CODEGEN--\":15261:15265   */\n      dup2\n        /* \"--CODEGEN--\":15257:15277   */\n      sub\n        /* \"--CODEGEN--\":15252:15254   */\n      0x40\n        /* \"--CODEGEN--\":15241:15250   */\n      dup4\n        /* \"--CODEGEN--\":15237:15255   */\n      add\n        /* \"--CODEGEN--\":15230:15278   */\n      mstore\n        /* \"--CODEGEN--\":15292:15366   */\n      tag_480\n        /* \"--CODEGEN--\":15361:15365   */\n      dup2\n        /* \"--CODEGEN--\":15352:15358   */\n      dup8\n        /* \"--CODEGEN--\":15292:15366   */\n      jump(tag_409)\n    tag_480:\n        /* \"--CODEGEN--\":15284:15366   */\n      swap1\n      pop\n        /* \"--CODEGEN--\":15414:15423   */\n      dup2\n        /* \"--CODEGEN--\":15408:15412   */\n      dup2\n        /* \"--CODEGEN--\":15404:15424   */\n      sub\n        /* \"--CODEGEN--\":15399:15401   */\n      0x60\n        /* \"--CODEGEN--\":15388:15397   */\n      dup4\n        /* \"--CODEGEN--\":15384:15402   */\n      add\n        /* \"--CODEGEN--\":15377:15425   */\n      mstore\n        /* \"--CODEGEN--\":15439:15513   */\n      tag_481\n        /* \"--CODEGEN--\":15508:15512   */\n      dup2\n        /* \"--CODEGEN--\":15499:15505   */\n      dup7\n        /* \"--CODEGEN--\":15439:15513   */\n      jump(tag_409)\n    tag_481:\n        /* \"--CODEGEN--\":15431:15513   */\n      swap1\n      pop\n        /* \"--CODEGEN--\":15562:15571   */\n      dup2\n        /* \"--CODEGEN--\":15556:15560   */\n      dup2\n        /* \"--CODEGEN--\":15552:15572   */\n      sub\n        /* \"--CODEGEN--\":15546:15549   */\n      0x80\n        /* \"--CODEGEN--\":15535:15544   */\n      dup4\n        /* \"--CODEGEN--\":15531:15550   */\n      add\n        /* \"--CODEGEN--\":15524:15573   */\n      mstore\n        /* \"--CODEGEN--\":15587:15661   */\n      tag_482\n        /* \"--CODEGEN--\":15656:15660   */\n      dup2\n        /* \"--CODEGEN--\":15647:15653   */\n      dup6\n        /* \"--CODEGEN--\":15587:15661   */\n      jump(tag_409)\n    tag_482:\n        /* \"--CODEGEN--\":15579:15661   */\n      swap1\n      pop\n        /* \"--CODEGEN--\":15672:15745   */\n      tag_483\n        /* \"--CODEGEN--\":15740:15743   */\n      0xa0\n        /* \"--CODEGEN--\":15729:15738   */\n      dup4\n        /* \"--CODEGEN--\":15725:15744   */\n      add\n        /* \"--CODEGEN--\":15716:15722   */\n      dup5\n        /* \"--CODEGEN--\":15672:15745   */\n      jump(tag_460)\n    tag_483:\n        /* \"--CODEGEN--\":14893:15755   */\n      swap8\n      swap7\n      pop\n      pop\n      pop\n      pop\n      pop\n      pop\n      pop\n      jump\n        /* \"--CODEGEN--\":15762:17509   */\n    tag_45:\n      0x00\n        /* \"--CODEGEN--\":16232:16235   */\n      0x0120\n        /* \"--CODEGEN--\":16221:16230   */\n      dup3\n        /* \"--CODEGEN--\":16217:16236   */\n      add\n        /* \"--CODEGEN--\":16209:16236   */\n      swap1\n      pop\n        /* \"--CODEGEN--\":16283:16292   */\n      dup2\n        /* \"--CODEGEN--\":16277:16281   */\n      dup2\n        /* \"--CODEGEN--\":16273:16293   */\n      sub\n        /* \"--CODEGEN--\":16269:16270   */\n      0x00\n        /* \"--CODEGEN--\":16258:16267   */\n      dup4\n        /* \"--CODEGEN--\":16254:16271   */\n      add\n        /* \"--CODEGEN--\":16247:16294   */\n      mstore\n        /* \"--CODEGEN--\":16308:16382   */\n      tag_485\n        /* \"--CODEGEN--\":16377:16381   */\n      dup2\n        /* \"--CODEGEN--\":16368:16374   */\n      dup13\n        /* \"--CODEGEN--\":16308:16382   */\n      jump(tag_409)\n    tag_485:\n        /* \"--CODEGEN--\":16300:16382   */\n      swap1\n      pop\n        /* \"--CODEGEN--\":16430:16439   */\n      dup2\n        /* \"--CODEGEN--\":16424:16428   */\n      dup2\n        /* \"--CODEGEN--\":16420:16440   */\n      sub\n        /* \"--CODEGEN--\":16415:16417   */\n      0x20\n        /* \"--CODEGEN--\":16404:16413   */\n      dup4\n        /* \"--CODEGEN--\":16400:16418   */\n      add\n        /* \"--CODEGEN--\":16393:16441   */\n      mstore\n        /* \"--CODEGEN--\":16455:16529   */\n      tag_486\n        /* \"--CODEGEN--\":16524:16528   */\n      dup2\n        /* \"--CODEGEN--\":16515:16521   */\n      dup12\n        /* \"--CODEGEN--\":16455:16529   */\n      jump(tag_409)\n    tag_486:\n        /* \"--CODEGEN--\":16447:16529   */\n      swap1\n      pop\n        /* \"--CODEGEN--\":16540:16612   */\n      tag_487\n        /* \"--CODEGEN--\":16608:16610   */\n      0x40\n        /* \"--CODEGEN--\":16597:16606   */\n      dup4\n        /* \"--CODEGEN--\":16593:16611   */\n      add\n        /* \"--CODEGEN--\":16584:16590   */\n      dup11\n        /* \"--CODEGEN--\":16540:16612   */\n      jump(tag_460)\n    tag_487:\n        /* \"--CODEGEN--\":16660:16669   */\n      dup2\n        /* \"--CODEGEN--\":16654:16658   */\n      dup2\n        /* \"--CODEGEN--\":16650:16670   */\n      sub\n        /* \"--CODEGEN--\":16645:16647   */\n      0x60\n        /* \"--CODEGEN--\":16634:16643   */\n      dup4\n        /* \"--CODEGEN--\":16630:16648   */\n      add\n        /* \"--CODEGEN--\":16623:16671   */\n      mstore\n        /* \"--CODEGEN--\":16685:16759   */\n      tag_488\n        /* \"--CODEGEN--\":16754:16758   */\n      dup2\n        /* \"--CODEGEN--\":16745:16751   */\n      dup10\n        /* \"--CODEGEN--\":16685:16759   */\n      jump(tag_409)\n    tag_488:\n        /* \"--CODEGEN--\":16677:16759   */\n      swap1\n      pop\n        /* \"--CODEGEN--\":16808:16817   */\n      dup2\n        /* \"--CODEGEN--\":16802:16806   */\n      dup2\n        /* \"--CODEGEN--\":16798:16818   */\n      sub\n        /* \"--CODEGEN--\":16792:16795   */\n      0x80\n        /* \"--CODEGEN--\":16781:16790   */\n      dup4\n        /* \"--CODEGEN--\":16777:16796   */\n      add\n        /* \"--CODEGEN--\":16770:16819   */\n      mstore\n        /* \"--CODEGEN--\":16833:16907   */\n      tag_489\n        /* \"--CODEGEN--\":16902:16906   */\n      dup2\n        /* \"--CODEGEN--\":16893:16899   */\n      dup9\n        /* \"--CODEGEN--\":16833:16907   */\n      jump(tag_409)\n    tag_489:\n        /* \"--CODEGEN--\":16825:16907   */\n      swap1\n      pop\n        /* \"--CODEGEN--\":16956:16965   */\n      dup2\n        /* \"--CODEGEN--\":16950:16954   */\n      dup2\n        /* \"--CODEGEN--\":16946:16966   */\n      sub\n        /* \"--CODEGEN--\":16940:16943   */\n      0xa0\n        /* \"--CODEGEN--\":16929:16938   */\n      dup4\n        /* \"--CODEGEN--\":16925:16944   */\n      add\n        /* \"--CODEGEN--\":16918:16967   */\n      mstore\n        /* \"--CODEGEN--\":16981:17055   */\n      tag_490\n        /* \"--CODEGEN--\":17050:17054   */\n      dup2\n        /* \"--CODEGEN--\":17041:17047   */\n      dup8\n        /* \"--CODEGEN--\":16981:17055   */\n      jump(tag_409)\n    tag_490:\n        /* \"--CODEGEN--\":16973:17055   */\n      swap1\n      pop\n        /* \"--CODEGEN--\":17104:17113   */\n      dup2\n        /* \"--CODEGEN--\":17098:17102   */\n      dup2\n        /* \"--CODEGEN--\":17094:17114   */\n      sub\n        /* \"--CODEGEN--\":17088:17091   */\n      0xc0\n        /* \"--CODEGEN--\":17077:17086   */\n      dup4\n        /* \"--CODEGEN--\":17073:17092   */\n      add\n        /* \"--CODEGEN--\":17066:17115   */\n      mstore\n        /* \"--CODEGEN--\":17129:17203   */\n      tag_491\n        /* \"--CODEGEN--\":17198:17202   */\n      dup2\n        /* \"--CODEGEN--\":17189:17195   */\n      dup7\n        /* \"--CODEGEN--\":17129:17203   */\n      jump(tag_409)\n    tag_491:\n        /* \"--CODEGEN--\":17121:17203   */\n      swap1\n      pop\n        /* \"--CODEGEN--\":17252:17261   */\n      dup2\n        /* \"--CODEGEN--\":17246:17250   */\n      dup2\n        /* \"--CODEGEN--\":17242:17262   */\n      sub\n        /* \"--CODEGEN--\":17236:17239   */\n      0xe0\n        /* \"--CODEGEN--\":17225:17234   */\n      dup4\n        /* \"--CODEGEN--\":17221:17240   */\n      add\n        /* \"--CODEGEN--\":17214:17263   */\n      mstore\n        /* \"--CODEGEN--\":17277:17351   */\n      tag_492\n        /* \"--CODEGEN--\":17346:17350   */\n      dup2\n        /* \"--CODEGEN--\":17337:17343   */\n      dup6\n        /* \"--CODEGEN--\":17277:17351   */\n      jump(tag_409)\n    tag_492:\n        /* \"--CODEGEN--\":17269:17351   */\n      swap1\n      pop\n        /* \"--CODEGEN--\":17400:17409   */\n      dup2\n        /* \"--CODEGEN--\":17394:17398   */\n      dup2\n        /* \"--CODEGEN--\":17390:17410   */\n      sub\n        /* \"--CODEGEN--\":17384:17387   */\n      0x0100\n        /* \"--CODEGEN--\":17373:17382   */\n      dup4\n        /* \"--CODEGEN--\":17369:17388   */\n      add\n        /* \"--CODEGEN--\":17362:17411   */\n      mstore\n        /* \"--CODEGEN--\":17425:17499   */\n      tag_493\n        /* \"--CODEGEN--\":17494:17498   */\n      dup2\n        /* \"--CODEGEN--\":17485:17491   */\n      dup5\n        /* \"--CODEGEN--\":17425:17499   */\n      jump(tag_409)\n    tag_493:\n        /* \"--CODEGEN--\":17417:17499   */\n      swap1\n      pop\n        /* \"--CODEGEN--\":16203:17509   */\n      swap11\n      swap10\n      pop\n      pop\n      pop\n      pop\n      pop\n      pop\n      pop\n      pop\n      pop\n      pop\n      jump\n        /* \"--CODEGEN--\":17516:17923   */\n    tag_86:\n      0x00\n        /* \"--CODEGEN--\":17707:17709   */\n      0x20\n        /* \"--CODEGEN--\":17696:17705   */\n      dup3\n        /* \"--CODEGEN--\":17692:17710   */\n      add\n        /* \"--CODEGEN--\":17684:17710   */\n      swap1\n      pop\n        /* \"--CODEGEN--\":17757:17766   */\n      dup2\n        /* \"--CODEGEN--\":17751:17755   */\n      dup2\n        /* \"--CODEGEN--\":17747:17767   */\n      sub\n        /* \"--CODEGEN--\":17743:17744   */\n      0x00\n        /* \"--CODEGEN--\":17732:17741   */\n      dup4\n        /* \"--CODEGEN--\":17728:17745   */\n      add\n        /* \"--CODEGEN--\":17721:17768   */\n      mstore\n        /* \"--CODEGEN--\":17782:17913   */\n      tag_495\n        /* \"--CODEGEN--\":17908:17912   */\n      dup2\n        /* \"--CODEGEN--\":17782:17913   */\n      jump(tag_416)\n    tag_495:\n        /* \"--CODEGEN--\":17774:17913   */\n      swap1\n      pop\n        /* \"--CODEGEN--\":17678:17923   */\n      swap2\n      swap1\n      pop\n      jump\n        /* \"--CODEGEN--\":17930:18337   */\n    tag_112:\n      0x00\n        /* \"--CODEGEN--\":18121:18123   */\n      0x20\n        /* \"--CODEGEN--\":18110:18119   */\n      dup3\n        /* \"--CODEGEN--\":18106:18124   */\n      add\n        /* \"--CODEGEN--\":18098:18124   */\n      swap1\n      pop\n        /* \"--CODEGEN--\":18171:18180   */\n      dup2\n        /* \"--CODEGEN--\":18165:18169   */\n      dup2\n        /* \"--CODEGEN--\":18161:18181   */\n      sub\n        /* \"--CODEGEN--\":18157:18158   */\n      0x00\n        /* \"--CODEGEN--\":18146:18155   */\n      dup4\n        /* \"--CODEGEN--\":18142:18159   */\n      add\n        /* \"--CODEGEN--\":18135:18182   */\n      mstore\n        /* \"--CODEGEN--\":18196:18327   */\n      tag_497\n        /* \"--CODEGEN--\":18322:18326   */\n      dup2\n        /* \"--CODEGEN--\":18196:18327   */\n      jump(tag_419)\n    tag_497:\n        /* \"--CODEGEN--\":18188:18327   */\n      swap1\n      pop\n        /* \"--CODEGEN--\":18092:18337   */\n      swap2\n      swap1\n      pop\n      jump\n        /* \"--CODEGEN--\":18344:18751   */\n    tag_97:\n      0x00\n        /* \"--CODEGEN--\":18535:18537   */\n      0x20\n        /* \"--CODEGEN--\":18524:18533   */\n      dup3\n        /* \"--CODEGEN--\":18520:18538   */\n      add\n        /* \"--CODEGEN--\":18512:18538   */\n      swap1\n      pop\n        /* \"--CODEGEN--\":18585:18594   */\n      dup2\n        /* \"--CODEGEN--\":18579:18583   */\n      dup2\n        /* \"--CODEGEN--\":18575:18595   */\n      sub\n        /* \"--CODEGEN--\":18571:18572   */\n      0x00\n        /* \"--CODEGEN--\":18560:18569   */\n      dup4\n        /* \"--CODEGEN--\":18556:18573   */\n      add\n        /* \"--CODEGEN--\":18549:18596   */\n      mstore\n        /* \"--CODEGEN--\":18610:18741   */\n      tag_499\n        /* \"--CODEGEN--\":18736:18740   */\n      dup2\n        /* \"--CODEGEN--\":18610:18741   */\n      jump(tag_422)\n    tag_499:\n        /* \"--CODEGEN--\":18602:18741   */\n      swap1\n      pop\n        /* \"--CODEGEN--\":18506:18751   */\n      swap2\n      swap1\n      pop\n      jump\n        /* \"--CODEGEN--\":18758:19165   */\n    tag_122:\n      0x00\n        /* \"--CODEGEN--\":18949:18951   */\n      0x20\n        /* \"--CODEGEN--\":18938:18947   */\n      dup3\n        /* \"--CODEGEN--\":18934:18952   */\n      add\n        /* \"--CODEGEN--\":18926:18952   */\n      swap1\n      pop\n        /* \"--CODEGEN--\":18999:19008   */\n      dup2\n        /* \"--CODEGEN--\":18993:18997   */\n      dup2\n        /* \"--CODEGEN--\":18989:19009   */\n      sub\n        /* \"--CODEGEN--\":18985:18986   */\n      0x00\n        /* \"--CODEGEN--\":18974:18983   */\n      dup4\n        /* \"--CODEGEN--\":18970:18987   */\n      add\n        /* \"--CODEGEN--\":18963:19010   */\n      mstore\n        /* \"--CODEGEN--\":19024:19155   */\n      tag_501\n        /* \"--CODEGEN--\":19150:19154   */\n      dup2\n        /* \"--CODEGEN--\":19024:19155   */\n      jump(tag_425)\n    tag_501:\n        /* \"--CODEGEN--\":19016:19155   */\n      swap1\n      pop\n        /* \"--CODEGEN--\":18920:19165   */\n      swap2\n      swap1\n      pop\n      jump\n        /* \"--CODEGEN--\":19172:19525   */\n    tag_76:\n      0x00\n        /* \"--CODEGEN--\":19336:19338   */\n      0x20\n        /* \"--CODEGEN--\":19325:19334   */\n      dup3\n        /* \"--CODEGEN--\":19321:19339   */\n      add\n        /* \"--CODEGEN--\":19313:19339   */\n      swap1\n      pop\n        /* \"--CODEGEN--\":19386:19395   */\n      dup2\n        /* \"--CODEGEN--\":19380:19384   */\n      dup2\n        /* \"--CODEGEN--\":19376:19396   */\n      sub\n        /* \"--CODEGEN--\":19372:19373   */\n      0x00\n        /* \"--CODEGEN--\":19361:19370   */\n      dup4\n        /* \"--CODEGEN--\":19357:19374   */\n      add\n        /* \"--CODEGEN--\":19350:19397   */\n      mstore\n        /* \"--CODEGEN--\":19411:19515   */\n      tag_503\n        /* \"--CODEGEN--\":19510:19514   */\n      dup2\n        /* \"--CODEGEN--\":19501:19507   */\n      dup5\n        /* \"--CODEGEN--\":19411:19515   */\n      jump(tag_428)\n    tag_503:\n        /* \"--CODEGEN--\":19403:19515   */\n      swap1\n      pop\n        /* \"--CODEGEN--\":19307:19525   */\n      swap3\n      swap2\n      pop\n      pop\n      jump\n        /* \"--CODEGEN--\":19532:19889   */\n    tag_58:\n      0x00\n        /* \"--CODEGEN--\":19698:19700   */\n      0x20\n        /* \"--CODEGEN--\":19687:19696   */\n      dup3\n        /* \"--CODEGEN--\":19683:19701   */\n      add\n        /* \"--CODEGEN--\":19675:19701   */\n      swap1\n      pop\n        /* \"--CODEGEN--\":19748:19757   */\n      dup2\n        /* \"--CODEGEN--\":19742:19746   */\n      dup2\n        /* \"--CODEGEN--\":19738:19758   */\n      sub\n        /* \"--CODEGEN--\":19734:19735   */\n      0x00\n        /* \"--CODEGEN--\":19723:19732   */\n      dup4\n        /* \"--CODEGEN--\":19719:19736   */\n      add\n        /* \"--CODEGEN--\":19712:19759   */\n      mstore\n        /* \"--CODEGEN--\":19773:19879   */\n      tag_505\n        /* \"--CODEGEN--\":19874:19878   */\n      dup2\n        /* \"--CODEGEN--\":19865:19871   */\n      dup5\n        /* \"--CODEGEN--\":19773:19879   */\n      jump(tag_439)\n    tag_505:\n        /* \"--CODEGEN--\":19765:19879   */\n      swap1\n      pop\n        /* \"--CODEGEN--\":19669:19889   */\n      swap3\n      swap2\n      pop\n      pop\n      jump\n        /* \"--CODEGEN--\":19896:20109   */\n    tag_28:\n      0x00\n        /* \"--CODEGEN--\":20014:20016   */\n      0x20\n        /* \"--CODEGEN--\":20003:20012   */\n      dup3\n        /* \"--CODEGEN--\":19999:20017   */\n      add\n        /* \"--CODEGEN--\":19991:20017   */\n      swap1\n      pop\n        /* \"--CODEGEN--\":20028:20099   */\n      tag_507\n        /* \"--CODEGEN--\":20096:20097   */\n      0x00\n        /* \"--CODEGEN--\":20085:20094   */\n      dup4\n        /* \"--CODEGEN--\":20081:20098   */\n      add\n        /* \"--CODEGEN--\":20072:20078   */\n      dup5\n        /* \"--CODEGEN--\":20028:20099   */\n      jump(tag_460)\n    tag_507:\n        /* \"--CODEGEN--\":19985:20109   */\n      swap3\n      swap2\n      pop\n      pop\n      jump\n        /* \"--CODEGEN--\":20116:21511   */\n    tag_40:\n      0x00\n        /* \"--CODEGEN--\":20510:20513   */\n      0x0100\n        /* \"--CODEGEN--\":20499:20508   */\n      dup3\n        /* \"--CODEGEN--\":20495:20514   */\n      add\n        /* \"--CODEGEN--\":20487:20514   */\n      swap1\n      pop\n        /* \"--CODEGEN--\":20525:20596   */\n      tag_509\n        /* \"--CODEGEN--\":20593:20594   */\n      0x00\n        /* \"--CODEGEN--\":20582:20591   */\n      dup4\n        /* \"--CODEGEN--\":20578:20595   */\n      add\n        /* \"--CODEGEN--\":20569:20575   */\n      dup12\n        /* \"--CODEGEN--\":20525:20596   */\n      jump(tag_460)\n    tag_509:\n        /* \"--CODEGEN--\":20644:20653   */\n      dup2\n        /* \"--CODEGEN--\":20638:20642   */\n      dup2\n        /* \"--CODEGEN--\":20634:20654   */\n      sub\n        /* \"--CODEGEN--\":20629:20631   */\n      0x20\n        /* \"--CODEGEN--\":20618:20627   */\n      dup4\n        /* \"--CODEGEN--\":20614:20632   */\n      add\n        /* \"--CODEGEN--\":20607:20655   */\n      mstore\n        /* \"--CODEGEN--\":20669:20743   */\n      tag_510\n        /* \"--CODEGEN--\":20738:20742   */\n      dup2\n        /* \"--CODEGEN--\":20729:20735   */\n      dup11\n        /* \"--CODEGEN--\":20669:20743   */\n      jump(tag_409)\n    tag_510:\n        /* \"--CODEGEN--\":20661:20743   */\n      swap1\n      pop\n        /* \"--CODEGEN--\":20754:20826   */\n      tag_511\n        /* \"--CODEGEN--\":20822:20824   */\n      0x40\n        /* \"--CODEGEN--\":20811:20820   */\n      dup4\n        /* \"--CODEGEN--\":20807:20825   */\n      add\n        /* \"--CODEGEN--\":20798:20804   */\n      dup10\n        /* \"--CODEGEN--\":20754:20826   */\n      jump(tag_460)\n    tag_511:\n        /* \"--CODEGEN--\":20874:20883   */\n      dup2\n        /* \"--CODEGEN--\":20868:20872   */\n      dup2\n        /* \"--CODEGEN--\":20864:20884   */\n      sub\n        /* \"--CODEGEN--\":20859:20861   */\n      0x60\n        /* \"--CODEGEN--\":20848:20857   */\n      dup4\n        /* \"--CODEGEN--\":20844:20862   */\n      add\n        /* \"--CODEGEN--\":20837:20885   */\n      mstore\n        /* \"--CODEGEN--\":20899:20973   */\n      tag_512\n        /* \"--CODEGEN--\":20968:20972   */\n      dup2\n        /* \"--CODEGEN--\":20959:20965   */\n      dup9\n        /* \"--CODEGEN--\":20899:20973   */\n      jump(tag_409)\n    tag_512:\n        /* \"--CODEGEN--\":20891:20973   */\n      swap1\n      pop\n        /* \"--CODEGEN--\":21022:21031   */\n      dup2\n        /* \"--CODEGEN--\":21016:21020   */\n      dup2\n        /* \"--CODEGEN--\":21012:21032   */\n      sub\n        /* \"--CODEGEN--\":21006:21009   */\n      0x80\n        /* \"--CODEGEN--\":20995:21004   */\n      dup4\n        /* \"--CODEGEN--\":20991:21010   */\n      add\n        /* \"--CODEGEN--\":20984:21033   */\n      mstore\n        /* \"--CODEGEN--\":21047:21121   */\n      tag_513\n        /* \"--CODEGEN--\":21116:21120   */\n      dup2\n        /* \"--CODEGEN--\":21107:21113   */\n      dup8\n        /* \"--CODEGEN--\":21047:21121   */\n      jump(tag_409)\n    tag_513:\n        /* \"--CODEGEN--\":21039:21121   */\n      swap1\n      pop\n        /* \"--CODEGEN--\":21170:21179   */\n      dup2\n        /* \"--CODEGEN--\":21164:21168   */\n      dup2\n        /* \"--CODEGEN--\":21160:21180   */\n      sub\n        /* \"--CODEGEN--\":21154:21157   */\n      0xa0\n        /* \"--CODEGEN--\":21143:21152   */\n      dup4\n        /* \"--CODEGEN--\":21139:21158   */\n      add\n        /* \"--CODEGEN--\":21132:21181   */\n      mstore\n        /* \"--CODEGEN--\":21195:21269   */\n      tag_514\n        /* \"--CODEGEN--\":21264:21268   */\n      dup2\n        /* \"--CODEGEN--\":21255:21261   */\n      dup7\n        /* \"--CODEGEN--\":21195:21269   */\n      jump(tag_409)\n    tag_514:\n        /* \"--CODEGEN--\":21187:21269   */\n      swap1\n      pop\n        /* \"--CODEGEN--\":21318:21327   */\n      dup2\n        /* \"--CODEGEN--\":21312:21316   */\n      dup2\n        /* \"--CODEGEN--\":21308:21328   */\n      sub\n        /* \"--CODEGEN--\":21302:21305   */\n      0xc0\n        /* \"--CODEGEN--\":21291:21300   */\n      dup4\n        /* \"--CODEGEN--\":21287:21306   */\n      add\n        /* \"--CODEGEN--\":21280:21329   */\n      mstore\n        /* \"--CODEGEN--\":21343:21417   */\n      tag_515\n        /* \"--CODEGEN--\":21412:21416   */\n      dup2\n        /* \"--CODEGEN--\":21403:21409   */\n      dup6\n        /* \"--CODEGEN--\":21343:21417   */\n      jump(tag_409)\n    tag_515:\n        /* \"--CODEGEN--\":21335:21417   */\n      swap1\n      pop\n        /* \"--CODEGEN--\":21428:21501   */\n      tag_516\n        /* \"--CODEGEN--\":21496:21499   */\n      0xe0\n        /* \"--CODEGEN--\":21485:21494   */\n      dup4\n        /* \"--CODEGEN--\":21481:21500   */\n      add\n        /* \"--CODEGEN--\":21472:21478   */\n      dup5\n        /* \"--CODEGEN--\":21428:21501   */\n      jump(tag_460)\n    tag_516:\n        /* \"--CODEGEN--\":20481:21511   */\n      swap10\n      swap9\n      pop\n      pop\n      pop\n      pop\n      pop\n      pop\n      pop\n      pop\n      pop\n      jump\n        /* \"--CODEGEN--\":21518:21774   */\n    tag_337:\n      0x00\n        /* \"--CODEGEN--\":21580:21582   */\n      0x40\n        /* \"--CODEGEN--\":21574:21583   */\n      mload\n        /* \"--CODEGEN--\":21564:21583   */\n      swap1\n      pop\n        /* \"--CODEGEN--\":21618:21622   */\n      dup2\n        /* \"--CODEGEN--\":21610:21616   */\n      dup2\n        /* \"--CODEGEN--\":21606:21623   */\n      add\n        /* \"--CODEGEN--\":21717:21723   */\n      dup2\n        /* \"--CODEGEN--\":21705:21715   */\n      dup2\n        /* \"--CODEGEN--\":21702:21724   */\n      lt\n        /* \"--CODEGEN--\":21681:21699   */\n      0xffffffffffffffff\n        /* \"--CODEGEN--\":21669:21679   */\n      dup3\n        /* \"--CODEGEN--\":21666:21700   */\n      gt\n        /* \"--CODEGEN--\":21663:21725   */\n      or\n        /* \"--CODEGEN--\":21660:21662   */\n      iszero\n      tag_518\n      jumpi\n        /* \"--CODEGEN--\":21738:21739   */\n      0x00\n        /* \"--CODEGEN--\":21735:21736   */\n      dup1\n        /* \"--CODEGEN--\":21728:21740   */\n      revert\n        /* \"--CODEGEN--\":21660:21662   */\n    tag_518:\n        /* \"--CODEGEN--\":21758:21768   */\n      dup1\n        /* \"--CODEGEN--\":21754:21756   */\n      0x40\n        /* \"--CODEGEN--\":21747:21769   */\n      mstore\n        /* \"--CODEGEN--\":21558:21774   */\n      pop\n      swap2\n      swap1\n      pop\n      jump\n        /* \"--CODEGEN--\":21781:22103   */\n    tag_336:\n      0x00\n        /* \"--CODEGEN--\":21925:21943   */\n      0xffffffffffffffff\n        /* \"--CODEGEN--\":21917:21923   */\n      dup3\n        /* \"--CODEGEN--\":21914:21944   */\n      gt\n        /* \"--CODEGEN--\":21911:21913   */\n      iszero\n      tag_520\n      jumpi\n        /* \"--CODEGEN--\":21957:21958   */\n      0x00\n        /* \"--CODEGEN--\":21954:21955   */\n      dup1\n        /* \"--CODEGEN--\":21947:21959   */\n      revert\n        /* \"--CODEGEN--\":21911:21913   */\n    tag_520:\n        /* \"--CODEGEN--\":22024:22028   */\n      0x1f\n        /* \"--CODEGEN--\":22020:22029   */\n      not\n        /* \"--CODEGEN--\":22013:22017   */\n      0x1f\n        /* \"--CODEGEN--\":22005:22011   */\n      dup4\n        /* \"--CODEGEN--\":22001:22018   */\n      add\n        /* \"--CODEGEN--\":21997:22030   */\n      and\n        /* \"--CODEGEN--\":21989:22030   */\n      swap1\n      pop\n        /* \"--CODEGEN--\":22088:22092   */\n      0x20\n        /* \"--CODEGEN--\":22082:22086   */\n      dup2\n        /* \"--CODEGEN--\":22078:22093   */\n      add\n        /* \"--CODEGEN--\":22070:22093   */\n      swap1\n      pop\n        /* \"--CODEGEN--\":21848:22103   */\n      swap2\n      swap1\n      pop\n      jump\n        /* \"--CODEGEN--\":22110:22228   */\n    tag_402:\n      0x00\n        /* \"--CODEGEN--\":22200:22205   */\n      dup2\n        /* \"--CODEGEN--\":22194:22206   */\n      mload\n        /* \"--CODEGEN--\":22184:22206   */\n      swap1\n      pop\n        /* \"--CODEGEN--\":22165:22228   */\n      swap2\n      swap1\n      pop\n      jump\n        /* \"--CODEGEN--\":22236:22389   */\n    tag_404:\n      0x00\n        /* \"--CODEGEN--\":22341:22347   */\n      dup3\n        /* \"--CODEGEN--\":22336:22339   */\n      dup3\n        /* \"--CODEGEN--\":22329:22348   */\n      mstore\n        /* \"--CODEGEN--\":22378:22382   */\n      0x20\n        /* \"--CODEGEN--\":22373:22376   */\n      dup3\n        /* \"--CODEGEN--\":22369:22383   */\n      add\n        /* \"--CODEGEN--\":22354:22383   */\n      swap1\n      pop\n        /* \"--CODEGEN--\":22322:22389   */\n      swap3\n      swap2\n      pop\n      pop\n      jump\n        /* \"--CODEGEN--\":22398:22561   */\n    tag_413:\n      0x00\n        /* \"--CODEGEN--\":22513:22519   */\n      dup3\n        /* \"--CODEGEN--\":22508:22511   */\n      dup3\n        /* \"--CODEGEN--\":22501:22520   */\n      mstore\n        /* \"--CODEGEN--\":22550:22554   */\n      0x20\n        /* \"--CODEGEN--\":22545:22548   */\n      dup3\n        /* \"--CODEGEN--\":22541:22555   */\n      add\n        /* \"--CODEGEN--\":22526:22555   */\n      swap1\n      pop\n        /* \"--CODEGEN--\":22494:22561   */\n      swap3\n      swap2\n      pop\n      pop\n      jump\n        /* \"--CODEGEN--\":22569:22660   */\n    tag_390:\n      0x00\n        /* \"--CODEGEN--\":22631:22655   */\n      tag_525\n        /* \"--CODEGEN--\":22649:22654   */\n      dup3\n        /* \"--CODEGEN--\":22631:22655   */\n      jump(tag_526)\n    tag_525:\n        /* \"--CODEGEN--\":22620:22655   */\n      swap1\n      pop\n        /* \"--CODEGEN--\":22614:22660   */\n      swap2\n      swap1\n      pop\n      jump\n        /* \"--CODEGEN--\":22667:22752   */\n    tag_527:\n      0x00\n        /* \"--CODEGEN--\":22740:22745   */\n      dup2\n        /* \"--CODEGEN--\":22733:22746   */\n      iszero\n        /* \"--CODEGEN--\":22726:22747   */\n      iszero\n        /* \"--CODEGEN--\":22715:22747   */\n      swap1\n      pop\n        /* \"--CODEGEN--\":22709:22752   */\n      swap2\n      swap1\n      pop\n      jump\n        /* \"--CODEGEN--\":22759:22880   */\n    tag_526:\n      0x00\n        /* \"--CODEGEN--\":22832:22874   */\n      0xffffffffffffffffffffffffffffffffffffffff\n        /* \"--CODEGEN--\":22825:22830   */\n      dup3\n        /* \"--CODEGEN--\":22821:22875   */\n      and\n        /* \"--CODEGEN--\":22810:22875   */\n      swap1\n      pop\n        /* \"--CODEGEN--\":22804:22880   */\n      swap2\n      swap1\n      pop\n      jump\n        /* \"--CODEGEN--\":22887:22959   */\n    tag_459:\n      0x00\n        /* \"--CODEGEN--\":22949:22954   */\n      dup2\n        /* \"--CODEGEN--\":22938:22954   */\n      swap1\n      pop\n        /* \"--CODEGEN--\":22932:22959   */\n      swap2\n      swap1\n      pop\n      jump\n        /* \"--CODEGEN--\":22966:23095   */\n    tag_386:\n      0x00\n        /* \"--CODEGEN--\":23053:23090   */\n      tag_532\n        /* \"--CODEGEN--\":23084:23089   */\n      dup3\n        /* \"--CODEGEN--\":23053:23090   */\n      jump(tag_533)\n    tag_532:\n        /* \"--CODEGEN--\":23040:23090   */\n      swap1\n      pop\n        /* \"--CODEGEN--\":23034:23095   */\n      swap2\n      swap1\n      pop\n      jump\n        /* \"--CODEGEN--\":23102:23219   */\n    tag_394:\n      0x00\n        /* \"--CODEGEN--\":23190:23214   */\n      tag_535\n        /* \"--CODEGEN--\":23208:23213   */\n      dup3\n        /* \"--CODEGEN--\":23190:23214   */\n      jump(tag_459)\n    tag_535:\n        /* \"--CODEGEN--\":23177:23214   */\n      swap1\n      pop\n        /* \"--CODEGEN--\":23171:23219   */\n      swap2\n      swap1\n      pop\n      jump\n        /* \"--CODEGEN--\":23226:23343   */\n    tag_398:\n      0x00\n        /* \"--CODEGEN--\":23314:23338   */\n      tag_537\n        /* \"--CODEGEN--\":23332:23337   */\n      dup3\n        /* \"--CODEGEN--\":23314:23338   */\n      jump(tag_459)\n    tag_537:\n        /* \"--CODEGEN--\":23301:23338   */\n      swap1\n      pop\n        /* \"--CODEGEN--\":23295:23343   */\n      swap2\n      swap1\n      pop\n      jump\n        /* \"--CODEGEN--\":23350:23471   */\n    tag_533:\n      0x00\n        /* \"--CODEGEN--\":23429:23466   */\n      tag_539\n        /* \"--CODEGEN--\":23460:23465   */\n      dup3\n        /* \"--CODEGEN--\":23429:23466   */\n      jump(tag_540)\n    tag_539:\n        /* \"--CODEGEN--\":23416:23466   */\n      swap1\n      pop\n        /* \"--CODEGEN--\":23410:23471   */\n      swap2\n      swap1\n      pop\n      jump\n        /* \"--CODEGEN--\":23478:23586   */\n    tag_540:\n      0x00\n        /* \"--CODEGEN--\":23557:23581   */\n      tag_542\n        /* \"--CODEGEN--\":23575:23580   */\n      dup3\n        /* \"--CODEGEN--\":23557:23581   */\n      jump(tag_526)\n    tag_542:\n        /* \"--CODEGEN--\":23544:23581   */\n      swap1\n      pop\n        /* \"--CODEGEN--\":23538:23586   */\n      swap2\n      swap1\n      pop\n      jump\n        /* \"--CODEGEN--\":23594:23739   */\n    tag_340:\n        /* \"--CODEGEN--\":23675:23681   */\n      dup3\n        /* \"--CODEGEN--\":23670:23673   */\n      dup2\n        /* \"--CODEGEN--\":23665:23668   */\n      dup4\n        /* \"--CODEGEN--\":23652:23682   */\n      calldatacopy\n        /* \"--CODEGEN--\":23731:23732   */\n      0x00\n        /* \"--CODEGEN--\":23722:23728   */\n      dup4\n        /* \"--CODEGEN--\":23717:23720   */\n      dup4\n        /* \"--CODEGEN--\":23713:23729   */\n      add\n        /* \"--CODEGEN--\":23706:23733   */\n      mstore\n        /* \"--CODEGEN--\":23645:23739   */\n      pop\n      pop\n      pop\n      jump\n        /* \"--CODEGEN--\":23748:24016   */\n    tag_406:\n        /* \"--CODEGEN--\":23813:23814   */\n      0x00\n        /* \"--CODEGEN--\":23820:23921   */\n    tag_545:\n        /* \"--CODEGEN--\":23834:23840   */\n      dup4\n        /* \"--CODEGEN--\":23831:23832   */\n      dup2\n        /* \"--CODEGEN--\":23828:23841   */\n      lt\n        /* \"--CODEGEN--\":23820:23921   */\n      iszero\n      tag_547\n      jumpi\n        /* \"--CODEGEN--\":23910:23911   */\n      dup1\n        /* \"--CODEGEN--\":23905:23908   */\n      dup3\n        /* \"--CODEGEN--\":23901:23912   */\n      add\n        /* \"--CODEGEN--\":23895:23913   */\n      mload\n        /* \"--CODEGEN--\":23891:23892   */\n      dup2\n        /* \"--CODEGEN--\":23886:23889   */\n      dup5\n        /* \"--CODEGEN--\":23882:23893   */\n      add\n        /* \"--CODEGEN--\":23875:23914   */\n      mstore\n        /* \"--CODEGEN--\":23856:23858   */\n      0x20\n        /* \"--CODEGEN--\":23853:23854   */\n      dup2\n        /* \"--CODEGEN--\":23849:23859   */\n      add\n        /* \"--CODEGEN--\":23844:23859   */\n      swap1\n      pop\n        /* \"--CODEGEN--\":23820:23921   */\n      jump(tag_545)\n    tag_547:\n        /* \"--CODEGEN--\":23936:23942   */\n      dup4\n        /* \"--CODEGEN--\":23933:23934   */\n      dup2\n        /* \"--CODEGEN--\":23930:23943   */\n      gt\n        /* \"--CODEGEN--\":23927:23929   */\n      iszero\n      tag_548\n      jumpi\n        /* \"--CODEGEN--\":24001:24002   */\n      0x00\n        /* \"--CODEGEN--\":23992:23998   */\n      dup5\n        /* \"--CODEGEN--\":23987:23990   */\n      dup5\n        /* \"--CODEGEN--\":23983:23999   */\n      add\n        /* \"--CODEGEN--\":23976:24003   */\n      mstore\n        /* \"--CODEGEN--\":23927:23929   */\n    tag_548:\n        /* \"--CODEGEN--\":23797:24016   */\n      pop\n      pop\n      pop\n      pop\n      jump\n        /* \"--CODEGEN--\":24024:24121   */\n    tag_408:\n      0x00\n        /* \"--CODEGEN--\":24112:24114   */\n      0x1f\n        /* \"--CODEGEN--\":24108:24115   */\n      not\n        /* \"--CODEGEN--\":24103:24105   */\n      0x1f\n        /* \"--CODEGEN--\":24096:24101   */\n      dup4\n        /* \"--CODEGEN--\":24092:24106   */\n      add\n        /* \"--CODEGEN--\":24088:24116   */\n      and\n        /* \"--CODEGEN--\":24078:24116   */\n      swap1\n      pop\n        /* \"--CODEGEN--\":24072:24121   */\n      swap2\n      swap1\n      pop\n      jump\n        /* \"--CODEGEN--\":24129:24246   */\n    tag_326:\n        /* \"--CODEGEN--\":24198:24222   */\n      tag_551\n        /* \"--CODEGEN--\":24216:24221   */\n      dup2\n        /* \"--CODEGEN--\":24198:24222   */\n      jump(tag_390)\n    tag_551:\n        /* \"--CODEGEN--\":24191:24196   */\n      dup2\n        /* \"--CODEGEN--\":24188:24223   */\n      eq\n        /* \"--CODEGEN--\":24178:24180   */\n      tag_552\n      jumpi\n        /* \"--CODEGEN--\":24237:24238   */\n      0x00\n        /* \"--CODEGEN--\":24234:24235   */\n      dup1\n        /* \"--CODEGEN--\":24227:24239   */\n      revert\n        /* \"--CODEGEN--\":24178:24180   */\n    tag_552:\n        /* \"--CODEGEN--\":24172:24246   */\n      pop\n      jump\n        /* \"--CODEGEN--\":24253:24364   */\n    tag_330:\n        /* \"--CODEGEN--\":24319:24340   */\n      tag_554\n        /* \"--CODEGEN--\":24334:24339   */\n      dup2\n        /* \"--CODEGEN--\":24319:24340   */\n      jump(tag_527)\n    tag_554:\n        /* \"--CODEGEN--\":24312:24317   */\n      dup2\n        /* \"--CODEGEN--\":24309:24341   */\n      eq\n        /* \"--CODEGEN--\":24299:24301   */\n      tag_555\n      jumpi\n        /* \"--CODEGEN--\":24355:24356   */\n      0x00\n        /* \"--CODEGEN--\":24352:24353   */\n      dup1\n        /* \"--CODEGEN--\":24345:24357   */\n      revert\n        /* \"--CODEGEN--\":24299:24301   */\n    tag_555:\n        /* \"--CODEGEN--\":24293:24364   */\n      pop\n      jump\n        /* \"--CODEGEN--\":24371:24488   */\n    tag_344:\n        /* \"--CODEGEN--\":24440:24464   */\n      tag_557\n        /* \"--CODEGEN--\":24458:24463   */\n      dup2\n        /* \"--CODEGEN--\":24440:24464   */\n      jump(tag_459)\n    tag_557:\n        /* \"--CODEGEN--\":24433:24438   */\n      dup2\n        /* \"--CODEGEN--\":24430:24465   */\n      eq\n        /* \"--CODEGEN--\":24420:24422   */\n      tag_558\n      jumpi\n        /* \"--CODEGEN--\":24479:24480   */\n      0x00\n        /* \"--CODEGEN--\":24476:24477   */\n      dup1\n        /* \"--CODEGEN--\":24469:24481   */\n      revert\n        /* \"--CODEGEN--\":24420:24422   */\n    tag_558:\n        /* \"--CODEGEN--\":24414:24488   */\n      pop\n      jump\n\n    auxdata: 0xa26469706673582212208ca6504105ee5aed2359beac12794dcc8f234d9a74b446b64567e17107f7e70864736f6c63430006010033\n}\n",
				"bytecode": {
					"linkReferences": {},
					"object": "60806040523480156200001157600080fd5b506040516200393a3803806200393a8339818101604052620000379190810190620000f6565b80600160006101000a81548173ffffffffffffffffffffffffffffffffffffffff021916908373ffffffffffffffffffffffffffffffffffffffff160217905550336000806101000a81548173ffffffffffffffffffffffffffffffffffffffff021916908373ffffffffffffffffffffffffffffffffffffffff160217905550600060088190555060006009819055506000600a819055506000600b819055505062000170565b600081519050620000f08162000156565b92915050565b6000602082840312156200010957600080fd5b60006200011984828501620000df565b91505092915050565b60006200012f8262000136565b9050919050565b600073ffffffffffffffffffffffffffffffffffffffff82169050919050565b620001618162000122565b81146200016d57600080fd5b50565b6137ba80620001806000396000f3fe608060405234801561001057600080fd5b50600436106100f55760003560e01c80636573f803116100975780637eae205d116100665780637eae205d146102935780638d129178146102c8578063c685e978146102f8578063e23cc50d14610314576100f5565b80636573f803146101f95780636b6df2be146102155780636f2962b71461024557806378a3126214610263576100f5565b806337683976116100d357806337683976146101505780634accf9a71461016e57806356faba43146101a55780635e00c8a2146101dd576100f5565b806305d728f5146100fa578063161a9fb51461011657806327edee9e14610134575b600080fd5b610114600480360361010f9190810190612ca0565b610332565b005b61011e610491565b60405161012b9190613508565b60405180910390f35b61014e60048036036101499190810190612cf2565b610497565b005b61015861082e565b6040516101659190613508565b60405180910390f35b61018860048036036101839190810190612ca0565b610834565b60405161019c989796959493929190613523565b60405180910390f35b6101bf60048036036101ba9190810190612ca0565b610b74565b6040516101d49998979695949392919061337f565b60405180910390f35b6101f760048036036101f29190810190612bf3565b611082565b005b610213600480360361020e9190810190612c34565b6110a1565b005b61022f600480360361022a9190810190612ca0565b611152565b60405161023c91906134e6565b60405180910390f35b61024d611a70565b60405161025a9190613508565b60405180910390f35b61027d60048036036102789190810190612ba1565b611a76565b60405161028a9190613508565b60405180910390f35b6102ad60048036036102a89190810190612ca0565b611a8e565b6040516102bf969594939291906132fb565b60405180910390f35b6102e260048036036102dd9190810190612ca0565b611dc2565b6040516102ef91906134c4565b60405180910390f35b610312600480360361030d9190810190612bf3565b61233a565b005b61031c612359565b6040516103299190613508565b60405180910390f35b6000600360003373ffffffffffffffffffffffffffffffffffffffff1673ffffffffffffffffffffffffffffffffffffffff16815260200190815260200160002054905060008114156103ba576040517f08c379a00000000000000000000000000000000000000000000000000000000081526004016103b190613444565b60405180910390fd5b6103c2612890565b82816000018181525050600260008381526020019081526020016000206000018054600181600116156101000203166002900480601f0160208091040260200160405190810160405280929190818152602001828054600181600116156101000203166002900480156104765780601f1061044b57610100808354040283529160200191610476565b820191906000526020600020905b81548152906001019060200180831161045957829003601f168201915b5050505050816020018190525061048c8161235f565b505050565b60095481565b6000600660003373ffffffffffffffffffffffffffffffffffffffff1673ffffffffffffffffffffffffffffffffffffffff168152602001908152602001600020549050600081141561051f576040517f08c379a000000000000000000000000000000000000000000000000000000000815260040161051690613484565b60405180910390fd5b86600460008a8152602001908152602001600020600a0190805190602001906105499291906128d5565b5085600460008a8152602001908152602001600020600b0190805190602001906105749291906128d5565b5084600460008a8152602001908152602001600020600c01908051906020019061059f9291906128d5565b5083600460008a8152602001908152602001600020600d018190555082600460008a8152602001908152602001600020600e018190555081600460008a8152602001908152602001600020600f0190805190602001906106009291906128d5565b50600f600160009054906101000a900473ffffffffffffffffffffffffffffffffffffffff1673ffffffffffffffffffffffffffffffffffffffff1663dd62ed3e6000809054906101000a900473ffffffffffffffffffffffffffffffffffffffff16306040518363ffffffff1660e01b815260040161068192919061329b565b60206040518083038186803b15801561069957600080fd5b505afa1580156106ad573d6000803e3d6000fd5b505050506040513d601f19601f820116820180604052506106d19190810190612cc9565b1015610712576040517f08c379a000000000000000000000000000000000000000000000000000000000815260040161070990613464565b60405180910390fd5b600160009054906101000a900473ffffffffffffffffffffffffffffffffffffffff1673ffffffffffffffffffffffffffffffffffffffff166323b872dd6000809054906101000a900473ffffffffffffffffffffffffffffffffffffffff1633600f6040518463ffffffff1660e01b8152600401610793939291906132c4565b602060405180830381600087803b1580156107ad57600080fd5b505af11580156107c1573d6000803e3d6000fd5b505050506040513d601f19601f820116820180604052506107e59190810190612bca565b610824576040517f08c379a000000000000000000000000000000000000000000000000000000000815260040161081b906134a4565b60405180910390fd5b5050505050505050565b60085481565b6007602052806000526040600020600091509050806000015490806001018054600181600116156101000203166002900480601f0160208091040260200160405190810160405280929190818152602001828054600181600116156101000203166002900480156108e65780601f106108bb576101008083540402835291602001916108e6565b820191906000526020600020905b8154815290600101906020018083116108c957829003601f168201915b505050505090806002015490806003018054600181600116156101000203166002900480601f01602080910402602001604051908101604052809291908181526020018280546001816001161561010002031660029004801561098a5780601f1061095f5761010080835404028352916020019161098a565b820191906000526020600020905b81548152906001019060200180831161096d57829003601f168201915b505050505090806004018054600181600116156101000203166002900480601f016020809104026020016040519081016040528092919081815260200182805460018160011615610100020316600290048015610a285780601f106109fd57610100808354040283529160200191610a28565b820191906000526020600020905b815481529060010190602001808311610a0b57829003601f168201915b505050505090806005018054600181600116156101000203166002900480601f016020809104026020016040519081016040528092919081815260200182805460018160011615610100020316600290048015610ac65780601f10610a9b57610100808354040283529160200191610ac6565b820191906000526020600020905b815481529060010190602001808311610aa957829003601f168201915b505050505090806006018054600181600116156101000203166002900480601f016020809104026020016040519081016040528092919081815260200182805460018160011615610100020316600290048015610b645780601f10610b3957610100808354040283529160200191610b64565b820191906000526020600020905b815481529060010190602001808311610b4757829003601f168201915b5050505050908060070154905088565b6005602052806000526040600020600091509050806000018054600181600116156101000203166002900480601f016020809104026020016040519081016040528092919081815260200182805460018160011615610100020316600290048015610c205780601f10610bf557610100808354040283529160200191610c20565b820191906000526020600020905b815481529060010190602001808311610c0357829003601f168201915b505050505090806001018054600181600116156101000203166002900480601f016020809104026020016040519081016040528092919081815260200182805460018160011615610100020316600290048015610cbe5780601f10610c9357610100808354040283529160200191610cbe565b820191906000526020600020905b815481529060010190602001808311610ca157829003601f168201915b505050505090806002015490806003018054600181600116156101000203166002900480601f016020809104026020016040519081016040528092919081815260200182805460018160011615610100020316600290048015610d625780601f10610d3757610100808354040283529160200191610d62565b820191906000526020600020905b815481529060010190602001808311610d4557829003601f168201915b505050505090806004018054600181600116156101000203166002900480601f016020809104026020016040519081016040528092919081815260200182805460018160011615610100020316600290048015610e005780601f10610dd557610100808354040283529160200191610e00565b820191906000526020600020905b815481529060010190602001808311610de357829003601f168201915b505050505090806005018054600181600116156101000203166002900480601f016020809104026020016040519081016040528092919081815260200182805460018160011615610100020316600290048015610e9e5780601f10610e7357610100808354040283529160200191610e9e565b820191906000526020600020905b815481529060010190602001808311610e8157829003601f168201915b505050505090806006018054600181600116156101000203166002900480601f016020809104026020016040519081016040528092919081815260200182805460018160011615610100020316600290048015610f3c5780601f10610f1157610100808354040283529160200191610f3c565b820191906000526020600020905b815481529060010190602001808311610f1f57829003601f168201915b505050505090806007018054600181600116156101000203166002900480601f016020809104026020016040519081016040528092919081815260200182805460018160011615610100020316600290048015610fda5780601f10610faf57610100808354040283529160200191610fda565b820191906000526020600020905b815481529060010190602001808311610fbd57829003601f168201915b505050505090806008018054600181600116156101000203166002900480601f0160208091040260200160405190810160405280929190818152602001828054600181600116156101000203166002900480156110785780601f1061104d57610100808354040283529160200191611078565b820191906000526020600020905b81548152906001019060200180831161105b57829003601f168201915b5050505050905089565b61108a612955565b81816000018190525061109d813361243b565b5050565b6000600360003373ffffffffffffffffffffffffffffffffffffffff1673ffffffffffffffffffffffffffffffffffffffff1681526020019081526020016000205490506000811415611129576040517f08c379a000000000000000000000000000000000000000000000000000000000815260040161112090613444565b60405180910390fd5b61113161298b565b83816000018190525082816020018190525061114c8161254a565b50505050565b61115a61298b565b6004600083815260200190815260200160002060405180610200016040529081600082018054600181600116156101000203166002900480601f0160208091040260200160405190810160405280929190818152602001828054600181600116156101000203166002900480156112125780601f106111e757610100808354040283529160200191611212565b820191906000526020600020905b8154815290600101906020018083116111f557829003601f168201915b50505050508152602001600182018054600181600116156101000203166002900480601f0160208091040260200160405190810160405280929190818152602001828054600181600116156101000203166002900480156112b45780601f10611289576101008083540402835291602001916112b4565b820191906000526020600020905b81548152906001019060200180831161129757829003601f168201915b50505050508152602001600282018054600181600116156101000203166002900480601f0160208091040260200160405190810160405280929190818152602001828054600181600116156101000203166002900480156113565780601f1061132b57610100808354040283529160200191611356565b820191906000526020600020905b81548152906001019060200180831161133957829003601f168201915b50505050508152602001600382018054600181600116156101000203166002900480601f0160208091040260200160405190810160405280929190818152602001828054600181600116156101000203166002900480156113f85780601f106113cd576101008083540402835291602001916113f8565b820191906000526020600020905b8154815290600101906020018083116113db57829003601f168201915b50505050508152602001600482018054600181600116156101000203166002900480601f01602080910402602001604051908101604052809291908181526020018280546001816001161561010002031660029004801561149a5780601f1061146f5761010080835404028352916020019161149a565b820191906000526020600020905b81548152906001019060200180831161147d57829003601f168201915b50505050508152602001600582018054600181600116156101000203166002900480601f01602080910402602001604051908101604052809291908181526020018280546001816001161561010002031660029004801561153c5780601f106115115761010080835404028352916020019161153c565b820191906000526020600020905b81548152906001019060200180831161151f57829003601f168201915b50505050508152602001600682018054600181600116156101000203166002900480601f0160208091040260200160405190810160405280929190818152602001828054600181600116156101000203166002900480156115de5780601f106115b3576101008083540402835291602001916115de565b820191906000526020600020905b8154815290600101906020018083116115c157829003601f168201915b50505050508152602001600782018054600181600116156101000203166002900480601f0160208091040260200160405190810160405280929190818152602001828054600181600116156101000203166002900480156116805780601f1061165557610100808354040283529160200191611680565b820191906000526020600020905b81548152906001019060200180831161166357829003601f168201915b50505050508152602001600882018054600181600116156101000203166002900480601f0160208091040260200160405190810160405280929190818152602001828054600181600116156101000203166002900480156117225780601f106116f757610100808354040283529160200191611722565b820191906000526020600020905b81548152906001019060200180831161170557829003601f168201915b50505050508152602001600982018054600181600116156101000203166002900480601f0160208091040260200160405190810160405280929190818152602001828054600181600116156101000203166002900480156117c45780601f10611799576101008083540402835291602001916117c4565b820191906000526020600020905b8154815290600101906020018083116117a757829003601f168201915b50505050508152602001600a82018054600181600116156101000203166002900480601f0160208091040260200160405190810160405280929190818152602001828054600181600116156101000203166002900480156118665780601f1061183b57610100808354040283529160200191611866565b820191906000526020600020905b81548152906001019060200180831161184957829003601f168201915b50505050508152602001600b82018054600181600116156101000203166002900480601f0160208091040260200160405190810160405280929190818152602001828054600181600116156101000203166002900480156119085780601f106118dd57610100808354040283529160200191611908565b820191906000526020600020905b8154815290600101906020018083116118eb57829003601f168201915b50505050508152602001600c82018054600181600116156101000203166002900480601f0160208091040260200160405190810160405280929190818152602001828054600181600116156101000203166002900480156119aa5780601f1061197f576101008083540402835291602001916119aa565b820191906000526020600020905b81548152906001019060200180831161198d57829003601f168201915b50505050508152602001600d8201548152602001600e8201548152602001600f82018054600181600116156101000203166002900480601f016020809104026020016040519081016040528092919081815260200182805460018160011615610100020316600290048015611a605780601f10611a3557610100808354040283529160200191611a60565b820191906000526020600020905b815481529060010190602001808311611a4357829003601f168201915b5050505050815250509050919050565b600b5481565b60066020528060005260406000206000915090505481565b6002602052806000526040600020600091509050806000018054600181600116156101000203166002900480601f016020809104026020016040519081016040528092919081815260200182805460018160011615610100020316600290048015611b3a5780601f10611b0f57610100808354040283529160200191611b3a565b820191906000526020600020905b815481529060010190602001808311611b1d57829003601f168201915b505050505090806001018054600181600116156101000203166002900480601f016020809104026020016040519081016040528092919081815260200182805460018160011615610100020316600290048015611bd85780601f10611bad57610100808354040283529160200191611bd8565b820191906000526020600020905b815481529060010190602001808311611bbb57829003601f168201915b505050505090806002018054600181600116156101000203166002900480601f016020809104026020016040519081016040528092919081815260200182805460018160011615610100020316600290048015611c765780601f10611c4b57610100808354040283529160200191611c76565b820191906000526020600020905b815481529060010190602001808311611c5957829003601f168201915b505050505090806003018054600181600116156101000203166002900480601f016020809104026020016040519081016040528092919081815260200182805460018160011615610100020316600290048015611d145780601f10611ce957610100808354040283529160200191611d14565b820191906000526020600020905b815481529060010190602001808311611cf757829003601f168201915b505050505090806004018054600181600116156101000203166002900480601f016020809104026020016040519081016040528092919081815260200182805460018160011615610100020316600290048015611db25780601f10611d8757610100808354040283529160200191611db2565b820191906000526020600020905b815481529060010190602001808311611d9557829003601f168201915b5050505050908060050154905086565b611dca612890565b600a600160009054906101000a900473ffffffffffffffffffffffffffffffffffffffff1673ffffffffffffffffffffffffffffffffffffffff1663dd62ed3e33306040518363ffffffff1660e01b8152600401611e2992919061323b565b60206040518083038186803b158015611e4157600080fd5b505afa158015611e55573d6000803e3d6000fd5b505050506040513d601f19601f82011682018060405250611e799190810190612cc9565b1015611eba576040517f08c379a0000000000000000000000000000000000000000000000000000000008152600401611eb190613464565b60405180910390fd5b600160009054906101000a900473ffffffffffffffffffffffffffffffffffffffff1673ffffffffffffffffffffffffffffffffffffffff166323b872dd336000809054906101000a900473ffffffffffffffffffffffffffffffffffffffff16600a6040518463ffffffff1660e01b8152600401611f3b93929190613264565b602060405180830381600087803b158015611f5557600080fd5b505af1158015611f69573d6000803e3d6000fd5b505050506040513d601f19601f82011682018060405250611f8d9190810190612bca565b611fcc576040517f08c379a0000000000000000000000000000000000000000000000000000000008152600401611fc3906134a4565b60405180910390fd5b600760008381526020019081526020016000206040518061010001604052908160008201548152602001600182018054600181600116156101000203166002900480601f01602080910402602001604051908101604052809291908181526020018280546001816001161561010002031660029004801561208e5780601f106120635761010080835404028352916020019161208e565b820191906000526020600020905b81548152906001019060200180831161207157829003601f168201915b5050505050815260200160028201548152602001600382018054600181600116156101000203166002900480601f01602080910402602001604051908101604052809291908181526020018280546001816001161561010002031660029004801561213a5780601f1061210f5761010080835404028352916020019161213a565b820191906000526020600020905b81548152906001019060200180831161211d57829003601f168201915b50505050508152602001600482018054600181600116156101000203166002900480601f0160208091040260200160405190810160405280929190818152602001828054600181600116156101000203166002900480156121dc5780601f106121b1576101008083540402835291602001916121dc565b820191906000526020600020905b8154815290600101906020018083116121bf57829003601f168201915b50505050508152602001600582018054600181600116156101000203166002900480601f01602080910402602001604051908101604052809291908181526020018280546001816001161561010002031660029004801561227e5780601f106122535761010080835404028352916020019161227e565b820191906000526020600020905b81548152906001019060200180831161226157829003601f168201915b50505050508152602001600682018054600181600116156101000203166002900480601f0160208091040260200160405190810160405280929190818152602001828054600181600116156101000203166002900480156123205780601f106122f557610100808354040283529160200191612320565b820191906000526020600020905b81548152906001019060200180831161230357829003601f168201915b505050505081526020016007820154815250509050919050565b612342612a08565b8181600001819052506123558133612729565b5050565b600a5481565b6001600b600082825401925050819055508060076000600b5481526020019081526020016000206000820151816000015560208201518160010190805190602001906123ac929190612a54565b506040820151816002015560608201518160030190805190602001906123d3929190612a54565b5060808201518160040190805190602001906123f0929190612a54565b5060a082015181600501908051906020019061240d929190612a54565b5060c082015181600601908051906020019061242a929190612a54565b5060e0820151816007015590505050565b600160086000828254019250508190555081600260006008548152602001908152602001600020600082015181600001908051906020019061247e929190612a54565b50602082015181600101908051906020019061249b929190612a54565b5060408201518160020190805190602001906124b8929190612a54565b5060608201518160030190805190602001906124d5929190612a54565b5060808201518160040190805190602001906124f2929190612a54565b5060a08201518160050155905050600854600360008373ffffffffffffffffffffffffffffffffffffffff1673ffffffffffffffffffffffffffffffffffffffff168152602001908152602001600020819055505050565b600160096000828254019250508190555080600460006009548152602001908152602001600020600082015181600001908051906020019061258d929190612a54565b5060208201518160010190805190602001906125aa929190612a54565b5060408201518160020190805190602001906125c7929190612a54565b5060608201518160030190805190602001906125e4929190612a54565b506080820151816004019080519060200190612601929190612a54565b5060a082015181600501908051906020019061261e929190612a54565b5060c082015181600601908051906020019061263b929190612a54565b5060e0820151816007019080519060200190612658929190612a54565b50610100820151816008019080519060200190612676929190612a54565b50610120820151816009019080519060200190612694929190612a54565b5061014082015181600a0190805190602001906126b2929190612a54565b5061016082015181600b0190805190602001906126d0929190612a54565b5061018082015181600c0190805190602001906126ee929190612a54565b506101a082015181600d01556101c082015181600e01556101e082015181600f019080519060200190612722929190612a54565b5090505050565b6001600a600082825401925050819055508160056000600a548152602001908152602001600020600082015181600001908051906020019061276c929190612a54565b506020820151816001019080519060200190612789929190612a54565b506040820151816002015560608201518160030190805190602001906127b0929190612a54565b5060808201518160040190805190602001906127cd929190612a54565b5060a08201518160050190805190602001906127ea929190612a54565b5060c0820151816006019080519060200190612807929190612a54565b5060e0820151816007019080519060200190612824929190612a54565b50610100820151816008019080519060200190612842929190612a54565b50905050600a54600660008373ffffffffffffffffffffffffffffffffffffffff1673ffffffffffffffffffffffffffffffffffffffff168152602001908152602001600020819055505050565b60405180610100016040528060008152602001606081526020016000815260200160608152602001606081526020016060815260200160608152602001600081525090565b828054600181600116156101000203166002900490600052602060002090601f016020900481019282601f1061291657805160ff1916838001178555612944565b82800160010185558215612944579182015b82811115612943578251825591602001919060010190612928565b5b5090506129519190612ad4565b5090565b6040518060c001604052806060815260200160608152602001606081526020016060815260200160608152602001600081525090565b604051806102000160405280606081526020016060815260200160608152602001606081526020016060815260200160608152602001606081526020016060815260200160608152602001606081526020016060815260200160608152602001606081526020016000815260200160008152602001606081525090565b6040518061012001604052806060815260200160608152602001600081526020016060815260200160608152602001606081526020016060815260200160608152602001606081525090565b828054600181600116156101000203166002900490600052602060002090601f016020900481019282601f10612a9557805160ff1916838001178555612ac3565b82800160010185558215612ac3579182015b82811115612ac2578251825591602001919060010190612aa7565b5b509050612ad09190612ad4565b5090565b612af691905b80821115612af2576000816000905550600101612ada565b5090565b90565b600081359050612b088161373f565b92915050565b600081519050612b1d81613756565b92915050565b600082601f830112612b3457600080fd5b8135612b47612b42826135f1565b6135c4565b91508082526020830160208301858383011115612b6357600080fd5b612b6e8382846136ec565b50505092915050565b600081359050612b868161376d565b92915050565b600081519050612b9b8161376d565b92915050565b600060208284031215612bb357600080fd5b6000612bc184828501612af9565b91505092915050565b600060208284031215612bdc57600080fd5b6000612bea84828501612b0e565b91505092915050565b600060208284031215612c0557600080fd5b600082013567ffffffffffffffff811115612c1f57600080fd5b612c2b84828501612b23565b91505092915050565b60008060408385031215612c4757600080fd5b600083013567ffffffffffffffff811115612c6157600080fd5b612c6d85828601612b23565b925050602083013567ffffffffffffffff811115612c8a57600080fd5b612c9685828601612b23565b9150509250929050565b600060208284031215612cb257600080fd5b6000612cc084828501612b77565b91505092915050565b600060208284031215612cdb57600080fd5b6000612ce984828501612b8c565b91505092915050565b600080600080600080600060e0888a031215612d0d57600080fd5b6000612d1b8a828b01612b77565b975050602088013567ffffffffffffffff811115612d3857600080fd5b612d448a828b01612b23565b965050604088013567ffffffffffffffff811115612d6157600080fd5b612d6d8a828b01612b23565b955050606088013567ffffffffffffffff811115612d8a57600080fd5b612d968a828b01612b23565b9450506080612da78a828b01612b77565b93505060a0612db88a828b01612b77565b92505060c088013567ffffffffffffffff811115612dd557600080fd5b612de18a828b01612b23565b91505092959891949750929550565b612df981613692565b82525050565b612e088161364a565b82525050565b612e17816136a4565b82525050565b612e26816136b6565b82525050565b6000612e378261361d565b612e418185613628565b9350612e518185602086016136fb565b612e5a8161372e565b840191505092915050565b6000612e708261361d565b612e7a8185613639565b9350612e8a8185602086016136fb565b612e938161372e565b840191505092915050565b6000612eab601083613639565b91507f6e6f7420657461626c6973656d656e74000000000000000000000000000000006000830152602082019050919050565b6000612eeb601183613639565b91507f746f6b656e206e6f7420616c6c6f7765640000000000000000000000000000006000830152602082019050919050565b6000612f2b600e83613639565b91507f6e6f20456e7472657072697365730000000000000000000000000000000000006000830152602082019050919050565b6000612f6b600e83613639565b91507f7472616e7366657274206661696c0000000000000000000000000000000000006000830152602082019050919050565b600061010083016000830151612fb7600086018261321d565b5060208301518482036020860152612fcf8282612e2c565b9150506040830151612fe4604086018261321d565b5060608301518482036060860152612ffc8282612e2c565b915050608083015184820360808601526130168282612e2c565b91505060a083015184820360a08601526130308282612e2c565b91505060c083015184820360c086015261304a8282612e2c565b91505060e083015161305f60e086018261321d565b508091505092915050565b60006102008301600083015184820360008601526130888282612e2c565b915050602083015184820360208601526130a28282612e2c565b915050604083015184820360408601526130bc8282612e2c565b915050606083015184820360608601526130d68282612e2c565b915050608083015184820360808601526130f08282612e2c565b91505060a083015184820360a086015261310a8282612e2c565b91505060c083015184820360c08601526131248282612e2c565b91505060e083015184820360e086015261313e8282612e2c565b91505061010083015184820361010086015261315a8282612e2c565b9150506101208301518482036101208601526131768282612e2c565b9150506101408301518482036101408601526131928282612e2c565b9150506101608301518482036101608601526131ae8282612e2c565b9150506101808301518482036101808601526131ca8282612e2c565b9150506101a08301516131e16101a086018261321d565b506101c08301516131f66101c086018261321d565b506101e08301518482036101e08601526132108282612e2c565b9150508091505092915050565b61322681613688565b82525050565b61323581613688565b82525050565b60006040820190506132506000830185612df0565b61325d6020830184612dff565b9392505050565b60006060820190506132796000830186612df0565b6132866020830185612dff565b6132936040830184612e0e565b949350505050565b60006040820190506132b06000830185612dff565b6132bd6020830184612dff565b9392505050565b60006060820190506132d96000830186612dff565b6132e66020830185612df0565b6132f36040830184612e1d565b949350505050565b600060c08201905081810360008301526133158189612e65565b905081810360208301526133298188612e65565b9050818103604083015261333d8187612e65565b905081810360608301526133518186612e65565b905081810360808301526133658185612e65565b905061337460a083018461322c565b979650505050505050565b600061012082019050818103600083015261339a818c612e65565b905081810360208301526133ae818b612e65565b90506133bd604083018a61322c565b81810360608301526133cf8189612e65565b905081810360808301526133e38188612e65565b905081810360a08301526133f78187612e65565b905081810360c083015261340b8186612e65565b905081810360e083015261341f8185612e65565b90508181036101008301526134348184612e65565b90509a9950505050505050505050565b6000602082019050818103600083015261345d81612e9e565b9050919050565b6000602082019050818103600083015261347d81612ede565b9050919050565b6000602082019050818103600083015261349d81612f1e565b9050919050565b600060208201905081810360008301526134bd81612f5e565b9050919050565b600060208201905081810360008301526134de8184612f9e565b905092915050565b60006020820190508181036000830152613500818461306a565b905092915050565b600060208201905061351d600083018461322c565b92915050565b600061010082019050613539600083018b61322c565b818103602083015261354b818a612e65565b905061355a604083018961322c565b818103606083015261356c8188612e65565b905081810360808301526135808187612e65565b905081810360a08301526135948186612e65565b905081810360c08301526135a88185612e65565b90506135b760e083018461322c565b9998505050505050505050565b6000604051905081810181811067ffffffffffffffff821117156135e757600080fd5b8060405250919050565b600067ffffffffffffffff82111561360857600080fd5b601f19601f8301169050602081019050919050565b600081519050919050565b600082825260208201905092915050565b600082825260208201905092915050565b600061365582613668565b9050919050565b60008115159050919050565b600073ffffffffffffffffffffffffffffffffffffffff82169050919050565b6000819050919050565b600061369d826136c8565b9050919050565b60006136af82613688565b9050919050565b60006136c182613688565b9050919050565b60006136d3826136da565b9050919050565b60006136e582613668565b9050919050565b82818337600083830152505050565b60005b838110156137195780820151818401526020810190506136fe565b83811115613728576000848401525b50505050565b6000601f19601f8301169050919050565b6137488161364a565b811461375357600080fd5b50565b61375f8161365c565b811461376a57600080fd5b50565b61377681613688565b811461378157600080fd5b5056fea26469706673582212208ca6504105ee5aed2359beac12794dcc8f234d9a74b446b64567e17107f7e70864736f6c63430006010033",
					"opcodes": "PUSH1 0x80 PUSH1 0x40 MSTORE CALLVALUE DUP1 ISZERO PUSH3 0x11 JUMPI PUSH1 0x0 DUP1 REVERT JUMPDEST POP PUSH1 0x40 MLOAD PUSH3 0x393A CODESIZE SUB DUP1 PUSH3 0x393A DUP4 CODECOPY DUP2 DUP2 ADD PUSH1 0x40 MSTORE PUSH3 0x37 SWAP2 SWAP1 DUP2 ADD SWAP1 PUSH3 0xF6 JUMP JUMPDEST DUP1 PUSH1 0x1 PUSH1 0x0 PUSH2 0x100 EXP DUP2 SLOAD DUP2 PUSH20 0xFFFFFFFFFFFFFFFFFFFFFFFFFFFFFFFFFFFFFFFF MUL NOT AND SWAP1 DUP4 PUSH20 0xFFFFFFFFFFFFFFFFFFFFFFFFFFFFFFFFFFFFFFFF AND MUL OR SWAP1 SSTORE POP CALLER PUSH1 0x0 DUP1 PUSH2 0x100 EXP DUP2 SLOAD DUP2 PUSH20 0xFFFFFFFFFFFFFFFFFFFFFFFFFFFFFFFFFFFFFFFF MUL NOT AND SWAP1 DUP4 PUSH20 0xFFFFFFFFFFFFFFFFFFFFFFFFFFFFFFFFFFFFFFFF AND MUL OR SWAP1 SSTORE POP PUSH1 0x0 PUSH1 0x8 DUP2 SWAP1 SSTORE POP PUSH1 0x0 PUSH1 0x9 DUP2 SWAP1 SSTORE POP PUSH1 0x0 PUSH1 0xA DUP2 SWAP1 SSTORE POP PUSH1 0x0 PUSH1 0xB DUP2 SWAP1 SSTORE POP POP PUSH3 0x170 JUMP JUMPDEST PUSH1 0x0 DUP2 MLOAD SWAP1 POP PUSH3 0xF0 DUP2 PUSH3 0x156 JUMP JUMPDEST SWAP3 SWAP2 POP POP JUMP JUMPDEST PUSH1 0x0 PUSH1 0x20 DUP3 DUP5 SUB SLT ISZERO PUSH3 0x109 JUMPI PUSH1 0x0 DUP1 REVERT JUMPDEST PUSH1 0x0 PUSH3 0x119 DUP5 DUP3 DUP6 ADD PUSH3 0xDF JUMP JUMPDEST SWAP2 POP POP SWAP3 SWAP2 POP POP JUMP JUMPDEST PUSH1 0x0 PUSH3 0x12F DUP3 PUSH3 0x136 JUMP JUMPDEST SWAP1 POP SWAP2 SWAP1 POP JUMP JUMPDEST PUSH1 0x0 PUSH20 0xFFFFFFFFFFFFFFFFFFFFFFFFFFFFFFFFFFFFFFFF DUP3 AND SWAP1 POP SWAP2 SWAP1 POP JUMP JUMPDEST PUSH3 0x161 DUP2 PUSH3 0x122 JUMP JUMPDEST DUP2 EQ PUSH3 0x16D JUMPI PUSH1 0x0 DUP1 REVERT JUMPDEST POP JUMP JUMPDEST PUSH2 0x37BA DUP1 PUSH3 0x180 PUSH1 0x0 CODECOPY PUSH1 0x0 RETURN INVALID PUSH1 0x80 PUSH1 0x40 MSTORE CALLVALUE DUP1 ISZERO PUSH2 0x10 JUMPI PUSH1 0x0 DUP1 REVERT JUMPDEST POP PUSH1 0x4 CALLDATASIZE LT PUSH2 0xF5 JUMPI PUSH1 0x0 CALLDATALOAD PUSH1 0xE0 SHR DUP1 PUSH4 0x6573F803 GT PUSH2 0x97 JUMPI DUP1 PUSH4 0x7EAE205D GT PUSH2 0x66 JUMPI DUP1 PUSH4 0x7EAE205D EQ PUSH2 0x293 JUMPI DUP1 PUSH4 0x8D129178 EQ PUSH2 0x2C8 JUMPI DUP1 PUSH4 0xC685E978 EQ PUSH2 0x2F8 JUMPI DUP1 PUSH4 0xE23CC50D EQ PUSH2 0x314 JUMPI PUSH2 0xF5 JUMP JUMPDEST DUP1 PUSH4 0x6573F803 EQ PUSH2 0x1F9 JUMPI DUP1 PUSH4 0x6B6DF2BE EQ PUSH2 0x215 JUMPI DUP1 PUSH4 0x6F2962B7 EQ PUSH2 0x245 JUMPI DUP1 PUSH4 0x78A31262 EQ PUSH2 0x263 JUMPI PUSH2 0xF5 JUMP JUMPDEST DUP1 PUSH4 0x37683976 GT PUSH2 0xD3 JUMPI DUP1 PUSH4 0x37683976 EQ PUSH2 0x150 JUMPI DUP1 PUSH4 0x4ACCF9A7 EQ PUSH2 0x16E JUMPI DUP1 PUSH4 0x56FABA43 EQ PUSH2 0x1A5 JUMPI DUP1 PUSH4 0x5E00C8A2 EQ PUSH2 0x1DD JUMPI PUSH2 0xF5 JUMP JUMPDEST DUP1 PUSH4 0x5D728F5 EQ PUSH2 0xFA JUMPI DUP1 PUSH4 0x161A9FB5 EQ PUSH2 0x116 JUMPI DUP1 PUSH4 0x27EDEE9E EQ PUSH2 0x134 JUMPI JUMPDEST PUSH1 0x0 DUP1 REVERT JUMPDEST PUSH2 0x114 PUSH1 0x4 DUP1 CALLDATASIZE SUB PUSH2 0x10F SWAP2 SWAP1 DUP2 ADD SWAP1 PUSH2 0x2CA0 JUMP JUMPDEST PUSH2 0x332 JUMP JUMPDEST STOP JUMPDEST PUSH2 0x11E PUSH2 0x491 JUMP JUMPDEST PUSH1 0x40 MLOAD PUSH2 0x12B SWAP2 SWAP1 PUSH2 0x3508 JUMP JUMPDEST PUSH1 0x40 MLOAD DUP1 SWAP2 SUB SWAP1 RETURN JUMPDEST PUSH2 0x14E PUSH1 0x4 DUP1 CALLDATASIZE SUB PUSH2 0x149 SWAP2 SWAP1 DUP2 ADD SWAP1 PUSH2 0x2CF2 JUMP JUMPDEST PUSH2 0x497 JUMP JUMPDEST STOP JUMPDEST PUSH2 0x158 PUSH2 0x82E JUMP JUMPDEST PUSH1 0x40 MLOAD PUSH2 0x165 SWAP2 SWAP1 PUSH2 0x3508 JUMP JUMPDEST PUSH1 0x40 MLOAD DUP1 SWAP2 SUB SWAP1 RETURN JUMPDEST PUSH2 0x188 PUSH1 0x4 DUP1 CALLDATASIZE SUB PUSH2 0x183 SWAP2 SWAP1 DUP2 ADD SWAP1 PUSH2 0x2CA0 JUMP JUMPDEST PUSH2 0x834 JUMP JUMPDEST PUSH1 0x40 MLOAD PUSH2 0x19C SWAP9 SWAP8 SWAP7 SWAP6 SWAP5 SWAP4 SWAP3 SWAP2 SWAP1 PUSH2 0x3523 JUMP JUMPDEST PUSH1 0x40 MLOAD DUP1 SWAP2 SUB SWAP1 RETURN JUMPDEST PUSH2 0x1BF PUSH1 0x4 DUP1 CALLDATASIZE SUB PUSH2 0x1BA SWAP2 SWAP1 DUP2 ADD SWAP1 PUSH2 0x2CA0 JUMP JUMPDEST PUSH2 0xB74 JUMP JUMPDEST PUSH1 0x40 MLOAD PUSH2 0x1D4 SWAP10 SWAP9 SWAP8 SWAP7 SWAP6 SWAP5 SWAP4 SWAP3 SWAP2 SWAP1 PUSH2 0x337F JUMP JUMPDEST PUSH1 0x40 MLOAD DUP1 SWAP2 SUB SWAP1 RETURN JUMPDEST PUSH2 0x1F7 PUSH1 0x4 DUP1 CALLDATASIZE SUB PUSH2 0x1F2 SWAP2 SWAP1 DUP2 ADD SWAP1 PUSH2 0x2BF3 JUMP JUMPDEST PUSH2 0x1082 JUMP JUMPDEST STOP JUMPDEST PUSH2 0x213 PUSH1 0x4 DUP1 CALLDATASIZE SUB PUSH2 0x20E SWAP2 SWAP1 DUP2 ADD SWAP1 PUSH2 0x2C34 JUMP JUMPDEST PUSH2 0x10A1 JUMP JUMPDEST STOP JUMPDEST PUSH2 0x22F PUSH1 0x4 DUP1 CALLDATASIZE SUB PUSH2 0x22A SWAP2 SWAP1 DUP2 ADD SWAP1 PUSH2 0x2CA0 JUMP JUMPDEST PUSH2 0x1152 JUMP JUMPDEST PUSH1 0x40 MLOAD PUSH2 0x23C SWAP2 SWAP1 PUSH2 0x34E6 JUMP JUMPDEST PUSH1 0x40 MLOAD DUP1 SWAP2 SUB SWAP1 RETURN JUMPDEST PUSH2 0x24D PUSH2 0x1A70 JUMP JUMPDEST PUSH1 0x40 MLOAD PUSH2 0x25A SWAP2 SWAP1 PUSH2 0x3508 JUMP JUMPDEST PUSH1 0x40 MLOAD DUP1 SWAP2 SUB SWAP1 RETURN JUMPDEST PUSH2 0x27D PUSH1 0x4 DUP1 CALLDATASIZE SUB PUSH2 0x278 SWAP2 SWAP1 DUP2 ADD SWAP1 PUSH2 0x2BA1 JUMP JUMPDEST PUSH2 0x1A76 JUMP JUMPDEST PUSH1 0x40 MLOAD PUSH2 0x28A SWAP2 SWAP1 PUSH2 0x3508 JUMP JUMPDEST PUSH1 0x40 MLOAD DUP1 SWAP2 SUB SWAP1 RETURN JUMPDEST PUSH2 0x2AD PUSH1 0x4 DUP1 CALLDATASIZE SUB PUSH2 0x2A8 SWAP2 SWAP1 DUP2 ADD SWAP1 PUSH2 0x2CA0 JUMP JUMPDEST PUSH2 0x1A8E JUMP JUMPDEST PUSH1 0x40 MLOAD PUSH2 0x2BF SWAP7 SWAP6 SWAP5 SWAP4 SWAP3 SWAP2 SWAP1 PUSH2 0x32FB JUMP JUMPDEST PUSH1 0x40 MLOAD DUP1 SWAP2 SUB SWAP1 RETURN JUMPDEST PUSH2 0x2E2 PUSH1 0x4 DUP1 CALLDATASIZE SUB PUSH2 0x2DD SWAP2 SWAP1 DUP2 ADD SWAP1 PUSH2 0x2CA0 JUMP JUMPDEST PUSH2 0x1DC2 JUMP JUMPDEST PUSH1 0x40 MLOAD PUSH2 0x2EF SWAP2 SWAP1 PUSH2 0x34C4 JUMP JUMPDEST PUSH1 0x40 MLOAD DUP1 SWAP2 SUB SWAP1 RETURN JUMPDEST PUSH2 0x312 PUSH1 0x4 DUP1 CALLDATASIZE SUB PUSH2 0x30D SWAP2 SWAP1 DUP2 ADD SWAP1 PUSH2 0x2BF3 JUMP JUMPDEST PUSH2 0x233A JUMP JUMPDEST STOP JUMPDEST PUSH2 0x31C PUSH2 0x2359 JUMP JUMPDEST PUSH1 0x40 MLOAD PUSH2 0x329 SWAP2 SWAP1 PUSH2 0x3508 JUMP JUMPDEST PUSH1 0x40 MLOAD DUP1 SWAP2 SUB SWAP1 RETURN JUMPDEST PUSH1 0x0 PUSH1 0x3 PUSH1 0x0 CALLER PUSH20 0xFFFFFFFFFFFFFFFFFFFFFFFFFFFFFFFFFFFFFFFF AND PUSH20 0xFFFFFFFFFFFFFFFFFFFFFFFFFFFFFFFFFFFFFFFF AND DUP2 MSTORE PUSH1 0x20 ADD SWAP1 DUP2 MSTORE PUSH1 0x20 ADD PUSH1 0x0 KECCAK256 SLOAD SWAP1 POP PUSH1 0x0 DUP2 EQ ISZERO PUSH2 0x3BA JUMPI PUSH1 0x40 MLOAD PUSH32 0x8C379A000000000000000000000000000000000000000000000000000000000 DUP2 MSTORE PUSH1 0x4 ADD PUSH2 0x3B1 SWAP1 PUSH2 0x3444 JUMP JUMPDEST PUSH1 0x40 MLOAD DUP1 SWAP2 SUB SWAP1 REVERT JUMPDEST PUSH2 0x3C2 PUSH2 0x2890 JUMP JUMPDEST DUP3 DUP2 PUSH1 0x0 ADD DUP2 DUP2 MSTORE POP POP PUSH1 0x2 PUSH1 0x0 DUP4 DUP2 MSTORE PUSH1 0x20 ADD SWAP1 DUP2 MSTORE PUSH1 0x20 ADD PUSH1 0x0 KECCAK256 PUSH1 0x0 ADD DUP1 SLOAD PUSH1 0x1 DUP2 PUSH1 0x1 AND ISZERO PUSH2 0x100 MUL SUB AND PUSH1 0x2 SWAP1 DIV DUP1 PUSH1 0x1F ADD PUSH1 0x20 DUP1 SWAP2 DIV MUL PUSH1 0x20 ADD PUSH1 0x40 MLOAD SWAP1 DUP2 ADD PUSH1 0x40 MSTORE DUP1 SWAP3 SWAP2 SWAP1 DUP2 DUP2 MSTORE PUSH1 0x20 ADD DUP3 DUP1 SLOAD PUSH1 0x1 DUP2 PUSH1 0x1 AND ISZERO PUSH2 0x100 MUL SUB AND PUSH1 0x2 SWAP1 DIV DUP1 ISZERO PUSH2 0x476 JUMPI DUP1 PUSH1 0x1F LT PUSH2 0x44B JUMPI PUSH2 0x100 DUP1 DUP4 SLOAD DIV MUL DUP4 MSTORE SWAP2 PUSH1 0x20 ADD SWAP2 PUSH2 0x476 JUMP JUMPDEST DUP3 ADD SWAP2 SWAP1 PUSH1 0x0 MSTORE PUSH1 0x20 PUSH1 0x0 KECCAK256 SWAP1 JUMPDEST DUP2 SLOAD DUP2 MSTORE SWAP1 PUSH1 0x1 ADD SWAP1 PUSH1 0x20 ADD DUP1 DUP4 GT PUSH2 0x459 JUMPI DUP3 SWAP1 SUB PUSH1 0x1F AND DUP3 ADD SWAP2 JUMPDEST POP POP POP POP POP DUP2 PUSH1 0x20 ADD DUP2 SWAP1 MSTORE POP PUSH2 0x48C DUP2 PUSH2 0x235F JUMP JUMPDEST POP POP POP JUMP JUMPDEST PUSH1 0x9 SLOAD DUP2 JUMP JUMPDEST PUSH1 0x0 PUSH1 0x6 PUSH1 0x0 CALLER PUSH20 0xFFFFFFFFFFFFFFFFFFFFFFFFFFFFFFFFFFFFFFFF AND PUSH20 0xFFFFFFFFFFFFFFFFFFFFFFFFFFFFFFFFFFFFFFFF AND DUP2 MSTORE PUSH1 0x20 ADD SWAP1 DUP2 MSTORE PUSH1 0x20 ADD PUSH1 0x0 KECCAK256 SLOAD SWAP1 POP PUSH1 0x0 DUP2 EQ ISZERO PUSH2 0x51F JUMPI PUSH1 0x40 MLOAD PUSH32 0x8C379A000000000000000000000000000000000000000000000000000000000 DUP2 MSTORE PUSH1 0x4 ADD PUSH2 0x516 SWAP1 PUSH2 0x3484 JUMP JUMPDEST PUSH1 0x40 MLOAD DUP1 SWAP2 SUB SWAP1 REVERT JUMPDEST DUP7 PUSH1 0x4 PUSH1 0x0 DUP11 DUP2 MSTORE PUSH1 0x20 ADD SWAP1 DUP2 MSTORE PUSH1 0x20 ADD PUSH1 0x0 KECCAK256 PUSH1 0xA ADD SWAP1 DUP1 MLOAD SWAP1 PUSH1 0x20 ADD SWAP1 PUSH2 0x549 SWAP3 SWAP2 SWAP1 PUSH2 0x28D5 JUMP JUMPDEST POP DUP6 PUSH1 0x4 PUSH1 0x0 DUP11 DUP2 MSTORE PUSH1 0x20 ADD SWAP1 DUP2 MSTORE PUSH1 0x20 ADD PUSH1 0x0 KECCAK256 PUSH1 0xB ADD SWAP1 DUP1 MLOAD SWAP1 PUSH1 0x20 ADD SWAP1 PUSH2 0x574 SWAP3 SWAP2 SWAP1 PUSH2 0x28D5 JUMP JUMPDEST POP DUP5 PUSH1 0x4 PUSH1 0x0 DUP11 DUP2 MSTORE PUSH1 0x20 ADD SWAP1 DUP2 MSTORE PUSH1 0x20 ADD PUSH1 0x0 KECCAK256 PUSH1 0xC ADD SWAP1 DUP1 MLOAD SWAP1 PUSH1 0x20 ADD SWAP1 PUSH2 0x59F SWAP3 SWAP2 SWAP1 PUSH2 0x28D5 JUMP JUMPDEST POP DUP4 PUSH1 0x4 PUSH1 0x0 DUP11 DUP2 MSTORE PUSH1 0x20 ADD SWAP1 DUP2 MSTORE PUSH1 0x20 ADD PUSH1 0x0 KECCAK256 PUSH1 0xD ADD DUP2 SWAP1 SSTORE POP DUP3 PUSH1 0x4 PUSH1 0x0 DUP11 DUP2 MSTORE PUSH1 0x20 ADD SWAP1 DUP2 MSTORE PUSH1 0x20 ADD PUSH1 0x0 KECCAK256 PUSH1 0xE ADD DUP2 SWAP1 SSTORE POP DUP2 PUSH1 0x4 PUSH1 0x0 DUP11 DUP2 MSTORE PUSH1 0x20 ADD SWAP1 DUP2 MSTORE PUSH1 0x20 ADD PUSH1 0x0 KECCAK256 PUSH1 0xF ADD SWAP1 DUP1 MLOAD SWAP1 PUSH1 0x20 ADD SWAP1 PUSH2 0x600 SWAP3 SWAP2 SWAP1 PUSH2 0x28D5 JUMP JUMPDEST POP PUSH1 0xF PUSH1 0x1 PUSH1 0x0 SWAP1 SLOAD SWAP1 PUSH2 0x100 EXP SWAP1 DIV PUSH20 0xFFFFFFFFFFFFFFFFFFFFFFFFFFFFFFFFFFFFFFFF AND PUSH20 0xFFFFFFFFFFFFFFFFFFFFFFFFFFFFFFFFFFFFFFFF AND PUSH4 0xDD62ED3E PUSH1 0x0 DUP1 SWAP1 SLOAD SWAP1 PUSH2 0x100 EXP SWAP1 DIV PUSH20 0xFFFFFFFFFFFFFFFFFFFFFFFFFFFFFFFFFFFFFFFF AND ADDRESS PUSH1 0x40 MLOAD DUP4 PUSH4 0xFFFFFFFF AND PUSH1 0xE0 SHL DUP2 MSTORE PUSH1 0x4 ADD PUSH2 0x681 SWAP3 SWAP2 SWAP1 PUSH2 0x329B JUMP JUMPDEST PUSH1 0x20 PUSH1 0x40 MLOAD DUP1 DUP4 SUB DUP2 DUP7 DUP1 EXTCODESIZE ISZERO DUP1 ISZERO PUSH2 0x699 JUMPI PUSH1 0x0 DUP1 REVERT JUMPDEST POP GAS STATICCALL ISZERO DUP1 ISZERO PUSH2 0x6AD JUMPI RETURNDATASIZE PUSH1 0x0 DUP1 RETURNDATACOPY RETURNDATASIZE PUSH1 0x0 REVERT JUMPDEST POP POP POP POP PUSH1 0x40 MLOAD RETURNDATASIZE PUSH1 0x1F NOT PUSH1 0x1F DUP3 ADD AND DUP3 ADD DUP1 PUSH1 0x40 MSTORE POP PUSH2 0x6D1 SWAP2 SWAP1 DUP2 ADD SWAP1 PUSH2 0x2CC9 JUMP JUMPDEST LT ISZERO PUSH2 0x712 JUMPI PUSH1 0x40 MLOAD PUSH32 0x8C379A000000000000000000000000000000000000000000000000000000000 DUP2 MSTORE PUSH1 0x4 ADD PUSH2 0x709 SWAP1 PUSH2 0x3464 JUMP JUMPDEST PUSH1 0x40 MLOAD DUP1 SWAP2 SUB SWAP1 REVERT JUMPDEST PUSH1 0x1 PUSH1 0x0 SWAP1 SLOAD SWAP1 PUSH2 0x100 EXP SWAP1 DIV PUSH20 0xFFFFFFFFFFFFFFFFFFFFFFFFFFFFFFFFFFFFFFFF AND PUSH20 0xFFFFFFFFFFFFFFFFFFFFFFFFFFFFFFFFFFFFFFFF AND PUSH4 0x23B872DD PUSH1 0x0 DUP1 SWAP1 SLOAD SWAP1 PUSH2 0x100 EXP SWAP1 DIV PUSH20 0xFFFFFFFFFFFFFFFFFFFFFFFFFFFFFFFFFFFFFFFF AND CALLER PUSH1 0xF PUSH1 0x40 MLOAD DUP5 PUSH4 0xFFFFFFFF AND PUSH1 0xE0 SHL DUP2 MSTORE PUSH1 0x4 ADD PUSH2 0x793 SWAP4 SWAP3 SWAP2 SWAP1 PUSH2 0x32C4 JUMP JUMPDEST PUSH1 0x20 PUSH1 0x40 MLOAD DUP1 DUP4 SUB DUP2 PUSH1 0x0 DUP8 DUP1 EXTCODESIZE ISZERO DUP1 ISZERO PUSH2 0x7AD JUMPI PUSH1 0x0 DUP1 REVERT JUMPDEST POP GAS CALL ISZERO DUP1 ISZERO PUSH2 0x7C1 JUMPI RETURNDATASIZE PUSH1 0x0 DUP1 RETURNDATACOPY RETURNDATASIZE PUSH1 0x0 REVERT JUMPDEST POP POP POP POP PUSH1 0x40 MLOAD RETURNDATASIZE PUSH1 0x1F NOT PUSH1 0x1F DUP3 ADD AND DUP3 ADD DUP1 PUSH1 0x40 MSTORE POP PUSH2 0x7E5 SWAP2 SWAP1 DUP2 ADD SWAP1 PUSH2 0x2BCA JUMP JUMPDEST PUSH2 0x824 JUMPI PUSH1 0x40 MLOAD PUSH32 0x8C379A000000000000000000000000000000000000000000000000000000000 DUP2 MSTORE PUSH1 0x4 ADD PUSH2 0x81B SWAP1 PUSH2 0x34A4 JUMP JUMPDEST PUSH1 0x40 MLOAD DUP1 SWAP2 SUB SWAP1 REVERT JUMPDEST POP POP POP POP POP POP POP POP JUMP JUMPDEST PUSH1 0x8 SLOAD DUP2 JUMP JUMPDEST PUSH1 0x7 PUSH1 0x20 MSTORE DUP1 PUSH1 0x0 MSTORE PUSH1 0x40 PUSH1 0x0 KECCAK256 PUSH1 0x0 SWAP2 POP SWAP1 POP DUP1 PUSH1 0x0 ADD SLOAD SWAP1 DUP1 PUSH1 0x1 ADD DUP1 SLOAD PUSH1 0x1 DUP2 PUSH1 0x1 AND ISZERO PUSH2 0x100 MUL SUB AND PUSH1 0x2 SWAP1 DIV DUP1 PUSH1 0x1F ADD PUSH1 0x20 DUP1 SWAP2 DIV MUL PUSH1 0x20 ADD PUSH1 0x40 MLOAD SWAP1 DUP2 ADD PUSH1 0x40 MSTORE DUP1 SWAP3 SWAP2 SWAP1 DUP2 DUP2 MSTORE PUSH1 0x20 ADD DUP3 DUP1 SLOAD PUSH1 0x1 DUP2 PUSH1 0x1 AND ISZERO PUSH2 0x100 MUL SUB AND PUSH1 0x2 SWAP1 DIV DUP1 ISZERO PUSH2 0x8E6 JUMPI DUP1 PUSH1 0x1F LT PUSH2 0x8BB JUMPI PUSH2 0x100 DUP1 DUP4 SLOAD DIV MUL DUP4 MSTORE SWAP2 PUSH1 0x20 ADD SWAP2 PUSH2 0x8E6 JUMP JUMPDEST DUP3 ADD SWAP2 SWAP1 PUSH1 0x0 MSTORE PUSH1 0x20 PUSH1 0x0 KECCAK256 SWAP1 JUMPDEST DUP2 SLOAD DUP2 MSTORE SWAP1 PUSH1 0x1 ADD SWAP1 PUSH1 0x20 ADD DUP1 DUP4 GT PUSH2 0x8C9 JUMPI DUP3 SWAP1 SUB PUSH1 0x1F AND DUP3 ADD SWAP2 JUMPDEST POP POP POP POP POP SWAP1 DUP1 PUSH1 0x2 ADD SLOAD SWAP1 DUP1 PUSH1 0x3 ADD DUP1 SLOAD PUSH1 0x1 DUP2 PUSH1 0x1 AND ISZERO PUSH2 0x100 MUL SUB AND PUSH1 0x2 SWAP1 DIV DUP1 PUSH1 0x1F ADD PUSH1 0x20 DUP1 SWAP2 DIV MUL PUSH1 0x20 ADD PUSH1 0x40 MLOAD SWAP1 DUP2 ADD PUSH1 0x40 MSTORE DUP1 SWAP3 SWAP2 SWAP1 DUP2 DUP2 MSTORE PUSH1 0x20 ADD DUP3 DUP1 SLOAD PUSH1 0x1 DUP2 PUSH1 0x1 AND ISZERO PUSH2 0x100 MUL SUB AND PUSH1 0x2 SWAP1 DIV DUP1 ISZERO PUSH2 0x98A JUMPI DUP1 PUSH1 0x1F LT PUSH2 0x95F JUMPI PUSH2 0x100 DUP1 DUP4 SLOAD DIV MUL DUP4 MSTORE SWAP2 PUSH1 0x20 ADD SWAP2 PUSH2 0x98A JUMP JUMPDEST DUP3 ADD SWAP2 SWAP1 PUSH1 0x0 MSTORE PUSH1 0x20 PUSH1 0x0 KECCAK256 SWAP1 JUMPDEST DUP2 SLOAD DUP2 MSTORE SWAP1 PUSH1 0x1 ADD SWAP1 PUSH1 0x20 ADD DUP1 DUP4 GT PUSH2 0x96D JUMPI DUP3 SWAP1 SUB PUSH1 0x1F AND DUP3 ADD SWAP2 JUMPDEST POP POP POP POP POP SWAP1 DUP1 PUSH1 0x4 ADD DUP1 SLOAD PUSH1 0x1 DUP2 PUSH1 0x1 AND ISZERO PUSH2 0x100 MUL SUB AND PUSH1 0x2 SWAP1 DIV DUP1 PUSH1 0x1F ADD PUSH1 0x20 DUP1 SWAP2 DIV MUL PUSH1 0x20 ADD PUSH1 0x40 MLOAD SWAP1 DUP2 ADD PUSH1 0x40 MSTORE DUP1 SWAP3 SWAP2 SWAP1 DUP2 DUP2 MSTORE PUSH1 0x20 ADD DUP3 DUP1 SLOAD PUSH1 0x1 DUP2 PUSH1 0x1 AND ISZERO PUSH2 0x100 MUL SUB AND PUSH1 0x2 SWAP1 DIV DUP1 ISZERO PUSH2 0xA28 JUMPI DUP1 PUSH1 0x1F LT PUSH2 0x9FD JUMPI PUSH2 0x100 DUP1 DUP4 SLOAD DIV MUL DUP4 MSTORE SWAP2 PUSH1 0x20 ADD SWAP2 PUSH2 0xA28 JUMP JUMPDEST DUP3 ADD SWAP2 SWAP1 PUSH1 0x0 MSTORE PUSH1 0x20 PUSH1 0x0 KECCAK256 SWAP1 JUMPDEST DUP2 SLOAD DUP2 MSTORE SWAP1 PUSH1 0x1 ADD SWAP1 PUSH1 0x20 ADD DUP1 DUP4 GT PUSH2 0xA0B JUMPI DUP3 SWAP1 SUB PUSH1 0x1F AND DUP3 ADD SWAP2 JUMPDEST POP POP POP POP POP SWAP1 DUP1 PUSH1 0x5 ADD DUP1 SLOAD PUSH1 0x1 DUP2 PUSH1 0x1 AND ISZERO PUSH2 0x100 MUL SUB AND PUSH1 0x2 SWAP1 DIV DUP1 PUSH1 0x1F ADD PUSH1 0x20 DUP1 SWAP2 DIV MUL PUSH1 0x20 ADD PUSH1 0x40 MLOAD SWAP1 DUP2 ADD PUSH1 0x40 MSTORE DUP1 SWAP3 SWAP2 SWAP1 DUP2 DUP2 MSTORE PUSH1 0x20 ADD DUP3 DUP1 SLOAD PUSH1 0x1 DUP2 PUSH1 0x1 AND ISZERO PUSH2 0x100 MUL SUB AND PUSH1 0x2 SWAP1 DIV DUP1 ISZERO PUSH2 0xAC6 JUMPI DUP1 PUSH1 0x1F LT PUSH2 0xA9B JUMPI PUSH2 0x100 DUP1 DUP4 SLOAD DIV MUL DUP4 MSTORE SWAP2 PUSH1 0x20 ADD SWAP2 PUSH2 0xAC6 JUMP JUMPDEST DUP3 ADD SWAP2 SWAP1 PUSH1 0x0 MSTORE PUSH1 0x20 PUSH1 0x0 KECCAK256 SWAP1 JUMPDEST DUP2 SLOAD DUP2 MSTORE SWAP1 PUSH1 0x1 ADD SWAP1 PUSH1 0x20 ADD DUP1 DUP4 GT PUSH2 0xAA9 JUMPI DUP3 SWAP1 SUB PUSH1 0x1F AND DUP3 ADD SWAP2 JUMPDEST POP POP POP POP POP SWAP1 DUP1 PUSH1 0x6 ADD DUP1 SLOAD PUSH1 0x1 DUP2 PUSH1 0x1 AND ISZERO PUSH2 0x100 MUL SUB AND PUSH1 0x2 SWAP1 DIV DUP1 PUSH1 0x1F ADD PUSH1 0x20 DUP1 SWAP2 DIV MUL PUSH1 0x20 ADD PUSH1 0x40 MLOAD SWAP1 DUP2 ADD PUSH1 0x40 MSTORE DUP1 SWAP3 SWAP2 SWAP1 DUP2 DUP2 MSTORE PUSH1 0x20 ADD DUP3 DUP1 SLOAD PUSH1 0x1 DUP2 PUSH1 0x1 AND ISZERO PUSH2 0x100 MUL SUB AND PUSH1 0x2 SWAP1 DIV DUP1 ISZERO PUSH2 0xB64 JUMPI DUP1 PUSH1 0x1F LT PUSH2 0xB39 JUMPI PUSH2 0x100 DUP1 DUP4 SLOAD DIV MUL DUP4 MSTORE SWAP2 PUSH1 0x20 ADD SWAP2 PUSH2 0xB64 JUMP JUMPDEST DUP3 ADD SWAP2 SWAP1 PUSH1 0x0 MSTORE PUSH1 0x20 PUSH1 0x0 KECCAK256 SWAP1 JUMPDEST DUP2 SLOAD DUP2 MSTORE SWAP1 PUSH1 0x1 ADD SWAP1 PUSH1 0x20 ADD DUP1 DUP4 GT PUSH2 0xB47 JUMPI DUP3 SWAP1 SUB PUSH1 0x1F AND DUP3 ADD SWAP2 JUMPDEST POP POP POP POP POP SWAP1 DUP1 PUSH1 0x7 ADD SLOAD SWAP1 POP DUP9 JUMP JUMPDEST PUSH1 0x5 PUSH1 0x20 MSTORE DUP1 PUSH1 0x0 MSTORE PUSH1 0x40 PUSH1 0x0 KECCAK256 PUSH1 0x0 SWAP2 POP SWAP1 POP DUP1 PUSH1 0x0 ADD DUP1 SLOAD PUSH1 0x1 DUP2 PUSH1 0x1 AND ISZERO PUSH2 0x100 MUL SUB AND PUSH1 0x2 SWAP1 DIV DUP1 PUSH1 0x1F ADD PUSH1 0x20 DUP1 SWAP2 DIV MUL PUSH1 0x20 ADD PUSH1 0x40 MLOAD SWAP1 DUP2 ADD PUSH1 0x40 MSTORE DUP1 SWAP3 SWAP2 SWAP1 DUP2 DUP2 MSTORE PUSH1 0x20 ADD DUP3 DUP1 SLOAD PUSH1 0x1 DUP2 PUSH1 0x1 AND ISZERO PUSH2 0x100 MUL SUB AND PUSH1 0x2 SWAP1 DIV DUP1 ISZERO PUSH2 0xC20 JUMPI DUP1 PUSH1 0x1F LT PUSH2 0xBF5 JUMPI PUSH2 0x100 DUP1 DUP4 SLOAD DIV MUL DUP4 MSTORE SWAP2 PUSH1 0x20 ADD SWAP2 PUSH2 0xC20 JUMP JUMPDEST DUP3 ADD SWAP2 SWAP1 PUSH1 0x0 MSTORE PUSH1 0x20 PUSH1 0x0 KECCAK256 SWAP1 JUMPDEST DUP2 SLOAD DUP2 MSTORE SWAP1 PUSH1 0x1 ADD SWAP1 PUSH1 0x20 ADD DUP1 DUP4 GT PUSH2 0xC03 JUMPI DUP3 SWAP1 SUB PUSH1 0x1F AND DUP3 ADD SWAP2 JUMPDEST POP POP POP POP POP SWAP1 DUP1 PUSH1 0x1 ADD DUP1 SLOAD PUSH1 0x1 DUP2 PUSH1 0x1 AND ISZERO PUSH2 0x100 MUL SUB AND PUSH1 0x2 SWAP1 DIV DUP1 PUSH1 0x1F ADD PUSH1 0x20 DUP1 SWAP2 DIV MUL PUSH1 0x20 ADD PUSH1 0x40 MLOAD SWAP1 DUP2 ADD PUSH1 0x40 MSTORE DUP1 SWAP3 SWAP2 SWAP1 DUP2 DUP2 MSTORE PUSH1 0x20 ADD DUP3 DUP1 SLOAD PUSH1 0x1 DUP2 PUSH1 0x1 AND ISZERO PUSH2 0x100 MUL SUB AND PUSH1 0x2 SWAP1 DIV DUP1 ISZERO PUSH2 0xCBE JUMPI DUP1 PUSH1 0x1F LT PUSH2 0xC93 JUMPI PUSH2 0x100 DUP1 DUP4 SLOAD DIV MUL DUP4 MSTORE SWAP2 PUSH1 0x20 ADD SWAP2 PUSH2 0xCBE JUMP JUMPDEST DUP3 ADD SWAP2 SWAP1 PUSH1 0x0 MSTORE PUSH1 0x20 PUSH1 0x0 KECCAK256 SWAP1 JUMPDEST DUP2 SLOAD DUP2 MSTORE SWAP1 PUSH1 0x1 ADD SWAP1 PUSH1 0x20 ADD DUP1 DUP4 GT PUSH2 0xCA1 JUMPI DUP3 SWAP1 SUB PUSH1 0x1F AND DUP3 ADD SWAP2 JUMPDEST POP POP POP POP POP SWAP1 DUP1 PUSH1 0x2 ADD SLOAD SWAP1 DUP1 PUSH1 0x3 ADD DUP1 SLOAD PUSH1 0x1 DUP2 PUSH1 0x1 AND ISZERO PUSH2 0x100 MUL SUB AND PUSH1 0x2 SWAP1 DIV DUP1 PUSH1 0x1F ADD PUSH1 0x20 DUP1 SWAP2 DIV MUL PUSH1 0x20 ADD PUSH1 0x40 MLOAD SWAP1 DUP2 ADD PUSH1 0x40 MSTORE DUP1 SWAP3 SWAP2 SWAP1 DUP2 DUP2 MSTORE PUSH1 0x20 ADD DUP3 DUP1 SLOAD PUSH1 0x1 DUP2 PUSH1 0x1 AND ISZERO PUSH2 0x100 MUL SUB AND PUSH1 0x2 SWAP1 DIV DUP1 ISZERO PUSH2 0xD62 JUMPI DUP1 PUSH1 0x1F LT PUSH2 0xD37 JUMPI PUSH2 0x100 DUP1 DUP4 SLOAD DIV MUL DUP4 MSTORE SWAP2 PUSH1 0x20 ADD SWAP2 PUSH2 0xD62 JUMP JUMPDEST DUP3 ADD SWAP2 SWAP1 PUSH1 0x0 MSTORE PUSH1 0x20 PUSH1 0x0 KECCAK256 SWAP1 JUMPDEST DUP2 SLOAD DUP2 MSTORE SWAP1 PUSH1 0x1 ADD SWAP1 PUSH1 0x20 ADD DUP1 DUP4 GT PUSH2 0xD45 JUMPI DUP3 SWAP1 SUB PUSH1 0x1F AND DUP3 ADD SWAP2 JUMPDEST POP POP POP POP POP SWAP1 DUP1 PUSH1 0x4 ADD DUP1 SLOAD PUSH1 0x1 DUP2 PUSH1 0x1 AND ISZERO PUSH2 0x100 MUL SUB AND PUSH1 0x2 SWAP1 DIV DUP1 PUSH1 0x1F ADD PUSH1 0x20 DUP1 SWAP2 DIV MUL PUSH1 0x20 ADD PUSH1 0x40 MLOAD SWAP1 DUP2 ADD PUSH1 0x40 MSTORE DUP1 SWAP3 SWAP2 SWAP1 DUP2 DUP2 MSTORE PUSH1 0x20 ADD DUP3 DUP1 SLOAD PUSH1 0x1 DUP2 PUSH1 0x1 AND ISZERO PUSH2 0x100 MUL SUB AND PUSH1 0x2 SWAP1 DIV DUP1 ISZERO PUSH2 0xE00 JUMPI DUP1 PUSH1 0x1F LT PUSH2 0xDD5 JUMPI PUSH2 0x100 DUP1 DUP4 SLOAD DIV MUL DUP4 MSTORE SWAP2 PUSH1 0x20 ADD SWAP2 PUSH2 0xE00 JUMP JUMPDEST DUP3 ADD SWAP2 SWAP1 PUSH1 0x0 MSTORE PUSH1 0x20 PUSH1 0x0 KECCAK256 SWAP1 JUMPDEST DUP2 SLOAD DUP2 MSTORE SWAP1 PUSH1 0x1 ADD SWAP1 PUSH1 0x20 ADD DUP1 DUP4 GT PUSH2 0xDE3 JUMPI DUP3 SWAP1 SUB PUSH1 0x1F AND DUP3 ADD SWAP2 JUMPDEST POP POP POP POP POP SWAP1 DUP1 PUSH1 0x5 ADD DUP1 SLOAD PUSH1 0x1 DUP2 PUSH1 0x1 AND ISZERO PUSH2 0x100 MUL SUB AND PUSH1 0x2 SWAP1 DIV DUP1 PUSH1 0x1F ADD PUSH1 0x20 DUP1 SWAP2 DIV MUL PUSH1 0x20 ADD PUSH1 0x40 MLOAD SWAP1 DUP2 ADD PUSH1 0x40 MSTORE DUP1 SWAP3 SWAP2 SWAP1 DUP2 DUP2 MSTORE PUSH1 0x20 ADD DUP3 DUP1 SLOAD PUSH1 0x1 DUP2 PUSH1 0x1 AND ISZERO PUSH2 0x100 MUL SUB AND PUSH1 0x2 SWAP1 DIV DUP1 ISZERO PUSH2 0xE9E JUMPI DUP1 PUSH1 0x1F LT PUSH2 0xE73 JUMPI PUSH2 0x100 DUP1 DUP4 SLOAD DIV MUL DUP4 MSTORE SWAP2 PUSH1 0x20 ADD SWAP2 PUSH2 0xE9E JUMP JUMPDEST DUP3 ADD SWAP2 SWAP1 PUSH1 0x0 MSTORE PUSH1 0x20 PUSH1 0x0 KECCAK256 SWAP1 JUMPDEST DUP2 SLOAD DUP2 MSTORE SWAP1 PUSH1 0x1 ADD SWAP1 PUSH1 0x20 ADD DUP1 DUP4 GT PUSH2 0xE81 JUMPI DUP3 SWAP1 SUB PUSH1 0x1F AND DUP3 ADD SWAP2 JUMPDEST POP POP POP POP POP SWAP1 DUP1 PUSH1 0x6 ADD DUP1 SLOAD PUSH1 0x1 DUP2 PUSH1 0x1 AND ISZERO PUSH2 0x100 MUL SUB AND PUSH1 0x2 SWAP1 DIV DUP1 PUSH1 0x1F ADD PUSH1 0x20 DUP1 SWAP2 DIV MUL PUSH1 0x20 ADD PUSH1 0x40 MLOAD SWAP1 DUP2 ADD PUSH1 0x40 MSTORE DUP1 SWAP3 SWAP2 SWAP1 DUP2 DUP2 MSTORE PUSH1 0x20 ADD DUP3 DUP1 SLOAD PUSH1 0x1 DUP2 PUSH1 0x1 AND ISZERO PUSH2 0x100 MUL SUB AND PUSH1 0x2 SWAP1 DIV DUP1 ISZERO PUSH2 0xF3C JUMPI DUP1 PUSH1 0x1F LT PUSH2 0xF11 JUMPI PUSH2 0x100 DUP1 DUP4 SLOAD DIV MUL DUP4 MSTORE SWAP2 PUSH1 0x20 ADD SWAP2 PUSH2 0xF3C JUMP JUMPDEST DUP3 ADD SWAP2 SWAP1 PUSH1 0x0 MSTORE PUSH1 0x20 PUSH1 0x0 KECCAK256 SWAP1 JUMPDEST DUP2 SLOAD DUP2 MSTORE SWAP1 PUSH1 0x1 ADD SWAP1 PUSH1 0x20 ADD DUP1 DUP4 GT PUSH2 0xF1F JUMPI DUP3 SWAP1 SUB PUSH1 0x1F AND DUP3 ADD SWAP2 JUMPDEST POP POP POP POP POP SWAP1 DUP1 PUSH1 0x7 ADD DUP1 SLOAD PUSH1 0x1 DUP2 PUSH1 0x1 AND ISZERO PUSH2 0x100 MUL SUB AND PUSH1 0x2 SWAP1 DIV DUP1 PUSH1 0x1F ADD PUSH1 0x20 DUP1 SWAP2 DIV MUL PUSH1 0x20 ADD PUSH1 0x40 MLOAD SWAP1 DUP2 ADD PUSH1 0x40 MSTORE DUP1 SWAP3 SWAP2 SWAP1 DUP2 DUP2 MSTORE PUSH1 0x20 ADD DUP3 DUP1 SLOAD PUSH1 0x1 DUP2 PUSH1 0x1 AND ISZERO PUSH2 0x100 MUL SUB AND PUSH1 0x2 SWAP1 DIV DUP1 ISZERO PUSH2 0xFDA JUMPI DUP1 PUSH1 0x1F LT PUSH2 0xFAF JUMPI PUSH2 0x100 DUP1 DUP4 SLOAD DIV MUL DUP4 MSTORE SWAP2 PUSH1 0x20 ADD SWAP2 PUSH2 0xFDA JUMP JUMPDEST DUP3 ADD SWAP2 SWAP1 PUSH1 0x0 MSTORE PUSH1 0x20 PUSH1 0x0 KECCAK256 SWAP1 JUMPDEST DUP2 SLOAD DUP2 MSTORE SWAP1 PUSH1 0x1 ADD SWAP1 PUSH1 0x20 ADD DUP1 DUP4 GT PUSH2 0xFBD JUMPI DUP3 SWAP1 SUB PUSH1 0x1F AND DUP3 ADD SWAP2 JUMPDEST POP POP POP POP POP SWAP1 DUP1 PUSH1 0x8 ADD DUP1 SLOAD PUSH1 0x1 DUP2 PUSH1 0x1 AND ISZERO PUSH2 0x100 MUL SUB AND PUSH1 0x2 SWAP1 DIV DUP1 PUSH1 0x1F ADD PUSH1 0x20 DUP1 SWAP2 DIV MUL PUSH1 0x20 ADD PUSH1 0x40 MLOAD SWAP1 DUP2 ADD PUSH1 0x40 MSTORE DUP1 SWAP3 SWAP2 SWAP1 DUP2 DUP2 MSTORE PUSH1 0x20 ADD DUP3 DUP1 SLOAD PUSH1 0x1 DUP2 PUSH1 0x1 AND ISZERO PUSH2 0x100 MUL SUB AND PUSH1 0x2 SWAP1 DIV DUP1 ISZERO PUSH2 0x1078 JUMPI DUP1 PUSH1 0x1F LT PUSH2 0x104D JUMPI PUSH2 0x100 DUP1 DUP4 SLOAD DIV MUL DUP4 MSTORE SWAP2 PUSH1 0x20 ADD SWAP2 PUSH2 0x1078 JUMP JUMPDEST DUP3 ADD SWAP2 SWAP1 PUSH1 0x0 MSTORE PUSH1 0x20 PUSH1 0x0 KECCAK256 SWAP1 JUMPDEST DUP2 SLOAD DUP2 MSTORE SWAP1 PUSH1 0x1 ADD SWAP1 PUSH1 0x20 ADD DUP1 DUP4 GT PUSH2 0x105B JUMPI DUP3 SWAP1 SUB PUSH1 0x1F AND DUP3 ADD SWAP2 JUMPDEST POP POP POP POP POP SWAP1 POP DUP10 JUMP JUMPDEST PUSH2 0x108A PUSH2 0x2955 JUMP JUMPDEST DUP2 DUP2 PUSH1 0x0 ADD DUP2 SWAP1 MSTORE POP PUSH2 0x109D DUP2 CALLER PUSH2 0x243B JUMP JUMPDEST POP POP JUMP JUMPDEST PUSH1 0x0 PUSH1 0x3 PUSH1 0x0 CALLER PUSH20 0xFFFFFFFFFFFFFFFFFFFFFFFFFFFFFFFFFFFFFFFF AND PUSH20 0xFFFFFFFFFFFFFFFFFFFFFFFFFFFFFFFFFFFFFFFF AND DUP2 MSTORE PUSH1 0x20 ADD SWAP1 DUP2 MSTORE PUSH1 0x20 ADD PUSH1 0x0 KECCAK256 SLOAD SWAP1 POP PUSH1 0x0 DUP2 EQ ISZERO PUSH2 0x1129 JUMPI PUSH1 0x40 MLOAD PUSH32 0x8C379A000000000000000000000000000000000000000000000000000000000 DUP2 MSTORE PUSH1 0x4 ADD PUSH2 0x1120 SWAP1 PUSH2 0x3444 JUMP JUMPDEST PUSH1 0x40 MLOAD DUP1 SWAP2 SUB SWAP1 REVERT JUMPDEST PUSH2 0x1131 PUSH2 0x298B JUMP JUMPDEST DUP4 DUP2 PUSH1 0x0 ADD DUP2 SWAP1 MSTORE POP DUP3 DUP2 PUSH1 0x20 ADD DUP2 SWAP1 MSTORE POP PUSH2 0x114C DUP2 PUSH2 0x254A JUMP JUMPDEST POP POP POP POP JUMP JUMPDEST PUSH2 0x115A PUSH2 0x298B JUMP JUMPDEST PUSH1 0x4 PUSH1 0x0 DUP4 DUP2 MSTORE PUSH1 0x20 ADD SWAP1 DUP2 MSTORE PUSH1 0x20 ADD PUSH1 0x0 KECCAK256 PUSH1 0x40 MLOAD DUP1 PUSH2 0x200 ADD PUSH1 0x40 MSTORE SWAP1 DUP2 PUSH1 0x0 DUP3 ADD DUP1 SLOAD PUSH1 0x1 DUP2 PUSH1 0x1 AND ISZERO PUSH2 0x100 MUL SUB AND PUSH1 0x2 SWAP1 DIV DUP1 PUSH1 0x1F ADD PUSH1 0x20 DUP1 SWAP2 DIV MUL PUSH1 0x20 ADD PUSH1 0x40 MLOAD SWAP1 DUP2 ADD PUSH1 0x40 MSTORE DUP1 SWAP3 SWAP2 SWAP1 DUP2 DUP2 MSTORE PUSH1 0x20 ADD DUP3 DUP1 SLOAD PUSH1 0x1 DUP2 PUSH1 0x1 AND ISZERO PUSH2 0x100 MUL SUB AND PUSH1 0x2 SWAP1 DIV DUP1 ISZERO PUSH2 0x1212 JUMPI DUP1 PUSH1 0x1F LT PUSH2 0x11E7 JUMPI PUSH2 0x100 DUP1 DUP4 SLOAD DIV MUL DUP4 MSTORE SWAP2 PUSH1 0x20 ADD SWAP2 PUSH2 0x1212 JUMP JUMPDEST DUP3 ADD SWAP2 SWAP1 PUSH1 0x0 MSTORE PUSH1 0x20 PUSH1 0x0 KECCAK256 SWAP1 JUMPDEST DUP2 SLOAD DUP2 MSTORE SWAP1 PUSH1 0x1 ADD SWAP1 PUSH1 0x20 ADD DUP1 DUP4 GT PUSH2 0x11F5 JUMPI DUP3 SWAP1 SUB PUSH1 0x1F AND DUP3 ADD SWAP2 JUMPDEST POP POP POP POP POP DUP2 MSTORE PUSH1 0x20 ADD PUSH1 0x1 DUP3 ADD DUP1 SLOAD PUSH1 0x1 DUP2 PUSH1 0x1 AND ISZERO PUSH2 0x100 MUL SUB AND PUSH1 0x2 SWAP1 DIV DUP1 PUSH1 0x1F ADD PUSH1 0x20 DUP1 SWAP2 DIV MUL PUSH1 0x20 ADD PUSH1 0x40 MLOAD SWAP1 DUP2 ADD PUSH1 0x40 MSTORE DUP1 SWAP3 SWAP2 SWAP1 DUP2 DUP2 MSTORE PUSH1 0x20 ADD DUP3 DUP1 SLOAD PUSH1 0x1 DUP2 PUSH1 0x1 AND ISZERO PUSH2 0x100 MUL SUB AND PUSH1 0x2 SWAP1 DIV DUP1 ISZERO PUSH2 0x12B4 JUMPI DUP1 PUSH1 0x1F LT PUSH2 0x1289 JUMPI PUSH2 0x100 DUP1 DUP4 SLOAD DIV MUL DUP4 MSTORE SWAP2 PUSH1 0x20 ADD SWAP2 PUSH2 0x12B4 JUMP JUMPDEST DUP3 ADD SWAP2 SWAP1 PUSH1 0x0 MSTORE PUSH1 0x20 PUSH1 0x0 KECCAK256 SWAP1 JUMPDEST DUP2 SLOAD DUP2 MSTORE SWAP1 PUSH1 0x1 ADD SWAP1 PUSH1 0x20 ADD DUP1 DUP4 GT PUSH2 0x1297 JUMPI DUP3 SWAP1 SUB PUSH1 0x1F AND DUP3 ADD SWAP2 JUMPDEST POP POP POP POP POP DUP2 MSTORE PUSH1 0x20 ADD PUSH1 0x2 DUP3 ADD DUP1 SLOAD PUSH1 0x1 DUP2 PUSH1 0x1 AND ISZERO PUSH2 0x100 MUL SUB AND PUSH1 0x2 SWAP1 DIV DUP1 PUSH1 0x1F ADD PUSH1 0x20 DUP1 SWAP2 DIV MUL PUSH1 0x20 ADD PUSH1 0x40 MLOAD SWAP1 DUP2 ADD PUSH1 0x40 MSTORE DUP1 SWAP3 SWAP2 SWAP1 DUP2 DUP2 MSTORE PUSH1 0x20 ADD DUP3 DUP1 SLOAD PUSH1 0x1 DUP2 PUSH1 0x1 AND ISZERO PUSH2 0x100 MUL SUB AND PUSH1 0x2 SWAP1 DIV DUP1 ISZERO PUSH2 0x1356 JUMPI DUP1 PUSH1 0x1F LT PUSH2 0x132B JUMPI PUSH2 0x100 DUP1 DUP4 SLOAD DIV MUL DUP4 MSTORE SWAP2 PUSH1 0x20 ADD SWAP2 PUSH2 0x1356 JUMP JUMPDEST DUP3 ADD SWAP2 SWAP1 PUSH1 0x0 MSTORE PUSH1 0x20 PUSH1 0x0 KECCAK256 SWAP1 JUMPDEST DUP2 SLOAD DUP2 MSTORE SWAP1 PUSH1 0x1 ADD SWAP1 PUSH1 0x20 ADD DUP1 DUP4 GT PUSH2 0x1339 JUMPI DUP3 SWAP1 SUB PUSH1 0x1F AND DUP3 ADD SWAP2 JUMPDEST POP POP POP POP POP DUP2 MSTORE PUSH1 0x20 ADD PUSH1 0x3 DUP3 ADD DUP1 SLOAD PUSH1 0x1 DUP2 PUSH1 0x1 AND ISZERO PUSH2 0x100 MUL SUB AND PUSH1 0x2 SWAP1 DIV DUP1 PUSH1 0x1F ADD PUSH1 0x20 DUP1 SWAP2 DIV MUL PUSH1 0x20 ADD PUSH1 0x40 MLOAD SWAP1 DUP2 ADD PUSH1 0x40 MSTORE DUP1 SWAP3 SWAP2 SWAP1 DUP2 DUP2 MSTORE PUSH1 0x20 ADD DUP3 DUP1 SLOAD PUSH1 0x1 DUP2 PUSH1 0x1 AND ISZERO PUSH2 0x100 MUL SUB AND PUSH1 0x2 SWAP1 DIV DUP1 ISZERO PUSH2 0x13F8 JUMPI DUP1 PUSH1 0x1F LT PUSH2 0x13CD JUMPI PUSH2 0x100 DUP1 DUP4 SLOAD DIV MUL DUP4 MSTORE SWAP2 PUSH1 0x20 ADD SWAP2 PUSH2 0x13F8 JUMP JUMPDEST DUP3 ADD SWAP2 SWAP1 PUSH1 0x0 MSTORE PUSH1 0x20 PUSH1 0x0 KECCAK256 SWAP1 JUMPDEST DUP2 SLOAD DUP2 MSTORE SWAP1 PUSH1 0x1 ADD SWAP1 PUSH1 0x20 ADD DUP1 DUP4 GT PUSH2 0x13DB JUMPI DUP3 SWAP1 SUB PUSH1 0x1F AND DUP3 ADD SWAP2 JUMPDEST POP POP POP POP POP DUP2 MSTORE PUSH1 0x20 ADD PUSH1 0x4 DUP3 ADD DUP1 SLOAD PUSH1 0x1 DUP2 PUSH1 0x1 AND ISZERO PUSH2 0x100 MUL SUB AND PUSH1 0x2 SWAP1 DIV DUP1 PUSH1 0x1F ADD PUSH1 0x20 DUP1 SWAP2 DIV MUL PUSH1 0x20 ADD PUSH1 0x40 MLOAD SWAP1 DUP2 ADD PUSH1 0x40 MSTORE DUP1 SWAP3 SWAP2 SWAP1 DUP2 DUP2 MSTORE PUSH1 0x20 ADD DUP3 DUP1 SLOAD PUSH1 0x1 DUP2 PUSH1 0x1 AND ISZERO PUSH2 0x100 MUL SUB AND PUSH1 0x2 SWAP1 DIV DUP1 ISZERO PUSH2 0x149A JUMPI DUP1 PUSH1 0x1F LT PUSH2 0x146F JUMPI PUSH2 0x100 DUP1 DUP4 SLOAD DIV MUL DUP4 MSTORE SWAP2 PUSH1 0x20 ADD SWAP2 PUSH2 0x149A JUMP JUMPDEST DUP3 ADD SWAP2 SWAP1 PUSH1 0x0 MSTORE PUSH1 0x20 PUSH1 0x0 KECCAK256 SWAP1 JUMPDEST DUP2 SLOAD DUP2 MSTORE SWAP1 PUSH1 0x1 ADD SWAP1 PUSH1 0x20 ADD DUP1 DUP4 GT PUSH2 0x147D JUMPI DUP3 SWAP1 SUB PUSH1 0x1F AND DUP3 ADD SWAP2 JUMPDEST POP POP POP POP POP DUP2 MSTORE PUSH1 0x20 ADD PUSH1 0x5 DUP3 ADD DUP1 SLOAD PUSH1 0x1 DUP2 PUSH1 0x1 AND ISZERO PUSH2 0x100 MUL SUB AND PUSH1 0x2 SWAP1 DIV DUP1 PUSH1 0x1F ADD PUSH1 0x20 DUP1 SWAP2 DIV MUL PUSH1 0x20 ADD PUSH1 0x40 MLOAD SWAP1 DUP2 ADD PUSH1 0x40 MSTORE DUP1 SWAP3 SWAP2 SWAP1 DUP2 DUP2 MSTORE PUSH1 0x20 ADD DUP3 DUP1 SLOAD PUSH1 0x1 DUP2 PUSH1 0x1 AND ISZERO PUSH2 0x100 MUL SUB AND PUSH1 0x2 SWAP1 DIV DUP1 ISZERO PUSH2 0x153C JUMPI DUP1 PUSH1 0x1F LT PUSH2 0x1511 JUMPI PUSH2 0x100 DUP1 DUP4 SLOAD DIV MUL DUP4 MSTORE SWAP2 PUSH1 0x20 ADD SWAP2 PUSH2 0x153C JUMP JUMPDEST DUP3 ADD SWAP2 SWAP1 PUSH1 0x0 MSTORE PUSH1 0x20 PUSH1 0x0 KECCAK256 SWAP1 JUMPDEST DUP2 SLOAD DUP2 MSTORE SWAP1 PUSH1 0x1 ADD SWAP1 PUSH1 0x20 ADD DUP1 DUP4 GT PUSH2 0x151F JUMPI DUP3 SWAP1 SUB PUSH1 0x1F AND DUP3 ADD SWAP2 JUMPDEST POP POP POP POP POP DUP2 MSTORE PUSH1 0x20 ADD PUSH1 0x6 DUP3 ADD DUP1 SLOAD PUSH1 0x1 DUP2 PUSH1 0x1 AND ISZERO PUSH2 0x100 MUL SUB AND PUSH1 0x2 SWAP1 DIV DUP1 PUSH1 0x1F ADD PUSH1 0x20 DUP1 SWAP2 DIV MUL PUSH1 0x20 ADD PUSH1 0x40 MLOAD SWAP1 DUP2 ADD PUSH1 0x40 MSTORE DUP1 SWAP3 SWAP2 SWAP1 DUP2 DUP2 MSTORE PUSH1 0x20 ADD DUP3 DUP1 SLOAD PUSH1 0x1 DUP2 PUSH1 0x1 AND ISZERO PUSH2 0x100 MUL SUB AND PUSH1 0x2 SWAP1 DIV DUP1 ISZERO PUSH2 0x15DE JUMPI DUP1 PUSH1 0x1F LT PUSH2 0x15B3 JUMPI PUSH2 0x100 DUP1 DUP4 SLOAD DIV MUL DUP4 MSTORE SWAP2 PUSH1 0x20 ADD SWAP2 PUSH2 0x15DE JUMP JUMPDEST DUP3 ADD SWAP2 SWAP1 PUSH1 0x0 MSTORE PUSH1 0x20 PUSH1 0x0 KECCAK256 SWAP1 JUMPDEST DUP2 SLOAD DUP2 MSTORE SWAP1 PUSH1 0x1 ADD SWAP1 PUSH1 0x20 ADD DUP1 DUP4 GT PUSH2 0x15C1 JUMPI DUP3 SWAP1 SUB PUSH1 0x1F AND DUP3 ADD SWAP2 JUMPDEST POP POP POP POP POP DUP2 MSTORE PUSH1 0x20 ADD PUSH1 0x7 DUP3 ADD DUP1 SLOAD PUSH1 0x1 DUP2 PUSH1 0x1 AND ISZERO PUSH2 0x100 MUL SUB AND PUSH1 0x2 SWAP1 DIV DUP1 PUSH1 0x1F ADD PUSH1 0x20 DUP1 SWAP2 DIV MUL PUSH1 0x20 ADD PUSH1 0x40 MLOAD SWAP1 DUP2 ADD PUSH1 0x40 MSTORE DUP1 SWAP3 SWAP2 SWAP1 DUP2 DUP2 MSTORE PUSH1 0x20 ADD DUP3 DUP1 SLOAD PUSH1 0x1 DUP2 PUSH1 0x1 AND ISZERO PUSH2 0x100 MUL SUB AND PUSH1 0x2 SWAP1 DIV DUP1 ISZERO PUSH2 0x1680 JUMPI DUP1 PUSH1 0x1F LT PUSH2 0x1655 JUMPI PUSH2 0x100 DUP1 DUP4 SLOAD DIV MUL DUP4 MSTORE SWAP2 PUSH1 0x20 ADD SWAP2 PUSH2 0x1680 JUMP JUMPDEST DUP3 ADD SWAP2 SWAP1 PUSH1 0x0 MSTORE PUSH1 0x20 PUSH1 0x0 KECCAK256 SWAP1 JUMPDEST DUP2 SLOAD DUP2 MSTORE SWAP1 PUSH1 0x1 ADD SWAP1 PUSH1 0x20 ADD DUP1 DUP4 GT PUSH2 0x1663 JUMPI DUP3 SWAP1 SUB PUSH1 0x1F AND DUP3 ADD SWAP2 JUMPDEST POP POP POP POP POP DUP2 MSTORE PUSH1 0x20 ADD PUSH1 0x8 DUP3 ADD DUP1 SLOAD PUSH1 0x1 DUP2 PUSH1 0x1 AND ISZERO PUSH2 0x100 MUL SUB AND PUSH1 0x2 SWAP1 DIV DUP1 PUSH1 0x1F ADD PUSH1 0x20 DUP1 SWAP2 DIV MUL PUSH1 0x20 ADD PUSH1 0x40 MLOAD SWAP1 DUP2 ADD PUSH1 0x40 MSTORE DUP1 SWAP3 SWAP2 SWAP1 DUP2 DUP2 MSTORE PUSH1 0x20 ADD DUP3 DUP1 SLOAD PUSH1 0x1 DUP2 PUSH1 0x1 AND ISZERO PUSH2 0x100 MUL SUB AND PUSH1 0x2 SWAP1 DIV DUP1 ISZERO PUSH2 0x1722 JUMPI DUP1 PUSH1 0x1F LT PUSH2 0x16F7 JUMPI PUSH2 0x100 DUP1 DUP4 SLOAD DIV MUL DUP4 MSTORE SWAP2 PUSH1 0x20 ADD SWAP2 PUSH2 0x1722 JUMP JUMPDEST DUP3 ADD SWAP2 SWAP1 PUSH1 0x0 MSTORE PUSH1 0x20 PUSH1 0x0 KECCAK256 SWAP1 JUMPDEST DUP2 SLOAD DUP2 MSTORE SWAP1 PUSH1 0x1 ADD SWAP1 PUSH1 0x20 ADD DUP1 DUP4 GT PUSH2 0x1705 JUMPI DUP3 SWAP1 SUB PUSH1 0x1F AND DUP3 ADD SWAP2 JUMPDEST POP POP POP POP POP DUP2 MSTORE PUSH1 0x20 ADD PUSH1 0x9 DUP3 ADD DUP1 SLOAD PUSH1 0x1 DUP2 PUSH1 0x1 AND ISZERO PUSH2 0x100 MUL SUB AND PUSH1 0x2 SWAP1 DIV DUP1 PUSH1 0x1F ADD PUSH1 0x20 DUP1 SWAP2 DIV MUL PUSH1 0x20 ADD PUSH1 0x40 MLOAD SWAP1 DUP2 ADD PUSH1 0x40 MSTORE DUP1 SWAP3 SWAP2 SWAP1 DUP2 DUP2 MSTORE PUSH1 0x20 ADD DUP3 DUP1 SLOAD PUSH1 0x1 DUP2 PUSH1 0x1 AND ISZERO PUSH2 0x100 MUL SUB AND PUSH1 0x2 SWAP1 DIV DUP1 ISZERO PUSH2 0x17C4 JUMPI DUP1 PUSH1 0x1F LT PUSH2 0x1799 JUMPI PUSH2 0x100 DUP1 DUP4 SLOAD DIV MUL DUP4 MSTORE SWAP2 PUSH1 0x20 ADD SWAP2 PUSH2 0x17C4 JUMP JUMPDEST DUP3 ADD SWAP2 SWAP1 PUSH1 0x0 MSTORE PUSH1 0x20 PUSH1 0x0 KECCAK256 SWAP1 JUMPDEST DUP2 SLOAD DUP2 MSTORE SWAP1 PUSH1 0x1 ADD SWAP1 PUSH1 0x20 ADD DUP1 DUP4 GT PUSH2 0x17A7 JUMPI DUP3 SWAP1 SUB PUSH1 0x1F AND DUP3 ADD SWAP2 JUMPDEST POP POP POP POP POP DUP2 MSTORE PUSH1 0x20 ADD PUSH1 0xA DUP3 ADD DUP1 SLOAD PUSH1 0x1 DUP2 PUSH1 0x1 AND ISZERO PUSH2 0x100 MUL SUB AND PUSH1 0x2 SWAP1 DIV DUP1 PUSH1 0x1F ADD PUSH1 0x20 DUP1 SWAP2 DIV MUL PUSH1 0x20 ADD PUSH1 0x40 MLOAD SWAP1 DUP2 ADD PUSH1 0x40 MSTORE DUP1 SWAP3 SWAP2 SWAP1 DUP2 DUP2 MSTORE PUSH1 0x20 ADD DUP3 DUP1 SLOAD PUSH1 0x1 DUP2 PUSH1 0x1 AND ISZERO PUSH2 0x100 MUL SUB AND PUSH1 0x2 SWAP1 DIV DUP1 ISZERO PUSH2 0x1866 JUMPI DUP1 PUSH1 0x1F LT PUSH2 0x183B JUMPI PUSH2 0x100 DUP1 DUP4 SLOAD DIV MUL DUP4 MSTORE SWAP2 PUSH1 0x20 ADD SWAP2 PUSH2 0x1866 JUMP JUMPDEST DUP3 ADD SWAP2 SWAP1 PUSH1 0x0 MSTORE PUSH1 0x20 PUSH1 0x0 KECCAK256 SWAP1 JUMPDEST DUP2 SLOAD DUP2 MSTORE SWAP1 PUSH1 0x1 ADD SWAP1 PUSH1 0x20 ADD DUP1 DUP4 GT PUSH2 0x1849 JUMPI DUP3 SWAP1 SUB PUSH1 0x1F AND DUP3 ADD SWAP2 JUMPDEST POP POP POP POP POP DUP2 MSTORE PUSH1 0x20 ADD PUSH1 0xB DUP3 ADD DUP1 SLOAD PUSH1 0x1 DUP2 PUSH1 0x1 AND ISZERO PUSH2 0x100 MUL SUB AND PUSH1 0x2 SWAP1 DIV DUP1 PUSH1 0x1F ADD PUSH1 0x20 DUP1 SWAP2 DIV MUL PUSH1 0x20 ADD PUSH1 0x40 MLOAD SWAP1 DUP2 ADD PUSH1 0x40 MSTORE DUP1 SWAP3 SWAP2 SWAP1 DUP2 DUP2 MSTORE PUSH1 0x20 ADD DUP3 DUP1 SLOAD PUSH1 0x1 DUP2 PUSH1 0x1 AND ISZERO PUSH2 0x100 MUL SUB AND PUSH1 0x2 SWAP1 DIV DUP1 ISZERO PUSH2 0x1908 JUMPI DUP1 PUSH1 0x1F LT PUSH2 0x18DD JUMPI PUSH2 0x100 DUP1 DUP4 SLOAD DIV MUL DUP4 MSTORE SWAP2 PUSH1 0x20 ADD SWAP2 PUSH2 0x1908 JUMP JUMPDEST DUP3 ADD SWAP2 SWAP1 PUSH1 0x0 MSTORE PUSH1 0x20 PUSH1 0x0 KECCAK256 SWAP1 JUMPDEST DUP2 SLOAD DUP2 MSTORE SWAP1 PUSH1 0x1 ADD SWAP1 PUSH1 0x20 ADD DUP1 DUP4 GT PUSH2 0x18EB JUMPI DUP3 SWAP1 SUB PUSH1 0x1F AND DUP3 ADD SWAP2 JUMPDEST POP POP POP POP POP DUP2 MSTORE PUSH1 0x20 ADD PUSH1 0xC DUP3 ADD DUP1 SLOAD PUSH1 0x1 DUP2 PUSH1 0x1 AND ISZERO PUSH2 0x100 MUL SUB AND PUSH1 0x2 SWAP1 DIV DUP1 PUSH1 0x1F ADD PUSH1 0x20 DUP1 SWAP2 DIV MUL PUSH1 0x20 ADD PUSH1 0x40 MLOAD SWAP1 DUP2 ADD PUSH1 0x40 MSTORE DUP1 SWAP3 SWAP2 SWAP1 DUP2 DUP2 MSTORE PUSH1 0x20 ADD DUP3 DUP1 SLOAD PUSH1 0x1 DUP2 PUSH1 0x1 AND ISZERO PUSH2 0x100 MUL SUB AND PUSH1 0x2 SWAP1 DIV DUP1 ISZERO PUSH2 0x19AA JUMPI DUP1 PUSH1 0x1F LT PUSH2 0x197F JUMPI PUSH2 0x100 DUP1 DUP4 SLOAD DIV MUL DUP4 MSTORE SWAP2 PUSH1 0x20 ADD SWAP2 PUSH2 0x19AA JUMP JUMPDEST DUP3 ADD SWAP2 SWAP1 PUSH1 0x0 MSTORE PUSH1 0x20 PUSH1 0x0 KECCAK256 SWAP1 JUMPDEST DUP2 SLOAD DUP2 MSTORE SWAP1 PUSH1 0x1 ADD SWAP1 PUSH1 0x20 ADD DUP1 DUP4 GT PUSH2 0x198D JUMPI DUP3 SWAP1 SUB PUSH1 0x1F AND DUP3 ADD SWAP2 JUMPDEST POP POP POP POP POP DUP2 MSTORE PUSH1 0x20 ADD PUSH1 0xD DUP3 ADD SLOAD DUP2 MSTORE PUSH1 0x20 ADD PUSH1 0xE DUP3 ADD SLOAD DUP2 MSTORE PUSH1 0x20 ADD PUSH1 0xF DUP3 ADD DUP1 SLOAD PUSH1 0x1 DUP2 PUSH1 0x1 AND ISZERO PUSH2 0x100 MUL SUB AND PUSH1 0x2 SWAP1 DIV DUP1 PUSH1 0x1F ADD PUSH1 0x20 DUP1 SWAP2 DIV MUL PUSH1 0x20 ADD PUSH1 0x40 MLOAD SWAP1 DUP2 ADD PUSH1 0x40 MSTORE DUP1 SWAP3 SWAP2 SWAP1 DUP2 DUP2 MSTORE PUSH1 0x20 ADD DUP3 DUP1 SLOAD PUSH1 0x1 DUP2 PUSH1 0x1 AND ISZERO PUSH2 0x100 MUL SUB AND PUSH1 0x2 SWAP1 DIV DUP1 ISZERO PUSH2 0x1A60 JUMPI DUP1 PUSH1 0x1F LT PUSH2 0x1A35 JUMPI PUSH2 0x100 DUP1 DUP4 SLOAD DIV MUL DUP4 MSTORE SWAP2 PUSH1 0x20 ADD SWAP2 PUSH2 0x1A60 JUMP JUMPDEST DUP3 ADD SWAP2 SWAP1 PUSH1 0x0 MSTORE PUSH1 0x20 PUSH1 0x0 KECCAK256 SWAP1 JUMPDEST DUP2 SLOAD DUP2 MSTORE SWAP1 PUSH1 0x1 ADD SWAP1 PUSH1 0x20 ADD DUP1 DUP4 GT PUSH2 0x1A43 JUMPI DUP3 SWAP1 SUB PUSH1 0x1F AND DUP3 ADD SWAP2 JUMPDEST POP POP POP POP POP DUP2 MSTORE POP POP SWAP1 POP SWAP2 SWAP1 POP JUMP JUMPDEST PUSH1 0xB SLOAD DUP2 JUMP JUMPDEST PUSH1 0x6 PUSH1 0x20 MSTORE DUP1 PUSH1 0x0 MSTORE PUSH1 0x40 PUSH1 0x0 KECCAK256 PUSH1 0x0 SWAP2 POP SWAP1 POP SLOAD DUP2 JUMP JUMPDEST PUSH1 0x2 PUSH1 0x20 MSTORE DUP1 PUSH1 0x0 MSTORE PUSH1 0x40 PUSH1 0x0 KECCAK256 PUSH1 0x0 SWAP2 POP SWAP1 POP DUP1 PUSH1 0x0 ADD DUP1 SLOAD PUSH1 0x1 DUP2 PUSH1 0x1 AND ISZERO PUSH2 0x100 MUL SUB AND PUSH1 0x2 SWAP1 DIV DUP1 PUSH1 0x1F ADD PUSH1 0x20 DUP1 SWAP2 DIV MUL PUSH1 0x20 ADD PUSH1 0x40 MLOAD SWAP1 DUP2 ADD PUSH1 0x40 MSTORE DUP1 SWAP3 SWAP2 SWAP1 DUP2 DUP2 MSTORE PUSH1 0x20 ADD DUP3 DUP1 SLOAD PUSH1 0x1 DUP2 PUSH1 0x1 AND ISZERO PUSH2 0x100 MUL SUB AND PUSH1 0x2 SWAP1 DIV DUP1 ISZERO PUSH2 0x1B3A JUMPI DUP1 PUSH1 0x1F LT PUSH2 0x1B0F JUMPI PUSH2 0x100 DUP1 DUP4 SLOAD DIV MUL DUP4 MSTORE SWAP2 PUSH1 0x20 ADD SWAP2 PUSH2 0x1B3A JUMP JUMPDEST DUP3 ADD SWAP2 SWAP1 PUSH1 0x0 MSTORE PUSH1 0x20 PUSH1 0x0 KECCAK256 SWAP1 JUMPDEST DUP2 SLOAD DUP2 MSTORE SWAP1 PUSH1 0x1 ADD SWAP1 PUSH1 0x20 ADD DUP1 DUP4 GT PUSH2 0x1B1D JUMPI DUP3 SWAP1 SUB PUSH1 0x1F AND DUP3 ADD SWAP2 JUMPDEST POP POP POP POP POP SWAP1 DUP1 PUSH1 0x1 ADD DUP1 SLOAD PUSH1 0x1 DUP2 PUSH1 0x1 AND ISZERO PUSH2 0x100 MUL SUB AND PUSH1 0x2 SWAP1 DIV DUP1 PUSH1 0x1F ADD PUSH1 0x20 DUP1 SWAP2 DIV MUL PUSH1 0x20 ADD PUSH1 0x40 MLOAD SWAP1 DUP2 ADD PUSH1 0x40 MSTORE DUP1 SWAP3 SWAP2 SWAP1 DUP2 DUP2 MSTORE PUSH1 0x20 ADD DUP3 DUP1 SLOAD PUSH1 0x1 DUP2 PUSH1 0x1 AND ISZERO PUSH2 0x100 MUL SUB AND PUSH1 0x2 SWAP1 DIV DUP1 ISZERO PUSH2 0x1BD8 JUMPI DUP1 PUSH1 0x1F LT PUSH2 0x1BAD JUMPI PUSH2 0x100 DUP1 DUP4 SLOAD DIV MUL DUP4 MSTORE SWAP2 PUSH1 0x20 ADD SWAP2 PUSH2 0x1BD8 JUMP JUMPDEST DUP3 ADD SWAP2 SWAP1 PUSH1 0x0 MSTORE PUSH1 0x20 PUSH1 0x0 KECCAK256 SWAP1 JUMPDEST DUP2 SLOAD DUP2 MSTORE SWAP1 PUSH1 0x1 ADD SWAP1 PUSH1 0x20 ADD DUP1 DUP4 GT PUSH2 0x1BBB JUMPI DUP3 SWAP1 SUB PUSH1 0x1F AND DUP3 ADD SWAP2 JUMPDEST POP POP POP POP POP SWAP1 DUP1 PUSH1 0x2 ADD DUP1 SLOAD PUSH1 0x1 DUP2 PUSH1 0x1 AND ISZERO PUSH2 0x100 MUL SUB AND PUSH1 0x2 SWAP1 DIV DUP1 PUSH1 0x1F ADD PUSH1 0x20 DUP1 SWAP2 DIV MUL PUSH1 0x20 ADD PUSH1 0x40 MLOAD SWAP1 DUP2 ADD PUSH1 0x40 MSTORE DUP1 SWAP3 SWAP2 SWAP1 DUP2 DUP2 MSTORE PUSH1 0x20 ADD DUP3 DUP1 SLOAD PUSH1 0x1 DUP2 PUSH1 0x1 AND ISZERO PUSH2 0x100 MUL SUB AND PUSH1 0x2 SWAP1 DIV DUP1 ISZERO PUSH2 0x1C76 JUMPI DUP1 PUSH1 0x1F LT PUSH2 0x1C4B JUMPI PUSH2 0x100 DUP1 DUP4 SLOAD DIV MUL DUP4 MSTORE SWAP2 PUSH1 0x20 ADD SWAP2 PUSH2 0x1C76 JUMP JUMPDEST DUP3 ADD SWAP2 SWAP1 PUSH1 0x0 MSTORE PUSH1 0x20 PUSH1 0x0 KECCAK256 SWAP1 JUMPDEST DUP2 SLOAD DUP2 MSTORE SWAP1 PUSH1 0x1 ADD SWAP1 PUSH1 0x20 ADD DUP1 DUP4 GT PUSH2 0x1C59 JUMPI DUP3 SWAP1 SUB PUSH1 0x1F AND DUP3 ADD SWAP2 JUMPDEST POP POP POP POP POP SWAP1 DUP1 PUSH1 0x3 ADD DUP1 SLOAD PUSH1 0x1 DUP2 PUSH1 0x1 AND ISZERO PUSH2 0x100 MUL SUB AND PUSH1 0x2 SWAP1 DIV DUP1 PUSH1 0x1F ADD PUSH1 0x20 DUP1 SWAP2 DIV MUL PUSH1 0x20 ADD PUSH1 0x40 MLOAD SWAP1 DUP2 ADD PUSH1 0x40 MSTORE DUP1 SWAP3 SWAP2 SWAP1 DUP2 DUP2 MSTORE PUSH1 0x20 ADD DUP3 DUP1 SLOAD PUSH1 0x1 DUP2 PUSH1 0x1 AND ISZERO PUSH2 0x100 MUL SUB AND PUSH1 0x2 SWAP1 DIV DUP1 ISZERO PUSH2 0x1D14 JUMPI DUP1 PUSH1 0x1F LT PUSH2 0x1CE9 JUMPI PUSH2 0x100 DUP1 DUP4 SLOAD DIV MUL DUP4 MSTORE SWAP2 PUSH1 0x20 ADD SWAP2 PUSH2 0x1D14 JUMP JUMPDEST DUP3 ADD SWAP2 SWAP1 PUSH1 0x0 MSTORE PUSH1 0x20 PUSH1 0x0 KECCAK256 SWAP1 JUMPDEST DUP2 SLOAD DUP2 MSTORE SWAP1 PUSH1 0x1 ADD SWAP1 PUSH1 0x20 ADD DUP1 DUP4 GT PUSH2 0x1CF7 JUMPI DUP3 SWAP1 SUB PUSH1 0x1F AND DUP3 ADD SWAP2 JUMPDEST POP POP POP POP POP SWAP1 DUP1 PUSH1 0x4 ADD DUP1 SLOAD PUSH1 0x1 DUP2 PUSH1 0x1 AND ISZERO PUSH2 0x100 MUL SUB AND PUSH1 0x2 SWAP1 DIV DUP1 PUSH1 0x1F ADD PUSH1 0x20 DUP1 SWAP2 DIV MUL PUSH1 0x20 ADD PUSH1 0x40 MLOAD SWAP1 DUP2 ADD PUSH1 0x40 MSTORE DUP1 SWAP3 SWAP2 SWAP1 DUP2 DUP2 MSTORE PUSH1 0x20 ADD DUP3 DUP1 SLOAD PUSH1 0x1 DUP2 PUSH1 0x1 AND ISZERO PUSH2 0x100 MUL SUB AND PUSH1 0x2 SWAP1 DIV DUP1 ISZERO PUSH2 0x1DB2 JUMPI DUP1 PUSH1 0x1F LT PUSH2 0x1D87 JUMPI PUSH2 0x100 DUP1 DUP4 SLOAD DIV MUL DUP4 MSTORE SWAP2 PUSH1 0x20 ADD SWAP2 PUSH2 0x1DB2 JUMP JUMPDEST DUP3 ADD SWAP2 SWAP1 PUSH1 0x0 MSTORE PUSH1 0x20 PUSH1 0x0 KECCAK256 SWAP1 JUMPDEST DUP2 SLOAD DUP2 MSTORE SWAP1 PUSH1 0x1 ADD SWAP1 PUSH1 0x20 ADD DUP1 DUP4 GT PUSH2 0x1D95 JUMPI DUP3 SWAP1 SUB PUSH1 0x1F AND DUP3 ADD SWAP2 JUMPDEST POP POP POP POP POP SWAP1 DUP1 PUSH1 0x5 ADD SLOAD SWAP1 POP DUP7 JUMP JUMPDEST PUSH2 0x1DCA PUSH2 0x2890 JUMP JUMPDEST PUSH1 0xA PUSH1 0x1 PUSH1 0x0 SWAP1 SLOAD SWAP1 PUSH2 0x100 EXP SWAP1 DIV PUSH20 0xFFFFFFFFFFFFFFFFFFFFFFFFFFFFFFFFFFFFFFFF AND PUSH20 0xFFFFFFFFFFFFFFFFFFFFFFFFFFFFFFFFFFFFFFFF AND PUSH4 0xDD62ED3E CALLER ADDRESS PUSH1 0x40 MLOAD DUP4 PUSH4 0xFFFFFFFF AND PUSH1 0xE0 SHL DUP2 MSTORE PUSH1 0x4 ADD PUSH2 0x1E29 SWAP3 SWAP2 SWAP1 PUSH2 0x323B JUMP JUMPDEST PUSH1 0x20 PUSH1 0x40 MLOAD DUP1 DUP4 SUB DUP2 DUP7 DUP1 EXTCODESIZE ISZERO DUP1 ISZERO PUSH2 0x1E41 JUMPI PUSH1 0x0 DUP1 REVERT JUMPDEST POP GAS STATICCALL ISZERO DUP1 ISZERO PUSH2 0x1E55 JUMPI RETURNDATASIZE PUSH1 0x0 DUP1 RETURNDATACOPY RETURNDATASIZE PUSH1 0x0 REVERT JUMPDEST POP POP POP POP PUSH1 0x40 MLOAD RETURNDATASIZE PUSH1 0x1F NOT PUSH1 0x1F DUP3 ADD AND DUP3 ADD DUP1 PUSH1 0x40 MSTORE POP PUSH2 0x1E79 SWAP2 SWAP1 DUP2 ADD SWAP1 PUSH2 0x2CC9 JUMP JUMPDEST LT ISZERO PUSH2 0x1EBA JUMPI PUSH1 0x40 MLOAD PUSH32 0x8C379A000000000000000000000000000000000000000000000000000000000 DUP2 MSTORE PUSH1 0x4 ADD PUSH2 0x1EB1 SWAP1 PUSH2 0x3464 JUMP JUMPDEST PUSH1 0x40 MLOAD DUP1 SWAP2 SUB SWAP1 REVERT JUMPDEST PUSH1 0x1 PUSH1 0x0 SWAP1 SLOAD SWAP1 PUSH2 0x100 EXP SWAP1 DIV PUSH20 0xFFFFFFFFFFFFFFFFFFFFFFFFFFFFFFFFFFFFFFFF AND PUSH20 0xFFFFFFFFFFFFFFFFFFFFFFFFFFFFFFFFFFFFFFFF AND PUSH4 0x23B872DD CALLER PUSH1 0x0 DUP1 SWAP1 SLOAD SWAP1 PUSH2 0x100 EXP SWAP1 DIV PUSH20 0xFFFFFFFFFFFFFFFFFFFFFFFFFFFFFFFFFFFFFFFF AND PUSH1 0xA PUSH1 0x40 MLOAD DUP5 PUSH4 0xFFFFFFFF AND PUSH1 0xE0 SHL DUP2 MSTORE PUSH1 0x4 ADD PUSH2 0x1F3B SWAP4 SWAP3 SWAP2 SWAP1 PUSH2 0x3264 JUMP JUMPDEST PUSH1 0x20 PUSH1 0x40 MLOAD DUP1 DUP4 SUB DUP2 PUSH1 0x0 DUP8 DUP1 EXTCODESIZE ISZERO DUP1 ISZERO PUSH2 0x1F55 JUMPI PUSH1 0x0 DUP1 REVERT JUMPDEST POP GAS CALL ISZERO DUP1 ISZERO PUSH2 0x1F69 JUMPI RETURNDATASIZE PUSH1 0x0 DUP1 RETURNDATACOPY RETURNDATASIZE PUSH1 0x0 REVERT JUMPDEST POP POP POP POP PUSH1 0x40 MLOAD RETURNDATASIZE PUSH1 0x1F NOT PUSH1 0x1F DUP3 ADD AND DUP3 ADD DUP1 PUSH1 0x40 MSTORE POP PUSH2 0x1F8D SWAP2 SWAP1 DUP2 ADD SWAP1 PUSH2 0x2BCA JUMP JUMPDEST PUSH2 0x1FCC JUMPI PUSH1 0x40 MLOAD PUSH32 0x8C379A000000000000000000000000000000000000000000000000000000000 DUP2 MSTORE PUSH1 0x4 ADD PUSH2 0x1FC3 SWAP1 PUSH2 0x34A4 JUMP JUMPDEST PUSH1 0x40 MLOAD DUP1 SWAP2 SUB SWAP1 REVERT JUMPDEST PUSH1 0x7 PUSH1 0x0 DUP4 DUP2 MSTORE PUSH1 0x20 ADD SWAP1 DUP2 MSTORE PUSH1 0x20 ADD PUSH1 0x0 KECCAK256 PUSH1 0x40 MLOAD DUP1 PUSH2 0x100 ADD PUSH1 0x40 MSTORE SWAP1 DUP2 PUSH1 0x0 DUP3 ADD SLOAD DUP2 MSTORE PUSH1 0x20 ADD PUSH1 0x1 DUP3 ADD DUP1 SLOAD PUSH1 0x1 DUP2 PUSH1 0x1 AND ISZERO PUSH2 0x100 MUL SUB AND PUSH1 0x2 SWAP1 DIV DUP1 PUSH1 0x1F ADD PUSH1 0x20 DUP1 SWAP2 DIV MUL PUSH1 0x20 ADD PUSH1 0x40 MLOAD SWAP1 DUP2 ADD PUSH1 0x40 MSTORE DUP1 SWAP3 SWAP2 SWAP1 DUP2 DUP2 MSTORE PUSH1 0x20 ADD DUP3 DUP1 SLOAD PUSH1 0x1 DUP2 PUSH1 0x1 AND ISZERO PUSH2 0x100 MUL SUB AND PUSH1 0x2 SWAP1 DIV DUP1 ISZERO PUSH2 0x208E JUMPI DUP1 PUSH1 0x1F LT PUSH2 0x2063 JUMPI PUSH2 0x100 DUP1 DUP4 SLOAD DIV MUL DUP4 MSTORE SWAP2 PUSH1 0x20 ADD SWAP2 PUSH2 0x208E JUMP JUMPDEST DUP3 ADD SWAP2 SWAP1 PUSH1 0x0 MSTORE PUSH1 0x20 PUSH1 0x0 KECCAK256 SWAP1 JUMPDEST DUP2 SLOAD DUP2 MSTORE SWAP1 PUSH1 0x1 ADD SWAP1 PUSH1 0x20 ADD DUP1 DUP4 GT PUSH2 0x2071 JUMPI DUP3 SWAP1 SUB PUSH1 0x1F AND DUP3 ADD SWAP2 JUMPDEST POP POP POP POP POP DUP2 MSTORE PUSH1 0x20 ADD PUSH1 0x2 DUP3 ADD SLOAD DUP2 MSTORE PUSH1 0x20 ADD PUSH1 0x3 DUP3 ADD DUP1 SLOAD PUSH1 0x1 DUP2 PUSH1 0x1 AND ISZERO PUSH2 0x100 MUL SUB AND PUSH1 0x2 SWAP1 DIV DUP1 PUSH1 0x1F ADD PUSH1 0x20 DUP1 SWAP2 DIV MUL PUSH1 0x20 ADD PUSH1 0x40 MLOAD SWAP1 DUP2 ADD PUSH1 0x40 MSTORE DUP1 SWAP3 SWAP2 SWAP1 DUP2 DUP2 MSTORE PUSH1 0x20 ADD DUP3 DUP1 SLOAD PUSH1 0x1 DUP2 PUSH1 0x1 AND ISZERO PUSH2 0x100 MUL SUB AND PUSH1 0x2 SWAP1 DIV DUP1 ISZERO PUSH2 0x213A JUMPI DUP1 PUSH1 0x1F LT PUSH2 0x210F JUMPI PUSH2 0x100 DUP1 DUP4 SLOAD DIV MUL DUP4 MSTORE SWAP2 PUSH1 0x20 ADD SWAP2 PUSH2 0x213A JUMP JUMPDEST DUP3 ADD SWAP2 SWAP1 PUSH1 0x0 MSTORE PUSH1 0x20 PUSH1 0x0 KECCAK256 SWAP1 JUMPDEST DUP2 SLOAD DUP2 MSTORE SWAP1 PUSH1 0x1 ADD SWAP1 PUSH1 0x20 ADD DUP1 DUP4 GT PUSH2 0x211D JUMPI DUP3 SWAP1 SUB PUSH1 0x1F AND DUP3 ADD SWAP2 JUMPDEST POP POP POP POP POP DUP2 MSTORE PUSH1 0x20 ADD PUSH1 0x4 DUP3 ADD DUP1 SLOAD PUSH1 0x1 DUP2 PUSH1 0x1 AND ISZERO PUSH2 0x100 MUL SUB AND PUSH1 0x2 SWAP1 DIV DUP1 PUSH1 0x1F ADD PUSH1 0x20 DUP1 SWAP2 DIV MUL PUSH1 0x20 ADD PUSH1 0x40 MLOAD SWAP1 DUP2 ADD PUSH1 0x40 MSTORE DUP1 SWAP3 SWAP2 SWAP1 DUP2 DUP2 MSTORE PUSH1 0x20 ADD DUP3 DUP1 SLOAD PUSH1 0x1 DUP2 PUSH1 0x1 AND ISZERO PUSH2 0x100 MUL SUB AND PUSH1 0x2 SWAP1 DIV DUP1 ISZERO PUSH2 0x21DC JUMPI DUP1 PUSH1 0x1F LT PUSH2 0x21B1 JUMPI PUSH2 0x100 DUP1 DUP4 SLOAD DIV MUL DUP4 MSTORE SWAP2 PUSH1 0x20 ADD SWAP2 PUSH2 0x21DC JUMP JUMPDEST DUP3 ADD SWAP2 SWAP1 PUSH1 0x0 MSTORE PUSH1 0x20 PUSH1 0x0 KECCAK256 SWAP1 JUMPDEST DUP2 SLOAD DUP2 MSTORE SWAP1 PUSH1 0x1 ADD SWAP1 PUSH1 0x20 ADD DUP1 DUP4 GT PUSH2 0x21BF JUMPI DUP3 SWAP1 SUB PUSH1 0x1F AND DUP3 ADD SWAP2 JUMPDEST POP POP POP POP POP DUP2 MSTORE PUSH1 0x20 ADD PUSH1 0x5 DUP3 ADD DUP1 SLOAD PUSH1 0x1 DUP2 PUSH1 0x1 AND ISZERO PUSH2 0x100 MUL SUB AND PUSH1 0x2 SWAP1 DIV DUP1 PUSH1 0x1F ADD PUSH1 0x20 DUP1 SWAP2 DIV MUL PUSH1 0x20 ADD PUSH1 0x40 MLOAD SWAP1 DUP2 ADD PUSH1 0x40 MSTORE DUP1 SWAP3 SWAP2 SWAP1 DUP2 DUP2 MSTORE PUSH1 0x20 ADD DUP3 DUP1 SLOAD PUSH1 0x1 DUP2 PUSH1 0x1 AND ISZERO PUSH2 0x100 MUL SUB AND PUSH1 0x2 SWAP1 DIV DUP1 ISZERO PUSH2 0x227E JUMPI DUP1 PUSH1 0x1F LT PUSH2 0x2253 JUMPI PUSH2 0x100 DUP1 DUP4 SLOAD DIV MUL DUP4 MSTORE SWAP2 PUSH1 0x20 ADD SWAP2 PUSH2 0x227E JUMP JUMPDEST DUP3 ADD SWAP2 SWAP1 PUSH1 0x0 MSTORE PUSH1 0x20 PUSH1 0x0 KECCAK256 SWAP1 JUMPDEST DUP2 SLOAD DUP2 MSTORE SWAP1 PUSH1 0x1 ADD SWAP1 PUSH1 0x20 ADD DUP1 DUP4 GT PUSH2 0x2261 JUMPI DUP3 SWAP1 SUB PUSH1 0x1F AND DUP3 ADD SWAP2 JUMPDEST POP POP POP POP POP DUP2 MSTORE PUSH1 0x20 ADD PUSH1 0x6 DUP3 ADD DUP1 SLOAD PUSH1 0x1 DUP2 PUSH1 0x1 AND ISZERO PUSH2 0x100 MUL SUB AND PUSH1 0x2 SWAP1 DIV DUP1 PUSH1 0x1F ADD PUSH1 0x20 DUP1 SWAP2 DIV MUL PUSH1 0x20 ADD PUSH1 0x40 MLOAD SWAP1 DUP2 ADD PUSH1 0x40 MSTORE DUP1 SWAP3 SWAP2 SWAP1 DUP2 DUP2 MSTORE PUSH1 0x20 ADD DUP3 DUP1 SLOAD PUSH1 0x1 DUP2 PUSH1 0x1 AND ISZERO PUSH2 0x100 MUL SUB AND PUSH1 0x2 SWAP1 DIV DUP1 ISZERO PUSH2 0x2320 JUMPI DUP1 PUSH1 0x1F LT PUSH2 0x22F5 JUMPI PUSH2 0x100 DUP1 DUP4 SLOAD DIV MUL DUP4 MSTORE SWAP2 PUSH1 0x20 ADD SWAP2 PUSH2 0x2320 JUMP JUMPDEST DUP3 ADD SWAP2 SWAP1 PUSH1 0x0 MSTORE PUSH1 0x20 PUSH1 0x0 KECCAK256 SWAP1 JUMPDEST DUP2 SLOAD DUP2 MSTORE SWAP1 PUSH1 0x1 ADD SWAP1 PUSH1 0x20 ADD DUP1 DUP4 GT PUSH2 0x2303 JUMPI DUP3 SWAP1 SUB PUSH1 0x1F AND DUP3 ADD SWAP2 JUMPDEST POP POP POP POP POP DUP2 MSTORE PUSH1 0x20 ADD PUSH1 0x7 DUP3 ADD SLOAD DUP2 MSTORE POP POP SWAP1 POP SWAP2 SWAP1 POP JUMP JUMPDEST PUSH2 0x2342 PUSH2 0x2A08 JUMP JUMPDEST DUP2 DUP2 PUSH1 0x0 ADD DUP2 SWAP1 MSTORE POP PUSH2 0x2355 DUP2 CALLER PUSH2 0x2729 JUMP JUMPDEST POP POP JUMP JUMPDEST PUSH1 0xA SLOAD DUP2 JUMP JUMPDEST PUSH1 0x1 PUSH1 0xB PUSH1 0x0 DUP3 DUP3 SLOAD ADD SWAP3 POP POP DUP2 SWAP1 SSTORE POP DUP1 PUSH1 0x7 PUSH1 0x0 PUSH1 0xB SLOAD DUP2 MSTORE PUSH1 0x20 ADD SWAP1 DUP2 MSTORE PUSH1 0x20 ADD PUSH1 0x0 KECCAK256 PUSH1 0x0 DUP3 ADD MLOAD DUP2 PUSH1 0x0 ADD SSTORE PUSH1 0x20 DUP3 ADD MLOAD DUP2 PUSH1 0x1 ADD SWAP1 DUP1 MLOAD SWAP1 PUSH1 0x20 ADD SWAP1 PUSH2 0x23AC SWAP3 SWAP2 SWAP1 PUSH2 0x2A54 JUMP JUMPDEST POP PUSH1 0x40 DUP3 ADD MLOAD DUP2 PUSH1 0x2 ADD SSTORE PUSH1 0x60 DUP3 ADD MLOAD DUP2 PUSH1 0x3 ADD SWAP1 DUP1 MLOAD SWAP1 PUSH1 0x20 ADD SWAP1 PUSH2 0x23D3 SWAP3 SWAP2 SWAP1 PUSH2 0x2A54 JUMP JUMPDEST POP PUSH1 0x80 DUP3 ADD MLOAD DUP2 PUSH1 0x4 ADD SWAP1 DUP1 MLOAD SWAP1 PUSH1 0x20 ADD SWAP1 PUSH2 0x23F0 SWAP3 SWAP2 SWAP1 PUSH2 0x2A54 JUMP JUMPDEST POP PUSH1 0xA0 DUP3 ADD MLOAD DUP2 PUSH1 0x5 ADD SWAP1 DUP1 MLOAD SWAP1 PUSH1 0x20 ADD SWAP1 PUSH2 0x240D SWAP3 SWAP2 SWAP1 PUSH2 0x2A54 JUMP JUMPDEST POP PUSH1 0xC0 DUP3 ADD MLOAD DUP2 PUSH1 0x6 ADD SWAP1 DUP1 MLOAD SWAP1 PUSH1 0x20 ADD SWAP1 PUSH2 0x242A SWAP3 SWAP2 SWAP1 PUSH2 0x2A54 JUMP JUMPDEST POP PUSH1 0xE0 DUP3 ADD MLOAD DUP2 PUSH1 0x7 ADD SSTORE SWAP1 POP POP POP JUMP JUMPDEST PUSH1 0x1 PUSH1 0x8 PUSH1 0x0 DUP3 DUP3 SLOAD ADD SWAP3 POP POP DUP2 SWAP1 SSTORE POP DUP2 PUSH1 0x2 PUSH1 0x0 PUSH1 0x8 SLOAD DUP2 MSTORE PUSH1 0x20 ADD SWAP1 DUP2 MSTORE PUSH1 0x20 ADD PUSH1 0x0 KECCAK256 PUSH1 0x0 DUP3 ADD MLOAD DUP2 PUSH1 0x0 ADD SWAP1 DUP1 MLOAD SWAP1 PUSH1 0x20 ADD SWAP1 PUSH2 0x247E SWAP3 SWAP2 SWAP1 PUSH2 0x2A54 JUMP JUMPDEST POP PUSH1 0x20 DUP3 ADD MLOAD DUP2 PUSH1 0x1 ADD SWAP1 DUP1 MLOAD SWAP1 PUSH1 0x20 ADD SWAP1 PUSH2 0x249B SWAP3 SWAP2 SWAP1 PUSH2 0x2A54 JUMP JUMPDEST POP PUSH1 0x40 DUP3 ADD MLOAD DUP2 PUSH1 0x2 ADD SWAP1 DUP1 MLOAD SWAP1 PUSH1 0x20 ADD SWAP1 PUSH2 0x24B8 SWAP3 SWAP2 SWAP1 PUSH2 0x2A54 JUMP JUMPDEST POP PUSH1 0x60 DUP3 ADD MLOAD DUP2 PUSH1 0x3 ADD SWAP1 DUP1 MLOAD SWAP1 PUSH1 0x20 ADD SWAP1 PUSH2 0x24D5 SWAP3 SWAP2 SWAP1 PUSH2 0x2A54 JUMP JUMPDEST POP PUSH1 0x80 DUP3 ADD MLOAD DUP2 PUSH1 0x4 ADD SWAP1 DUP1 MLOAD SWAP1 PUSH1 0x20 ADD SWAP1 PUSH2 0x24F2 SWAP3 SWAP2 SWAP1 PUSH2 0x2A54 JUMP JUMPDEST POP PUSH1 0xA0 DUP3 ADD MLOAD DUP2 PUSH1 0x5 ADD SSTORE SWAP1 POP POP PUSH1 0x8 SLOAD PUSH1 0x3 PUSH1 0x0 DUP4 PUSH20 0xFFFFFFFFFFFFFFFFFFFFFFFFFFFFFFFFFFFFFFFF AND PUSH20 0xFFFFFFFFFFFFFFFFFFFFFFFFFFFFFFFFFFFFFFFF AND DUP2 MSTORE PUSH1 0x20 ADD SWAP1 DUP2 MSTORE PUSH1 0x20 ADD PUSH1 0x0 KECCAK256 DUP2 SWAP1 SSTORE POP POP POP JUMP JUMPDEST PUSH1 0x1 PUSH1 0x9 PUSH1 0x0 DUP3 DUP3 SLOAD ADD SWAP3 POP POP DUP2 SWAP1 SSTORE POP DUP1 PUSH1 0x4 PUSH1 0x0 PUSH1 0x9 SLOAD DUP2 MSTORE PUSH1 0x20 ADD SWAP1 DUP2 MSTORE PUSH1 0x20 ADD PUSH1 0x0 KECCAK256 PUSH1 0x0 DUP3 ADD MLOAD DUP2 PUSH1 0x0 ADD SWAP1 DUP1 MLOAD SWAP1 PUSH1 0x20 ADD SWAP1 PUSH2 0x258D SWAP3 SWAP2 SWAP1 PUSH2 0x2A54 JUMP JUMPDEST POP PUSH1 0x20 DUP3 ADD MLOAD DUP2 PUSH1 0x1 ADD SWAP1 DUP1 MLOAD SWAP1 PUSH1 0x20 ADD SWAP1 PUSH2 0x25AA SWAP3 SWAP2 SWAP1 PUSH2 0x2A54 JUMP JUMPDEST POP PUSH1 0x40 DUP3 ADD MLOAD DUP2 PUSH1 0x2 ADD SWAP1 DUP1 MLOAD SWAP1 PUSH1 0x20 ADD SWAP1 PUSH2 0x25C7 SWAP3 SWAP2 SWAP1 PUSH2 0x2A54 JUMP JUMPDEST POP PUSH1 0x60 DUP3 ADD MLOAD DUP2 PUSH1 0x3 ADD SWAP1 DUP1 MLOAD SWAP1 PUSH1 0x20 ADD SWAP1 PUSH2 0x25E4 SWAP3 SWAP2 SWAP1 PUSH2 0x2A54 JUMP JUMPDEST POP PUSH1 0x80 DUP3 ADD MLOAD DUP2 PUSH1 0x4 ADD SWAP1 DUP1 MLOAD SWAP1 PUSH1 0x20 ADD SWAP1 PUSH2 0x2601 SWAP3 SWAP2 SWAP1 PUSH2 0x2A54 JUMP JUMPDEST POP PUSH1 0xA0 DUP3 ADD MLOAD DUP2 PUSH1 0x5 ADD SWAP1 DUP1 MLOAD SWAP1 PUSH1 0x20 ADD SWAP1 PUSH2 0x261E SWAP3 SWAP2 SWAP1 PUSH2 0x2A54 JUMP JUMPDEST POP PUSH1 0xC0 DUP3 ADD MLOAD DUP2 PUSH1 0x6 ADD SWAP1 DUP1 MLOAD SWAP1 PUSH1 0x20 ADD SWAP1 PUSH2 0x263B SWAP3 SWAP2 SWAP1 PUSH2 0x2A54 JUMP JUMPDEST POP PUSH1 0xE0 DUP3 ADD MLOAD DUP2 PUSH1 0x7 ADD SWAP1 DUP1 MLOAD SWAP1 PUSH1 0x20 ADD SWAP1 PUSH2 0x2658 SWAP3 SWAP2 SWAP1 PUSH2 0x2A54 JUMP JUMPDEST POP PUSH2 0x100 DUP3 ADD MLOAD DUP2 PUSH1 0x8 ADD SWAP1 DUP1 MLOAD SWAP1 PUSH1 0x20 ADD SWAP1 PUSH2 0x2676 SWAP3 SWAP2 SWAP1 PUSH2 0x2A54 JUMP JUMPDEST POP PUSH2 0x120 DUP3 ADD MLOAD DUP2 PUSH1 0x9 ADD SWAP1 DUP1 MLOAD SWAP1 PUSH1 0x20 ADD SWAP1 PUSH2 0x2694 SWAP3 SWAP2 SWAP1 PUSH2 0x2A54 JUMP JUMPDEST POP PUSH2 0x140 DUP3 ADD MLOAD DUP2 PUSH1 0xA ADD SWAP1 DUP1 MLOAD SWAP1 PUSH1 0x20 ADD SWAP1 PUSH2 0x26B2 SWAP3 SWAP2 SWAP1 PUSH2 0x2A54 JUMP JUMPDEST POP PUSH2 0x160 DUP3 ADD MLOAD DUP2 PUSH1 0xB ADD SWAP1 DUP1 MLOAD SWAP1 PUSH1 0x20 ADD SWAP1 PUSH2 0x26D0 SWAP3 SWAP2 SWAP1 PUSH2 0x2A54 JUMP JUMPDEST POP PUSH2 0x180 DUP3 ADD MLOAD DUP2 PUSH1 0xC ADD SWAP1 DUP1 MLOAD SWAP1 PUSH1 0x20 ADD SWAP1 PUSH2 0x26EE SWAP3 SWAP2 SWAP1 PUSH2 0x2A54 JUMP JUMPDEST POP PUSH2 0x1A0 DUP3 ADD MLOAD DUP2 PUSH1 0xD ADD SSTORE PUSH2 0x1C0 DUP3 ADD MLOAD DUP2 PUSH1 0xE ADD SSTORE PUSH2 0x1E0 DUP3 ADD MLOAD DUP2 PUSH1 0xF ADD SWAP1 DUP1 MLOAD SWAP1 PUSH1 0x20 ADD SWAP1 PUSH2 0x2722 SWAP3 SWAP2 SWAP1 PUSH2 0x2A54 JUMP JUMPDEST POP SWAP1 POP POP POP JUMP JUMPDEST PUSH1 0x1 PUSH1 0xA PUSH1 0x0 DUP3 DUP3 SLOAD ADD SWAP3 POP POP DUP2 SWAP1 SSTORE POP DUP2 PUSH1 0x5 PUSH1 0x0 PUSH1 0xA SLOAD DUP2 MSTORE PUSH1 0x20 ADD SWAP1 DUP2 MSTORE PUSH1 0x20 ADD PUSH1 0x0 KECCAK256 PUSH1 0x0 DUP3 ADD MLOAD DUP2 PUSH1 0x0 ADD SWAP1 DUP1 MLOAD SWAP1 PUSH1 0x20 ADD SWAP1 PUSH2 0x276C SWAP3 SWAP2 SWAP1 PUSH2 0x2A54 JUMP JUMPDEST POP PUSH1 0x20 DUP3 ADD MLOAD DUP2 PUSH1 0x1 ADD SWAP1 DUP1 MLOAD SWAP1 PUSH1 0x20 ADD SWAP1 PUSH2 0x2789 SWAP3 SWAP2 SWAP1 PUSH2 0x2A54 JUMP JUMPDEST POP PUSH1 0x40 DUP3 ADD MLOAD DUP2 PUSH1 0x2 ADD SSTORE PUSH1 0x60 DUP3 ADD MLOAD DUP2 PUSH1 0x3 ADD SWAP1 DUP1 MLOAD SWAP1 PUSH1 0x20 ADD SWAP1 PUSH2 0x27B0 SWAP3 SWAP2 SWAP1 PUSH2 0x2A54 JUMP JUMPDEST POP PUSH1 0x80 DUP3 ADD MLOAD DUP2 PUSH1 0x4 ADD SWAP1 DUP1 MLOAD SWAP1 PUSH1 0x20 ADD SWAP1 PUSH2 0x27CD SWAP3 SWAP2 SWAP1 PUSH2 0x2A54 JUMP JUMPDEST POP PUSH1 0xA0 DUP3 ADD MLOAD DUP2 PUSH1 0x5 ADD SWAP1 DUP1 MLOAD SWAP1 PUSH1 0x20 ADD SWAP1 PUSH2 0x27EA SWAP3 SWAP2 SWAP1 PUSH2 0x2A54 JUMP JUMPDEST POP PUSH1 0xC0 DUP3 ADD MLOAD DUP2 PUSH1 0x6 ADD SWAP1 DUP1 MLOAD SWAP1 PUSH1 0x20 ADD SWAP1 PUSH2 0x2807 SWAP3 SWAP2 SWAP1 PUSH2 0x2A54 JUMP JUMPDEST POP PUSH1 0xE0 DUP3 ADD MLOAD DUP2 PUSH1 0x7 ADD SWAP1 DUP1 MLOAD SWAP1 PUSH1 0x20 ADD SWAP1 PUSH2 0x2824 SWAP3 SWAP2 SWAP1 PUSH2 0x2A54 JUMP JUMPDEST POP PUSH2 0x100 DUP3 ADD MLOAD DUP2 PUSH1 0x8 ADD SWAP1 DUP1 MLOAD SWAP1 PUSH1 0x20 ADD SWAP1 PUSH2 0x2842 SWAP3 SWAP2 SWAP1 PUSH2 0x2A54 JUMP JUMPDEST POP SWAP1 POP POP PUSH1 0xA SLOAD PUSH1 0x6 PUSH1 0x0 DUP4 PUSH20 0xFFFFFFFFFFFFFFFFFFFFFFFFFFFFFFFFFFFFFFFF AND PUSH20 0xFFFFFFFFFFFFFFFFFFFFFFFFFFFFFFFFFFFFFFFF AND DUP2 MSTORE PUSH1 0x20 ADD SWAP1 DUP2 MSTORE PUSH1 0x20 ADD PUSH1 0x0 KECCAK256 DUP2 SWAP1 SSTORE POP POP POP JUMP JUMPDEST PUSH1 0x40 MLOAD DUP1 PUSH2 0x100 ADD PUSH1 0x40 MSTORE DUP1 PUSH1 0x0 DUP2 MSTORE PUSH1 0x20 ADD PUSH1 0x60 DUP2 MSTORE PUSH1 0x20 ADD PUSH1 0x0 DUP2 MSTORE PUSH1 0x20 ADD PUSH1 0x60 DUP2 MSTORE PUSH1 0x20 ADD PUSH1 0x60 DUP2 MSTORE PUSH1 0x20 ADD PUSH1 0x60 DUP2 MSTORE PUSH1 0x20 ADD PUSH1 0x60 DUP2 MSTORE PUSH1 0x20 ADD PUSH1 0x0 DUP2 MSTORE POP SWAP1 JUMP JUMPDEST DUP3 DUP1 SLOAD PUSH1 0x1 DUP2 PUSH1 0x1 AND ISZERO PUSH2 0x100 MUL SUB AND PUSH1 0x2 SWAP1 DIV SWAP1 PUSH1 0x0 MSTORE PUSH1 0x20 PUSH1 0x0 KECCAK256 SWAP1 PUSH1 0x1F ADD PUSH1 0x20 SWAP1 DIV DUP2 ADD SWAP3 DUP3 PUSH1 0x1F LT PUSH2 0x2916 JUMPI DUP1 MLOAD PUSH1 0xFF NOT AND DUP4 DUP1 ADD OR DUP6 SSTORE PUSH2 0x2944 JUMP JUMPDEST DUP3 DUP1 ADD PUSH1 0x1 ADD DUP6 SSTORE DUP3 ISZERO PUSH2 0x2944 JUMPI SWAP2 DUP3 ADD JUMPDEST DUP3 DUP2 GT ISZERO PUSH2 0x2943 JUMPI DUP3 MLOAD DUP3 SSTORE SWAP2 PUSH1 0x20 ADD SWAP2 SWAP1 PUSH1 0x1 ADD SWAP1 PUSH2 0x2928 JUMP JUMPDEST JUMPDEST POP SWAP1 POP PUSH2 0x2951 SWAP2 SWAP1 PUSH2 0x2AD4 JUMP JUMPDEST POP SWAP1 JUMP JUMPDEST PUSH1 0x40 MLOAD DUP1 PUSH1 0xC0 ADD PUSH1 0x40 MSTORE DUP1 PUSH1 0x60 DUP2 MSTORE PUSH1 0x20 ADD PUSH1 0x60 DUP2 MSTORE PUSH1 0x20 ADD PUSH1 0x60 DUP2 MSTORE PUSH1 0x20 ADD PUSH1 0x60 DUP2 MSTORE PUSH1 0x20 ADD PUSH1 0x60 DUP2 MSTORE PUSH1 0x20 ADD PUSH1 0x0 DUP2 MSTORE POP SWAP1 JUMP JUMPDEST PUSH1 0x40 MLOAD DUP1 PUSH2 0x200 ADD PUSH1 0x40 MSTORE DUP1 PUSH1 0x60 DUP2 MSTORE PUSH1 0x20 ADD PUSH1 0x60 DUP2 MSTORE PUSH1 0x20 ADD PUSH1 0x60 DUP2 MSTORE PUSH1 0x20 ADD PUSH1 0x60 DUP2 MSTORE PUSH1 0x20 ADD PUSH1 0x60 DUP2 MSTORE PUSH1 0x20 ADD PUSH1 0x60 DUP2 MSTORE PUSH1 0x20 ADD PUSH1 0x60 DUP2 MSTORE PUSH1 0x20 ADD PUSH1 0x60 DUP2 MSTORE PUSH1 0x20 ADD PUSH1 0x60 DUP2 MSTORE PUSH1 0x20 ADD PUSH1 0x60 DUP2 MSTORE PUSH1 0x20 ADD PUSH1 0x60 DUP2 MSTORE PUSH1 0x20 ADD PUSH1 0x60 DUP2 MSTORE PUSH1 0x20 ADD PUSH1 0x60 DUP2 MSTORE PUSH1 0x20 ADD PUSH1 0x0 DUP2 MSTORE PUSH1 0x20 ADD PUSH1 0x0 DUP2 MSTORE PUSH1 0x20 ADD PUSH1 0x60 DUP2 MSTORE POP SWAP1 JUMP JUMPDEST PUSH1 0x40 MLOAD DUP1 PUSH2 0x120 ADD PUSH1 0x40 MSTORE DUP1 PUSH1 0x60 DUP2 MSTORE PUSH1 0x20 ADD PUSH1 0x60 DUP2 MSTORE PUSH1 0x20 ADD PUSH1 0x0 DUP2 MSTORE PUSH1 0x20 ADD PUSH1 0x60 DUP2 MSTORE PUSH1 0x20 ADD PUSH1 0x60 DUP2 MSTORE PUSH1 0x20 ADD PUSH1 0x60 DUP2 MSTORE PUSH1 0x20 ADD PUSH1 0x60 DUP2 MSTORE PUSH1 0x20 ADD PUSH1 0x60 DUP2 MSTORE PUSH1 0x20 ADD PUSH1 0x60 DUP2 MSTORE POP SWAP1 JUMP JUMPDEST DUP3 DUP1 SLOAD PUSH1 0x1 DUP2 PUSH1 0x1 AND ISZERO PUSH2 0x100 MUL SUB AND PUSH1 0x2 SWAP1 DIV SWAP1 PUSH1 0x0 MSTORE PUSH1 0x20 PUSH1 0x0 KECCAK256 SWAP1 PUSH1 0x1F ADD PUSH1 0x20 SWAP1 DIV DUP2 ADD SWAP3 DUP3 PUSH1 0x1F LT PUSH2 0x2A95 JUMPI DUP1 MLOAD PUSH1 0xFF NOT AND DUP4 DUP1 ADD OR DUP6 SSTORE PUSH2 0x2AC3 JUMP JUMPDEST DUP3 DUP1 ADD PUSH1 0x1 ADD DUP6 SSTORE DUP3 ISZERO PUSH2 0x2AC3 JUMPI SWAP2 DUP3 ADD JUMPDEST DUP3 DUP2 GT ISZERO PUSH2 0x2AC2 JUMPI DUP3 MLOAD DUP3 SSTORE SWAP2 PUSH1 0x20 ADD SWAP2 SWAP1 PUSH1 0x1 ADD SWAP1 PUSH2 0x2AA7 JUMP JUMPDEST JUMPDEST POP SWAP1 POP PUSH2 0x2AD0 SWAP2 SWAP1 PUSH2 0x2AD4 JUMP JUMPDEST POP SWAP1 JUMP JUMPDEST PUSH2 0x2AF6 SWAP2 SWAP1 JUMPDEST DUP1 DUP3 GT ISZERO PUSH2 0x2AF2 JUMPI PUSH1 0x0 DUP2 PUSH1 0x0 SWAP1 SSTORE POP PUSH1 0x1 ADD PUSH2 0x2ADA JUMP JUMPDEST POP SWAP1 JUMP JUMPDEST SWAP1 JUMP JUMPDEST PUSH1 0x0 DUP2 CALLDATALOAD SWAP1 POP PUSH2 0x2B08 DUP2 PUSH2 0x373F JUMP JUMPDEST SWAP3 SWAP2 POP POP JUMP JUMPDEST PUSH1 0x0 DUP2 MLOAD SWAP1 POP PUSH2 0x2B1D DUP2 PUSH2 0x3756 JUMP JUMPDEST SWAP3 SWAP2 POP POP JUMP JUMPDEST PUSH1 0x0 DUP3 PUSH1 0x1F DUP4 ADD SLT PUSH2 0x2B34 JUMPI PUSH1 0x0 DUP1 REVERT JUMPDEST DUP2 CALLDATALOAD PUSH2 0x2B47 PUSH2 0x2B42 DUP3 PUSH2 0x35F1 JUMP JUMPDEST PUSH2 0x35C4 JUMP JUMPDEST SWAP2 POP DUP1 DUP3 MSTORE PUSH1 0x20 DUP4 ADD PUSH1 0x20 DUP4 ADD DUP6 DUP4 DUP4 ADD GT ISZERO PUSH2 0x2B63 JUMPI PUSH1 0x0 DUP1 REVERT JUMPDEST PUSH2 0x2B6E DUP4 DUP3 DUP5 PUSH2 0x36EC JUMP JUMPDEST POP POP POP SWAP3 SWAP2 POP POP JUMP JUMPDEST PUSH1 0x0 DUP2 CALLDATALOAD SWAP1 POP PUSH2 0x2B86 DUP2 PUSH2 0x376D JUMP JUMPDEST SWAP3 SWAP2 POP POP JUMP JUMPDEST PUSH1 0x0 DUP2 MLOAD SWAP1 POP PUSH2 0x2B9B DUP2 PUSH2 0x376D JUMP JUMPDEST SWAP3 SWAP2 POP POP JUMP JUMPDEST PUSH1 0x0 PUSH1 0x20 DUP3 DUP5 SUB SLT ISZERO PUSH2 0x2BB3 JUMPI PUSH1 0x0 DUP1 REVERT JUMPDEST PUSH1 0x0 PUSH2 0x2BC1 DUP5 DUP3 DUP6 ADD PUSH2 0x2AF9 JUMP JUMPDEST SWAP2 POP POP SWAP3 SWAP2 POP POP JUMP JUMPDEST PUSH1 0x0 PUSH1 0x20 DUP3 DUP5 SUB SLT ISZERO PUSH2 0x2BDC JUMPI PUSH1 0x0 DUP1 REVERT JUMPDEST PUSH1 0x0 PUSH2 0x2BEA DUP5 DUP3 DUP6 ADD PUSH2 0x2B0E JUMP JUMPDEST SWAP2 POP POP SWAP3 SWAP2 POP POP JUMP JUMPDEST PUSH1 0x0 PUSH1 0x20 DUP3 DUP5 SUB SLT ISZERO PUSH2 0x2C05 JUMPI PUSH1 0x0 DUP1 REVERT JUMPDEST PUSH1 0x0 DUP3 ADD CALLDATALOAD PUSH8 0xFFFFFFFFFFFFFFFF DUP2 GT ISZERO PUSH2 0x2C1F JUMPI PUSH1 0x0 DUP1 REVERT JUMPDEST PUSH2 0x2C2B DUP5 DUP3 DUP6 ADD PUSH2 0x2B23 JUMP JUMPDEST SWAP2 POP POP SWAP3 SWAP2 POP POP JUMP JUMPDEST PUSH1 0x0 DUP1 PUSH1 0x40 DUP4 DUP6 SUB SLT ISZERO PUSH2 0x2C47 JUMPI PUSH1 0x0 DUP1 REVERT JUMPDEST PUSH1 0x0 DUP4 ADD CALLDATALOAD PUSH8 0xFFFFFFFFFFFFFFFF DUP2 GT ISZERO PUSH2 0x2C61 JUMPI PUSH1 0x0 DUP1 REVERT JUMPDEST PUSH2 0x2C6D DUP6 DUP3 DUP7 ADD PUSH2 0x2B23 JUMP JUMPDEST SWAP3 POP POP PUSH1 0x20 DUP4 ADD CALLDATALOAD PUSH8 0xFFFFFFFFFFFFFFFF DUP2 GT ISZERO PUSH2 0x2C8A JUMPI PUSH1 0x0 DUP1 REVERT JUMPDEST PUSH2 0x2C96 DUP6 DUP3 DUP7 ADD PUSH2 0x2B23 JUMP JUMPDEST SWAP2 POP POP SWAP3 POP SWAP3 SWAP1 POP JUMP JUMPDEST PUSH1 0x0 PUSH1 0x20 DUP3 DUP5 SUB SLT ISZERO PUSH2 0x2CB2 JUMPI PUSH1 0x0 DUP1 REVERT JUMPDEST PUSH1 0x0 PUSH2 0x2CC0 DUP5 DUP3 DUP6 ADD PUSH2 0x2B77 JUMP JUMPDEST SWAP2 POP POP SWAP3 SWAP2 POP POP JUMP JUMPDEST PUSH1 0x0 PUSH1 0x20 DUP3 DUP5 SUB SLT ISZERO PUSH2 0x2CDB JUMPI PUSH1 0x0 DUP1 REVERT JUMPDEST PUSH1 0x0 PUSH2 0x2CE9 DUP5 DUP3 DUP6 ADD PUSH2 0x2B8C JUMP JUMPDEST SWAP2 POP POP SWAP3 SWAP2 POP POP JUMP JUMPDEST PUSH1 0x0 DUP1 PUSH1 0x0 DUP1 PUSH1 0x0 DUP1 PUSH1 0x0 PUSH1 0xE0 DUP9 DUP11 SUB SLT ISZERO PUSH2 0x2D0D JUMPI PUSH1 0x0 DUP1 REVERT JUMPDEST PUSH1 0x0 PUSH2 0x2D1B DUP11 DUP3 DUP12 ADD PUSH2 0x2B77 JUMP JUMPDEST SWAP8 POP POP PUSH1 0x20 DUP9 ADD CALLDATALOAD PUSH8 0xFFFFFFFFFFFFFFFF DUP2 GT ISZERO PUSH2 0x2D38 JUMPI PUSH1 0x0 DUP1 REVERT JUMPDEST PUSH2 0x2D44 DUP11 DUP3 DUP12 ADD PUSH2 0x2B23 JUMP JUMPDEST SWAP7 POP POP PUSH1 0x40 DUP9 ADD CALLDATALOAD PUSH8 0xFFFFFFFFFFFFFFFF DUP2 GT ISZERO PUSH2 0x2D61 JUMPI PUSH1 0x0 DUP1 REVERT JUMPDEST PUSH2 0x2D6D DUP11 DUP3 DUP12 ADD PUSH2 0x2B23 JUMP JUMPDEST SWAP6 POP POP PUSH1 0x60 DUP9 ADD CALLDATALOAD PUSH8 0xFFFFFFFFFFFFFFFF DUP2 GT ISZERO PUSH2 0x2D8A JUMPI PUSH1 0x0 DUP1 REVERT JUMPDEST PUSH2 0x2D96 DUP11 DUP3 DUP12 ADD PUSH2 0x2B23 JUMP JUMPDEST SWAP5 POP POP PUSH1 0x80 PUSH2 0x2DA7 DUP11 DUP3 DUP12 ADD PUSH2 0x2B77 JUMP JUMPDEST SWAP4 POP POP PUSH1 0xA0 PUSH2 0x2DB8 DUP11 DUP3 DUP12 ADD PUSH2 0x2B77 JUMP JUMPDEST SWAP3 POP POP PUSH1 0xC0 DUP9 ADD CALLDATALOAD PUSH8 0xFFFFFFFFFFFFFFFF DUP2 GT ISZERO PUSH2 0x2DD5 JUMPI PUSH1 0x0 DUP1 REVERT JUMPDEST PUSH2 0x2DE1 DUP11 DUP3 DUP12 ADD PUSH2 0x2B23 JUMP JUMPDEST SWAP2 POP POP SWAP3 SWAP6 SWAP9 SWAP2 SWAP5 SWAP8 POP SWAP3 SWAP6 POP JUMP JUMPDEST PUSH2 0x2DF9 DUP2 PUSH2 0x3692 JUMP JUMPDEST DUP3 MSTORE POP POP JUMP JUMPDEST PUSH2 0x2E08 DUP2 PUSH2 0x364A JUMP JUMPDEST DUP3 MSTORE POP POP JUMP JUMPDEST PUSH2 0x2E17 DUP2 PUSH2 0x36A4 JUMP JUMPDEST DUP3 MSTORE POP POP JUMP JUMPDEST PUSH2 0x2E26 DUP2 PUSH2 0x36B6 JUMP JUMPDEST DUP3 MSTORE POP POP JUMP JUMPDEST PUSH1 0x0 PUSH2 0x2E37 DUP3 PUSH2 0x361D JUMP JUMPDEST PUSH2 0x2E41 DUP2 DUP6 PUSH2 0x3628 JUMP JUMPDEST SWAP4 POP PUSH2 0x2E51 DUP2 DUP6 PUSH1 0x20 DUP7 ADD PUSH2 0x36FB JUMP JUMPDEST PUSH2 0x2E5A DUP2 PUSH2 0x372E JUMP JUMPDEST DUP5 ADD SWAP2 POP POP SWAP3 SWAP2 POP POP JUMP JUMPDEST PUSH1 0x0 PUSH2 0x2E70 DUP3 PUSH2 0x361D JUMP JUMPDEST PUSH2 0x2E7A DUP2 DUP6 PUSH2 0x3639 JUMP JUMPDEST SWAP4 POP PUSH2 0x2E8A DUP2 DUP6 PUSH1 0x20 DUP7 ADD PUSH2 0x36FB JUMP JUMPDEST PUSH2 0x2E93 DUP2 PUSH2 0x372E JUMP JUMPDEST DUP5 ADD SWAP2 POP POP SWAP3 SWAP2 POP POP JUMP JUMPDEST PUSH1 0x0 PUSH2 0x2EAB PUSH1 0x10 DUP4 PUSH2 0x3639 JUMP JUMPDEST SWAP2 POP PUSH32 0x6E6F7420657461626C6973656D656E7400000000000000000000000000000000 PUSH1 0x0 DUP4 ADD MSTORE PUSH1 0x20 DUP3 ADD SWAP1 POP SWAP2 SWAP1 POP JUMP JUMPDEST PUSH1 0x0 PUSH2 0x2EEB PUSH1 0x11 DUP4 PUSH2 0x3639 JUMP JUMPDEST SWAP2 POP PUSH32 0x746F6B656E206E6F7420616C6C6F776564000000000000000000000000000000 PUSH1 0x0 DUP4 ADD MSTORE PUSH1 0x20 DUP3 ADD SWAP1 POP SWAP2 SWAP1 POP JUMP JUMPDEST PUSH1 0x0 PUSH2 0x2F2B PUSH1 0xE DUP4 PUSH2 0x3639 JUMP JUMPDEST SWAP2 POP PUSH32 0x6E6F20456E747265707269736573000000000000000000000000000000000000 PUSH1 0x0 DUP4 ADD MSTORE PUSH1 0x20 DUP3 ADD SWAP1 POP SWAP2 SWAP1 POP JUMP JUMPDEST PUSH1 0x0 PUSH2 0x2F6B PUSH1 0xE DUP4 PUSH2 0x3639 JUMP JUMPDEST SWAP2 POP PUSH32 0x7472616E7366657274206661696C000000000000000000000000000000000000 PUSH1 0x0 DUP4 ADD MSTORE PUSH1 0x20 DUP3 ADD SWAP1 POP SWAP2 SWAP1 POP JUMP JUMPDEST PUSH1 0x0 PUSH2 0x100 DUP4 ADD PUSH1 0x0 DUP4 ADD MLOAD PUSH2 0x2FB7 PUSH1 0x0 DUP7 ADD DUP3 PUSH2 0x321D JUMP JUMPDEST POP PUSH1 0x20 DUP4 ADD MLOAD DUP5 DUP3 SUB PUSH1 0x20 DUP7 ADD MSTORE PUSH2 0x2FCF DUP3 DUP3 PUSH2 0x2E2C JUMP JUMPDEST SWAP2 POP POP PUSH1 0x40 DUP4 ADD MLOAD PUSH2 0x2FE4 PUSH1 0x40 DUP7 ADD DUP3 PUSH2 0x321D JUMP JUMPDEST POP PUSH1 0x60 DUP4 ADD MLOAD DUP5 DUP3 SUB PUSH1 0x60 DUP7 ADD MSTORE PUSH2 0x2FFC DUP3 DUP3 PUSH2 0x2E2C JUMP JUMPDEST SWAP2 POP POP PUSH1 0x80 DUP4 ADD MLOAD DUP5 DUP3 SUB PUSH1 0x80 DUP7 ADD MSTORE PUSH2 0x3016 DUP3 DUP3 PUSH2 0x2E2C JUMP JUMPDEST SWAP2 POP POP PUSH1 0xA0 DUP4 ADD MLOAD DUP5 DUP3 SUB PUSH1 0xA0 DUP7 ADD MSTORE PUSH2 0x3030 DUP3 DUP3 PUSH2 0x2E2C JUMP JUMPDEST SWAP2 POP POP PUSH1 0xC0 DUP4 ADD MLOAD DUP5 DUP3 SUB PUSH1 0xC0 DUP7 ADD MSTORE PUSH2 0x304A DUP3 DUP3 PUSH2 0x2E2C JUMP JUMPDEST SWAP2 POP POP PUSH1 0xE0 DUP4 ADD MLOAD PUSH2 0x305F PUSH1 0xE0 DUP7 ADD DUP3 PUSH2 0x321D JUMP JUMPDEST POP DUP1 SWAP2 POP POP SWAP3 SWAP2 POP POP JUMP JUMPDEST PUSH1 0x0 PUSH2 0x200 DUP4 ADD PUSH1 0x0 DUP4 ADD MLOAD DUP5 DUP3 SUB PUSH1 0x0 DUP7 ADD MSTORE PUSH2 0x3088 DUP3 DUP3 PUSH2 0x2E2C JUMP JUMPDEST SWAP2 POP POP PUSH1 0x20 DUP4 ADD MLOAD DUP5 DUP3 SUB PUSH1 0x20 DUP7 ADD MSTORE PUSH2 0x30A2 DUP3 DUP3 PUSH2 0x2E2C JUMP JUMPDEST SWAP2 POP POP PUSH1 0x40 DUP4 ADD MLOAD DUP5 DUP3 SUB PUSH1 0x40 DUP7 ADD MSTORE PUSH2 0x30BC DUP3 DUP3 PUSH2 0x2E2C JUMP JUMPDEST SWAP2 POP POP PUSH1 0x60 DUP4 ADD MLOAD DUP5 DUP3 SUB PUSH1 0x60 DUP7 ADD MSTORE PUSH2 0x30D6 DUP3 DUP3 PUSH2 0x2E2C JUMP JUMPDEST SWAP2 POP POP PUSH1 0x80 DUP4 ADD MLOAD DUP5 DUP3 SUB PUSH1 0x80 DUP7 ADD MSTORE PUSH2 0x30F0 DUP3 DUP3 PUSH2 0x2E2C JUMP JUMPDEST SWAP2 POP POP PUSH1 0xA0 DUP4 ADD MLOAD DUP5 DUP3 SUB PUSH1 0xA0 DUP7 ADD MSTORE PUSH2 0x310A DUP3 DUP3 PUSH2 0x2E2C JUMP JUMPDEST SWAP2 POP POP PUSH1 0xC0 DUP4 ADD MLOAD DUP5 DUP3 SUB PUSH1 0xC0 DUP7 ADD MSTORE PUSH2 0x3124 DUP3 DUP3 PUSH2 0x2E2C JUMP JUMPDEST SWAP2 POP POP PUSH1 0xE0 DUP4 ADD MLOAD DUP5 DUP3 SUB PUSH1 0xE0 DUP7 ADD MSTORE PUSH2 0x313E DUP3 DUP3 PUSH2 0x2E2C JUMP JUMPDEST SWAP2 POP POP PUSH2 0x100 DUP4 ADD MLOAD DUP5 DUP3 SUB PUSH2 0x100 DUP7 ADD MSTORE PUSH2 0x315A DUP3 DUP3 PUSH2 0x2E2C JUMP JUMPDEST SWAP2 POP POP PUSH2 0x120 DUP4 ADD MLOAD DUP5 DUP3 SUB PUSH2 0x120 DUP7 ADD MSTORE PUSH2 0x3176 DUP3 DUP3 PUSH2 0x2E2C JUMP JUMPDEST SWAP2 POP POP PUSH2 0x140 DUP4 ADD MLOAD DUP5 DUP3 SUB PUSH2 0x140 DUP7 ADD MSTORE PUSH2 0x3192 DUP3 DUP3 PUSH2 0x2E2C JUMP JUMPDEST SWAP2 POP POP PUSH2 0x160 DUP4 ADD MLOAD DUP5 DUP3 SUB PUSH2 0x160 DUP7 ADD MSTORE PUSH2 0x31AE DUP3 DUP3 PUSH2 0x2E2C JUMP JUMPDEST SWAP2 POP POP PUSH2 0x180 DUP4 ADD MLOAD DUP5 DUP3 SUB PUSH2 0x180 DUP7 ADD MSTORE PUSH2 0x31CA DUP3 DUP3 PUSH2 0x2E2C JUMP JUMPDEST SWAP2 POP POP PUSH2 0x1A0 DUP4 ADD MLOAD PUSH2 0x31E1 PUSH2 0x1A0 DUP7 ADD DUP3 PUSH2 0x321D JUMP JUMPDEST POP PUSH2 0x1C0 DUP4 ADD MLOAD PUSH2 0x31F6 PUSH2 0x1C0 DUP7 ADD DUP3 PUSH2 0x321D JUMP JUMPDEST POP PUSH2 0x1E0 DUP4 ADD MLOAD DUP5 DUP3 SUB PUSH2 0x1E0 DUP7 ADD MSTORE PUSH2 0x3210 DUP3 DUP3 PUSH2 0x2E2C JUMP JUMPDEST SWAP2 POP POP DUP1 SWAP2 POP POP SWAP3 SWAP2 POP POP JUMP JUMPDEST PUSH2 0x3226 DUP2 PUSH2 0x3688 JUMP JUMPDEST DUP3 MSTORE POP POP JUMP JUMPDEST PUSH2 0x3235 DUP2 PUSH2 0x3688 JUMP JUMPDEST DUP3 MSTORE POP POP JUMP JUMPDEST PUSH1 0x0 PUSH1 0x40 DUP3 ADD SWAP1 POP PUSH2 0x3250 PUSH1 0x0 DUP4 ADD DUP6 PUSH2 0x2DF0 JUMP JUMPDEST PUSH2 0x325D PUSH1 0x20 DUP4 ADD DUP5 PUSH2 0x2DFF JUMP JUMPDEST SWAP4 SWAP3 POP POP POP JUMP JUMPDEST PUSH1 0x0 PUSH1 0x60 DUP3 ADD SWAP1 POP PUSH2 0x3279 PUSH1 0x0 DUP4 ADD DUP7 PUSH2 0x2DF0 JUMP JUMPDEST PUSH2 0x3286 PUSH1 0x20 DUP4 ADD DUP6 PUSH2 0x2DFF JUMP JUMPDEST PUSH2 0x3293 PUSH1 0x40 DUP4 ADD DUP5 PUSH2 0x2E0E JUMP JUMPDEST SWAP5 SWAP4 POP POP POP POP JUMP JUMPDEST PUSH1 0x0 PUSH1 0x40 DUP3 ADD SWAP1 POP PUSH2 0x32B0 PUSH1 0x0 DUP4 ADD DUP6 PUSH2 0x2DFF JUMP JUMPDEST PUSH2 0x32BD PUSH1 0x20 DUP4 ADD DUP5 PUSH2 0x2DFF JUMP JUMPDEST SWAP4 SWAP3 POP POP POP JUMP JUMPDEST PUSH1 0x0 PUSH1 0x60 DUP3 ADD SWAP1 POP PUSH2 0x32D9 PUSH1 0x0 DUP4 ADD DUP7 PUSH2 0x2DFF JUMP JUMPDEST PUSH2 0x32E6 PUSH1 0x20 DUP4 ADD DUP6 PUSH2 0x2DF0 JUMP JUMPDEST PUSH2 0x32F3 PUSH1 0x40 DUP4 ADD DUP5 PUSH2 0x2E1D JUMP JUMPDEST SWAP5 SWAP4 POP POP POP POP JUMP JUMPDEST PUSH1 0x0 PUSH1 0xC0 DUP3 ADD SWAP1 POP DUP2 DUP2 SUB PUSH1 0x0 DUP4 ADD MSTORE PUSH2 0x3315 DUP2 DUP10 PUSH2 0x2E65 JUMP JUMPDEST SWAP1 POP DUP2 DUP2 SUB PUSH1 0x20 DUP4 ADD MSTORE PUSH2 0x3329 DUP2 DUP9 PUSH2 0x2E65 JUMP JUMPDEST SWAP1 POP DUP2 DUP2 SUB PUSH1 0x40 DUP4 ADD MSTORE PUSH2 0x333D DUP2 DUP8 PUSH2 0x2E65 JUMP JUMPDEST SWAP1 POP DUP2 DUP2 SUB PUSH1 0x60 DUP4 ADD MSTORE PUSH2 0x3351 DUP2 DUP7 PUSH2 0x2E65 JUMP JUMPDEST SWAP1 POP DUP2 DUP2 SUB PUSH1 0x80 DUP4 ADD MSTORE PUSH2 0x3365 DUP2 DUP6 PUSH2 0x2E65 JUMP JUMPDEST SWAP1 POP PUSH2 0x3374 PUSH1 0xA0 DUP4 ADD DUP5 PUSH2 0x322C JUMP JUMPDEST SWAP8 SWAP7 POP POP POP POP POP POP POP JUMP JUMPDEST PUSH1 0x0 PUSH2 0x120 DUP3 ADD SWAP1 POP DUP2 DUP2 SUB PUSH1 0x0 DUP4 ADD MSTORE PUSH2 0x339A DUP2 DUP13 PUSH2 0x2E65 JUMP JUMPDEST SWAP1 POP DUP2 DUP2 SUB PUSH1 0x20 DUP4 ADD MSTORE PUSH2 0x33AE DUP2 DUP12 PUSH2 0x2E65 JUMP JUMPDEST SWAP1 POP PUSH2 0x33BD PUSH1 0x40 DUP4 ADD DUP11 PUSH2 0x322C JUMP JUMPDEST DUP2 DUP2 SUB PUSH1 0x60 DUP4 ADD MSTORE PUSH2 0x33CF DUP2 DUP10 PUSH2 0x2E65 JUMP JUMPDEST SWAP1 POP DUP2 DUP2 SUB PUSH1 0x80 DUP4 ADD MSTORE PUSH2 0x33E3 DUP2 DUP9 PUSH2 0x2E65 JUMP JUMPDEST SWAP1 POP DUP2 DUP2 SUB PUSH1 0xA0 DUP4 ADD MSTORE PUSH2 0x33F7 DUP2 DUP8 PUSH2 0x2E65 JUMP JUMPDEST SWAP1 POP DUP2 DUP2 SUB PUSH1 0xC0 DUP4 ADD MSTORE PUSH2 0x340B DUP2 DUP7 PUSH2 0x2E65 JUMP JUMPDEST SWAP1 POP DUP2 DUP2 SUB PUSH1 0xE0 DUP4 ADD MSTORE PUSH2 0x341F DUP2 DUP6 PUSH2 0x2E65 JUMP JUMPDEST SWAP1 POP DUP2 DUP2 SUB PUSH2 0x100 DUP4 ADD MSTORE PUSH2 0x3434 DUP2 DUP5 PUSH2 0x2E65 JUMP JUMPDEST SWAP1 POP SWAP11 SWAP10 POP POP POP POP POP POP POP POP POP POP JUMP JUMPDEST PUSH1 0x0 PUSH1 0x20 DUP3 ADD SWAP1 POP DUP2 DUP2 SUB PUSH1 0x0 DUP4 ADD MSTORE PUSH2 0x345D DUP2 PUSH2 0x2E9E JUMP JUMPDEST SWAP1 POP SWAP2 SWAP1 POP JUMP JUMPDEST PUSH1 0x0 PUSH1 0x20 DUP3 ADD SWAP1 POP DUP2 DUP2 SUB PUSH1 0x0 DUP4 ADD MSTORE PUSH2 0x347D DUP2 PUSH2 0x2EDE JUMP JUMPDEST SWAP1 POP SWAP2 SWAP1 POP JUMP JUMPDEST PUSH1 0x0 PUSH1 0x20 DUP3 ADD SWAP1 POP DUP2 DUP2 SUB PUSH1 0x0 DUP4 ADD MSTORE PUSH2 0x349D DUP2 PUSH2 0x2F1E JUMP JUMPDEST SWAP1 POP SWAP2 SWAP1 POP JUMP JUMPDEST PUSH1 0x0 PUSH1 0x20 DUP3 ADD SWAP1 POP DUP2 DUP2 SUB PUSH1 0x0 DUP4 ADD MSTORE PUSH2 0x34BD DUP2 PUSH2 0x2F5E JUMP JUMPDEST SWAP1 POP SWAP2 SWAP1 POP JUMP JUMPDEST PUSH1 0x0 PUSH1 0x20 DUP3 ADD SWAP1 POP DUP2 DUP2 SUB PUSH1 0x0 DUP4 ADD MSTORE PUSH2 0x34DE DUP2 DUP5 PUSH2 0x2F9E JUMP JUMPDEST SWAP1 POP SWAP3 SWAP2 POP POP JUMP JUMPDEST PUSH1 0x0 PUSH1 0x20 DUP3 ADD SWAP1 POP DUP2 DUP2 SUB PUSH1 0x0 DUP4 ADD MSTORE PUSH2 0x3500 DUP2 DUP5 PUSH2 0x306A JUMP JUMPDEST SWAP1 POP SWAP3 SWAP2 POP POP JUMP JUMPDEST PUSH1 0x0 PUSH1 0x20 DUP3 ADD SWAP1 POP PUSH2 0x351D PUSH1 0x0 DUP4 ADD DUP5 PUSH2 0x322C JUMP JUMPDEST SWAP3 SWAP2 POP POP JUMP JUMPDEST PUSH1 0x0 PUSH2 0x100 DUP3 ADD SWAP1 POP PUSH2 0x3539 PUSH1 0x0 DUP4 ADD DUP12 PUSH2 0x322C JUMP JUMPDEST DUP2 DUP2 SUB PUSH1 0x20 DUP4 ADD MSTORE PUSH2 0x354B DUP2 DUP11 PUSH2 0x2E65 JUMP JUMPDEST SWAP1 POP PUSH2 0x355A PUSH1 0x40 DUP4 ADD DUP10 PUSH2 0x322C JUMP JUMPDEST DUP2 DUP2 SUB PUSH1 0x60 DUP4 ADD MSTORE PUSH2 0x356C DUP2 DUP9 PUSH2 0x2E65 JUMP JUMPDEST SWAP1 POP DUP2 DUP2 SUB PUSH1 0x80 DUP4 ADD MSTORE PUSH2 0x3580 DUP2 DUP8 PUSH2 0x2E65 JUMP JUMPDEST SWAP1 POP DUP2 DUP2 SUB PUSH1 0xA0 DUP4 ADD MSTORE PUSH2 0x3594 DUP2 DUP7 PUSH2 0x2E65 JUMP JUMPDEST SWAP1 POP DUP2 DUP2 SUB PUSH1 0xC0 DUP4 ADD MSTORE PUSH2 0x35A8 DUP2 DUP6 PUSH2 0x2E65 JUMP JUMPDEST SWAP1 POP PUSH2 0x35B7 PUSH1 0xE0 DUP4 ADD DUP5 PUSH2 0x322C JUMP JUMPDEST SWAP10 SWAP9 POP POP POP POP POP POP POP POP POP JUMP JUMPDEST PUSH1 0x0 PUSH1 0x40 MLOAD SWAP1 POP DUP2 DUP2 ADD DUP2 DUP2 LT PUSH8 0xFFFFFFFFFFFFFFFF DUP3 GT OR ISZERO PUSH2 0x35E7 JUMPI PUSH1 0x0 DUP1 REVERT JUMPDEST DUP1 PUSH1 0x40 MSTORE POP SWAP2 SWAP1 POP JUMP JUMPDEST PUSH1 0x0 PUSH8 0xFFFFFFFFFFFFFFFF DUP3 GT ISZERO PUSH2 0x3608 JUMPI PUSH1 0x0 DUP1 REVERT JUMPDEST PUSH1 0x1F NOT PUSH1 0x1F DUP4 ADD AND SWAP1 POP PUSH1 0x20 DUP2 ADD SWAP1 POP SWAP2 SWAP1 POP JUMP JUMPDEST PUSH1 0x0 DUP2 MLOAD SWAP1 POP SWAP2 SWAP1 POP JUMP JUMPDEST PUSH1 0x0 DUP3 DUP3 MSTORE PUSH1 0x20 DUP3 ADD SWAP1 POP SWAP3 SWAP2 POP POP JUMP JUMPDEST PUSH1 0x0 DUP3 DUP3 MSTORE PUSH1 0x20 DUP3 ADD SWAP1 POP SWAP3 SWAP2 POP POP JUMP JUMPDEST PUSH1 0x0 PUSH2 0x3655 DUP3 PUSH2 0x3668 JUMP JUMPDEST SWAP1 POP SWAP2 SWAP1 POP JUMP JUMPDEST PUSH1 0x0 DUP2 ISZERO ISZERO SWAP1 POP SWAP2 SWAP1 POP JUMP JUMPDEST PUSH1 0x0 PUSH20 0xFFFFFFFFFFFFFFFFFFFFFFFFFFFFFFFFFFFFFFFF DUP3 AND SWAP1 POP SWAP2 SWAP1 POP JUMP JUMPDEST PUSH1 0x0 DUP2 SWAP1 POP SWAP2 SWAP1 POP JUMP JUMPDEST PUSH1 0x0 PUSH2 0x369D DUP3 PUSH2 0x36C8 JUMP JUMPDEST SWAP1 POP SWAP2 SWAP1 POP JUMP JUMPDEST PUSH1 0x0 PUSH2 0x36AF DUP3 PUSH2 0x3688 JUMP JUMPDEST SWAP1 POP SWAP2 SWAP1 POP JUMP JUMPDEST PUSH1 0x0 PUSH2 0x36C1 DUP3 PUSH2 0x3688 JUMP JUMPDEST SWAP1 POP SWAP2 SWAP1 POP JUMP JUMPDEST PUSH1 0x0 PUSH2 0x36D3 DUP3 PUSH2 0x36DA JUMP JUMPDEST SWAP1 POP SWAP2 SWAP1 POP JUMP JUMPDEST PUSH1 0x0 PUSH2 0x36E5 DUP3 PUSH2 0x3668 JUMP JUMPDEST SWAP1 POP SWAP2 SWAP1 POP JUMP JUMPDEST DUP3 DUP2 DUP4 CALLDATACOPY PUSH1 0x0 DUP4 DUP4 ADD MSTORE POP POP POP JUMP JUMPDEST PUSH1 0x0 JUMPDEST DUP4 DUP2 LT ISZERO PUSH2 0x3719 JUMPI DUP1 DUP3 ADD MLOAD DUP2 DUP5 ADD MSTORE PUSH1 0x20 DUP2 ADD SWAP1 POP PUSH2 0x36FE JUMP JUMPDEST DUP4 DUP2 GT ISZERO PUSH2 0x3728 JUMPI PUSH1 0x0 DUP5 DUP5 ADD MSTORE JUMPDEST POP POP POP POP JUMP JUMPDEST PUSH1 0x0 PUSH1 0x1F NOT PUSH1 0x1F DUP4 ADD AND SWAP1 POP SWAP2 SWAP1 POP JUMP JUMPDEST PUSH2 0x3748 DUP2 PUSH2 0x364A JUMP JUMPDEST DUP2 EQ PUSH2 0x3753 JUMPI PUSH1 0x0 DUP1 REVERT JUMPDEST POP JUMP JUMPDEST PUSH2 0x375F DUP2 PUSH2 0x365C JUMP JUMPDEST DUP2 EQ PUSH2 0x376A JUMPI PUSH1 0x0 DUP1 REVERT JUMPDEST POP JUMP JUMPDEST PUSH2 0x3776 DUP2 PUSH2 0x3688 JUMP JUMPDEST DUP2 EQ PUSH2 0x3781 JUMPI PUSH1 0x0 DUP1 REVERT JUMPDEST POP JUMP INVALID LOG2 PUSH5 0x6970667358 0x22 SLT KECCAK256 DUP13 0xA6 POP COINBASE SDIV 0xEE GAS 0xED 0x23 MSIZE 0xBE 0xAC SLT PUSH26 0x4DCC8F234D9A74B446B64567E17107F7E70864736F6C63430006 ADD STOP CALLER "
				},
				"gasEstimates": {
					"creation": {
						"codeDepositCost": "2853200",
						"executionCost": "infinite",
						"totalCost": "infinite"
					},
					"external": {
						"AddressEntreprises(address)": "1603",
						"Diplomes(uint256)": "infinite",
						"Entreprises(uint256)": "infinite",
						"Etablisements(uint256)": "infinite",
						"NbDiplomes()": "1196",
						"NbEntreprises()": "1217",
						"NbEtablisements()": "1152",
						"NbEtudiants()": "1175",
						"ajouter_diplome(uint256)": "infinite",
						"ajouter_entreprise(string)": "infinite",
						"ajouter_etablisement(string)": "infinite",
						"ajouter_etudiant(string,string)": "infinite",
						"evaluer(uint256,string,string,string,uint256,uint256,string)": "infinite",
						"get_Etudiants(uint256)": "infinite",
						"verifier(uint256)": "infinite"
					},
					"internal": {
						"ajouter_diplome(struct Entities.Diplome memory)": "infinite",
						"ajouter_entreprise(struct Entities.Entreprise memory,address)": "infinite",
						"ajouter_etablisement(struct Entities.Etablisement memory,address)": "infinite",
						"ajouter_etudiant(struct Entities.Etudiant memory)": "infinite"
					}
				},
				"methodIdentifiers": {
					"AddressEntreprises(address)": "78a31262",
					"Diplomes(uint256)": "4accf9a7",
					"Entreprises(uint256)": "56faba43",
					"Etablisements(uint256)": "7eae205d",
					"NbDiplomes()": "6f2962b7",
					"NbEntreprises()": "e23cc50d",
					"NbEtablisements()": "37683976",
					"NbEtudiants()": "161a9fb5",
					"ajouter_diplome(uint256)": "05d728f5",
					"ajouter_entreprise(string)": "c685e978",
					"ajouter_etablisement(string)": "5e00c8a2",
					"ajouter_etudiant(string,string)": "6573f803",
					"evaluer(uint256,string,string,string,uint256,uint256,string)": "27edee9e",
					"get_Etudiants(uint256)": "6b6df2be",
					"verifier(uint256)": "8d129178"
				}
			},
			"storageLayout": {
				"storage": [
					{
						"astId": 5,
						"contract": "contract/entities.sol:Entities",
						"label": "owner",
						"offset": 0,
						"slot": "0",
						"type": "t_address"
					},
					{
						"astId": 7,
						"contract": "contract/entities.sol:Entities",
						"label": "token",
						"offset": 0,
						"slot": "1",
						"type": "t_address"
					},
					{
						"astId": 93,
						"contract": "contract/entities.sol:Entities",
						"label": "Etablisements",
						"offset": 0,
						"slot": "2",
						"type": "t_mapping(t_uint256,t_struct(Etablisement)20_storage)"
					},
					{
						"astId": 97,
						"contract": "contract/entities.sol:Entities",
						"label": "AddressEtablisements",
						"offset": 0,
						"slot": "3",
						"type": "t_mapping(t_address,t_uint256)"
					},
					{
						"astId": 101,
						"contract": "contract/entities.sol:Entities",
						"label": "Etudiants",
						"offset": 0,
						"slot": "4",
						"type": "t_mapping(t_uint256,t_struct(Etudiant)70_storage)"
					},
					{
						"astId": 105,
						"contract": "contract/entities.sol:Entities",
						"label": "Entreprises",
						"offset": 0,
						"slot": "5",
						"type": "t_mapping(t_uint256,t_struct(Entreprise)89_storage)"
					},
					{
						"astId": 109,
						"contract": "contract/entities.sol:Entities",
						"label": "AddressEntreprises",
						"offset": 0,
						"slot": "6",
						"type": "t_mapping(t_address,t_uint256)"
					},
					{
						"astId": 113,
						"contract": "contract/entities.sol:Entities",
						"label": "Diplomes",
						"offset": 0,
						"slot": "7",
						"type": "t_mapping(t_uint256,t_struct(Diplome)37_storage)"
					},
					{
						"astId": 127,
						"contract": "contract/entities.sol:Entities",
						"label": "NbEtablisements",
						"offset": 0,
						"slot": "8",
						"type": "t_uint256"
					},
					{
						"astId": 129,
						"contract": "contract/entities.sol:Entities",
						"label": "NbEtudiants",
						"offset": 0,
						"slot": "9",
						"type": "t_uint256"
					},
					{
						"astId": 131,
						"contract": "contract/entities.sol:Entities",
						"label": "NbEntreprises",
						"offset": 0,
						"slot": "10",
						"type": "t_uint256"
					},
					{
						"astId": 133,
						"contract": "contract/entities.sol:Entities",
						"label": "NbDiplomes",
						"offset": 0,
						"slot": "11",
						"type": "t_uint256"
					}
				],
				"types": {
					"t_address": {
						"encoding": "inplace",
						"label": "address",
						"numberOfBytes": "20"
					},
					"t_mapping(t_address,t_uint256)": {
						"encoding": "mapping",
						"key": "t_address",
						"label": "mapping(address => uint256)",
						"numberOfBytes": "32",
						"value": "t_uint256"
					},
					"t_mapping(t_uint256,t_struct(Diplome)37_storage)": {
						"encoding": "mapping",
						"key": "t_uint256",
						"label": "mapping(uint256 => struct Entities.Diplome)",
						"numberOfBytes": "32",
						"value": "t_struct(Diplome)37_storage"
					},
					"t_mapping(t_uint256,t_struct(Entreprise)89_storage)": {
						"encoding": "mapping",
						"key": "t_uint256",
						"label": "mapping(uint256 => struct Entities.Entreprise)",
						"numberOfBytes": "32",
						"value": "t_struct(Entreprise)89_storage"
					},
					"t_mapping(t_uint256,t_struct(Etablisement)20_storage)": {
						"encoding": "mapping",
						"key": "t_uint256",
						"label": "mapping(uint256 => struct Entities.Etablisement)",
						"numberOfBytes": "32",
						"value": "t_struct(Etablisement)20_storage"
					},
					"t_mapping(t_uint256,t_struct(Etudiant)70_storage)": {
						"encoding": "mapping",
						"key": "t_uint256",
						"label": "mapping(uint256 => struct Entities.Etudiant)",
						"numberOfBytes": "32",
						"value": "t_struct(Etudiant)70_storage"
					},
					"t_string_storage": {
						"encoding": "bytes",
						"label": "string",
						"numberOfBytes": "32"
					},
					"t_struct(Diplome)37_storage": {
						"encoding": "inplace",
						"label": "struct Entities.Diplome",
						"members": [
							{
								"astId": 22,
								"contract": "contract/entities.sol:Entities",
								"label": "ID_Titulaire",
								"offset": 0,
								"slot": "0",
								"type": "t_uint256"
							},
							{
								"astId": 24,
								"contract": "contract/entities.sol:Entities",
								"label": "Nom_Etablisement_Enseignement_Superieur",
								"offset": 0,
								"slot": "1",
								"type": "t_string_storage"
							},
							{
								"astId": 26,
								"contract": "contract/entities.sol:Entities",
								"label": "ID_EES",
								"offset": 0,
								"slot": "2",
								"type": "t_uint256"
							},
							{
								"astId": 28,
								"contract": "contract/entities.sol:Entities",
								"label": "Pays",
								"offset": 0,
								"slot": "3",
								"type": "t_string_storage"
							},
							{
								"astId": 30,
								"contract": "contract/entities.sol:Entities",
								"label": "Type_Diplome",
								"offset": 0,
								"slot": "4",
								"type": "t_string_storage"
							},
							{
								"astId": 32,
								"contract": "contract/entities.sol:Entities",
								"label": "Specialite",
								"offset": 0,
								"slot": "5",
								"type": "t_string_storage"
							},
							{
								"astId": 34,
								"contract": "contract/entities.sol:Entities",
								"label": "Mention",
								"offset": 0,
								"slot": "6",
								"type": "t_string_storage"
							},
							{
								"astId": 36,
								"contract": "contract/entities.sol:Entities",
								"label": "Date_d_obtention",
								"offset": 0,
								"slot": "7",
								"type": "t_uint256"
							}
						],
						"numberOfBytes": "256"
					},
					"t_struct(Entreprise)89_storage": {
						"encoding": "inplace",
						"label": "struct Entities.Entreprise",
						"members": [
							{
								"astId": 72,
								"contract": "contract/entities.sol:Entities",
								"label": "Nom",
								"offset": 0,
								"slot": "0",
								"type": "t_string_storage"
							},
							{
								"astId": 74,
								"contract": "contract/entities.sol:Entities",
								"label": "Secteur",
								"offset": 0,
								"slot": "1",
								"type": "t_string_storage"
							},
							{
								"astId": 76,
								"contract": "contract/entities.sol:Entities",
								"label": "Date_Creation",
								"offset": 0,
								"slot": "2",
								"type": "t_uint256"
							},
							{
								"astId": 78,
								"contract": "contract/entities.sol:Entities",
								"label": "Classification_Taille",
								"offset": 0,
								"slot": "3",
								"type": "t_string_storage"
							},
							{
								"astId": 80,
								"contract": "contract/entities.sol:Entities",
								"label": "Pays",
								"offset": 0,
								"slot": "4",
								"type": "t_string_storage"
							},
							{
								"astId": 82,
								"contract": "contract/entities.sol:Entities",
								"label": "Adresse",
								"offset": 0,
								"slot": "5",
								"type": "t_string_storage"
							},
							{
								"astId": 84,
								"contract": "contract/entities.sol:Entities",
								"label": "Courriel",
								"offset": 0,
								"slot": "6",
								"type": "t_string_storage"
							},
							{
								"astId": 86,
								"contract": "contract/entities.sol:Entities",
								"label": "telephone",
								"offset": 0,
								"slot": "7",
								"type": "t_string_storage"
							},
							{
								"astId": 88,
								"contract": "contract/entities.sol:Entities",
								"label": "Site_Web",
								"offset": 0,
								"slot": "8",
								"type": "t_string_storage"
							}
						],
						"numberOfBytes": "288"
					},
					"t_struct(Etablisement)20_storage": {
						"encoding": "inplace",
						"label": "struct Entities.Etablisement",
						"members": [
							{
								"astId": 9,
								"contract": "contract/entities.sol:Entities",
								"label": "Nom_Etablisement",
								"offset": 0,
								"slot": "0",
								"type": "t_string_storage"
							},
							{
								"astId": 11,
								"contract": "contract/entities.sol:Entities",
								"label": "Type",
								"offset": 0,
								"slot": "1",
								"type": "t_string_storage"
							},
							{
								"astId": 13,
								"contract": "contract/entities.sol:Entities",
								"label": "Pays",
								"offset": 0,
								"slot": "2",
								"type": "t_string_storage"
							},
							{
								"astId": 15,
								"contract": "contract/entities.sol:Entities",
								"label": "Adresse",
								"offset": 0,
								"slot": "3",
								"type": "t_string_storage"
							},
							{
								"astId": 17,
								"contract": "contract/entities.sol:Entities",
								"label": "Site_Web",
								"offset": 0,
								"slot": "4",
								"type": "t_string_storage"
							},
							{
								"astId": 19,
								"contract": "contract/entities.sol:Entities",
								"label": "ID_Agent",
								"offset": 0,
								"slot": "5",
								"type": "t_uint256"
							}
						],
						"numberOfBytes": "192"
					},
					"t_struct(Etudiant)70_storage": {
						"encoding": "inplace",
						"label": "struct Entities.Etudiant",
						"members": [
							{
								"astId": 39,
								"contract": "contract/entities.sol:Entities",
								"label": "Nom",
								"offset": 0,
								"slot": "0",
								"type": "t_string_storage"
							},
							{
								"astId": 41,
								"contract": "contract/entities.sol:Entities",
								"label": "Prenom",
								"offset": 0,
								"slot": "1",
								"type": "t_string_storage"
							},
							{
								"astId": 43,
								"contract": "contract/entities.sol:Entities",
								"label": "Date_de_naisance",
								"offset": 0,
								"slot": "2",
								"type": "t_string_storage"
							},
							{
								"astId": 45,
								"contract": "contract/entities.sol:Entities",
								"label": "Sexe",
								"offset": 0,
								"slot": "3",
								"type": "t_string_storage"
							},
							{
								"astId": 47,
								"contract": "contract/entities.sol:Entities",
								"label": "Nationalite",
								"offset": 0,
								"slot": "4",
								"type": "t_string_storage"
							},
							{
								"astId": 49,
								"contract": "contract/entities.sol:Entities",
								"label": "Statut_civil",
								"offset": 0,
								"slot": "5",
								"type": "t_string_storage"
							},
							{
								"astId": 51,
								"contract": "contract/entities.sol:Entities",
								"label": "Adresse",
								"offset": 0,
								"slot": "6",
								"type": "t_string_storage"
							},
							{
								"astId": 53,
								"contract": "contract/entities.sol:Entities",
								"label": "Courriel",
								"offset": 0,
								"slot": "7",
								"type": "t_string_storage"
							},
							{
								"astId": 55,
								"contract": "contract/entities.sol:Entities",
								"label": "Telephone",
								"offset": 0,
								"slot": "8",
								"type": "t_string_storage"
							},
							{
								"astId": 57,
								"contract": "contract/entities.sol:Entities",
								"label": "Section",
								"offset": 0,
								"slot": "9",
								"type": "t_string_storage"
							},
							{
								"astId": 59,
								"contract": "contract/entities.sol:Entities",
								"label": "Sujet_PFE",
								"offset": 0,
								"slot": "10",
								"type": "t_string_storage"
							},
							{
								"astId": 61,
								"contract": "contract/entities.sol:Entities",
								"label": "Entreprise_Stage_PFE",
								"offset": 0,
								"slot": "11",
								"type": "t_string_storage"
							},
							{
								"astId": 63,
								"contract": "contract/entities.sol:Entities",
								"label": "NomPrenom_MaitreDuStage",
								"offset": 0,
								"slot": "12",
								"type": "t_string_storage"
							},
							{
								"astId": 65,
								"contract": "contract/entities.sol:Entities",
								"label": "Date_debut_stage",
								"offset": 0,
								"slot": "13",
								"type": "t_uint256"
							},
							{
								"astId": 67,
								"contract": "contract/entities.sol:Entities",
								"label": "Date_fin_stage",
								"offset": 0,
								"slot": "14",
								"type": "t_uint256"
							},
							{
								"astId": 69,
								"contract": "contract/entities.sol:Entities",
								"label": "Evaluation",
								"offset": 0,
								"slot": "15",
								"type": "t_string_storage"
							}
						],
						"numberOfBytes": "512"
					},
					"t_uint256": {
						"encoding": "inplace",
						"label": "uint256",
						"numberOfBytes": "32"
					}
				}
			},
			"userdoc": {
				"methods": {}
			}
		}
	}
}