{
	"contract/entities.sol": {
		"Entities": {
			"abi": [
				{
					"inputs": [
						{
							"internalType": "address",
							"name": "tokenaddress",
							"type": "address"
						}
					],
					"stateMutability": "nonpayable",
					"type": "constructor"
				},
				{
					"anonymous": false,
					"inputs": [
						{
							"components": [
								{
									"internalType": "uint256",
									"name": "ID_Titulaire",
									"type": "uint256"
								},
								{
									"internalType": "string",
									"name": "Nom_Etablisement_Enseignement_Superieur",
									"type": "string"
								},
								{
									"internalType": "uint256",
									"name": "ID_EES",
									"type": "uint256"
								},
								{
									"internalType": "string",
									"name": "Pays",
									"type": "string"
								},
								{
									"internalType": "string",
									"name": "Type_Diplome",
									"type": "string"
								},
								{
									"internalType": "string",
									"name": "Specialite",
									"type": "string"
								},
								{
									"internalType": "string",
									"name": "Mention",
									"type": "string"
								},
								{
									"internalType": "uint256",
									"name": "Date_d_obtention",
									"type": "uint256"
								}
							],
							"indexed": false,
							"internalType": "struct Entities.Diplome",
							"name": "",
							"type": "tuple"
						}
					],
					"name": "verifierresult",
					"type": "event"
				},
				{
					"inputs": [
						{
							"internalType": "address",
							"name": "",
							"type": "address"
						}
					],
					"name": "AddressEntreprises",
					"outputs": [
						{
							"internalType": "uint256",
							"name": "",
							"type": "uint256"
						}
					],
					"stateMutability": "view",
					"type": "function"
				},
				{
					"inputs": [
						{
							"internalType": "uint256",
							"name": "",
							"type": "uint256"
						}
					],
					"name": "Diplomes",
					"outputs": [
						{
							"internalType": "uint256",
							"name": "ID_Titulaire",
							"type": "uint256"
						},
						{
							"internalType": "string",
							"name": "Nom_Etablisement_Enseignement_Superieur",
							"type": "string"
						},
						{
							"internalType": "uint256",
							"name": "ID_EES",
							"type": "uint256"
						},
						{
							"internalType": "string",
							"name": "Pays",
							"type": "string"
						},
						{
							"internalType": "string",
							"name": "Type_Diplome",
							"type": "string"
						},
						{
							"internalType": "string",
							"name": "Specialite",
							"type": "string"
						},
						{
							"internalType": "string",
							"name": "Mention",
							"type": "string"
						},
						{
							"internalType": "uint256",
							"name": "Date_d_obtention",
							"type": "uint256"
						}
					],
					"stateMutability": "view",
					"type": "function"
				},
				{
					"inputs": [
						{
							"internalType": "uint256",
							"name": "",
							"type": "uint256"
						}
					],
					"name": "Entreprises",
					"outputs": [
						{
							"internalType": "string",
							"name": "Nom",
							"type": "string"
						},
						{
							"internalType": "string",
							"name": "Secteur",
							"type": "string"
						},
						{
							"internalType": "uint256",
							"name": "Date_Creation",
							"type": "uint256"
						},
						{
							"internalType": "string",
							"name": "Classification_Taille",
							"type": "string"
						},
						{
							"internalType": "string",
							"name": "Pays",
							"type": "string"
						},
						{
							"internalType": "string",
							"name": "Adresse",
							"type": "string"
						},
						{
							"internalType": "string",
							"name": "Courriel",
							"type": "string"
						},
						{
							"internalType": "string",
							"name": "telephone",
							"type": "string"
						},
						{
							"internalType": "string",
							"name": "Site_Web",
							"type": "string"
						}
					],
					"stateMutability": "view",
					"type": "function"
				},
				{
					"inputs": [
						{
							"internalType": "uint256",
							"name": "",
							"type": "uint256"
						}
					],
					"name": "Etablisements",
					"outputs": [
						{
							"internalType": "string",
							"name": "Nom_Etablisement",
							"type": "string"
						},
						{
							"internalType": "string",
							"name": "Type",
							"type": "string"
						},
						{
							"internalType": "string",
							"name": "Pays",
							"type": "string"
						},
						{
							"internalType": "string",
							"name": "Adresse",
							"type": "string"
						},
						{
							"internalType": "string",
							"name": "Site_Web",
							"type": "string"
						},
						{
							"internalType": "uint256",
							"name": "ID_Agent",
							"type": "uint256"
						}
					],
					"stateMutability": "view",
					"type": "function"
				},
				{
					"inputs": [],
					"name": "NbDiplomes",
					"outputs": [
						{
							"internalType": "uint256",
							"name": "",
							"type": "uint256"
						}
					],
					"stateMutability": "view",
					"type": "function"
				},
				{
					"inputs": [],
					"name": "NbEntreprises",
					"outputs": [
						{
							"internalType": "uint256",
							"name": "",
							"type": "uint256"
						}
					],
					"stateMutability": "view",
					"type": "function"
				},
				{
					"inputs": [],
					"name": "NbEtablisements",
					"outputs": [
						{
							"internalType": "uint256",
							"name": "",
							"type": "uint256"
						}
					],
					"stateMutability": "view",
					"type": "function"
				},
				{
					"inputs": [],
					"name": "NbEtudiants",
					"outputs": [
						{
							"internalType": "uint256",
							"name": "",
							"type": "uint256"
						}
					],
					"stateMutability": "view",
					"type": "function"
				},
				{
					"inputs": [
						{
							"internalType": "uint256",
							"name": "ID_Titulaire",
							"type": "uint256"
						}
					],
					"name": "ajouter_diplome",
					"outputs": [],
					"stateMutability": "nonpayable",
					"type": "function"
				},
				{
					"inputs": [
						{
							"internalType": "string",
							"name": "Nom",
							"type": "string"
						}
					],
					"name": "ajouter_entreprise",
					"outputs": [],
					"stateMutability": "nonpayable",
					"type": "function"
				},
				{
					"inputs": [
						{
							"internalType": "string",
							"name": "Nom",
							"type": "string"
						}
					],
					"name": "ajouter_etablisement",
					"outputs": [],
					"stateMutability": "nonpayable",
					"type": "function"
				},
				{
					"inputs": [
						{
							"internalType": "string",
							"name": "Nom",
							"type": "string"
						},
						{
							"internalType": "string",
							"name": "Prenom",
							"type": "string"
						}
					],
					"name": "ajouter_etudiant",
					"outputs": [],
					"stateMutability": "nonpayable",
					"type": "function"
				},
				{
					"inputs": [
						{
							"internalType": "uint256",
							"name": "EtudiantID",
							"type": "uint256"
						},
						{
							"internalType": "string",
							"name": "Sujet_PFE",
							"type": "string"
						},
						{
							"internalType": "string",
							"name": "Entreprise_Stage_PFE",
							"type": "string"
						},
						{
							"internalType": "string",
							"name": "NomPrenom_MaitreDuStage",
							"type": "string"
						},
						{
							"internalType": "uint256",
							"name": "Date_debut_stage",
							"type": "uint256"
						},
						{
							"internalType": "uint256",
							"name": "Date_fin_stage",
							"type": "uint256"
						},
						{
							"internalType": "string",
							"name": "Evaluation",
							"type": "string"
						}
					],
					"name": "evaluer",
					"outputs": [],
					"stateMutability": "nonpayable",
					"type": "function"
				},
				{
					"inputs": [
						{
							"internalType": "uint256",
							"name": "id",
							"type": "uint256"
						}
					],
					"name": "get_Etudiants",
					"outputs": [
						{
							"components": [
								{
									"internalType": "string",
									"name": "Nom",
									"type": "string"
								},
								{
									"internalType": "string",
									"name": "Prenom",
									"type": "string"
								},
								{
									"internalType": "string",
									"name": "Date_de_naisance",
									"type": "string"
								},
								{
									"internalType": "string",
									"name": "Sexe",
									"type": "string"
								},
								{
									"internalType": "string",
									"name": "Nationalite",
									"type": "string"
								},
								{
									"internalType": "string",
									"name": "Statut_civil",
									"type": "string"
								},
								{
									"internalType": "string",
									"name": "Adresse",
									"type": "string"
								},
								{
									"internalType": "string",
									"name": "Courriel",
									"type": "string"
								},
								{
									"internalType": "string",
									"name": "Telephone",
									"type": "string"
								},
								{
									"internalType": "string",
									"name": "Section",
									"type": "string"
								},
								{
									"internalType": "string",
									"name": "Sujet_PFE",
									"type": "string"
								},
								{
									"internalType": "string",
									"name": "Entreprise_Stage_PFE",
									"type": "string"
								},
								{
									"internalType": "string",
									"name": "NomPrenom_MaitreDuStage",
									"type": "string"
								},
								{
									"internalType": "uint256",
									"name": "Date_debut_stage",
									"type": "uint256"
								},
								{
									"internalType": "uint256",
									"name": "Date_fin_stage",
									"type": "uint256"
								},
								{
									"internalType": "string",
									"name": "Evaluation",
									"type": "string"
								}
							],
							"internalType": "struct Entities.Etudiant",
							"name": "",
							"type": "tuple"
						}
					],
					"stateMutability": "view",
					"type": "function"
				},
				{
					"inputs": [
						{
							"internalType": "uint256",
							"name": "DiplomeID",
							"type": "uint256"
						}
					],
					"name": "verifier",
					"outputs": [
						{
							"components": [
								{
									"internalType": "uint256",
									"name": "ID_Titulaire",
									"type": "uint256"
								},
								{
									"internalType": "string",
									"name": "Nom_Etablisement_Enseignement_Superieur",
									"type": "string"
								},
								{
									"internalType": "uint256",
									"name": "ID_EES",
									"type": "uint256"
								},
								{
									"internalType": "string",
									"name": "Pays",
									"type": "string"
								},
								{
									"internalType": "string",
									"name": "Type_Diplome",
									"type": "string"
								},
								{
									"internalType": "string",
									"name": "Specialite",
									"type": "string"
								},
								{
									"internalType": "string",
									"name": "Mention",
									"type": "string"
								},
								{
									"internalType": "uint256",
									"name": "Date_d_obtention",
									"type": "uint256"
								}
							],
							"internalType": "struct Entities.Diplome",
							"name": "",
							"type": "tuple"
						}
					],
					"stateMutability": "nonpayable",
					"type": "function"
				}
			],
			"devdoc": {
				"methods": {}
			},
			"evm": {
				"assembly": "    /* \"contract/entities.sol\":95:5542  contract Entities {\r... */\n  mstore(0x40, 0x80)\n    /* \"contract/entities.sol\":2015:2235  constructor(address tokenaddress) public {\r... */\n  callvalue\n    /* \"--CODEGEN--\":8:17   */\n  dup1\n    /* \"--CODEGEN--\":5:7   */\n  iszero\n  tag_1\n  jumpi\n    /* \"--CODEGEN--\":30:31   */\n  0x00\n    /* \"--CODEGEN--\":27:28   */\n  dup1\n    /* \"--CODEGEN--\":20:32   */\n  revert\n    /* \"--CODEGEN--\":5:7   */\ntag_1:\n    /* \"contract/entities.sol\":2015:2235  constructor(address tokenaddress) public {\r... */\n  pop\n  mload(0x40)\n  sub(codesize, bytecodeSize)\n  dup1\n  bytecodeSize\n  dup4\n  codecopy\n  dup2\n  dup2\n  add\n  0x40\n  mstore\n  tag_2\n  swap2\n  swap1\n  dup2\n  add\n  swap1\n  jump(tag_3)\ntag_2:\n    /* \"contract/entities.sol\":2075:2087  tokenaddress */\n  dup1\n    /* \"contract/entities.sol\":2067:2072  token */\n  0x01\n  0x00\n    /* \"contract/entities.sol\":2067:2087  token = tokenaddress */\n  0x0100\n  exp\n  dup2\n  sload\n  dup2\n  0xffffffffffffffffffffffffffffffffffffffff\n  mul\n  not\n  and\n  swap1\n  dup4\n  0xffffffffffffffffffffffffffffffffffffffff\n  and\n  mul\n  or\n  swap1\n  sstore\n  pop\n    /* \"contract/entities.sol\":2106:2116  msg.sender */\n  caller\n    /* \"contract/entities.sol\":2098:2103  owner */\n  0x00\n  dup1\n    /* \"contract/entities.sol\":2098:2116  owner = msg.sender */\n  0x0100\n  exp\n  dup2\n  sload\n  dup2\n  0xffffffffffffffffffffffffffffffffffffffff\n  mul\n  not\n  and\n  swap1\n  dup4\n  0xffffffffffffffffffffffffffffffffffffffff\n  and\n  mul\n  or\n  swap1\n  sstore\n  pop\n    /* \"contract/entities.sol\":2147:2148  0 */\n  0x00\n    /* \"contract/entities.sol\":2129:2144  NbEtablisements */\n  0x08\n    /* \"contract/entities.sol\":2129:2148  NbEtablisements = 0 */\n  dup2\n  swap1\n  sstore\n  pop\n    /* \"contract/entities.sol\":2173:2174  0 */\n  0x00\n    /* \"contract/entities.sol\":2159:2170  NbEtudiants */\n  0x09\n    /* \"contract/entities.sol\":2159:2174  NbEtudiants = 0 */\n  dup2\n  swap1\n  sstore\n  pop\n    /* \"contract/entities.sol\":2201:2202  0 */\n  0x00\n    /* \"contract/entities.sol\":2185:2198  NbEntreprises */\n  0x0a\n    /* \"contract/entities.sol\":2185:2202  NbEntreprises = 0 */\n  dup2\n  swap1\n  sstore\n  pop\n    /* \"contract/entities.sol\":2226:2227  0 */\n  0x00\n    /* \"contract/entities.sol\":2213:2223  NbDiplomes */\n  0x0b\n    /* \"contract/entities.sol\":2213:2227  NbDiplomes = 0 */\n  dup2\n  swap1\n  sstore\n  pop\n    /* \"contract/entities.sol\":2015:2235  constructor(address tokenaddress) public {\r... */\n  pop\n    /* \"contract/entities.sol\":95:5542  contract Entities {\r... */\n  jump(tag_6)\n    /* \"--CODEGEN--\":5:139   */\ntag_8:\n  0x00\n    /* \"--CODEGEN--\":89:95   */\n  dup2\n    /* \"--CODEGEN--\":83:96   */\n  mload\n    /* \"--CODEGEN--\":74:96   */\n  swap1\n  pop\n    /* \"--CODEGEN--\":101:134   */\n  tag_10\n    /* \"--CODEGEN--\":128:133   */\n  dup2\n    /* \"--CODEGEN--\":101:134   */\n  jump(tag_11)\ntag_10:\n    /* \"--CODEGEN--\":68:139   */\n  swap3\n  swap2\n  pop\n  pop\n  jump\n    /* \"--CODEGEN--\":146:409   */\ntag_3:\n  0x00\n    /* \"--CODEGEN--\":261:263   */\n  0x20\n    /* \"--CODEGEN--\":249:258   */\n  dup3\n    /* \"--CODEGEN--\":240:247   */\n  dup5\n    /* \"--CODEGEN--\":236:259   */\n  sub\n    /* \"--CODEGEN--\":232:264   */\n  slt\n    /* \"--CODEGEN--\":229:231   */\n  iszero\n  tag_13\n  jumpi\n    /* \"--CODEGEN--\":277:278   */\n  0x00\n    /* \"--CODEGEN--\":274:275   */\n  dup1\n    /* \"--CODEGEN--\":267:279   */\n  revert\n    /* \"--CODEGEN--\":229:231   */\ntag_13:\n    /* \"--CODEGEN--\":312:313   */\n  0x00\n    /* \"--CODEGEN--\":329:393   */\n  tag_14\n    /* \"--CODEGEN--\":385:392   */\n  dup5\n    /* \"--CODEGEN--\":376:382   */\n  dup3\n    /* \"--CODEGEN--\":365:374   */\n  dup6\n    /* \"--CODEGEN--\":361:383   */\n  add\n    /* \"--CODEGEN--\":329:393   */\n  jump(tag_8)\ntag_14:\n    /* \"--CODEGEN--\":319:393   */\n  swap2\n  pop\n    /* \"--CODEGEN--\":291:399   */\n  pop\n    /* \"--CODEGEN--\":223:409   */\n  swap3\n  swap2\n  pop\n  pop\n  jump\n    /* \"--CODEGEN--\":416:507   */\ntag_15:\n  0x00\n    /* \"--CODEGEN--\":478:502   */\n  tag_17\n    /* \"--CODEGEN--\":496:501   */\n  dup3\n    /* \"--CODEGEN--\":478:502   */\n  jump(tag_18)\ntag_17:\n    /* \"--CODEGEN--\":467:502   */\n  swap1\n  pop\n    /* \"--CODEGEN--\":461:507   */\n  swap2\n  swap1\n  pop\n  jump\n    /* \"--CODEGEN--\":514:635   */\ntag_18:\n  0x00\n    /* \"--CODEGEN--\":587:629   */\n  0xffffffffffffffffffffffffffffffffffffffff\n    /* \"--CODEGEN--\":580:585   */\n  dup3\n    /* \"--CODEGEN--\":576:630   */\n  and\n    /* \"--CODEGEN--\":565:630   */\n  swap1\n  pop\n    /* \"--CODEGEN--\":559:635   */\n  swap2\n  swap1\n  pop\n  jump\n    /* \"--CODEGEN--\":642:759   */\ntag_11:\n    /* \"--CODEGEN--\":711:735   */\n  tag_21\n    /* \"--CODEGEN--\":729:734   */\n  dup2\n    /* \"--CODEGEN--\":711:735   */\n  jump(tag_15)\ntag_21:\n    /* \"--CODEGEN--\":704:709   */\n  dup2\n    /* \"--CODEGEN--\":701:736   */\n  eq\n    /* \"--CODEGEN--\":691:693   */\n  tag_22\n  jumpi\n    /* \"--CODEGEN--\":750:751   */\n  0x00\n    /* \"--CODEGEN--\":747:748   */\n  dup1\n    /* \"--CODEGEN--\":740:752   */\n  revert\n    /* \"--CODEGEN--\":691:693   */\ntag_22:\n    /* \"--CODEGEN--\":685:759   */\n  pop\n  jump\n    /* \"contract/entities.sol\":95:5542  contract Entities {\r... */\ntag_6:\n  dataSize(sub_0)\n  dup1\n  dataOffset(sub_0)\n  0x00\n  codecopy\n  0x00\n  return\nstop\n\nsub_0: assembly {\n        /* \"contract/entities.sol\":95:5542  contract Entities {\r... */\n      mstore(0x40, 0x80)\n      callvalue\n        /* \"--CODEGEN--\":8:17   */\n      dup1\n        /* \"--CODEGEN--\":5:7   */\n      iszero\n      tag_1\n      jumpi\n        /* \"--CODEGEN--\":30:31   */\n      0x00\n        /* \"--CODEGEN--\":27:28   */\n      dup1\n        /* \"--CODEGEN--\":20:32   */\n      revert\n        /* \"--CODEGEN--\":5:7   */\n    tag_1:\n        /* \"contract/entities.sol\":95:5542  contract Entities {\r... */\n      pop\n      jumpi(tag_2, lt(calldatasize, 0x04))\n      shr(0xe0, calldataload(0x00))\n      dup1\n      0x6573f803\n      gt\n      tag_18\n      jumpi\n      dup1\n      0x7eae205d\n      gt\n      tag_19\n      jumpi\n      dup1\n      0x7eae205d\n      eq\n      tag_14\n      jumpi\n      dup1\n      0x8d129178\n      eq\n      tag_15\n      jumpi\n      dup1\n      0xc685e978\n      eq\n      tag_16\n      jumpi\n      dup1\n      0xe23cc50d\n      eq\n      tag_17\n      jumpi\n      jump(tag_2)\n    tag_19:\n      dup1\n      0x6573f803\n      eq\n      tag_10\n      jumpi\n      dup1\n      0x6b6df2be\n      eq\n      tag_11\n      jumpi\n      dup1\n      0x6f2962b7\n      eq\n      tag_12\n      jumpi\n      dup1\n      0x78a31262\n      eq\n      tag_13\n      jumpi\n      jump(tag_2)\n    tag_18:\n      dup1\n      0x37683976\n      gt\n      tag_20\n      jumpi\n      dup1\n      0x37683976\n      eq\n      tag_6\n      jumpi\n      dup1\n      0x4accf9a7\n      eq\n      tag_7\n      jumpi\n      dup1\n      0x56faba43\n      eq\n      tag_8\n      jumpi\n      dup1\n      0x5e00c8a2\n      eq\n      tag_9\n      jumpi\n      jump(tag_2)\n    tag_20:\n      dup1\n      0x05d728f5\n      eq\n      tag_3\n      jumpi\n      dup1\n      0x161a9fb5\n      eq\n      tag_4\n      jumpi\n      dup1\n      0x27edee9e\n      eq\n      tag_5\n      jumpi\n    tag_2:\n      0x00\n      dup1\n      revert\n        /* \"contract/entities.sol\":3574:4059  function ajouter_diplome(uint256 ID_Titulaire) public {\r... */\n    tag_3:\n      tag_21\n      0x04\n      dup1\n      calldatasize\n      sub\n      tag_22\n      swap2\n      swap1\n      dup2\n      add\n      swap1\n      jump(tag_23)\n    tag_22:\n      tag_24\n      jump\t// in\n    tag_21:\n      stop\n        /* \"contract/entities.sol\":1913:1939  uint256 public NbEtudiants */\n    tag_4:\n      tag_25\n      tag_26\n      jump\t// in\n    tag_25:\n      mload(0x40)\n      tag_27\n      swap2\n      swap1\n      jump(tag_28)\n    tag_27:\n      mload(0x40)\n      dup1\n      swap2\n      sub\n      swap1\n      return\n        /* \"contract/entities.sol\":4067:5119  function evaluer(\r... */\n    tag_5:\n      tag_29\n      0x04\n      dup1\n      calldatasize\n      sub\n      tag_30\n      swap2\n      swap1\n      dup2\n      add\n      swap1\n      jump(tag_31)\n    tag_30:\n      tag_32\n      jump\t// in\n    tag_29:\n      stop\n        /* \"contract/entities.sol\":1876:1906  uint256 public NbEtablisements */\n    tag_6:\n      tag_33\n      tag_34\n      jump\t// in\n    tag_33:\n      mload(0x40)\n      tag_35\n      swap2\n      swap1\n      jump(tag_28)\n    tag_35:\n      mload(0x40)\n      dup1\n      swap2\n      sub\n      swap1\n      return\n        /* \"contract/entities.sol\":1704:1747  mapping(uint256 => Diplome) public Diplomes */\n    tag_7:\n      tag_36\n      0x04\n      dup1\n      calldatasize\n      sub\n      tag_37\n      swap2\n      swap1\n      dup2\n      add\n      swap1\n      jump(tag_23)\n    tag_37:\n      tag_38\n      jump\t// in\n    tag_36:\n      mload(0x40)\n      tag_39\n      swap9\n      swap8\n      swap7\n      swap6\n      swap5\n      swap4\n      swap3\n      swap2\n      swap1\n      jump(tag_40)\n    tag_39:\n      mload(0x40)\n      dup1\n      swap2\n      sub\n      swap1\n      return\n        /* \"contract/entities.sol\":1588:1637  mapping(uint256 => Entreprise) public Entreprises */\n    tag_8:\n      tag_41\n      0x04\n      dup1\n      calldatasize\n      sub\n      tag_42\n      swap2\n      swap1\n      dup2\n      add\n      swap1\n      jump(tag_23)\n    tag_42:\n      tag_43\n      jump\t// in\n    tag_41:\n      mload(0x40)\n      tag_44\n      swap10\n      swap9\n      swap8\n      swap7\n      swap6\n      swap5\n      swap4\n      swap3\n      swap2\n      swap1\n      jump(tag_45)\n    tag_44:\n      mload(0x40)\n      dup1\n      swap2\n      sub\n      swap1\n      return\n        /* \"contract/entities.sol\":2922:3099  function ajouter_etablisement(string memory Nom) public {\r... */\n    tag_9:\n      tag_46\n      0x04\n      dup1\n      calldatasize\n      sub\n      tag_47\n      swap2\n      swap1\n      dup2\n      add\n      swap1\n      jump(tag_48)\n    tag_47:\n      tag_49\n      jump\t// in\n    tag_46:\n      stop\n        /* \"contract/entities.sol\":3273:3566  function ajouter_etudiant(string memory Nom, string memory Prenom) public {\r... */\n    tag_10:\n      tag_50\n      0x04\n      dup1\n      calldatasize\n      sub\n      tag_51\n      swap2\n      swap1\n      dup2\n      add\n      swap1\n      jump(tag_52)\n    tag_51:\n      tag_53\n      jump\t// in\n    tag_50:\n      stop\n        /* \"contract/entities.sol\":1756:1868  function get_Etudiants(uint256 id) public view returns (Etudiant memory) {\r... */\n    tag_11:\n      tag_54\n      0x04\n      dup1\n      calldatasize\n      sub\n      tag_55\n      swap2\n      swap1\n      dup2\n      add\n      swap1\n      jump(tag_23)\n    tag_55:\n      tag_56\n      jump\t// in\n    tag_54:\n      mload(0x40)\n      tag_57\n      swap2\n      swap1\n      jump(tag_58)\n    tag_57:\n      mload(0x40)\n      dup1\n      swap2\n      sub\n      swap1\n      return\n        /* \"contract/entities.sol\":1981:2006  uint256 public NbDiplomes */\n    tag_12:\n      tag_59\n      tag_60\n      jump\t// in\n    tag_59:\n      mload(0x40)\n      tag_61\n      swap2\n      swap1\n      jump(tag_28)\n    tag_61:\n      mload(0x40)\n      dup1\n      swap2\n      sub\n      swap1\n      return\n        /* \"contract/entities.sol\":1644:1697  mapping(address => uint256) public AddressEntreprises */\n    tag_13:\n      tag_62\n      0x04\n      dup1\n      calldatasize\n      sub\n      tag_63\n      swap2\n      swap1\n      dup2\n      add\n      swap1\n      jump(tag_64)\n    tag_63:\n      tag_65\n      jump\t// in\n    tag_62:\n      mload(0x40)\n      tag_66\n      swap2\n      swap1\n      jump(tag_28)\n    tag_66:\n      mload(0x40)\n      dup1\n      swap2\n      sub\n      swap1\n      return\n        /* \"contract/entities.sol\":1428:1481  mapping(uint256 => Etablisement) public Etablisements */\n    tag_14:\n      tag_67\n      0x04\n      dup1\n      calldatasize\n      sub\n      tag_68\n      swap2\n      swap1\n      dup2\n      add\n      swap1\n      jump(tag_23)\n    tag_68:\n      tag_69\n      jump\t// in\n    tag_67:\n      mload(0x40)\n      tag_70\n      swap7\n      swap6\n      swap5\n      swap4\n      swap3\n      swap2\n      swap1\n      jump(tag_71)\n    tag_70:\n      mload(0x40)\n      dup1\n      swap2\n      sub\n      swap1\n      return\n        /* \"contract/entities.sol\":5165:5539  function verifier(uint256 DiplomeID) public returns (Diplome memory) {\r... */\n    tag_15:\n      tag_72\n      0x04\n      dup1\n      calldatasize\n      sub\n      tag_73\n      swap2\n      swap1\n      dup2\n      add\n      swap1\n      jump(tag_23)\n    tag_73:\n      tag_74\n      jump\t// in\n    tag_72:\n      mload(0x40)\n      tag_75\n      swap2\n      swap1\n      jump(tag_76)\n    tag_75:\n      mload(0x40)\n      dup1\n      swap2\n      sub\n      swap1\n      return\n        /* \"contract/entities.sol\":3107:3265  function ajouter_entreprise(string memory Nom) public {\r... */\n    tag_16:\n      tag_77\n      0x04\n      dup1\n      calldatasize\n      sub\n      tag_78\n      swap2\n      swap1\n      dup2\n      add\n      swap1\n      jump(tag_48)\n    tag_78:\n      tag_79\n      jump\t// in\n    tag_77:\n      stop\n        /* \"contract/entities.sol\":1946:1974  uint256 public NbEntreprises */\n    tag_17:\n      tag_80\n      tag_81\n      jump\t// in\n    tag_80:\n      mload(0x40)\n      tag_82\n      swap2\n      swap1\n      jump(tag_28)\n    tag_82:\n      mload(0x40)\n      dup1\n      swap2\n      sub\n      swap1\n      return\n        /* \"contract/entities.sol\":3574:4059  function ajouter_diplome(uint256 ID_Titulaire) public {\r... */\n    tag_24:\n        /* \"contract/entities.sol\":3639:3649  uint256 id */\n      0x00\n        /* \"contract/entities.sol\":3652:3672  AddressEtablisements */\n      0x03\n        /* \"contract/entities.sol\":3652:3684  AddressEtablisements[msg.sender] */\n      0x00\n        /* \"contract/entities.sol\":3673:3683  msg.sender */\n      caller\n        /* \"contract/entities.sol\":3652:3684  AddressEtablisements[msg.sender] */\n      0xffffffffffffffffffffffffffffffffffffffff\n      and\n      0xffffffffffffffffffffffffffffffffffffffff\n      and\n      dup2\n      mstore\n      0x20\n      add\n      swap1\n      dup2\n      mstore\n      0x20\n      add\n      0x00\n      keccak256\n      sload\n        /* \"contract/entities.sol\":3639:3684  uint256 id = AddressEtablisements[msg.sender] */\n      swap1\n      pop\n        /* \"contract/entities.sol\":3709:3710  0 */\n      0x00\n        /* \"contract/entities.sol\":3703:3705  id */\n      dup2\n        /* \"contract/entities.sol\":3703:3710  id != 0 */\n      eq\n      iszero\n        /* \"contract/entities.sol\":3695:3731  require(id != 0, \"not etablisement\") */\n      tag_84\n      jumpi\n      mload(0x40)\n      0x08c379a000000000000000000000000000000000000000000000000000000000\n      dup2\n      mstore\n      0x04\n      add\n      tag_85\n      swap1\n      jump(tag_86)\n    tag_85:\n      mload(0x40)\n      dup1\n      swap2\n      sub\n      swap1\n      revert\n    tag_84:\n        /* \"contract/entities.sol\":3742:3765  Etudiant memory student */\n      tag_87\n      tag_88\n      jump\t// in\n    tag_87:\n        /* \"contract/entities.sol\":3768:3777  Etudiants */\n      0x04\n        /* \"contract/entities.sol\":3768:3791  Etudiants[ID_Titulaire] */\n      0x00\n        /* \"contract/entities.sol\":3778:3790  ID_Titulaire */\n      dup5\n        /* \"contract/entities.sol\":3768:3791  Etudiants[ID_Titulaire] */\n      dup2\n      mstore\n      0x20\n      add\n      swap1\n      dup2\n      mstore\n      0x20\n      add\n      0x00\n      keccak256\n        /* \"contract/entities.sol\":3742:3791  Etudiant memory student = Etudiants[ID_Titulaire] */\n      mload(0x40)\n      dup1\n      0x0200\n      add\n      0x40\n      mstore\n      swap1\n      dup2\n      0x00\n      dup3\n      add\n      dup1\n      sload\n      0x01\n      dup2\n      0x01\n      and\n      iszero\n      0x0100\n      mul\n      sub\n      and\n      0x02\n      swap1\n      div\n      dup1\n      0x1f\n      add\n      0x20\n      dup1\n      swap2\n      div\n      mul\n      0x20\n      add\n      mload(0x40)\n      swap1\n      dup2\n      add\n      0x40\n      mstore\n      dup1\n      swap3\n      swap2\n      swap1\n      dup2\n      dup2\n      mstore\n      0x20\n      add\n      dup3\n      dup1\n      sload\n      0x01\n      dup2\n      0x01\n      and\n      iszero\n      0x0100\n      mul\n      sub\n      and\n      0x02\n      swap1\n      div\n      dup1\n      iszero\n      tag_89\n      jumpi\n      dup1\n      0x1f\n      lt\n      tag_90\n      jumpi\n      0x0100\n      dup1\n      dup4\n      sload\n      div\n      mul\n      dup4\n      mstore\n      swap2\n      0x20\n      add\n      swap2\n      jump(tag_89)\n    tag_90:\n      dup3\n      add\n      swap2\n      swap1\n      0x00\n      mstore\n      keccak256(0x00, 0x20)\n      swap1\n    tag_91:\n      dup2\n      sload\n      dup2\n      mstore\n      swap1\n      0x01\n      add\n      swap1\n      0x20\n      add\n      dup1\n      dup4\n      gt\n      tag_91\n      jumpi\n      dup3\n      swap1\n      sub\n      0x1f\n      and\n      dup3\n      add\n      swap2\n    tag_89:\n      pop\n      pop\n      pop\n      pop\n      pop\n      dup2\n      mstore\n      0x20\n      add\n      0x01\n      dup3\n      add\n      dup1\n      sload\n      0x01\n      dup2\n      0x01\n      and\n      iszero\n      0x0100\n      mul\n      sub\n      and\n      0x02\n      swap1\n      div\n      dup1\n      0x1f\n      add\n      0x20\n      dup1\n      swap2\n      div\n      mul\n      0x20\n      add\n      mload(0x40)\n      swap1\n      dup2\n      add\n      0x40\n      mstore\n      dup1\n      swap3\n      swap2\n      swap1\n      dup2\n      dup2\n      mstore\n      0x20\n      add\n      dup3\n      dup1\n      sload\n      0x01\n      dup2\n      0x01\n      and\n      iszero\n      0x0100\n      mul\n      sub\n      and\n      0x02\n      swap1\n      div\n      dup1\n      iszero\n      tag_92\n      jumpi\n      dup1\n      0x1f\n      lt\n      tag_93\n      jumpi\n      0x0100\n      dup1\n      dup4\n      sload\n      div\n      mul\n      dup4\n      mstore\n      swap2\n      0x20\n      add\n      swap2\n      jump(tag_92)\n    tag_93:\n      dup3\n      add\n      swap2\n      swap1\n      0x00\n      mstore\n      keccak256(0x00, 0x20)\n      swap1\n    tag_94:\n      dup2\n      sload\n      dup2\n      mstore\n      swap1\n      0x01\n      add\n      swap1\n      0x20\n      add\n      dup1\n      dup4\n      gt\n      tag_94\n      jumpi\n      dup3\n      swap1\n      sub\n      0x1f\n      and\n      dup3\n      add\n      swap2\n    tag_92:\n      pop\n      pop\n      pop\n      pop\n      pop\n      dup2\n      mstore\n      0x20\n      add\n      0x02\n      dup3\n      add\n      dup1\n      sload\n      0x01\n      dup2\n      0x01\n      and\n      iszero\n      0x0100\n      mul\n      sub\n      and\n      0x02\n      swap1\n      div\n      dup1\n      0x1f\n      add\n      0x20\n      dup1\n      swap2\n      div\n      mul\n      0x20\n      add\n      mload(0x40)\n      swap1\n      dup2\n      add\n      0x40\n      mstore\n      dup1\n      swap3\n      swap2\n      swap1\n      dup2\n      dup2\n      mstore\n      0x20\n      add\n      dup3\n      dup1\n      sload\n      0x01\n      dup2\n      0x01\n      and\n      iszero\n      0x0100\n      mul\n      sub\n      and\n      0x02\n      swap1\n      div\n      dup1\n      iszero\n      tag_95\n      jumpi\n      dup1\n      0x1f\n      lt\n      tag_96\n      jumpi\n      0x0100\n      dup1\n      dup4\n      sload\n      div\n      mul\n      dup4\n      mstore\n      swap2\n      0x20\n      add\n      swap2\n      jump(tag_95)\n    tag_96:\n      dup3\n      add\n      swap2\n      swap1\n      0x00\n      mstore\n      keccak256(0x00, 0x20)\n      swap1\n    tag_97:\n      dup2\n      sload\n      dup2\n      mstore\n      swap1\n      0x01\n      add\n      swap1\n      0x20\n      add\n      dup1\n      dup4\n      gt\n      tag_97\n      jumpi\n      dup3\n      swap1\n      sub\n      0x1f\n      and\n      dup3\n      add\n      swap2\n    tag_95:\n      pop\n      pop\n      pop\n      pop\n      pop\n      dup2\n      mstore\n      0x20\n      add\n      0x03\n      dup3\n      add\n      dup1\n      sload\n      0x01\n      dup2\n      0x01\n      and\n      iszero\n      0x0100\n      mul\n      sub\n      and\n      0x02\n      swap1\n      div\n      dup1\n      0x1f\n      add\n      0x20\n      dup1\n      swap2\n      div\n      mul\n      0x20\n      add\n      mload(0x40)\n      swap1\n      dup2\n      add\n      0x40\n      mstore\n      dup1\n      swap3\n      swap2\n      swap1\n      dup2\n      dup2\n      mstore\n      0x20\n      add\n      dup3\n      dup1\n      sload\n      0x01\n      dup2\n      0x01\n      and\n      iszero\n      0x0100\n      mul\n      sub\n      and\n      0x02\n      swap1\n      div\n      dup1\n      iszero\n      tag_98\n      jumpi\n      dup1\n      0x1f\n      lt\n      tag_99\n      jumpi\n      0x0100\n      dup1\n      dup4\n      sload\n      div\n      mul\n      dup4\n      mstore\n      swap2\n      0x20\n      add\n      swap2\n      jump(tag_98)\n    tag_99:\n      dup3\n      add\n      swap2\n      swap1\n      0x00\n      mstore\n      keccak256(0x00, 0x20)\n      swap1\n    tag_100:\n      dup2\n      sload\n      dup2\n      mstore\n      swap1\n      0x01\n      add\n      swap1\n      0x20\n      add\n      dup1\n      dup4\n      gt\n      tag_100\n      jumpi\n      dup3\n      swap1\n      sub\n      0x1f\n      and\n      dup3\n      add\n      swap2\n    tag_98:\n      pop\n      pop\n      pop\n      pop\n      pop\n      dup2\n      mstore\n      0x20\n      add\n      0x04\n      dup3\n      add\n      dup1\n      sload\n      0x01\n      dup2\n      0x01\n      and\n      iszero\n      0x0100\n      mul\n      sub\n      and\n      0x02\n      swap1\n      div\n      dup1\n      0x1f\n      add\n      0x20\n      dup1\n      swap2\n      div\n      mul\n      0x20\n      add\n      mload(0x40)\n      swap1\n      dup2\n      add\n      0x40\n      mstore\n      dup1\n      swap3\n      swap2\n      swap1\n      dup2\n      dup2\n      mstore\n      0x20\n      add\n      dup3\n      dup1\n      sload\n      0x01\n      dup2\n      0x01\n      and\n      iszero\n      0x0100\n      mul\n      sub\n      and\n      0x02\n      swap1\n      div\n      dup1\n      iszero\n      tag_101\n      jumpi\n      dup1\n      0x1f\n      lt\n      tag_102\n      jumpi\n      0x0100\n      dup1\n      dup4\n      sload\n      div\n      mul\n      dup4\n      mstore\n      swap2\n      0x20\n      add\n      swap2\n      jump(tag_101)\n    tag_102:\n      dup3\n      add\n      swap2\n      swap1\n      0x00\n      mstore\n      keccak256(0x00, 0x20)\n      swap1\n    tag_103:\n      dup2\n      sload\n      dup2\n      mstore\n      swap1\n      0x01\n      add\n      swap1\n      0x20\n      add\n      dup1\n      dup4\n      gt\n      tag_103\n      jumpi\n      dup3\n      swap1\n      sub\n      0x1f\n      and\n      dup3\n      add\n      swap2\n    tag_101:\n      pop\n      pop\n      pop\n      pop\n      pop\n      dup2\n      mstore\n      0x20\n      add\n      0x05\n      dup3\n      add\n      dup1\n      sload\n      0x01\n      dup2\n      0x01\n      and\n      iszero\n      0x0100\n      mul\n      sub\n      and\n      0x02\n      swap1\n      div\n      dup1\n      0x1f\n      add\n      0x20\n      dup1\n      swap2\n      div\n      mul\n      0x20\n      add\n      mload(0x40)\n      swap1\n      dup2\n      add\n      0x40\n      mstore\n      dup1\n      swap3\n      swap2\n      swap1\n      dup2\n      dup2\n      mstore\n      0x20\n      add\n      dup3\n      dup1\n      sload\n      0x01\n      dup2\n      0x01\n      and\n      iszero\n      0x0100\n      mul\n      sub\n      and\n      0x02\n      swap1\n      div\n      dup1\n      iszero\n      tag_104\n      jumpi\n      dup1\n      0x1f\n      lt\n      tag_105\n      jumpi\n      0x0100\n      dup1\n      dup4\n      sload\n      div\n      mul\n      dup4\n      mstore\n      swap2\n      0x20\n      add\n      swap2\n      jump(tag_104)\n    tag_105:\n      dup3\n      add\n      swap2\n      swap1\n      0x00\n      mstore\n      keccak256(0x00, 0x20)\n      swap1\n    tag_106:\n      dup2\n      sload\n      dup2\n      mstore\n      swap1\n      0x01\n      add\n      swap1\n      0x20\n      add\n      dup1\n      dup4\n      gt\n      tag_106\n      jumpi\n      dup3\n      swap1\n      sub\n      0x1f\n      and\n      dup3\n      add\n      swap2\n    tag_104:\n      pop\n      pop\n      pop\n      pop\n      pop\n      dup2\n      mstore\n      0x20\n      add\n      0x06\n      dup3\n      add\n      dup1\n      sload\n      0x01\n      dup2\n      0x01\n      and\n      iszero\n      0x0100\n      mul\n      sub\n      and\n      0x02\n      swap1\n      div\n      dup1\n      0x1f\n      add\n      0x20\n      dup1\n      swap2\n      div\n      mul\n      0x20\n      add\n      mload(0x40)\n      swap1\n      dup2\n      add\n      0x40\n      mstore\n      dup1\n      swap3\n      swap2\n      swap1\n      dup2\n      dup2\n      mstore\n      0x20\n      add\n      dup3\n      dup1\n      sload\n      0x01\n      dup2\n      0x01\n      and\n      iszero\n      0x0100\n      mul\n      sub\n      and\n      0x02\n      swap1\n      div\n      dup1\n      iszero\n      tag_107\n      jumpi\n      dup1\n      0x1f\n      lt\n      tag_108\n      jumpi\n      0x0100\n      dup1\n      dup4\n      sload\n      div\n      mul\n      dup4\n      mstore\n      swap2\n      0x20\n      add\n      swap2\n      jump(tag_107)\n    tag_108:\n      dup3\n      add\n      swap2\n      swap1\n      0x00\n      mstore\n      keccak256(0x00, 0x20)\n      swap1\n    tag_109:\n      dup2\n      sload\n      dup2\n      mstore\n      swap1\n      0x01\n      add\n      swap1\n      0x20\n      add\n      dup1\n      dup4\n      gt\n      tag_109\n      jumpi\n      dup3\n      swap1\n      sub\n      0x1f\n      and\n      dup3\n      add\n      swap2\n    tag_107:\n      pop\n      pop\n      pop\n      pop\n      pop\n      dup2\n      mstore\n      0x20\n      add\n      0x07\n      dup3\n      add\n      dup1\n      sload\n      0x01\n      dup2\n      0x01\n      and\n      iszero\n      0x0100\n      mul\n      sub\n      and\n      0x02\n      swap1\n      div\n      dup1\n      0x1f\n      add\n      0x20\n      dup1\n      swap2\n      div\n      mul\n      0x20\n      add\n      mload(0x40)\n      swap1\n      dup2\n      add\n      0x40\n      mstore\n      dup1\n      swap3\n      swap2\n      swap1\n      dup2\n      dup2\n      mstore\n      0x20\n      add\n      dup3\n      dup1\n      sload\n      0x01\n      dup2\n      0x01\n      and\n      iszero\n      0x0100\n      mul\n      sub\n      and\n      0x02\n      swap1\n      div\n      dup1\n      iszero\n      tag_110\n      jumpi\n      dup1\n      0x1f\n      lt\n      tag_111\n      jumpi\n      0x0100\n      dup1\n      dup4\n      sload\n      div\n      mul\n      dup4\n      mstore\n      swap2\n      0x20\n      add\n      swap2\n      jump(tag_110)\n    tag_111:\n      dup3\n      add\n      swap2\n      swap1\n      0x00\n      mstore\n      keccak256(0x00, 0x20)\n      swap1\n    tag_112:\n      dup2\n      sload\n      dup2\n      mstore\n      swap1\n      0x01\n      add\n      swap1\n      0x20\n      add\n      dup1\n      dup4\n      gt\n      tag_112\n      jumpi\n      dup3\n      swap1\n      sub\n      0x1f\n      and\n      dup3\n      add\n      swap2\n    tag_110:\n      pop\n      pop\n      pop\n      pop\n      pop\n      dup2\n      mstore\n      0x20\n      add\n      0x08\n      dup3\n      add\n      dup1\n      sload\n      0x01\n      dup2\n      0x01\n      and\n      iszero\n      0x0100\n      mul\n      sub\n      and\n      0x02\n      swap1\n      div\n      dup1\n      0x1f\n      add\n      0x20\n      dup1\n      swap2\n      div\n      mul\n      0x20\n      add\n      mload(0x40)\n      swap1\n      dup2\n      add\n      0x40\n      mstore\n      dup1\n      swap3\n      swap2\n      swap1\n      dup2\n      dup2\n      mstore\n      0x20\n      add\n      dup3\n      dup1\n      sload\n      0x01\n      dup2\n      0x01\n      and\n      iszero\n      0x0100\n      mul\n      sub\n      and\n      0x02\n      swap1\n      div\n      dup1\n      iszero\n      tag_113\n      jumpi\n      dup1\n      0x1f\n      lt\n      tag_114\n      jumpi\n      0x0100\n      dup1\n      dup4\n      sload\n      div\n      mul\n      dup4\n      mstore\n      swap2\n      0x20\n      add\n      swap2\n      jump(tag_113)\n    tag_114:\n      dup3\n      add\n      swap2\n      swap1\n      0x00\n      mstore\n      keccak256(0x00, 0x20)\n      swap1\n    tag_115:\n      dup2\n      sload\n      dup2\n      mstore\n      swap1\n      0x01\n      add\n      swap1\n      0x20\n      add\n      dup1\n      dup4\n      gt\n      tag_115\n      jumpi\n      dup3\n      swap1\n      sub\n      0x1f\n      and\n      dup3\n      add\n      swap2\n    tag_113:\n      pop\n      pop\n      pop\n      pop\n      pop\n      dup2\n      mstore\n      0x20\n      add\n      0x09\n      dup3\n      add\n      dup1\n      sload\n      0x01\n      dup2\n      0x01\n      and\n      iszero\n      0x0100\n      mul\n      sub\n      and\n      0x02\n      swap1\n      div\n      dup1\n      0x1f\n      add\n      0x20\n      dup1\n      swap2\n      div\n      mul\n      0x20\n      add\n      mload(0x40)\n      swap1\n      dup2\n      add\n      0x40\n      mstore\n      dup1\n      swap3\n      swap2\n      swap1\n      dup2\n      dup2\n      mstore\n      0x20\n      add\n      dup3\n      dup1\n      sload\n      0x01\n      dup2\n      0x01\n      and\n      iszero\n      0x0100\n      mul\n      sub\n      and\n      0x02\n      swap1\n      div\n      dup1\n      iszero\n      tag_116\n      jumpi\n      dup1\n      0x1f\n      lt\n      tag_117\n      jumpi\n      0x0100\n      dup1\n      dup4\n      sload\n      div\n      mul\n      dup4\n      mstore\n      swap2\n      0x20\n      add\n      swap2\n      jump(tag_116)\n    tag_117:\n      dup3\n      add\n      swap2\n      swap1\n      0x00\n      mstore\n      keccak256(0x00, 0x20)\n      swap1\n    tag_118:\n      dup2\n      sload\n      dup2\n      mstore\n      swap1\n      0x01\n      add\n      swap1\n      0x20\n      add\n      dup1\n      dup4\n      gt\n      tag_118\n      jumpi\n      dup3\n      swap1\n      sub\n      0x1f\n      and\n      dup3\n      add\n      swap2\n    tag_116:\n      pop\n      pop\n      pop\n      pop\n      pop\n      dup2\n      mstore\n      0x20\n      add\n      0x0a\n      dup3\n      add\n      dup1\n      sload\n      0x01\n      dup2\n      0x01\n      and\n      iszero\n      0x0100\n      mul\n      sub\n      and\n      0x02\n      swap1\n      div\n      dup1\n      0x1f\n      add\n      0x20\n      dup1\n      swap2\n      div\n      mul\n      0x20\n      add\n      mload(0x40)\n      swap1\n      dup2\n      add\n      0x40\n      mstore\n      dup1\n      swap3\n      swap2\n      swap1\n      dup2\n      dup2\n      mstore\n      0x20\n      add\n      dup3\n      dup1\n      sload\n      0x01\n      dup2\n      0x01\n      and\n      iszero\n      0x0100\n      mul\n      sub\n      and\n      0x02\n      swap1\n      div\n      dup1\n      iszero\n      tag_119\n      jumpi\n      dup1\n      0x1f\n      lt\n      tag_120\n      jumpi\n      0x0100\n      dup1\n      dup4\n      sload\n      div\n      mul\n      dup4\n      mstore\n      swap2\n      0x20\n      add\n      swap2\n      jump(tag_119)\n    tag_120:\n      dup3\n      add\n      swap2\n      swap1\n      0x00\n      mstore\n      keccak256(0x00, 0x20)\n      swap1\n    tag_121:\n      dup2\n      sload\n      dup2\n      mstore\n      swap1\n      0x01\n      add\n      swap1\n      0x20\n      add\n      dup1\n      dup4\n      gt\n      tag_121\n      jumpi\n      dup3\n      swap1\n      sub\n      0x1f\n      and\n      dup3\n      add\n      swap2\n    tag_119:\n      pop\n      pop\n      pop\n      pop\n      pop\n      dup2\n      mstore\n      0x20\n      add\n      0x0b\n      dup3\n      add\n      dup1\n      sload\n      0x01\n      dup2\n      0x01\n      and\n      iszero\n      0x0100\n      mul\n      sub\n      and\n      0x02\n      swap1\n      div\n      dup1\n      0x1f\n      add\n      0x20\n      dup1\n      swap2\n      div\n      mul\n      0x20\n      add\n      mload(0x40)\n      swap1\n      dup2\n      add\n      0x40\n      mstore\n      dup1\n      swap3\n      swap2\n      swap1\n      dup2\n      dup2\n      mstore\n      0x20\n      add\n      dup3\n      dup1\n      sload\n      0x01\n      dup2\n      0x01\n      and\n      iszero\n      0x0100\n      mul\n      sub\n      and\n      0x02\n      swap1\n      div\n      dup1\n      iszero\n      tag_122\n      jumpi\n      dup1\n      0x1f\n      lt\n      tag_123\n      jumpi\n      0x0100\n      dup1\n      dup4\n      sload\n      div\n      mul\n      dup4\n      mstore\n      swap2\n      0x20\n      add\n      swap2\n      jump(tag_122)\n    tag_123:\n      dup3\n      add\n      swap2\n      swap1\n      0x00\n      mstore\n      keccak256(0x00, 0x20)\n      swap1\n    tag_124:\n      dup2\n      sload\n      dup2\n      mstore\n      swap1\n      0x01\n      add\n      swap1\n      0x20\n      add\n      dup1\n      dup4\n      gt\n      tag_124\n      jumpi\n      dup3\n      swap1\n      sub\n      0x1f\n      and\n      dup3\n      add\n      swap2\n    tag_122:\n      pop\n      pop\n      pop\n      pop\n      pop\n      dup2\n      mstore\n      0x20\n      add\n      0x0c\n      dup3\n      add\n      dup1\n      sload\n      0x01\n      dup2\n      0x01\n      and\n      iszero\n      0x0100\n      mul\n      sub\n      and\n      0x02\n      swap1\n      div\n      dup1\n      0x1f\n      add\n      0x20\n      dup1\n      swap2\n      div\n      mul\n      0x20\n      add\n      mload(0x40)\n      swap1\n      dup2\n      add\n      0x40\n      mstore\n      dup1\n      swap3\n      swap2\n      swap1\n      dup2\n      dup2\n      mstore\n      0x20\n      add\n      dup3\n      dup1\n      sload\n      0x01\n      dup2\n      0x01\n      and\n      iszero\n      0x0100\n      mul\n      sub\n      and\n      0x02\n      swap1\n      div\n      dup1\n      iszero\n      tag_125\n      jumpi\n      dup1\n      0x1f\n      lt\n      tag_126\n      jumpi\n      0x0100\n      dup1\n      dup4\n      sload\n      div\n      mul\n      dup4\n      mstore\n      swap2\n      0x20\n      add\n      swap2\n      jump(tag_125)\n    tag_126:\n      dup3\n      add\n      swap2\n      swap1\n      0x00\n      mstore\n      keccak256(0x00, 0x20)\n      swap1\n    tag_127:\n      dup2\n      sload\n      dup2\n      mstore\n      swap1\n      0x01\n      add\n      swap1\n      0x20\n      add\n      dup1\n      dup4\n      gt\n      tag_127\n      jumpi\n      dup3\n      swap1\n      sub\n      0x1f\n      and\n      dup3\n      add\n      swap2\n    tag_125:\n      pop\n      pop\n      pop\n      pop\n      pop\n      dup2\n      mstore\n      0x20\n      add\n      0x0d\n      dup3\n      add\n      sload\n      dup2\n      mstore\n      0x20\n      add\n      0x0e\n      dup3\n      add\n      sload\n      dup2\n      mstore\n      0x20\n      add\n      0x0f\n      dup3\n      add\n      dup1\n      sload\n      0x01\n      dup2\n      0x01\n      and\n      iszero\n      0x0100\n      mul\n      sub\n      and\n      0x02\n      swap1\n      div\n      dup1\n      0x1f\n      add\n      0x20\n      dup1\n      swap2\n      div\n      mul\n      0x20\n      add\n      mload(0x40)\n      swap1\n      dup2\n      add\n      0x40\n      mstore\n      dup1\n      swap3\n      swap2\n      swap1\n      dup2\n      dup2\n      mstore\n      0x20\n      add\n      dup3\n      dup1\n      sload\n      0x01\n      dup2\n      0x01\n      and\n      iszero\n      0x0100\n      mul\n      sub\n      and\n      0x02\n      swap1\n      div\n      dup1\n      iszero\n      tag_128\n      jumpi\n      dup1\n      0x1f\n      lt\n      tag_129\n      jumpi\n      0x0100\n      dup1\n      dup4\n      sload\n      div\n      mul\n      dup4\n      mstore\n      swap2\n      0x20\n      add\n      swap2\n      jump(tag_128)\n    tag_129:\n      dup3\n      add\n      swap2\n      swap1\n      0x00\n      mstore\n      keccak256(0x00, 0x20)\n      swap1\n    tag_130:\n      dup2\n      sload\n      dup2\n      mstore\n      swap1\n      0x01\n      add\n      swap1\n      0x20\n      add\n      dup1\n      dup4\n      gt\n      tag_130\n      jumpi\n      dup3\n      swap1\n      sub\n      0x1f\n      and\n      dup3\n      add\n      swap2\n    tag_128:\n      pop\n      pop\n      pop\n      pop\n      pop\n      dup2\n      mstore\n      pop\n      pop\n      swap1\n      pop\n        /* \"contract/entities.sol\":3839:3840  0 */\n      0x00\n        /* \"contract/entities.sol\":3816:3823  student */\n      dup2\n        /* \"contract/entities.sol\":3816:3827  student.Nom */\n      0x00\n      add\n      mload\n        /* \"contract/entities.sol\":3810:3835  bytes(student.Nom).length */\n      mload\n        /* \"contract/entities.sol\":3810:3840  bytes(student.Nom).length != 0 */\n      eq\n      iszero\n        /* \"contract/entities.sol\":3802:3866  require(bytes(student.Nom).length != 0, \"Student doesn't exist\") */\n      tag_131\n      jumpi\n      mload(0x40)\n      0x08c379a000000000000000000000000000000000000000000000000000000000\n      dup2\n      mstore\n      0x04\n      add\n      tag_132\n      swap1\n      jump(tag_133)\n    tag_132:\n      mload(0x40)\n      dup1\n      swap2\n      sub\n      swap1\n      revert\n    tag_131:\n        /* \"contract/entities.sol\":3877:3893  Diplome memory d */\n      tag_134\n      tag_135\n      jump\t// in\n    tag_134:\n        /* \"contract/entities.sol\":3921:3933  ID_Titulaire */\n      dup4\n        /* \"contract/entities.sol\":3904:3905  d */\n      dup2\n        /* \"contract/entities.sol\":3904:3918  d.ID_Titulaire */\n      0x00\n      add\n        /* \"contract/entities.sol\":3904:3933  d.ID_Titulaire = ID_Titulaire */\n      dup2\n      dup2\n      mstore\n      pop\n      pop\n        /* \"contract/entities.sol\":3988:4001  Etablisements */\n      0x02\n        /* \"contract/entities.sol\":3988:4005  Etablisements[id] */\n      0x00\n        /* \"contract/entities.sol\":4002:4004  id */\n      dup5\n        /* \"contract/entities.sol\":3988:4005  Etablisements[id] */\n      dup2\n      mstore\n      0x20\n      add\n      swap1\n      dup2\n      mstore\n      0x20\n      add\n      0x00\n      keccak256\n        /* \"contract/entities.sol\":3988:4022  Etablisements[id].Nom_Etablisement */\n      0x00\n      add\n        /* \"contract/entities.sol\":3944:4022  d.Nom_Etablisement_Enseignement_Superieur = Etablisements[id].Nom_Etablisement */\n      dup1\n      sload\n      0x01\n      dup2\n      0x01\n      and\n      iszero\n      0x0100\n      mul\n      sub\n      and\n      0x02\n      swap1\n      div\n      dup1\n      0x1f\n      add\n      0x20\n      dup1\n      swap2\n      div\n      mul\n      0x20\n      add\n      mload(0x40)\n      swap1\n      dup2\n      add\n      0x40\n      mstore\n      dup1\n      swap3\n      swap2\n      swap1\n      dup2\n      dup2\n      mstore\n      0x20\n      add\n      dup3\n      dup1\n      sload\n      0x01\n      dup2\n      0x01\n      and\n      iszero\n      0x0100\n      mul\n      sub\n      and\n      0x02\n      swap1\n      div\n      dup1\n      iszero\n      tag_136\n      jumpi\n      dup1\n      0x1f\n      lt\n      tag_137\n      jumpi\n      0x0100\n      dup1\n      dup4\n      sload\n      div\n      mul\n      dup4\n      mstore\n      swap2\n      0x20\n      add\n      swap2\n      jump(tag_136)\n    tag_137:\n      dup3\n      add\n      swap2\n      swap1\n      0x00\n      mstore\n      keccak256(0x00, 0x20)\n      swap1\n    tag_138:\n      dup2\n      sload\n      dup2\n      mstore\n      swap1\n      0x01\n      add\n      swap1\n      0x20\n      add\n      dup1\n      dup4\n      gt\n      tag_138\n      jumpi\n      dup3\n      swap1\n      sub\n      0x1f\n      and\n      dup3\n      add\n      swap2\n    tag_136:\n      pop\n      pop\n      pop\n      pop\n      pop\n        /* \"contract/entities.sol\":3944:3945  d */\n      dup2\n        /* \"contract/entities.sol\":3944:3985  d.Nom_Etablisement_Enseignement_Superieur */\n      0x20\n      add\n        /* \"contract/entities.sol\":3944:4022  d.Nom_Etablisement_Enseignement_Superieur = Etablisements[id].Nom_Etablisement */\n      dup2\n      swap1\n      mstore\n      pop\n        /* \"contract/entities.sol\":4033:4051  ajouter_diplome(d) */\n      tag_139\n        /* \"contract/entities.sol\":4049:4050  d */\n      dup2\n        /* \"contract/entities.sol\":4033:4048  ajouter_diplome */\n      tag_140\n        /* \"contract/entities.sol\":4033:4051  ajouter_diplome(d) */\n      jump\t// in\n    tag_139:\n        /* \"contract/entities.sol\":3574:4059  function ajouter_diplome(uint256 ID_Titulaire) public {\r... */\n      pop\n      pop\n      pop\n      pop\n      jump\t// out\n        /* \"contract/entities.sol\":1913:1939  uint256 public NbEtudiants */\n    tag_26:\n      sload(0x09)\n      dup2\n      jump\t// out\n        /* \"contract/entities.sol\":4067:5119  function evaluer(\r... */\n    tag_32:\n        /* \"contract/entities.sol\":4368:4378  uint256 id */\n      0x00\n        /* \"contract/entities.sol\":4381:4399  AddressEntreprises */\n      0x06\n        /* \"contract/entities.sol\":4381:4411  AddressEntreprises[msg.sender] */\n      0x00\n        /* \"contract/entities.sol\":4400:4410  msg.sender */\n      caller\n        /* \"contract/entities.sol\":4381:4411  AddressEntreprises[msg.sender] */\n      0xffffffffffffffffffffffffffffffffffffffff\n      and\n      0xffffffffffffffffffffffffffffffffffffffff\n      and\n      dup2\n      mstore\n      0x20\n      add\n      swap1\n      dup2\n      mstore\n      0x20\n      add\n      0x00\n      keccak256\n      sload\n        /* \"contract/entities.sol\":4368:4411  uint256 id = AddressEntreprises[msg.sender] */\n      swap1\n      pop\n        /* \"contract/entities.sol\":4436:4437  0 */\n      0x00\n        /* \"contract/entities.sol\":4430:4432  id */\n      dup2\n        /* \"contract/entities.sol\":4430:4437  id != 0 */\n      eq\n      iszero\n        /* \"contract/entities.sol\":4422:4456  require(id != 0, \"no Entreprises\") */\n      tag_142\n      jumpi\n      mload(0x40)\n      0x08c379a000000000000000000000000000000000000000000000000000000000\n      dup2\n      mstore\n      0x04\n      add\n      tag_143\n      swap1\n      jump(tag_144)\n    tag_143:\n      mload(0x40)\n      dup1\n      swap2\n      sub\n      swap1\n      revert\n    tag_142:\n        /* \"contract/entities.sol\":4501:4510  Sujet_PFE */\n      dup7\n        /* \"contract/entities.sol\":4467:4476  Etudiants */\n      0x04\n        /* \"contract/entities.sol\":4467:4488  Etudiants[EtudiantID] */\n      0x00\n        /* \"contract/entities.sol\":4477:4487  EtudiantID */\n      dup11\n        /* \"contract/entities.sol\":4467:4488  Etudiants[EtudiantID] */\n      dup2\n      mstore\n      0x20\n      add\n      swap1\n      dup2\n      mstore\n      0x20\n      add\n      0x00\n      keccak256\n        /* \"contract/entities.sol\":4467:4498  Etudiants[EtudiantID].Sujet_PFE */\n      0x0a\n      add\n        /* \"contract/entities.sol\":4467:4510  Etudiants[EtudiantID].Sujet_PFE = Sujet_PFE */\n      swap1\n      dup1\n      mload\n      swap1\n      0x20\n      add\n      swap1\n      tag_145\n      swap3\n      swap2\n      swap1\n      tag_146\n      jump\t// in\n    tag_145:\n      pop\n        /* \"contract/entities.sol\":4566:4586  Entreprise_Stage_PFE */\n      dup6\n        /* \"contract/entities.sol\":4521:4530  Etudiants */\n      0x04\n        /* \"contract/entities.sol\":4521:4542  Etudiants[EtudiantID] */\n      0x00\n        /* \"contract/entities.sol\":4531:4541  EtudiantID */\n      dup11\n        /* \"contract/entities.sol\":4521:4542  Etudiants[EtudiantID] */\n      dup2\n      mstore\n      0x20\n      add\n      swap1\n      dup2\n      mstore\n      0x20\n      add\n      0x00\n      keccak256\n        /* \"contract/entities.sol\":4521:4563  Etudiants[EtudiantID].Entreprise_Stage_PFE */\n      0x0b\n      add\n        /* \"contract/entities.sol\":4521:4586  Etudiants[EtudiantID].Entreprise_Stage_PFE = Entreprise_Stage_PFE */\n      swap1\n      dup1\n      mload\n      swap1\n      0x20\n      add\n      swap1\n      tag_147\n      swap3\n      swap2\n      swap1\n      tag_146\n      jump\t// in\n    tag_147:\n      pop\n        /* \"contract/entities.sol\":4645:4668  NomPrenom_MaitreDuStage */\n      dup5\n        /* \"contract/entities.sol\":4597:4606  Etudiants */\n      0x04\n        /* \"contract/entities.sol\":4597:4618  Etudiants[EtudiantID] */\n      0x00\n        /* \"contract/entities.sol\":4607:4617  EtudiantID */\n      dup11\n        /* \"contract/entities.sol\":4597:4618  Etudiants[EtudiantID] */\n      dup2\n      mstore\n      0x20\n      add\n      swap1\n      dup2\n      mstore\n      0x20\n      add\n      0x00\n      keccak256\n        /* \"contract/entities.sol\":4597:4642  Etudiants[EtudiantID].NomPrenom_MaitreDuStage */\n      0x0c\n      add\n        /* \"contract/entities.sol\":4597:4668  Etudiants[EtudiantID].NomPrenom_MaitreDuStage = NomPrenom_MaitreDuStage */\n      swap1\n      dup1\n      mload\n      swap1\n      0x20\n      add\n      swap1\n      tag_148\n      swap3\n      swap2\n      swap1\n      tag_146\n      jump\t// in\n    tag_148:\n      pop\n        /* \"contract/entities.sol\":4720:4736  Date_debut_stage */\n      dup4\n        /* \"contract/entities.sol\":4679:4688  Etudiants */\n      0x04\n        /* \"contract/entities.sol\":4679:4700  Etudiants[EtudiantID] */\n      0x00\n        /* \"contract/entities.sol\":4689:4699  EtudiantID */\n      dup11\n        /* \"contract/entities.sol\":4679:4700  Etudiants[EtudiantID] */\n      dup2\n      mstore\n      0x20\n      add\n      swap1\n      dup2\n      mstore\n      0x20\n      add\n      0x00\n      keccak256\n        /* \"contract/entities.sol\":4679:4717  Etudiants[EtudiantID].Date_debut_stage */\n      0x0d\n      add\n        /* \"contract/entities.sol\":4679:4736  Etudiants[EtudiantID].Date_debut_stage = Date_debut_stage */\n      dup2\n      swap1\n      sstore\n      pop\n        /* \"contract/entities.sol\":4786:4800  Date_fin_stage */\n      dup3\n        /* \"contract/entities.sol\":4747:4756  Etudiants */\n      0x04\n        /* \"contract/entities.sol\":4747:4768  Etudiants[EtudiantID] */\n      0x00\n        /* \"contract/entities.sol\":4757:4767  EtudiantID */\n      dup11\n        /* \"contract/entities.sol\":4747:4768  Etudiants[EtudiantID] */\n      dup2\n      mstore\n      0x20\n      add\n      swap1\n      dup2\n      mstore\n      0x20\n      add\n      0x00\n      keccak256\n        /* \"contract/entities.sol\":4747:4783  Etudiants[EtudiantID].Date_fin_stage */\n      0x0e\n      add\n        /* \"contract/entities.sol\":4747:4800  Etudiants[EtudiantID].Date_fin_stage = Date_fin_stage */\n      dup2\n      swap1\n      sstore\n      pop\n        /* \"contract/entities.sol\":4846:4856  Evaluation */\n      dup2\n        /* \"contract/entities.sol\":4811:4820  Etudiants */\n      0x04\n        /* \"contract/entities.sol\":4811:4832  Etudiants[EtudiantID] */\n      0x00\n        /* \"contract/entities.sol\":4821:4831  EtudiantID */\n      dup11\n        /* \"contract/entities.sol\":4811:4832  Etudiants[EtudiantID] */\n      dup2\n      mstore\n      0x20\n      add\n      swap1\n      dup2\n      mstore\n      0x20\n      add\n      0x00\n      keccak256\n        /* \"contract/entities.sol\":4811:4843  Etudiants[EtudiantID].Evaluation */\n      0x0f\n      add\n        /* \"contract/entities.sol\":4811:4856  Etudiants[EtudiantID].Evaluation = Evaluation */\n      swap1\n      dup1\n      mload\n      swap1\n      0x20\n      add\n      swap1\n      tag_149\n      swap3\n      swap2\n      swap1\n      tag_146\n      jump\t// in\n    tag_149:\n      pop\n        /* \"contract/entities.sol\":4939:4941  15 */\n      0x0f\n        /* \"contract/entities.sol\":4897:4902  token */\n      0x01\n      0x00\n      swap1\n      sload\n      swap1\n      0x0100\n      exp\n      swap1\n      div\n      0xffffffffffffffffffffffffffffffffffffffff\n      and\n        /* \"contract/entities.sol\":4889:4913  MyToken(token).allowance */\n      0xffffffffffffffffffffffffffffffffffffffff\n      and\n      0xdd62ed3e\n        /* \"contract/entities.sol\":4914:4919  owner */\n      0x00\n      dup1\n      swap1\n      sload\n      swap1\n      0x0100\n      exp\n      swap1\n      div\n      0xffffffffffffffffffffffffffffffffffffffff\n      and\n        /* \"contract/entities.sol\":4929:4933  this */\n      address\n        /* \"contract/entities.sol\":4889:4935  MyToken(token).allowance(owner, address(this)) */\n      mload(0x40)\n      dup4\n      0xffffffff\n      and\n      0xe0\n      shl\n      dup2\n      mstore\n      0x04\n      add\n      tag_150\n      swap3\n      swap2\n      swap1\n      jump(tag_151)\n    tag_150:\n      0x20\n      mload(0x40)\n      dup1\n      dup4\n      sub\n      dup2\n      dup7\n      dup1\n      extcodesize\n      iszero\n        /* \"--CODEGEN--\":8:17   */\n      dup1\n        /* \"--CODEGEN--\":5:7   */\n      iszero\n      tag_152\n      jumpi\n        /* \"--CODEGEN--\":30:31   */\n      0x00\n        /* \"--CODEGEN--\":27:28   */\n      dup1\n        /* \"--CODEGEN--\":20:32   */\n      revert\n        /* \"--CODEGEN--\":5:7   */\n    tag_152:\n        /* \"contract/entities.sol\":4889:4935  MyToken(token).allowance(owner, address(this)) */\n      pop\n      gas\n      staticcall\n      iszero\n        /* \"--CODEGEN--\":8:17   */\n      dup1\n        /* \"--CODEGEN--\":5:7   */\n      iszero\n      tag_154\n      jumpi\n        /* \"--CODEGEN--\":45:61   */\n      returndatasize\n        /* \"--CODEGEN--\":42:43   */\n      0x00\n        /* \"--CODEGEN--\":39:40   */\n      dup1\n        /* \"--CODEGEN--\":24:62   */\n      returndatacopy\n        /* \"--CODEGEN--\":77:93   */\n      returndatasize\n        /* \"--CODEGEN--\":74:75   */\n      0x00\n        /* \"--CODEGEN--\":67:94   */\n      revert\n        /* \"--CODEGEN--\":5:7   */\n    tag_154:\n        /* \"contract/entities.sol\":4889:4935  MyToken(token).allowance(owner, address(this)) */\n      pop\n      pop\n      pop\n      pop\n      mload(0x40)\n      returndatasize\n        /* \"--CODEGEN--\":101:105   */\n      0x1f\n        /* \"--CODEGEN--\":97:106   */\n      not\n        /* \"--CODEGEN--\":90:94   */\n      0x1f\n        /* \"--CODEGEN--\":84:88   */\n      dup3\n        /* \"--CODEGEN--\":80:95   */\n      add\n        /* \"--CODEGEN--\":76:107   */\n      and\n        /* \"--CODEGEN--\":69:74   */\n      dup3\n        /* \"--CODEGEN--\":65:108   */\n      add\n        /* \"--CODEGEN--\":126:132   */\n      dup1\n        /* \"--CODEGEN--\":120:124   */\n      0x40\n        /* \"--CODEGEN--\":113:133   */\n      mstore\n        /* \"--CODEGEN--\":0:138   */\n      pop\n        /* \"contract/entities.sol\":4889:4935  MyToken(token).allowance(owner, address(this)) */\n      tag_155\n      swap2\n      swap1\n      dup2\n      add\n      swap1\n      jump(tag_156)\n    tag_155:\n        /* \"contract/entities.sol\":4889:4941  MyToken(token).allowance(owner, address(this)) >= 15 */\n      lt\n      iszero\n        /* \"contract/entities.sol\":4867:4986  require(\r... */\n      tag_157\n      jumpi\n      mload(0x40)\n      0x08c379a000000000000000000000000000000000000000000000000000000000\n      dup2\n      mstore\n      0x04\n      add\n      tag_158\n      swap1\n      jump(tag_159)\n    tag_158:\n      mload(0x40)\n      dup1\n      swap2\n      sub\n      swap1\n      revert\n    tag_157:\n        /* \"contract/entities.sol\":5027:5032  token */\n      0x01\n      0x00\n      swap1\n      sload\n      swap1\n      0x0100\n      exp\n      swap1\n      div\n      0xffffffffffffffffffffffffffffffffffffffff\n      and\n        /* \"contract/entities.sol\":5019:5046  MyToken(token).transferFrom */\n      0xffffffffffffffffffffffffffffffffffffffff\n      and\n      0x23b872dd\n        /* \"contract/entities.sol\":5047:5052  owner */\n      0x00\n      dup1\n      swap1\n      sload\n      swap1\n      0x0100\n      exp\n      swap1\n      div\n      0xffffffffffffffffffffffffffffffffffffffff\n      and\n        /* \"contract/entities.sol\":5054:5064  msg.sender */\n      caller\n        /* \"contract/entities.sol\":5066:5068  15 */\n      0x0f\n        /* \"contract/entities.sol\":5019:5069  MyToken(token).transferFrom(owner, msg.sender, 15) */\n      mload(0x40)\n      dup5\n      0xffffffff\n      and\n      0xe0\n      shl\n      dup2\n      mstore\n      0x04\n      add\n      tag_160\n      swap4\n      swap3\n      swap2\n      swap1\n      jump(tag_161)\n    tag_160:\n      0x20\n      mload(0x40)\n      dup1\n      dup4\n      sub\n      dup2\n      0x00\n      dup8\n      dup1\n      extcodesize\n      iszero\n        /* \"--CODEGEN--\":8:17   */\n      dup1\n        /* \"--CODEGEN--\":5:7   */\n      iszero\n      tag_162\n      jumpi\n        /* \"--CODEGEN--\":30:31   */\n      0x00\n        /* \"--CODEGEN--\":27:28   */\n      dup1\n        /* \"--CODEGEN--\":20:32   */\n      revert\n        /* \"--CODEGEN--\":5:7   */\n    tag_162:\n        /* \"contract/entities.sol\":5019:5069  MyToken(token).transferFrom(owner, msg.sender, 15) */\n      pop\n      gas\n      call\n      iszero\n        /* \"--CODEGEN--\":8:17   */\n      dup1\n        /* \"--CODEGEN--\":5:7   */\n      iszero\n      tag_164\n      jumpi\n        /* \"--CODEGEN--\":45:61   */\n      returndatasize\n        /* \"--CODEGEN--\":42:43   */\n      0x00\n        /* \"--CODEGEN--\":39:40   */\n      dup1\n        /* \"--CODEGEN--\":24:62   */\n      returndatacopy\n        /* \"--CODEGEN--\":77:93   */\n      returndatasize\n        /* \"--CODEGEN--\":74:75   */\n      0x00\n        /* \"--CODEGEN--\":67:94   */\n      revert\n        /* \"--CODEGEN--\":5:7   */\n    tag_164:\n        /* \"contract/entities.sol\":5019:5069  MyToken(token).transferFrom(owner, msg.sender, 15) */\n      pop\n      pop\n      pop\n      pop\n      mload(0x40)\n      returndatasize\n        /* \"--CODEGEN--\":101:105   */\n      0x1f\n        /* \"--CODEGEN--\":97:106   */\n      not\n        /* \"--CODEGEN--\":90:94   */\n      0x1f\n        /* \"--CODEGEN--\":84:88   */\n      dup3\n        /* \"--CODEGEN--\":80:95   */\n      add\n        /* \"--CODEGEN--\":76:107   */\n      and\n        /* \"--CODEGEN--\":69:74   */\n      dup3\n        /* \"--CODEGEN--\":65:108   */\n      add\n        /* \"--CODEGEN--\":126:132   */\n      dup1\n        /* \"--CODEGEN--\":120:124   */\n      0x40\n        /* \"--CODEGEN--\":113:133   */\n      mstore\n        /* \"--CODEGEN--\":0:138   */\n      pop\n        /* \"contract/entities.sol\":5019:5069  MyToken(token).transferFrom(owner, msg.sender, 15) */\n      tag_165\n      swap2\n      swap1\n      dup2\n      add\n      swap1\n      jump(tag_166)\n    tag_165:\n        /* \"contract/entities.sol\":4997:5111  require(\r... */\n      tag_167\n      jumpi\n      mload(0x40)\n      0x08c379a000000000000000000000000000000000000000000000000000000000\n      dup2\n      mstore\n      0x04\n      add\n      tag_168\n      swap1\n      jump(tag_169)\n    tag_168:\n      mload(0x40)\n      dup1\n      swap2\n      sub\n      swap1\n      revert\n    tag_167:\n        /* \"contract/entities.sol\":4067:5119  function evaluer(\r... */\n      pop\n      pop\n      pop\n      pop\n      pop\n      pop\n      pop\n      pop\n      jump\t// out\n        /* \"contract/entities.sol\":1876:1906  uint256 public NbEtablisements */\n    tag_34:\n      sload(0x08)\n      dup2\n      jump\t// out\n        /* \"contract/entities.sol\":1704:1747  mapping(uint256 => Diplome) public Diplomes */\n    tag_38:\n      mstore(0x20, 0x07)\n      dup1\n      0x00\n      mstore\n      keccak256(0x00, 0x40)\n      0x00\n      swap2\n      pop\n      swap1\n      pop\n      dup1\n      0x00\n      add\n      sload\n      swap1\n      dup1\n      0x01\n      add\n      dup1\n      sload\n      0x01\n      dup2\n      0x01\n      and\n      iszero\n      0x0100\n      mul\n      sub\n      and\n      0x02\n      swap1\n      div\n      dup1\n      0x1f\n      add\n      0x20\n      dup1\n      swap2\n      div\n      mul\n      0x20\n      add\n      mload(0x40)\n      swap1\n      dup2\n      add\n      0x40\n      mstore\n      dup1\n      swap3\n      swap2\n      swap1\n      dup2\n      dup2\n      mstore\n      0x20\n      add\n      dup3\n      dup1\n      sload\n      0x01\n      dup2\n      0x01\n      and\n      iszero\n      0x0100\n      mul\n      sub\n      and\n      0x02\n      swap1\n      div\n      dup1\n      iszero\n      tag_170\n      jumpi\n      dup1\n      0x1f\n      lt\n      tag_171\n      jumpi\n      0x0100\n      dup1\n      dup4\n      sload\n      div\n      mul\n      dup4\n      mstore\n      swap2\n      0x20\n      add\n      swap2\n      jump(tag_170)\n    tag_171:\n      dup3\n      add\n      swap2\n      swap1\n      0x00\n      mstore\n      keccak256(0x00, 0x20)\n      swap1\n    tag_172:\n      dup2\n      sload\n      dup2\n      mstore\n      swap1\n      0x01\n      add\n      swap1\n      0x20\n      add\n      dup1\n      dup4\n      gt\n      tag_172\n      jumpi\n      dup3\n      swap1\n      sub\n      0x1f\n      and\n      dup3\n      add\n      swap2\n    tag_170:\n      pop\n      pop\n      pop\n      pop\n      pop\n      swap1\n      dup1\n      0x02\n      add\n      sload\n      swap1\n      dup1\n      0x03\n      add\n      dup1\n      sload\n      0x01\n      dup2\n      0x01\n      and\n      iszero\n      0x0100\n      mul\n      sub\n      and\n      0x02\n      swap1\n      div\n      dup1\n      0x1f\n      add\n      0x20\n      dup1\n      swap2\n      div\n      mul\n      0x20\n      add\n      mload(0x40)\n      swap1\n      dup2\n      add\n      0x40\n      mstore\n      dup1\n      swap3\n      swap2\n      swap1\n      dup2\n      dup2\n      mstore\n      0x20\n      add\n      dup3\n      dup1\n      sload\n      0x01\n      dup2\n      0x01\n      and\n      iszero\n      0x0100\n      mul\n      sub\n      and\n      0x02\n      swap1\n      div\n      dup1\n      iszero\n      tag_173\n      jumpi\n      dup1\n      0x1f\n      lt\n      tag_174\n      jumpi\n      0x0100\n      dup1\n      dup4\n      sload\n      div\n      mul\n      dup4\n      mstore\n      swap2\n      0x20\n      add\n      swap2\n      jump(tag_173)\n    tag_174:\n      dup3\n      add\n      swap2\n      swap1\n      0x00\n      mstore\n      keccak256(0x00, 0x20)\n      swap1\n    tag_175:\n      dup2\n      sload\n      dup2\n      mstore\n      swap1\n      0x01\n      add\n      swap1\n      0x20\n      add\n      dup1\n      dup4\n      gt\n      tag_175\n      jumpi\n      dup3\n      swap1\n      sub\n      0x1f\n      and\n      dup3\n      add\n      swap2\n    tag_173:\n      pop\n      pop\n      pop\n      pop\n      pop\n      swap1\n      dup1\n      0x04\n      add\n      dup1\n      sload\n      0x01\n      dup2\n      0x01\n      and\n      iszero\n      0x0100\n      mul\n      sub\n      and\n      0x02\n      swap1\n      div\n      dup1\n      0x1f\n      add\n      0x20\n      dup1\n      swap2\n      div\n      mul\n      0x20\n      add\n      mload(0x40)\n      swap1\n      dup2\n      add\n      0x40\n      mstore\n      dup1\n      swap3\n      swap2\n      swap1\n      dup2\n      dup2\n      mstore\n      0x20\n      add\n      dup3\n      dup1\n      sload\n      0x01\n      dup2\n      0x01\n      and\n      iszero\n      0x0100\n      mul\n      sub\n      and\n      0x02\n      swap1\n      div\n      dup1\n      iszero\n      tag_176\n      jumpi\n      dup1\n      0x1f\n      lt\n      tag_177\n      jumpi\n      0x0100\n      dup1\n      dup4\n      sload\n      div\n      mul\n      dup4\n      mstore\n      swap2\n      0x20\n      add\n      swap2\n      jump(tag_176)\n    tag_177:\n      dup3\n      add\n      swap2\n      swap1\n      0x00\n      mstore\n      keccak256(0x00, 0x20)\n      swap1\n    tag_178:\n      dup2\n      sload\n      dup2\n      mstore\n      swap1\n      0x01\n      add\n      swap1\n      0x20\n      add\n      dup1\n      dup4\n      gt\n      tag_178\n      jumpi\n      dup3\n      swap1\n      sub\n      0x1f\n      and\n      dup3\n      add\n      swap2\n    tag_176:\n      pop\n      pop\n      pop\n      pop\n      pop\n      swap1\n      dup1\n      0x05\n      add\n      dup1\n      sload\n      0x01\n      dup2\n      0x01\n      and\n      iszero\n      0x0100\n      mul\n      sub\n      and\n      0x02\n      swap1\n      div\n      dup1\n      0x1f\n      add\n      0x20\n      dup1\n      swap2\n      div\n      mul\n      0x20\n      add\n      mload(0x40)\n      swap1\n      dup2\n      add\n      0x40\n      mstore\n      dup1\n      swap3\n      swap2\n      swap1\n      dup2\n      dup2\n      mstore\n      0x20\n      add\n      dup3\n      dup1\n      sload\n      0x01\n      dup2\n      0x01\n      and\n      iszero\n      0x0100\n      mul\n      sub\n      and\n      0x02\n      swap1\n      div\n      dup1\n      iszero\n      tag_179\n      jumpi\n      dup1\n      0x1f\n      lt\n      tag_180\n      jumpi\n      0x0100\n      dup1\n      dup4\n      sload\n      div\n      mul\n      dup4\n      mstore\n      swap2\n      0x20\n      add\n      swap2\n      jump(tag_179)\n    tag_180:\n      dup3\n      add\n      swap2\n      swap1\n      0x00\n      mstore\n      keccak256(0x00, 0x20)\n      swap1\n    tag_181:\n      dup2\n      sload\n      dup2\n      mstore\n      swap1\n      0x01\n      add\n      swap1\n      0x20\n      add\n      dup1\n      dup4\n      gt\n      tag_181\n      jumpi\n      dup3\n      swap1\n      sub\n      0x1f\n      and\n      dup3\n      add\n      swap2\n    tag_179:\n      pop\n      pop\n      pop\n      pop\n      pop\n      swap1\n      dup1\n      0x06\n      add\n      dup1\n      sload\n      0x01\n      dup2\n      0x01\n      and\n      iszero\n      0x0100\n      mul\n      sub\n      and\n      0x02\n      swap1\n      div\n      dup1\n      0x1f\n      add\n      0x20\n      dup1\n      swap2\n      div\n      mul\n      0x20\n      add\n      mload(0x40)\n      swap1\n      dup2\n      add\n      0x40\n      mstore\n      dup1\n      swap3\n      swap2\n      swap1\n      dup2\n      dup2\n      mstore\n      0x20\n      add\n      dup3\n      dup1\n      sload\n      0x01\n      dup2\n      0x01\n      and\n      iszero\n      0x0100\n      mul\n      sub\n      and\n      0x02\n      swap1\n      div\n      dup1\n      iszero\n      tag_182\n      jumpi\n      dup1\n      0x1f\n      lt\n      tag_183\n      jumpi\n      0x0100\n      dup1\n      dup4\n      sload\n      div\n      mul\n      dup4\n      mstore\n      swap2\n      0x20\n      add\n      swap2\n      jump(tag_182)\n    tag_183:\n      dup3\n      add\n      swap2\n      swap1\n      0x00\n      mstore\n      keccak256(0x00, 0x20)\n      swap1\n    tag_184:\n      dup2\n      sload\n      dup2\n      mstore\n      swap1\n      0x01\n      add\n      swap1\n      0x20\n      add\n      dup1\n      dup4\n      gt\n      tag_184\n      jumpi\n      dup3\n      swap1\n      sub\n      0x1f\n      and\n      dup3\n      add\n      swap2\n    tag_182:\n      pop\n      pop\n      pop\n      pop\n      pop\n      swap1\n      dup1\n      0x07\n      add\n      sload\n      swap1\n      pop\n      dup9\n      jump\t// out\n        /* \"contract/entities.sol\":1588:1637  mapping(uint256 => Entreprise) public Entreprises */\n    tag_43:\n      mstore(0x20, 0x05)\n      dup1\n      0x00\n      mstore\n      keccak256(0x00, 0x40)\n      0x00\n      swap2\n      pop\n      swap1\n      pop\n      dup1\n      0x00\n      add\n      dup1\n      sload\n      0x01\n      dup2\n      0x01\n      and\n      iszero\n      0x0100\n      mul\n      sub\n      and\n      0x02\n      swap1\n      div\n      dup1\n      0x1f\n      add\n      0x20\n      dup1\n      swap2\n      div\n      mul\n      0x20\n      add\n      mload(0x40)\n      swap1\n      dup2\n      add\n      0x40\n      mstore\n      dup1\n      swap3\n      swap2\n      swap1\n      dup2\n      dup2\n      mstore\n      0x20\n      add\n      dup3\n      dup1\n      sload\n      0x01\n      dup2\n      0x01\n      and\n      iszero\n      0x0100\n      mul\n      sub\n      and\n      0x02\n      swap1\n      div\n      dup1\n      iszero\n      tag_185\n      jumpi\n      dup1\n      0x1f\n      lt\n      tag_186\n      jumpi\n      0x0100\n      dup1\n      dup4\n      sload\n      div\n      mul\n      dup4\n      mstore\n      swap2\n      0x20\n      add\n      swap2\n      jump(tag_185)\n    tag_186:\n      dup3\n      add\n      swap2\n      swap1\n      0x00\n      mstore\n      keccak256(0x00, 0x20)\n      swap1\n    tag_187:\n      dup2\n      sload\n      dup2\n      mstore\n      swap1\n      0x01\n      add\n      swap1\n      0x20\n      add\n      dup1\n      dup4\n      gt\n      tag_187\n      jumpi\n      dup3\n      swap1\n      sub\n      0x1f\n      and\n      dup3\n      add\n      swap2\n    tag_185:\n      pop\n      pop\n      pop\n      pop\n      pop\n      swap1\n      dup1\n      0x01\n      add\n      dup1\n      sload\n      0x01\n      dup2\n      0x01\n      and\n      iszero\n      0x0100\n      mul\n      sub\n      and\n      0x02\n      swap1\n      div\n      dup1\n      0x1f\n      add\n      0x20\n      dup1\n      swap2\n      div\n      mul\n      0x20\n      add\n      mload(0x40)\n      swap1\n      dup2\n      add\n      0x40\n      mstore\n      dup1\n      swap3\n      swap2\n      swap1\n      dup2\n      dup2\n      mstore\n      0x20\n      add\n      dup3\n      dup1\n      sload\n      0x01\n      dup2\n      0x01\n      and\n      iszero\n      0x0100\n      mul\n      sub\n      and\n      0x02\n      swap1\n      div\n      dup1\n      iszero\n      tag_188\n      jumpi\n      dup1\n      0x1f\n      lt\n      tag_189\n      jumpi\n      0x0100\n      dup1\n      dup4\n      sload\n      div\n      mul\n      dup4\n      mstore\n      swap2\n      0x20\n      add\n      swap2\n      jump(tag_188)\n    tag_189:\n      dup3\n      add\n      swap2\n      swap1\n      0x00\n      mstore\n      keccak256(0x00, 0x20)\n      swap1\n    tag_190:\n      dup2\n      sload\n      dup2\n      mstore\n      swap1\n      0x01\n      add\n      swap1\n      0x20\n      add\n      dup1\n      dup4\n      gt\n      tag_190\n      jumpi\n      dup3\n      swap1\n      sub\n      0x1f\n      and\n      dup3\n      add\n      swap2\n    tag_188:\n      pop\n      pop\n      pop\n      pop\n      pop\n      swap1\n      dup1\n      0x02\n      add\n      sload\n      swap1\n      dup1\n      0x03\n      add\n      dup1\n      sload\n      0x01\n      dup2\n      0x01\n      and\n      iszero\n      0x0100\n      mul\n      sub\n      and\n      0x02\n      swap1\n      div\n      dup1\n      0x1f\n      add\n      0x20\n      dup1\n      swap2\n      div\n      mul\n      0x20\n      add\n      mload(0x40)\n      swap1\n      dup2\n      add\n      0x40\n      mstore\n      dup1\n      swap3\n      swap2\n      swap1\n      dup2\n      dup2\n      mstore\n      0x20\n      add\n      dup3\n      dup1\n      sload\n      0x01\n      dup2\n      0x01\n      and\n      iszero\n      0x0100\n      mul\n      sub\n      and\n      0x02\n      swap1\n      div\n      dup1\n      iszero\n      tag_191\n      jumpi\n      dup1\n      0x1f\n      lt\n      tag_192\n      jumpi\n      0x0100\n      dup1\n      dup4\n      sload\n      div\n      mul\n      dup4\n      mstore\n      swap2\n      0x20\n      add\n      swap2\n      jump(tag_191)\n    tag_192:\n      dup3\n      add\n      swap2\n      swap1\n      0x00\n      mstore\n      keccak256(0x00, 0x20)\n      swap1\n    tag_193:\n      dup2\n      sload\n      dup2\n      mstore\n      swap1\n      0x01\n      add\n      swap1\n      0x20\n      add\n      dup1\n      dup4\n      gt\n      tag_193\n      jumpi\n      dup3\n      swap1\n      sub\n      0x1f\n      and\n      dup3\n      add\n      swap2\n    tag_191:\n      pop\n      pop\n      pop\n      pop\n      pop\n      swap1\n      dup1\n      0x04\n      add\n      dup1\n      sload\n      0x01\n      dup2\n      0x01\n      and\n      iszero\n      0x0100\n      mul\n      sub\n      and\n      0x02\n      swap1\n      div\n      dup1\n      0x1f\n      add\n      0x20\n      dup1\n      swap2\n      div\n      mul\n      0x20\n      add\n      mload(0x40)\n      swap1\n      dup2\n      add\n      0x40\n      mstore\n      dup1\n      swap3\n      swap2\n      swap1\n      dup2\n      dup2\n      mstore\n      0x20\n      add\n      dup3\n      dup1\n      sload\n      0x01\n      dup2\n      0x01\n      and\n      iszero\n      0x0100\n      mul\n      sub\n      and\n      0x02\n      swap1\n      div\n      dup1\n      iszero\n      tag_194\n      jumpi\n      dup1\n      0x1f\n      lt\n      tag_195\n      jumpi\n      0x0100\n      dup1\n      dup4\n      sload\n      div\n      mul\n      dup4\n      mstore\n      swap2\n      0x20\n      add\n      swap2\n      jump(tag_194)\n    tag_195:\n      dup3\n      add\n      swap2\n      swap1\n      0x00\n      mstore\n      keccak256(0x00, 0x20)\n      swap1\n    tag_196:\n      dup2\n      sload\n      dup2\n      mstore\n      swap1\n      0x01\n      add\n      swap1\n      0x20\n      add\n      dup1\n      dup4\n      gt\n      tag_196\n      jumpi\n      dup3\n      swap1\n      sub\n      0x1f\n      and\n      dup3\n      add\n      swap2\n    tag_194:\n      pop\n      pop\n      pop\n      pop\n      pop\n      swap1\n      dup1\n      0x05\n      add\n      dup1\n      sload\n      0x01\n      dup2\n      0x01\n      and\n      iszero\n      0x0100\n      mul\n      sub\n      and\n      0x02\n      swap1\n      div\n      dup1\n      0x1f\n      add\n      0x20\n      dup1\n      swap2\n      div\n      mul\n      0x20\n      add\n      mload(0x40)\n      swap1\n      dup2\n      add\n      0x40\n      mstore\n      dup1\n      swap3\n      swap2\n      swap1\n      dup2\n      dup2\n      mstore\n      0x20\n      add\n      dup3\n      dup1\n      sload\n      0x01\n      dup2\n      0x01\n      and\n      iszero\n      0x0100\n      mul\n      sub\n      and\n      0x02\n      swap1\n      div\n      dup1\n      iszero\n      tag_197\n      jumpi\n      dup1\n      0x1f\n      lt\n      tag_198\n      jumpi\n      0x0100\n      dup1\n      dup4\n      sload\n      div\n      mul\n      dup4\n      mstore\n      swap2\n      0x20\n      add\n      swap2\n      jump(tag_197)\n    tag_198:\n      dup3\n      add\n      swap2\n      swap1\n      0x00\n      mstore\n      keccak256(0x00, 0x20)\n      swap1\n    tag_199:\n      dup2\n      sload\n      dup2\n      mstore\n      swap1\n      0x01\n      add\n      swap1\n      0x20\n      add\n      dup1\n      dup4\n      gt\n      tag_199\n      jumpi\n      dup3\n      swap1\n      sub\n      0x1f\n      and\n      dup3\n      add\n      swap2\n    tag_197:\n      pop\n      pop\n      pop\n      pop\n      pop\n      swap1\n      dup1\n      0x06\n      add\n      dup1\n      sload\n      0x01\n      dup2\n      0x01\n      and\n      iszero\n      0x0100\n      mul\n      sub\n      and\n      0x02\n      swap1\n      div\n      dup1\n      0x1f\n      add\n      0x20\n      dup1\n      swap2\n      div\n      mul\n      0x20\n      add\n      mload(0x40)\n      swap1\n      dup2\n      add\n      0x40\n      mstore\n      dup1\n      swap3\n      swap2\n      swap1\n      dup2\n      dup2\n      mstore\n      0x20\n      add\n      dup3\n      dup1\n      sload\n      0x01\n      dup2\n      0x01\n      and\n      iszero\n      0x0100\n      mul\n      sub\n      and\n      0x02\n      swap1\n      div\n      dup1\n      iszero\n      tag_200\n      jumpi\n      dup1\n      0x1f\n      lt\n      tag_201\n      jumpi\n      0x0100\n      dup1\n      dup4\n      sload\n      div\n      mul\n      dup4\n      mstore\n      swap2\n      0x20\n      add\n      swap2\n      jump(tag_200)\n    tag_201:\n      dup3\n      add\n      swap2\n      swap1\n      0x00\n      mstore\n      keccak256(0x00, 0x20)\n      swap1\n    tag_202:\n      dup2\n      sload\n      dup2\n      mstore\n      swap1\n      0x01\n      add\n      swap1\n      0x20\n      add\n      dup1\n      dup4\n      gt\n      tag_202\n      jumpi\n      dup3\n      swap1\n      sub\n      0x1f\n      and\n      dup3\n      add\n      swap2\n    tag_200:\n      pop\n      pop\n      pop\n      pop\n      pop\n      swap1\n      dup1\n      0x07\n      add\n      dup1\n      sload\n      0x01\n      dup2\n      0x01\n      and\n      iszero\n      0x0100\n      mul\n      sub\n      and\n      0x02\n      swap1\n      div\n      dup1\n      0x1f\n      add\n      0x20\n      dup1\n      swap2\n      div\n      mul\n      0x20\n      add\n      mload(0x40)\n      swap1\n      dup2\n      add\n      0x40\n      mstore\n      dup1\n      swap3\n      swap2\n      swap1\n      dup2\n      dup2\n      mstore\n      0x20\n      add\n      dup3\n      dup1\n      sload\n      0x01\n      dup2\n      0x01\n      and\n      iszero\n      0x0100\n      mul\n      sub\n      and\n      0x02\n      swap1\n      div\n      dup1\n      iszero\n      tag_203\n      jumpi\n      dup1\n      0x1f\n      lt\n      tag_204\n      jumpi\n      0x0100\n      dup1\n      dup4\n      sload\n      div\n      mul\n      dup4\n      mstore\n      swap2\n      0x20\n      add\n      swap2\n      jump(tag_203)\n    tag_204:\n      dup3\n      add\n      swap2\n      swap1\n      0x00\n      mstore\n      keccak256(0x00, 0x20)\n      swap1\n    tag_205:\n      dup2\n      sload\n      dup2\n      mstore\n      swap1\n      0x01\n      add\n      swap1\n      0x20\n      add\n      dup1\n      dup4\n      gt\n      tag_205\n      jumpi\n      dup3\n      swap1\n      sub\n      0x1f\n      and\n      dup3\n      add\n      swap2\n    tag_203:\n      pop\n      pop\n      pop\n      pop\n      pop\n      swap1\n      dup1\n      0x08\n      add\n      dup1\n      sload\n      0x01\n      dup2\n      0x01\n      and\n      iszero\n      0x0100\n      mul\n      sub\n      and\n      0x02\n      swap1\n      div\n      dup1\n      0x1f\n      add\n      0x20\n      dup1\n      swap2\n      div\n      mul\n      0x20\n      add\n      mload(0x40)\n      swap1\n      dup2\n      add\n      0x40\n      mstore\n      dup1\n      swap3\n      swap2\n      swap1\n      dup2\n      dup2\n      mstore\n      0x20\n      add\n      dup3\n      dup1\n      sload\n      0x01\n      dup2\n      0x01\n      and\n      iszero\n      0x0100\n      mul\n      sub\n      and\n      0x02\n      swap1\n      div\n      dup1\n      iszero\n      tag_206\n      jumpi\n      dup1\n      0x1f\n      lt\n      tag_207\n      jumpi\n      0x0100\n      dup1\n      dup4\n      sload\n      div\n      mul\n      dup4\n      mstore\n      swap2\n      0x20\n      add\n      swap2\n      jump(tag_206)\n    tag_207:\n      dup3\n      add\n      swap2\n      swap1\n      0x00\n      mstore\n      keccak256(0x00, 0x20)\n      swap1\n    tag_208:\n      dup2\n      sload\n      dup2\n      mstore\n      swap1\n      0x01\n      add\n      swap1\n      0x20\n      add\n      dup1\n      dup4\n      gt\n      tag_208\n      jumpi\n      dup3\n      swap1\n      sub\n      0x1f\n      and\n      dup3\n      add\n      swap2\n    tag_206:\n      pop\n      pop\n      pop\n      pop\n      pop\n      swap1\n      pop\n      dup10\n      jump\t// out\n        /* \"contract/entities.sol\":2922:3099  function ajouter_etablisement(string memory Nom) public {\r... */\n    tag_49:\n        /* \"contract/entities.sol\":2989:3010  Etablisement memory e */\n      tag_210\n      tag_211\n      jump\t// in\n    tag_210:\n        /* \"contract/entities.sol\":3042:3045  Nom */\n      dup2\n        /* \"contract/entities.sol\":3021:3022  e */\n      dup2\n        /* \"contract/entities.sol\":3021:3039  e.Nom_Etablisement */\n      0x00\n      add\n        /* \"contract/entities.sol\":3021:3045  e.Nom_Etablisement = Nom */\n      dup2\n      swap1\n      mstore\n      pop\n        /* \"contract/entities.sol\":3056:3091  ajouter_etablisement(e, msg.sender) */\n      tag_212\n        /* \"contract/entities.sol\":3077:3078  e */\n      dup2\n        /* \"contract/entities.sol\":3080:3090  msg.sender */\n      caller\n        /* \"contract/entities.sol\":3056:3076  ajouter_etablisement */\n      tag_213\n        /* \"contract/entities.sol\":3056:3091  ajouter_etablisement(e, msg.sender) */\n      jump\t// in\n    tag_212:\n        /* \"contract/entities.sol\":2922:3099  function ajouter_etablisement(string memory Nom) public {\r... */\n      pop\n      pop\n      jump\t// out\n        /* \"contract/entities.sol\":3273:3566  function ajouter_etudiant(string memory Nom, string memory Prenom) public {\r... */\n    tag_53:\n        /* \"contract/entities.sol\":3358:3368  uint256 id */\n      0x00\n        /* \"contract/entities.sol\":3371:3391  AddressEtablisements */\n      0x03\n        /* \"contract/entities.sol\":3371:3403  AddressEtablisements[msg.sender] */\n      0x00\n        /* \"contract/entities.sol\":3392:3402  msg.sender */\n      caller\n        /* \"contract/entities.sol\":3371:3403  AddressEtablisements[msg.sender] */\n      0xffffffffffffffffffffffffffffffffffffffff\n      and\n      0xffffffffffffffffffffffffffffffffffffffff\n      and\n      dup2\n      mstore\n      0x20\n      add\n      swap1\n      dup2\n      mstore\n      0x20\n      add\n      0x00\n      keccak256\n      sload\n        /* \"contract/entities.sol\":3358:3403  uint256 id = AddressEtablisements[msg.sender] */\n      swap1\n      pop\n        /* \"contract/entities.sol\":3428:3429  0 */\n      0x00\n        /* \"contract/entities.sol\":3422:3424  id */\n      dup2\n        /* \"contract/entities.sol\":3422:3429  id != 0 */\n      eq\n      iszero\n        /* \"contract/entities.sol\":3414:3450  require(id != 0, \"not etablisement\") */\n      tag_215\n      jumpi\n      mload(0x40)\n      0x08c379a000000000000000000000000000000000000000000000000000000000\n      dup2\n      mstore\n      0x04\n      add\n      tag_216\n      swap1\n      jump(tag_86)\n    tag_216:\n      mload(0x40)\n      dup1\n      swap2\n      sub\n      swap1\n      revert\n    tag_215:\n        /* \"contract/entities.sol\":3461:3478  Etudiant memory e */\n      tag_217\n      tag_88\n      jump\t// in\n    tag_217:\n        /* \"contract/entities.sol\":3497:3500  Nom */\n      dup4\n        /* \"contract/entities.sol\":3489:3490  e */\n      dup2\n        /* \"contract/entities.sol\":3489:3494  e.Nom */\n      0x00\n      add\n        /* \"contract/entities.sol\":3489:3500  e.Nom = Nom */\n      dup2\n      swap1\n      mstore\n      pop\n        /* \"contract/entities.sol\":3522:3528  Prenom */\n      dup3\n        /* \"contract/entities.sol\":3511:3512  e */\n      dup2\n        /* \"contract/entities.sol\":3511:3519  e.Prenom */\n      0x20\n      add\n        /* \"contract/entities.sol\":3511:3528  e.Prenom = Prenom */\n      dup2\n      swap1\n      mstore\n      pop\n        /* \"contract/entities.sol\":3539:3558  ajouter_etudiant(e) */\n      tag_218\n        /* \"contract/entities.sol\":3556:3557  e */\n      dup2\n        /* \"contract/entities.sol\":3539:3555  ajouter_etudiant */\n      tag_219\n        /* \"contract/entities.sol\":3539:3558  ajouter_etudiant(e) */\n      jump\t// in\n    tag_218:\n        /* \"contract/entities.sol\":3273:3566  function ajouter_etudiant(string memory Nom, string memory Prenom) public {\r... */\n      pop\n      pop\n      pop\n      pop\n      jump\t// out\n        /* \"contract/entities.sol\":1756:1868  function get_Etudiants(uint256 id) public view returns (Etudiant memory) {\r... */\n    tag_56:\n        /* \"contract/entities.sol\":1812:1827  Etudiant memory */\n      tag_220\n      tag_88\n      jump\t// in\n    tag_220:\n        /* \"contract/entities.sol\":1847:1856  Etudiants */\n      0x04\n        /* \"contract/entities.sol\":1847:1860  Etudiants[id] */\n      0x00\n        /* \"contract/entities.sol\":1857:1859  id */\n      dup4\n        /* \"contract/entities.sol\":1847:1860  Etudiants[id] */\n      dup2\n      mstore\n      0x20\n      add\n      swap1\n      dup2\n      mstore\n      0x20\n      add\n      0x00\n      keccak256\n        /* \"contract/entities.sol\":1840:1860  return Etudiants[id] */\n      mload(0x40)\n      dup1\n      0x0200\n      add\n      0x40\n      mstore\n      swap1\n      dup2\n      0x00\n      dup3\n      add\n      dup1\n      sload\n      0x01\n      dup2\n      0x01\n      and\n      iszero\n      0x0100\n      mul\n      sub\n      and\n      0x02\n      swap1\n      div\n      dup1\n      0x1f\n      add\n      0x20\n      dup1\n      swap2\n      div\n      mul\n      0x20\n      add\n      mload(0x40)\n      swap1\n      dup2\n      add\n      0x40\n      mstore\n      dup1\n      swap3\n      swap2\n      swap1\n      dup2\n      dup2\n      mstore\n      0x20\n      add\n      dup3\n      dup1\n      sload\n      0x01\n      dup2\n      0x01\n      and\n      iszero\n      0x0100\n      mul\n      sub\n      and\n      0x02\n      swap1\n      div\n      dup1\n      iszero\n      tag_222\n      jumpi\n      dup1\n      0x1f\n      lt\n      tag_223\n      jumpi\n      0x0100\n      dup1\n      dup4\n      sload\n      div\n      mul\n      dup4\n      mstore\n      swap2\n      0x20\n      add\n      swap2\n      jump(tag_222)\n    tag_223:\n      dup3\n      add\n      swap2\n      swap1\n      0x00\n      mstore\n      keccak256(0x00, 0x20)\n      swap1\n    tag_224:\n      dup2\n      sload\n      dup2\n      mstore\n      swap1\n      0x01\n      add\n      swap1\n      0x20\n      add\n      dup1\n      dup4\n      gt\n      tag_224\n      jumpi\n      dup3\n      swap1\n      sub\n      0x1f\n      and\n      dup3\n      add\n      swap2\n    tag_222:\n      pop\n      pop\n      pop\n      pop\n      pop\n      dup2\n      mstore\n      0x20\n      add\n      0x01\n      dup3\n      add\n      dup1\n      sload\n      0x01\n      dup2\n      0x01\n      and\n      iszero\n      0x0100\n      mul\n      sub\n      and\n      0x02\n      swap1\n      div\n      dup1\n      0x1f\n      add\n      0x20\n      dup1\n      swap2\n      div\n      mul\n      0x20\n      add\n      mload(0x40)\n      swap1\n      dup2\n      add\n      0x40\n      mstore\n      dup1\n      swap3\n      swap2\n      swap1\n      dup2\n      dup2\n      mstore\n      0x20\n      add\n      dup3\n      dup1\n      sload\n      0x01\n      dup2\n      0x01\n      and\n      iszero\n      0x0100\n      mul\n      sub\n      and\n      0x02\n      swap1\n      div\n      dup1\n      iszero\n      tag_225\n      jumpi\n      dup1\n      0x1f\n      lt\n      tag_226\n      jumpi\n      0x0100\n      dup1\n      dup4\n      sload\n      div\n      mul\n      dup4\n      mstore\n      swap2\n      0x20\n      add\n      swap2\n      jump(tag_225)\n    tag_226:\n      dup3\n      add\n      swap2\n      swap1\n      0x00\n      mstore\n      keccak256(0x00, 0x20)\n      swap1\n    tag_227:\n      dup2\n      sload\n      dup2\n      mstore\n      swap1\n      0x01\n      add\n      swap1\n      0x20\n      add\n      dup1\n      dup4\n      gt\n      tag_227\n      jumpi\n      dup3\n      swap1\n      sub\n      0x1f\n      and\n      dup3\n      add\n      swap2\n    tag_225:\n      pop\n      pop\n      pop\n      pop\n      pop\n      dup2\n      mstore\n      0x20\n      add\n      0x02\n      dup3\n      add\n      dup1\n      sload\n      0x01\n      dup2\n      0x01\n      and\n      iszero\n      0x0100\n      mul\n      sub\n      and\n      0x02\n      swap1\n      div\n      dup1\n      0x1f\n      add\n      0x20\n      dup1\n      swap2\n      div\n      mul\n      0x20\n      add\n      mload(0x40)\n      swap1\n      dup2\n      add\n      0x40\n      mstore\n      dup1\n      swap3\n      swap2\n      swap1\n      dup2\n      dup2\n      mstore\n      0x20\n      add\n      dup3\n      dup1\n      sload\n      0x01\n      dup2\n      0x01\n      and\n      iszero\n      0x0100\n      mul\n      sub\n      and\n      0x02\n      swap1\n      div\n      dup1\n      iszero\n      tag_228\n      jumpi\n      dup1\n      0x1f\n      lt\n      tag_229\n      jumpi\n      0x0100\n      dup1\n      dup4\n      sload\n      div\n      mul\n      dup4\n      mstore\n      swap2\n      0x20\n      add\n      swap2\n      jump(tag_228)\n    tag_229:\n      dup3\n      add\n      swap2\n      swap1\n      0x00\n      mstore\n      keccak256(0x00, 0x20)\n      swap1\n    tag_230:\n      dup2\n      sload\n      dup2\n      mstore\n      swap1\n      0x01\n      add\n      swap1\n      0x20\n      add\n      dup1\n      dup4\n      gt\n      tag_230\n      jumpi\n      dup3\n      swap1\n      sub\n      0x1f\n      and\n      dup3\n      add\n      swap2\n    tag_228:\n      pop\n      pop\n      pop\n      pop\n      pop\n      dup2\n      mstore\n      0x20\n      add\n      0x03\n      dup3\n      add\n      dup1\n      sload\n      0x01\n      dup2\n      0x01\n      and\n      iszero\n      0x0100\n      mul\n      sub\n      and\n      0x02\n      swap1\n      div\n      dup1\n      0x1f\n      add\n      0x20\n      dup1\n      swap2\n      div\n      mul\n      0x20\n      add\n      mload(0x40)\n      swap1\n      dup2\n      add\n      0x40\n      mstore\n      dup1\n      swap3\n      swap2\n      swap1\n      dup2\n      dup2\n      mstore\n      0x20\n      add\n      dup3\n      dup1\n      sload\n      0x01\n      dup2\n      0x01\n      and\n      iszero\n      0x0100\n      mul\n      sub\n      and\n      0x02\n      swap1\n      div\n      dup1\n      iszero\n      tag_231\n      jumpi\n      dup1\n      0x1f\n      lt\n      tag_232\n      jumpi\n      0x0100\n      dup1\n      dup4\n      sload\n      div\n      mul\n      dup4\n      mstore\n      swap2\n      0x20\n      add\n      swap2\n      jump(tag_231)\n    tag_232:\n      dup3\n      add\n      swap2\n      swap1\n      0x00\n      mstore\n      keccak256(0x00, 0x20)\n      swap1\n    tag_233:\n      dup2\n      sload\n      dup2\n      mstore\n      swap1\n      0x01\n      add\n      swap1\n      0x20\n      add\n      dup1\n      dup4\n      gt\n      tag_233\n      jumpi\n      dup3\n      swap1\n      sub\n      0x1f\n      and\n      dup3\n      add\n      swap2\n    tag_231:\n      pop\n      pop\n      pop\n      pop\n      pop\n      dup2\n      mstore\n      0x20\n      add\n      0x04\n      dup3\n      add\n      dup1\n      sload\n      0x01\n      dup2\n      0x01\n      and\n      iszero\n      0x0100\n      mul\n      sub\n      and\n      0x02\n      swap1\n      div\n      dup1\n      0x1f\n      add\n      0x20\n      dup1\n      swap2\n      div\n      mul\n      0x20\n      add\n      mload(0x40)\n      swap1\n      dup2\n      add\n      0x40\n      mstore\n      dup1\n      swap3\n      swap2\n      swap1\n      dup2\n      dup2\n      mstore\n      0x20\n      add\n      dup3\n      dup1\n      sload\n      0x01\n      dup2\n      0x01\n      and\n      iszero\n      0x0100\n      mul\n      sub\n      and\n      0x02\n      swap1\n      div\n      dup1\n      iszero\n      tag_234\n      jumpi\n      dup1\n      0x1f\n      lt\n      tag_235\n      jumpi\n      0x0100\n      dup1\n      dup4\n      sload\n      div\n      mul\n      dup4\n      mstore\n      swap2\n      0x20\n      add\n      swap2\n      jump(tag_234)\n    tag_235:\n      dup3\n      add\n      swap2\n      swap1\n      0x00\n      mstore\n      keccak256(0x00, 0x20)\n      swap1\n    tag_236:\n      dup2\n      sload\n      dup2\n      mstore\n      swap1\n      0x01\n      add\n      swap1\n      0x20\n      add\n      dup1\n      dup4\n      gt\n      tag_236\n      jumpi\n      dup3\n      swap1\n      sub\n      0x1f\n      and\n      dup3\n      add\n      swap2\n    tag_234:\n      pop\n      pop\n      pop\n      pop\n      pop\n      dup2\n      mstore\n      0x20\n      add\n      0x05\n      dup3\n      add\n      dup1\n      sload\n      0x01\n      dup2\n      0x01\n      and\n      iszero\n      0x0100\n      mul\n      sub\n      and\n      0x02\n      swap1\n      div\n      dup1\n      0x1f\n      add\n      0x20\n      dup1\n      swap2\n      div\n      mul\n      0x20\n      add\n      mload(0x40)\n      swap1\n      dup2\n      add\n      0x40\n      mstore\n      dup1\n      swap3\n      swap2\n      swap1\n      dup2\n      dup2\n      mstore\n      0x20\n      add\n      dup3\n      dup1\n      sload\n      0x01\n      dup2\n      0x01\n      and\n      iszero\n      0x0100\n      mul\n      sub\n      and\n      0x02\n      swap1\n      div\n      dup1\n      iszero\n      tag_237\n      jumpi\n      dup1\n      0x1f\n      lt\n      tag_238\n      jumpi\n      0x0100\n      dup1\n      dup4\n      sload\n      div\n      mul\n      dup4\n      mstore\n      swap2\n      0x20\n      add\n      swap2\n      jump(tag_237)\n    tag_238:\n      dup3\n      add\n      swap2\n      swap1\n      0x00\n      mstore\n      keccak256(0x00, 0x20)\n      swap1\n    tag_239:\n      dup2\n      sload\n      dup2\n      mstore\n      swap1\n      0x01\n      add\n      swap1\n      0x20\n      add\n      dup1\n      dup4\n      gt\n      tag_239\n      jumpi\n      dup3\n      swap1\n      sub\n      0x1f\n      and\n      dup3\n      add\n      swap2\n    tag_237:\n      pop\n      pop\n      pop\n      pop\n      pop\n      dup2\n      mstore\n      0x20\n      add\n      0x06\n      dup3\n      add\n      dup1\n      sload\n      0x01\n      dup2\n      0x01\n      and\n      iszero\n      0x0100\n      mul\n      sub\n      and\n      0x02\n      swap1\n      div\n      dup1\n      0x1f\n      add\n      0x20\n      dup1\n      swap2\n      div\n      mul\n      0x20\n      add\n      mload(0x40)\n      swap1\n      dup2\n      add\n      0x40\n      mstore\n      dup1\n      swap3\n      swap2\n      swap1\n      dup2\n      dup2\n      mstore\n      0x20\n      add\n      dup3\n      dup1\n      sload\n      0x01\n      dup2\n      0x01\n      and\n      iszero\n      0x0100\n      mul\n      sub\n      and\n      0x02\n      swap1\n      div\n      dup1\n      iszero\n      tag_240\n      jumpi\n      dup1\n      0x1f\n      lt\n      tag_241\n      jumpi\n      0x0100\n      dup1\n      dup4\n      sload\n      div\n      mul\n      dup4\n      mstore\n      swap2\n      0x20\n      add\n      swap2\n      jump(tag_240)\n    tag_241:\n      dup3\n      add\n      swap2\n      swap1\n      0x00\n      mstore\n      keccak256(0x00, 0x20)\n      swap1\n    tag_242:\n      dup2\n      sload\n      dup2\n      mstore\n      swap1\n      0x01\n      add\n      swap1\n      0x20\n      add\n      dup1\n      dup4\n      gt\n      tag_242\n      jumpi\n      dup3\n      swap1\n      sub\n      0x1f\n      and\n      dup3\n      add\n      swap2\n    tag_240:\n      pop\n      pop\n      pop\n      pop\n      pop\n      dup2\n      mstore\n      0x20\n      add\n      0x07\n      dup3\n      add\n      dup1\n      sload\n      0x01\n      dup2\n      0x01\n      and\n      iszero\n      0x0100\n      mul\n      sub\n      and\n      0x02\n      swap1\n      div\n      dup1\n      0x1f\n      add\n      0x20\n      dup1\n      swap2\n      div\n      mul\n      0x20\n      add\n      mload(0x40)\n      swap1\n      dup2\n      add\n      0x40\n      mstore\n      dup1\n      swap3\n      swap2\n      swap1\n      dup2\n      dup2\n      mstore\n      0x20\n      add\n      dup3\n      dup1\n      sload\n      0x01\n      dup2\n      0x01\n      and\n      iszero\n      0x0100\n      mul\n      sub\n      and\n      0x02\n      swap1\n      div\n      dup1\n      iszero\n      tag_243\n      jumpi\n      dup1\n      0x1f\n      lt\n      tag_244\n      jumpi\n      0x0100\n      dup1\n      dup4\n      sload\n      div\n      mul\n      dup4\n      mstore\n      swap2\n      0x20\n      add\n      swap2\n      jump(tag_243)\n    tag_244:\n      dup3\n      add\n      swap2\n      swap1\n      0x00\n      mstore\n      keccak256(0x00, 0x20)\n      swap1\n    tag_245:\n      dup2\n      sload\n      dup2\n      mstore\n      swap1\n      0x01\n      add\n      swap1\n      0x20\n      add\n      dup1\n      dup4\n      gt\n      tag_245\n      jumpi\n      dup3\n      swap1\n      sub\n      0x1f\n      and\n      dup3\n      add\n      swap2\n    tag_243:\n      pop\n      pop\n      pop\n      pop\n      pop\n      dup2\n      mstore\n      0x20\n      add\n      0x08\n      dup3\n      add\n      dup1\n      sload\n      0x01\n      dup2\n      0x01\n      and\n      iszero\n      0x0100\n      mul\n      sub\n      and\n      0x02\n      swap1\n      div\n      dup1\n      0x1f\n      add\n      0x20\n      dup1\n      swap2\n      div\n      mul\n      0x20\n      add\n      mload(0x40)\n      swap1\n      dup2\n      add\n      0x40\n      mstore\n      dup1\n      swap3\n      swap2\n      swap1\n      dup2\n      dup2\n      mstore\n      0x20\n      add\n      dup3\n      dup1\n      sload\n      0x01\n      dup2\n      0x01\n      and\n      iszero\n      0x0100\n      mul\n      sub\n      and\n      0x02\n      swap1\n      div\n      dup1\n      iszero\n      tag_246\n      jumpi\n      dup1\n      0x1f\n      lt\n      tag_247\n      jumpi\n      0x0100\n      dup1\n      dup4\n      sload\n      div\n      mul\n      dup4\n      mstore\n      swap2\n      0x20\n      add\n      swap2\n      jump(tag_246)\n    tag_247:\n      dup3\n      add\n      swap2\n      swap1\n      0x00\n      mstore\n      keccak256(0x00, 0x20)\n      swap1\n    tag_248:\n      dup2\n      sload\n      dup2\n      mstore\n      swap1\n      0x01\n      add\n      swap1\n      0x20\n      add\n      dup1\n      dup4\n      gt\n      tag_248\n      jumpi\n      dup3\n      swap1\n      sub\n      0x1f\n      and\n      dup3\n      add\n      swap2\n    tag_246:\n      pop\n      pop\n      pop\n      pop\n      pop\n      dup2\n      mstore\n      0x20\n      add\n      0x09\n      dup3\n      add\n      dup1\n      sload\n      0x01\n      dup2\n      0x01\n      and\n      iszero\n      0x0100\n      mul\n      sub\n      and\n      0x02\n      swap1\n      div\n      dup1\n      0x1f\n      add\n      0x20\n      dup1\n      swap2\n      div\n      mul\n      0x20\n      add\n      mload(0x40)\n      swap1\n      dup2\n      add\n      0x40\n      mstore\n      dup1\n      swap3\n      swap2\n      swap1\n      dup2\n      dup2\n      mstore\n      0x20\n      add\n      dup3\n      dup1\n      sload\n      0x01\n      dup2\n      0x01\n      and\n      iszero\n      0x0100\n      mul\n      sub\n      and\n      0x02\n      swap1\n      div\n      dup1\n      iszero\n      tag_249\n      jumpi\n      dup1\n      0x1f\n      lt\n      tag_250\n      jumpi\n      0x0100\n      dup1\n      dup4\n      sload\n      div\n      mul\n      dup4\n      mstore\n      swap2\n      0x20\n      add\n      swap2\n      jump(tag_249)\n    tag_250:\n      dup3\n      add\n      swap2\n      swap1\n      0x00\n      mstore\n      keccak256(0x00, 0x20)\n      swap1\n    tag_251:\n      dup2\n      sload\n      dup2\n      mstore\n      swap1\n      0x01\n      add\n      swap1\n      0x20\n      add\n      dup1\n      dup4\n      gt\n      tag_251\n      jumpi\n      dup3\n      swap1\n      sub\n      0x1f\n      and\n      dup3\n      add\n      swap2\n    tag_249:\n      pop\n      pop\n      pop\n      pop\n      pop\n      dup2\n      mstore\n      0x20\n      add\n      0x0a\n      dup3\n      add\n      dup1\n      sload\n      0x01\n      dup2\n      0x01\n      and\n      iszero\n      0x0100\n      mul\n      sub\n      and\n      0x02\n      swap1\n      div\n      dup1\n      0x1f\n      add\n      0x20\n      dup1\n      swap2\n      div\n      mul\n      0x20\n      add\n      mload(0x40)\n      swap1\n      dup2\n      add\n      0x40\n      mstore\n      dup1\n      swap3\n      swap2\n      swap1\n      dup2\n      dup2\n      mstore\n      0x20\n      add\n      dup3\n      dup1\n      sload\n      0x01\n      dup2\n      0x01\n      and\n      iszero\n      0x0100\n      mul\n      sub\n      and\n      0x02\n      swap1\n      div\n      dup1\n      iszero\n      tag_252\n      jumpi\n      dup1\n      0x1f\n      lt\n      tag_253\n      jumpi\n      0x0100\n      dup1\n      dup4\n      sload\n      div\n      mul\n      dup4\n      mstore\n      swap2\n      0x20\n      add\n      swap2\n      jump(tag_252)\n    tag_253:\n      dup3\n      add\n      swap2\n      swap1\n      0x00\n      mstore\n      keccak256(0x00, 0x20)\n      swap1\n    tag_254:\n      dup2\n      sload\n      dup2\n      mstore\n      swap1\n      0x01\n      add\n      swap1\n      0x20\n      add\n      dup1\n      dup4\n      gt\n      tag_254\n      jumpi\n      dup3\n      swap1\n      sub\n      0x1f\n      and\n      dup3\n      add\n      swap2\n    tag_252:\n      pop\n      pop\n      pop\n      pop\n      pop\n      dup2\n      mstore\n      0x20\n      add\n      0x0b\n      dup3\n      add\n      dup1\n      sload\n      0x01\n      dup2\n      0x01\n      and\n      iszero\n      0x0100\n      mul\n      sub\n      and\n      0x02\n      swap1\n      div\n      dup1\n      0x1f\n      add\n      0x20\n      dup1\n      swap2\n      div\n      mul\n      0x20\n      add\n      mload(0x40)\n      swap1\n      dup2\n      add\n      0x40\n      mstore\n      dup1\n      swap3\n      swap2\n      swap1\n      dup2\n      dup2\n      mstore\n      0x20\n      add\n      dup3\n      dup1\n      sload\n      0x01\n      dup2\n      0x01\n      and\n      iszero\n      0x0100\n      mul\n      sub\n      and\n      0x02\n      swap1\n      div\n      dup1\n      iszero\n      tag_255\n      jumpi\n      dup1\n      0x1f\n      lt\n      tag_256\n      jumpi\n      0x0100\n      dup1\n      dup4\n      sload\n      div\n      mul\n      dup4\n      mstore\n      swap2\n      0x20\n      add\n      swap2\n      jump(tag_255)\n    tag_256:\n      dup3\n      add\n      swap2\n      swap1\n      0x00\n      mstore\n      keccak256(0x00, 0x20)\n      swap1\n    tag_257:\n      dup2\n      sload\n      dup2\n      mstore\n      swap1\n      0x01\n      add\n      swap1\n      0x20\n      add\n      dup1\n      dup4\n      gt\n      tag_257\n      jumpi\n      dup3\n      swap1\n      sub\n      0x1f\n      and\n      dup3\n      add\n      swap2\n    tag_255:\n      pop\n      pop\n      pop\n      pop\n      pop\n      dup2\n      mstore\n      0x20\n      add\n      0x0c\n      dup3\n      add\n      dup1\n      sload\n      0x01\n      dup2\n      0x01\n      and\n      iszero\n      0x0100\n      mul\n      sub\n      and\n      0x02\n      swap1\n      div\n      dup1\n      0x1f\n      add\n      0x20\n      dup1\n      swap2\n      div\n      mul\n      0x20\n      add\n      mload(0x40)\n      swap1\n      dup2\n      add\n      0x40\n      mstore\n      dup1\n      swap3\n      swap2\n      swap1\n      dup2\n      dup2\n      mstore\n      0x20\n      add\n      dup3\n      dup1\n      sload\n      0x01\n      dup2\n      0x01\n      and\n      iszero\n      0x0100\n      mul\n      sub\n      and\n      0x02\n      swap1\n      div\n      dup1\n      iszero\n      tag_258\n      jumpi\n      dup1\n      0x1f\n      lt\n      tag_259\n      jumpi\n      0x0100\n      dup1\n      dup4\n      sload\n      div\n      mul\n      dup4\n      mstore\n      swap2\n      0x20\n      add\n      swap2\n      jump(tag_258)\n    tag_259:\n      dup3\n      add\n      swap2\n      swap1\n      0x00\n      mstore\n      keccak256(0x00, 0x20)\n      swap1\n    tag_260:\n      dup2\n      sload\n      dup2\n      mstore\n      swap1\n      0x01\n      add\n      swap1\n      0x20\n      add\n      dup1\n      dup4\n      gt\n      tag_260\n      jumpi\n      dup3\n      swap1\n      sub\n      0x1f\n      and\n      dup3\n      add\n      swap2\n    tag_258:\n      pop\n      pop\n      pop\n      pop\n      pop\n      dup2\n      mstore\n      0x20\n      add\n      0x0d\n      dup3\n      add\n      sload\n      dup2\n      mstore\n      0x20\n      add\n      0x0e\n      dup3\n      add\n      sload\n      dup2\n      mstore\n      0x20\n      add\n      0x0f\n      dup3\n      add\n      dup1\n      sload\n      0x01\n      dup2\n      0x01\n      and\n      iszero\n      0x0100\n      mul\n      sub\n      and\n      0x02\n      swap1\n      div\n      dup1\n      0x1f\n      add\n      0x20\n      dup1\n      swap2\n      div\n      mul\n      0x20\n      add\n      mload(0x40)\n      swap1\n      dup2\n      add\n      0x40\n      mstore\n      dup1\n      swap3\n      swap2\n      swap1\n      dup2\n      dup2\n      mstore\n      0x20\n      add\n      dup3\n      dup1\n      sload\n      0x01\n      dup2\n      0x01\n      and\n      iszero\n      0x0100\n      mul\n      sub\n      and\n      0x02\n      swap1\n      div\n      dup1\n      iszero\n      tag_261\n      jumpi\n      dup1\n      0x1f\n      lt\n      tag_262\n      jumpi\n      0x0100\n      dup1\n      dup4\n      sload\n      div\n      mul\n      dup4\n      mstore\n      swap2\n      0x20\n      add\n      swap2\n      jump(tag_261)\n    tag_262:\n      dup3\n      add\n      swap2\n      swap1\n      0x00\n      mstore\n      keccak256(0x00, 0x20)\n      swap1\n    tag_263:\n      dup2\n      sload\n      dup2\n      mstore\n      swap1\n      0x01\n      add\n      swap1\n      0x20\n      add\n      dup1\n      dup4\n      gt\n      tag_263\n      jumpi\n      dup3\n      swap1\n      sub\n      0x1f\n      and\n      dup3\n      add\n      swap2\n    tag_261:\n      pop\n      pop\n      pop\n      pop\n      pop\n      dup2\n      mstore\n      pop\n      pop\n      swap1\n      pop\n        /* \"contract/entities.sol\":1756:1868  function get_Etudiants(uint256 id) public view returns (Etudiant memory) {\r... */\n      swap2\n      swap1\n      pop\n      jump\t// out\n        /* \"contract/entities.sol\":1981:2006  uint256 public NbDiplomes */\n    tag_60:\n      sload(0x0b)\n      dup2\n      jump\t// out\n        /* \"contract/entities.sol\":1644:1697  mapping(address => uint256) public AddressEntreprises */\n    tag_65:\n      mstore(0x20, 0x06)\n      dup1\n      0x00\n      mstore\n      keccak256(0x00, 0x40)\n      0x00\n      swap2\n      pop\n      swap1\n      pop\n      sload\n      dup2\n      jump\t// out\n        /* \"contract/entities.sol\":1428:1481  mapping(uint256 => Etablisement) public Etablisements */\n    tag_69:\n      mstore(0x20, 0x02)\n      dup1\n      0x00\n      mstore\n      keccak256(0x00, 0x40)\n      0x00\n      swap2\n      pop\n      swap1\n      pop\n      dup1\n      0x00\n      add\n      dup1\n      sload\n      0x01\n      dup2\n      0x01\n      and\n      iszero\n      0x0100\n      mul\n      sub\n      and\n      0x02\n      swap1\n      div\n      dup1\n      0x1f\n      add\n      0x20\n      dup1\n      swap2\n      div\n      mul\n      0x20\n      add\n      mload(0x40)\n      swap1\n      dup2\n      add\n      0x40\n      mstore\n      dup1\n      swap3\n      swap2\n      swap1\n      dup2\n      dup2\n      mstore\n      0x20\n      add\n      dup3\n      dup1\n      sload\n      0x01\n      dup2\n      0x01\n      and\n      iszero\n      0x0100\n      mul\n      sub\n      and\n      0x02\n      swap1\n      div\n      dup1\n      iszero\n      tag_264\n      jumpi\n      dup1\n      0x1f\n      lt\n      tag_265\n      jumpi\n      0x0100\n      dup1\n      dup4\n      sload\n      div\n      mul\n      dup4\n      mstore\n      swap2\n      0x20\n      add\n      swap2\n      jump(tag_264)\n    tag_265:\n      dup3\n      add\n      swap2\n      swap1\n      0x00\n      mstore\n      keccak256(0x00, 0x20)\n      swap1\n    tag_266:\n      dup2\n      sload\n      dup2\n      mstore\n      swap1\n      0x01\n      add\n      swap1\n      0x20\n      add\n      dup1\n      dup4\n      gt\n      tag_266\n      jumpi\n      dup3\n      swap1\n      sub\n      0x1f\n      and\n      dup3\n      add\n      swap2\n    tag_264:\n      pop\n      pop\n      pop\n      pop\n      pop\n      swap1\n      dup1\n      0x01\n      add\n      dup1\n      sload\n      0x01\n      dup2\n      0x01\n      and\n      iszero\n      0x0100\n      mul\n      sub\n      and\n      0x02\n      swap1\n      div\n      dup1\n      0x1f\n      add\n      0x20\n      dup1\n      swap2\n      div\n      mul\n      0x20\n      add\n      mload(0x40)\n      swap1\n      dup2\n      add\n      0x40\n      mstore\n      dup1\n      swap3\n      swap2\n      swap1\n      dup2\n      dup2\n      mstore\n      0x20\n      add\n      dup3\n      dup1\n      sload\n      0x01\n      dup2\n      0x01\n      and\n      iszero\n      0x0100\n      mul\n      sub\n      and\n      0x02\n      swap1\n      div\n      dup1\n      iszero\n      tag_267\n      jumpi\n      dup1\n      0x1f\n      lt\n      tag_268\n      jumpi\n      0x0100\n      dup1\n      dup4\n      sload\n      div\n      mul\n      dup4\n      mstore\n      swap2\n      0x20\n      add\n      swap2\n      jump(tag_267)\n    tag_268:\n      dup3\n      add\n      swap2\n      swap1\n      0x00\n      mstore\n      keccak256(0x00, 0x20)\n      swap1\n    tag_269:\n      dup2\n      sload\n      dup2\n      mstore\n      swap1\n      0x01\n      add\n      swap1\n      0x20\n      add\n      dup1\n      dup4\n      gt\n      tag_269\n      jumpi\n      dup3\n      swap1\n      sub\n      0x1f\n      and\n      dup3\n      add\n      swap2\n    tag_267:\n      pop\n      pop\n      pop\n      pop\n      pop\n      swap1\n      dup1\n      0x02\n      add\n      dup1\n      sload\n      0x01\n      dup2\n      0x01\n      and\n      iszero\n      0x0100\n      mul\n      sub\n      and\n      0x02\n      swap1\n      div\n      dup1\n      0x1f\n      add\n      0x20\n      dup1\n      swap2\n      div\n      mul\n      0x20\n      add\n      mload(0x40)\n      swap1\n      dup2\n      add\n      0x40\n      mstore\n      dup1\n      swap3\n      swap2\n      swap1\n      dup2\n      dup2\n      mstore\n      0x20\n      add\n      dup3\n      dup1\n      sload\n      0x01\n      dup2\n      0x01\n      and\n      iszero\n      0x0100\n      mul\n      sub\n      and\n      0x02\n      swap1\n      div\n      dup1\n      iszero\n      tag_270\n      jumpi\n      dup1\n      0x1f\n      lt\n      tag_271\n      jumpi\n      0x0100\n      dup1\n      dup4\n      sload\n      div\n      mul\n      dup4\n      mstore\n      swap2\n      0x20\n      add\n      swap2\n      jump(tag_270)\n    tag_271:\n      dup3\n      add\n      swap2\n      swap1\n      0x00\n      mstore\n      keccak256(0x00, 0x20)\n      swap1\n    tag_272:\n      dup2\n      sload\n      dup2\n      mstore\n      swap1\n      0x01\n      add\n      swap1\n      0x20\n      add\n      dup1\n      dup4\n      gt\n      tag_272\n      jumpi\n      dup3\n      swap1\n      sub\n      0x1f\n      and\n      dup3\n      add\n      swap2\n    tag_270:\n      pop\n      pop\n      pop\n      pop\n      pop\n      swap1\n      dup1\n      0x03\n      add\n      dup1\n      sload\n      0x01\n      dup2\n      0x01\n      and\n      iszero\n      0x0100\n      mul\n      sub\n      and\n      0x02\n      swap1\n      div\n      dup1\n      0x1f\n      add\n      0x20\n      dup1\n      swap2\n      div\n      mul\n      0x20\n      add\n      mload(0x40)\n      swap1\n      dup2\n      add\n      0x40\n      mstore\n      dup1\n      swap3\n      swap2\n      swap1\n      dup2\n      dup2\n      mstore\n      0x20\n      add\n      dup3\n      dup1\n      sload\n      0x01\n      dup2\n      0x01\n      and\n      iszero\n      0x0100\n      mul\n      sub\n      and\n      0x02\n      swap1\n      div\n      dup1\n      iszero\n      tag_273\n      jumpi\n      dup1\n      0x1f\n      lt\n      tag_274\n      jumpi\n      0x0100\n      dup1\n      dup4\n      sload\n      div\n      mul\n      dup4\n      mstore\n      swap2\n      0x20\n      add\n      swap2\n      jump(tag_273)\n    tag_274:\n      dup3\n      add\n      swap2\n      swap1\n      0x00\n      mstore\n      keccak256(0x00, 0x20)\n      swap1\n    tag_275:\n      dup2\n      sload\n      dup2\n      mstore\n      swap1\n      0x01\n      add\n      swap1\n      0x20\n      add\n      dup1\n      dup4\n      gt\n      tag_275\n      jumpi\n      dup3\n      swap1\n      sub\n      0x1f\n      and\n      dup3\n      add\n      swap2\n    tag_273:\n      pop\n      pop\n      pop\n      pop\n      pop\n      swap1\n      dup1\n      0x04\n      add\n      dup1\n      sload\n      0x01\n      dup2\n      0x01\n      and\n      iszero\n      0x0100\n      mul\n      sub\n      and\n      0x02\n      swap1\n      div\n      dup1\n      0x1f\n      add\n      0x20\n      dup1\n      swap2\n      div\n      mul\n      0x20\n      add\n      mload(0x40)\n      swap1\n      dup2\n      add\n      0x40\n      mstore\n      dup1\n      swap3\n      swap2\n      swap1\n      dup2\n      dup2\n      mstore\n      0x20\n      add\n      dup3\n      dup1\n      sload\n      0x01\n      dup2\n      0x01\n      and\n      iszero\n      0x0100\n      mul\n      sub\n      and\n      0x02\n      swap1\n      div\n      dup1\n      iszero\n      tag_276\n      jumpi\n      dup1\n      0x1f\n      lt\n      tag_277\n      jumpi\n      0x0100\n      dup1\n      dup4\n      sload\n      div\n      mul\n      dup4\n      mstore\n      swap2\n      0x20\n      add\n      swap2\n      jump(tag_276)\n    tag_277:\n      dup3\n      add\n      swap2\n      swap1\n      0x00\n      mstore\n      keccak256(0x00, 0x20)\n      swap1\n    tag_278:\n      dup2\n      sload\n      dup2\n      mstore\n      swap1\n      0x01\n      add\n      swap1\n      0x20\n      add\n      dup1\n      dup4\n      gt\n      tag_278\n      jumpi\n      dup3\n      swap1\n      sub\n      0x1f\n      and\n      dup3\n      add\n      swap2\n    tag_276:\n      pop\n      pop\n      pop\n      pop\n      pop\n      swap1\n      dup1\n      0x05\n      add\n      sload\n      swap1\n      pop\n      dup7\n      jump\t// out\n        /* \"contract/entities.sol\":5165:5539  function verifier(uint256 DiplomeID) public returns (Diplome memory) {\r... */\n    tag_74:\n        /* \"contract/entities.sol\":5218:5232  Diplome memory */\n      tag_279\n      tag_135\n      jump\t// in\n    tag_279:\n        /* \"contract/entities.sol\":5322:5324  10 */\n      0x0a\n        /* \"contract/entities.sol\":5275:5280  token */\n      0x01\n      0x00\n      swap1\n      sload\n      swap1\n      0x0100\n      exp\n      swap1\n      div\n      0xffffffffffffffffffffffffffffffffffffffff\n      and\n        /* \"contract/entities.sol\":5267:5291  MyToken(token).allowance */\n      0xffffffffffffffffffffffffffffffffffffffff\n      and\n      0xdd62ed3e\n        /* \"contract/entities.sol\":5292:5302  msg.sender */\n      caller\n        /* \"contract/entities.sol\":5312:5316  this */\n      address\n        /* \"contract/entities.sol\":5267:5318  MyToken(token).allowance(msg.sender, address(this)) */\n      mload(0x40)\n      dup4\n      0xffffffff\n      and\n      0xe0\n      shl\n      dup2\n      mstore\n      0x04\n      add\n      tag_281\n      swap3\n      swap2\n      swap1\n      jump(tag_282)\n    tag_281:\n      0x20\n      mload(0x40)\n      dup1\n      dup4\n      sub\n      dup2\n      dup7\n      dup1\n      extcodesize\n      iszero\n        /* \"--CODEGEN--\":8:17   */\n      dup1\n        /* \"--CODEGEN--\":5:7   */\n      iszero\n      tag_283\n      jumpi\n        /* \"--CODEGEN--\":30:31   */\n      0x00\n        /* \"--CODEGEN--\":27:28   */\n      dup1\n        /* \"--CODEGEN--\":20:32   */\n      revert\n        /* \"--CODEGEN--\":5:7   */\n    tag_283:\n        /* \"contract/entities.sol\":5267:5318  MyToken(token).allowance(msg.sender, address(this)) */\n      pop\n      gas\n      staticcall\n      iszero\n        /* \"--CODEGEN--\":8:17   */\n      dup1\n        /* \"--CODEGEN--\":5:7   */\n      iszero\n      tag_285\n      jumpi\n        /* \"--CODEGEN--\":45:61   */\n      returndatasize\n        /* \"--CODEGEN--\":42:43   */\n      0x00\n        /* \"--CODEGEN--\":39:40   */\n      dup1\n        /* \"--CODEGEN--\":24:62   */\n      returndatacopy\n        /* \"--CODEGEN--\":77:93   */\n      returndatasize\n        /* \"--CODEGEN--\":74:75   */\n      0x00\n        /* \"--CODEGEN--\":67:94   */\n      revert\n        /* \"--CODEGEN--\":5:7   */\n    tag_285:\n        /* \"contract/entities.sol\":5267:5318  MyToken(token).allowance(msg.sender, address(this)) */\n      pop\n      pop\n      pop\n      pop\n      mload(0x40)\n      returndatasize\n        /* \"--CODEGEN--\":101:105   */\n      0x1f\n        /* \"--CODEGEN--\":97:106   */\n      not\n        /* \"--CODEGEN--\":90:94   */\n      0x1f\n        /* \"--CODEGEN--\":84:88   */\n      dup3\n        /* \"--CODEGEN--\":80:95   */\n      add\n        /* \"--CODEGEN--\":76:107   */\n      and\n        /* \"--CODEGEN--\":69:74   */\n      dup3\n        /* \"--CODEGEN--\":65:108   */\n      add\n        /* \"--CODEGEN--\":126:132   */\n      dup1\n        /* \"--CODEGEN--\":120:124   */\n      0x40\n        /* \"--CODEGEN--\":113:133   */\n      mstore\n        /* \"--CODEGEN--\":0:138   */\n      pop\n        /* \"contract/entities.sol\":5267:5318  MyToken(token).allowance(msg.sender, address(this)) */\n      tag_286\n      swap2\n      swap1\n      dup2\n      add\n      swap1\n      jump(tag_156)\n    tag_286:\n        /* \"contract/entities.sol\":5267:5324  MyToken(token).allowance(msg.sender, address(this)) >= 10 */\n      lt\n      iszero\n        /* \"contract/entities.sol\":5245:5369  require(\r... */\n      tag_287\n      jumpi\n      mload(0x40)\n      0x08c379a000000000000000000000000000000000000000000000000000000000\n      dup2\n      mstore\n      0x04\n      add\n      tag_288\n      swap1\n      jump(tag_159)\n    tag_288:\n      mload(0x40)\n      dup1\n      swap2\n      sub\n      swap1\n      revert\n    tag_287:\n        /* \"contract/entities.sol\":5410:5415  token */\n      0x01\n      0x00\n      swap1\n      sload\n      swap1\n      0x0100\n      exp\n      swap1\n      div\n      0xffffffffffffffffffffffffffffffffffffffff\n      and\n        /* \"contract/entities.sol\":5402:5429  MyToken(token).transferFrom */\n      0xffffffffffffffffffffffffffffffffffffffff\n      and\n      0x23b872dd\n        /* \"contract/entities.sol\":5430:5440  msg.sender */\n      caller\n        /* \"contract/entities.sol\":5442:5447  owner */\n      0x00\n      dup1\n      swap1\n      sload\n      swap1\n      0x0100\n      exp\n      swap1\n      div\n      0xffffffffffffffffffffffffffffffffffffffff\n      and\n        /* \"contract/entities.sol\":5449:5451  10 */\n      0x0a\n        /* \"contract/entities.sol\":5402:5452  MyToken(token).transferFrom(msg.sender, owner, 10) */\n      mload(0x40)\n      dup5\n      0xffffffff\n      and\n      0xe0\n      shl\n      dup2\n      mstore\n      0x04\n      add\n      tag_289\n      swap4\n      swap3\n      swap2\n      swap1\n      jump(tag_290)\n    tag_289:\n      0x20\n      mload(0x40)\n      dup1\n      dup4\n      sub\n      dup2\n      0x00\n      dup8\n      dup1\n      extcodesize\n      iszero\n        /* \"--CODEGEN--\":8:17   */\n      dup1\n        /* \"--CODEGEN--\":5:7   */\n      iszero\n      tag_291\n      jumpi\n        /* \"--CODEGEN--\":30:31   */\n      0x00\n        /* \"--CODEGEN--\":27:28   */\n      dup1\n        /* \"--CODEGEN--\":20:32   */\n      revert\n        /* \"--CODEGEN--\":5:7   */\n    tag_291:\n        /* \"contract/entities.sol\":5402:5452  MyToken(token).transferFrom(msg.sender, owner, 10) */\n      pop\n      gas\n      call\n      iszero\n        /* \"--CODEGEN--\":8:17   */\n      dup1\n        /* \"--CODEGEN--\":5:7   */\n      iszero\n      tag_293\n      jumpi\n        /* \"--CODEGEN--\":45:61   */\n      returndatasize\n        /* \"--CODEGEN--\":42:43   */\n      0x00\n        /* \"--CODEGEN--\":39:40   */\n      dup1\n        /* \"--CODEGEN--\":24:62   */\n      returndatacopy\n        /* \"--CODEGEN--\":77:93   */\n      returndatasize\n        /* \"--CODEGEN--\":74:75   */\n      0x00\n        /* \"--CODEGEN--\":67:94   */\n      revert\n        /* \"--CODEGEN--\":5:7   */\n    tag_293:\n        /* \"contract/entities.sol\":5402:5452  MyToken(token).transferFrom(msg.sender, owner, 10) */\n      pop\n      pop\n      pop\n      pop\n      mload(0x40)\n      returndatasize\n        /* \"--CODEGEN--\":101:105   */\n      0x1f\n        /* \"--CODEGEN--\":97:106   */\n      not\n        /* \"--CODEGEN--\":90:94   */\n      0x1f\n        /* \"--CODEGEN--\":84:88   */\n      dup3\n        /* \"--CODEGEN--\":80:95   */\n      add\n        /* \"--CODEGEN--\":76:107   */\n      and\n        /* \"--CODEGEN--\":69:74   */\n      dup3\n        /* \"--CODEGEN--\":65:108   */\n      add\n        /* \"--CODEGEN--\":126:132   */\n      dup1\n        /* \"--CODEGEN--\":120:124   */\n      0x40\n        /* \"--CODEGEN--\":113:133   */\n      mstore\n        /* \"--CODEGEN--\":0:138   */\n      pop\n        /* \"contract/entities.sol\":5402:5452  MyToken(token).transferFrom(msg.sender, owner, 10) */\n      tag_294\n      swap2\n      swap1\n      dup2\n      add\n      swap1\n      jump(tag_166)\n    tag_294:\n        /* \"contract/entities.sol\":5380:5494  require(\r... */\n      tag_295\n      jumpi\n      mload(0x40)\n      0x08c379a000000000000000000000000000000000000000000000000000000000\n      dup2\n      mstore\n      0x04\n      add\n      tag_296\n      swap1\n      jump(tag_169)\n    tag_296:\n      mload(0x40)\n      dup1\n      swap2\n      sub\n      swap1\n      revert\n    tag_295:\n        /* \"contract/entities.sol\":5512:5520  Diplomes */\n      0x07\n        /* \"contract/entities.sol\":5512:5531  Diplomes[DiplomeID] */\n      0x00\n        /* \"contract/entities.sol\":5521:5530  DiplomeID */\n      dup4\n        /* \"contract/entities.sol\":5512:5531  Diplomes[DiplomeID] */\n      dup2\n      mstore\n      0x20\n      add\n      swap1\n      dup2\n      mstore\n      0x20\n      add\n      0x00\n      keccak256\n        /* \"contract/entities.sol\":5505:5531  return Diplomes[DiplomeID] */\n      mload(0x40)\n      dup1\n      0x0100\n      add\n      0x40\n      mstore\n      swap1\n      dup2\n      0x00\n      dup3\n      add\n      sload\n      dup2\n      mstore\n      0x20\n      add\n      0x01\n      dup3\n      add\n      dup1\n      sload\n      0x01\n      dup2\n      0x01\n      and\n      iszero\n      0x0100\n      mul\n      sub\n      and\n      0x02\n      swap1\n      div\n      dup1\n      0x1f\n      add\n      0x20\n      dup1\n      swap2\n      div\n      mul\n      0x20\n      add\n      mload(0x40)\n      swap1\n      dup2\n      add\n      0x40\n      mstore\n      dup1\n      swap3\n      swap2\n      swap1\n      dup2\n      dup2\n      mstore\n      0x20\n      add\n      dup3\n      dup1\n      sload\n      0x01\n      dup2\n      0x01\n      and\n      iszero\n      0x0100\n      mul\n      sub\n      and\n      0x02\n      swap1\n      div\n      dup1\n      iszero\n      tag_297\n      jumpi\n      dup1\n      0x1f\n      lt\n      tag_298\n      jumpi\n      0x0100\n      dup1\n      dup4\n      sload\n      div\n      mul\n      dup4\n      mstore\n      swap2\n      0x20\n      add\n      swap2\n      jump(tag_297)\n    tag_298:\n      dup3\n      add\n      swap2\n      swap1\n      0x00\n      mstore\n      keccak256(0x00, 0x20)\n      swap1\n    tag_299:\n      dup2\n      sload\n      dup2\n      mstore\n      swap1\n      0x01\n      add\n      swap1\n      0x20\n      add\n      dup1\n      dup4\n      gt\n      tag_299\n      jumpi\n      dup3\n      swap1\n      sub\n      0x1f\n      and\n      dup3\n      add\n      swap2\n    tag_297:\n      pop\n      pop\n      pop\n      pop\n      pop\n      dup2\n      mstore\n      0x20\n      add\n      0x02\n      dup3\n      add\n      sload\n      dup2\n      mstore\n      0x20\n      add\n      0x03\n      dup3\n      add\n      dup1\n      sload\n      0x01\n      dup2\n      0x01\n      and\n      iszero\n      0x0100\n      mul\n      sub\n      and\n      0x02\n      swap1\n      div\n      dup1\n      0x1f\n      add\n      0x20\n      dup1\n      swap2\n      div\n      mul\n      0x20\n      add\n      mload(0x40)\n      swap1\n      dup2\n      add\n      0x40\n      mstore\n      dup1\n      swap3\n      swap2\n      swap1\n      dup2\n      dup2\n      mstore\n      0x20\n      add\n      dup3\n      dup1\n      sload\n      0x01\n      dup2\n      0x01\n      and\n      iszero\n      0x0100\n      mul\n      sub\n      and\n      0x02\n      swap1\n      div\n      dup1\n      iszero\n      tag_300\n      jumpi\n      dup1\n      0x1f\n      lt\n      tag_301\n      jumpi\n      0x0100\n      dup1\n      dup4\n      sload\n      div\n      mul\n      dup4\n      mstore\n      swap2\n      0x20\n      add\n      swap2\n      jump(tag_300)\n    tag_301:\n      dup3\n      add\n      swap2\n      swap1\n      0x00\n      mstore\n      keccak256(0x00, 0x20)\n      swap1\n    tag_302:\n      dup2\n      sload\n      dup2\n      mstore\n      swap1\n      0x01\n      add\n      swap1\n      0x20\n      add\n      dup1\n      dup4\n      gt\n      tag_302\n      jumpi\n      dup3\n      swap1\n      sub\n      0x1f\n      and\n      dup3\n      add\n      swap2\n    tag_300:\n      pop\n      pop\n      pop\n      pop\n      pop\n      dup2\n      mstore\n      0x20\n      add\n      0x04\n      dup3\n      add\n      dup1\n      sload\n      0x01\n      dup2\n      0x01\n      and\n      iszero\n      0x0100\n      mul\n      sub\n      and\n      0x02\n      swap1\n      div\n      dup1\n      0x1f\n      add\n      0x20\n      dup1\n      swap2\n      div\n      mul\n      0x20\n      add\n      mload(0x40)\n      swap1\n      dup2\n      add\n      0x40\n      mstore\n      dup1\n      swap3\n      swap2\n      swap1\n      dup2\n      dup2\n      mstore\n      0x20\n      add\n      dup3\n      dup1\n      sload\n      0x01\n      dup2\n      0x01\n      and\n      iszero\n      0x0100\n      mul\n      sub\n      and\n      0x02\n      swap1\n      div\n      dup1\n      iszero\n      tag_303\n      jumpi\n      dup1\n      0x1f\n      lt\n      tag_304\n      jumpi\n      0x0100\n      dup1\n      dup4\n      sload\n      div\n      mul\n      dup4\n      mstore\n      swap2\n      0x20\n      add\n      swap2\n      jump(tag_303)\n    tag_304:\n      dup3\n      add\n      swap2\n      swap1\n      0x00\n      mstore\n      keccak256(0x00, 0x20)\n      swap1\n    tag_305:\n      dup2\n      sload\n      dup2\n      mstore\n      swap1\n      0x01\n      add\n      swap1\n      0x20\n      add\n      dup1\n      dup4\n      gt\n      tag_305\n      jumpi\n      dup3\n      swap1\n      sub\n      0x1f\n      and\n      dup3\n      add\n      swap2\n    tag_303:\n      pop\n      pop\n      pop\n      pop\n      pop\n      dup2\n      mstore\n      0x20\n      add\n      0x05\n      dup3\n      add\n      dup1\n      sload\n      0x01\n      dup2\n      0x01\n      and\n      iszero\n      0x0100\n      mul\n      sub\n      and\n      0x02\n      swap1\n      div\n      dup1\n      0x1f\n      add\n      0x20\n      dup1\n      swap2\n      div\n      mul\n      0x20\n      add\n      mload(0x40)\n      swap1\n      dup2\n      add\n      0x40\n      mstore\n      dup1\n      swap3\n      swap2\n      swap1\n      dup2\n      dup2\n      mstore\n      0x20\n      add\n      dup3\n      dup1\n      sload\n      0x01\n      dup2\n      0x01\n      and\n      iszero\n      0x0100\n      mul\n      sub\n      and\n      0x02\n      swap1\n      div\n      dup1\n      iszero\n      tag_306\n      jumpi\n      dup1\n      0x1f\n      lt\n      tag_307\n      jumpi\n      0x0100\n      dup1\n      dup4\n      sload\n      div\n      mul\n      dup4\n      mstore\n      swap2\n      0x20\n      add\n      swap2\n      jump(tag_306)\n    tag_307:\n      dup3\n      add\n      swap2\n      swap1\n      0x00\n      mstore\n      keccak256(0x00, 0x20)\n      swap1\n    tag_308:\n      dup2\n      sload\n      dup2\n      mstore\n      swap1\n      0x01\n      add\n      swap1\n      0x20\n      add\n      dup1\n      dup4\n      gt\n      tag_308\n      jumpi\n      dup3\n      swap1\n      sub\n      0x1f\n      and\n      dup3\n      add\n      swap2\n    tag_306:\n      pop\n      pop\n      pop\n      pop\n      pop\n      dup2\n      mstore\n      0x20\n      add\n      0x06\n      dup3\n      add\n      dup1\n      sload\n      0x01\n      dup2\n      0x01\n      and\n      iszero\n      0x0100\n      mul\n      sub\n      and\n      0x02\n      swap1\n      div\n      dup1\n      0x1f\n      add\n      0x20\n      dup1\n      swap2\n      div\n      mul\n      0x20\n      add\n      mload(0x40)\n      swap1\n      dup2\n      add\n      0x40\n      mstore\n      dup1\n      swap3\n      swap2\n      swap1\n      dup2\n      dup2\n      mstore\n      0x20\n      add\n      dup3\n      dup1\n      sload\n      0x01\n      dup2\n      0x01\n      and\n      iszero\n      0x0100\n      mul\n      sub\n      and\n      0x02\n      swap1\n      div\n      dup1\n      iszero\n      tag_309\n      jumpi\n      dup1\n      0x1f\n      lt\n      tag_310\n      jumpi\n      0x0100\n      dup1\n      dup4\n      sload\n      div\n      mul\n      dup4\n      mstore\n      swap2\n      0x20\n      add\n      swap2\n      jump(tag_309)\n    tag_310:\n      dup3\n      add\n      swap2\n      swap1\n      0x00\n      mstore\n      keccak256(0x00, 0x20)\n      swap1\n    tag_311:\n      dup2\n      sload\n      dup2\n      mstore\n      swap1\n      0x01\n      add\n      swap1\n      0x20\n      add\n      dup1\n      dup4\n      gt\n      tag_311\n      jumpi\n      dup3\n      swap1\n      sub\n      0x1f\n      and\n      dup3\n      add\n      swap2\n    tag_309:\n      pop\n      pop\n      pop\n      pop\n      pop\n      dup2\n      mstore\n      0x20\n      add\n      0x07\n      dup3\n      add\n      sload\n      dup2\n      mstore\n      pop\n      pop\n      swap1\n      pop\n        /* \"contract/entities.sol\":5165:5539  function verifier(uint256 DiplomeID) public returns (Diplome memory) {\r... */\n      swap2\n      swap1\n      pop\n      jump\t// out\n        /* \"contract/entities.sol\":3107:3265  function ajouter_entreprise(string memory Nom) public {\r... */\n    tag_79:\n        /* \"contract/entities.sol\":3172:3191  Entreprise memory e */\n      tag_313\n      tag_314\n      jump\t// in\n    tag_313:\n        /* \"contract/entities.sol\":3210:3213  Nom */\n      dup2\n        /* \"contract/entities.sol\":3202:3203  e */\n      dup2\n        /* \"contract/entities.sol\":3202:3207  e.Nom */\n      0x00\n      add\n        /* \"contract/entities.sol\":3202:3213  e.Nom = Nom */\n      dup2\n      swap1\n      mstore\n      pop\n        /* \"contract/entities.sol\":3224:3257  ajouter_entreprise(e, msg.sender) */\n      tag_315\n        /* \"contract/entities.sol\":3243:3244  e */\n      dup2\n        /* \"contract/entities.sol\":3246:3256  msg.sender */\n      caller\n        /* \"contract/entities.sol\":3224:3242  ajouter_entreprise */\n      tag_316\n        /* \"contract/entities.sol\":3224:3257  ajouter_entreprise(e, msg.sender) */\n      jump\t// in\n    tag_315:\n        /* \"contract/entities.sol\":3107:3265  function ajouter_entreprise(string memory Nom) public {\r... */\n      pop\n      pop\n      jump\t// out\n        /* \"contract/entities.sol\":1946:1974  uint256 public NbEntreprises */\n    tag_81:\n      sload(0x0a)\n      dup2\n      jump\t// out\n        /* \"contract/entities.sol\":2794:2914  function ajouter_diplome(Diplome memory d) private {\r... */\n    tag_140:\n        /* \"contract/entities.sol\":2870:2871  1 */\n      0x01\n        /* \"contract/entities.sol\":2856:2866  NbDiplomes */\n      0x0b\n      0x00\n        /* \"contract/entities.sol\":2856:2871  NbDiplomes += 1 */\n      dup3\n      dup3\n      sload\n      add\n      swap3\n      pop\n      pop\n      dup2\n      swap1\n      sstore\n      pop\n        /* \"contract/entities.sol\":2905:2906  d */\n      dup1\n        /* \"contract/entities.sol\":2882:2890  Diplomes */\n      0x07\n        /* \"contract/entities.sol\":2882:2902  Diplomes[NbDiplomes] */\n      0x00\n        /* \"contract/entities.sol\":2891:2901  NbDiplomes */\n      sload(0x0b)\n        /* \"contract/entities.sol\":2882:2902  Diplomes[NbDiplomes] */\n      dup2\n      mstore\n      0x20\n      add\n      swap1\n      dup2\n      mstore\n      0x20\n      add\n      0x00\n      keccak256\n        /* \"contract/entities.sol\":2882:2906  Diplomes[NbDiplomes] = d */\n      0x00\n      dup3\n      add\n      mload\n      dup2\n      0x00\n      add\n      sstore\n      0x20\n      dup3\n      add\n      mload\n      dup2\n      0x01\n      add\n      swap1\n      dup1\n      mload\n      swap1\n      0x20\n      add\n      swap1\n      tag_318\n      swap3\n      swap2\n      swap1\n      tag_319\n      jump\t// in\n    tag_318:\n      pop\n      0x40\n      dup3\n      add\n      mload\n      dup2\n      0x02\n      add\n      sstore\n      0x60\n      dup3\n      add\n      mload\n      dup2\n      0x03\n      add\n      swap1\n      dup1\n      mload\n      swap1\n      0x20\n      add\n      swap1\n      tag_320\n      swap3\n      swap2\n      swap1\n      tag_319\n      jump\t// in\n    tag_320:\n      pop\n      0x80\n      dup3\n      add\n      mload\n      dup2\n      0x04\n      add\n      swap1\n      dup1\n      mload\n      swap1\n      0x20\n      add\n      swap1\n      tag_321\n      swap3\n      swap2\n      swap1\n      tag_319\n      jump\t// in\n    tag_321:\n      pop\n      0xa0\n      dup3\n      add\n      mload\n      dup2\n      0x05\n      add\n      swap1\n      dup1\n      mload\n      swap1\n      0x20\n      add\n      swap1\n      tag_322\n      swap3\n      swap2\n      swap1\n      tag_319\n      jump\t// in\n    tag_322:\n      pop\n      0xc0\n      dup3\n      add\n      mload\n      dup2\n      0x06\n      add\n      swap1\n      dup1\n      mload\n      swap1\n      0x20\n      add\n      swap1\n      tag_323\n      swap3\n      swap2\n      swap1\n      tag_319\n      jump\t// in\n    tag_323:\n      pop\n      0xe0\n      dup3\n      add\n      mload\n      dup2\n      0x07\n      add\n      sstore\n      swap1\n      pop\n      pop\n        /* \"contract/entities.sol\":2794:2914  function ajouter_diplome(Diplome memory d) private {\r... */\n      pop\n      jump\t// out\n        /* \"contract/entities.sol\":2243:2451  function ajouter_etablisement(Etablisement memory e, address a) private {\r... */\n    tag_213:\n        /* \"contract/entities.sol\":2345:2346  1 */\n      0x01\n        /* \"contract/entities.sol\":2326:2341  NbEtablisements */\n      0x08\n      0x00\n        /* \"contract/entities.sol\":2326:2346  NbEtablisements += 1 */\n      dup3\n      dup3\n      sload\n      add\n      swap3\n      pop\n      pop\n      dup2\n      swap1\n      sstore\n      pop\n        /* \"contract/entities.sol\":2390:2391  e */\n      dup2\n        /* \"contract/entities.sol\":2357:2370  Etablisements */\n      0x02\n        /* \"contract/entities.sol\":2357:2387  Etablisements[NbEtablisements] */\n      0x00\n        /* \"contract/entities.sol\":2371:2386  NbEtablisements */\n      sload(0x08)\n        /* \"contract/entities.sol\":2357:2387  Etablisements[NbEtablisements] */\n      dup2\n      mstore\n      0x20\n      add\n      swap1\n      dup2\n      mstore\n      0x20\n      add\n      0x00\n      keccak256\n        /* \"contract/entities.sol\":2357:2391  Etablisements[NbEtablisements] = e */\n      0x00\n      dup3\n      add\n      mload\n      dup2\n      0x00\n      add\n      swap1\n      dup1\n      mload\n      swap1\n      0x20\n      add\n      swap1\n      tag_325\n      swap3\n      swap2\n      swap1\n      tag_319\n      jump\t// in\n    tag_325:\n      pop\n      0x20\n      dup3\n      add\n      mload\n      dup2\n      0x01\n      add\n      swap1\n      dup1\n      mload\n      swap1\n      0x20\n      add\n      swap1\n      tag_326\n      swap3\n      swap2\n      swap1\n      tag_319\n      jump\t// in\n    tag_326:\n      pop\n      0x40\n      dup3\n      add\n      mload\n      dup2\n      0x02\n      add\n      swap1\n      dup1\n      mload\n      swap1\n      0x20\n      add\n      swap1\n      tag_327\n      swap3\n      swap2\n      swap1\n      tag_319\n      jump\t// in\n    tag_327:\n      pop\n      0x60\n      dup3\n      add\n      mload\n      dup2\n      0x03\n      add\n      swap1\n      dup1\n      mload\n      swap1\n      0x20\n      add\n      swap1\n      tag_328\n      swap3\n      swap2\n      swap1\n      tag_319\n      jump\t// in\n    tag_328:\n      pop\n      0x80\n      dup3\n      add\n      mload\n      dup2\n      0x04\n      add\n      swap1\n      dup1\n      mload\n      swap1\n      0x20\n      add\n      swap1\n      tag_329\n      swap3\n      swap2\n      swap1\n      tag_319\n      jump\t// in\n    tag_329:\n      pop\n      0xa0\n      dup3\n      add\n      mload\n      dup2\n      0x05\n      add\n      sstore\n      swap1\n      pop\n      pop\n        /* \"contract/entities.sol\":2428:2443  NbEtablisements */\n      sload(0x08)\n        /* \"contract/entities.sol\":2402:2422  AddressEtablisements */\n      0x03\n        /* \"contract/entities.sol\":2402:2425  AddressEtablisements[a] */\n      0x00\n        /* \"contract/entities.sol\":2423:2424  a */\n      dup4\n        /* \"contract/entities.sol\":2402:2425  AddressEtablisements[a] */\n      0xffffffffffffffffffffffffffffffffffffffff\n      and\n      0xffffffffffffffffffffffffffffffffffffffff\n      and\n      dup2\n      mstore\n      0x20\n      add\n      swap1\n      dup2\n      mstore\n      0x20\n      add\n      0x00\n      keccak256\n        /* \"contract/entities.sol\":2402:2443  AddressEtablisements[a] = NbEtablisements */\n      dup2\n      swap1\n      sstore\n      pop\n        /* \"contract/entities.sol\":2243:2451  function ajouter_etablisement(Etablisement memory e, address a) private {\r... */\n      pop\n      pop\n      jump\t// out\n        /* \"contract/entities.sol\":2661:2786  function ajouter_etudiant(Etudiant memory e) private {\r... */\n    tag_219:\n        /* \"contract/entities.sol\":2740:2741  1 */\n      0x01\n        /* \"contract/entities.sol\":2725:2736  NbEtudiants */\n      0x09\n      0x00\n        /* \"contract/entities.sol\":2725:2741  NbEtudiants += 1 */\n      dup3\n      dup3\n      sload\n      add\n      swap3\n      pop\n      pop\n      dup2\n      swap1\n      sstore\n      pop\n        /* \"contract/entities.sol\":2777:2778  e */\n      dup1\n        /* \"contract/entities.sol\":2752:2761  Etudiants */\n      0x04\n        /* \"contract/entities.sol\":2752:2774  Etudiants[NbEtudiants] */\n      0x00\n        /* \"contract/entities.sol\":2762:2773  NbEtudiants */\n      sload(0x09)\n        /* \"contract/entities.sol\":2752:2774  Etudiants[NbEtudiants] */\n      dup2\n      mstore\n      0x20\n      add\n      swap1\n      dup2\n      mstore\n      0x20\n      add\n      0x00\n      keccak256\n        /* \"contract/entities.sol\":2752:2778  Etudiants[NbEtudiants] = e */\n      0x00\n      dup3\n      add\n      mload\n      dup2\n      0x00\n      add\n      swap1\n      dup1\n      mload\n      swap1\n      0x20\n      add\n      swap1\n      tag_331\n      swap3\n      swap2\n      swap1\n      tag_319\n      jump\t// in\n    tag_331:\n      pop\n      0x20\n      dup3\n      add\n      mload\n      dup2\n      0x01\n      add\n      swap1\n      dup1\n      mload\n      swap1\n      0x20\n      add\n      swap1\n      tag_332\n      swap3\n      swap2\n      swap1\n      tag_319\n      jump\t// in\n    tag_332:\n      pop\n      0x40\n      dup3\n      add\n      mload\n      dup2\n      0x02\n      add\n      swap1\n      dup1\n      mload\n      swap1\n      0x20\n      add\n      swap1\n      tag_333\n      swap3\n      swap2\n      swap1\n      tag_319\n      jump\t// in\n    tag_333:\n      pop\n      0x60\n      dup3\n      add\n      mload\n      dup2\n      0x03\n      add\n      swap1\n      dup1\n      mload\n      swap1\n      0x20\n      add\n      swap1\n      tag_334\n      swap3\n      swap2\n      swap1\n      tag_319\n      jump\t// in\n    tag_334:\n      pop\n      0x80\n      dup3\n      add\n      mload\n      dup2\n      0x04\n      add\n      swap1\n      dup1\n      mload\n      swap1\n      0x20\n      add\n      swap1\n      tag_335\n      swap3\n      swap2\n      swap1\n      tag_319\n      jump\t// in\n    tag_335:\n      pop\n      0xa0\n      dup3\n      add\n      mload\n      dup2\n      0x05\n      add\n      swap1\n      dup1\n      mload\n      swap1\n      0x20\n      add\n      swap1\n      tag_336\n      swap3\n      swap2\n      swap1\n      tag_319\n      jump\t// in\n    tag_336:\n      pop\n      0xc0\n      dup3\n      add\n      mload\n      dup2\n      0x06\n      add\n      swap1\n      dup1\n      mload\n      swap1\n      0x20\n      add\n      swap1\n      tag_337\n      swap3\n      swap2\n      swap1\n      tag_319\n      jump\t// in\n    tag_337:\n      pop\n      0xe0\n      dup3\n      add\n      mload\n      dup2\n      0x07\n      add\n      swap1\n      dup1\n      mload\n      swap1\n      0x20\n      add\n      swap1\n      tag_338\n      swap3\n      swap2\n      swap1\n      tag_319\n      jump\t// in\n    tag_338:\n      pop\n      0x0100\n      dup3\n      add\n      mload\n      dup2\n      0x08\n      add\n      swap1\n      dup1\n      mload\n      swap1\n      0x20\n      add\n      swap1\n      tag_339\n      swap3\n      swap2\n      swap1\n      tag_319\n      jump\t// in\n    tag_339:\n      pop\n      0x0120\n      dup3\n      add\n      mload\n      dup2\n      0x09\n      add\n      swap1\n      dup1\n      mload\n      swap1\n      0x20\n      add\n      swap1\n      tag_340\n      swap3\n      swap2\n      swap1\n      tag_319\n      jump\t// in\n    tag_340:\n      pop\n      0x0140\n      dup3\n      add\n      mload\n      dup2\n      0x0a\n      add\n      swap1\n      dup1\n      mload\n      swap1\n      0x20\n      add\n      swap1\n      tag_341\n      swap3\n      swap2\n      swap1\n      tag_319\n      jump\t// in\n    tag_341:\n      pop\n      0x0160\n      dup3\n      add\n      mload\n      dup2\n      0x0b\n      add\n      swap1\n      dup1\n      mload\n      swap1\n      0x20\n      add\n      swap1\n      tag_342\n      swap3\n      swap2\n      swap1\n      tag_319\n      jump\t// in\n    tag_342:\n      pop\n      0x0180\n      dup3\n      add\n      mload\n      dup2\n      0x0c\n      add\n      swap1\n      dup1\n      mload\n      swap1\n      0x20\n      add\n      swap1\n      tag_343\n      swap3\n      swap2\n      swap1\n      tag_319\n      jump\t// in\n    tag_343:\n      pop\n      0x01a0\n      dup3\n      add\n      mload\n      dup2\n      0x0d\n      add\n      sstore\n      0x01c0\n      dup3\n      add\n      mload\n      dup2\n      0x0e\n      add\n      sstore\n      0x01e0\n      dup3\n      add\n      mload\n      dup2\n      0x0f\n      add\n      swap1\n      dup1\n      mload\n      swap1\n      0x20\n      add\n      swap1\n      tag_344\n      swap3\n      swap2\n      swap1\n      tag_319\n      jump\t// in\n    tag_344:\n      pop\n      swap1\n      pop\n      pop\n        /* \"contract/entities.sol\":2661:2786  function ajouter_etudiant(Etudiant memory e) private {\r... */\n      pop\n      jump\t// out\n        /* \"contract/entities.sol\":2459:2653  function ajouter_entreprise(Entreprise memory e, address a) private {\r... */\n    tag_316:\n        /* \"contract/entities.sol\":2555:2556  1 */\n      0x01\n        /* \"contract/entities.sol\":2538:2551  NbEntreprises */\n      0x0a\n      0x00\n        /* \"contract/entities.sol\":2538:2556  NbEntreprises += 1 */\n      dup3\n      dup3\n      sload\n      add\n      swap3\n      pop\n      pop\n      dup2\n      swap1\n      sstore\n      pop\n        /* \"contract/entities.sol\":2596:2597  e */\n      dup2\n        /* \"contract/entities.sol\":2567:2578  Entreprises */\n      0x05\n        /* \"contract/entities.sol\":2567:2593  Entreprises[NbEntreprises] */\n      0x00\n        /* \"contract/entities.sol\":2579:2592  NbEntreprises */\n      sload(0x0a)\n        /* \"contract/entities.sol\":2567:2593  Entreprises[NbEntreprises] */\n      dup2\n      mstore\n      0x20\n      add\n      swap1\n      dup2\n      mstore\n      0x20\n      add\n      0x00\n      keccak256\n        /* \"contract/entities.sol\":2567:2597  Entreprises[NbEntreprises] = e */\n      0x00\n      dup3\n      add\n      mload\n      dup2\n      0x00\n      add\n      swap1\n      dup1\n      mload\n      swap1\n      0x20\n      add\n      swap1\n      tag_346\n      swap3\n      swap2\n      swap1\n      tag_319\n      jump\t// in\n    tag_346:\n      pop\n      0x20\n      dup3\n      add\n      mload\n      dup2\n      0x01\n      add\n      swap1\n      dup1\n      mload\n      swap1\n      0x20\n      add\n      swap1\n      tag_347\n      swap3\n      swap2\n      swap1\n      tag_319\n      jump\t// in\n    tag_347:\n      pop\n      0x40\n      dup3\n      add\n      mload\n      dup2\n      0x02\n      add\n      sstore\n      0x60\n      dup3\n      add\n      mload\n      dup2\n      0x03\n      add\n      swap1\n      dup1\n      mload\n      swap1\n      0x20\n      add\n      swap1\n      tag_348\n      swap3\n      swap2\n      swap1\n      tag_319\n      jump\t// in\n    tag_348:\n      pop\n      0x80\n      dup3\n      add\n      mload\n      dup2\n      0x04\n      add\n      swap1\n      dup1\n      mload\n      swap1\n      0x20\n      add\n      swap1\n      tag_349\n      swap3\n      swap2\n      swap1\n      tag_319\n      jump\t// in\n    tag_349:\n      pop\n      0xa0\n      dup3\n      add\n      mload\n      dup2\n      0x05\n      add\n      swap1\n      dup1\n      mload\n      swap1\n      0x20\n      add\n      swap1\n      tag_350\n      swap3\n      swap2\n      swap1\n      tag_319\n      jump\t// in\n    tag_350:\n      pop\n      0xc0\n      dup3\n      add\n      mload\n      dup2\n      0x06\n      add\n      swap1\n      dup1\n      mload\n      swap1\n      0x20\n      add\n      swap1\n      tag_351\n      swap3\n      swap2\n      swap1\n      tag_319\n      jump\t// in\n    tag_351:\n      pop\n      0xe0\n      dup3\n      add\n      mload\n      dup2\n      0x07\n      add\n      swap1\n      dup1\n      mload\n      swap1\n      0x20\n      add\n      swap1\n      tag_352\n      swap3\n      swap2\n      swap1\n      tag_319\n      jump\t// in\n    tag_352:\n      pop\n      0x0100\n      dup3\n      add\n      mload\n      dup2\n      0x08\n      add\n      swap1\n      dup1\n      mload\n      swap1\n      0x20\n      add\n      swap1\n      tag_353\n      swap3\n      swap2\n      swap1\n      tag_319\n      jump\t// in\n    tag_353:\n      pop\n      swap1\n      pop\n      pop\n        /* \"contract/entities.sol\":2632:2645  NbEntreprises */\n      sload(0x0a)\n        /* \"contract/entities.sol\":2608:2626  AddressEntreprises */\n      0x06\n        /* \"contract/entities.sol\":2608:2629  AddressEntreprises[a] */\n      0x00\n        /* \"contract/entities.sol\":2627:2628  a */\n      dup4\n        /* \"contract/entities.sol\":2608:2629  AddressEntreprises[a] */\n      0xffffffffffffffffffffffffffffffffffffffff\n      and\n      0xffffffffffffffffffffffffffffffffffffffff\n      and\n      dup2\n      mstore\n      0x20\n      add\n      swap1\n      dup2\n      mstore\n      0x20\n      add\n      0x00\n      keccak256\n        /* \"contract/entities.sol\":2608:2645  AddressEntreprises[a] = NbEntreprises */\n      dup2\n      swap1\n      sstore\n      pop\n        /* \"contract/entities.sol\":2459:2653  function ajouter_entreprise(Entreprise memory e, address a) private {\r... */\n      pop\n      pop\n      jump\t// out\n        /* \"contract/entities.sol\":95:5542  contract Entities {\r... */\n    tag_88:\n      mload(0x40)\n      dup1\n      0x0200\n      add\n      0x40\n      mstore\n      dup1\n      0x60\n      dup2\n      mstore\n      0x20\n      add\n      0x60\n      dup2\n      mstore\n      0x20\n      add\n      0x60\n      dup2\n      mstore\n      0x20\n      add\n      0x60\n      dup2\n      mstore\n      0x20\n      add\n      0x60\n      dup2\n      mstore\n      0x20\n      add\n      0x60\n      dup2\n      mstore\n      0x20\n      add\n      0x60\n      dup2\n      mstore\n      0x20\n      add\n      0x60\n      dup2\n      mstore\n      0x20\n      add\n      0x60\n      dup2\n      mstore\n      0x20\n      add\n      0x60\n      dup2\n      mstore\n      0x20\n      add\n      0x60\n      dup2\n      mstore\n      0x20\n      add\n      0x60\n      dup2\n      mstore\n      0x20\n      add\n      0x60\n      dup2\n      mstore\n      0x20\n      add\n      0x00\n      dup2\n      mstore\n      0x20\n      add\n      0x00\n      dup2\n      mstore\n      0x20\n      add\n      0x60\n      dup2\n      mstore\n      pop\n      swap1\n      jump\t// out\n    tag_135:\n      mload(0x40)\n      dup1\n      0x0100\n      add\n      0x40\n      mstore\n      dup1\n      0x00\n      dup2\n      mstore\n      0x20\n      add\n      0x60\n      dup2\n      mstore\n      0x20\n      add\n      0x00\n      dup2\n      mstore\n      0x20\n      add\n      0x60\n      dup2\n      mstore\n      0x20\n      add\n      0x60\n      dup2\n      mstore\n      0x20\n      add\n      0x60\n      dup2\n      mstore\n      0x20\n      add\n      0x60\n      dup2\n      mstore\n      0x20\n      add\n      0x00\n      dup2\n      mstore\n      pop\n      swap1\n      jump\t// out\n    tag_146:\n      dup3\n      dup1\n      sload\n      0x01\n      dup2\n      0x01\n      and\n      iszero\n      0x0100\n      mul\n      sub\n      and\n      0x02\n      swap1\n      div\n      swap1\n      0x00\n      mstore\n      keccak256(0x00, 0x20)\n      swap1\n      0x1f\n      add\n      0x20\n      swap1\n      div\n      dup2\n      add\n      swap3\n      dup3\n      0x1f\n      lt\n      tag_355\n      jumpi\n      dup1\n      mload\n      not(0xff)\n      and\n      dup4\n      dup1\n      add\n      or\n      dup6\n      sstore\n      jump(tag_354)\n    tag_355:\n      dup3\n      dup1\n      add\n      0x01\n      add\n      dup6\n      sstore\n      dup3\n      iszero\n      tag_354\n      jumpi\n      swap2\n      dup3\n      add\n    tag_356:\n      dup3\n      dup2\n      gt\n      iszero\n      tag_357\n      jumpi\n      dup3\n      mload\n      dup3\n      sstore\n      swap2\n      0x20\n      add\n      swap2\n      swap1\n      0x01\n      add\n      swap1\n      jump(tag_356)\n    tag_357:\n    tag_354:\n      pop\n      swap1\n      pop\n      tag_358\n      swap2\n      swap1\n      tag_359\n      jump\t// in\n    tag_358:\n      pop\n      swap1\n      jump\t// out\n    tag_211:\n      mload(0x40)\n      dup1\n      0xc0\n      add\n      0x40\n      mstore\n      dup1\n      0x60\n      dup2\n      mstore\n      0x20\n      add\n      0x60\n      dup2\n      mstore\n      0x20\n      add\n      0x60\n      dup2\n      mstore\n      0x20\n      add\n      0x60\n      dup2\n      mstore\n      0x20\n      add\n      0x60\n      dup2\n      mstore\n      0x20\n      add\n      0x00\n      dup2\n      mstore\n      pop\n      swap1\n      jump\t// out\n    tag_314:\n      mload(0x40)\n      dup1\n      0x0120\n      add\n      0x40\n      mstore\n      dup1\n      0x60\n      dup2\n      mstore\n      0x20\n      add\n      0x60\n      dup2\n      mstore\n      0x20\n      add\n      0x00\n      dup2\n      mstore\n      0x20\n      add\n      0x60\n      dup2\n      mstore\n      0x20\n      add\n      0x60\n      dup2\n      mstore\n      0x20\n      add\n      0x60\n      dup2\n      mstore\n      0x20\n      add\n      0x60\n      dup2\n      mstore\n      0x20\n      add\n      0x60\n      dup2\n      mstore\n      0x20\n      add\n      0x60\n      dup2\n      mstore\n      pop\n      swap1\n      jump\t// out\n    tag_319:\n      dup3\n      dup1\n      sload\n      0x01\n      dup2\n      0x01\n      and\n      iszero\n      0x0100\n      mul\n      sub\n      and\n      0x02\n      swap1\n      div\n      swap1\n      0x00\n      mstore\n      keccak256(0x00, 0x20)\n      swap1\n      0x1f\n      add\n      0x20\n      swap1\n      div\n      dup2\n      add\n      swap3\n      dup3\n      0x1f\n      lt\n      tag_361\n      jumpi\n      dup1\n      mload\n      not(0xff)\n      and\n      dup4\n      dup1\n      add\n      or\n      dup6\n      sstore\n      jump(tag_360)\n    tag_361:\n      dup3\n      dup1\n      add\n      0x01\n      add\n      dup6\n      sstore\n      dup3\n      iszero\n      tag_360\n      jumpi\n      swap2\n      dup3\n      add\n    tag_362:\n      dup3\n      dup2\n      gt\n      iszero\n      tag_363\n      jumpi\n      dup3\n      mload\n      dup3\n      sstore\n      swap2\n      0x20\n      add\n      swap2\n      swap1\n      0x01\n      add\n      swap1\n      jump(tag_362)\n    tag_363:\n    tag_360:\n      pop\n      swap1\n      pop\n      tag_364\n      swap2\n      swap1\n      tag_359\n      jump\t// in\n    tag_364:\n      pop\n      swap1\n      jump\t// out\n    tag_359:\n      tag_365\n      swap2\n      swap1\n    tag_366:\n      dup1\n      dup3\n      gt\n      iszero\n      tag_367\n      jumpi\n      0x00\n      dup2\n      0x00\n      swap1\n      sstore\n      pop\n      0x01\n      add\n      jump(tag_366)\n    tag_367:\n      pop\n      swap1\n      jump\n    tag_365:\n      swap1\n      jump\t// out\n        /* \"--CODEGEN--\":5:135   */\n    tag_369:\n      0x00\n        /* \"--CODEGEN--\":85:91   */\n      dup2\n        /* \"--CODEGEN--\":72:92   */\n      calldataload\n        /* \"--CODEGEN--\":63:92   */\n      swap1\n      pop\n        /* \"--CODEGEN--\":97:130   */\n      tag_371\n        /* \"--CODEGEN--\":124:129   */\n      dup2\n        /* \"--CODEGEN--\":97:130   */\n      jump(tag_372)\n    tag_371:\n        /* \"--CODEGEN--\":57:135   */\n      swap3\n      swap2\n      pop\n      pop\n      jump\n        /* \"--CODEGEN--\":142:270   */\n    tag_373:\n      0x00\n        /* \"--CODEGEN--\":223:229   */\n      dup2\n        /* \"--CODEGEN--\":217:230   */\n      mload\n        /* \"--CODEGEN--\":208:230   */\n      swap1\n      pop\n        /* \"--CODEGEN--\":235:265   */\n      tag_375\n        /* \"--CODEGEN--\":259:264   */\n      dup2\n        /* \"--CODEGEN--\":235:265   */\n      jump(tag_376)\n    tag_375:\n        /* \"--CODEGEN--\":202:270   */\n      swap3\n      swap2\n      pop\n      pop\n      jump\n        /* \"--CODEGEN--\":278:720   */\n    tag_377:\n      0x00\n        /* \"--CODEGEN--\":380:383   */\n      dup3\n        /* \"--CODEGEN--\":373:377   */\n      0x1f\n        /* \"--CODEGEN--\":365:371   */\n      dup4\n        /* \"--CODEGEN--\":361:378   */\n      add\n        /* \"--CODEGEN--\":357:384   */\n      slt\n        /* \"--CODEGEN--\":347:349   */\n      tag_379\n      jumpi\n        /* \"--CODEGEN--\":398:399   */\n      0x00\n        /* \"--CODEGEN--\":395:396   */\n      dup1\n        /* \"--CODEGEN--\":388:400   */\n      revert\n        /* \"--CODEGEN--\":347:349   */\n    tag_379:\n        /* \"--CODEGEN--\":435:441   */\n      dup2\n        /* \"--CODEGEN--\":422:442   */\n      calldataload\n        /* \"--CODEGEN--\":457:522   */\n      tag_380\n        /* \"--CODEGEN--\":472:521   */\n      tag_381\n        /* \"--CODEGEN--\":514:520   */\n      dup3\n        /* \"--CODEGEN--\":472:521   */\n      jump(tag_382)\n    tag_381:\n        /* \"--CODEGEN--\":457:522   */\n      jump(tag_383)\n    tag_380:\n        /* \"--CODEGEN--\":448:522   */\n      swap2\n      pop\n        /* \"--CODEGEN--\":542:548   */\n      dup1\n        /* \"--CODEGEN--\":535:540   */\n      dup3\n        /* \"--CODEGEN--\":528:549   */\n      mstore\n        /* \"--CODEGEN--\":578:582   */\n      0x20\n        /* \"--CODEGEN--\":570:576   */\n      dup4\n        /* \"--CODEGEN--\":566:583   */\n      add\n        /* \"--CODEGEN--\":611:615   */\n      0x20\n        /* \"--CODEGEN--\":604:609   */\n      dup4\n        /* \"--CODEGEN--\":600:616   */\n      add\n        /* \"--CODEGEN--\":646:649   */\n      dup6\n        /* \"--CODEGEN--\":637:643   */\n      dup4\n        /* \"--CODEGEN--\":632:635   */\n      dup4\n        /* \"--CODEGEN--\":628:644   */\n      add\n        /* \"--CODEGEN--\":625:650   */\n      gt\n        /* \"--CODEGEN--\":622:624   */\n      iszero\n      tag_384\n      jumpi\n        /* \"--CODEGEN--\":663:664   */\n      0x00\n        /* \"--CODEGEN--\":660:661   */\n      dup1\n        /* \"--CODEGEN--\":653:665   */\n      revert\n        /* \"--CODEGEN--\":622:624   */\n    tag_384:\n        /* \"--CODEGEN--\":673:714   */\n      tag_385\n        /* \"--CODEGEN--\":707:713   */\n      dup4\n        /* \"--CODEGEN--\":702:705   */\n      dup3\n        /* \"--CODEGEN--\":697:700   */\n      dup5\n        /* \"--CODEGEN--\":673:714   */\n      jump(tag_386)\n    tag_385:\n        /* \"--CODEGEN--\":340:720   */\n      pop\n      pop\n      pop\n      swap3\n      swap2\n      pop\n      pop\n      jump\n        /* \"--CODEGEN--\":728:858   */\n    tag_387:\n      0x00\n        /* \"--CODEGEN--\":808:814   */\n      dup2\n        /* \"--CODEGEN--\":795:815   */\n      calldataload\n        /* \"--CODEGEN--\":786:815   */\n      swap1\n      pop\n        /* \"--CODEGEN--\":820:853   */\n      tag_389\n        /* \"--CODEGEN--\":847:852   */\n      dup2\n        /* \"--CODEGEN--\":820:853   */\n      jump(tag_390)\n    tag_389:\n        /* \"--CODEGEN--\":780:858   */\n      swap3\n      swap2\n      pop\n      pop\n      jump\n        /* \"--CODEGEN--\":865:999   */\n    tag_391:\n      0x00\n        /* \"--CODEGEN--\":949:955   */\n      dup2\n        /* \"--CODEGEN--\":943:956   */\n      mload\n        /* \"--CODEGEN--\":934:956   */\n      swap1\n      pop\n        /* \"--CODEGEN--\":961:994   */\n      tag_393\n        /* \"--CODEGEN--\":988:993   */\n      dup2\n        /* \"--CODEGEN--\":961:994   */\n      jump(tag_390)\n    tag_393:\n        /* \"--CODEGEN--\":928:999   */\n      swap3\n      swap2\n      pop\n      pop\n      jump\n        /* \"--CODEGEN--\":1006:1247   */\n    tag_64:\n      0x00\n        /* \"--CODEGEN--\":1110:1112   */\n      0x20\n        /* \"--CODEGEN--\":1098:1107   */\n      dup3\n        /* \"--CODEGEN--\":1089:1096   */\n      dup5\n        /* \"--CODEGEN--\":1085:1108   */\n      sub\n        /* \"--CODEGEN--\":1081:1113   */\n      slt\n        /* \"--CODEGEN--\":1078:1080   */\n      iszero\n      tag_395\n      jumpi\n        /* \"--CODEGEN--\":1126:1127   */\n      0x00\n        /* \"--CODEGEN--\":1123:1124   */\n      dup1\n        /* \"--CODEGEN--\":1116:1128   */\n      revert\n        /* \"--CODEGEN--\":1078:1080   */\n    tag_395:\n        /* \"--CODEGEN--\":1161:1162   */\n      0x00\n        /* \"--CODEGEN--\":1178:1231   */\n      tag_396\n        /* \"--CODEGEN--\":1223:1230   */\n      dup5\n        /* \"--CODEGEN--\":1214:1220   */\n      dup3\n        /* \"--CODEGEN--\":1203:1212   */\n      dup6\n        /* \"--CODEGEN--\":1199:1221   */\n      add\n        /* \"--CODEGEN--\":1178:1231   */\n      jump(tag_369)\n    tag_396:\n        /* \"--CODEGEN--\":1168:1231   */\n      swap2\n      pop\n        /* \"--CODEGEN--\":1140:1237   */\n      pop\n        /* \"--CODEGEN--\":1072:1247   */\n      swap3\n      swap2\n      pop\n      pop\n      jump\n        /* \"--CODEGEN--\":1254:1511   */\n    tag_166:\n      0x00\n        /* \"--CODEGEN--\":1366:1368   */\n      0x20\n        /* \"--CODEGEN--\":1354:1363   */\n      dup3\n        /* \"--CODEGEN--\":1345:1352   */\n      dup5\n        /* \"--CODEGEN--\":1341:1364   */\n      sub\n        /* \"--CODEGEN--\":1337:1369   */\n      slt\n        /* \"--CODEGEN--\":1334:1336   */\n      iszero\n      tag_398\n      jumpi\n        /* \"--CODEGEN--\":1382:1383   */\n      0x00\n        /* \"--CODEGEN--\":1379:1380   */\n      dup1\n        /* \"--CODEGEN--\":1372:1384   */\n      revert\n        /* \"--CODEGEN--\":1334:1336   */\n    tag_398:\n        /* \"--CODEGEN--\":1417:1418   */\n      0x00\n        /* \"--CODEGEN--\":1434:1495   */\n      tag_399\n        /* \"--CODEGEN--\":1487:1494   */\n      dup5\n        /* \"--CODEGEN--\":1478:1484   */\n      dup3\n        /* \"--CODEGEN--\":1467:1476   */\n      dup6\n        /* \"--CODEGEN--\":1463:1485   */\n      add\n        /* \"--CODEGEN--\":1434:1495   */\n      jump(tag_373)\n    tag_399:\n        /* \"--CODEGEN--\":1424:1495   */\n      swap2\n      pop\n        /* \"--CODEGEN--\":1396:1501   */\n      pop\n        /* \"--CODEGEN--\":1328:1511   */\n      swap3\n      swap2\n      pop\n      pop\n      jump\n        /* \"--CODEGEN--\":1518:1865   */\n    tag_48:\n      0x00\n        /* \"--CODEGEN--\":1632:1634   */\n      0x20\n        /* \"--CODEGEN--\":1620:1629   */\n      dup3\n        /* \"--CODEGEN--\":1611:1618   */\n      dup5\n        /* \"--CODEGEN--\":1607:1630   */\n      sub\n        /* \"--CODEGEN--\":1603:1635   */\n      slt\n        /* \"--CODEGEN--\":1600:1602   */\n      iszero\n      tag_401\n      jumpi\n        /* \"--CODEGEN--\":1648:1649   */\n      0x00\n        /* \"--CODEGEN--\":1645:1646   */\n      dup1\n        /* \"--CODEGEN--\":1638:1650   */\n      revert\n        /* \"--CODEGEN--\":1600:1602   */\n    tag_401:\n        /* \"--CODEGEN--\":1711:1712   */\n      0x00\n        /* \"--CODEGEN--\":1700:1709   */\n      dup3\n        /* \"--CODEGEN--\":1696:1713   */\n      add\n        /* \"--CODEGEN--\":1683:1714   */\n      calldataload\n        /* \"--CODEGEN--\":1734:1752   */\n      0xffffffffffffffff\n        /* \"--CODEGEN--\":1726:1732   */\n      dup2\n        /* \"--CODEGEN--\":1723:1753   */\n      gt\n        /* \"--CODEGEN--\":1720:1722   */\n      iszero\n      tag_402\n      jumpi\n        /* \"--CODEGEN--\":1766:1767   */\n      0x00\n        /* \"--CODEGEN--\":1763:1764   */\n      dup1\n        /* \"--CODEGEN--\":1756:1768   */\n      revert\n        /* \"--CODEGEN--\":1720:1722   */\n    tag_402:\n        /* \"--CODEGEN--\":1786:1849   */\n      tag_403\n        /* \"--CODEGEN--\":1841:1848   */\n      dup5\n        /* \"--CODEGEN--\":1832:1838   */\n      dup3\n        /* \"--CODEGEN--\":1821:1830   */\n      dup6\n        /* \"--CODEGEN--\":1817:1839   */\n      add\n        /* \"--CODEGEN--\":1786:1849   */\n      jump(tag_377)\n    tag_403:\n        /* \"--CODEGEN--\":1776:1849   */\n      swap2\n      pop\n        /* \"--CODEGEN--\":1662:1855   */\n      pop\n        /* \"--CODEGEN--\":1594:1865   */\n      swap3\n      swap2\n      pop\n      pop\n      jump\n        /* \"--CODEGEN--\":1872:2450   */\n    tag_52:\n      0x00\n      dup1\n        /* \"--CODEGEN--\":2013:2015   */\n      0x40\n        /* \"--CODEGEN--\":2001:2010   */\n      dup4\n        /* \"--CODEGEN--\":1992:1999   */\n      dup6\n        /* \"--CODEGEN--\":1988:2011   */\n      sub\n        /* \"--CODEGEN--\":1984:2016   */\n      slt\n        /* \"--CODEGEN--\":1981:1983   */\n      iszero\n      tag_405\n      jumpi\n        /* \"--CODEGEN--\":2029:2030   */\n      0x00\n        /* \"--CODEGEN--\":2026:2027   */\n      dup1\n        /* \"--CODEGEN--\":2019:2031   */\n      revert\n        /* \"--CODEGEN--\":1981:1983   */\n    tag_405:\n        /* \"--CODEGEN--\":2092:2093   */\n      0x00\n        /* \"--CODEGEN--\":2081:2090   */\n      dup4\n        /* \"--CODEGEN--\":2077:2094   */\n      add\n        /* \"--CODEGEN--\":2064:2095   */\n      calldataload\n        /* \"--CODEGEN--\":2115:2133   */\n      0xffffffffffffffff\n        /* \"--CODEGEN--\":2107:2113   */\n      dup2\n        /* \"--CODEGEN--\":2104:2134   */\n      gt\n        /* \"--CODEGEN--\":2101:2103   */\n      iszero\n      tag_406\n      jumpi\n        /* \"--CODEGEN--\":2147:2148   */\n      0x00\n        /* \"--CODEGEN--\":2144:2145   */\n      dup1\n        /* \"--CODEGEN--\":2137:2149   */\n      revert\n        /* \"--CODEGEN--\":2101:2103   */\n    tag_406:\n        /* \"--CODEGEN--\":2167:2230   */\n      tag_407\n        /* \"--CODEGEN--\":2222:2229   */\n      dup6\n        /* \"--CODEGEN--\":2213:2219   */\n      dup3\n        /* \"--CODEGEN--\":2202:2211   */\n      dup7\n        /* \"--CODEGEN--\":2198:2220   */\n      add\n        /* \"--CODEGEN--\":2167:2230   */\n      jump(tag_377)\n    tag_407:\n        /* \"--CODEGEN--\":2157:2230   */\n      swap3\n      pop\n        /* \"--CODEGEN--\":2043:2236   */\n      pop\n        /* \"--CODEGEN--\":2295:2297   */\n      0x20\n        /* \"--CODEGEN--\":2284:2293   */\n      dup4\n        /* \"--CODEGEN--\":2280:2298   */\n      add\n        /* \"--CODEGEN--\":2267:2299   */\n      calldataload\n        /* \"--CODEGEN--\":2319:2337   */\n      0xffffffffffffffff\n        /* \"--CODEGEN--\":2311:2317   */\n      dup2\n        /* \"--CODEGEN--\":2308:2338   */\n      gt\n        /* \"--CODEGEN--\":2305:2307   */\n      iszero\n      tag_408\n      jumpi\n        /* \"--CODEGEN--\":2351:2352   */\n      0x00\n        /* \"--CODEGEN--\":2348:2349   */\n      dup1\n        /* \"--CODEGEN--\":2341:2353   */\n      revert\n        /* \"--CODEGEN--\":2305:2307   */\n    tag_408:\n        /* \"--CODEGEN--\":2371:2434   */\n      tag_409\n        /* \"--CODEGEN--\":2426:2433   */\n      dup6\n        /* \"--CODEGEN--\":2417:2423   */\n      dup3\n        /* \"--CODEGEN--\":2406:2415   */\n      dup7\n        /* \"--CODEGEN--\":2402:2424   */\n      add\n        /* \"--CODEGEN--\":2371:2434   */\n      jump(tag_377)\n    tag_409:\n        /* \"--CODEGEN--\":2361:2434   */\n      swap2\n      pop\n        /* \"--CODEGEN--\":2246:2440   */\n      pop\n        /* \"--CODEGEN--\":1975:2450   */\n      swap3\n      pop\n      swap3\n      swap1\n      pop\n      jump\n        /* \"--CODEGEN--\":2457:2698   */\n    tag_23:\n      0x00\n        /* \"--CODEGEN--\":2561:2563   */\n      0x20\n        /* \"--CODEGEN--\":2549:2558   */\n      dup3\n        /* \"--CODEGEN--\":2540:2547   */\n      dup5\n        /* \"--CODEGEN--\":2536:2559   */\n      sub\n        /* \"--CODEGEN--\":2532:2564   */\n      slt\n        /* \"--CODEGEN--\":2529:2531   */\n      iszero\n      tag_411\n      jumpi\n        /* \"--CODEGEN--\":2577:2578   */\n      0x00\n        /* \"--CODEGEN--\":2574:2575   */\n      dup1\n        /* \"--CODEGEN--\":2567:2579   */\n      revert\n        /* \"--CODEGEN--\":2529:2531   */\n    tag_411:\n        /* \"--CODEGEN--\":2612:2613   */\n      0x00\n        /* \"--CODEGEN--\":2629:2682   */\n      tag_412\n        /* \"--CODEGEN--\":2674:2681   */\n      dup5\n        /* \"--CODEGEN--\":2665:2671   */\n      dup3\n        /* \"--CODEGEN--\":2654:2663   */\n      dup6\n        /* \"--CODEGEN--\":2650:2672   */\n      add\n        /* \"--CODEGEN--\":2629:2682   */\n      jump(tag_387)\n    tag_412:\n        /* \"--CODEGEN--\":2619:2682   */\n      swap2\n      pop\n        /* \"--CODEGEN--\":2591:2688   */\n      pop\n        /* \"--CODEGEN--\":2523:2698   */\n      swap3\n      swap2\n      pop\n      pop\n      jump\n        /* \"--CODEGEN--\":2705:2968   */\n    tag_156:\n      0x00\n        /* \"--CODEGEN--\":2820:2822   */\n      0x20\n        /* \"--CODEGEN--\":2808:2817   */\n      dup3\n        /* \"--CODEGEN--\":2799:2806   */\n      dup5\n        /* \"--CODEGEN--\":2795:2818   */\n      sub\n        /* \"--CODEGEN--\":2791:2823   */\n      slt\n        /* \"--CODEGEN--\":2788:2790   */\n      iszero\n      tag_414\n      jumpi\n        /* \"--CODEGEN--\":2836:2837   */\n      0x00\n        /* \"--CODEGEN--\":2833:2834   */\n      dup1\n        /* \"--CODEGEN--\":2826:2838   */\n      revert\n        /* \"--CODEGEN--\":2788:2790   */\n    tag_414:\n        /* \"--CODEGEN--\":2871:2872   */\n      0x00\n        /* \"--CODEGEN--\":2888:2952   */\n      tag_415\n        /* \"--CODEGEN--\":2944:2951   */\n      dup5\n        /* \"--CODEGEN--\":2935:2941   */\n      dup3\n        /* \"--CODEGEN--\":2924:2933   */\n      dup6\n        /* \"--CODEGEN--\":2920:2942   */\n      add\n        /* \"--CODEGEN--\":2888:2952   */\n      jump(tag_391)\n    tag_415:\n        /* \"--CODEGEN--\":2878:2952   */\n      swap2\n      pop\n        /* \"--CODEGEN--\":2850:2958   */\n      pop\n        /* \"--CODEGEN--\":2782:2968   */\n      swap3\n      swap2\n      pop\n      pop\n      jump\n        /* \"--CODEGEN--\":2975:4394   */\n    tag_31:\n      0x00\n      dup1\n      0x00\n      dup1\n      0x00\n      dup1\n      0x00\n        /* \"--CODEGEN--\":3221:3224   */\n      0xe0\n        /* \"--CODEGEN--\":3209:3218   */\n      dup9\n        /* \"--CODEGEN--\":3200:3207   */\n      dup11\n        /* \"--CODEGEN--\":3196:3219   */\n      sub\n        /* \"--CODEGEN--\":3192:3225   */\n      slt\n        /* \"--CODEGEN--\":3189:3191   */\n      iszero\n      tag_417\n      jumpi\n        /* \"--CODEGEN--\":3238:3239   */\n      0x00\n        /* \"--CODEGEN--\":3235:3236   */\n      dup1\n        /* \"--CODEGEN--\":3228:3240   */\n      revert\n        /* \"--CODEGEN--\":3189:3191   */\n    tag_417:\n        /* \"--CODEGEN--\":3273:3274   */\n      0x00\n        /* \"--CODEGEN--\":3290:3343   */\n      tag_418\n        /* \"--CODEGEN--\":3335:3342   */\n      dup11\n        /* \"--CODEGEN--\":3326:3332   */\n      dup3\n        /* \"--CODEGEN--\":3315:3324   */\n      dup12\n        /* \"--CODEGEN--\":3311:3333   */\n      add\n        /* \"--CODEGEN--\":3290:3343   */\n      jump(tag_387)\n    tag_418:\n        /* \"--CODEGEN--\":3280:3343   */\n      swap8\n      pop\n        /* \"--CODEGEN--\":3252:3349   */\n      pop\n        /* \"--CODEGEN--\":3408:3410   */\n      0x20\n        /* \"--CODEGEN--\":3397:3406   */\n      dup9\n        /* \"--CODEGEN--\":3393:3411   */\n      add\n        /* \"--CODEGEN--\":3380:3412   */\n      calldataload\n        /* \"--CODEGEN--\":3432:3450   */\n      0xffffffffffffffff\n        /* \"--CODEGEN--\":3424:3430   */\n      dup2\n        /* \"--CODEGEN--\":3421:3451   */\n      gt\n        /* \"--CODEGEN--\":3418:3420   */\n      iszero\n      tag_419\n      jumpi\n        /* \"--CODEGEN--\":3464:3465   */\n      0x00\n        /* \"--CODEGEN--\":3461:3462   */\n      dup1\n        /* \"--CODEGEN--\":3454:3466   */\n      revert\n        /* \"--CODEGEN--\":3418:3420   */\n    tag_419:\n        /* \"--CODEGEN--\":3484:3547   */\n      tag_420\n        /* \"--CODEGEN--\":3539:3546   */\n      dup11\n        /* \"--CODEGEN--\":3530:3536   */\n      dup3\n        /* \"--CODEGEN--\":3519:3528   */\n      dup12\n        /* \"--CODEGEN--\":3515:3537   */\n      add\n        /* \"--CODEGEN--\":3484:3547   */\n      jump(tag_377)\n    tag_420:\n        /* \"--CODEGEN--\":3474:3547   */\n      swap7\n      pop\n        /* \"--CODEGEN--\":3359:3553   */\n      pop\n        /* \"--CODEGEN--\":3612:3614   */\n      0x40\n        /* \"--CODEGEN--\":3601:3610   */\n      dup9\n        /* \"--CODEGEN--\":3597:3615   */\n      add\n        /* \"--CODEGEN--\":3584:3616   */\n      calldataload\n        /* \"--CODEGEN--\":3636:3654   */\n      0xffffffffffffffff\n        /* \"--CODEGEN--\":3628:3634   */\n      dup2\n        /* \"--CODEGEN--\":3625:3655   */\n      gt\n        /* \"--CODEGEN--\":3622:3624   */\n      iszero\n      tag_421\n      jumpi\n        /* \"--CODEGEN--\":3668:3669   */\n      0x00\n        /* \"--CODEGEN--\":3665:3666   */\n      dup1\n        /* \"--CODEGEN--\":3658:3670   */\n      revert\n        /* \"--CODEGEN--\":3622:3624   */\n    tag_421:\n        /* \"--CODEGEN--\":3688:3751   */\n      tag_422\n        /* \"--CODEGEN--\":3743:3750   */\n      dup11\n        /* \"--CODEGEN--\":3734:3740   */\n      dup3\n        /* \"--CODEGEN--\":3723:3732   */\n      dup12\n        /* \"--CODEGEN--\":3719:3741   */\n      add\n        /* \"--CODEGEN--\":3688:3751   */\n      jump(tag_377)\n    tag_422:\n        /* \"--CODEGEN--\":3678:3751   */\n      swap6\n      pop\n        /* \"--CODEGEN--\":3563:3757   */\n      pop\n        /* \"--CODEGEN--\":3816:3818   */\n      0x60\n        /* \"--CODEGEN--\":3805:3814   */\n      dup9\n        /* \"--CODEGEN--\":3801:3819   */\n      add\n        /* \"--CODEGEN--\":3788:3820   */\n      calldataload\n        /* \"--CODEGEN--\":3840:3858   */\n      0xffffffffffffffff\n        /* \"--CODEGEN--\":3832:3838   */\n      dup2\n        /* \"--CODEGEN--\":3829:3859   */\n      gt\n        /* \"--CODEGEN--\":3826:3828   */\n      iszero\n      tag_423\n      jumpi\n        /* \"--CODEGEN--\":3872:3873   */\n      0x00\n        /* \"--CODEGEN--\":3869:3870   */\n      dup1\n        /* \"--CODEGEN--\":3862:3874   */\n      revert\n        /* \"--CODEGEN--\":3826:3828   */\n    tag_423:\n        /* \"--CODEGEN--\":3892:3955   */\n      tag_424\n        /* \"--CODEGEN--\":3947:3954   */\n      dup11\n        /* \"--CODEGEN--\":3938:3944   */\n      dup3\n        /* \"--CODEGEN--\":3927:3936   */\n      dup12\n        /* \"--CODEGEN--\":3923:3945   */\n      add\n        /* \"--CODEGEN--\":3892:3955   */\n      jump(tag_377)\n    tag_424:\n        /* \"--CODEGEN--\":3882:3955   */\n      swap5\n      pop\n        /* \"--CODEGEN--\":3767:3961   */\n      pop\n        /* \"--CODEGEN--\":3992:3995   */\n      0x80\n        /* \"--CODEGEN--\":4011:4064   */\n      tag_425\n        /* \"--CODEGEN--\":4056:4063   */\n      dup11\n        /* \"--CODEGEN--\":4047:4053   */\n      dup3\n        /* \"--CODEGEN--\":4036:4045   */\n      dup12\n        /* \"--CODEGEN--\":4032:4054   */\n      add\n        /* \"--CODEGEN--\":4011:4064   */\n      jump(tag_387)\n    tag_425:\n        /* \"--CODEGEN--\":4001:4064   */\n      swap4\n      pop\n        /* \"--CODEGEN--\":3971:4070   */\n      pop\n        /* \"--CODEGEN--\":4101:4104   */\n      0xa0\n        /* \"--CODEGEN--\":4120:4173   */\n      tag_426\n        /* \"--CODEGEN--\":4165:4172   */\n      dup11\n        /* \"--CODEGEN--\":4156:4162   */\n      dup3\n        /* \"--CODEGEN--\":4145:4154   */\n      dup12\n        /* \"--CODEGEN--\":4141:4163   */\n      add\n        /* \"--CODEGEN--\":4120:4173   */\n      jump(tag_387)\n    tag_426:\n        /* \"--CODEGEN--\":4110:4173   */\n      swap3\n      pop\n        /* \"--CODEGEN--\":4080:4179   */\n      pop\n        /* \"--CODEGEN--\":4238:4241   */\n      0xc0\n        /* \"--CODEGEN--\":4227:4236   */\n      dup9\n        /* \"--CODEGEN--\":4223:4242   */\n      add\n        /* \"--CODEGEN--\":4210:4243   */\n      calldataload\n        /* \"--CODEGEN--\":4263:4281   */\n      0xffffffffffffffff\n        /* \"--CODEGEN--\":4255:4261   */\n      dup2\n        /* \"--CODEGEN--\":4252:4282   */\n      gt\n        /* \"--CODEGEN--\":4249:4251   */\n      iszero\n      tag_427\n      jumpi\n        /* \"--CODEGEN--\":4295:4296   */\n      0x00\n        /* \"--CODEGEN--\":4292:4293   */\n      dup1\n        /* \"--CODEGEN--\":4285:4297   */\n      revert\n        /* \"--CODEGEN--\":4249:4251   */\n    tag_427:\n        /* \"--CODEGEN--\":4315:4378   */\n      tag_428\n        /* \"--CODEGEN--\":4370:4377   */\n      dup11\n        /* \"--CODEGEN--\":4361:4367   */\n      dup3\n        /* \"--CODEGEN--\":4350:4359   */\n      dup12\n        /* \"--CODEGEN--\":4346:4368   */\n      add\n        /* \"--CODEGEN--\":4315:4378   */\n      jump(tag_377)\n    tag_428:\n        /* \"--CODEGEN--\":4305:4378   */\n      swap2\n      pop\n        /* \"--CODEGEN--\":4189:4384   */\n      pop\n        /* \"--CODEGEN--\":3183:4394   */\n      swap3\n      swap6\n      swap9\n      swap2\n      swap5\n      swap8\n      pop\n      swap3\n      swap6\n      pop\n      jump\n        /* \"--CODEGEN--\":4401:4543   */\n    tag_429:\n        /* \"--CODEGEN--\":4492:4537   */\n      tag_431\n        /* \"--CODEGEN--\":4531:4536   */\n      dup2\n        /* \"--CODEGEN--\":4492:4537   */\n      jump(tag_432)\n    tag_431:\n        /* \"--CODEGEN--\":4487:4490   */\n      dup3\n        /* \"--CODEGEN--\":4480:4538   */\n      mstore\n        /* \"--CODEGEN--\":4474:4543   */\n      pop\n      pop\n      jump\n        /* \"--CODEGEN--\":4550:4663   */\n    tag_433:\n        /* \"--CODEGEN--\":4633:4657   */\n      tag_435\n        /* \"--CODEGEN--\":4651:4656   */\n      dup2\n        /* \"--CODEGEN--\":4633:4657   */\n      jump(tag_436)\n    tag_435:\n        /* \"--CODEGEN--\":4628:4631   */\n      dup3\n        /* \"--CODEGEN--\":4621:4658   */\n      mstore\n        /* \"--CODEGEN--\":4615:4663   */\n      pop\n      pop\n      jump\n        /* \"--CODEGEN--\":4670:4814   */\n    tag_437:\n        /* \"--CODEGEN--\":4762:4808   */\n      tag_439\n        /* \"--CODEGEN--\":4802:4807   */\n      dup2\n        /* \"--CODEGEN--\":4762:4808   */\n      jump(tag_440)\n    tag_439:\n        /* \"--CODEGEN--\":4757:4760   */\n      dup3\n        /* \"--CODEGEN--\":4750:4809   */\n      mstore\n        /* \"--CODEGEN--\":4744:4814   */\n      pop\n      pop\n      jump\n        /* \"--CODEGEN--\":4821:4965   */\n    tag_441:\n        /* \"--CODEGEN--\":4913:4959   */\n      tag_443\n        /* \"--CODEGEN--\":4953:4958   */\n      dup2\n        /* \"--CODEGEN--\":4913:4959   */\n      jump(tag_444)\n    tag_443:\n        /* \"--CODEGEN--\":4908:4911   */\n      dup3\n        /* \"--CODEGEN--\":4901:4960   */\n      mstore\n        /* \"--CODEGEN--\":4895:4965   */\n      pop\n      pop\n      jump\n        /* \"--CODEGEN--\":4972:5291   */\n    tag_445:\n      0x00\n        /* \"--CODEGEN--\":5070:5105   */\n      tag_447\n        /* \"--CODEGEN--\":5099:5104   */\n      dup3\n        /* \"--CODEGEN--\":5070:5105   */\n      jump(tag_448)\n    tag_447:\n        /* \"--CODEGEN--\":5117:5178   */\n      tag_449\n        /* \"--CODEGEN--\":5171:5177   */\n      dup2\n        /* \"--CODEGEN--\":5166:5169   */\n      dup6\n        /* \"--CODEGEN--\":5117:5178   */\n      jump(tag_450)\n    tag_449:\n        /* \"--CODEGEN--\":5110:5178   */\n      swap4\n      pop\n        /* \"--CODEGEN--\":5183:5235   */\n      tag_451\n        /* \"--CODEGEN--\":5228:5234   */\n      dup2\n        /* \"--CODEGEN--\":5223:5226   */\n      dup6\n        /* \"--CODEGEN--\":5216:5220   */\n      0x20\n        /* \"--CODEGEN--\":5209:5214   */\n      dup7\n        /* \"--CODEGEN--\":5205:5221   */\n      add\n        /* \"--CODEGEN--\":5183:5235   */\n      jump(tag_452)\n    tag_451:\n        /* \"--CODEGEN--\":5256:5285   */\n      tag_453\n        /* \"--CODEGEN--\":5278:5284   */\n      dup2\n        /* \"--CODEGEN--\":5256:5285   */\n      jump(tag_454)\n    tag_453:\n        /* \"--CODEGEN--\":5251:5254   */\n      dup5\n        /* \"--CODEGEN--\":5247:5286   */\n      add\n        /* \"--CODEGEN--\":5240:5286   */\n      swap2\n      pop\n        /* \"--CODEGEN--\":5050:5291   */\n      pop\n      swap3\n      swap2\n      pop\n      pop\n      jump\n        /* \"--CODEGEN--\":5298:5637   */\n    tag_455:\n      0x00\n        /* \"--CODEGEN--\":5406:5441   */\n      tag_457\n        /* \"--CODEGEN--\":5435:5440   */\n      dup3\n        /* \"--CODEGEN--\":5406:5441   */\n      jump(tag_448)\n    tag_457:\n        /* \"--CODEGEN--\":5453:5524   */\n      tag_458\n        /* \"--CODEGEN--\":5517:5523   */\n      dup2\n        /* \"--CODEGEN--\":5512:5515   */\n      dup6\n        /* \"--CODEGEN--\":5453:5524   */\n      jump(tag_459)\n    tag_458:\n        /* \"--CODEGEN--\":5446:5524   */\n      swap4\n      pop\n        /* \"--CODEGEN--\":5529:5581   */\n      tag_460\n        /* \"--CODEGEN--\":5574:5580   */\n      dup2\n        /* \"--CODEGEN--\":5569:5572   */\n      dup6\n        /* \"--CODEGEN--\":5562:5566   */\n      0x20\n        /* \"--CODEGEN--\":5555:5560   */\n      dup7\n        /* \"--CODEGEN--\":5551:5567   */\n      add\n        /* \"--CODEGEN--\":5529:5581   */\n      jump(tag_452)\n    tag_460:\n        /* \"--CODEGEN--\":5602:5631   */\n      tag_461\n        /* \"--CODEGEN--\":5624:5630   */\n      dup2\n        /* \"--CODEGEN--\":5602:5631   */\n      jump(tag_454)\n    tag_461:\n        /* \"--CODEGEN--\":5597:5600   */\n      dup5\n        /* \"--CODEGEN--\":5593:5632   */\n      add\n        /* \"--CODEGEN--\":5586:5632   */\n      swap2\n      pop\n        /* \"--CODEGEN--\":5386:5637   */\n      pop\n      swap3\n      swap2\n      pop\n      pop\n      jump\n        /* \"--CODEGEN--\":5645:5961   */\n    tag_462:\n      0x00\n        /* \"--CODEGEN--\":5805:5872   */\n      tag_464\n        /* \"--CODEGEN--\":5869:5871   */\n      0x10\n        /* \"--CODEGEN--\":5864:5867   */\n      dup4\n        /* \"--CODEGEN--\":5805:5872   */\n      jump(tag_459)\n    tag_464:\n        /* \"--CODEGEN--\":5798:5872   */\n      swap2\n      pop\n        /* \"--CODEGEN--\":5905:5923   */\n      0x6e6f7420657461626c6973656d656e7400000000000000000000000000000000\n        /* \"--CODEGEN--\":5901:5902   */\n      0x00\n        /* \"--CODEGEN--\":5896:5899   */\n      dup4\n        /* \"--CODEGEN--\":5892:5903   */\n      add\n        /* \"--CODEGEN--\":5885:5924   */\n      mstore\n        /* \"--CODEGEN--\":5952:5954   */\n      0x20\n        /* \"--CODEGEN--\":5947:5950   */\n      dup3\n        /* \"--CODEGEN--\":5943:5955   */\n      add\n        /* \"--CODEGEN--\":5936:5955   */\n      swap1\n      pop\n        /* \"--CODEGEN--\":5791:5961   */\n      swap2\n      swap1\n      pop\n      jump\n        /* \"--CODEGEN--\":5970:6287   */\n    tag_465:\n      0x00\n        /* \"--CODEGEN--\":6130:6197   */\n      tag_467\n        /* \"--CODEGEN--\":6194:6196   */\n      0x11\n        /* \"--CODEGEN--\":6189:6192   */\n      dup4\n        /* \"--CODEGEN--\":6130:6197   */\n      jump(tag_459)\n    tag_467:\n        /* \"--CODEGEN--\":6123:6197   */\n      swap2\n      pop\n        /* \"--CODEGEN--\":6230:6249   */\n      0x746f6b656e206e6f7420616c6c6f776564000000000000000000000000000000\n        /* \"--CODEGEN--\":6226:6227   */\n      0x00\n        /* \"--CODEGEN--\":6221:6224   */\n      dup4\n        /* \"--CODEGEN--\":6217:6228   */\n      add\n        /* \"--CODEGEN--\":6210:6250   */\n      mstore\n        /* \"--CODEGEN--\":6278:6280   */\n      0x20\n        /* \"--CODEGEN--\":6273:6276   */\n      dup3\n        /* \"--CODEGEN--\":6269:6281   */\n      add\n        /* \"--CODEGEN--\":6262:6281   */\n      swap1\n      pop\n        /* \"--CODEGEN--\":6116:6287   */\n      swap2\n      swap1\n      pop\n      jump\n        /* \"--CODEGEN--\":6296:6617   */\n    tag_468:\n      0x00\n        /* \"--CODEGEN--\":6456:6523   */\n      tag_470\n        /* \"--CODEGEN--\":6520:6522   */\n      0x15\n        /* \"--CODEGEN--\":6515:6518   */\n      dup4\n        /* \"--CODEGEN--\":6456:6523   */\n      jump(tag_459)\n    tag_470:\n        /* \"--CODEGEN--\":6449:6523   */\n      swap2\n      pop\n        /* \"--CODEGEN--\":6556:6579   */\n      0x53747564656e7420646f65736e27742065786973740000000000000000000000\n        /* \"--CODEGEN--\":6552:6553   */\n      0x00\n        /* \"--CODEGEN--\":6547:6550   */\n      dup4\n        /* \"--CODEGEN--\":6543:6554   */\n      add\n        /* \"--CODEGEN--\":6536:6580   */\n      mstore\n        /* \"--CODEGEN--\":6608:6610   */\n      0x20\n        /* \"--CODEGEN--\":6603:6606   */\n      dup3\n        /* \"--CODEGEN--\":6599:6611   */\n      add\n        /* \"--CODEGEN--\":6592:6611   */\n      swap1\n      pop\n        /* \"--CODEGEN--\":6442:6617   */\n      swap2\n      swap1\n      pop\n      jump\n        /* \"--CODEGEN--\":6626:6940   */\n    tag_471:\n      0x00\n        /* \"--CODEGEN--\":6786:6853   */\n      tag_473\n        /* \"--CODEGEN--\":6850:6852   */\n      0x0e\n        /* \"--CODEGEN--\":6845:6848   */\n      dup4\n        /* \"--CODEGEN--\":6786:6853   */\n      jump(tag_459)\n    tag_473:\n        /* \"--CODEGEN--\":6779:6853   */\n      swap2\n      pop\n        /* \"--CODEGEN--\":6886:6902   */\n      0x6e6f20456e747265707269736573000000000000000000000000000000000000\n        /* \"--CODEGEN--\":6882:6883   */\n      0x00\n        /* \"--CODEGEN--\":6877:6880   */\n      dup4\n        /* \"--CODEGEN--\":6873:6884   */\n      add\n        /* \"--CODEGEN--\":6866:6903   */\n      mstore\n        /* \"--CODEGEN--\":6931:6933   */\n      0x20\n        /* \"--CODEGEN--\":6926:6929   */\n      dup3\n        /* \"--CODEGEN--\":6922:6934   */\n      add\n        /* \"--CODEGEN--\":6915:6934   */\n      swap1\n      pop\n        /* \"--CODEGEN--\":6772:6940   */\n      swap2\n      swap1\n      pop\n      jump\n        /* \"--CODEGEN--\":6949:7263   */\n    tag_474:\n      0x00\n        /* \"--CODEGEN--\":7109:7176   */\n      tag_476\n        /* \"--CODEGEN--\":7173:7175   */\n      0x0e\n        /* \"--CODEGEN--\":7168:7171   */\n      dup4\n        /* \"--CODEGEN--\":7109:7176   */\n      jump(tag_459)\n    tag_476:\n        /* \"--CODEGEN--\":7102:7176   */\n      swap2\n      pop\n        /* \"--CODEGEN--\":7209:7225   */\n      0x7472616e7366657274206661696c000000000000000000000000000000000000\n        /* \"--CODEGEN--\":7205:7206   */\n      0x00\n        /* \"--CODEGEN--\":7200:7203   */\n      dup4\n        /* \"--CODEGEN--\":7196:7207   */\n      add\n        /* \"--CODEGEN--\":7189:7226   */\n      mstore\n        /* \"--CODEGEN--\":7254:7256   */\n      0x20\n        /* \"--CODEGEN--\":7249:7252   */\n      dup3\n        /* \"--CODEGEN--\":7245:7257   */\n      add\n        /* \"--CODEGEN--\":7238:7257   */\n      swap1\n      pop\n        /* \"--CODEGEN--\":7095:7263   */\n      swap2\n      swap1\n      pop\n      jump\n        /* \"--CODEGEN--\":7328:9179   */\n    tag_477:\n      0x00\n        /* \"--CODEGEN--\":7475:7481   */\n      0x0100\n        /* \"--CODEGEN--\":7470:7473   */\n      dup4\n        /* \"--CODEGEN--\":7466:7482   */\n      add\n        /* \"--CODEGEN--\":7568:7572   */\n      0x00\n        /* \"--CODEGEN--\":7561:7566   */\n      dup4\n        /* \"--CODEGEN--\":7557:7573   */\n      add\n        /* \"--CODEGEN--\":7551:7574   */\n      mload\n        /* \"--CODEGEN--\":7580:7643   */\n      tag_479\n        /* \"--CODEGEN--\":7637:7641   */\n      0x00\n        /* \"--CODEGEN--\":7632:7635   */\n      dup7\n        /* \"--CODEGEN--\":7628:7642   */\n      add\n        /* \"--CODEGEN--\":7614:7626   */\n      dup3\n        /* \"--CODEGEN--\":7580:7643   */\n      jump(tag_480)\n    tag_479:\n        /* \"--CODEGEN--\":7497:7649   */\n      pop\n        /* \"--CODEGEN--\":7757:7761   */\n      0x20\n        /* \"--CODEGEN--\":7750:7755   */\n      dup4\n        /* \"--CODEGEN--\":7746:7762   */\n      add\n        /* \"--CODEGEN--\":7740:7763   */\n      mload\n        /* \"--CODEGEN--\":7809:7812   */\n      dup5\n        /* \"--CODEGEN--\":7803:7807   */\n      dup3\n        /* \"--CODEGEN--\":7799:7813   */\n      sub\n        /* \"--CODEGEN--\":7792:7796   */\n      0x20\n        /* \"--CODEGEN--\":7787:7790   */\n      dup7\n        /* \"--CODEGEN--\":7783:7797   */\n      add\n        /* \"--CODEGEN--\":7776:7814   */\n      mstore\n        /* \"--CODEGEN--\":7829:7898   */\n      tag_481\n        /* \"--CODEGEN--\":7893:7897   */\n      dup3\n        /* \"--CODEGEN--\":7879:7891   */\n      dup3\n        /* \"--CODEGEN--\":7829:7898   */\n      jump(tag_445)\n    tag_481:\n        /* \"--CODEGEN--\":7821:7898   */\n      swap2\n      pop\n        /* \"--CODEGEN--\":7659:7910   */\n      pop\n        /* \"--CODEGEN--\":7985:7989   */\n      0x40\n        /* \"--CODEGEN--\":7978:7983   */\n      dup4\n        /* \"--CODEGEN--\":7974:7990   */\n      add\n        /* \"--CODEGEN--\":7968:7991   */\n      mload\n        /* \"--CODEGEN--\":7997:8060   */\n      tag_482\n        /* \"--CODEGEN--\":8054:8058   */\n      0x40\n        /* \"--CODEGEN--\":8049:8052   */\n      dup7\n        /* \"--CODEGEN--\":8045:8059   */\n      add\n        /* \"--CODEGEN--\":8031:8043   */\n      dup3\n        /* \"--CODEGEN--\":7997:8060   */\n      jump(tag_480)\n    tag_482:\n        /* \"--CODEGEN--\":7920:8066   */\n      pop\n        /* \"--CODEGEN--\":8139:8143   */\n      0x60\n        /* \"--CODEGEN--\":8132:8137   */\n      dup4\n        /* \"--CODEGEN--\":8128:8144   */\n      add\n        /* \"--CODEGEN--\":8122:8145   */\n      mload\n        /* \"--CODEGEN--\":8191:8194   */\n      dup5\n        /* \"--CODEGEN--\":8185:8189   */\n      dup3\n        /* \"--CODEGEN--\":8181:8195   */\n      sub\n        /* \"--CODEGEN--\":8174:8178   */\n      0x60\n        /* \"--CODEGEN--\":8169:8172   */\n      dup7\n        /* \"--CODEGEN--\":8165:8179   */\n      add\n        /* \"--CODEGEN--\":8158:8196   */\n      mstore\n        /* \"--CODEGEN--\":8211:8280   */\n      tag_483\n        /* \"--CODEGEN--\":8275:8279   */\n      dup3\n        /* \"--CODEGEN--\":8261:8273   */\n      dup3\n        /* \"--CODEGEN--\":8211:8280   */\n      jump(tag_445)\n    tag_483:\n        /* \"--CODEGEN--\":8203:8280   */\n      swap2\n      pop\n        /* \"--CODEGEN--\":8076:8292   */\n      pop\n        /* \"--CODEGEN--\":8373:8377   */\n      0x80\n        /* \"--CODEGEN--\":8366:8371   */\n      dup4\n        /* \"--CODEGEN--\":8362:8378   */\n      add\n        /* \"--CODEGEN--\":8356:8379   */\n      mload\n        /* \"--CODEGEN--\":8425:8428   */\n      dup5\n        /* \"--CODEGEN--\":8419:8423   */\n      dup3\n        /* \"--CODEGEN--\":8415:8429   */\n      sub\n        /* \"--CODEGEN--\":8408:8412   */\n      0x80\n        /* \"--CODEGEN--\":8403:8406   */\n      dup7\n        /* \"--CODEGEN--\":8399:8413   */\n      add\n        /* \"--CODEGEN--\":8392:8430   */\n      mstore\n        /* \"--CODEGEN--\":8445:8514   */\n      tag_484\n        /* \"--CODEGEN--\":8509:8513   */\n      dup3\n        /* \"--CODEGEN--\":8495:8507   */\n      dup3\n        /* \"--CODEGEN--\":8445:8514   */\n      jump(tag_445)\n    tag_484:\n        /* \"--CODEGEN--\":8437:8514   */\n      swap2\n      pop\n        /* \"--CODEGEN--\":8302:8526   */\n      pop\n        /* \"--CODEGEN--\":8605:8609   */\n      0xa0\n        /* \"--CODEGEN--\":8598:8603   */\n      dup4\n        /* \"--CODEGEN--\":8594:8610   */\n      add\n        /* \"--CODEGEN--\":8588:8611   */\n      mload\n        /* \"--CODEGEN--\":8657:8660   */\n      dup5\n        /* \"--CODEGEN--\":8651:8655   */\n      dup3\n        /* \"--CODEGEN--\":8647:8661   */\n      sub\n        /* \"--CODEGEN--\":8640:8644   */\n      0xa0\n        /* \"--CODEGEN--\":8635:8638   */\n      dup7\n        /* \"--CODEGEN--\":8631:8645   */\n      add\n        /* \"--CODEGEN--\":8624:8662   */\n      mstore\n        /* \"--CODEGEN--\":8677:8746   */\n      tag_485\n        /* \"--CODEGEN--\":8741:8745   */\n      dup3\n        /* \"--CODEGEN--\":8727:8739   */\n      dup3\n        /* \"--CODEGEN--\":8677:8746   */\n      jump(tag_445)\n    tag_485:\n        /* \"--CODEGEN--\":8669:8746   */\n      swap2\n      pop\n        /* \"--CODEGEN--\":8536:8758   */\n      pop\n        /* \"--CODEGEN--\":8834:8838   */\n      0xc0\n        /* \"--CODEGEN--\":8827:8832   */\n      dup4\n        /* \"--CODEGEN--\":8823:8839   */\n      add\n        /* \"--CODEGEN--\":8817:8840   */\n      mload\n        /* \"--CODEGEN--\":8886:8889   */\n      dup5\n        /* \"--CODEGEN--\":8880:8884   */\n      dup3\n        /* \"--CODEGEN--\":8876:8890   */\n      sub\n        /* \"--CODEGEN--\":8869:8873   */\n      0xc0\n        /* \"--CODEGEN--\":8864:8867   */\n      dup7\n        /* \"--CODEGEN--\":8860:8874   */\n      add\n        /* \"--CODEGEN--\":8853:8891   */\n      mstore\n        /* \"--CODEGEN--\":8906:8975   */\n      tag_486\n        /* \"--CODEGEN--\":8970:8974   */\n      dup3\n        /* \"--CODEGEN--\":8956:8968   */\n      dup3\n        /* \"--CODEGEN--\":8906:8975   */\n      jump(tag_445)\n    tag_486:\n        /* \"--CODEGEN--\":8898:8975   */\n      swap2\n      pop\n        /* \"--CODEGEN--\":8768:8987   */\n      pop\n        /* \"--CODEGEN--\":9072:9076   */\n      0xe0\n        /* \"--CODEGEN--\":9065:9070   */\n      dup4\n        /* \"--CODEGEN--\":9061:9077   */\n      add\n        /* \"--CODEGEN--\":9055:9078   */\n      mload\n        /* \"--CODEGEN--\":9084:9147   */\n      tag_487\n        /* \"--CODEGEN--\":9141:9145   */\n      0xe0\n        /* \"--CODEGEN--\":9136:9139   */\n      dup7\n        /* \"--CODEGEN--\":9132:9146   */\n      add\n        /* \"--CODEGEN--\":9118:9130   */\n      dup3\n        /* \"--CODEGEN--\":9084:9147   */\n      jump(tag_480)\n    tag_487:\n        /* \"--CODEGEN--\":8997:9153   */\n      pop\n        /* \"--CODEGEN--\":9170:9174   */\n      dup1\n        /* \"--CODEGEN--\":9163:9174   */\n      swap2\n      pop\n        /* \"--CODEGEN--\":7448:9179   */\n      pop\n      swap3\n      swap2\n      pop\n      pop\n      jump\n        /* \"--CODEGEN--\":9245:13047   */\n    tag_488:\n      0x00\n        /* \"--CODEGEN--\":9394:9400   */\n      0x0200\n        /* \"--CODEGEN--\":9389:9392   */\n      dup4\n        /* \"--CODEGEN--\":9385:9401   */\n      add\n        /* \"--CODEGEN--\":9478:9482   */\n      0x00\n        /* \"--CODEGEN--\":9471:9476   */\n      dup4\n        /* \"--CODEGEN--\":9467:9483   */\n      add\n        /* \"--CODEGEN--\":9461:9484   */\n      mload\n        /* \"--CODEGEN--\":9530:9533   */\n      dup5\n        /* \"--CODEGEN--\":9524:9528   */\n      dup3\n        /* \"--CODEGEN--\":9520:9534   */\n      sub\n        /* \"--CODEGEN--\":9513:9517   */\n      0x00\n        /* \"--CODEGEN--\":9508:9511   */\n      dup7\n        /* \"--CODEGEN--\":9504:9518   */\n      add\n        /* \"--CODEGEN--\":9497:9535   */\n      mstore\n        /* \"--CODEGEN--\":9550:9619   */\n      tag_490\n        /* \"--CODEGEN--\":9614:9618   */\n      dup3\n        /* \"--CODEGEN--\":9600:9612   */\n      dup3\n        /* \"--CODEGEN--\":9550:9619   */\n      jump(tag_445)\n    tag_490:\n        /* \"--CODEGEN--\":9542:9619   */\n      swap2\n      pop\n        /* \"--CODEGEN--\":9416:9631   */\n      pop\n        /* \"--CODEGEN--\":9706:9710   */\n      0x20\n        /* \"--CODEGEN--\":9699:9704   */\n      dup4\n        /* \"--CODEGEN--\":9695:9711   */\n      add\n        /* \"--CODEGEN--\":9689:9712   */\n      mload\n        /* \"--CODEGEN--\":9758:9761   */\n      dup5\n        /* \"--CODEGEN--\":9752:9756   */\n      dup3\n        /* \"--CODEGEN--\":9748:9762   */\n      sub\n        /* \"--CODEGEN--\":9741:9745   */\n      0x20\n        /* \"--CODEGEN--\":9736:9739   */\n      dup7\n        /* \"--CODEGEN--\":9732:9746   */\n      add\n        /* \"--CODEGEN--\":9725:9763   */\n      mstore\n        /* \"--CODEGEN--\":9778:9847   */\n      tag_491\n        /* \"--CODEGEN--\":9842:9846   */\n      dup3\n        /* \"--CODEGEN--\":9828:9840   */\n      dup3\n        /* \"--CODEGEN--\":9778:9847   */\n      jump(tag_445)\n    tag_491:\n        /* \"--CODEGEN--\":9770:9847   */\n      swap2\n      pop\n        /* \"--CODEGEN--\":9641:9859   */\n      pop\n        /* \"--CODEGEN--\":9944:9948   */\n      0x40\n        /* \"--CODEGEN--\":9937:9942   */\n      dup4\n        /* \"--CODEGEN--\":9933:9949   */\n      add\n        /* \"--CODEGEN--\":9927:9950   */\n      mload\n        /* \"--CODEGEN--\":9996:9999   */\n      dup5\n        /* \"--CODEGEN--\":9990:9994   */\n      dup3\n        /* \"--CODEGEN--\":9986:10000   */\n      sub\n        /* \"--CODEGEN--\":9979:9983   */\n      0x40\n        /* \"--CODEGEN--\":9974:9977   */\n      dup7\n        /* \"--CODEGEN--\":9970:9984   */\n      add\n        /* \"--CODEGEN--\":9963:10001   */\n      mstore\n        /* \"--CODEGEN--\":10016:10085   */\n      tag_492\n        /* \"--CODEGEN--\":10080:10084   */\n      dup3\n        /* \"--CODEGEN--\":10066:10078   */\n      dup3\n        /* \"--CODEGEN--\":10016:10085   */\n      jump(tag_445)\n    tag_492:\n        /* \"--CODEGEN--\":10008:10085   */\n      swap2\n      pop\n        /* \"--CODEGEN--\":9869:10097   */\n      pop\n        /* \"--CODEGEN--\":10170:10174   */\n      0x60\n        /* \"--CODEGEN--\":10163:10168   */\n      dup4\n        /* \"--CODEGEN--\":10159:10175   */\n      add\n        /* \"--CODEGEN--\":10153:10176   */\n      mload\n        /* \"--CODEGEN--\":10222:10225   */\n      dup5\n        /* \"--CODEGEN--\":10216:10220   */\n      dup3\n        /* \"--CODEGEN--\":10212:10226   */\n      sub\n        /* \"--CODEGEN--\":10205:10209   */\n      0x60\n        /* \"--CODEGEN--\":10200:10203   */\n      dup7\n        /* \"--CODEGEN--\":10196:10210   */\n      add\n        /* \"--CODEGEN--\":10189:10227   */\n      mstore\n        /* \"--CODEGEN--\":10242:10311   */\n      tag_493\n        /* \"--CODEGEN--\":10306:10310   */\n      dup3\n        /* \"--CODEGEN--\":10292:10304   */\n      dup3\n        /* \"--CODEGEN--\":10242:10311   */\n      jump(tag_445)\n    tag_493:\n        /* \"--CODEGEN--\":10234:10311   */\n      swap2\n      pop\n        /* \"--CODEGEN--\":10107:10323   */\n      pop\n        /* \"--CODEGEN--\":10403:10407   */\n      0x80\n        /* \"--CODEGEN--\":10396:10401   */\n      dup4\n        /* \"--CODEGEN--\":10392:10408   */\n      add\n        /* \"--CODEGEN--\":10386:10409   */\n      mload\n        /* \"--CODEGEN--\":10455:10458   */\n      dup5\n        /* \"--CODEGEN--\":10449:10453   */\n      dup3\n        /* \"--CODEGEN--\":10445:10459   */\n      sub\n        /* \"--CODEGEN--\":10438:10442   */\n      0x80\n        /* \"--CODEGEN--\":10433:10436   */\n      dup7\n        /* \"--CODEGEN--\":10429:10443   */\n      add\n        /* \"--CODEGEN--\":10422:10460   */\n      mstore\n        /* \"--CODEGEN--\":10475:10544   */\n      tag_494\n        /* \"--CODEGEN--\":10539:10543   */\n      dup3\n        /* \"--CODEGEN--\":10525:10537   */\n      dup3\n        /* \"--CODEGEN--\":10475:10544   */\n      jump(tag_445)\n    tag_494:\n        /* \"--CODEGEN--\":10467:10544   */\n      swap2\n      pop\n        /* \"--CODEGEN--\":10333:10556   */\n      pop\n        /* \"--CODEGEN--\":10637:10641   */\n      0xa0\n        /* \"--CODEGEN--\":10630:10635   */\n      dup4\n        /* \"--CODEGEN--\":10626:10642   */\n      add\n        /* \"--CODEGEN--\":10620:10643   */\n      mload\n        /* \"--CODEGEN--\":10689:10692   */\n      dup5\n        /* \"--CODEGEN--\":10683:10687   */\n      dup3\n        /* \"--CODEGEN--\":10679:10693   */\n      sub\n        /* \"--CODEGEN--\":10672:10676   */\n      0xa0\n        /* \"--CODEGEN--\":10667:10670   */\n      dup7\n        /* \"--CODEGEN--\":10663:10677   */\n      add\n        /* \"--CODEGEN--\":10656:10694   */\n      mstore\n        /* \"--CODEGEN--\":10709:10778   */\n      tag_495\n        /* \"--CODEGEN--\":10773:10777   */\n      dup3\n        /* \"--CODEGEN--\":10759:10771   */\n      dup3\n        /* \"--CODEGEN--\":10709:10778   */\n      jump(tag_445)\n    tag_495:\n        /* \"--CODEGEN--\":10701:10778   */\n      swap2\n      pop\n        /* \"--CODEGEN--\":10566:10790   */\n      pop\n        /* \"--CODEGEN--\":10866:10870   */\n      0xc0\n        /* \"--CODEGEN--\":10859:10864   */\n      dup4\n        /* \"--CODEGEN--\":10855:10871   */\n      add\n        /* \"--CODEGEN--\":10849:10872   */\n      mload\n        /* \"--CODEGEN--\":10918:10921   */\n      dup5\n        /* \"--CODEGEN--\":10912:10916   */\n      dup3\n        /* \"--CODEGEN--\":10908:10922   */\n      sub\n        /* \"--CODEGEN--\":10901:10905   */\n      0xc0\n        /* \"--CODEGEN--\":10896:10899   */\n      dup7\n        /* \"--CODEGEN--\":10892:10906   */\n      add\n        /* \"--CODEGEN--\":10885:10923   */\n      mstore\n        /* \"--CODEGEN--\":10938:11007   */\n      tag_496\n        /* \"--CODEGEN--\":11002:11006   */\n      dup3\n        /* \"--CODEGEN--\":10988:11000   */\n      dup3\n        /* \"--CODEGEN--\":10938:11007   */\n      jump(tag_445)\n    tag_496:\n        /* \"--CODEGEN--\":10930:11007   */\n      swap2\n      pop\n        /* \"--CODEGEN--\":10800:11019   */\n      pop\n        /* \"--CODEGEN--\":11096:11100   */\n      0xe0\n        /* \"--CODEGEN--\":11089:11094   */\n      dup4\n        /* \"--CODEGEN--\":11085:11101   */\n      add\n        /* \"--CODEGEN--\":11079:11102   */\n      mload\n        /* \"--CODEGEN--\":11148:11151   */\n      dup5\n        /* \"--CODEGEN--\":11142:11146   */\n      dup3\n        /* \"--CODEGEN--\":11138:11152   */\n      sub\n        /* \"--CODEGEN--\":11131:11135   */\n      0xe0\n        /* \"--CODEGEN--\":11126:11129   */\n      dup7\n        /* \"--CODEGEN--\":11122:11136   */\n      add\n        /* \"--CODEGEN--\":11115:11153   */\n      mstore\n        /* \"--CODEGEN--\":11168:11237   */\n      tag_497\n        /* \"--CODEGEN--\":11232:11236   */\n      dup3\n        /* \"--CODEGEN--\":11218:11230   */\n      dup3\n        /* \"--CODEGEN--\":11168:11237   */\n      jump(tag_445)\n    tag_497:\n        /* \"--CODEGEN--\":11160:11237   */\n      swap2\n      pop\n        /* \"--CODEGEN--\":11029:11249   */\n      pop\n        /* \"--CODEGEN--\":11327:11333   */\n      0x0100\n        /* \"--CODEGEN--\":11320:11325   */\n      dup4\n        /* \"--CODEGEN--\":11316:11334   */\n      add\n        /* \"--CODEGEN--\":11310:11335   */\n      mload\n        /* \"--CODEGEN--\":11383:11386   */\n      dup5\n        /* \"--CODEGEN--\":11377:11381   */\n      dup3\n        /* \"--CODEGEN--\":11373:11387   */\n      sub\n        /* \"--CODEGEN--\":11364:11370   */\n      0x0100\n        /* \"--CODEGEN--\":11359:11362   */\n      dup7\n        /* \"--CODEGEN--\":11355:11371   */\n      add\n        /* \"--CODEGEN--\":11348:11388   */\n      mstore\n        /* \"--CODEGEN--\":11403:11472   */\n      tag_498\n        /* \"--CODEGEN--\":11467:11471   */\n      dup3\n        /* \"--CODEGEN--\":11453:11465   */\n      dup3\n        /* \"--CODEGEN--\":11403:11472   */\n      jump(tag_445)\n    tag_498:\n        /* \"--CODEGEN--\":11395:11472   */\n      swap2\n      pop\n        /* \"--CODEGEN--\":11259:11484   */\n      pop\n        /* \"--CODEGEN--\":11560:11566   */\n      0x0120\n        /* \"--CODEGEN--\":11553:11558   */\n      dup4\n        /* \"--CODEGEN--\":11549:11567   */\n      add\n        /* \"--CODEGEN--\":11543:11568   */\n      mload\n        /* \"--CODEGEN--\":11616:11619   */\n      dup5\n        /* \"--CODEGEN--\":11610:11614   */\n      dup3\n        /* \"--CODEGEN--\":11606:11620   */\n      sub\n        /* \"--CODEGEN--\":11597:11603   */\n      0x0120\n        /* \"--CODEGEN--\":11592:11595   */\n      dup7\n        /* \"--CODEGEN--\":11588:11604   */\n      add\n        /* \"--CODEGEN--\":11581:11621   */\n      mstore\n        /* \"--CODEGEN--\":11636:11705   */\n      tag_499\n        /* \"--CODEGEN--\":11700:11704   */\n      dup3\n        /* \"--CODEGEN--\":11686:11698   */\n      dup3\n        /* \"--CODEGEN--\":11636:11705   */\n      jump(tag_445)\n    tag_499:\n        /* \"--CODEGEN--\":11628:11705   */\n      swap2\n      pop\n        /* \"--CODEGEN--\":11494:11717   */\n      pop\n        /* \"--CODEGEN--\":11795:11801   */\n      0x0140\n        /* \"--CODEGEN--\":11788:11793   */\n      dup4\n        /* \"--CODEGEN--\":11784:11802   */\n      add\n        /* \"--CODEGEN--\":11778:11803   */\n      mload\n        /* \"--CODEGEN--\":11851:11854   */\n      dup5\n        /* \"--CODEGEN--\":11845:11849   */\n      dup3\n        /* \"--CODEGEN--\":11841:11855   */\n      sub\n        /* \"--CODEGEN--\":11832:11838   */\n      0x0140\n        /* \"--CODEGEN--\":11827:11830   */\n      dup7\n        /* \"--CODEGEN--\":11823:11839   */\n      add\n        /* \"--CODEGEN--\":11816:11856   */\n      mstore\n        /* \"--CODEGEN--\":11871:11940   */\n      tag_500\n        /* \"--CODEGEN--\":11935:11939   */\n      dup3\n        /* \"--CODEGEN--\":11921:11933   */\n      dup3\n        /* \"--CODEGEN--\":11871:11940   */\n      jump(tag_445)\n    tag_500:\n        /* \"--CODEGEN--\":11863:11940   */\n      swap2\n      pop\n        /* \"--CODEGEN--\":11727:11952   */\n      pop\n        /* \"--CODEGEN--\":12041:12047   */\n      0x0160\n        /* \"--CODEGEN--\":12034:12039   */\n      dup4\n        /* \"--CODEGEN--\":12030:12048   */\n      add\n        /* \"--CODEGEN--\":12024:12049   */\n      mload\n        /* \"--CODEGEN--\":12097:12100   */\n      dup5\n        /* \"--CODEGEN--\":12091:12095   */\n      dup3\n        /* \"--CODEGEN--\":12087:12101   */\n      sub\n        /* \"--CODEGEN--\":12078:12084   */\n      0x0160\n        /* \"--CODEGEN--\":12073:12076   */\n      dup7\n        /* \"--CODEGEN--\":12069:12085   */\n      add\n        /* \"--CODEGEN--\":12062:12102   */\n      mstore\n        /* \"--CODEGEN--\":12117:12186   */\n      tag_501\n        /* \"--CODEGEN--\":12181:12185   */\n      dup3\n        /* \"--CODEGEN--\":12167:12179   */\n      dup3\n        /* \"--CODEGEN--\":12117:12186   */\n      jump(tag_445)\n    tag_501:\n        /* \"--CODEGEN--\":12109:12186   */\n      swap2\n      pop\n        /* \"--CODEGEN--\":11962:12198   */\n      pop\n        /* \"--CODEGEN--\":12290:12296   */\n      0x0180\n        /* \"--CODEGEN--\":12283:12288   */\n      dup4\n        /* \"--CODEGEN--\":12279:12297   */\n      add\n        /* \"--CODEGEN--\":12273:12298   */\n      mload\n        /* \"--CODEGEN--\":12346:12349   */\n      dup5\n        /* \"--CODEGEN--\":12340:12344   */\n      dup3\n        /* \"--CODEGEN--\":12336:12350   */\n      sub\n        /* \"--CODEGEN--\":12327:12333   */\n      0x0180\n        /* \"--CODEGEN--\":12322:12325   */\n      dup7\n        /* \"--CODEGEN--\":12318:12334   */\n      add\n        /* \"--CODEGEN--\":12311:12351   */\n      mstore\n        /* \"--CODEGEN--\":12366:12435   */\n      tag_502\n        /* \"--CODEGEN--\":12430:12434   */\n      dup3\n        /* \"--CODEGEN--\":12416:12428   */\n      dup3\n        /* \"--CODEGEN--\":12366:12435   */\n      jump(tag_445)\n    tag_502:\n        /* \"--CODEGEN--\":12358:12435   */\n      swap2\n      pop\n        /* \"--CODEGEN--\":12208:12447   */\n      pop\n        /* \"--CODEGEN--\":12532:12538   */\n      0x01a0\n        /* \"--CODEGEN--\":12525:12530   */\n      dup4\n        /* \"--CODEGEN--\":12521:12539   */\n      add\n        /* \"--CODEGEN--\":12515:12540   */\n      mload\n        /* \"--CODEGEN--\":12546:12611   */\n      tag_503\n        /* \"--CODEGEN--\":12603:12609   */\n      0x01a0\n        /* \"--CODEGEN--\":12598:12601   */\n      dup7\n        /* \"--CODEGEN--\":12594:12610   */\n      add\n        /* \"--CODEGEN--\":12580:12592   */\n      dup3\n        /* \"--CODEGEN--\":12546:12611   */\n      jump(tag_480)\n    tag_503:\n        /* \"--CODEGEN--\":12457:12617   */\n      pop\n        /* \"--CODEGEN--\":12700:12706   */\n      0x01c0\n        /* \"--CODEGEN--\":12693:12698   */\n      dup4\n        /* \"--CODEGEN--\":12689:12707   */\n      add\n        /* \"--CODEGEN--\":12683:12708   */\n      mload\n        /* \"--CODEGEN--\":12714:12779   */\n      tag_504\n        /* \"--CODEGEN--\":12771:12777   */\n      0x01c0\n        /* \"--CODEGEN--\":12766:12769   */\n      dup7\n        /* \"--CODEGEN--\":12762:12778   */\n      add\n        /* \"--CODEGEN--\":12748:12760   */\n      dup3\n        /* \"--CODEGEN--\":12714:12779   */\n      jump(tag_480)\n    tag_504:\n        /* \"--CODEGEN--\":12627:12785   */\n      pop\n        /* \"--CODEGEN--\":12864:12870   */\n      0x01e0\n        /* \"--CODEGEN--\":12857:12862   */\n      dup4\n        /* \"--CODEGEN--\":12853:12871   */\n      add\n        /* \"--CODEGEN--\":12847:12872   */\n      mload\n        /* \"--CODEGEN--\":12920:12923   */\n      dup5\n        /* \"--CODEGEN--\":12914:12918   */\n      dup3\n        /* \"--CODEGEN--\":12910:12924   */\n      sub\n        /* \"--CODEGEN--\":12901:12907   */\n      0x01e0\n        /* \"--CODEGEN--\":12896:12899   */\n      dup7\n        /* \"--CODEGEN--\":12892:12908   */\n      add\n        /* \"--CODEGEN--\":12885:12925   */\n      mstore\n        /* \"--CODEGEN--\":12940:13009   */\n      tag_505\n        /* \"--CODEGEN--\":13004:13008   */\n      dup3\n        /* \"--CODEGEN--\":12990:13002   */\n      dup3\n        /* \"--CODEGEN--\":12940:13009   */\n      jump(tag_445)\n    tag_505:\n        /* \"--CODEGEN--\":12932:13009   */\n      swap2\n      pop\n        /* \"--CODEGEN--\":12795:13021   */\n      pop\n        /* \"--CODEGEN--\":13038:13042   */\n      dup1\n        /* \"--CODEGEN--\":13031:13042   */\n      swap2\n      pop\n        /* \"--CODEGEN--\":9367:13047   */\n      pop\n      swap3\n      swap2\n      pop\n      pop\n      jump\n        /* \"--CODEGEN--\":13054:13157   */\n    tag_480:\n        /* \"--CODEGEN--\":13127:13151   */\n      tag_507\n        /* \"--CODEGEN--\":13145:13150   */\n      dup2\n        /* \"--CODEGEN--\":13127:13151   */\n      jump(tag_508)\n    tag_507:\n        /* \"--CODEGEN--\":13122:13125   */\n      dup3\n        /* \"--CODEGEN--\":13115:13152   */\n      mstore\n        /* \"--CODEGEN--\":13109:13157   */\n      pop\n      pop\n      jump\n        /* \"--CODEGEN--\":13164:13277   */\n    tag_509:\n        /* \"--CODEGEN--\":13247:13271   */\n      tag_511\n        /* \"--CODEGEN--\":13265:13270   */\n      dup2\n        /* \"--CODEGEN--\":13247:13271   */\n      jump(tag_508)\n    tag_511:\n        /* \"--CODEGEN--\":13242:13245   */\n      dup3\n        /* \"--CODEGEN--\":13235:13272   */\n      mstore\n        /* \"--CODEGEN--\":13229:13277   */\n      pop\n      pop\n      jump\n        /* \"--CODEGEN--\":13284:13624   */\n    tag_282:\n      0x00\n        /* \"--CODEGEN--\":13438:13440   */\n      0x40\n        /* \"--CODEGEN--\":13427:13436   */\n      dup3\n        /* \"--CODEGEN--\":13423:13441   */\n      add\n        /* \"--CODEGEN--\":13415:13441   */\n      swap1\n      pop\n        /* \"--CODEGEN--\":13452:13531   */\n      tag_513\n        /* \"--CODEGEN--\":13528:13529   */\n      0x00\n        /* \"--CODEGEN--\":13517:13526   */\n      dup4\n        /* \"--CODEGEN--\":13513:13530   */\n      add\n        /* \"--CODEGEN--\":13504:13510   */\n      dup6\n        /* \"--CODEGEN--\":13452:13531   */\n      jump(tag_429)\n    tag_513:\n        /* \"--CODEGEN--\":13542:13614   */\n      tag_514\n        /* \"--CODEGEN--\":13610:13612   */\n      0x20\n        /* \"--CODEGEN--\":13599:13608   */\n      dup4\n        /* \"--CODEGEN--\":13595:13613   */\n      add\n        /* \"--CODEGEN--\":13586:13592   */\n      dup5\n        /* \"--CODEGEN--\":13542:13614   */\n      jump(tag_433)\n    tag_514:\n        /* \"--CODEGEN--\":13409:13624   */\n      swap4\n      swap3\n      pop\n      pop\n      pop\n      jump\n        /* \"--CODEGEN--\":13631:14100   */\n    tag_290:\n      0x00\n        /* \"--CODEGEN--\":13822:13824   */\n      0x60\n        /* \"--CODEGEN--\":13811:13820   */\n      dup3\n        /* \"--CODEGEN--\":13807:13825   */\n      add\n        /* \"--CODEGEN--\":13799:13825   */\n      swap1\n      pop\n        /* \"--CODEGEN--\":13836:13915   */\n      tag_516\n        /* \"--CODEGEN--\":13912:13913   */\n      0x00\n        /* \"--CODEGEN--\":13901:13910   */\n      dup4\n        /* \"--CODEGEN--\":13897:13914   */\n      add\n        /* \"--CODEGEN--\":13888:13894   */\n      dup7\n        /* \"--CODEGEN--\":13836:13915   */\n      jump(tag_429)\n    tag_516:\n        /* \"--CODEGEN--\":13926:13998   */\n      tag_517\n        /* \"--CODEGEN--\":13994:13996   */\n      0x20\n        /* \"--CODEGEN--\":13983:13992   */\n      dup4\n        /* \"--CODEGEN--\":13979:13997   */\n      add\n        /* \"--CODEGEN--\":13970:13976   */\n      dup6\n        /* \"--CODEGEN--\":13926:13998   */\n      jump(tag_433)\n    tag_517:\n        /* \"--CODEGEN--\":14009:14090   */\n      tag_518\n        /* \"--CODEGEN--\":14086:14088   */\n      0x40\n        /* \"--CODEGEN--\":14075:14084   */\n      dup4\n        /* \"--CODEGEN--\":14071:14089   */\n      add\n        /* \"--CODEGEN--\":14062:14068   */\n      dup5\n        /* \"--CODEGEN--\":14009:14090   */\n      jump(tag_437)\n    tag_518:\n        /* \"--CODEGEN--\":13793:14100   */\n      swap5\n      swap4\n      pop\n      pop\n      pop\n      pop\n      jump\n        /* \"--CODEGEN--\":14107:14431   */\n    tag_151:\n      0x00\n        /* \"--CODEGEN--\":14253:14255   */\n      0x40\n        /* \"--CODEGEN--\":14242:14251   */\n      dup3\n        /* \"--CODEGEN--\":14238:14256   */\n      add\n        /* \"--CODEGEN--\":14230:14256   */\n      swap1\n      pop\n        /* \"--CODEGEN--\":14267:14338   */\n      tag_520\n        /* \"--CODEGEN--\":14335:14336   */\n      0x00\n        /* \"--CODEGEN--\":14324:14333   */\n      dup4\n        /* \"--CODEGEN--\":14320:14337   */\n      add\n        /* \"--CODEGEN--\":14311:14317   */\n      dup6\n        /* \"--CODEGEN--\":14267:14338   */\n      jump(tag_433)\n    tag_520:\n        /* \"--CODEGEN--\":14349:14421   */\n      tag_521\n        /* \"--CODEGEN--\":14417:14419   */\n      0x20\n        /* \"--CODEGEN--\":14406:14415   */\n      dup4\n        /* \"--CODEGEN--\":14402:14420   */\n      add\n        /* \"--CODEGEN--\":14393:14399   */\n      dup5\n        /* \"--CODEGEN--\":14349:14421   */\n      jump(tag_433)\n    tag_521:\n        /* \"--CODEGEN--\":14224:14431   */\n      swap4\n      swap3\n      pop\n      pop\n      pop\n      jump\n        /* \"--CODEGEN--\":14438:14907   */\n    tag_161:\n      0x00\n        /* \"--CODEGEN--\":14629:14631   */\n      0x60\n        /* \"--CODEGEN--\":14618:14627   */\n      dup3\n        /* \"--CODEGEN--\":14614:14632   */\n      add\n        /* \"--CODEGEN--\":14606:14632   */\n      swap1\n      pop\n        /* \"--CODEGEN--\":14643:14714   */\n      tag_523\n        /* \"--CODEGEN--\":14711:14712   */\n      0x00\n        /* \"--CODEGEN--\":14700:14709   */\n      dup4\n        /* \"--CODEGEN--\":14696:14713   */\n      add\n        /* \"--CODEGEN--\":14687:14693   */\n      dup7\n        /* \"--CODEGEN--\":14643:14714   */\n      jump(tag_433)\n    tag_523:\n        /* \"--CODEGEN--\":14725:14805   */\n      tag_524\n        /* \"--CODEGEN--\":14801:14803   */\n      0x20\n        /* \"--CODEGEN--\":14790:14799   */\n      dup4\n        /* \"--CODEGEN--\":14786:14804   */\n      add\n        /* \"--CODEGEN--\":14777:14783   */\n      dup6\n        /* \"--CODEGEN--\":14725:14805   */\n      jump(tag_429)\n    tag_524:\n        /* \"--CODEGEN--\":14816:14897   */\n      tag_525\n        /* \"--CODEGEN--\":14893:14895   */\n      0x40\n        /* \"--CODEGEN--\":14882:14891   */\n      dup4\n        /* \"--CODEGEN--\":14878:14896   */\n      add\n        /* \"--CODEGEN--\":14869:14875   */\n      dup5\n        /* \"--CODEGEN--\":14816:14897   */\n      jump(tag_441)\n    tag_525:\n        /* \"--CODEGEN--\":14600:14907   */\n      swap5\n      swap4\n      pop\n      pop\n      pop\n      pop\n      jump\n        /* \"--CODEGEN--\":14914:16085   */\n    tag_71:\n      0x00\n        /* \"--CODEGEN--\":15252:15255   */\n      0xc0\n        /* \"--CODEGEN--\":15241:15250   */\n      dup3\n        /* \"--CODEGEN--\":15237:15256   */\n      add\n        /* \"--CODEGEN--\":15229:15256   */\n      swap1\n      pop\n        /* \"--CODEGEN--\":15303:15312   */\n      dup2\n        /* \"--CODEGEN--\":15297:15301   */\n      dup2\n        /* \"--CODEGEN--\":15293:15313   */\n      sub\n        /* \"--CODEGEN--\":15289:15290   */\n      0x00\n        /* \"--CODEGEN--\":15278:15287   */\n      dup4\n        /* \"--CODEGEN--\":15274:15291   */\n      add\n        /* \"--CODEGEN--\":15267:15314   */\n      mstore\n        /* \"--CODEGEN--\":15328:15402   */\n      tag_527\n        /* \"--CODEGEN--\":15397:15401   */\n      dup2\n        /* \"--CODEGEN--\":15388:15394   */\n      dup10\n        /* \"--CODEGEN--\":15328:15402   */\n      jump(tag_455)\n    tag_527:\n        /* \"--CODEGEN--\":15320:15402   */\n      swap1\n      pop\n        /* \"--CODEGEN--\":15450:15459   */\n      dup2\n        /* \"--CODEGEN--\":15444:15448   */\n      dup2\n        /* \"--CODEGEN--\":15440:15460   */\n      sub\n        /* \"--CODEGEN--\":15435:15437   */\n      0x20\n        /* \"--CODEGEN--\":15424:15433   */\n      dup4\n        /* \"--CODEGEN--\":15420:15438   */\n      add\n        /* \"--CODEGEN--\":15413:15461   */\n      mstore\n        /* \"--CODEGEN--\":15475:15549   */\n      tag_528\n        /* \"--CODEGEN--\":15544:15548   */\n      dup2\n        /* \"--CODEGEN--\":15535:15541   */\n      dup9\n        /* \"--CODEGEN--\":15475:15549   */\n      jump(tag_455)\n    tag_528:\n        /* \"--CODEGEN--\":15467:15549   */\n      swap1\n      pop\n        /* \"--CODEGEN--\":15597:15606   */\n      dup2\n        /* \"--CODEGEN--\":15591:15595   */\n      dup2\n        /* \"--CODEGEN--\":15587:15607   */\n      sub\n        /* \"--CODEGEN--\":15582:15584   */\n      0x40\n        /* \"--CODEGEN--\":15571:15580   */\n      dup4\n        /* \"--CODEGEN--\":15567:15585   */\n      add\n        /* \"--CODEGEN--\":15560:15608   */\n      mstore\n        /* \"--CODEGEN--\":15622:15696   */\n      tag_529\n        /* \"--CODEGEN--\":15691:15695   */\n      dup2\n        /* \"--CODEGEN--\":15682:15688   */\n      dup8\n        /* \"--CODEGEN--\":15622:15696   */\n      jump(tag_455)\n    tag_529:\n        /* \"--CODEGEN--\":15614:15696   */\n      swap1\n      pop\n        /* \"--CODEGEN--\":15744:15753   */\n      dup2\n        /* \"--CODEGEN--\":15738:15742   */\n      dup2\n        /* \"--CODEGEN--\":15734:15754   */\n      sub\n        /* \"--CODEGEN--\":15729:15731   */\n      0x60\n        /* \"--CODEGEN--\":15718:15727   */\n      dup4\n        /* \"--CODEGEN--\":15714:15732   */\n      add\n        /* \"--CODEGEN--\":15707:15755   */\n      mstore\n        /* \"--CODEGEN--\":15769:15843   */\n      tag_530\n        /* \"--CODEGEN--\":15838:15842   */\n      dup2\n        /* \"--CODEGEN--\":15829:15835   */\n      dup7\n        /* \"--CODEGEN--\":15769:15843   */\n      jump(tag_455)\n    tag_530:\n        /* \"--CODEGEN--\":15761:15843   */\n      swap1\n      pop\n        /* \"--CODEGEN--\":15892:15901   */\n      dup2\n        /* \"--CODEGEN--\":15886:15890   */\n      dup2\n        /* \"--CODEGEN--\":15882:15902   */\n      sub\n        /* \"--CODEGEN--\":15876:15879   */\n      0x80\n        /* \"--CODEGEN--\":15865:15874   */\n      dup4\n        /* \"--CODEGEN--\":15861:15880   */\n      add\n        /* \"--CODEGEN--\":15854:15903   */\n      mstore\n        /* \"--CODEGEN--\":15917:15991   */\n      tag_531\n        /* \"--CODEGEN--\":15986:15990   */\n      dup2\n        /* \"--CODEGEN--\":15977:15983   */\n      dup6\n        /* \"--CODEGEN--\":15917:15991   */\n      jump(tag_455)\n    tag_531:\n        /* \"--CODEGEN--\":15909:15991   */\n      swap1\n      pop\n        /* \"--CODEGEN--\":16002:16075   */\n      tag_532\n        /* \"--CODEGEN--\":16070:16073   */\n      0xa0\n        /* \"--CODEGEN--\":16059:16068   */\n      dup4\n        /* \"--CODEGEN--\":16055:16074   */\n      add\n        /* \"--CODEGEN--\":16046:16052   */\n      dup5\n        /* \"--CODEGEN--\":16002:16075   */\n      jump(tag_509)\n    tag_532:\n        /* \"--CODEGEN--\":15223:16085   */\n      swap8\n      swap7\n      pop\n      pop\n      pop\n      pop\n      pop\n      pop\n      pop\n      jump\n        /* \"--CODEGEN--\":16092:17839   */\n    tag_45:\n      0x00\n        /* \"--CODEGEN--\":16562:16565   */\n      0x0120\n        /* \"--CODEGEN--\":16551:16560   */\n      dup3\n        /* \"--CODEGEN--\":16547:16566   */\n      add\n        /* \"--CODEGEN--\":16539:16566   */\n      swap1\n      pop\n        /* \"--CODEGEN--\":16613:16622   */\n      dup2\n        /* \"--CODEGEN--\":16607:16611   */\n      dup2\n        /* \"--CODEGEN--\":16603:16623   */\n      sub\n        /* \"--CODEGEN--\":16599:16600   */\n      0x00\n        /* \"--CODEGEN--\":16588:16597   */\n      dup4\n        /* \"--CODEGEN--\":16584:16601   */\n      add\n        /* \"--CODEGEN--\":16577:16624   */\n      mstore\n        /* \"--CODEGEN--\":16638:16712   */\n      tag_534\n        /* \"--CODEGEN--\":16707:16711   */\n      dup2\n        /* \"--CODEGEN--\":16698:16704   */\n      dup13\n        /* \"--CODEGEN--\":16638:16712   */\n      jump(tag_455)\n    tag_534:\n        /* \"--CODEGEN--\":16630:16712   */\n      swap1\n      pop\n        /* \"--CODEGEN--\":16760:16769   */\n      dup2\n        /* \"--CODEGEN--\":16754:16758   */\n      dup2\n        /* \"--CODEGEN--\":16750:16770   */\n      sub\n        /* \"--CODEGEN--\":16745:16747   */\n      0x20\n        /* \"--CODEGEN--\":16734:16743   */\n      dup4\n        /* \"--CODEGEN--\":16730:16748   */\n      add\n        /* \"--CODEGEN--\":16723:16771   */\n      mstore\n        /* \"--CODEGEN--\":16785:16859   */\n      tag_535\n        /* \"--CODEGEN--\":16854:16858   */\n      dup2\n        /* \"--CODEGEN--\":16845:16851   */\n      dup12\n        /* \"--CODEGEN--\":16785:16859   */\n      jump(tag_455)\n    tag_535:\n        /* \"--CODEGEN--\":16777:16859   */\n      swap1\n      pop\n        /* \"--CODEGEN--\":16870:16942   */\n      tag_536\n        /* \"--CODEGEN--\":16938:16940   */\n      0x40\n        /* \"--CODEGEN--\":16927:16936   */\n      dup4\n        /* \"--CODEGEN--\":16923:16941   */\n      add\n        /* \"--CODEGEN--\":16914:16920   */\n      dup11\n        /* \"--CODEGEN--\":16870:16942   */\n      jump(tag_509)\n    tag_536:\n        /* \"--CODEGEN--\":16990:16999   */\n      dup2\n        /* \"--CODEGEN--\":16984:16988   */\n      dup2\n        /* \"--CODEGEN--\":16980:17000   */\n      sub\n        /* \"--CODEGEN--\":16975:16977   */\n      0x60\n        /* \"--CODEGEN--\":16964:16973   */\n      dup4\n        /* \"--CODEGEN--\":16960:16978   */\n      add\n        /* \"--CODEGEN--\":16953:17001   */\n      mstore\n        /* \"--CODEGEN--\":17015:17089   */\n      tag_537\n        /* \"--CODEGEN--\":17084:17088   */\n      dup2\n        /* \"--CODEGEN--\":17075:17081   */\n      dup10\n        /* \"--CODEGEN--\":17015:17089   */\n      jump(tag_455)\n    tag_537:\n        /* \"--CODEGEN--\":17007:17089   */\n      swap1\n      pop\n        /* \"--CODEGEN--\":17138:17147   */\n      dup2\n        /* \"--CODEGEN--\":17132:17136   */\n      dup2\n        /* \"--CODEGEN--\":17128:17148   */\n      sub\n        /* \"--CODEGEN--\":17122:17125   */\n      0x80\n        /* \"--CODEGEN--\":17111:17120   */\n      dup4\n        /* \"--CODEGEN--\":17107:17126   */\n      add\n        /* \"--CODEGEN--\":17100:17149   */\n      mstore\n        /* \"--CODEGEN--\":17163:17237   */\n      tag_538\n        /* \"--CODEGEN--\":17232:17236   */\n      dup2\n        /* \"--CODEGEN--\":17223:17229   */\n      dup9\n        /* \"--CODEGEN--\":17163:17237   */\n      jump(tag_455)\n    tag_538:\n        /* \"--CODEGEN--\":17155:17237   */\n      swap1\n      pop\n        /* \"--CODEGEN--\":17286:17295   */\n      dup2\n        /* \"--CODEGEN--\":17280:17284   */\n      dup2\n        /* \"--CODEGEN--\":17276:17296   */\n      sub\n        /* \"--CODEGEN--\":17270:17273   */\n      0xa0\n        /* \"--CODEGEN--\":17259:17268   */\n      dup4\n        /* \"--CODEGEN--\":17255:17274   */\n      add\n        /* \"--CODEGEN--\":17248:17297   */\n      mstore\n        /* \"--CODEGEN--\":17311:17385   */\n      tag_539\n        /* \"--CODEGEN--\":17380:17384   */\n      dup2\n        /* \"--CODEGEN--\":17371:17377   */\n      dup8\n        /* \"--CODEGEN--\":17311:17385   */\n      jump(tag_455)\n    tag_539:\n        /* \"--CODEGEN--\":17303:17385   */\n      swap1\n      pop\n        /* \"--CODEGEN--\":17434:17443   */\n      dup2\n        /* \"--CODEGEN--\":17428:17432   */\n      dup2\n        /* \"--CODEGEN--\":17424:17444   */\n      sub\n        /* \"--CODEGEN--\":17418:17421   */\n      0xc0\n        /* \"--CODEGEN--\":17407:17416   */\n      dup4\n        /* \"--CODEGEN--\":17403:17422   */\n      add\n        /* \"--CODEGEN--\":17396:17445   */\n      mstore\n        /* \"--CODEGEN--\":17459:17533   */\n      tag_540\n        /* \"--CODEGEN--\":17528:17532   */\n      dup2\n        /* \"--CODEGEN--\":17519:17525   */\n      dup7\n        /* \"--CODEGEN--\":17459:17533   */\n      jump(tag_455)\n    tag_540:\n        /* \"--CODEGEN--\":17451:17533   */\n      swap1\n      pop\n        /* \"--CODEGEN--\":17582:17591   */\n      dup2\n        /* \"--CODEGEN--\":17576:17580   */\n      dup2\n        /* \"--CODEGEN--\":17572:17592   */\n      sub\n        /* \"--CODEGEN--\":17566:17569   */\n      0xe0\n        /* \"--CODEGEN--\":17555:17564   */\n      dup4\n        /* \"--CODEGEN--\":17551:17570   */\n      add\n        /* \"--CODEGEN--\":17544:17593   */\n      mstore\n        /* \"--CODEGEN--\":17607:17681   */\n      tag_541\n        /* \"--CODEGEN--\":17676:17680   */\n      dup2\n        /* \"--CODEGEN--\":17667:17673   */\n      dup6\n        /* \"--CODEGEN--\":17607:17681   */\n      jump(tag_455)\n    tag_541:\n        /* \"--CODEGEN--\":17599:17681   */\n      swap1\n      pop\n        /* \"--CODEGEN--\":17730:17739   */\n      dup2\n        /* \"--CODEGEN--\":17724:17728   */\n      dup2\n        /* \"--CODEGEN--\":17720:17740   */\n      sub\n        /* \"--CODEGEN--\":17714:17717   */\n      0x0100\n        /* \"--CODEGEN--\":17703:17712   */\n      dup4\n        /* \"--CODEGEN--\":17699:17718   */\n      add\n        /* \"--CODEGEN--\":17692:17741   */\n      mstore\n        /* \"--CODEGEN--\":17755:17829   */\n      tag_542\n        /* \"--CODEGEN--\":17824:17828   */\n      dup2\n        /* \"--CODEGEN--\":17815:17821   */\n      dup5\n        /* \"--CODEGEN--\":17755:17829   */\n      jump(tag_455)\n    tag_542:\n        /* \"--CODEGEN--\":17747:17829   */\n      swap1\n      pop\n        /* \"--CODEGEN--\":16533:17839   */\n      swap11\n      swap10\n      pop\n      pop\n      pop\n      pop\n      pop\n      pop\n      pop\n      pop\n      pop\n      pop\n      jump\n        /* \"--CODEGEN--\":17846:18253   */\n    tag_86:\n      0x00\n        /* \"--CODEGEN--\":18037:18039   */\n      0x20\n        /* \"--CODEGEN--\":18026:18035   */\n      dup3\n        /* \"--CODEGEN--\":18022:18040   */\n      add\n        /* \"--CODEGEN--\":18014:18040   */\n      swap1\n      pop\n        /* \"--CODEGEN--\":18087:18096   */\n      dup2\n        /* \"--CODEGEN--\":18081:18085   */\n      dup2\n        /* \"--CODEGEN--\":18077:18097   */\n      sub\n        /* \"--CODEGEN--\":18073:18074   */\n      0x00\n        /* \"--CODEGEN--\":18062:18071   */\n      dup4\n        /* \"--CODEGEN--\":18058:18075   */\n      add\n        /* \"--CODEGEN--\":18051:18098   */\n      mstore\n        /* \"--CODEGEN--\":18112:18243   */\n      tag_544\n        /* \"--CODEGEN--\":18238:18242   */\n      dup2\n        /* \"--CODEGEN--\":18112:18243   */\n      jump(tag_462)\n    tag_544:\n        /* \"--CODEGEN--\":18104:18243   */\n      swap1\n      pop\n        /* \"--CODEGEN--\":18008:18253   */\n      swap2\n      swap1\n      pop\n      jump\n        /* \"--CODEGEN--\":18260:18667   */\n    tag_159:\n      0x00\n        /* \"--CODEGEN--\":18451:18453   */\n      0x20\n        /* \"--CODEGEN--\":18440:18449   */\n      dup3\n        /* \"--CODEGEN--\":18436:18454   */\n      add\n        /* \"--CODEGEN--\":18428:18454   */\n      swap1\n      pop\n        /* \"--CODEGEN--\":18501:18510   */\n      dup2\n        /* \"--CODEGEN--\":18495:18499   */\n      dup2\n        /* \"--CODEGEN--\":18491:18511   */\n      sub\n        /* \"--CODEGEN--\":18487:18488   */\n      0x00\n        /* \"--CODEGEN--\":18476:18485   */\n      dup4\n        /* \"--CODEGEN--\":18472:18489   */\n      add\n        /* \"--CODEGEN--\":18465:18512   */\n      mstore\n        /* \"--CODEGEN--\":18526:18657   */\n      tag_546\n        /* \"--CODEGEN--\":18652:18656   */\n      dup2\n        /* \"--CODEGEN--\":18526:18657   */\n      jump(tag_465)\n    tag_546:\n        /* \"--CODEGEN--\":18518:18657   */\n      swap1\n      pop\n        /* \"--CODEGEN--\":18422:18667   */\n      swap2\n      swap1\n      pop\n      jump\n        /* \"--CODEGEN--\":18674:19081   */\n    tag_133:\n      0x00\n        /* \"--CODEGEN--\":18865:18867   */\n      0x20\n        /* \"--CODEGEN--\":18854:18863   */\n      dup3\n        /* \"--CODEGEN--\":18850:18868   */\n      add\n        /* \"--CODEGEN--\":18842:18868   */\n      swap1\n      pop\n        /* \"--CODEGEN--\":18915:18924   */\n      dup2\n        /* \"--CODEGEN--\":18909:18913   */\n      dup2\n        /* \"--CODEGEN--\":18905:18925   */\n      sub\n        /* \"--CODEGEN--\":18901:18902   */\n      0x00\n        /* \"--CODEGEN--\":18890:18899   */\n      dup4\n        /* \"--CODEGEN--\":18886:18903   */\n      add\n        /* \"--CODEGEN--\":18879:18926   */\n      mstore\n        /* \"--CODEGEN--\":18940:19071   */\n      tag_548\n        /* \"--CODEGEN--\":19066:19070   */\n      dup2\n        /* \"--CODEGEN--\":18940:19071   */\n      jump(tag_468)\n    tag_548:\n        /* \"--CODEGEN--\":18932:19071   */\n      swap1\n      pop\n        /* \"--CODEGEN--\":18836:19081   */\n      swap2\n      swap1\n      pop\n      jump\n        /* \"--CODEGEN--\":19088:19495   */\n    tag_144:\n      0x00\n        /* \"--CODEGEN--\":19279:19281   */\n      0x20\n        /* \"--CODEGEN--\":19268:19277   */\n      dup3\n        /* \"--CODEGEN--\":19264:19282   */\n      add\n        /* \"--CODEGEN--\":19256:19282   */\n      swap1\n      pop\n        /* \"--CODEGEN--\":19329:19338   */\n      dup2\n        /* \"--CODEGEN--\":19323:19327   */\n      dup2\n        /* \"--CODEGEN--\":19319:19339   */\n      sub\n        /* \"--CODEGEN--\":19315:19316   */\n      0x00\n        /* \"--CODEGEN--\":19304:19313   */\n      dup4\n        /* \"--CODEGEN--\":19300:19317   */\n      add\n        /* \"--CODEGEN--\":19293:19340   */\n      mstore\n        /* \"--CODEGEN--\":19354:19485   */\n      tag_550\n        /* \"--CODEGEN--\":19480:19484   */\n      dup2\n        /* \"--CODEGEN--\":19354:19485   */\n      jump(tag_471)\n    tag_550:\n        /* \"--CODEGEN--\":19346:19485   */\n      swap1\n      pop\n        /* \"--CODEGEN--\":19250:19495   */\n      swap2\n      swap1\n      pop\n      jump\n        /* \"--CODEGEN--\":19502:19909   */\n    tag_169:\n      0x00\n        /* \"--CODEGEN--\":19693:19695   */\n      0x20\n        /* \"--CODEGEN--\":19682:19691   */\n      dup3\n        /* \"--CODEGEN--\":19678:19696   */\n      add\n        /* \"--CODEGEN--\":19670:19696   */\n      swap1\n      pop\n        /* \"--CODEGEN--\":19743:19752   */\n      dup2\n        /* \"--CODEGEN--\":19737:19741   */\n      dup2\n        /* \"--CODEGEN--\":19733:19753   */\n      sub\n        /* \"--CODEGEN--\":19729:19730   */\n      0x00\n        /* \"--CODEGEN--\":19718:19727   */\n      dup4\n        /* \"--CODEGEN--\":19714:19731   */\n      add\n        /* \"--CODEGEN--\":19707:19754   */\n      mstore\n        /* \"--CODEGEN--\":19768:19899   */\n      tag_552\n        /* \"--CODEGEN--\":19894:19898   */\n      dup2\n        /* \"--CODEGEN--\":19768:19899   */\n      jump(tag_474)\n    tag_552:\n        /* \"--CODEGEN--\":19760:19899   */\n      swap1\n      pop\n        /* \"--CODEGEN--\":19664:19909   */\n      swap2\n      swap1\n      pop\n      jump\n        /* \"--CODEGEN--\":19916:20269   */\n    tag_76:\n      0x00\n        /* \"--CODEGEN--\":20080:20082   */\n      0x20\n        /* \"--CODEGEN--\":20069:20078   */\n      dup3\n        /* \"--CODEGEN--\":20065:20083   */\n      add\n        /* \"--CODEGEN--\":20057:20083   */\n      swap1\n      pop\n        /* \"--CODEGEN--\":20130:20139   */\n      dup2\n        /* \"--CODEGEN--\":20124:20128   */\n      dup2\n        /* \"--CODEGEN--\":20120:20140   */\n      sub\n        /* \"--CODEGEN--\":20116:20117   */\n      0x00\n        /* \"--CODEGEN--\":20105:20114   */\n      dup4\n        /* \"--CODEGEN--\":20101:20118   */\n      add\n        /* \"--CODEGEN--\":20094:20141   */\n      mstore\n        /* \"--CODEGEN--\":20155:20259   */\n      tag_554\n        /* \"--CODEGEN--\":20254:20258   */\n      dup2\n        /* \"--CODEGEN--\":20245:20251   */\n      dup5\n        /* \"--CODEGEN--\":20155:20259   */\n      jump(tag_477)\n    tag_554:\n        /* \"--CODEGEN--\":20147:20259   */\n      swap1\n      pop\n        /* \"--CODEGEN--\":20051:20269   */\n      swap3\n      swap2\n      pop\n      pop\n      jump\n        /* \"--CODEGEN--\":20276:20633   */\n    tag_58:\n      0x00\n        /* \"--CODEGEN--\":20442:20444   */\n      0x20\n        /* \"--CODEGEN--\":20431:20440   */\n      dup3\n        /* \"--CODEGEN--\":20427:20445   */\n      add\n        /* \"--CODEGEN--\":20419:20445   */\n      swap1\n      pop\n        /* \"--CODEGEN--\":20492:20501   */\n      dup2\n        /* \"--CODEGEN--\":20486:20490   */\n      dup2\n        /* \"--CODEGEN--\":20482:20502   */\n      sub\n        /* \"--CODEGEN--\":20478:20479   */\n      0x00\n        /* \"--CODEGEN--\":20467:20476   */\n      dup4\n        /* \"--CODEGEN--\":20463:20480   */\n      add\n        /* \"--CODEGEN--\":20456:20503   */\n      mstore\n        /* \"--CODEGEN--\":20517:20623   */\n      tag_556\n        /* \"--CODEGEN--\":20618:20622   */\n      dup2\n        /* \"--CODEGEN--\":20609:20615   */\n      dup5\n        /* \"--CODEGEN--\":20517:20623   */\n      jump(tag_488)\n    tag_556:\n        /* \"--CODEGEN--\":20509:20623   */\n      swap1\n      pop\n        /* \"--CODEGEN--\":20413:20633   */\n      swap3\n      swap2\n      pop\n      pop\n      jump\n        /* \"--CODEGEN--\":20640:20853   */\n    tag_28:\n      0x00\n        /* \"--CODEGEN--\":20758:20760   */\n      0x20\n        /* \"--CODEGEN--\":20747:20756   */\n      dup3\n        /* \"--CODEGEN--\":20743:20761   */\n      add\n        /* \"--CODEGEN--\":20735:20761   */\n      swap1\n      pop\n        /* \"--CODEGEN--\":20772:20843   */\n      tag_558\n        /* \"--CODEGEN--\":20840:20841   */\n      0x00\n        /* \"--CODEGEN--\":20829:20838   */\n      dup4\n        /* \"--CODEGEN--\":20825:20842   */\n      add\n        /* \"--CODEGEN--\":20816:20822   */\n      dup5\n        /* \"--CODEGEN--\":20772:20843   */\n      jump(tag_509)\n    tag_558:\n        /* \"--CODEGEN--\":20729:20853   */\n      swap3\n      swap2\n      pop\n      pop\n      jump\n        /* \"--CODEGEN--\":20860:22255   */\n    tag_40:\n      0x00\n        /* \"--CODEGEN--\":21254:21257   */\n      0x0100\n        /* \"--CODEGEN--\":21243:21252   */\n      dup3\n        /* \"--CODEGEN--\":21239:21258   */\n      add\n        /* \"--CODEGEN--\":21231:21258   */\n      swap1\n      pop\n        /* \"--CODEGEN--\":21269:21340   */\n      tag_560\n        /* \"--CODEGEN--\":21337:21338   */\n      0x00\n        /* \"--CODEGEN--\":21326:21335   */\n      dup4\n        /* \"--CODEGEN--\":21322:21339   */\n      add\n        /* \"--CODEGEN--\":21313:21319   */\n      dup12\n        /* \"--CODEGEN--\":21269:21340   */\n      jump(tag_509)\n    tag_560:\n        /* \"--CODEGEN--\":21388:21397   */\n      dup2\n        /* \"--CODEGEN--\":21382:21386   */\n      dup2\n        /* \"--CODEGEN--\":21378:21398   */\n      sub\n        /* \"--CODEGEN--\":21373:21375   */\n      0x20\n        /* \"--CODEGEN--\":21362:21371   */\n      dup4\n        /* \"--CODEGEN--\":21358:21376   */\n      add\n        /* \"--CODEGEN--\":21351:21399   */\n      mstore\n        /* \"--CODEGEN--\":21413:21487   */\n      tag_561\n        /* \"--CODEGEN--\":21482:21486   */\n      dup2\n        /* \"--CODEGEN--\":21473:21479   */\n      dup11\n        /* \"--CODEGEN--\":21413:21487   */\n      jump(tag_455)\n    tag_561:\n        /* \"--CODEGEN--\":21405:21487   */\n      swap1\n      pop\n        /* \"--CODEGEN--\":21498:21570   */\n      tag_562\n        /* \"--CODEGEN--\":21566:21568   */\n      0x40\n        /* \"--CODEGEN--\":21555:21564   */\n      dup4\n        /* \"--CODEGEN--\":21551:21569   */\n      add\n        /* \"--CODEGEN--\":21542:21548   */\n      dup10\n        /* \"--CODEGEN--\":21498:21570   */\n      jump(tag_509)\n    tag_562:\n        /* \"--CODEGEN--\":21618:21627   */\n      dup2\n        /* \"--CODEGEN--\":21612:21616   */\n      dup2\n        /* \"--CODEGEN--\":21608:21628   */\n      sub\n        /* \"--CODEGEN--\":21603:21605   */\n      0x60\n        /* \"--CODEGEN--\":21592:21601   */\n      dup4\n        /* \"--CODEGEN--\":21588:21606   */\n      add\n        /* \"--CODEGEN--\":21581:21629   */\n      mstore\n        /* \"--CODEGEN--\":21643:21717   */\n      tag_563\n        /* \"--CODEGEN--\":21712:21716   */\n      dup2\n        /* \"--CODEGEN--\":21703:21709   */\n      dup9\n        /* \"--CODEGEN--\":21643:21717   */\n      jump(tag_455)\n    tag_563:\n        /* \"--CODEGEN--\":21635:21717   */\n      swap1\n      pop\n        /* \"--CODEGEN--\":21766:21775   */\n      dup2\n        /* \"--CODEGEN--\":21760:21764   */\n      dup2\n        /* \"--CODEGEN--\":21756:21776   */\n      sub\n        /* \"--CODEGEN--\":21750:21753   */\n      0x80\n        /* \"--CODEGEN--\":21739:21748   */\n      dup4\n        /* \"--CODEGEN--\":21735:21754   */\n      add\n        /* \"--CODEGEN--\":21728:21777   */\n      mstore\n        /* \"--CODEGEN--\":21791:21865   */\n      tag_564\n        /* \"--CODEGEN--\":21860:21864   */\n      dup2\n        /* \"--CODEGEN--\":21851:21857   */\n      dup8\n        /* \"--CODEGEN--\":21791:21865   */\n      jump(tag_455)\n    tag_564:\n        /* \"--CODEGEN--\":21783:21865   */\n      swap1\n      pop\n        /* \"--CODEGEN--\":21914:21923   */\n      dup2\n        /* \"--CODEGEN--\":21908:21912   */\n      dup2\n        /* \"--CODEGEN--\":21904:21924   */\n      sub\n        /* \"--CODEGEN--\":21898:21901   */\n      0xa0\n        /* \"--CODEGEN--\":21887:21896   */\n      dup4\n        /* \"--CODEGEN--\":21883:21902   */\n      add\n        /* \"--CODEGEN--\":21876:21925   */\n      mstore\n        /* \"--CODEGEN--\":21939:22013   */\n      tag_565\n        /* \"--CODEGEN--\":22008:22012   */\n      dup2\n        /* \"--CODEGEN--\":21999:22005   */\n      dup7\n        /* \"--CODEGEN--\":21939:22013   */\n      jump(tag_455)\n    tag_565:\n        /* \"--CODEGEN--\":21931:22013   */\n      swap1\n      pop\n        /* \"--CODEGEN--\":22062:22071   */\n      dup2\n        /* \"--CODEGEN--\":22056:22060   */\n      dup2\n        /* \"--CODEGEN--\":22052:22072   */\n      sub\n        /* \"--CODEGEN--\":22046:22049   */\n      0xc0\n        /* \"--CODEGEN--\":22035:22044   */\n      dup4\n        /* \"--CODEGEN--\":22031:22050   */\n      add\n        /* \"--CODEGEN--\":22024:22073   */\n      mstore\n        /* \"--CODEGEN--\":22087:22161   */\n      tag_566\n        /* \"--CODEGEN--\":22156:22160   */\n      dup2\n        /* \"--CODEGEN--\":22147:22153   */\n      dup6\n        /* \"--CODEGEN--\":22087:22161   */\n      jump(tag_455)\n    tag_566:\n        /* \"--CODEGEN--\":22079:22161   */\n      swap1\n      pop\n        /* \"--CODEGEN--\":22172:22245   */\n      tag_567\n        /* \"--CODEGEN--\":22240:22243   */\n      0xe0\n        /* \"--CODEGEN--\":22229:22238   */\n      dup4\n        /* \"--CODEGEN--\":22225:22244   */\n      add\n        /* \"--CODEGEN--\":22216:22222   */\n      dup5\n        /* \"--CODEGEN--\":22172:22245   */\n      jump(tag_509)\n    tag_567:\n        /* \"--CODEGEN--\":21225:22255   */\n      swap10\n      swap9\n      pop\n      pop\n      pop\n      pop\n      pop\n      pop\n      pop\n      pop\n      pop\n      jump\n        /* \"--CODEGEN--\":22262:22518   */\n    tag_383:\n      0x00\n        /* \"--CODEGEN--\":22324:22326   */\n      0x40\n        /* \"--CODEGEN--\":22318:22327   */\n      mload\n        /* \"--CODEGEN--\":22308:22327   */\n      swap1\n      pop\n        /* \"--CODEGEN--\":22362:22366   */\n      dup2\n        /* \"--CODEGEN--\":22354:22360   */\n      dup2\n        /* \"--CODEGEN--\":22350:22367   */\n      add\n        /* \"--CODEGEN--\":22461:22467   */\n      dup2\n        /* \"--CODEGEN--\":22449:22459   */\n      dup2\n        /* \"--CODEGEN--\":22446:22468   */\n      lt\n        /* \"--CODEGEN--\":22425:22443   */\n      0xffffffffffffffff\n        /* \"--CODEGEN--\":22413:22423   */\n      dup3\n        /* \"--CODEGEN--\":22410:22444   */\n      gt\n        /* \"--CODEGEN--\":22407:22469   */\n      or\n        /* \"--CODEGEN--\":22404:22406   */\n      iszero\n      tag_569\n      jumpi\n        /* \"--CODEGEN--\":22482:22483   */\n      0x00\n        /* \"--CODEGEN--\":22479:22480   */\n      dup1\n        /* \"--CODEGEN--\":22472:22484   */\n      revert\n        /* \"--CODEGEN--\":22404:22406   */\n    tag_569:\n        /* \"--CODEGEN--\":22502:22512   */\n      dup1\n        /* \"--CODEGEN--\":22498:22500   */\n      0x40\n        /* \"--CODEGEN--\":22491:22513   */\n      mstore\n        /* \"--CODEGEN--\":22302:22518   */\n      pop\n      swap2\n      swap1\n      pop\n      jump\n        /* \"--CODEGEN--\":22525:22847   */\n    tag_382:\n      0x00\n        /* \"--CODEGEN--\":22669:22687   */\n      0xffffffffffffffff\n        /* \"--CODEGEN--\":22661:22667   */\n      dup3\n        /* \"--CODEGEN--\":22658:22688   */\n      gt\n        /* \"--CODEGEN--\":22655:22657   */\n      iszero\n      tag_571\n      jumpi\n        /* \"--CODEGEN--\":22701:22702   */\n      0x00\n        /* \"--CODEGEN--\":22698:22699   */\n      dup1\n        /* \"--CODEGEN--\":22691:22703   */\n      revert\n        /* \"--CODEGEN--\":22655:22657   */\n    tag_571:\n        /* \"--CODEGEN--\":22768:22772   */\n      0x1f\n        /* \"--CODEGEN--\":22764:22773   */\n      not\n        /* \"--CODEGEN--\":22757:22761   */\n      0x1f\n        /* \"--CODEGEN--\":22749:22755   */\n      dup4\n        /* \"--CODEGEN--\":22745:22762   */\n      add\n        /* \"--CODEGEN--\":22741:22774   */\n      and\n        /* \"--CODEGEN--\":22733:22774   */\n      swap1\n      pop\n        /* \"--CODEGEN--\":22832:22836   */\n      0x20\n        /* \"--CODEGEN--\":22826:22830   */\n      dup2\n        /* \"--CODEGEN--\":22822:22837   */\n      add\n        /* \"--CODEGEN--\":22814:22837   */\n      swap1\n      pop\n        /* \"--CODEGEN--\":22592:22847   */\n      swap2\n      swap1\n      pop\n      jump\n        /* \"--CODEGEN--\":22854:22972   */\n    tag_448:\n      0x00\n        /* \"--CODEGEN--\":22944:22949   */\n      dup2\n        /* \"--CODEGEN--\":22938:22950   */\n      mload\n        /* \"--CODEGEN--\":22928:22950   */\n      swap1\n      pop\n        /* \"--CODEGEN--\":22909:22972   */\n      swap2\n      swap1\n      pop\n      jump\n        /* \"--CODEGEN--\":22980:23133   */\n    tag_450:\n      0x00\n        /* \"--CODEGEN--\":23085:23091   */\n      dup3\n        /* \"--CODEGEN--\":23080:23083   */\n      dup3\n        /* \"--CODEGEN--\":23073:23092   */\n      mstore\n        /* \"--CODEGEN--\":23122:23126   */\n      0x20\n        /* \"--CODEGEN--\":23117:23120   */\n      dup3\n        /* \"--CODEGEN--\":23113:23127   */\n      add\n        /* \"--CODEGEN--\":23098:23127   */\n      swap1\n      pop\n        /* \"--CODEGEN--\":23066:23133   */\n      swap3\n      swap2\n      pop\n      pop\n      jump\n        /* \"--CODEGEN--\":23142:23305   */\n    tag_459:\n      0x00\n        /* \"--CODEGEN--\":23257:23263   */\n      dup3\n        /* \"--CODEGEN--\":23252:23255   */\n      dup3\n        /* \"--CODEGEN--\":23245:23264   */\n      mstore\n        /* \"--CODEGEN--\":23294:23298   */\n      0x20\n        /* \"--CODEGEN--\":23289:23292   */\n      dup3\n        /* \"--CODEGEN--\":23285:23299   */\n      add\n        /* \"--CODEGEN--\":23270:23299   */\n      swap1\n      pop\n        /* \"--CODEGEN--\":23238:23305   */\n      swap3\n      swap2\n      pop\n      pop\n      jump\n        /* \"--CODEGEN--\":23313:23404   */\n    tag_436:\n      0x00\n        /* \"--CODEGEN--\":23375:23399   */\n      tag_576\n        /* \"--CODEGEN--\":23393:23398   */\n      dup3\n        /* \"--CODEGEN--\":23375:23399   */\n      jump(tag_577)\n    tag_576:\n        /* \"--CODEGEN--\":23364:23399   */\n      swap1\n      pop\n        /* \"--CODEGEN--\":23358:23404   */\n      swap2\n      swap1\n      pop\n      jump\n        /* \"--CODEGEN--\":23411:23496   */\n    tag_578:\n      0x00\n        /* \"--CODEGEN--\":23484:23489   */\n      dup2\n        /* \"--CODEGEN--\":23477:23490   */\n      iszero\n        /* \"--CODEGEN--\":23470:23491   */\n      iszero\n        /* \"--CODEGEN--\":23459:23491   */\n      swap1\n      pop\n        /* \"--CODEGEN--\":23453:23496   */\n      swap2\n      swap1\n      pop\n      jump\n        /* \"--CODEGEN--\":23503:23624   */\n    tag_577:\n      0x00\n        /* \"--CODEGEN--\":23576:23618   */\n      0xffffffffffffffffffffffffffffffffffffffff\n        /* \"--CODEGEN--\":23569:23574   */\n      dup3\n        /* \"--CODEGEN--\":23565:23619   */\n      and\n        /* \"--CODEGEN--\":23554:23619   */\n      swap1\n      pop\n        /* \"--CODEGEN--\":23548:23624   */\n      swap2\n      swap1\n      pop\n      jump\n        /* \"--CODEGEN--\":23631:23703   */\n    tag_508:\n      0x00\n        /* \"--CODEGEN--\":23693:23698   */\n      dup2\n        /* \"--CODEGEN--\":23682:23698   */\n      swap1\n      pop\n        /* \"--CODEGEN--\":23676:23703   */\n      swap2\n      swap1\n      pop\n      jump\n        /* \"--CODEGEN--\":23710:23839   */\n    tag_432:\n      0x00\n        /* \"--CODEGEN--\":23797:23834   */\n      tag_583\n        /* \"--CODEGEN--\":23828:23833   */\n      dup3\n        /* \"--CODEGEN--\":23797:23834   */\n      jump(tag_584)\n    tag_583:\n        /* \"--CODEGEN--\":23784:23834   */\n      swap1\n      pop\n        /* \"--CODEGEN--\":23778:23839   */\n      swap2\n      swap1\n      pop\n      jump\n        /* \"--CODEGEN--\":23846:23963   */\n    tag_440:\n      0x00\n        /* \"--CODEGEN--\":23934:23958   */\n      tag_586\n        /* \"--CODEGEN--\":23952:23957   */\n      dup3\n        /* \"--CODEGEN--\":23934:23958   */\n      jump(tag_508)\n    tag_586:\n        /* \"--CODEGEN--\":23921:23958   */\n      swap1\n      pop\n        /* \"--CODEGEN--\":23915:23963   */\n      swap2\n      swap1\n      pop\n      jump\n        /* \"--CODEGEN--\":23970:24087   */\n    tag_444:\n      0x00\n        /* \"--CODEGEN--\":24058:24082   */\n      tag_588\n        /* \"--CODEGEN--\":24076:24081   */\n      dup3\n        /* \"--CODEGEN--\":24058:24082   */\n      jump(tag_508)\n    tag_588:\n        /* \"--CODEGEN--\":24045:24082   */\n      swap1\n      pop\n        /* \"--CODEGEN--\":24039:24087   */\n      swap2\n      swap1\n      pop\n      jump\n        /* \"--CODEGEN--\":24094:24215   */\n    tag_584:\n      0x00\n        /* \"--CODEGEN--\":24173:24210   */\n      tag_590\n        /* \"--CODEGEN--\":24204:24209   */\n      dup3\n        /* \"--CODEGEN--\":24173:24210   */\n      jump(tag_591)\n    tag_590:\n        /* \"--CODEGEN--\":24160:24210   */\n      swap1\n      pop\n        /* \"--CODEGEN--\":24154:24215   */\n      swap2\n      swap1\n      pop\n      jump\n        /* \"--CODEGEN--\":24222:24330   */\n    tag_591:\n      0x00\n        /* \"--CODEGEN--\":24301:24325   */\n      tag_593\n        /* \"--CODEGEN--\":24319:24324   */\n      dup3\n        /* \"--CODEGEN--\":24301:24325   */\n      jump(tag_577)\n    tag_593:\n        /* \"--CODEGEN--\":24288:24325   */\n      swap1\n      pop\n        /* \"--CODEGEN--\":24282:24330   */\n      swap2\n      swap1\n      pop\n      jump\n        /* \"--CODEGEN--\":24338:24483   */\n    tag_386:\n        /* \"--CODEGEN--\":24419:24425   */\n      dup3\n        /* \"--CODEGEN--\":24414:24417   */\n      dup2\n        /* \"--CODEGEN--\":24409:24412   */\n      dup4\n        /* \"--CODEGEN--\":24396:24426   */\n      calldatacopy\n        /* \"--CODEGEN--\":24475:24476   */\n      0x00\n        /* \"--CODEGEN--\":24466:24472   */\n      dup4\n        /* \"--CODEGEN--\":24461:24464   */\n      dup4\n        /* \"--CODEGEN--\":24457:24473   */\n      add\n        /* \"--CODEGEN--\":24450:24477   */\n      mstore\n        /* \"--CODEGEN--\":24389:24483   */\n      pop\n      pop\n      pop\n      jump\n        /* \"--CODEGEN--\":24492:24760   */\n    tag_452:\n        /* \"--CODEGEN--\":24557:24558   */\n      0x00\n        /* \"--CODEGEN--\":24564:24665   */\n    tag_596:\n        /* \"--CODEGEN--\":24578:24584   */\n      dup4\n        /* \"--CODEGEN--\":24575:24576   */\n      dup2\n        /* \"--CODEGEN--\":24572:24585   */\n      lt\n        /* \"--CODEGEN--\":24564:24665   */\n      iszero\n      tag_598\n      jumpi\n        /* \"--CODEGEN--\":24654:24655   */\n      dup1\n        /* \"--CODEGEN--\":24649:24652   */\n      dup3\n        /* \"--CODEGEN--\":24645:24656   */\n      add\n        /* \"--CODEGEN--\":24639:24657   */\n      mload\n        /* \"--CODEGEN--\":24635:24636   */\n      dup2\n        /* \"--CODEGEN--\":24630:24633   */\n      dup5\n        /* \"--CODEGEN--\":24626:24637   */\n      add\n        /* \"--CODEGEN--\":24619:24658   */\n      mstore\n        /* \"--CODEGEN--\":24600:24602   */\n      0x20\n        /* \"--CODEGEN--\":24597:24598   */\n      dup2\n        /* \"--CODEGEN--\":24593:24603   */\n      add\n        /* \"--CODEGEN--\":24588:24603   */\n      swap1\n      pop\n        /* \"--CODEGEN--\":24564:24665   */\n      jump(tag_596)\n    tag_598:\n        /* \"--CODEGEN--\":24680:24686   */\n      dup4\n        /* \"--CODEGEN--\":24677:24678   */\n      dup2\n        /* \"--CODEGEN--\":24674:24687   */\n      gt\n        /* \"--CODEGEN--\":24671:24673   */\n      iszero\n      tag_599\n      jumpi\n        /* \"--CODEGEN--\":24745:24746   */\n      0x00\n        /* \"--CODEGEN--\":24736:24742   */\n      dup5\n        /* \"--CODEGEN--\":24731:24734   */\n      dup5\n        /* \"--CODEGEN--\":24727:24743   */\n      add\n        /* \"--CODEGEN--\":24720:24747   */\n      mstore\n        /* \"--CODEGEN--\":24671:24673   */\n    tag_599:\n        /* \"--CODEGEN--\":24541:24760   */\n      pop\n      pop\n      pop\n      pop\n      jump\n        /* \"--CODEGEN--\":24768:24865   */\n    tag_454:\n      0x00\n        /* \"--CODEGEN--\":24856:24858   */\n      0x1f\n        /* \"--CODEGEN--\":24852:24859   */\n      not\n        /* \"--CODEGEN--\":24847:24849   */\n      0x1f\n        /* \"--CODEGEN--\":24840:24845   */\n      dup4\n        /* \"--CODEGEN--\":24836:24850   */\n      add\n        /* \"--CODEGEN--\":24832:24860   */\n      and\n        /* \"--CODEGEN--\":24822:24860   */\n      swap1\n      pop\n        /* \"--CODEGEN--\":24816:24865   */\n      swap2\n      swap1\n      pop\n      jump\n        /* \"--CODEGEN--\":24873:24990   */\n    tag_372:\n        /* \"--CODEGEN--\":24942:24966   */\n      tag_602\n        /* \"--CODEGEN--\":24960:24965   */\n      dup2\n        /* \"--CODEGEN--\":24942:24966   */\n      jump(tag_436)\n    tag_602:\n        /* \"--CODEGEN--\":24935:24940   */\n      dup2\n        /* \"--CODEGEN--\":24932:24967   */\n      eq\n        /* \"--CODEGEN--\":24922:24924   */\n      tag_603\n      jumpi\n        /* \"--CODEGEN--\":24981:24982   */\n      0x00\n        /* \"--CODEGEN--\":24978:24979   */\n      dup1\n        /* \"--CODEGEN--\":24971:24983   */\n      revert\n        /* \"--CODEGEN--\":24922:24924   */\n    tag_603:\n        /* \"--CODEGEN--\":24916:24990   */\n      pop\n      jump\n        /* \"--CODEGEN--\":24997:25108   */\n    tag_376:\n        /* \"--CODEGEN--\":25063:25084   */\n      tag_605\n        /* \"--CODEGEN--\":25078:25083   */\n      dup2\n        /* \"--CODEGEN--\":25063:25084   */\n      jump(tag_578)\n    tag_605:\n        /* \"--CODEGEN--\":25056:25061   */\n      dup2\n        /* \"--CODEGEN--\":25053:25085   */\n      eq\n        /* \"--CODEGEN--\":25043:25045   */\n      tag_606\n      jumpi\n        /* \"--CODEGEN--\":25099:25100   */\n      0x00\n        /* \"--CODEGEN--\":25096:25097   */\n      dup1\n        /* \"--CODEGEN--\":25089:25101   */\n      revert\n        /* \"--CODEGEN--\":25043:25045   */\n    tag_606:\n        /* \"--CODEGEN--\":25037:25108   */\n      pop\n      jump\n        /* \"--CODEGEN--\":25115:25232   */\n    tag_390:\n        /* \"--CODEGEN--\":25184:25208   */\n      tag_608\n        /* \"--CODEGEN--\":25202:25207   */\n      dup2\n        /* \"--CODEGEN--\":25184:25208   */\n      jump(tag_508)\n    tag_608:\n        /* \"--CODEGEN--\":25177:25182   */\n      dup2\n        /* \"--CODEGEN--\":25174:25209   */\n      eq\n        /* \"--CODEGEN--\":25164:25166   */\n      tag_609\n      jumpi\n        /* \"--CODEGEN--\":25223:25224   */\n      0x00\n        /* \"--CODEGEN--\":25220:25221   */\n      dup1\n        /* \"--CODEGEN--\":25213:25225   */\n      revert\n        /* \"--CODEGEN--\":25164:25166   */\n    tag_609:\n        /* \"--CODEGEN--\":25158:25232   */\n      pop\n      jump\n\n    auxdata: 0xa264697066735822122086a8323f3ddd842df64fa3a898004101efdd156397a1767afeb9459bb961a06b64736f6c63430006010033\n}\n",
				"bytecode": {
					"linkReferences": {},
					"object": "60806040523480156200001157600080fd5b50604051620042fd380380620042fd8339818101604052620000379190810190620000f6565b80600160006101000a81548173ffffffffffffffffffffffffffffffffffffffff021916908373ffffffffffffffffffffffffffffffffffffffff160217905550336000806101000a81548173ffffffffffffffffffffffffffffffffffffffff021916908373ffffffffffffffffffffffffffffffffffffffff160217905550600060088190555060006009819055506000600a819055506000600b819055505062000170565b600081519050620000f08162000156565b92915050565b6000602082840312156200010957600080fd5b60006200011984828501620000df565b91505092915050565b60006200012f8262000136565b9050919050565b600073ffffffffffffffffffffffffffffffffffffffff82169050919050565b620001618162000122565b81146200016d57600080fd5b50565b61417d80620001806000396000f3fe608060405234801561001057600080fd5b50600436106100f55760003560e01c80636573f803116100975780637eae205d116100665780637eae205d146102935780638d129178146102c8578063c685e978146102f8578063e23cc50d14610314576100f5565b80636573f803146101f95780636b6df2be146102155780636f2962b71461024557806378a3126214610263576100f5565b806337683976116100d357806337683976146101505780634accf9a71461016e57806356faba43146101a55780635e00c8a2146101dd576100f5565b806305d728f5146100fa578063161a9fb51461011657806327edee9e14610134575b600080fd5b610114600480360361010f9190810190613603565b610332565b005b61011e610df4565b60405161012b9190613ecb565b60405180910390f35b61014e60048036036101499190810190613655565b610dfa565b005b610158611191565b6040516101659190613ecb565b60405180910390f35b61018860048036036101839190810190613603565b611197565b60405161019c989796959493929190613ee6565b60405180910390f35b6101bf60048036036101ba9190810190613603565b6114d7565b6040516101d499989796959493929190613d22565b60405180910390f35b6101f760048036036101f29190810190613556565b6119e5565b005b610213600480360361020e9190810190613597565b611a04565b005b61022f600480360361022a9190810190613603565b611ab5565b60405161023c9190613ea9565b60405180910390f35b61024d6123d3565b60405161025a9190613ecb565b60405180910390f35b61027d60048036036102789190810190613504565b6123d9565b60405161028a9190613ecb565b60405180910390f35b6102ad60048036036102a89190810190613603565b6123f1565b6040516102bf96959493929190613c9e565b60405180910390f35b6102e260048036036102dd9190810190613603565b612725565b6040516102ef9190613e87565b60405180910390f35b610312600480360361030d9190810190613556565b612c9d565b005b61031c612cbc565b6040516103299190613ecb565b60405180910390f35b6000600360003373ffffffffffffffffffffffffffffffffffffffff1673ffffffffffffffffffffffffffffffffffffffff16815260200190815260200160002054905060008114156103ba576040517f08c379a00000000000000000000000000000000000000000000000000000000081526004016103b190613de7565b60405180910390fd5b6103c26131f3565b6004600084815260200190815260200160002060405180610200016040529081600082018054600181600116156101000203166002900480601f01602080910402602001604051908101604052809291908181526020018280546001816001161561010002031660029004801561047a5780601f1061044f5761010080835404028352916020019161047a565b820191906000526020600020905b81548152906001019060200180831161045d57829003601f168201915b50505050508152602001600182018054600181600116156101000203166002900480601f01602080910402602001604051908101604052809291908181526020018280546001816001161561010002031660029004801561051c5780601f106104f15761010080835404028352916020019161051c565b820191906000526020600020905b8154815290600101906020018083116104ff57829003601f168201915b50505050508152602001600282018054600181600116156101000203166002900480601f0160208091040260200160405190810160405280929190818152602001828054600181600116156101000203166002900480156105be5780601f10610593576101008083540402835291602001916105be565b820191906000526020600020905b8154815290600101906020018083116105a157829003601f168201915b50505050508152602001600382018054600181600116156101000203166002900480601f0160208091040260200160405190810160405280929190818152602001828054600181600116156101000203166002900480156106605780601f1061063557610100808354040283529160200191610660565b820191906000526020600020905b81548152906001019060200180831161064357829003601f168201915b50505050508152602001600482018054600181600116156101000203166002900480601f0160208091040260200160405190810160405280929190818152602001828054600181600116156101000203166002900480156107025780601f106106d757610100808354040283529160200191610702565b820191906000526020600020905b8154815290600101906020018083116106e557829003601f168201915b50505050508152602001600582018054600181600116156101000203166002900480601f0160208091040260200160405190810160405280929190818152602001828054600181600116156101000203166002900480156107a45780601f10610779576101008083540402835291602001916107a4565b820191906000526020600020905b81548152906001019060200180831161078757829003601f168201915b50505050508152602001600682018054600181600116156101000203166002900480601f0160208091040260200160405190810160405280929190818152602001828054600181600116156101000203166002900480156108465780601f1061081b57610100808354040283529160200191610846565b820191906000526020600020905b81548152906001019060200180831161082957829003601f168201915b50505050508152602001600782018054600181600116156101000203166002900480601f0160208091040260200160405190810160405280929190818152602001828054600181600116156101000203166002900480156108e85780601f106108bd576101008083540402835291602001916108e8565b820191906000526020600020905b8154815290600101906020018083116108cb57829003601f168201915b50505050508152602001600882018054600181600116156101000203166002900480601f01602080910402602001604051908101604052809291908181526020018280546001816001161561010002031660029004801561098a5780601f1061095f5761010080835404028352916020019161098a565b820191906000526020600020905b81548152906001019060200180831161096d57829003601f168201915b50505050508152602001600982018054600181600116156101000203166002900480601f016020809104026020016040519081016040528092919081815260200182805460018160011615610100020316600290048015610a2c5780601f10610a0157610100808354040283529160200191610a2c565b820191906000526020600020905b815481529060010190602001808311610a0f57829003601f168201915b50505050508152602001600a82018054600181600116156101000203166002900480601f016020809104026020016040519081016040528092919081815260200182805460018160011615610100020316600290048015610ace5780601f10610aa357610100808354040283529160200191610ace565b820191906000526020600020905b815481529060010190602001808311610ab157829003601f168201915b50505050508152602001600b82018054600181600116156101000203166002900480601f016020809104026020016040519081016040528092919081815260200182805460018160011615610100020316600290048015610b705780601f10610b4557610100808354040283529160200191610b70565b820191906000526020600020905b815481529060010190602001808311610b5357829003601f168201915b50505050508152602001600c82018054600181600116156101000203166002900480601f016020809104026020016040519081016040528092919081815260200182805460018160011615610100020316600290048015610c125780601f10610be757610100808354040283529160200191610c12565b820191906000526020600020905b815481529060010190602001808311610bf557829003601f168201915b50505050508152602001600d8201548152602001600e8201548152602001600f82018054600181600116156101000203166002900480601f016020809104026020016040519081016040528092919081815260200182805460018160011615610100020316600290048015610cc85780601f10610c9d57610100808354040283529160200191610cc8565b820191906000526020600020905b815481529060010190602001808311610cab57829003601f168201915b505050505081525050905060008160000151511415610d1c576040517f08c379a0000000000000000000000000000000000000000000000000000000008152600401610d1390613e27565b60405180910390fd5b610d24613270565b83816000018181525050600260008481526020019081526020016000206000018054600181600116156101000203166002900480601f016020809104026020016040519081016040528092919081815260200182805460018160011615610100020316600290048015610dd85780601f10610dad57610100808354040283529160200191610dd8565b820191906000526020600020905b815481529060010190602001808311610dbb57829003601f168201915b50505050508160200181905250610dee81612cc2565b50505050565b60095481565b6000600660003373ffffffffffffffffffffffffffffffffffffffff1673ffffffffffffffffffffffffffffffffffffffff1681526020019081526020016000205490506000811415610e82576040517f08c379a0000000000000000000000000000000000000000000000000000000008152600401610e7990613e47565b60405180910390fd5b86600460008a8152602001908152602001600020600a019080519060200190610eac9291906132b5565b5085600460008a8152602001908152602001600020600b019080519060200190610ed79291906132b5565b5084600460008a8152602001908152602001600020600c019080519060200190610f029291906132b5565b5083600460008a8152602001908152602001600020600d018190555082600460008a8152602001908152602001600020600e018190555081600460008a8152602001908152602001600020600f019080519060200190610f639291906132b5565b50600f600160009054906101000a900473ffffffffffffffffffffffffffffffffffffffff1673ffffffffffffffffffffffffffffffffffffffff1663dd62ed3e6000809054906101000a900473ffffffffffffffffffffffffffffffffffffffff16306040518363ffffffff1660e01b8152600401610fe4929190613c3e565b60206040518083038186803b158015610ffc57600080fd5b505afa158015611010573d6000803e3d6000fd5b505050506040513d601f19601f82011682018060405250611034919081019061362c565b1015611075576040517f08c379a000000000000000000000000000000000000000000000000000000000815260040161106c90613e07565b60405180910390fd5b600160009054906101000a900473ffffffffffffffffffffffffffffffffffffffff1673ffffffffffffffffffffffffffffffffffffffff166323b872dd6000809054906101000a900473ffffffffffffffffffffffffffffffffffffffff1633600f6040518463ffffffff1660e01b81526004016110f693929190613c67565b602060405180830381600087803b15801561111057600080fd5b505af1158015611124573d6000803e3d6000fd5b505050506040513d601f19601f82011682018060405250611148919081019061352d565b611187576040517f08c379a000000000000000000000000000000000000000000000000000000000815260040161117e90613e67565b60405180910390fd5b5050505050505050565b60085481565b6007602052806000526040600020600091509050806000015490806001018054600181600116156101000203166002900480601f0160208091040260200160405190810160405280929190818152602001828054600181600116156101000203166002900480156112495780601f1061121e57610100808354040283529160200191611249565b820191906000526020600020905b81548152906001019060200180831161122c57829003601f168201915b505050505090806002015490806003018054600181600116156101000203166002900480601f0160208091040260200160405190810160405280929190818152602001828054600181600116156101000203166002900480156112ed5780601f106112c2576101008083540402835291602001916112ed565b820191906000526020600020905b8154815290600101906020018083116112d057829003601f168201915b505050505090806004018054600181600116156101000203166002900480601f01602080910402602001604051908101604052809291908181526020018280546001816001161561010002031660029004801561138b5780601f106113605761010080835404028352916020019161138b565b820191906000526020600020905b81548152906001019060200180831161136e57829003601f168201915b505050505090806005018054600181600116156101000203166002900480601f0160208091040260200160405190810160405280929190818152602001828054600181600116156101000203166002900480156114295780601f106113fe57610100808354040283529160200191611429565b820191906000526020600020905b81548152906001019060200180831161140c57829003601f168201915b505050505090806006018054600181600116156101000203166002900480601f0160208091040260200160405190810160405280929190818152602001828054600181600116156101000203166002900480156114c75780601f1061149c576101008083540402835291602001916114c7565b820191906000526020600020905b8154815290600101906020018083116114aa57829003601f168201915b5050505050908060070154905088565b6005602052806000526040600020600091509050806000018054600181600116156101000203166002900480601f0160208091040260200160405190810160405280929190818152602001828054600181600116156101000203166002900480156115835780601f1061155857610100808354040283529160200191611583565b820191906000526020600020905b81548152906001019060200180831161156657829003601f168201915b505050505090806001018054600181600116156101000203166002900480601f0160208091040260200160405190810160405280929190818152602001828054600181600116156101000203166002900480156116215780601f106115f657610100808354040283529160200191611621565b820191906000526020600020905b81548152906001019060200180831161160457829003601f168201915b505050505090806002015490806003018054600181600116156101000203166002900480601f0160208091040260200160405190810160405280929190818152602001828054600181600116156101000203166002900480156116c55780601f1061169a576101008083540402835291602001916116c5565b820191906000526020600020905b8154815290600101906020018083116116a857829003601f168201915b505050505090806004018054600181600116156101000203166002900480601f0160208091040260200160405190810160405280929190818152602001828054600181600116156101000203166002900480156117635780601f1061173857610100808354040283529160200191611763565b820191906000526020600020905b81548152906001019060200180831161174657829003601f168201915b505050505090806005018054600181600116156101000203166002900480601f0160208091040260200160405190810160405280929190818152602001828054600181600116156101000203166002900480156118015780601f106117d657610100808354040283529160200191611801565b820191906000526020600020905b8154815290600101906020018083116117e457829003601f168201915b505050505090806006018054600181600116156101000203166002900480601f01602080910402602001604051908101604052809291908181526020018280546001816001161561010002031660029004801561189f5780601f106118745761010080835404028352916020019161189f565b820191906000526020600020905b81548152906001019060200180831161188257829003601f168201915b505050505090806007018054600181600116156101000203166002900480601f01602080910402602001604051908101604052809291908181526020018280546001816001161561010002031660029004801561193d5780601f106119125761010080835404028352916020019161193d565b820191906000526020600020905b81548152906001019060200180831161192057829003601f168201915b505050505090806008018054600181600116156101000203166002900480601f0160208091040260200160405190810160405280929190818152602001828054600181600116156101000203166002900480156119db5780601f106119b0576101008083540402835291602001916119db565b820191906000526020600020905b8154815290600101906020018083116119be57829003601f168201915b5050505050905089565b6119ed613335565b818160000181905250611a008133612d9e565b5050565b6000600360003373ffffffffffffffffffffffffffffffffffffffff1673ffffffffffffffffffffffffffffffffffffffff1681526020019081526020016000205490506000811415611a8c576040517f08c379a0000000000000000000000000000000000000000000000000000000008152600401611a8390613de7565b60405180910390fd5b611a946131f3565b838160000181905250828160200181905250611aaf81612ead565b50505050565b611abd6131f3565b6004600083815260200190815260200160002060405180610200016040529081600082018054600181600116156101000203166002900480601f016020809104026020016040519081016040528092919081815260200182805460018160011615610100020316600290048015611b755780601f10611b4a57610100808354040283529160200191611b75565b820191906000526020600020905b815481529060010190602001808311611b5857829003601f168201915b50505050508152602001600182018054600181600116156101000203166002900480601f016020809104026020016040519081016040528092919081815260200182805460018160011615610100020316600290048015611c175780601f10611bec57610100808354040283529160200191611c17565b820191906000526020600020905b815481529060010190602001808311611bfa57829003601f168201915b50505050508152602001600282018054600181600116156101000203166002900480601f016020809104026020016040519081016040528092919081815260200182805460018160011615610100020316600290048015611cb95780601f10611c8e57610100808354040283529160200191611cb9565b820191906000526020600020905b815481529060010190602001808311611c9c57829003601f168201915b50505050508152602001600382018054600181600116156101000203166002900480601f016020809104026020016040519081016040528092919081815260200182805460018160011615610100020316600290048015611d5b5780601f10611d3057610100808354040283529160200191611d5b565b820191906000526020600020905b815481529060010190602001808311611d3e57829003601f168201915b50505050508152602001600482018054600181600116156101000203166002900480601f016020809104026020016040519081016040528092919081815260200182805460018160011615610100020316600290048015611dfd5780601f10611dd257610100808354040283529160200191611dfd565b820191906000526020600020905b815481529060010190602001808311611de057829003601f168201915b50505050508152602001600582018054600181600116156101000203166002900480601f016020809104026020016040519081016040528092919081815260200182805460018160011615610100020316600290048015611e9f5780601f10611e7457610100808354040283529160200191611e9f565b820191906000526020600020905b815481529060010190602001808311611e8257829003601f168201915b50505050508152602001600682018054600181600116156101000203166002900480601f016020809104026020016040519081016040528092919081815260200182805460018160011615610100020316600290048015611f415780601f10611f1657610100808354040283529160200191611f41565b820191906000526020600020905b815481529060010190602001808311611f2457829003601f168201915b50505050508152602001600782018054600181600116156101000203166002900480601f016020809104026020016040519081016040528092919081815260200182805460018160011615610100020316600290048015611fe35780601f10611fb857610100808354040283529160200191611fe3565b820191906000526020600020905b815481529060010190602001808311611fc657829003601f168201915b50505050508152602001600882018054600181600116156101000203166002900480601f0160208091040260200160405190810160405280929190818152602001828054600181600116156101000203166002900480156120855780601f1061205a57610100808354040283529160200191612085565b820191906000526020600020905b81548152906001019060200180831161206857829003601f168201915b50505050508152602001600982018054600181600116156101000203166002900480601f0160208091040260200160405190810160405280929190818152602001828054600181600116156101000203166002900480156121275780601f106120fc57610100808354040283529160200191612127565b820191906000526020600020905b81548152906001019060200180831161210a57829003601f168201915b50505050508152602001600a82018054600181600116156101000203166002900480601f0160208091040260200160405190810160405280929190818152602001828054600181600116156101000203166002900480156121c95780601f1061219e576101008083540402835291602001916121c9565b820191906000526020600020905b8154815290600101906020018083116121ac57829003601f168201915b50505050508152602001600b82018054600181600116156101000203166002900480601f01602080910402602001604051908101604052809291908181526020018280546001816001161561010002031660029004801561226b5780601f106122405761010080835404028352916020019161226b565b820191906000526020600020905b81548152906001019060200180831161224e57829003601f168201915b50505050508152602001600c82018054600181600116156101000203166002900480601f01602080910402602001604051908101604052809291908181526020018280546001816001161561010002031660029004801561230d5780601f106122e25761010080835404028352916020019161230d565b820191906000526020600020905b8154815290600101906020018083116122f057829003601f168201915b50505050508152602001600d8201548152602001600e8201548152602001600f82018054600181600116156101000203166002900480601f0160208091040260200160405190810160405280929190818152602001828054600181600116156101000203166002900480156123c35780601f10612398576101008083540402835291602001916123c3565b820191906000526020600020905b8154815290600101906020018083116123a657829003601f168201915b5050505050815250509050919050565b600b5481565b60066020528060005260406000206000915090505481565b6002602052806000526040600020600091509050806000018054600181600116156101000203166002900480601f01602080910402602001604051908101604052809291908181526020018280546001816001161561010002031660029004801561249d5780601f106124725761010080835404028352916020019161249d565b820191906000526020600020905b81548152906001019060200180831161248057829003601f168201915b505050505090806001018054600181600116156101000203166002900480601f01602080910402602001604051908101604052809291908181526020018280546001816001161561010002031660029004801561253b5780601f106125105761010080835404028352916020019161253b565b820191906000526020600020905b81548152906001019060200180831161251e57829003601f168201915b505050505090806002018054600181600116156101000203166002900480601f0160208091040260200160405190810160405280929190818152602001828054600181600116156101000203166002900480156125d95780601f106125ae576101008083540402835291602001916125d9565b820191906000526020600020905b8154815290600101906020018083116125bc57829003601f168201915b505050505090806003018054600181600116156101000203166002900480601f0160208091040260200160405190810160405280929190818152602001828054600181600116156101000203166002900480156126775780601f1061264c57610100808354040283529160200191612677565b820191906000526020600020905b81548152906001019060200180831161265a57829003601f168201915b505050505090806004018054600181600116156101000203166002900480601f0160208091040260200160405190810160405280929190818152602001828054600181600116156101000203166002900480156127155780601f106126ea57610100808354040283529160200191612715565b820191906000526020600020905b8154815290600101906020018083116126f857829003601f168201915b5050505050908060050154905086565b61272d613270565b600a600160009054906101000a900473ffffffffffffffffffffffffffffffffffffffff1673ffffffffffffffffffffffffffffffffffffffff1663dd62ed3e33306040518363ffffffff1660e01b815260040161278c929190613bde565b60206040518083038186803b1580156127a457600080fd5b505afa1580156127b8573d6000803e3d6000fd5b505050506040513d601f19601f820116820180604052506127dc919081019061362c565b101561281d576040517f08c379a000000000000000000000000000000000000000000000000000000000815260040161281490613e07565b60405180910390fd5b600160009054906101000a900473ffffffffffffffffffffffffffffffffffffffff1673ffffffffffffffffffffffffffffffffffffffff166323b872dd336000809054906101000a900473ffffffffffffffffffffffffffffffffffffffff16600a6040518463ffffffff1660e01b815260040161289e93929190613c07565b602060405180830381600087803b1580156128b857600080fd5b505af11580156128cc573d6000803e3d6000fd5b505050506040513d601f19601f820116820180604052506128f0919081019061352d565b61292f576040517f08c379a000000000000000000000000000000000000000000000000000000000815260040161292690613e67565b60405180910390fd5b600760008381526020019081526020016000206040518061010001604052908160008201548152602001600182018054600181600116156101000203166002900480601f0160208091040260200160405190810160405280929190818152602001828054600181600116156101000203166002900480156129f15780601f106129c6576101008083540402835291602001916129f1565b820191906000526020600020905b8154815290600101906020018083116129d457829003601f168201915b5050505050815260200160028201548152602001600382018054600181600116156101000203166002900480601f016020809104026020016040519081016040528092919081815260200182805460018160011615610100020316600290048015612a9d5780601f10612a7257610100808354040283529160200191612a9d565b820191906000526020600020905b815481529060010190602001808311612a8057829003601f168201915b50505050508152602001600482018054600181600116156101000203166002900480601f016020809104026020016040519081016040528092919081815260200182805460018160011615610100020316600290048015612b3f5780601f10612b1457610100808354040283529160200191612b3f565b820191906000526020600020905b815481529060010190602001808311612b2257829003601f168201915b50505050508152602001600582018054600181600116156101000203166002900480601f016020809104026020016040519081016040528092919081815260200182805460018160011615610100020316600290048015612be15780601f10612bb657610100808354040283529160200191612be1565b820191906000526020600020905b815481529060010190602001808311612bc457829003601f168201915b50505050508152602001600682018054600181600116156101000203166002900480601f016020809104026020016040519081016040528092919081815260200182805460018160011615610100020316600290048015612c835780601f10612c5857610100808354040283529160200191612c83565b820191906000526020600020905b815481529060010190602001808311612c6657829003601f168201915b505050505081526020016007820154815250509050919050565b612ca561336b565b818160000181905250612cb8813361308c565b5050565b600a5481565b6001600b600082825401925050819055508060076000600b548152602001908152602001600020600082015181600001556020820151816001019080519060200190612d0f9291906133b7565b50604082015181600201556060820151816003019080519060200190612d369291906133b7565b506080820151816004019080519060200190612d539291906133b7565b5060a0820151816005019080519060200190612d709291906133b7565b5060c0820151816006019080519060200190612d8d9291906133b7565b5060e0820151816007015590505050565b6001600860008282540192505081905550816002600060085481526020019081526020016000206000820151816000019080519060200190612de19291906133b7565b506020820151816001019080519060200190612dfe9291906133b7565b506040820151816002019080519060200190612e1b9291906133b7565b506060820151816003019080519060200190612e389291906133b7565b506080820151816004019080519060200190612e559291906133b7565b5060a08201518160050155905050600854600360008373ffffffffffffffffffffffffffffffffffffffff1673ffffffffffffffffffffffffffffffffffffffff168152602001908152602001600020819055505050565b6001600960008282540192505081905550806004600060095481526020019081526020016000206000820151816000019080519060200190612ef09291906133b7565b506020820151816001019080519060200190612f0d9291906133b7565b506040820151816002019080519060200190612f2a9291906133b7565b506060820151816003019080519060200190612f479291906133b7565b506080820151816004019080519060200190612f649291906133b7565b5060a0820151816005019080519060200190612f819291906133b7565b5060c0820151816006019080519060200190612f9e9291906133b7565b5060e0820151816007019080519060200190612fbb9291906133b7565b50610100820151816008019080519060200190612fd99291906133b7565b50610120820151816009019080519060200190612ff79291906133b7565b5061014082015181600a0190805190602001906130159291906133b7565b5061016082015181600b0190805190602001906130339291906133b7565b5061018082015181600c0190805190602001906130519291906133b7565b506101a082015181600d01556101c082015181600e01556101e082015181600f0190805190602001906130859291906133b7565b5090505050565b6001600a600082825401925050819055508160056000600a54815260200190815260200160002060008201518160000190805190602001906130cf9291906133b7565b5060208201518160010190805190602001906130ec9291906133b7565b506040820151816002015560608201518160030190805190602001906131139291906133b7565b5060808201518160040190805190602001906131309291906133b7565b5060a082015181600501908051906020019061314d9291906133b7565b5060c082015181600601908051906020019061316a9291906133b7565b5060e08201518160070190805190602001906131879291906133b7565b506101008201518160080190805190602001906131a59291906133b7565b50905050600a54600660008373ffffffffffffffffffffffffffffffffffffffff1673ffffffffffffffffffffffffffffffffffffffff168152602001908152602001600020819055505050565b604051806102000160405280606081526020016060815260200160608152602001606081526020016060815260200160608152602001606081526020016060815260200160608152602001606081526020016060815260200160608152602001606081526020016000815260200160008152602001606081525090565b60405180610100016040528060008152602001606081526020016000815260200160608152602001606081526020016060815260200160608152602001600081525090565b828054600181600116156101000203166002900490600052602060002090601f016020900481019282601f106132f657805160ff1916838001178555613324565b82800160010185558215613324579182015b82811115613323578251825591602001919060010190613308565b5b5090506133319190613437565b5090565b6040518060c001604052806060815260200160608152602001606081526020016060815260200160608152602001600081525090565b6040518061012001604052806060815260200160608152602001600081526020016060815260200160608152602001606081526020016060815260200160608152602001606081525090565b828054600181600116156101000203166002900490600052602060002090601f016020900481019282601f106133f857805160ff1916838001178555613426565b82800160010185558215613426579182015b8281111561342557825182559160200191906001019061340a565b5b5090506134339190613437565b5090565b61345991905b8082111561345557600081600090555060010161343d565b5090565b90565b60008135905061346b81614102565b92915050565b60008151905061348081614119565b92915050565b600082601f83011261349757600080fd5b81356134aa6134a582613fb4565b613f87565b915080825260208301602083018583830111156134c657600080fd5b6134d18382846140af565b50505092915050565b6000813590506134e981614130565b92915050565b6000815190506134fe81614130565b92915050565b60006020828403121561351657600080fd5b60006135248482850161345c565b91505092915050565b60006020828403121561353f57600080fd5b600061354d84828501613471565b91505092915050565b60006020828403121561356857600080fd5b600082013567ffffffffffffffff81111561358257600080fd5b61358e84828501613486565b91505092915050565b600080604083850312156135aa57600080fd5b600083013567ffffffffffffffff8111156135c457600080fd5b6135d085828601613486565b925050602083013567ffffffffffffffff8111156135ed57600080fd5b6135f985828601613486565b9150509250929050565b60006020828403121561361557600080fd5b6000613623848285016134da565b91505092915050565b60006020828403121561363e57600080fd5b600061364c848285016134ef565b91505092915050565b600080600080600080600060e0888a03121561367057600080fd5b600061367e8a828b016134da565b975050602088013567ffffffffffffffff81111561369b57600080fd5b6136a78a828b01613486565b965050604088013567ffffffffffffffff8111156136c457600080fd5b6136d08a828b01613486565b955050606088013567ffffffffffffffff8111156136ed57600080fd5b6136f98a828b01613486565b945050608061370a8a828b016134da565b93505060a061371b8a828b016134da565b92505060c088013567ffffffffffffffff81111561373857600080fd5b6137448a828b01613486565b91505092959891949750929550565b61375c81614055565b82525050565b61376b8161400d565b82525050565b61377a81614067565b82525050565b61378981614079565b82525050565b600061379a82613fe0565b6137a48185613feb565b93506137b48185602086016140be565b6137bd816140f1565b840191505092915050565b60006137d382613fe0565b6137dd8185613ffc565b93506137ed8185602086016140be565b6137f6816140f1565b840191505092915050565b600061380e601083613ffc565b91507f6e6f7420657461626c6973656d656e74000000000000000000000000000000006000830152602082019050919050565b600061384e601183613ffc565b91507f746f6b656e206e6f7420616c6c6f7765640000000000000000000000000000006000830152602082019050919050565b600061388e601583613ffc565b91507f53747564656e7420646f65736e277420657869737400000000000000000000006000830152602082019050919050565b60006138ce600e83613ffc565b91507f6e6f20456e7472657072697365730000000000000000000000000000000000006000830152602082019050919050565b600061390e600e83613ffc565b91507f7472616e7366657274206661696c0000000000000000000000000000000000006000830152602082019050919050565b60006101008301600083015161395a6000860182613bc0565b5060208301518482036020860152613972828261378f565b91505060408301516139876040860182613bc0565b506060830151848203606086015261399f828261378f565b915050608083015184820360808601526139b9828261378f565b91505060a083015184820360a08601526139d3828261378f565b91505060c083015184820360c08601526139ed828261378f565b91505060e0830151613a0260e0860182613bc0565b508091505092915050565b6000610200830160008301518482036000860152613a2b828261378f565b91505060208301518482036020860152613a45828261378f565b91505060408301518482036040860152613a5f828261378f565b91505060608301518482036060860152613a79828261378f565b91505060808301518482036080860152613a93828261378f565b91505060a083015184820360a0860152613aad828261378f565b91505060c083015184820360c0860152613ac7828261378f565b91505060e083015184820360e0860152613ae1828261378f565b915050610100830151848203610100860152613afd828261378f565b915050610120830151848203610120860152613b19828261378f565b915050610140830151848203610140860152613b35828261378f565b915050610160830151848203610160860152613b51828261378f565b915050610180830151848203610180860152613b6d828261378f565b9150506101a0830151613b846101a0860182613bc0565b506101c0830151613b996101c0860182613bc0565b506101e08301518482036101e0860152613bb3828261378f565b9150508091505092915050565b613bc98161404b565b82525050565b613bd88161404b565b82525050565b6000604082019050613bf36000830185613753565b613c006020830184613762565b9392505050565b6000606082019050613c1c6000830186613753565b613c296020830185613762565b613c366040830184613771565b949350505050565b6000604082019050613c536000830185613762565b613c606020830184613762565b9392505050565b6000606082019050613c7c6000830186613762565b613c896020830185613753565b613c966040830184613780565b949350505050565b600060c0820190508181036000830152613cb881896137c8565b90508181036020830152613ccc81886137c8565b90508181036040830152613ce081876137c8565b90508181036060830152613cf481866137c8565b90508181036080830152613d0881856137c8565b9050613d1760a0830184613bcf565b979650505050505050565b6000610120820190508181036000830152613d3d818c6137c8565b90508181036020830152613d51818b6137c8565b9050613d60604083018a613bcf565b8181036060830152613d7281896137c8565b90508181036080830152613d8681886137c8565b905081810360a0830152613d9a81876137c8565b905081810360c0830152613dae81866137c8565b905081810360e0830152613dc281856137c8565b9050818103610100830152613dd781846137c8565b90509a9950505050505050505050565b60006020820190508181036000830152613e0081613801565b9050919050565b60006020820190508181036000830152613e2081613841565b9050919050565b60006020820190508181036000830152613e4081613881565b9050919050565b60006020820190508181036000830152613e60816138c1565b9050919050565b60006020820190508181036000830152613e8081613901565b9050919050565b60006020820190508181036000830152613ea18184613941565b905092915050565b60006020820190508181036000830152613ec38184613a0d565b905092915050565b6000602082019050613ee06000830184613bcf565b92915050565b600061010082019050613efc600083018b613bcf565b8181036020830152613f0e818a6137c8565b9050613f1d6040830189613bcf565b8181036060830152613f2f81886137c8565b90508181036080830152613f4381876137c8565b905081810360a0830152613f5781866137c8565b905081810360c0830152613f6b81856137c8565b9050613f7a60e0830184613bcf565b9998505050505050505050565b6000604051905081810181811067ffffffffffffffff82111715613faa57600080fd5b8060405250919050565b600067ffffffffffffffff821115613fcb57600080fd5b601f19601f8301169050602081019050919050565b600081519050919050565b600082825260208201905092915050565b600082825260208201905092915050565b60006140188261402b565b9050919050565b60008115159050919050565b600073ffffffffffffffffffffffffffffffffffffffff82169050919050565b6000819050919050565b60006140608261408b565b9050919050565b60006140728261404b565b9050919050565b60006140848261404b565b9050919050565b60006140968261409d565b9050919050565b60006140a88261402b565b9050919050565b82818337600083830152505050565b60005b838110156140dc5780820151818401526020810190506140c1565b838111156140eb576000848401525b50505050565b6000601f19601f8301169050919050565b61410b8161400d565b811461411657600080fd5b50565b6141228161401f565b811461412d57600080fd5b50565b6141398161404b565b811461414457600080fd5b5056fea264697066735822122086a8323f3ddd842df64fa3a898004101efdd156397a1767afeb9459bb961a06b64736f6c63430006010033",
					"opcodes": "PUSH1 0x80 PUSH1 0x40 MSTORE CALLVALUE DUP1 ISZERO PUSH3 0x11 JUMPI PUSH1 0x0 DUP1 REVERT JUMPDEST POP PUSH1 0x40 MLOAD PUSH3 0x42FD CODESIZE SUB DUP1 PUSH3 0x42FD DUP4 CODECOPY DUP2 DUP2 ADD PUSH1 0x40 MSTORE PUSH3 0x37 SWAP2 SWAP1 DUP2 ADD SWAP1 PUSH3 0xF6 JUMP JUMPDEST DUP1 PUSH1 0x1 PUSH1 0x0 PUSH2 0x100 EXP DUP2 SLOAD DUP2 PUSH20 0xFFFFFFFFFFFFFFFFFFFFFFFFFFFFFFFFFFFFFFFF MUL NOT AND SWAP1 DUP4 PUSH20 0xFFFFFFFFFFFFFFFFFFFFFFFFFFFFFFFFFFFFFFFF AND MUL OR SWAP1 SSTORE POP CALLER PUSH1 0x0 DUP1 PUSH2 0x100 EXP DUP2 SLOAD DUP2 PUSH20 0xFFFFFFFFFFFFFFFFFFFFFFFFFFFFFFFFFFFFFFFF MUL NOT AND SWAP1 DUP4 PUSH20 0xFFFFFFFFFFFFFFFFFFFFFFFFFFFFFFFFFFFFFFFF AND MUL OR SWAP1 SSTORE POP PUSH1 0x0 PUSH1 0x8 DUP2 SWAP1 SSTORE POP PUSH1 0x0 PUSH1 0x9 DUP2 SWAP1 SSTORE POP PUSH1 0x0 PUSH1 0xA DUP2 SWAP1 SSTORE POP PUSH1 0x0 PUSH1 0xB DUP2 SWAP1 SSTORE POP POP PUSH3 0x170 JUMP JUMPDEST PUSH1 0x0 DUP2 MLOAD SWAP1 POP PUSH3 0xF0 DUP2 PUSH3 0x156 JUMP JUMPDEST SWAP3 SWAP2 POP POP JUMP JUMPDEST PUSH1 0x0 PUSH1 0x20 DUP3 DUP5 SUB SLT ISZERO PUSH3 0x109 JUMPI PUSH1 0x0 DUP1 REVERT JUMPDEST PUSH1 0x0 PUSH3 0x119 DUP5 DUP3 DUP6 ADD PUSH3 0xDF JUMP JUMPDEST SWAP2 POP POP SWAP3 SWAP2 POP POP JUMP JUMPDEST PUSH1 0x0 PUSH3 0x12F DUP3 PUSH3 0x136 JUMP JUMPDEST SWAP1 POP SWAP2 SWAP1 POP JUMP JUMPDEST PUSH1 0x0 PUSH20 0xFFFFFFFFFFFFFFFFFFFFFFFFFFFFFFFFFFFFFFFF DUP3 AND SWAP1 POP SWAP2 SWAP1 POP JUMP JUMPDEST PUSH3 0x161 DUP2 PUSH3 0x122 JUMP JUMPDEST DUP2 EQ PUSH3 0x16D JUMPI PUSH1 0x0 DUP1 REVERT JUMPDEST POP JUMP JUMPDEST PUSH2 0x417D DUP1 PUSH3 0x180 PUSH1 0x0 CODECOPY PUSH1 0x0 RETURN INVALID PUSH1 0x80 PUSH1 0x40 MSTORE CALLVALUE DUP1 ISZERO PUSH2 0x10 JUMPI PUSH1 0x0 DUP1 REVERT JUMPDEST POP PUSH1 0x4 CALLDATASIZE LT PUSH2 0xF5 JUMPI PUSH1 0x0 CALLDATALOAD PUSH1 0xE0 SHR DUP1 PUSH4 0x6573F803 GT PUSH2 0x97 JUMPI DUP1 PUSH4 0x7EAE205D GT PUSH2 0x66 JUMPI DUP1 PUSH4 0x7EAE205D EQ PUSH2 0x293 JUMPI DUP1 PUSH4 0x8D129178 EQ PUSH2 0x2C8 JUMPI DUP1 PUSH4 0xC685E978 EQ PUSH2 0x2F8 JUMPI DUP1 PUSH4 0xE23CC50D EQ PUSH2 0x314 JUMPI PUSH2 0xF5 JUMP JUMPDEST DUP1 PUSH4 0x6573F803 EQ PUSH2 0x1F9 JUMPI DUP1 PUSH4 0x6B6DF2BE EQ PUSH2 0x215 JUMPI DUP1 PUSH4 0x6F2962B7 EQ PUSH2 0x245 JUMPI DUP1 PUSH4 0x78A31262 EQ PUSH2 0x263 JUMPI PUSH2 0xF5 JUMP JUMPDEST DUP1 PUSH4 0x37683976 GT PUSH2 0xD3 JUMPI DUP1 PUSH4 0x37683976 EQ PUSH2 0x150 JUMPI DUP1 PUSH4 0x4ACCF9A7 EQ PUSH2 0x16E JUMPI DUP1 PUSH4 0x56FABA43 EQ PUSH2 0x1A5 JUMPI DUP1 PUSH4 0x5E00C8A2 EQ PUSH2 0x1DD JUMPI PUSH2 0xF5 JUMP JUMPDEST DUP1 PUSH4 0x5D728F5 EQ PUSH2 0xFA JUMPI DUP1 PUSH4 0x161A9FB5 EQ PUSH2 0x116 JUMPI DUP1 PUSH4 0x27EDEE9E EQ PUSH2 0x134 JUMPI JUMPDEST PUSH1 0x0 DUP1 REVERT JUMPDEST PUSH2 0x114 PUSH1 0x4 DUP1 CALLDATASIZE SUB PUSH2 0x10F SWAP2 SWAP1 DUP2 ADD SWAP1 PUSH2 0x3603 JUMP JUMPDEST PUSH2 0x332 JUMP JUMPDEST STOP JUMPDEST PUSH2 0x11E PUSH2 0xDF4 JUMP JUMPDEST PUSH1 0x40 MLOAD PUSH2 0x12B SWAP2 SWAP1 PUSH2 0x3ECB JUMP JUMPDEST PUSH1 0x40 MLOAD DUP1 SWAP2 SUB SWAP1 RETURN JUMPDEST PUSH2 0x14E PUSH1 0x4 DUP1 CALLDATASIZE SUB PUSH2 0x149 SWAP2 SWAP1 DUP2 ADD SWAP1 PUSH2 0x3655 JUMP JUMPDEST PUSH2 0xDFA JUMP JUMPDEST STOP JUMPDEST PUSH2 0x158 PUSH2 0x1191 JUMP JUMPDEST PUSH1 0x40 MLOAD PUSH2 0x165 SWAP2 SWAP1 PUSH2 0x3ECB JUMP JUMPDEST PUSH1 0x40 MLOAD DUP1 SWAP2 SUB SWAP1 RETURN JUMPDEST PUSH2 0x188 PUSH1 0x4 DUP1 CALLDATASIZE SUB PUSH2 0x183 SWAP2 SWAP1 DUP2 ADD SWAP1 PUSH2 0x3603 JUMP JUMPDEST PUSH2 0x1197 JUMP JUMPDEST PUSH1 0x40 MLOAD PUSH2 0x19C SWAP9 SWAP8 SWAP7 SWAP6 SWAP5 SWAP4 SWAP3 SWAP2 SWAP1 PUSH2 0x3EE6 JUMP JUMPDEST PUSH1 0x40 MLOAD DUP1 SWAP2 SUB SWAP1 RETURN JUMPDEST PUSH2 0x1BF PUSH1 0x4 DUP1 CALLDATASIZE SUB PUSH2 0x1BA SWAP2 SWAP1 DUP2 ADD SWAP1 PUSH2 0x3603 JUMP JUMPDEST PUSH2 0x14D7 JUMP JUMPDEST PUSH1 0x40 MLOAD PUSH2 0x1D4 SWAP10 SWAP9 SWAP8 SWAP7 SWAP6 SWAP5 SWAP4 SWAP3 SWAP2 SWAP1 PUSH2 0x3D22 JUMP JUMPDEST PUSH1 0x40 MLOAD DUP1 SWAP2 SUB SWAP1 RETURN JUMPDEST PUSH2 0x1F7 PUSH1 0x4 DUP1 CALLDATASIZE SUB PUSH2 0x1F2 SWAP2 SWAP1 DUP2 ADD SWAP1 PUSH2 0x3556 JUMP JUMPDEST PUSH2 0x19E5 JUMP JUMPDEST STOP JUMPDEST PUSH2 0x213 PUSH1 0x4 DUP1 CALLDATASIZE SUB PUSH2 0x20E SWAP2 SWAP1 DUP2 ADD SWAP1 PUSH2 0x3597 JUMP JUMPDEST PUSH2 0x1A04 JUMP JUMPDEST STOP JUMPDEST PUSH2 0x22F PUSH1 0x4 DUP1 CALLDATASIZE SUB PUSH2 0x22A SWAP2 SWAP1 DUP2 ADD SWAP1 PUSH2 0x3603 JUMP JUMPDEST PUSH2 0x1AB5 JUMP JUMPDEST PUSH1 0x40 MLOAD PUSH2 0x23C SWAP2 SWAP1 PUSH2 0x3EA9 JUMP JUMPDEST PUSH1 0x40 MLOAD DUP1 SWAP2 SUB SWAP1 RETURN JUMPDEST PUSH2 0x24D PUSH2 0x23D3 JUMP JUMPDEST PUSH1 0x40 MLOAD PUSH2 0x25A SWAP2 SWAP1 PUSH2 0x3ECB JUMP JUMPDEST PUSH1 0x40 MLOAD DUP1 SWAP2 SUB SWAP1 RETURN JUMPDEST PUSH2 0x27D PUSH1 0x4 DUP1 CALLDATASIZE SUB PUSH2 0x278 SWAP2 SWAP1 DUP2 ADD SWAP1 PUSH2 0x3504 JUMP JUMPDEST PUSH2 0x23D9 JUMP JUMPDEST PUSH1 0x40 MLOAD PUSH2 0x28A SWAP2 SWAP1 PUSH2 0x3ECB JUMP JUMPDEST PUSH1 0x40 MLOAD DUP1 SWAP2 SUB SWAP1 RETURN JUMPDEST PUSH2 0x2AD PUSH1 0x4 DUP1 CALLDATASIZE SUB PUSH2 0x2A8 SWAP2 SWAP1 DUP2 ADD SWAP1 PUSH2 0x3603 JUMP JUMPDEST PUSH2 0x23F1 JUMP JUMPDEST PUSH1 0x40 MLOAD PUSH2 0x2BF SWAP7 SWAP6 SWAP5 SWAP4 SWAP3 SWAP2 SWAP1 PUSH2 0x3C9E JUMP JUMPDEST PUSH1 0x40 MLOAD DUP1 SWAP2 SUB SWAP1 RETURN JUMPDEST PUSH2 0x2E2 PUSH1 0x4 DUP1 CALLDATASIZE SUB PUSH2 0x2DD SWAP2 SWAP1 DUP2 ADD SWAP1 PUSH2 0x3603 JUMP JUMPDEST PUSH2 0x2725 JUMP JUMPDEST PUSH1 0x40 MLOAD PUSH2 0x2EF SWAP2 SWAP1 PUSH2 0x3E87 JUMP JUMPDEST PUSH1 0x40 MLOAD DUP1 SWAP2 SUB SWAP1 RETURN JUMPDEST PUSH2 0x312 PUSH1 0x4 DUP1 CALLDATASIZE SUB PUSH2 0x30D SWAP2 SWAP1 DUP2 ADD SWAP1 PUSH2 0x3556 JUMP JUMPDEST PUSH2 0x2C9D JUMP JUMPDEST STOP JUMPDEST PUSH2 0x31C PUSH2 0x2CBC JUMP JUMPDEST PUSH1 0x40 MLOAD PUSH2 0x329 SWAP2 SWAP1 PUSH2 0x3ECB JUMP JUMPDEST PUSH1 0x40 MLOAD DUP1 SWAP2 SUB SWAP1 RETURN JUMPDEST PUSH1 0x0 PUSH1 0x3 PUSH1 0x0 CALLER PUSH20 0xFFFFFFFFFFFFFFFFFFFFFFFFFFFFFFFFFFFFFFFF AND PUSH20 0xFFFFFFFFFFFFFFFFFFFFFFFFFFFFFFFFFFFFFFFF AND DUP2 MSTORE PUSH1 0x20 ADD SWAP1 DUP2 MSTORE PUSH1 0x20 ADD PUSH1 0x0 KECCAK256 SLOAD SWAP1 POP PUSH1 0x0 DUP2 EQ ISZERO PUSH2 0x3BA JUMPI PUSH1 0x40 MLOAD PUSH32 0x8C379A000000000000000000000000000000000000000000000000000000000 DUP2 MSTORE PUSH1 0x4 ADD PUSH2 0x3B1 SWAP1 PUSH2 0x3DE7 JUMP JUMPDEST PUSH1 0x40 MLOAD DUP1 SWAP2 SUB SWAP1 REVERT JUMPDEST PUSH2 0x3C2 PUSH2 0x31F3 JUMP JUMPDEST PUSH1 0x4 PUSH1 0x0 DUP5 DUP2 MSTORE PUSH1 0x20 ADD SWAP1 DUP2 MSTORE PUSH1 0x20 ADD PUSH1 0x0 KECCAK256 PUSH1 0x40 MLOAD DUP1 PUSH2 0x200 ADD PUSH1 0x40 MSTORE SWAP1 DUP2 PUSH1 0x0 DUP3 ADD DUP1 SLOAD PUSH1 0x1 DUP2 PUSH1 0x1 AND ISZERO PUSH2 0x100 MUL SUB AND PUSH1 0x2 SWAP1 DIV DUP1 PUSH1 0x1F ADD PUSH1 0x20 DUP1 SWAP2 DIV MUL PUSH1 0x20 ADD PUSH1 0x40 MLOAD SWAP1 DUP2 ADD PUSH1 0x40 MSTORE DUP1 SWAP3 SWAP2 SWAP1 DUP2 DUP2 MSTORE PUSH1 0x20 ADD DUP3 DUP1 SLOAD PUSH1 0x1 DUP2 PUSH1 0x1 AND ISZERO PUSH2 0x100 MUL SUB AND PUSH1 0x2 SWAP1 DIV DUP1 ISZERO PUSH2 0x47A JUMPI DUP1 PUSH1 0x1F LT PUSH2 0x44F JUMPI PUSH2 0x100 DUP1 DUP4 SLOAD DIV MUL DUP4 MSTORE SWAP2 PUSH1 0x20 ADD SWAP2 PUSH2 0x47A JUMP JUMPDEST DUP3 ADD SWAP2 SWAP1 PUSH1 0x0 MSTORE PUSH1 0x20 PUSH1 0x0 KECCAK256 SWAP1 JUMPDEST DUP2 SLOAD DUP2 MSTORE SWAP1 PUSH1 0x1 ADD SWAP1 PUSH1 0x20 ADD DUP1 DUP4 GT PUSH2 0x45D JUMPI DUP3 SWAP1 SUB PUSH1 0x1F AND DUP3 ADD SWAP2 JUMPDEST POP POP POP POP POP DUP2 MSTORE PUSH1 0x20 ADD PUSH1 0x1 DUP3 ADD DUP1 SLOAD PUSH1 0x1 DUP2 PUSH1 0x1 AND ISZERO PUSH2 0x100 MUL SUB AND PUSH1 0x2 SWAP1 DIV DUP1 PUSH1 0x1F ADD PUSH1 0x20 DUP1 SWAP2 DIV MUL PUSH1 0x20 ADD PUSH1 0x40 MLOAD SWAP1 DUP2 ADD PUSH1 0x40 MSTORE DUP1 SWAP3 SWAP2 SWAP1 DUP2 DUP2 MSTORE PUSH1 0x20 ADD DUP3 DUP1 SLOAD PUSH1 0x1 DUP2 PUSH1 0x1 AND ISZERO PUSH2 0x100 MUL SUB AND PUSH1 0x2 SWAP1 DIV DUP1 ISZERO PUSH2 0x51C JUMPI DUP1 PUSH1 0x1F LT PUSH2 0x4F1 JUMPI PUSH2 0x100 DUP1 DUP4 SLOAD DIV MUL DUP4 MSTORE SWAP2 PUSH1 0x20 ADD SWAP2 PUSH2 0x51C JUMP JUMPDEST DUP3 ADD SWAP2 SWAP1 PUSH1 0x0 MSTORE PUSH1 0x20 PUSH1 0x0 KECCAK256 SWAP1 JUMPDEST DUP2 SLOAD DUP2 MSTORE SWAP1 PUSH1 0x1 ADD SWAP1 PUSH1 0x20 ADD DUP1 DUP4 GT PUSH2 0x4FF JUMPI DUP3 SWAP1 SUB PUSH1 0x1F AND DUP3 ADD SWAP2 JUMPDEST POP POP POP POP POP DUP2 MSTORE PUSH1 0x20 ADD PUSH1 0x2 DUP3 ADD DUP1 SLOAD PUSH1 0x1 DUP2 PUSH1 0x1 AND ISZERO PUSH2 0x100 MUL SUB AND PUSH1 0x2 SWAP1 DIV DUP1 PUSH1 0x1F ADD PUSH1 0x20 DUP1 SWAP2 DIV MUL PUSH1 0x20 ADD PUSH1 0x40 MLOAD SWAP1 DUP2 ADD PUSH1 0x40 MSTORE DUP1 SWAP3 SWAP2 SWAP1 DUP2 DUP2 MSTORE PUSH1 0x20 ADD DUP3 DUP1 SLOAD PUSH1 0x1 DUP2 PUSH1 0x1 AND ISZERO PUSH2 0x100 MUL SUB AND PUSH1 0x2 SWAP1 DIV DUP1 ISZERO PUSH2 0x5BE JUMPI DUP1 PUSH1 0x1F LT PUSH2 0x593 JUMPI PUSH2 0x100 DUP1 DUP4 SLOAD DIV MUL DUP4 MSTORE SWAP2 PUSH1 0x20 ADD SWAP2 PUSH2 0x5BE JUMP JUMPDEST DUP3 ADD SWAP2 SWAP1 PUSH1 0x0 MSTORE PUSH1 0x20 PUSH1 0x0 KECCAK256 SWAP1 JUMPDEST DUP2 SLOAD DUP2 MSTORE SWAP1 PUSH1 0x1 ADD SWAP1 PUSH1 0x20 ADD DUP1 DUP4 GT PUSH2 0x5A1 JUMPI DUP3 SWAP1 SUB PUSH1 0x1F AND DUP3 ADD SWAP2 JUMPDEST POP POP POP POP POP DUP2 MSTORE PUSH1 0x20 ADD PUSH1 0x3 DUP3 ADD DUP1 SLOAD PUSH1 0x1 DUP2 PUSH1 0x1 AND ISZERO PUSH2 0x100 MUL SUB AND PUSH1 0x2 SWAP1 DIV DUP1 PUSH1 0x1F ADD PUSH1 0x20 DUP1 SWAP2 DIV MUL PUSH1 0x20 ADD PUSH1 0x40 MLOAD SWAP1 DUP2 ADD PUSH1 0x40 MSTORE DUP1 SWAP3 SWAP2 SWAP1 DUP2 DUP2 MSTORE PUSH1 0x20 ADD DUP3 DUP1 SLOAD PUSH1 0x1 DUP2 PUSH1 0x1 AND ISZERO PUSH2 0x100 MUL SUB AND PUSH1 0x2 SWAP1 DIV DUP1 ISZERO PUSH2 0x660 JUMPI DUP1 PUSH1 0x1F LT PUSH2 0x635 JUMPI PUSH2 0x100 DUP1 DUP4 SLOAD DIV MUL DUP4 MSTORE SWAP2 PUSH1 0x20 ADD SWAP2 PUSH2 0x660 JUMP JUMPDEST DUP3 ADD SWAP2 SWAP1 PUSH1 0x0 MSTORE PUSH1 0x20 PUSH1 0x0 KECCAK256 SWAP1 JUMPDEST DUP2 SLOAD DUP2 MSTORE SWAP1 PUSH1 0x1 ADD SWAP1 PUSH1 0x20 ADD DUP1 DUP4 GT PUSH2 0x643 JUMPI DUP3 SWAP1 SUB PUSH1 0x1F AND DUP3 ADD SWAP2 JUMPDEST POP POP POP POP POP DUP2 MSTORE PUSH1 0x20 ADD PUSH1 0x4 DUP3 ADD DUP1 SLOAD PUSH1 0x1 DUP2 PUSH1 0x1 AND ISZERO PUSH2 0x100 MUL SUB AND PUSH1 0x2 SWAP1 DIV DUP1 PUSH1 0x1F ADD PUSH1 0x20 DUP1 SWAP2 DIV MUL PUSH1 0x20 ADD PUSH1 0x40 MLOAD SWAP1 DUP2 ADD PUSH1 0x40 MSTORE DUP1 SWAP3 SWAP2 SWAP1 DUP2 DUP2 MSTORE PUSH1 0x20 ADD DUP3 DUP1 SLOAD PUSH1 0x1 DUP2 PUSH1 0x1 AND ISZERO PUSH2 0x100 MUL SUB AND PUSH1 0x2 SWAP1 DIV DUP1 ISZERO PUSH2 0x702 JUMPI DUP1 PUSH1 0x1F LT PUSH2 0x6D7 JUMPI PUSH2 0x100 DUP1 DUP4 SLOAD DIV MUL DUP4 MSTORE SWAP2 PUSH1 0x20 ADD SWAP2 PUSH2 0x702 JUMP JUMPDEST DUP3 ADD SWAP2 SWAP1 PUSH1 0x0 MSTORE PUSH1 0x20 PUSH1 0x0 KECCAK256 SWAP1 JUMPDEST DUP2 SLOAD DUP2 MSTORE SWAP1 PUSH1 0x1 ADD SWAP1 PUSH1 0x20 ADD DUP1 DUP4 GT PUSH2 0x6E5 JUMPI DUP3 SWAP1 SUB PUSH1 0x1F AND DUP3 ADD SWAP2 JUMPDEST POP POP POP POP POP DUP2 MSTORE PUSH1 0x20 ADD PUSH1 0x5 DUP3 ADD DUP1 SLOAD PUSH1 0x1 DUP2 PUSH1 0x1 AND ISZERO PUSH2 0x100 MUL SUB AND PUSH1 0x2 SWAP1 DIV DUP1 PUSH1 0x1F ADD PUSH1 0x20 DUP1 SWAP2 DIV MUL PUSH1 0x20 ADD PUSH1 0x40 MLOAD SWAP1 DUP2 ADD PUSH1 0x40 MSTORE DUP1 SWAP3 SWAP2 SWAP1 DUP2 DUP2 MSTORE PUSH1 0x20 ADD DUP3 DUP1 SLOAD PUSH1 0x1 DUP2 PUSH1 0x1 AND ISZERO PUSH2 0x100 MUL SUB AND PUSH1 0x2 SWAP1 DIV DUP1 ISZERO PUSH2 0x7A4 JUMPI DUP1 PUSH1 0x1F LT PUSH2 0x779 JUMPI PUSH2 0x100 DUP1 DUP4 SLOAD DIV MUL DUP4 MSTORE SWAP2 PUSH1 0x20 ADD SWAP2 PUSH2 0x7A4 JUMP JUMPDEST DUP3 ADD SWAP2 SWAP1 PUSH1 0x0 MSTORE PUSH1 0x20 PUSH1 0x0 KECCAK256 SWAP1 JUMPDEST DUP2 SLOAD DUP2 MSTORE SWAP1 PUSH1 0x1 ADD SWAP1 PUSH1 0x20 ADD DUP1 DUP4 GT PUSH2 0x787 JUMPI DUP3 SWAP1 SUB PUSH1 0x1F AND DUP3 ADD SWAP2 JUMPDEST POP POP POP POP POP DUP2 MSTORE PUSH1 0x20 ADD PUSH1 0x6 DUP3 ADD DUP1 SLOAD PUSH1 0x1 DUP2 PUSH1 0x1 AND ISZERO PUSH2 0x100 MUL SUB AND PUSH1 0x2 SWAP1 DIV DUP1 PUSH1 0x1F ADD PUSH1 0x20 DUP1 SWAP2 DIV MUL PUSH1 0x20 ADD PUSH1 0x40 MLOAD SWAP1 DUP2 ADD PUSH1 0x40 MSTORE DUP1 SWAP3 SWAP2 SWAP1 DUP2 DUP2 MSTORE PUSH1 0x20 ADD DUP3 DUP1 SLOAD PUSH1 0x1 DUP2 PUSH1 0x1 AND ISZERO PUSH2 0x100 MUL SUB AND PUSH1 0x2 SWAP1 DIV DUP1 ISZERO PUSH2 0x846 JUMPI DUP1 PUSH1 0x1F LT PUSH2 0x81B JUMPI PUSH2 0x100 DUP1 DUP4 SLOAD DIV MUL DUP4 MSTORE SWAP2 PUSH1 0x20 ADD SWAP2 PUSH2 0x846 JUMP JUMPDEST DUP3 ADD SWAP2 SWAP1 PUSH1 0x0 MSTORE PUSH1 0x20 PUSH1 0x0 KECCAK256 SWAP1 JUMPDEST DUP2 SLOAD DUP2 MSTORE SWAP1 PUSH1 0x1 ADD SWAP1 PUSH1 0x20 ADD DUP1 DUP4 GT PUSH2 0x829 JUMPI DUP3 SWAP1 SUB PUSH1 0x1F AND DUP3 ADD SWAP2 JUMPDEST POP POP POP POP POP DUP2 MSTORE PUSH1 0x20 ADD PUSH1 0x7 DUP3 ADD DUP1 SLOAD PUSH1 0x1 DUP2 PUSH1 0x1 AND ISZERO PUSH2 0x100 MUL SUB AND PUSH1 0x2 SWAP1 DIV DUP1 PUSH1 0x1F ADD PUSH1 0x20 DUP1 SWAP2 DIV MUL PUSH1 0x20 ADD PUSH1 0x40 MLOAD SWAP1 DUP2 ADD PUSH1 0x40 MSTORE DUP1 SWAP3 SWAP2 SWAP1 DUP2 DUP2 MSTORE PUSH1 0x20 ADD DUP3 DUP1 SLOAD PUSH1 0x1 DUP2 PUSH1 0x1 AND ISZERO PUSH2 0x100 MUL SUB AND PUSH1 0x2 SWAP1 DIV DUP1 ISZERO PUSH2 0x8E8 JUMPI DUP1 PUSH1 0x1F LT PUSH2 0x8BD JUMPI PUSH2 0x100 DUP1 DUP4 SLOAD DIV MUL DUP4 MSTORE SWAP2 PUSH1 0x20 ADD SWAP2 PUSH2 0x8E8 JUMP JUMPDEST DUP3 ADD SWAP2 SWAP1 PUSH1 0x0 MSTORE PUSH1 0x20 PUSH1 0x0 KECCAK256 SWAP1 JUMPDEST DUP2 SLOAD DUP2 MSTORE SWAP1 PUSH1 0x1 ADD SWAP1 PUSH1 0x20 ADD DUP1 DUP4 GT PUSH2 0x8CB JUMPI DUP3 SWAP1 SUB PUSH1 0x1F AND DUP3 ADD SWAP2 JUMPDEST POP POP POP POP POP DUP2 MSTORE PUSH1 0x20 ADD PUSH1 0x8 DUP3 ADD DUP1 SLOAD PUSH1 0x1 DUP2 PUSH1 0x1 AND ISZERO PUSH2 0x100 MUL SUB AND PUSH1 0x2 SWAP1 DIV DUP1 PUSH1 0x1F ADD PUSH1 0x20 DUP1 SWAP2 DIV MUL PUSH1 0x20 ADD PUSH1 0x40 MLOAD SWAP1 DUP2 ADD PUSH1 0x40 MSTORE DUP1 SWAP3 SWAP2 SWAP1 DUP2 DUP2 MSTORE PUSH1 0x20 ADD DUP3 DUP1 SLOAD PUSH1 0x1 DUP2 PUSH1 0x1 AND ISZERO PUSH2 0x100 MUL SUB AND PUSH1 0x2 SWAP1 DIV DUP1 ISZERO PUSH2 0x98A JUMPI DUP1 PUSH1 0x1F LT PUSH2 0x95F JUMPI PUSH2 0x100 DUP1 DUP4 SLOAD DIV MUL DUP4 MSTORE SWAP2 PUSH1 0x20 ADD SWAP2 PUSH2 0x98A JUMP JUMPDEST DUP3 ADD SWAP2 SWAP1 PUSH1 0x0 MSTORE PUSH1 0x20 PUSH1 0x0 KECCAK256 SWAP1 JUMPDEST DUP2 SLOAD DUP2 MSTORE SWAP1 PUSH1 0x1 ADD SWAP1 PUSH1 0x20 ADD DUP1 DUP4 GT PUSH2 0x96D JUMPI DUP3 SWAP1 SUB PUSH1 0x1F AND DUP3 ADD SWAP2 JUMPDEST POP POP POP POP POP DUP2 MSTORE PUSH1 0x20 ADD PUSH1 0x9 DUP3 ADD DUP1 SLOAD PUSH1 0x1 DUP2 PUSH1 0x1 AND ISZERO PUSH2 0x100 MUL SUB AND PUSH1 0x2 SWAP1 DIV DUP1 PUSH1 0x1F ADD PUSH1 0x20 DUP1 SWAP2 DIV MUL PUSH1 0x20 ADD PUSH1 0x40 MLOAD SWAP1 DUP2 ADD PUSH1 0x40 MSTORE DUP1 SWAP3 SWAP2 SWAP1 DUP2 DUP2 MSTORE PUSH1 0x20 ADD DUP3 DUP1 SLOAD PUSH1 0x1 DUP2 PUSH1 0x1 AND ISZERO PUSH2 0x100 MUL SUB AND PUSH1 0x2 SWAP1 DIV DUP1 ISZERO PUSH2 0xA2C JUMPI DUP1 PUSH1 0x1F LT PUSH2 0xA01 JUMPI PUSH2 0x100 DUP1 DUP4 SLOAD DIV MUL DUP4 MSTORE SWAP2 PUSH1 0x20 ADD SWAP2 PUSH2 0xA2C JUMP JUMPDEST DUP3 ADD SWAP2 SWAP1 PUSH1 0x0 MSTORE PUSH1 0x20 PUSH1 0x0 KECCAK256 SWAP1 JUMPDEST DUP2 SLOAD DUP2 MSTORE SWAP1 PUSH1 0x1 ADD SWAP1 PUSH1 0x20 ADD DUP1 DUP4 GT PUSH2 0xA0F JUMPI DUP3 SWAP1 SUB PUSH1 0x1F AND DUP3 ADD SWAP2 JUMPDEST POP POP POP POP POP DUP2 MSTORE PUSH1 0x20 ADD PUSH1 0xA DUP3 ADD DUP1 SLOAD PUSH1 0x1 DUP2 PUSH1 0x1 AND ISZERO PUSH2 0x100 MUL SUB AND PUSH1 0x2 SWAP1 DIV DUP1 PUSH1 0x1F ADD PUSH1 0x20 DUP1 SWAP2 DIV MUL PUSH1 0x20 ADD PUSH1 0x40 MLOAD SWAP1 DUP2 ADD PUSH1 0x40 MSTORE DUP1 SWAP3 SWAP2 SWAP1 DUP2 DUP2 MSTORE PUSH1 0x20 ADD DUP3 DUP1 SLOAD PUSH1 0x1 DUP2 PUSH1 0x1 AND ISZERO PUSH2 0x100 MUL SUB AND PUSH1 0x2 SWAP1 DIV DUP1 ISZERO PUSH2 0xACE JUMPI DUP1 PUSH1 0x1F LT PUSH2 0xAA3 JUMPI PUSH2 0x100 DUP1 DUP4 SLOAD DIV MUL DUP4 MSTORE SWAP2 PUSH1 0x20 ADD SWAP2 PUSH2 0xACE JUMP JUMPDEST DUP3 ADD SWAP2 SWAP1 PUSH1 0x0 MSTORE PUSH1 0x20 PUSH1 0x0 KECCAK256 SWAP1 JUMPDEST DUP2 SLOAD DUP2 MSTORE SWAP1 PUSH1 0x1 ADD SWAP1 PUSH1 0x20 ADD DUP1 DUP4 GT PUSH2 0xAB1 JUMPI DUP3 SWAP1 SUB PUSH1 0x1F AND DUP3 ADD SWAP2 JUMPDEST POP POP POP POP POP DUP2 MSTORE PUSH1 0x20 ADD PUSH1 0xB DUP3 ADD DUP1 SLOAD PUSH1 0x1 DUP2 PUSH1 0x1 AND ISZERO PUSH2 0x100 MUL SUB AND PUSH1 0x2 SWAP1 DIV DUP1 PUSH1 0x1F ADD PUSH1 0x20 DUP1 SWAP2 DIV MUL PUSH1 0x20 ADD PUSH1 0x40 MLOAD SWAP1 DUP2 ADD PUSH1 0x40 MSTORE DUP1 SWAP3 SWAP2 SWAP1 DUP2 DUP2 MSTORE PUSH1 0x20 ADD DUP3 DUP1 SLOAD PUSH1 0x1 DUP2 PUSH1 0x1 AND ISZERO PUSH2 0x100 MUL SUB AND PUSH1 0x2 SWAP1 DIV DUP1 ISZERO PUSH2 0xB70 JUMPI DUP1 PUSH1 0x1F LT PUSH2 0xB45 JUMPI PUSH2 0x100 DUP1 DUP4 SLOAD DIV MUL DUP4 MSTORE SWAP2 PUSH1 0x20 ADD SWAP2 PUSH2 0xB70 JUMP JUMPDEST DUP3 ADD SWAP2 SWAP1 PUSH1 0x0 MSTORE PUSH1 0x20 PUSH1 0x0 KECCAK256 SWAP1 JUMPDEST DUP2 SLOAD DUP2 MSTORE SWAP1 PUSH1 0x1 ADD SWAP1 PUSH1 0x20 ADD DUP1 DUP4 GT PUSH2 0xB53 JUMPI DUP3 SWAP1 SUB PUSH1 0x1F AND DUP3 ADD SWAP2 JUMPDEST POP POP POP POP POP DUP2 MSTORE PUSH1 0x20 ADD PUSH1 0xC DUP3 ADD DUP1 SLOAD PUSH1 0x1 DUP2 PUSH1 0x1 AND ISZERO PUSH2 0x100 MUL SUB AND PUSH1 0x2 SWAP1 DIV DUP1 PUSH1 0x1F ADD PUSH1 0x20 DUP1 SWAP2 DIV MUL PUSH1 0x20 ADD PUSH1 0x40 MLOAD SWAP1 DUP2 ADD PUSH1 0x40 MSTORE DUP1 SWAP3 SWAP2 SWAP1 DUP2 DUP2 MSTORE PUSH1 0x20 ADD DUP3 DUP1 SLOAD PUSH1 0x1 DUP2 PUSH1 0x1 AND ISZERO PUSH2 0x100 MUL SUB AND PUSH1 0x2 SWAP1 DIV DUP1 ISZERO PUSH2 0xC12 JUMPI DUP1 PUSH1 0x1F LT PUSH2 0xBE7 JUMPI PUSH2 0x100 DUP1 DUP4 SLOAD DIV MUL DUP4 MSTORE SWAP2 PUSH1 0x20 ADD SWAP2 PUSH2 0xC12 JUMP JUMPDEST DUP3 ADD SWAP2 SWAP1 PUSH1 0x0 MSTORE PUSH1 0x20 PUSH1 0x0 KECCAK256 SWAP1 JUMPDEST DUP2 SLOAD DUP2 MSTORE SWAP1 PUSH1 0x1 ADD SWAP1 PUSH1 0x20 ADD DUP1 DUP4 GT PUSH2 0xBF5 JUMPI DUP3 SWAP1 SUB PUSH1 0x1F AND DUP3 ADD SWAP2 JUMPDEST POP POP POP POP POP DUP2 MSTORE PUSH1 0x20 ADD PUSH1 0xD DUP3 ADD SLOAD DUP2 MSTORE PUSH1 0x20 ADD PUSH1 0xE DUP3 ADD SLOAD DUP2 MSTORE PUSH1 0x20 ADD PUSH1 0xF DUP3 ADD DUP1 SLOAD PUSH1 0x1 DUP2 PUSH1 0x1 AND ISZERO PUSH2 0x100 MUL SUB AND PUSH1 0x2 SWAP1 DIV DUP1 PUSH1 0x1F ADD PUSH1 0x20 DUP1 SWAP2 DIV MUL PUSH1 0x20 ADD PUSH1 0x40 MLOAD SWAP1 DUP2 ADD PUSH1 0x40 MSTORE DUP1 SWAP3 SWAP2 SWAP1 DUP2 DUP2 MSTORE PUSH1 0x20 ADD DUP3 DUP1 SLOAD PUSH1 0x1 DUP2 PUSH1 0x1 AND ISZERO PUSH2 0x100 MUL SUB AND PUSH1 0x2 SWAP1 DIV DUP1 ISZERO PUSH2 0xCC8 JUMPI DUP1 PUSH1 0x1F LT PUSH2 0xC9D JUMPI PUSH2 0x100 DUP1 DUP4 SLOAD DIV MUL DUP4 MSTORE SWAP2 PUSH1 0x20 ADD SWAP2 PUSH2 0xCC8 JUMP JUMPDEST DUP3 ADD SWAP2 SWAP1 PUSH1 0x0 MSTORE PUSH1 0x20 PUSH1 0x0 KECCAK256 SWAP1 JUMPDEST DUP2 SLOAD DUP2 MSTORE SWAP1 PUSH1 0x1 ADD SWAP1 PUSH1 0x20 ADD DUP1 DUP4 GT PUSH2 0xCAB JUMPI DUP3 SWAP1 SUB PUSH1 0x1F AND DUP3 ADD SWAP2 JUMPDEST POP POP POP POP POP DUP2 MSTORE POP POP SWAP1 POP PUSH1 0x0 DUP2 PUSH1 0x0 ADD MLOAD MLOAD EQ ISZERO PUSH2 0xD1C JUMPI PUSH1 0x40 MLOAD PUSH32 0x8C379A000000000000000000000000000000000000000000000000000000000 DUP2 MSTORE PUSH1 0x4 ADD PUSH2 0xD13 SWAP1 PUSH2 0x3E27 JUMP JUMPDEST PUSH1 0x40 MLOAD DUP1 SWAP2 SUB SWAP1 REVERT JUMPDEST PUSH2 0xD24 PUSH2 0x3270 JUMP JUMPDEST DUP4 DUP2 PUSH1 0x0 ADD DUP2 DUP2 MSTORE POP POP PUSH1 0x2 PUSH1 0x0 DUP5 DUP2 MSTORE PUSH1 0x20 ADD SWAP1 DUP2 MSTORE PUSH1 0x20 ADD PUSH1 0x0 KECCAK256 PUSH1 0x0 ADD DUP1 SLOAD PUSH1 0x1 DUP2 PUSH1 0x1 AND ISZERO PUSH2 0x100 MUL SUB AND PUSH1 0x2 SWAP1 DIV DUP1 PUSH1 0x1F ADD PUSH1 0x20 DUP1 SWAP2 DIV MUL PUSH1 0x20 ADD PUSH1 0x40 MLOAD SWAP1 DUP2 ADD PUSH1 0x40 MSTORE DUP1 SWAP3 SWAP2 SWAP1 DUP2 DUP2 MSTORE PUSH1 0x20 ADD DUP3 DUP1 SLOAD PUSH1 0x1 DUP2 PUSH1 0x1 AND ISZERO PUSH2 0x100 MUL SUB AND PUSH1 0x2 SWAP1 DIV DUP1 ISZERO PUSH2 0xDD8 JUMPI DUP1 PUSH1 0x1F LT PUSH2 0xDAD JUMPI PUSH2 0x100 DUP1 DUP4 SLOAD DIV MUL DUP4 MSTORE SWAP2 PUSH1 0x20 ADD SWAP2 PUSH2 0xDD8 JUMP JUMPDEST DUP3 ADD SWAP2 SWAP1 PUSH1 0x0 MSTORE PUSH1 0x20 PUSH1 0x0 KECCAK256 SWAP1 JUMPDEST DUP2 SLOAD DUP2 MSTORE SWAP1 PUSH1 0x1 ADD SWAP1 PUSH1 0x20 ADD DUP1 DUP4 GT PUSH2 0xDBB JUMPI DUP3 SWAP1 SUB PUSH1 0x1F AND DUP3 ADD SWAP2 JUMPDEST POP POP POP POP POP DUP2 PUSH1 0x20 ADD DUP2 SWAP1 MSTORE POP PUSH2 0xDEE DUP2 PUSH2 0x2CC2 JUMP JUMPDEST POP POP POP POP JUMP JUMPDEST PUSH1 0x9 SLOAD DUP2 JUMP JUMPDEST PUSH1 0x0 PUSH1 0x6 PUSH1 0x0 CALLER PUSH20 0xFFFFFFFFFFFFFFFFFFFFFFFFFFFFFFFFFFFFFFFF AND PUSH20 0xFFFFFFFFFFFFFFFFFFFFFFFFFFFFFFFFFFFFFFFF AND DUP2 MSTORE PUSH1 0x20 ADD SWAP1 DUP2 MSTORE PUSH1 0x20 ADD PUSH1 0x0 KECCAK256 SLOAD SWAP1 POP PUSH1 0x0 DUP2 EQ ISZERO PUSH2 0xE82 JUMPI PUSH1 0x40 MLOAD PUSH32 0x8C379A000000000000000000000000000000000000000000000000000000000 DUP2 MSTORE PUSH1 0x4 ADD PUSH2 0xE79 SWAP1 PUSH2 0x3E47 JUMP JUMPDEST PUSH1 0x40 MLOAD DUP1 SWAP2 SUB SWAP1 REVERT JUMPDEST DUP7 PUSH1 0x4 PUSH1 0x0 DUP11 DUP2 MSTORE PUSH1 0x20 ADD SWAP1 DUP2 MSTORE PUSH1 0x20 ADD PUSH1 0x0 KECCAK256 PUSH1 0xA ADD SWAP1 DUP1 MLOAD SWAP1 PUSH1 0x20 ADD SWAP1 PUSH2 0xEAC SWAP3 SWAP2 SWAP1 PUSH2 0x32B5 JUMP JUMPDEST POP DUP6 PUSH1 0x4 PUSH1 0x0 DUP11 DUP2 MSTORE PUSH1 0x20 ADD SWAP1 DUP2 MSTORE PUSH1 0x20 ADD PUSH1 0x0 KECCAK256 PUSH1 0xB ADD SWAP1 DUP1 MLOAD SWAP1 PUSH1 0x20 ADD SWAP1 PUSH2 0xED7 SWAP3 SWAP2 SWAP1 PUSH2 0x32B5 JUMP JUMPDEST POP DUP5 PUSH1 0x4 PUSH1 0x0 DUP11 DUP2 MSTORE PUSH1 0x20 ADD SWAP1 DUP2 MSTORE PUSH1 0x20 ADD PUSH1 0x0 KECCAK256 PUSH1 0xC ADD SWAP1 DUP1 MLOAD SWAP1 PUSH1 0x20 ADD SWAP1 PUSH2 0xF02 SWAP3 SWAP2 SWAP1 PUSH2 0x32B5 JUMP JUMPDEST POP DUP4 PUSH1 0x4 PUSH1 0x0 DUP11 DUP2 MSTORE PUSH1 0x20 ADD SWAP1 DUP2 MSTORE PUSH1 0x20 ADD PUSH1 0x0 KECCAK256 PUSH1 0xD ADD DUP2 SWAP1 SSTORE POP DUP3 PUSH1 0x4 PUSH1 0x0 DUP11 DUP2 MSTORE PUSH1 0x20 ADD SWAP1 DUP2 MSTORE PUSH1 0x20 ADD PUSH1 0x0 KECCAK256 PUSH1 0xE ADD DUP2 SWAP1 SSTORE POP DUP2 PUSH1 0x4 PUSH1 0x0 DUP11 DUP2 MSTORE PUSH1 0x20 ADD SWAP1 DUP2 MSTORE PUSH1 0x20 ADD PUSH1 0x0 KECCAK256 PUSH1 0xF ADD SWAP1 DUP1 MLOAD SWAP1 PUSH1 0x20 ADD SWAP1 PUSH2 0xF63 SWAP3 SWAP2 SWAP1 PUSH2 0x32B5 JUMP JUMPDEST POP PUSH1 0xF PUSH1 0x1 PUSH1 0x0 SWAP1 SLOAD SWAP1 PUSH2 0x100 EXP SWAP1 DIV PUSH20 0xFFFFFFFFFFFFFFFFFFFFFFFFFFFFFFFFFFFFFFFF AND PUSH20 0xFFFFFFFFFFFFFFFFFFFFFFFFFFFFFFFFFFFFFFFF AND PUSH4 0xDD62ED3E PUSH1 0x0 DUP1 SWAP1 SLOAD SWAP1 PUSH2 0x100 EXP SWAP1 DIV PUSH20 0xFFFFFFFFFFFFFFFFFFFFFFFFFFFFFFFFFFFFFFFF AND ADDRESS PUSH1 0x40 MLOAD DUP4 PUSH4 0xFFFFFFFF AND PUSH1 0xE0 SHL DUP2 MSTORE PUSH1 0x4 ADD PUSH2 0xFE4 SWAP3 SWAP2 SWAP1 PUSH2 0x3C3E JUMP JUMPDEST PUSH1 0x20 PUSH1 0x40 MLOAD DUP1 DUP4 SUB DUP2 DUP7 DUP1 EXTCODESIZE ISZERO DUP1 ISZERO PUSH2 0xFFC JUMPI PUSH1 0x0 DUP1 REVERT JUMPDEST POP GAS STATICCALL ISZERO DUP1 ISZERO PUSH2 0x1010 JUMPI RETURNDATASIZE PUSH1 0x0 DUP1 RETURNDATACOPY RETURNDATASIZE PUSH1 0x0 REVERT JUMPDEST POP POP POP POP PUSH1 0x40 MLOAD RETURNDATASIZE PUSH1 0x1F NOT PUSH1 0x1F DUP3 ADD AND DUP3 ADD DUP1 PUSH1 0x40 MSTORE POP PUSH2 0x1034 SWAP2 SWAP1 DUP2 ADD SWAP1 PUSH2 0x362C JUMP JUMPDEST LT ISZERO PUSH2 0x1075 JUMPI PUSH1 0x40 MLOAD PUSH32 0x8C379A000000000000000000000000000000000000000000000000000000000 DUP2 MSTORE PUSH1 0x4 ADD PUSH2 0x106C SWAP1 PUSH2 0x3E07 JUMP JUMPDEST PUSH1 0x40 MLOAD DUP1 SWAP2 SUB SWAP1 REVERT JUMPDEST PUSH1 0x1 PUSH1 0x0 SWAP1 SLOAD SWAP1 PUSH2 0x100 EXP SWAP1 DIV PUSH20 0xFFFFFFFFFFFFFFFFFFFFFFFFFFFFFFFFFFFFFFFF AND PUSH20 0xFFFFFFFFFFFFFFFFFFFFFFFFFFFFFFFFFFFFFFFF AND PUSH4 0x23B872DD PUSH1 0x0 DUP1 SWAP1 SLOAD SWAP1 PUSH2 0x100 EXP SWAP1 DIV PUSH20 0xFFFFFFFFFFFFFFFFFFFFFFFFFFFFFFFFFFFFFFFF AND CALLER PUSH1 0xF PUSH1 0x40 MLOAD DUP5 PUSH4 0xFFFFFFFF AND PUSH1 0xE0 SHL DUP2 MSTORE PUSH1 0x4 ADD PUSH2 0x10F6 SWAP4 SWAP3 SWAP2 SWAP1 PUSH2 0x3C67 JUMP JUMPDEST PUSH1 0x20 PUSH1 0x40 MLOAD DUP1 DUP4 SUB DUP2 PUSH1 0x0 DUP8 DUP1 EXTCODESIZE ISZERO DUP1 ISZERO PUSH2 0x1110 JUMPI PUSH1 0x0 DUP1 REVERT JUMPDEST POP GAS CALL ISZERO DUP1 ISZERO PUSH2 0x1124 JUMPI RETURNDATASIZE PUSH1 0x0 DUP1 RETURNDATACOPY RETURNDATASIZE PUSH1 0x0 REVERT JUMPDEST POP POP POP POP PUSH1 0x40 MLOAD RETURNDATASIZE PUSH1 0x1F NOT PUSH1 0x1F DUP3 ADD AND DUP3 ADD DUP1 PUSH1 0x40 MSTORE POP PUSH2 0x1148 SWAP2 SWAP1 DUP2 ADD SWAP1 PUSH2 0x352D JUMP JUMPDEST PUSH2 0x1187 JUMPI PUSH1 0x40 MLOAD PUSH32 0x8C379A000000000000000000000000000000000000000000000000000000000 DUP2 MSTORE PUSH1 0x4 ADD PUSH2 0x117E SWAP1 PUSH2 0x3E67 JUMP JUMPDEST PUSH1 0x40 MLOAD DUP1 SWAP2 SUB SWAP1 REVERT JUMPDEST POP POP POP POP POP POP POP POP JUMP JUMPDEST PUSH1 0x8 SLOAD DUP2 JUMP JUMPDEST PUSH1 0x7 PUSH1 0x20 MSTORE DUP1 PUSH1 0x0 MSTORE PUSH1 0x40 PUSH1 0x0 KECCAK256 PUSH1 0x0 SWAP2 POP SWAP1 POP DUP1 PUSH1 0x0 ADD SLOAD SWAP1 DUP1 PUSH1 0x1 ADD DUP1 SLOAD PUSH1 0x1 DUP2 PUSH1 0x1 AND ISZERO PUSH2 0x100 MUL SUB AND PUSH1 0x2 SWAP1 DIV DUP1 PUSH1 0x1F ADD PUSH1 0x20 DUP1 SWAP2 DIV MUL PUSH1 0x20 ADD PUSH1 0x40 MLOAD SWAP1 DUP2 ADD PUSH1 0x40 MSTORE DUP1 SWAP3 SWAP2 SWAP1 DUP2 DUP2 MSTORE PUSH1 0x20 ADD DUP3 DUP1 SLOAD PUSH1 0x1 DUP2 PUSH1 0x1 AND ISZERO PUSH2 0x100 MUL SUB AND PUSH1 0x2 SWAP1 DIV DUP1 ISZERO PUSH2 0x1249 JUMPI DUP1 PUSH1 0x1F LT PUSH2 0x121E JUMPI PUSH2 0x100 DUP1 DUP4 SLOAD DIV MUL DUP4 MSTORE SWAP2 PUSH1 0x20 ADD SWAP2 PUSH2 0x1249 JUMP JUMPDEST DUP3 ADD SWAP2 SWAP1 PUSH1 0x0 MSTORE PUSH1 0x20 PUSH1 0x0 KECCAK256 SWAP1 JUMPDEST DUP2 SLOAD DUP2 MSTORE SWAP1 PUSH1 0x1 ADD SWAP1 PUSH1 0x20 ADD DUP1 DUP4 GT PUSH2 0x122C JUMPI DUP3 SWAP1 SUB PUSH1 0x1F AND DUP3 ADD SWAP2 JUMPDEST POP POP POP POP POP SWAP1 DUP1 PUSH1 0x2 ADD SLOAD SWAP1 DUP1 PUSH1 0x3 ADD DUP1 SLOAD PUSH1 0x1 DUP2 PUSH1 0x1 AND ISZERO PUSH2 0x100 MUL SUB AND PUSH1 0x2 SWAP1 DIV DUP1 PUSH1 0x1F ADD PUSH1 0x20 DUP1 SWAP2 DIV MUL PUSH1 0x20 ADD PUSH1 0x40 MLOAD SWAP1 DUP2 ADD PUSH1 0x40 MSTORE DUP1 SWAP3 SWAP2 SWAP1 DUP2 DUP2 MSTORE PUSH1 0x20 ADD DUP3 DUP1 SLOAD PUSH1 0x1 DUP2 PUSH1 0x1 AND ISZERO PUSH2 0x100 MUL SUB AND PUSH1 0x2 SWAP1 DIV DUP1 ISZERO PUSH2 0x12ED JUMPI DUP1 PUSH1 0x1F LT PUSH2 0x12C2 JUMPI PUSH2 0x100 DUP1 DUP4 SLOAD DIV MUL DUP4 MSTORE SWAP2 PUSH1 0x20 ADD SWAP2 PUSH2 0x12ED JUMP JUMPDEST DUP3 ADD SWAP2 SWAP1 PUSH1 0x0 MSTORE PUSH1 0x20 PUSH1 0x0 KECCAK256 SWAP1 JUMPDEST DUP2 SLOAD DUP2 MSTORE SWAP1 PUSH1 0x1 ADD SWAP1 PUSH1 0x20 ADD DUP1 DUP4 GT PUSH2 0x12D0 JUMPI DUP3 SWAP1 SUB PUSH1 0x1F AND DUP3 ADD SWAP2 JUMPDEST POP POP POP POP POP SWAP1 DUP1 PUSH1 0x4 ADD DUP1 SLOAD PUSH1 0x1 DUP2 PUSH1 0x1 AND ISZERO PUSH2 0x100 MUL SUB AND PUSH1 0x2 SWAP1 DIV DUP1 PUSH1 0x1F ADD PUSH1 0x20 DUP1 SWAP2 DIV MUL PUSH1 0x20 ADD PUSH1 0x40 MLOAD SWAP1 DUP2 ADD PUSH1 0x40 MSTORE DUP1 SWAP3 SWAP2 SWAP1 DUP2 DUP2 MSTORE PUSH1 0x20 ADD DUP3 DUP1 SLOAD PUSH1 0x1 DUP2 PUSH1 0x1 AND ISZERO PUSH2 0x100 MUL SUB AND PUSH1 0x2 SWAP1 DIV DUP1 ISZERO PUSH2 0x138B JUMPI DUP1 PUSH1 0x1F LT PUSH2 0x1360 JUMPI PUSH2 0x100 DUP1 DUP4 SLOAD DIV MUL DUP4 MSTORE SWAP2 PUSH1 0x20 ADD SWAP2 PUSH2 0x138B JUMP JUMPDEST DUP3 ADD SWAP2 SWAP1 PUSH1 0x0 MSTORE PUSH1 0x20 PUSH1 0x0 KECCAK256 SWAP1 JUMPDEST DUP2 SLOAD DUP2 MSTORE SWAP1 PUSH1 0x1 ADD SWAP1 PUSH1 0x20 ADD DUP1 DUP4 GT PUSH2 0x136E JUMPI DUP3 SWAP1 SUB PUSH1 0x1F AND DUP3 ADD SWAP2 JUMPDEST POP POP POP POP POP SWAP1 DUP1 PUSH1 0x5 ADD DUP1 SLOAD PUSH1 0x1 DUP2 PUSH1 0x1 AND ISZERO PUSH2 0x100 MUL SUB AND PUSH1 0x2 SWAP1 DIV DUP1 PUSH1 0x1F ADD PUSH1 0x20 DUP1 SWAP2 DIV MUL PUSH1 0x20 ADD PUSH1 0x40 MLOAD SWAP1 DUP2 ADD PUSH1 0x40 MSTORE DUP1 SWAP3 SWAP2 SWAP1 DUP2 DUP2 MSTORE PUSH1 0x20 ADD DUP3 DUP1 SLOAD PUSH1 0x1 DUP2 PUSH1 0x1 AND ISZERO PUSH2 0x100 MUL SUB AND PUSH1 0x2 SWAP1 DIV DUP1 ISZERO PUSH2 0x1429 JUMPI DUP1 PUSH1 0x1F LT PUSH2 0x13FE JUMPI PUSH2 0x100 DUP1 DUP4 SLOAD DIV MUL DUP4 MSTORE SWAP2 PUSH1 0x20 ADD SWAP2 PUSH2 0x1429 JUMP JUMPDEST DUP3 ADD SWAP2 SWAP1 PUSH1 0x0 MSTORE PUSH1 0x20 PUSH1 0x0 KECCAK256 SWAP1 JUMPDEST DUP2 SLOAD DUP2 MSTORE SWAP1 PUSH1 0x1 ADD SWAP1 PUSH1 0x20 ADD DUP1 DUP4 GT PUSH2 0x140C JUMPI DUP3 SWAP1 SUB PUSH1 0x1F AND DUP3 ADD SWAP2 JUMPDEST POP POP POP POP POP SWAP1 DUP1 PUSH1 0x6 ADD DUP1 SLOAD PUSH1 0x1 DUP2 PUSH1 0x1 AND ISZERO PUSH2 0x100 MUL SUB AND PUSH1 0x2 SWAP1 DIV DUP1 PUSH1 0x1F ADD PUSH1 0x20 DUP1 SWAP2 DIV MUL PUSH1 0x20 ADD PUSH1 0x40 MLOAD SWAP1 DUP2 ADD PUSH1 0x40 MSTORE DUP1 SWAP3 SWAP2 SWAP1 DUP2 DUP2 MSTORE PUSH1 0x20 ADD DUP3 DUP1 SLOAD PUSH1 0x1 DUP2 PUSH1 0x1 AND ISZERO PUSH2 0x100 MUL SUB AND PUSH1 0x2 SWAP1 DIV DUP1 ISZERO PUSH2 0x14C7 JUMPI DUP1 PUSH1 0x1F LT PUSH2 0x149C JUMPI PUSH2 0x100 DUP1 DUP4 SLOAD DIV MUL DUP4 MSTORE SWAP2 PUSH1 0x20 ADD SWAP2 PUSH2 0x14C7 JUMP JUMPDEST DUP3 ADD SWAP2 SWAP1 PUSH1 0x0 MSTORE PUSH1 0x20 PUSH1 0x0 KECCAK256 SWAP1 JUMPDEST DUP2 SLOAD DUP2 MSTORE SWAP1 PUSH1 0x1 ADD SWAP1 PUSH1 0x20 ADD DUP1 DUP4 GT PUSH2 0x14AA JUMPI DUP3 SWAP1 SUB PUSH1 0x1F AND DUP3 ADD SWAP2 JUMPDEST POP POP POP POP POP SWAP1 DUP1 PUSH1 0x7 ADD SLOAD SWAP1 POP DUP9 JUMP JUMPDEST PUSH1 0x5 PUSH1 0x20 MSTORE DUP1 PUSH1 0x0 MSTORE PUSH1 0x40 PUSH1 0x0 KECCAK256 PUSH1 0x0 SWAP2 POP SWAP1 POP DUP1 PUSH1 0x0 ADD DUP1 SLOAD PUSH1 0x1 DUP2 PUSH1 0x1 AND ISZERO PUSH2 0x100 MUL SUB AND PUSH1 0x2 SWAP1 DIV DUP1 PUSH1 0x1F ADD PUSH1 0x20 DUP1 SWAP2 DIV MUL PUSH1 0x20 ADD PUSH1 0x40 MLOAD SWAP1 DUP2 ADD PUSH1 0x40 MSTORE DUP1 SWAP3 SWAP2 SWAP1 DUP2 DUP2 MSTORE PUSH1 0x20 ADD DUP3 DUP1 SLOAD PUSH1 0x1 DUP2 PUSH1 0x1 AND ISZERO PUSH2 0x100 MUL SUB AND PUSH1 0x2 SWAP1 DIV DUP1 ISZERO PUSH2 0x1583 JUMPI DUP1 PUSH1 0x1F LT PUSH2 0x1558 JUMPI PUSH2 0x100 DUP1 DUP4 SLOAD DIV MUL DUP4 MSTORE SWAP2 PUSH1 0x20 ADD SWAP2 PUSH2 0x1583 JUMP JUMPDEST DUP3 ADD SWAP2 SWAP1 PUSH1 0x0 MSTORE PUSH1 0x20 PUSH1 0x0 KECCAK256 SWAP1 JUMPDEST DUP2 SLOAD DUP2 MSTORE SWAP1 PUSH1 0x1 ADD SWAP1 PUSH1 0x20 ADD DUP1 DUP4 GT PUSH2 0x1566 JUMPI DUP3 SWAP1 SUB PUSH1 0x1F AND DUP3 ADD SWAP2 JUMPDEST POP POP POP POP POP SWAP1 DUP1 PUSH1 0x1 ADD DUP1 SLOAD PUSH1 0x1 DUP2 PUSH1 0x1 AND ISZERO PUSH2 0x100 MUL SUB AND PUSH1 0x2 SWAP1 DIV DUP1 PUSH1 0x1F ADD PUSH1 0x20 DUP1 SWAP2 DIV MUL PUSH1 0x20 ADD PUSH1 0x40 MLOAD SWAP1 DUP2 ADD PUSH1 0x40 MSTORE DUP1 SWAP3 SWAP2 SWAP1 DUP2 DUP2 MSTORE PUSH1 0x20 ADD DUP3 DUP1 SLOAD PUSH1 0x1 DUP2 PUSH1 0x1 AND ISZERO PUSH2 0x100 MUL SUB AND PUSH1 0x2 SWAP1 DIV DUP1 ISZERO PUSH2 0x1621 JUMPI DUP1 PUSH1 0x1F LT PUSH2 0x15F6 JUMPI PUSH2 0x100 DUP1 DUP4 SLOAD DIV MUL DUP4 MSTORE SWAP2 PUSH1 0x20 ADD SWAP2 PUSH2 0x1621 JUMP JUMPDEST DUP3 ADD SWAP2 SWAP1 PUSH1 0x0 MSTORE PUSH1 0x20 PUSH1 0x0 KECCAK256 SWAP1 JUMPDEST DUP2 SLOAD DUP2 MSTORE SWAP1 PUSH1 0x1 ADD SWAP1 PUSH1 0x20 ADD DUP1 DUP4 GT PUSH2 0x1604 JUMPI DUP3 SWAP1 SUB PUSH1 0x1F AND DUP3 ADD SWAP2 JUMPDEST POP POP POP POP POP SWAP1 DUP1 PUSH1 0x2 ADD SLOAD SWAP1 DUP1 PUSH1 0x3 ADD DUP1 SLOAD PUSH1 0x1 DUP2 PUSH1 0x1 AND ISZERO PUSH2 0x100 MUL SUB AND PUSH1 0x2 SWAP1 DIV DUP1 PUSH1 0x1F ADD PUSH1 0x20 DUP1 SWAP2 DIV MUL PUSH1 0x20 ADD PUSH1 0x40 MLOAD SWAP1 DUP2 ADD PUSH1 0x40 MSTORE DUP1 SWAP3 SWAP2 SWAP1 DUP2 DUP2 MSTORE PUSH1 0x20 ADD DUP3 DUP1 SLOAD PUSH1 0x1 DUP2 PUSH1 0x1 AND ISZERO PUSH2 0x100 MUL SUB AND PUSH1 0x2 SWAP1 DIV DUP1 ISZERO PUSH2 0x16C5 JUMPI DUP1 PUSH1 0x1F LT PUSH2 0x169A JUMPI PUSH2 0x100 DUP1 DUP4 SLOAD DIV MUL DUP4 MSTORE SWAP2 PUSH1 0x20 ADD SWAP2 PUSH2 0x16C5 JUMP JUMPDEST DUP3 ADD SWAP2 SWAP1 PUSH1 0x0 MSTORE PUSH1 0x20 PUSH1 0x0 KECCAK256 SWAP1 JUMPDEST DUP2 SLOAD DUP2 MSTORE SWAP1 PUSH1 0x1 ADD SWAP1 PUSH1 0x20 ADD DUP1 DUP4 GT PUSH2 0x16A8 JUMPI DUP3 SWAP1 SUB PUSH1 0x1F AND DUP3 ADD SWAP2 JUMPDEST POP POP POP POP POP SWAP1 DUP1 PUSH1 0x4 ADD DUP1 SLOAD PUSH1 0x1 DUP2 PUSH1 0x1 AND ISZERO PUSH2 0x100 MUL SUB AND PUSH1 0x2 SWAP1 DIV DUP1 PUSH1 0x1F ADD PUSH1 0x20 DUP1 SWAP2 DIV MUL PUSH1 0x20 ADD PUSH1 0x40 MLOAD SWAP1 DUP2 ADD PUSH1 0x40 MSTORE DUP1 SWAP3 SWAP2 SWAP1 DUP2 DUP2 MSTORE PUSH1 0x20 ADD DUP3 DUP1 SLOAD PUSH1 0x1 DUP2 PUSH1 0x1 AND ISZERO PUSH2 0x100 MUL SUB AND PUSH1 0x2 SWAP1 DIV DUP1 ISZERO PUSH2 0x1763 JUMPI DUP1 PUSH1 0x1F LT PUSH2 0x1738 JUMPI PUSH2 0x100 DUP1 DUP4 SLOAD DIV MUL DUP4 MSTORE SWAP2 PUSH1 0x20 ADD SWAP2 PUSH2 0x1763 JUMP JUMPDEST DUP3 ADD SWAP2 SWAP1 PUSH1 0x0 MSTORE PUSH1 0x20 PUSH1 0x0 KECCAK256 SWAP1 JUMPDEST DUP2 SLOAD DUP2 MSTORE SWAP1 PUSH1 0x1 ADD SWAP1 PUSH1 0x20 ADD DUP1 DUP4 GT PUSH2 0x1746 JUMPI DUP3 SWAP1 SUB PUSH1 0x1F AND DUP3 ADD SWAP2 JUMPDEST POP POP POP POP POP SWAP1 DUP1 PUSH1 0x5 ADD DUP1 SLOAD PUSH1 0x1 DUP2 PUSH1 0x1 AND ISZERO PUSH2 0x100 MUL SUB AND PUSH1 0x2 SWAP1 DIV DUP1 PUSH1 0x1F ADD PUSH1 0x20 DUP1 SWAP2 DIV MUL PUSH1 0x20 ADD PUSH1 0x40 MLOAD SWAP1 DUP2 ADD PUSH1 0x40 MSTORE DUP1 SWAP3 SWAP2 SWAP1 DUP2 DUP2 MSTORE PUSH1 0x20 ADD DUP3 DUP1 SLOAD PUSH1 0x1 DUP2 PUSH1 0x1 AND ISZERO PUSH2 0x100 MUL SUB AND PUSH1 0x2 SWAP1 DIV DUP1 ISZERO PUSH2 0x1801 JUMPI DUP1 PUSH1 0x1F LT PUSH2 0x17D6 JUMPI PUSH2 0x100 DUP1 DUP4 SLOAD DIV MUL DUP4 MSTORE SWAP2 PUSH1 0x20 ADD SWAP2 PUSH2 0x1801 JUMP JUMPDEST DUP3 ADD SWAP2 SWAP1 PUSH1 0x0 MSTORE PUSH1 0x20 PUSH1 0x0 KECCAK256 SWAP1 JUMPDEST DUP2 SLOAD DUP2 MSTORE SWAP1 PUSH1 0x1 ADD SWAP1 PUSH1 0x20 ADD DUP1 DUP4 GT PUSH2 0x17E4 JUMPI DUP3 SWAP1 SUB PUSH1 0x1F AND DUP3 ADD SWAP2 JUMPDEST POP POP POP POP POP SWAP1 DUP1 PUSH1 0x6 ADD DUP1 SLOAD PUSH1 0x1 DUP2 PUSH1 0x1 AND ISZERO PUSH2 0x100 MUL SUB AND PUSH1 0x2 SWAP1 DIV DUP1 PUSH1 0x1F ADD PUSH1 0x20 DUP1 SWAP2 DIV MUL PUSH1 0x20 ADD PUSH1 0x40 MLOAD SWAP1 DUP2 ADD PUSH1 0x40 MSTORE DUP1 SWAP3 SWAP2 SWAP1 DUP2 DUP2 MSTORE PUSH1 0x20 ADD DUP3 DUP1 SLOAD PUSH1 0x1 DUP2 PUSH1 0x1 AND ISZERO PUSH2 0x100 MUL SUB AND PUSH1 0x2 SWAP1 DIV DUP1 ISZERO PUSH2 0x189F JUMPI DUP1 PUSH1 0x1F LT PUSH2 0x1874 JUMPI PUSH2 0x100 DUP1 DUP4 SLOAD DIV MUL DUP4 MSTORE SWAP2 PUSH1 0x20 ADD SWAP2 PUSH2 0x189F JUMP JUMPDEST DUP3 ADD SWAP2 SWAP1 PUSH1 0x0 MSTORE PUSH1 0x20 PUSH1 0x0 KECCAK256 SWAP1 JUMPDEST DUP2 SLOAD DUP2 MSTORE SWAP1 PUSH1 0x1 ADD SWAP1 PUSH1 0x20 ADD DUP1 DUP4 GT PUSH2 0x1882 JUMPI DUP3 SWAP1 SUB PUSH1 0x1F AND DUP3 ADD SWAP2 JUMPDEST POP POP POP POP POP SWAP1 DUP1 PUSH1 0x7 ADD DUP1 SLOAD PUSH1 0x1 DUP2 PUSH1 0x1 AND ISZERO PUSH2 0x100 MUL SUB AND PUSH1 0x2 SWAP1 DIV DUP1 PUSH1 0x1F ADD PUSH1 0x20 DUP1 SWAP2 DIV MUL PUSH1 0x20 ADD PUSH1 0x40 MLOAD SWAP1 DUP2 ADD PUSH1 0x40 MSTORE DUP1 SWAP3 SWAP2 SWAP1 DUP2 DUP2 MSTORE PUSH1 0x20 ADD DUP3 DUP1 SLOAD PUSH1 0x1 DUP2 PUSH1 0x1 AND ISZERO PUSH2 0x100 MUL SUB AND PUSH1 0x2 SWAP1 DIV DUP1 ISZERO PUSH2 0x193D JUMPI DUP1 PUSH1 0x1F LT PUSH2 0x1912 JUMPI PUSH2 0x100 DUP1 DUP4 SLOAD DIV MUL DUP4 MSTORE SWAP2 PUSH1 0x20 ADD SWAP2 PUSH2 0x193D JUMP JUMPDEST DUP3 ADD SWAP2 SWAP1 PUSH1 0x0 MSTORE PUSH1 0x20 PUSH1 0x0 KECCAK256 SWAP1 JUMPDEST DUP2 SLOAD DUP2 MSTORE SWAP1 PUSH1 0x1 ADD SWAP1 PUSH1 0x20 ADD DUP1 DUP4 GT PUSH2 0x1920 JUMPI DUP3 SWAP1 SUB PUSH1 0x1F AND DUP3 ADD SWAP2 JUMPDEST POP POP POP POP POP SWAP1 DUP1 PUSH1 0x8 ADD DUP1 SLOAD PUSH1 0x1 DUP2 PUSH1 0x1 AND ISZERO PUSH2 0x100 MUL SUB AND PUSH1 0x2 SWAP1 DIV DUP1 PUSH1 0x1F ADD PUSH1 0x20 DUP1 SWAP2 DIV MUL PUSH1 0x20 ADD PUSH1 0x40 MLOAD SWAP1 DUP2 ADD PUSH1 0x40 MSTORE DUP1 SWAP3 SWAP2 SWAP1 DUP2 DUP2 MSTORE PUSH1 0x20 ADD DUP3 DUP1 SLOAD PUSH1 0x1 DUP2 PUSH1 0x1 AND ISZERO PUSH2 0x100 MUL SUB AND PUSH1 0x2 SWAP1 DIV DUP1 ISZERO PUSH2 0x19DB JUMPI DUP1 PUSH1 0x1F LT PUSH2 0x19B0 JUMPI PUSH2 0x100 DUP1 DUP4 SLOAD DIV MUL DUP4 MSTORE SWAP2 PUSH1 0x20 ADD SWAP2 PUSH2 0x19DB JUMP JUMPDEST DUP3 ADD SWAP2 SWAP1 PUSH1 0x0 MSTORE PUSH1 0x20 PUSH1 0x0 KECCAK256 SWAP1 JUMPDEST DUP2 SLOAD DUP2 MSTORE SWAP1 PUSH1 0x1 ADD SWAP1 PUSH1 0x20 ADD DUP1 DUP4 GT PUSH2 0x19BE JUMPI DUP3 SWAP1 SUB PUSH1 0x1F AND DUP3 ADD SWAP2 JUMPDEST POP POP POP POP POP SWAP1 POP DUP10 JUMP JUMPDEST PUSH2 0x19ED PUSH2 0x3335 JUMP JUMPDEST DUP2 DUP2 PUSH1 0x0 ADD DUP2 SWAP1 MSTORE POP PUSH2 0x1A00 DUP2 CALLER PUSH2 0x2D9E JUMP JUMPDEST POP POP JUMP JUMPDEST PUSH1 0x0 PUSH1 0x3 PUSH1 0x0 CALLER PUSH20 0xFFFFFFFFFFFFFFFFFFFFFFFFFFFFFFFFFFFFFFFF AND PUSH20 0xFFFFFFFFFFFFFFFFFFFFFFFFFFFFFFFFFFFFFFFF AND DUP2 MSTORE PUSH1 0x20 ADD SWAP1 DUP2 MSTORE PUSH1 0x20 ADD PUSH1 0x0 KECCAK256 SLOAD SWAP1 POP PUSH1 0x0 DUP2 EQ ISZERO PUSH2 0x1A8C JUMPI PUSH1 0x40 MLOAD PUSH32 0x8C379A000000000000000000000000000000000000000000000000000000000 DUP2 MSTORE PUSH1 0x4 ADD PUSH2 0x1A83 SWAP1 PUSH2 0x3DE7 JUMP JUMPDEST PUSH1 0x40 MLOAD DUP1 SWAP2 SUB SWAP1 REVERT JUMPDEST PUSH2 0x1A94 PUSH2 0x31F3 JUMP JUMPDEST DUP4 DUP2 PUSH1 0x0 ADD DUP2 SWAP1 MSTORE POP DUP3 DUP2 PUSH1 0x20 ADD DUP2 SWAP1 MSTORE POP PUSH2 0x1AAF DUP2 PUSH2 0x2EAD JUMP JUMPDEST POP POP POP POP JUMP JUMPDEST PUSH2 0x1ABD PUSH2 0x31F3 JUMP JUMPDEST PUSH1 0x4 PUSH1 0x0 DUP4 DUP2 MSTORE PUSH1 0x20 ADD SWAP1 DUP2 MSTORE PUSH1 0x20 ADD PUSH1 0x0 KECCAK256 PUSH1 0x40 MLOAD DUP1 PUSH2 0x200 ADD PUSH1 0x40 MSTORE SWAP1 DUP2 PUSH1 0x0 DUP3 ADD DUP1 SLOAD PUSH1 0x1 DUP2 PUSH1 0x1 AND ISZERO PUSH2 0x100 MUL SUB AND PUSH1 0x2 SWAP1 DIV DUP1 PUSH1 0x1F ADD PUSH1 0x20 DUP1 SWAP2 DIV MUL PUSH1 0x20 ADD PUSH1 0x40 MLOAD SWAP1 DUP2 ADD PUSH1 0x40 MSTORE DUP1 SWAP3 SWAP2 SWAP1 DUP2 DUP2 MSTORE PUSH1 0x20 ADD DUP3 DUP1 SLOAD PUSH1 0x1 DUP2 PUSH1 0x1 AND ISZERO PUSH2 0x100 MUL SUB AND PUSH1 0x2 SWAP1 DIV DUP1 ISZERO PUSH2 0x1B75 JUMPI DUP1 PUSH1 0x1F LT PUSH2 0x1B4A JUMPI PUSH2 0x100 DUP1 DUP4 SLOAD DIV MUL DUP4 MSTORE SWAP2 PUSH1 0x20 ADD SWAP2 PUSH2 0x1B75 JUMP JUMPDEST DUP3 ADD SWAP2 SWAP1 PUSH1 0x0 MSTORE PUSH1 0x20 PUSH1 0x0 KECCAK256 SWAP1 JUMPDEST DUP2 SLOAD DUP2 MSTORE SWAP1 PUSH1 0x1 ADD SWAP1 PUSH1 0x20 ADD DUP1 DUP4 GT PUSH2 0x1B58 JUMPI DUP3 SWAP1 SUB PUSH1 0x1F AND DUP3 ADD SWAP2 JUMPDEST POP POP POP POP POP DUP2 MSTORE PUSH1 0x20 ADD PUSH1 0x1 DUP3 ADD DUP1 SLOAD PUSH1 0x1 DUP2 PUSH1 0x1 AND ISZERO PUSH2 0x100 MUL SUB AND PUSH1 0x2 SWAP1 DIV DUP1 PUSH1 0x1F ADD PUSH1 0x20 DUP1 SWAP2 DIV MUL PUSH1 0x20 ADD PUSH1 0x40 MLOAD SWAP1 DUP2 ADD PUSH1 0x40 MSTORE DUP1 SWAP3 SWAP2 SWAP1 DUP2 DUP2 MSTORE PUSH1 0x20 ADD DUP3 DUP1 SLOAD PUSH1 0x1 DUP2 PUSH1 0x1 AND ISZERO PUSH2 0x100 MUL SUB AND PUSH1 0x2 SWAP1 DIV DUP1 ISZERO PUSH2 0x1C17 JUMPI DUP1 PUSH1 0x1F LT PUSH2 0x1BEC JUMPI PUSH2 0x100 DUP1 DUP4 SLOAD DIV MUL DUP4 MSTORE SWAP2 PUSH1 0x20 ADD SWAP2 PUSH2 0x1C17 JUMP JUMPDEST DUP3 ADD SWAP2 SWAP1 PUSH1 0x0 MSTORE PUSH1 0x20 PUSH1 0x0 KECCAK256 SWAP1 JUMPDEST DUP2 SLOAD DUP2 MSTORE SWAP1 PUSH1 0x1 ADD SWAP1 PUSH1 0x20 ADD DUP1 DUP4 GT PUSH2 0x1BFA JUMPI DUP3 SWAP1 SUB PUSH1 0x1F AND DUP3 ADD SWAP2 JUMPDEST POP POP POP POP POP DUP2 MSTORE PUSH1 0x20 ADD PUSH1 0x2 DUP3 ADD DUP1 SLOAD PUSH1 0x1 DUP2 PUSH1 0x1 AND ISZERO PUSH2 0x100 MUL SUB AND PUSH1 0x2 SWAP1 DIV DUP1 PUSH1 0x1F ADD PUSH1 0x20 DUP1 SWAP2 DIV MUL PUSH1 0x20 ADD PUSH1 0x40 MLOAD SWAP1 DUP2 ADD PUSH1 0x40 MSTORE DUP1 SWAP3 SWAP2 SWAP1 DUP2 DUP2 MSTORE PUSH1 0x20 ADD DUP3 DUP1 SLOAD PUSH1 0x1 DUP2 PUSH1 0x1 AND ISZERO PUSH2 0x100 MUL SUB AND PUSH1 0x2 SWAP1 DIV DUP1 ISZERO PUSH2 0x1CB9 JUMPI DUP1 PUSH1 0x1F LT PUSH2 0x1C8E JUMPI PUSH2 0x100 DUP1 DUP4 SLOAD DIV MUL DUP4 MSTORE SWAP2 PUSH1 0x20 ADD SWAP2 PUSH2 0x1CB9 JUMP JUMPDEST DUP3 ADD SWAP2 SWAP1 PUSH1 0x0 MSTORE PUSH1 0x20 PUSH1 0x0 KECCAK256 SWAP1 JUMPDEST DUP2 SLOAD DUP2 MSTORE SWAP1 PUSH1 0x1 ADD SWAP1 PUSH1 0x20 ADD DUP1 DUP4 GT PUSH2 0x1C9C JUMPI DUP3 SWAP1 SUB PUSH1 0x1F AND DUP3 ADD SWAP2 JUMPDEST POP POP POP POP POP DUP2 MSTORE PUSH1 0x20 ADD PUSH1 0x3 DUP3 ADD DUP1 SLOAD PUSH1 0x1 DUP2 PUSH1 0x1 AND ISZERO PUSH2 0x100 MUL SUB AND PUSH1 0x2 SWAP1 DIV DUP1 PUSH1 0x1F ADD PUSH1 0x20 DUP1 SWAP2 DIV MUL PUSH1 0x20 ADD PUSH1 0x40 MLOAD SWAP1 DUP2 ADD PUSH1 0x40 MSTORE DUP1 SWAP3 SWAP2 SWAP1 DUP2 DUP2 MSTORE PUSH1 0x20 ADD DUP3 DUP1 SLOAD PUSH1 0x1 DUP2 PUSH1 0x1 AND ISZERO PUSH2 0x100 MUL SUB AND PUSH1 0x2 SWAP1 DIV DUP1 ISZERO PUSH2 0x1D5B JUMPI DUP1 PUSH1 0x1F LT PUSH2 0x1D30 JUMPI PUSH2 0x100 DUP1 DUP4 SLOAD DIV MUL DUP4 MSTORE SWAP2 PUSH1 0x20 ADD SWAP2 PUSH2 0x1D5B JUMP JUMPDEST DUP3 ADD SWAP2 SWAP1 PUSH1 0x0 MSTORE PUSH1 0x20 PUSH1 0x0 KECCAK256 SWAP1 JUMPDEST DUP2 SLOAD DUP2 MSTORE SWAP1 PUSH1 0x1 ADD SWAP1 PUSH1 0x20 ADD DUP1 DUP4 GT PUSH2 0x1D3E JUMPI DUP3 SWAP1 SUB PUSH1 0x1F AND DUP3 ADD SWAP2 JUMPDEST POP POP POP POP POP DUP2 MSTORE PUSH1 0x20 ADD PUSH1 0x4 DUP3 ADD DUP1 SLOAD PUSH1 0x1 DUP2 PUSH1 0x1 AND ISZERO PUSH2 0x100 MUL SUB AND PUSH1 0x2 SWAP1 DIV DUP1 PUSH1 0x1F ADD PUSH1 0x20 DUP1 SWAP2 DIV MUL PUSH1 0x20 ADD PUSH1 0x40 MLOAD SWAP1 DUP2 ADD PUSH1 0x40 MSTORE DUP1 SWAP3 SWAP2 SWAP1 DUP2 DUP2 MSTORE PUSH1 0x20 ADD DUP3 DUP1 SLOAD PUSH1 0x1 DUP2 PUSH1 0x1 AND ISZERO PUSH2 0x100 MUL SUB AND PUSH1 0x2 SWAP1 DIV DUP1 ISZERO PUSH2 0x1DFD JUMPI DUP1 PUSH1 0x1F LT PUSH2 0x1DD2 JUMPI PUSH2 0x100 DUP1 DUP4 SLOAD DIV MUL DUP4 MSTORE SWAP2 PUSH1 0x20 ADD SWAP2 PUSH2 0x1DFD JUMP JUMPDEST DUP3 ADD SWAP2 SWAP1 PUSH1 0x0 MSTORE PUSH1 0x20 PUSH1 0x0 KECCAK256 SWAP1 JUMPDEST DUP2 SLOAD DUP2 MSTORE SWAP1 PUSH1 0x1 ADD SWAP1 PUSH1 0x20 ADD DUP1 DUP4 GT PUSH2 0x1DE0 JUMPI DUP3 SWAP1 SUB PUSH1 0x1F AND DUP3 ADD SWAP2 JUMPDEST POP POP POP POP POP DUP2 MSTORE PUSH1 0x20 ADD PUSH1 0x5 DUP3 ADD DUP1 SLOAD PUSH1 0x1 DUP2 PUSH1 0x1 AND ISZERO PUSH2 0x100 MUL SUB AND PUSH1 0x2 SWAP1 DIV DUP1 PUSH1 0x1F ADD PUSH1 0x20 DUP1 SWAP2 DIV MUL PUSH1 0x20 ADD PUSH1 0x40 MLOAD SWAP1 DUP2 ADD PUSH1 0x40 MSTORE DUP1 SWAP3 SWAP2 SWAP1 DUP2 DUP2 MSTORE PUSH1 0x20 ADD DUP3 DUP1 SLOAD PUSH1 0x1 DUP2 PUSH1 0x1 AND ISZERO PUSH2 0x100 MUL SUB AND PUSH1 0x2 SWAP1 DIV DUP1 ISZERO PUSH2 0x1E9F JUMPI DUP1 PUSH1 0x1F LT PUSH2 0x1E74 JUMPI PUSH2 0x100 DUP1 DUP4 SLOAD DIV MUL DUP4 MSTORE SWAP2 PUSH1 0x20 ADD SWAP2 PUSH2 0x1E9F JUMP JUMPDEST DUP3 ADD SWAP2 SWAP1 PUSH1 0x0 MSTORE PUSH1 0x20 PUSH1 0x0 KECCAK256 SWAP1 JUMPDEST DUP2 SLOAD DUP2 MSTORE SWAP1 PUSH1 0x1 ADD SWAP1 PUSH1 0x20 ADD DUP1 DUP4 GT PUSH2 0x1E82 JUMPI DUP3 SWAP1 SUB PUSH1 0x1F AND DUP3 ADD SWAP2 JUMPDEST POP POP POP POP POP DUP2 MSTORE PUSH1 0x20 ADD PUSH1 0x6 DUP3 ADD DUP1 SLOAD PUSH1 0x1 DUP2 PUSH1 0x1 AND ISZERO PUSH2 0x100 MUL SUB AND PUSH1 0x2 SWAP1 DIV DUP1 PUSH1 0x1F ADD PUSH1 0x20 DUP1 SWAP2 DIV MUL PUSH1 0x20 ADD PUSH1 0x40 MLOAD SWAP1 DUP2 ADD PUSH1 0x40 MSTORE DUP1 SWAP3 SWAP2 SWAP1 DUP2 DUP2 MSTORE PUSH1 0x20 ADD DUP3 DUP1 SLOAD PUSH1 0x1 DUP2 PUSH1 0x1 AND ISZERO PUSH2 0x100 MUL SUB AND PUSH1 0x2 SWAP1 DIV DUP1 ISZERO PUSH2 0x1F41 JUMPI DUP1 PUSH1 0x1F LT PUSH2 0x1F16 JUMPI PUSH2 0x100 DUP1 DUP4 SLOAD DIV MUL DUP4 MSTORE SWAP2 PUSH1 0x20 ADD SWAP2 PUSH2 0x1F41 JUMP JUMPDEST DUP3 ADD SWAP2 SWAP1 PUSH1 0x0 MSTORE PUSH1 0x20 PUSH1 0x0 KECCAK256 SWAP1 JUMPDEST DUP2 SLOAD DUP2 MSTORE SWAP1 PUSH1 0x1 ADD SWAP1 PUSH1 0x20 ADD DUP1 DUP4 GT PUSH2 0x1F24 JUMPI DUP3 SWAP1 SUB PUSH1 0x1F AND DUP3 ADD SWAP2 JUMPDEST POP POP POP POP POP DUP2 MSTORE PUSH1 0x20 ADD PUSH1 0x7 DUP3 ADD DUP1 SLOAD PUSH1 0x1 DUP2 PUSH1 0x1 AND ISZERO PUSH2 0x100 MUL SUB AND PUSH1 0x2 SWAP1 DIV DUP1 PUSH1 0x1F ADD PUSH1 0x20 DUP1 SWAP2 DIV MUL PUSH1 0x20 ADD PUSH1 0x40 MLOAD SWAP1 DUP2 ADD PUSH1 0x40 MSTORE DUP1 SWAP3 SWAP2 SWAP1 DUP2 DUP2 MSTORE PUSH1 0x20 ADD DUP3 DUP1 SLOAD PUSH1 0x1 DUP2 PUSH1 0x1 AND ISZERO PUSH2 0x100 MUL SUB AND PUSH1 0x2 SWAP1 DIV DUP1 ISZERO PUSH2 0x1FE3 JUMPI DUP1 PUSH1 0x1F LT PUSH2 0x1FB8 JUMPI PUSH2 0x100 DUP1 DUP4 SLOAD DIV MUL DUP4 MSTORE SWAP2 PUSH1 0x20 ADD SWAP2 PUSH2 0x1FE3 JUMP JUMPDEST DUP3 ADD SWAP2 SWAP1 PUSH1 0x0 MSTORE PUSH1 0x20 PUSH1 0x0 KECCAK256 SWAP1 JUMPDEST DUP2 SLOAD DUP2 MSTORE SWAP1 PUSH1 0x1 ADD SWAP1 PUSH1 0x20 ADD DUP1 DUP4 GT PUSH2 0x1FC6 JUMPI DUP3 SWAP1 SUB PUSH1 0x1F AND DUP3 ADD SWAP2 JUMPDEST POP POP POP POP POP DUP2 MSTORE PUSH1 0x20 ADD PUSH1 0x8 DUP3 ADD DUP1 SLOAD PUSH1 0x1 DUP2 PUSH1 0x1 AND ISZERO PUSH2 0x100 MUL SUB AND PUSH1 0x2 SWAP1 DIV DUP1 PUSH1 0x1F ADD PUSH1 0x20 DUP1 SWAP2 DIV MUL PUSH1 0x20 ADD PUSH1 0x40 MLOAD SWAP1 DUP2 ADD PUSH1 0x40 MSTORE DUP1 SWAP3 SWAP2 SWAP1 DUP2 DUP2 MSTORE PUSH1 0x20 ADD DUP3 DUP1 SLOAD PUSH1 0x1 DUP2 PUSH1 0x1 AND ISZERO PUSH2 0x100 MUL SUB AND PUSH1 0x2 SWAP1 DIV DUP1 ISZERO PUSH2 0x2085 JUMPI DUP1 PUSH1 0x1F LT PUSH2 0x205A JUMPI PUSH2 0x100 DUP1 DUP4 SLOAD DIV MUL DUP4 MSTORE SWAP2 PUSH1 0x20 ADD SWAP2 PUSH2 0x2085 JUMP JUMPDEST DUP3 ADD SWAP2 SWAP1 PUSH1 0x0 MSTORE PUSH1 0x20 PUSH1 0x0 KECCAK256 SWAP1 JUMPDEST DUP2 SLOAD DUP2 MSTORE SWAP1 PUSH1 0x1 ADD SWAP1 PUSH1 0x20 ADD DUP1 DUP4 GT PUSH2 0x2068 JUMPI DUP3 SWAP1 SUB PUSH1 0x1F AND DUP3 ADD SWAP2 JUMPDEST POP POP POP POP POP DUP2 MSTORE PUSH1 0x20 ADD PUSH1 0x9 DUP3 ADD DUP1 SLOAD PUSH1 0x1 DUP2 PUSH1 0x1 AND ISZERO PUSH2 0x100 MUL SUB AND PUSH1 0x2 SWAP1 DIV DUP1 PUSH1 0x1F ADD PUSH1 0x20 DUP1 SWAP2 DIV MUL PUSH1 0x20 ADD PUSH1 0x40 MLOAD SWAP1 DUP2 ADD PUSH1 0x40 MSTORE DUP1 SWAP3 SWAP2 SWAP1 DUP2 DUP2 MSTORE PUSH1 0x20 ADD DUP3 DUP1 SLOAD PUSH1 0x1 DUP2 PUSH1 0x1 AND ISZERO PUSH2 0x100 MUL SUB AND PUSH1 0x2 SWAP1 DIV DUP1 ISZERO PUSH2 0x2127 JUMPI DUP1 PUSH1 0x1F LT PUSH2 0x20FC JUMPI PUSH2 0x100 DUP1 DUP4 SLOAD DIV MUL DUP4 MSTORE SWAP2 PUSH1 0x20 ADD SWAP2 PUSH2 0x2127 JUMP JUMPDEST DUP3 ADD SWAP2 SWAP1 PUSH1 0x0 MSTORE PUSH1 0x20 PUSH1 0x0 KECCAK256 SWAP1 JUMPDEST DUP2 SLOAD DUP2 MSTORE SWAP1 PUSH1 0x1 ADD SWAP1 PUSH1 0x20 ADD DUP1 DUP4 GT PUSH2 0x210A JUMPI DUP3 SWAP1 SUB PUSH1 0x1F AND DUP3 ADD SWAP2 JUMPDEST POP POP POP POP POP DUP2 MSTORE PUSH1 0x20 ADD PUSH1 0xA DUP3 ADD DUP1 SLOAD PUSH1 0x1 DUP2 PUSH1 0x1 AND ISZERO PUSH2 0x100 MUL SUB AND PUSH1 0x2 SWAP1 DIV DUP1 PUSH1 0x1F ADD PUSH1 0x20 DUP1 SWAP2 DIV MUL PUSH1 0x20 ADD PUSH1 0x40 MLOAD SWAP1 DUP2 ADD PUSH1 0x40 MSTORE DUP1 SWAP3 SWAP2 SWAP1 DUP2 DUP2 MSTORE PUSH1 0x20 ADD DUP3 DUP1 SLOAD PUSH1 0x1 DUP2 PUSH1 0x1 AND ISZERO PUSH2 0x100 MUL SUB AND PUSH1 0x2 SWAP1 DIV DUP1 ISZERO PUSH2 0x21C9 JUMPI DUP1 PUSH1 0x1F LT PUSH2 0x219E JUMPI PUSH2 0x100 DUP1 DUP4 SLOAD DIV MUL DUP4 MSTORE SWAP2 PUSH1 0x20 ADD SWAP2 PUSH2 0x21C9 JUMP JUMPDEST DUP3 ADD SWAP2 SWAP1 PUSH1 0x0 MSTORE PUSH1 0x20 PUSH1 0x0 KECCAK256 SWAP1 JUMPDEST DUP2 SLOAD DUP2 MSTORE SWAP1 PUSH1 0x1 ADD SWAP1 PUSH1 0x20 ADD DUP1 DUP4 GT PUSH2 0x21AC JUMPI DUP3 SWAP1 SUB PUSH1 0x1F AND DUP3 ADD SWAP2 JUMPDEST POP POP POP POP POP DUP2 MSTORE PUSH1 0x20 ADD PUSH1 0xB DUP3 ADD DUP1 SLOAD PUSH1 0x1 DUP2 PUSH1 0x1 AND ISZERO PUSH2 0x100 MUL SUB AND PUSH1 0x2 SWAP1 DIV DUP1 PUSH1 0x1F ADD PUSH1 0x20 DUP1 SWAP2 DIV MUL PUSH1 0x20 ADD PUSH1 0x40 MLOAD SWAP1 DUP2 ADD PUSH1 0x40 MSTORE DUP1 SWAP3 SWAP2 SWAP1 DUP2 DUP2 MSTORE PUSH1 0x20 ADD DUP3 DUP1 SLOAD PUSH1 0x1 DUP2 PUSH1 0x1 AND ISZERO PUSH2 0x100 MUL SUB AND PUSH1 0x2 SWAP1 DIV DUP1 ISZERO PUSH2 0x226B JUMPI DUP1 PUSH1 0x1F LT PUSH2 0x2240 JUMPI PUSH2 0x100 DUP1 DUP4 SLOAD DIV MUL DUP4 MSTORE SWAP2 PUSH1 0x20 ADD SWAP2 PUSH2 0x226B JUMP JUMPDEST DUP3 ADD SWAP2 SWAP1 PUSH1 0x0 MSTORE PUSH1 0x20 PUSH1 0x0 KECCAK256 SWAP1 JUMPDEST DUP2 SLOAD DUP2 MSTORE SWAP1 PUSH1 0x1 ADD SWAP1 PUSH1 0x20 ADD DUP1 DUP4 GT PUSH2 0x224E JUMPI DUP3 SWAP1 SUB PUSH1 0x1F AND DUP3 ADD SWAP2 JUMPDEST POP POP POP POP POP DUP2 MSTORE PUSH1 0x20 ADD PUSH1 0xC DUP3 ADD DUP1 SLOAD PUSH1 0x1 DUP2 PUSH1 0x1 AND ISZERO PUSH2 0x100 MUL SUB AND PUSH1 0x2 SWAP1 DIV DUP1 PUSH1 0x1F ADD PUSH1 0x20 DUP1 SWAP2 DIV MUL PUSH1 0x20 ADD PUSH1 0x40 MLOAD SWAP1 DUP2 ADD PUSH1 0x40 MSTORE DUP1 SWAP3 SWAP2 SWAP1 DUP2 DUP2 MSTORE PUSH1 0x20 ADD DUP3 DUP1 SLOAD PUSH1 0x1 DUP2 PUSH1 0x1 AND ISZERO PUSH2 0x100 MUL SUB AND PUSH1 0x2 SWAP1 DIV DUP1 ISZERO PUSH2 0x230D JUMPI DUP1 PUSH1 0x1F LT PUSH2 0x22E2 JUMPI PUSH2 0x100 DUP1 DUP4 SLOAD DIV MUL DUP4 MSTORE SWAP2 PUSH1 0x20 ADD SWAP2 PUSH2 0x230D JUMP JUMPDEST DUP3 ADD SWAP2 SWAP1 PUSH1 0x0 MSTORE PUSH1 0x20 PUSH1 0x0 KECCAK256 SWAP1 JUMPDEST DUP2 SLOAD DUP2 MSTORE SWAP1 PUSH1 0x1 ADD SWAP1 PUSH1 0x20 ADD DUP1 DUP4 GT PUSH2 0x22F0 JUMPI DUP3 SWAP1 SUB PUSH1 0x1F AND DUP3 ADD SWAP2 JUMPDEST POP POP POP POP POP DUP2 MSTORE PUSH1 0x20 ADD PUSH1 0xD DUP3 ADD SLOAD DUP2 MSTORE PUSH1 0x20 ADD PUSH1 0xE DUP3 ADD SLOAD DUP2 MSTORE PUSH1 0x20 ADD PUSH1 0xF DUP3 ADD DUP1 SLOAD PUSH1 0x1 DUP2 PUSH1 0x1 AND ISZERO PUSH2 0x100 MUL SUB AND PUSH1 0x2 SWAP1 DIV DUP1 PUSH1 0x1F ADD PUSH1 0x20 DUP1 SWAP2 DIV MUL PUSH1 0x20 ADD PUSH1 0x40 MLOAD SWAP1 DUP2 ADD PUSH1 0x40 MSTORE DUP1 SWAP3 SWAP2 SWAP1 DUP2 DUP2 MSTORE PUSH1 0x20 ADD DUP3 DUP1 SLOAD PUSH1 0x1 DUP2 PUSH1 0x1 AND ISZERO PUSH2 0x100 MUL SUB AND PUSH1 0x2 SWAP1 DIV DUP1 ISZERO PUSH2 0x23C3 JUMPI DUP1 PUSH1 0x1F LT PUSH2 0x2398 JUMPI PUSH2 0x100 DUP1 DUP4 SLOAD DIV MUL DUP4 MSTORE SWAP2 PUSH1 0x20 ADD SWAP2 PUSH2 0x23C3 JUMP JUMPDEST DUP3 ADD SWAP2 SWAP1 PUSH1 0x0 MSTORE PUSH1 0x20 PUSH1 0x0 KECCAK256 SWAP1 JUMPDEST DUP2 SLOAD DUP2 MSTORE SWAP1 PUSH1 0x1 ADD SWAP1 PUSH1 0x20 ADD DUP1 DUP4 GT PUSH2 0x23A6 JUMPI DUP3 SWAP1 SUB PUSH1 0x1F AND DUP3 ADD SWAP2 JUMPDEST POP POP POP POP POP DUP2 MSTORE POP POP SWAP1 POP SWAP2 SWAP1 POP JUMP JUMPDEST PUSH1 0xB SLOAD DUP2 JUMP JUMPDEST PUSH1 0x6 PUSH1 0x20 MSTORE DUP1 PUSH1 0x0 MSTORE PUSH1 0x40 PUSH1 0x0 KECCAK256 PUSH1 0x0 SWAP2 POP SWAP1 POP SLOAD DUP2 JUMP JUMPDEST PUSH1 0x2 PUSH1 0x20 MSTORE DUP1 PUSH1 0x0 MSTORE PUSH1 0x40 PUSH1 0x0 KECCAK256 PUSH1 0x0 SWAP2 POP SWAP1 POP DUP1 PUSH1 0x0 ADD DUP1 SLOAD PUSH1 0x1 DUP2 PUSH1 0x1 AND ISZERO PUSH2 0x100 MUL SUB AND PUSH1 0x2 SWAP1 DIV DUP1 PUSH1 0x1F ADD PUSH1 0x20 DUP1 SWAP2 DIV MUL PUSH1 0x20 ADD PUSH1 0x40 MLOAD SWAP1 DUP2 ADD PUSH1 0x40 MSTORE DUP1 SWAP3 SWAP2 SWAP1 DUP2 DUP2 MSTORE PUSH1 0x20 ADD DUP3 DUP1 SLOAD PUSH1 0x1 DUP2 PUSH1 0x1 AND ISZERO PUSH2 0x100 MUL SUB AND PUSH1 0x2 SWAP1 DIV DUP1 ISZERO PUSH2 0x249D JUMPI DUP1 PUSH1 0x1F LT PUSH2 0x2472 JUMPI PUSH2 0x100 DUP1 DUP4 SLOAD DIV MUL DUP4 MSTORE SWAP2 PUSH1 0x20 ADD SWAP2 PUSH2 0x249D JUMP JUMPDEST DUP3 ADD SWAP2 SWAP1 PUSH1 0x0 MSTORE PUSH1 0x20 PUSH1 0x0 KECCAK256 SWAP1 JUMPDEST DUP2 SLOAD DUP2 MSTORE SWAP1 PUSH1 0x1 ADD SWAP1 PUSH1 0x20 ADD DUP1 DUP4 GT PUSH2 0x2480 JUMPI DUP3 SWAP1 SUB PUSH1 0x1F AND DUP3 ADD SWAP2 JUMPDEST POP POP POP POP POP SWAP1 DUP1 PUSH1 0x1 ADD DUP1 SLOAD PUSH1 0x1 DUP2 PUSH1 0x1 AND ISZERO PUSH2 0x100 MUL SUB AND PUSH1 0x2 SWAP1 DIV DUP1 PUSH1 0x1F ADD PUSH1 0x20 DUP1 SWAP2 DIV MUL PUSH1 0x20 ADD PUSH1 0x40 MLOAD SWAP1 DUP2 ADD PUSH1 0x40 MSTORE DUP1 SWAP3 SWAP2 SWAP1 DUP2 DUP2 MSTORE PUSH1 0x20 ADD DUP3 DUP1 SLOAD PUSH1 0x1 DUP2 PUSH1 0x1 AND ISZERO PUSH2 0x100 MUL SUB AND PUSH1 0x2 SWAP1 DIV DUP1 ISZERO PUSH2 0x253B JUMPI DUP1 PUSH1 0x1F LT PUSH2 0x2510 JUMPI PUSH2 0x100 DUP1 DUP4 SLOAD DIV MUL DUP4 MSTORE SWAP2 PUSH1 0x20 ADD SWAP2 PUSH2 0x253B JUMP JUMPDEST DUP3 ADD SWAP2 SWAP1 PUSH1 0x0 MSTORE PUSH1 0x20 PUSH1 0x0 KECCAK256 SWAP1 JUMPDEST DUP2 SLOAD DUP2 MSTORE SWAP1 PUSH1 0x1 ADD SWAP1 PUSH1 0x20 ADD DUP1 DUP4 GT PUSH2 0x251E JUMPI DUP3 SWAP1 SUB PUSH1 0x1F AND DUP3 ADD SWAP2 JUMPDEST POP POP POP POP POP SWAP1 DUP1 PUSH1 0x2 ADD DUP1 SLOAD PUSH1 0x1 DUP2 PUSH1 0x1 AND ISZERO PUSH2 0x100 MUL SUB AND PUSH1 0x2 SWAP1 DIV DUP1 PUSH1 0x1F ADD PUSH1 0x20 DUP1 SWAP2 DIV MUL PUSH1 0x20 ADD PUSH1 0x40 MLOAD SWAP1 DUP2 ADD PUSH1 0x40 MSTORE DUP1 SWAP3 SWAP2 SWAP1 DUP2 DUP2 MSTORE PUSH1 0x20 ADD DUP3 DUP1 SLOAD PUSH1 0x1 DUP2 PUSH1 0x1 AND ISZERO PUSH2 0x100 MUL SUB AND PUSH1 0x2 SWAP1 DIV DUP1 ISZERO PUSH2 0x25D9 JUMPI DUP1 PUSH1 0x1F LT PUSH2 0x25AE JUMPI PUSH2 0x100 DUP1 DUP4 SLOAD DIV MUL DUP4 MSTORE SWAP2 PUSH1 0x20 ADD SWAP2 PUSH2 0x25D9 JUMP JUMPDEST DUP3 ADD SWAP2 SWAP1 PUSH1 0x0 MSTORE PUSH1 0x20 PUSH1 0x0 KECCAK256 SWAP1 JUMPDEST DUP2 SLOAD DUP2 MSTORE SWAP1 PUSH1 0x1 ADD SWAP1 PUSH1 0x20 ADD DUP1 DUP4 GT PUSH2 0x25BC JUMPI DUP3 SWAP1 SUB PUSH1 0x1F AND DUP3 ADD SWAP2 JUMPDEST POP POP POP POP POP SWAP1 DUP1 PUSH1 0x3 ADD DUP1 SLOAD PUSH1 0x1 DUP2 PUSH1 0x1 AND ISZERO PUSH2 0x100 MUL SUB AND PUSH1 0x2 SWAP1 DIV DUP1 PUSH1 0x1F ADD PUSH1 0x20 DUP1 SWAP2 DIV MUL PUSH1 0x20 ADD PUSH1 0x40 MLOAD SWAP1 DUP2 ADD PUSH1 0x40 MSTORE DUP1 SWAP3 SWAP2 SWAP1 DUP2 DUP2 MSTORE PUSH1 0x20 ADD DUP3 DUP1 SLOAD PUSH1 0x1 DUP2 PUSH1 0x1 AND ISZERO PUSH2 0x100 MUL SUB AND PUSH1 0x2 SWAP1 DIV DUP1 ISZERO PUSH2 0x2677 JUMPI DUP1 PUSH1 0x1F LT PUSH2 0x264C JUMPI PUSH2 0x100 DUP1 DUP4 SLOAD DIV MUL DUP4 MSTORE SWAP2 PUSH1 0x20 ADD SWAP2 PUSH2 0x2677 JUMP JUMPDEST DUP3 ADD SWAP2 SWAP1 PUSH1 0x0 MSTORE PUSH1 0x20 PUSH1 0x0 KECCAK256 SWAP1 JUMPDEST DUP2 SLOAD DUP2 MSTORE SWAP1 PUSH1 0x1 ADD SWAP1 PUSH1 0x20 ADD DUP1 DUP4 GT PUSH2 0x265A JUMPI DUP3 SWAP1 SUB PUSH1 0x1F AND DUP3 ADD SWAP2 JUMPDEST POP POP POP POP POP SWAP1 DUP1 PUSH1 0x4 ADD DUP1 SLOAD PUSH1 0x1 DUP2 PUSH1 0x1 AND ISZERO PUSH2 0x100 MUL SUB AND PUSH1 0x2 SWAP1 DIV DUP1 PUSH1 0x1F ADD PUSH1 0x20 DUP1 SWAP2 DIV MUL PUSH1 0x20 ADD PUSH1 0x40 MLOAD SWAP1 DUP2 ADD PUSH1 0x40 MSTORE DUP1 SWAP3 SWAP2 SWAP1 DUP2 DUP2 MSTORE PUSH1 0x20 ADD DUP3 DUP1 SLOAD PUSH1 0x1 DUP2 PUSH1 0x1 AND ISZERO PUSH2 0x100 MUL SUB AND PUSH1 0x2 SWAP1 DIV DUP1 ISZERO PUSH2 0x2715 JUMPI DUP1 PUSH1 0x1F LT PUSH2 0x26EA JUMPI PUSH2 0x100 DUP1 DUP4 SLOAD DIV MUL DUP4 MSTORE SWAP2 PUSH1 0x20 ADD SWAP2 PUSH2 0x2715 JUMP JUMPDEST DUP3 ADD SWAP2 SWAP1 PUSH1 0x0 MSTORE PUSH1 0x20 PUSH1 0x0 KECCAK256 SWAP1 JUMPDEST DUP2 SLOAD DUP2 MSTORE SWAP1 PUSH1 0x1 ADD SWAP1 PUSH1 0x20 ADD DUP1 DUP4 GT PUSH2 0x26F8 JUMPI DUP3 SWAP1 SUB PUSH1 0x1F AND DUP3 ADD SWAP2 JUMPDEST POP POP POP POP POP SWAP1 DUP1 PUSH1 0x5 ADD SLOAD SWAP1 POP DUP7 JUMP JUMPDEST PUSH2 0x272D PUSH2 0x3270 JUMP JUMPDEST PUSH1 0xA PUSH1 0x1 PUSH1 0x0 SWAP1 SLOAD SWAP1 PUSH2 0x100 EXP SWAP1 DIV PUSH20 0xFFFFFFFFFFFFFFFFFFFFFFFFFFFFFFFFFFFFFFFF AND PUSH20 0xFFFFFFFFFFFFFFFFFFFFFFFFFFFFFFFFFFFFFFFF AND PUSH4 0xDD62ED3E CALLER ADDRESS PUSH1 0x40 MLOAD DUP4 PUSH4 0xFFFFFFFF AND PUSH1 0xE0 SHL DUP2 MSTORE PUSH1 0x4 ADD PUSH2 0x278C SWAP3 SWAP2 SWAP1 PUSH2 0x3BDE JUMP JUMPDEST PUSH1 0x20 PUSH1 0x40 MLOAD DUP1 DUP4 SUB DUP2 DUP7 DUP1 EXTCODESIZE ISZERO DUP1 ISZERO PUSH2 0x27A4 JUMPI PUSH1 0x0 DUP1 REVERT JUMPDEST POP GAS STATICCALL ISZERO DUP1 ISZERO PUSH2 0x27B8 JUMPI RETURNDATASIZE PUSH1 0x0 DUP1 RETURNDATACOPY RETURNDATASIZE PUSH1 0x0 REVERT JUMPDEST POP POP POP POP PUSH1 0x40 MLOAD RETURNDATASIZE PUSH1 0x1F NOT PUSH1 0x1F DUP3 ADD AND DUP3 ADD DUP1 PUSH1 0x40 MSTORE POP PUSH2 0x27DC SWAP2 SWAP1 DUP2 ADD SWAP1 PUSH2 0x362C JUMP JUMPDEST LT ISZERO PUSH2 0x281D JUMPI PUSH1 0x40 MLOAD PUSH32 0x8C379A000000000000000000000000000000000000000000000000000000000 DUP2 MSTORE PUSH1 0x4 ADD PUSH2 0x2814 SWAP1 PUSH2 0x3E07 JUMP JUMPDEST PUSH1 0x40 MLOAD DUP1 SWAP2 SUB SWAP1 REVERT JUMPDEST PUSH1 0x1 PUSH1 0x0 SWAP1 SLOAD SWAP1 PUSH2 0x100 EXP SWAP1 DIV PUSH20 0xFFFFFFFFFFFFFFFFFFFFFFFFFFFFFFFFFFFFFFFF AND PUSH20 0xFFFFFFFFFFFFFFFFFFFFFFFFFFFFFFFFFFFFFFFF AND PUSH4 0x23B872DD CALLER PUSH1 0x0 DUP1 SWAP1 SLOAD SWAP1 PUSH2 0x100 EXP SWAP1 DIV PUSH20 0xFFFFFFFFFFFFFFFFFFFFFFFFFFFFFFFFFFFFFFFF AND PUSH1 0xA PUSH1 0x40 MLOAD DUP5 PUSH4 0xFFFFFFFF AND PUSH1 0xE0 SHL DUP2 MSTORE PUSH1 0x4 ADD PUSH2 0x289E SWAP4 SWAP3 SWAP2 SWAP1 PUSH2 0x3C07 JUMP JUMPDEST PUSH1 0x20 PUSH1 0x40 MLOAD DUP1 DUP4 SUB DUP2 PUSH1 0x0 DUP8 DUP1 EXTCODESIZE ISZERO DUP1 ISZERO PUSH2 0x28B8 JUMPI PUSH1 0x0 DUP1 REVERT JUMPDEST POP GAS CALL ISZERO DUP1 ISZERO PUSH2 0x28CC JUMPI RETURNDATASIZE PUSH1 0x0 DUP1 RETURNDATACOPY RETURNDATASIZE PUSH1 0x0 REVERT JUMPDEST POP POP POP POP PUSH1 0x40 MLOAD RETURNDATASIZE PUSH1 0x1F NOT PUSH1 0x1F DUP3 ADD AND DUP3 ADD DUP1 PUSH1 0x40 MSTORE POP PUSH2 0x28F0 SWAP2 SWAP1 DUP2 ADD SWAP1 PUSH2 0x352D JUMP JUMPDEST PUSH2 0x292F JUMPI PUSH1 0x40 MLOAD PUSH32 0x8C379A000000000000000000000000000000000000000000000000000000000 DUP2 MSTORE PUSH1 0x4 ADD PUSH2 0x2926 SWAP1 PUSH2 0x3E67 JUMP JUMPDEST PUSH1 0x40 MLOAD DUP1 SWAP2 SUB SWAP1 REVERT JUMPDEST PUSH1 0x7 PUSH1 0x0 DUP4 DUP2 MSTORE PUSH1 0x20 ADD SWAP1 DUP2 MSTORE PUSH1 0x20 ADD PUSH1 0x0 KECCAK256 PUSH1 0x40 MLOAD DUP1 PUSH2 0x100 ADD PUSH1 0x40 MSTORE SWAP1 DUP2 PUSH1 0x0 DUP3 ADD SLOAD DUP2 MSTORE PUSH1 0x20 ADD PUSH1 0x1 DUP3 ADD DUP1 SLOAD PUSH1 0x1 DUP2 PUSH1 0x1 AND ISZERO PUSH2 0x100 MUL SUB AND PUSH1 0x2 SWAP1 DIV DUP1 PUSH1 0x1F ADD PUSH1 0x20 DUP1 SWAP2 DIV MUL PUSH1 0x20 ADD PUSH1 0x40 MLOAD SWAP1 DUP2 ADD PUSH1 0x40 MSTORE DUP1 SWAP3 SWAP2 SWAP1 DUP2 DUP2 MSTORE PUSH1 0x20 ADD DUP3 DUP1 SLOAD PUSH1 0x1 DUP2 PUSH1 0x1 AND ISZERO PUSH2 0x100 MUL SUB AND PUSH1 0x2 SWAP1 DIV DUP1 ISZERO PUSH2 0x29F1 JUMPI DUP1 PUSH1 0x1F LT PUSH2 0x29C6 JUMPI PUSH2 0x100 DUP1 DUP4 SLOAD DIV MUL DUP4 MSTORE SWAP2 PUSH1 0x20 ADD SWAP2 PUSH2 0x29F1 JUMP JUMPDEST DUP3 ADD SWAP2 SWAP1 PUSH1 0x0 MSTORE PUSH1 0x20 PUSH1 0x0 KECCAK256 SWAP1 JUMPDEST DUP2 SLOAD DUP2 MSTORE SWAP1 PUSH1 0x1 ADD SWAP1 PUSH1 0x20 ADD DUP1 DUP4 GT PUSH2 0x29D4 JUMPI DUP3 SWAP1 SUB PUSH1 0x1F AND DUP3 ADD SWAP2 JUMPDEST POP POP POP POP POP DUP2 MSTORE PUSH1 0x20 ADD PUSH1 0x2 DUP3 ADD SLOAD DUP2 MSTORE PUSH1 0x20 ADD PUSH1 0x3 DUP3 ADD DUP1 SLOAD PUSH1 0x1 DUP2 PUSH1 0x1 AND ISZERO PUSH2 0x100 MUL SUB AND PUSH1 0x2 SWAP1 DIV DUP1 PUSH1 0x1F ADD PUSH1 0x20 DUP1 SWAP2 DIV MUL PUSH1 0x20 ADD PUSH1 0x40 MLOAD SWAP1 DUP2 ADD PUSH1 0x40 MSTORE DUP1 SWAP3 SWAP2 SWAP1 DUP2 DUP2 MSTORE PUSH1 0x20 ADD DUP3 DUP1 SLOAD PUSH1 0x1 DUP2 PUSH1 0x1 AND ISZERO PUSH2 0x100 MUL SUB AND PUSH1 0x2 SWAP1 DIV DUP1 ISZERO PUSH2 0x2A9D JUMPI DUP1 PUSH1 0x1F LT PUSH2 0x2A72 JUMPI PUSH2 0x100 DUP1 DUP4 SLOAD DIV MUL DUP4 MSTORE SWAP2 PUSH1 0x20 ADD SWAP2 PUSH2 0x2A9D JUMP JUMPDEST DUP3 ADD SWAP2 SWAP1 PUSH1 0x0 MSTORE PUSH1 0x20 PUSH1 0x0 KECCAK256 SWAP1 JUMPDEST DUP2 SLOAD DUP2 MSTORE SWAP1 PUSH1 0x1 ADD SWAP1 PUSH1 0x20 ADD DUP1 DUP4 GT PUSH2 0x2A80 JUMPI DUP3 SWAP1 SUB PUSH1 0x1F AND DUP3 ADD SWAP2 JUMPDEST POP POP POP POP POP DUP2 MSTORE PUSH1 0x20 ADD PUSH1 0x4 DUP3 ADD DUP1 SLOAD PUSH1 0x1 DUP2 PUSH1 0x1 AND ISZERO PUSH2 0x100 MUL SUB AND PUSH1 0x2 SWAP1 DIV DUP1 PUSH1 0x1F ADD PUSH1 0x20 DUP1 SWAP2 DIV MUL PUSH1 0x20 ADD PUSH1 0x40 MLOAD SWAP1 DUP2 ADD PUSH1 0x40 MSTORE DUP1 SWAP3 SWAP2 SWAP1 DUP2 DUP2 MSTORE PUSH1 0x20 ADD DUP3 DUP1 SLOAD PUSH1 0x1 DUP2 PUSH1 0x1 AND ISZERO PUSH2 0x100 MUL SUB AND PUSH1 0x2 SWAP1 DIV DUP1 ISZERO PUSH2 0x2B3F JUMPI DUP1 PUSH1 0x1F LT PUSH2 0x2B14 JUMPI PUSH2 0x100 DUP1 DUP4 SLOAD DIV MUL DUP4 MSTORE SWAP2 PUSH1 0x20 ADD SWAP2 PUSH2 0x2B3F JUMP JUMPDEST DUP3 ADD SWAP2 SWAP1 PUSH1 0x0 MSTORE PUSH1 0x20 PUSH1 0x0 KECCAK256 SWAP1 JUMPDEST DUP2 SLOAD DUP2 MSTORE SWAP1 PUSH1 0x1 ADD SWAP1 PUSH1 0x20 ADD DUP1 DUP4 GT PUSH2 0x2B22 JUMPI DUP3 SWAP1 SUB PUSH1 0x1F AND DUP3 ADD SWAP2 JUMPDEST POP POP POP POP POP DUP2 MSTORE PUSH1 0x20 ADD PUSH1 0x5 DUP3 ADD DUP1 SLOAD PUSH1 0x1 DUP2 PUSH1 0x1 AND ISZERO PUSH2 0x100 MUL SUB AND PUSH1 0x2 SWAP1 DIV DUP1 PUSH1 0x1F ADD PUSH1 0x20 DUP1 SWAP2 DIV MUL PUSH1 0x20 ADD PUSH1 0x40 MLOAD SWAP1 DUP2 ADD PUSH1 0x40 MSTORE DUP1 SWAP3 SWAP2 SWAP1 DUP2 DUP2 MSTORE PUSH1 0x20 ADD DUP3 DUP1 SLOAD PUSH1 0x1 DUP2 PUSH1 0x1 AND ISZERO PUSH2 0x100 MUL SUB AND PUSH1 0x2 SWAP1 DIV DUP1 ISZERO PUSH2 0x2BE1 JUMPI DUP1 PUSH1 0x1F LT PUSH2 0x2BB6 JUMPI PUSH2 0x100 DUP1 DUP4 SLOAD DIV MUL DUP4 MSTORE SWAP2 PUSH1 0x20 ADD SWAP2 PUSH2 0x2BE1 JUMP JUMPDEST DUP3 ADD SWAP2 SWAP1 PUSH1 0x0 MSTORE PUSH1 0x20 PUSH1 0x0 KECCAK256 SWAP1 JUMPDEST DUP2 SLOAD DUP2 MSTORE SWAP1 PUSH1 0x1 ADD SWAP1 PUSH1 0x20 ADD DUP1 DUP4 GT PUSH2 0x2BC4 JUMPI DUP3 SWAP1 SUB PUSH1 0x1F AND DUP3 ADD SWAP2 JUMPDEST POP POP POP POP POP DUP2 MSTORE PUSH1 0x20 ADD PUSH1 0x6 DUP3 ADD DUP1 SLOAD PUSH1 0x1 DUP2 PUSH1 0x1 AND ISZERO PUSH2 0x100 MUL SUB AND PUSH1 0x2 SWAP1 DIV DUP1 PUSH1 0x1F ADD PUSH1 0x20 DUP1 SWAP2 DIV MUL PUSH1 0x20 ADD PUSH1 0x40 MLOAD SWAP1 DUP2 ADD PUSH1 0x40 MSTORE DUP1 SWAP3 SWAP2 SWAP1 DUP2 DUP2 MSTORE PUSH1 0x20 ADD DUP3 DUP1 SLOAD PUSH1 0x1 DUP2 PUSH1 0x1 AND ISZERO PUSH2 0x100 MUL SUB AND PUSH1 0x2 SWAP1 DIV DUP1 ISZERO PUSH2 0x2C83 JUMPI DUP1 PUSH1 0x1F LT PUSH2 0x2C58 JUMPI PUSH2 0x100 DUP1 DUP4 SLOAD DIV MUL DUP4 MSTORE SWAP2 PUSH1 0x20 ADD SWAP2 PUSH2 0x2C83 JUMP JUMPDEST DUP3 ADD SWAP2 SWAP1 PUSH1 0x0 MSTORE PUSH1 0x20 PUSH1 0x0 KECCAK256 SWAP1 JUMPDEST DUP2 SLOAD DUP2 MSTORE SWAP1 PUSH1 0x1 ADD SWAP1 PUSH1 0x20 ADD DUP1 DUP4 GT PUSH2 0x2C66 JUMPI DUP3 SWAP1 SUB PUSH1 0x1F AND DUP3 ADD SWAP2 JUMPDEST POP POP POP POP POP DUP2 MSTORE PUSH1 0x20 ADD PUSH1 0x7 DUP3 ADD SLOAD DUP2 MSTORE POP POP SWAP1 POP SWAP2 SWAP1 POP JUMP JUMPDEST PUSH2 0x2CA5 PUSH2 0x336B JUMP JUMPDEST DUP2 DUP2 PUSH1 0x0 ADD DUP2 SWAP1 MSTORE POP PUSH2 0x2CB8 DUP2 CALLER PUSH2 0x308C JUMP JUMPDEST POP POP JUMP JUMPDEST PUSH1 0xA SLOAD DUP2 JUMP JUMPDEST PUSH1 0x1 PUSH1 0xB PUSH1 0x0 DUP3 DUP3 SLOAD ADD SWAP3 POP POP DUP2 SWAP1 SSTORE POP DUP1 PUSH1 0x7 PUSH1 0x0 PUSH1 0xB SLOAD DUP2 MSTORE PUSH1 0x20 ADD SWAP1 DUP2 MSTORE PUSH1 0x20 ADD PUSH1 0x0 KECCAK256 PUSH1 0x0 DUP3 ADD MLOAD DUP2 PUSH1 0x0 ADD SSTORE PUSH1 0x20 DUP3 ADD MLOAD DUP2 PUSH1 0x1 ADD SWAP1 DUP1 MLOAD SWAP1 PUSH1 0x20 ADD SWAP1 PUSH2 0x2D0F SWAP3 SWAP2 SWAP1 PUSH2 0x33B7 JUMP JUMPDEST POP PUSH1 0x40 DUP3 ADD MLOAD DUP2 PUSH1 0x2 ADD SSTORE PUSH1 0x60 DUP3 ADD MLOAD DUP2 PUSH1 0x3 ADD SWAP1 DUP1 MLOAD SWAP1 PUSH1 0x20 ADD SWAP1 PUSH2 0x2D36 SWAP3 SWAP2 SWAP1 PUSH2 0x33B7 JUMP JUMPDEST POP PUSH1 0x80 DUP3 ADD MLOAD DUP2 PUSH1 0x4 ADD SWAP1 DUP1 MLOAD SWAP1 PUSH1 0x20 ADD SWAP1 PUSH2 0x2D53 SWAP3 SWAP2 SWAP1 PUSH2 0x33B7 JUMP JUMPDEST POP PUSH1 0xA0 DUP3 ADD MLOAD DUP2 PUSH1 0x5 ADD SWAP1 DUP1 MLOAD SWAP1 PUSH1 0x20 ADD SWAP1 PUSH2 0x2D70 SWAP3 SWAP2 SWAP1 PUSH2 0x33B7 JUMP JUMPDEST POP PUSH1 0xC0 DUP3 ADD MLOAD DUP2 PUSH1 0x6 ADD SWAP1 DUP1 MLOAD SWAP1 PUSH1 0x20 ADD SWAP1 PUSH2 0x2D8D SWAP3 SWAP2 SWAP1 PUSH2 0x33B7 JUMP JUMPDEST POP PUSH1 0xE0 DUP3 ADD MLOAD DUP2 PUSH1 0x7 ADD SSTORE SWAP1 POP POP POP JUMP JUMPDEST PUSH1 0x1 PUSH1 0x8 PUSH1 0x0 DUP3 DUP3 SLOAD ADD SWAP3 POP POP DUP2 SWAP1 SSTORE POP DUP2 PUSH1 0x2 PUSH1 0x0 PUSH1 0x8 SLOAD DUP2 MSTORE PUSH1 0x20 ADD SWAP1 DUP2 MSTORE PUSH1 0x20 ADD PUSH1 0x0 KECCAK256 PUSH1 0x0 DUP3 ADD MLOAD DUP2 PUSH1 0x0 ADD SWAP1 DUP1 MLOAD SWAP1 PUSH1 0x20 ADD SWAP1 PUSH2 0x2DE1 SWAP3 SWAP2 SWAP1 PUSH2 0x33B7 JUMP JUMPDEST POP PUSH1 0x20 DUP3 ADD MLOAD DUP2 PUSH1 0x1 ADD SWAP1 DUP1 MLOAD SWAP1 PUSH1 0x20 ADD SWAP1 PUSH2 0x2DFE SWAP3 SWAP2 SWAP1 PUSH2 0x33B7 JUMP JUMPDEST POP PUSH1 0x40 DUP3 ADD MLOAD DUP2 PUSH1 0x2 ADD SWAP1 DUP1 MLOAD SWAP1 PUSH1 0x20 ADD SWAP1 PUSH2 0x2E1B SWAP3 SWAP2 SWAP1 PUSH2 0x33B7 JUMP JUMPDEST POP PUSH1 0x60 DUP3 ADD MLOAD DUP2 PUSH1 0x3 ADD SWAP1 DUP1 MLOAD SWAP1 PUSH1 0x20 ADD SWAP1 PUSH2 0x2E38 SWAP3 SWAP2 SWAP1 PUSH2 0x33B7 JUMP JUMPDEST POP PUSH1 0x80 DUP3 ADD MLOAD DUP2 PUSH1 0x4 ADD SWAP1 DUP1 MLOAD SWAP1 PUSH1 0x20 ADD SWAP1 PUSH2 0x2E55 SWAP3 SWAP2 SWAP1 PUSH2 0x33B7 JUMP JUMPDEST POP PUSH1 0xA0 DUP3 ADD MLOAD DUP2 PUSH1 0x5 ADD SSTORE SWAP1 POP POP PUSH1 0x8 SLOAD PUSH1 0x3 PUSH1 0x0 DUP4 PUSH20 0xFFFFFFFFFFFFFFFFFFFFFFFFFFFFFFFFFFFFFFFF AND PUSH20 0xFFFFFFFFFFFFFFFFFFFFFFFFFFFFFFFFFFFFFFFF AND DUP2 MSTORE PUSH1 0x20 ADD SWAP1 DUP2 MSTORE PUSH1 0x20 ADD PUSH1 0x0 KECCAK256 DUP2 SWAP1 SSTORE POP POP POP JUMP JUMPDEST PUSH1 0x1 PUSH1 0x9 PUSH1 0x0 DUP3 DUP3 SLOAD ADD SWAP3 POP POP DUP2 SWAP1 SSTORE POP DUP1 PUSH1 0x4 PUSH1 0x0 PUSH1 0x9 SLOAD DUP2 MSTORE PUSH1 0x20 ADD SWAP1 DUP2 MSTORE PUSH1 0x20 ADD PUSH1 0x0 KECCAK256 PUSH1 0x0 DUP3 ADD MLOAD DUP2 PUSH1 0x0 ADD SWAP1 DUP1 MLOAD SWAP1 PUSH1 0x20 ADD SWAP1 PUSH2 0x2EF0 SWAP3 SWAP2 SWAP1 PUSH2 0x33B7 JUMP JUMPDEST POP PUSH1 0x20 DUP3 ADD MLOAD DUP2 PUSH1 0x1 ADD SWAP1 DUP1 MLOAD SWAP1 PUSH1 0x20 ADD SWAP1 PUSH2 0x2F0D SWAP3 SWAP2 SWAP1 PUSH2 0x33B7 JUMP JUMPDEST POP PUSH1 0x40 DUP3 ADD MLOAD DUP2 PUSH1 0x2 ADD SWAP1 DUP1 MLOAD SWAP1 PUSH1 0x20 ADD SWAP1 PUSH2 0x2F2A SWAP3 SWAP2 SWAP1 PUSH2 0x33B7 JUMP JUMPDEST POP PUSH1 0x60 DUP3 ADD MLOAD DUP2 PUSH1 0x3 ADD SWAP1 DUP1 MLOAD SWAP1 PUSH1 0x20 ADD SWAP1 PUSH2 0x2F47 SWAP3 SWAP2 SWAP1 PUSH2 0x33B7 JUMP JUMPDEST POP PUSH1 0x80 DUP3 ADD MLOAD DUP2 PUSH1 0x4 ADD SWAP1 DUP1 MLOAD SWAP1 PUSH1 0x20 ADD SWAP1 PUSH2 0x2F64 SWAP3 SWAP2 SWAP1 PUSH2 0x33B7 JUMP JUMPDEST POP PUSH1 0xA0 DUP3 ADD MLOAD DUP2 PUSH1 0x5 ADD SWAP1 DUP1 MLOAD SWAP1 PUSH1 0x20 ADD SWAP1 PUSH2 0x2F81 SWAP3 SWAP2 SWAP1 PUSH2 0x33B7 JUMP JUMPDEST POP PUSH1 0xC0 DUP3 ADD MLOAD DUP2 PUSH1 0x6 ADD SWAP1 DUP1 MLOAD SWAP1 PUSH1 0x20 ADD SWAP1 PUSH2 0x2F9E SWAP3 SWAP2 SWAP1 PUSH2 0x33B7 JUMP JUMPDEST POP PUSH1 0xE0 DUP3 ADD MLOAD DUP2 PUSH1 0x7 ADD SWAP1 DUP1 MLOAD SWAP1 PUSH1 0x20 ADD SWAP1 PUSH2 0x2FBB SWAP3 SWAP2 SWAP1 PUSH2 0x33B7 JUMP JUMPDEST POP PUSH2 0x100 DUP3 ADD MLOAD DUP2 PUSH1 0x8 ADD SWAP1 DUP1 MLOAD SWAP1 PUSH1 0x20 ADD SWAP1 PUSH2 0x2FD9 SWAP3 SWAP2 SWAP1 PUSH2 0x33B7 JUMP JUMPDEST POP PUSH2 0x120 DUP3 ADD MLOAD DUP2 PUSH1 0x9 ADD SWAP1 DUP1 MLOAD SWAP1 PUSH1 0x20 ADD SWAP1 PUSH2 0x2FF7 SWAP3 SWAP2 SWAP1 PUSH2 0x33B7 JUMP JUMPDEST POP PUSH2 0x140 DUP3 ADD MLOAD DUP2 PUSH1 0xA ADD SWAP1 DUP1 MLOAD SWAP1 PUSH1 0x20 ADD SWAP1 PUSH2 0x3015 SWAP3 SWAP2 SWAP1 PUSH2 0x33B7 JUMP JUMPDEST POP PUSH2 0x160 DUP3 ADD MLOAD DUP2 PUSH1 0xB ADD SWAP1 DUP1 MLOAD SWAP1 PUSH1 0x20 ADD SWAP1 PUSH2 0x3033 SWAP3 SWAP2 SWAP1 PUSH2 0x33B7 JUMP JUMPDEST POP PUSH2 0x180 DUP3 ADD MLOAD DUP2 PUSH1 0xC ADD SWAP1 DUP1 MLOAD SWAP1 PUSH1 0x20 ADD SWAP1 PUSH2 0x3051 SWAP3 SWAP2 SWAP1 PUSH2 0x33B7 JUMP JUMPDEST POP PUSH2 0x1A0 DUP3 ADD MLOAD DUP2 PUSH1 0xD ADD SSTORE PUSH2 0x1C0 DUP3 ADD MLOAD DUP2 PUSH1 0xE ADD SSTORE PUSH2 0x1E0 DUP3 ADD MLOAD DUP2 PUSH1 0xF ADD SWAP1 DUP1 MLOAD SWAP1 PUSH1 0x20 ADD SWAP1 PUSH2 0x3085 SWAP3 SWAP2 SWAP1 PUSH2 0x33B7 JUMP JUMPDEST POP SWAP1 POP POP POP JUMP JUMPDEST PUSH1 0x1 PUSH1 0xA PUSH1 0x0 DUP3 DUP3 SLOAD ADD SWAP3 POP POP DUP2 SWAP1 SSTORE POP DUP2 PUSH1 0x5 PUSH1 0x0 PUSH1 0xA SLOAD DUP2 MSTORE PUSH1 0x20 ADD SWAP1 DUP2 MSTORE PUSH1 0x20 ADD PUSH1 0x0 KECCAK256 PUSH1 0x0 DUP3 ADD MLOAD DUP2 PUSH1 0x0 ADD SWAP1 DUP1 MLOAD SWAP1 PUSH1 0x20 ADD SWAP1 PUSH2 0x30CF SWAP3 SWAP2 SWAP1 PUSH2 0x33B7 JUMP JUMPDEST POP PUSH1 0x20 DUP3 ADD MLOAD DUP2 PUSH1 0x1 ADD SWAP1 DUP1 MLOAD SWAP1 PUSH1 0x20 ADD SWAP1 PUSH2 0x30EC SWAP3 SWAP2 SWAP1 PUSH2 0x33B7 JUMP JUMPDEST POP PUSH1 0x40 DUP3 ADD MLOAD DUP2 PUSH1 0x2 ADD SSTORE PUSH1 0x60 DUP3 ADD MLOAD DUP2 PUSH1 0x3 ADD SWAP1 DUP1 MLOAD SWAP1 PUSH1 0x20 ADD SWAP1 PUSH2 0x3113 SWAP3 SWAP2 SWAP1 PUSH2 0x33B7 JUMP JUMPDEST POP PUSH1 0x80 DUP3 ADD MLOAD DUP2 PUSH1 0x4 ADD SWAP1 DUP1 MLOAD SWAP1 PUSH1 0x20 ADD SWAP1 PUSH2 0x3130 SWAP3 SWAP2 SWAP1 PUSH2 0x33B7 JUMP JUMPDEST POP PUSH1 0xA0 DUP3 ADD MLOAD DUP2 PUSH1 0x5 ADD SWAP1 DUP1 MLOAD SWAP1 PUSH1 0x20 ADD SWAP1 PUSH2 0x314D SWAP3 SWAP2 SWAP1 PUSH2 0x33B7 JUMP JUMPDEST POP PUSH1 0xC0 DUP3 ADD MLOAD DUP2 PUSH1 0x6 ADD SWAP1 DUP1 MLOAD SWAP1 PUSH1 0x20 ADD SWAP1 PUSH2 0x316A SWAP3 SWAP2 SWAP1 PUSH2 0x33B7 JUMP JUMPDEST POP PUSH1 0xE0 DUP3 ADD MLOAD DUP2 PUSH1 0x7 ADD SWAP1 DUP1 MLOAD SWAP1 PUSH1 0x20 ADD SWAP1 PUSH2 0x3187 SWAP3 SWAP2 SWAP1 PUSH2 0x33B7 JUMP JUMPDEST POP PUSH2 0x100 DUP3 ADD MLOAD DUP2 PUSH1 0x8 ADD SWAP1 DUP1 MLOAD SWAP1 PUSH1 0x20 ADD SWAP1 PUSH2 0x31A5 SWAP3 SWAP2 SWAP1 PUSH2 0x33B7 JUMP JUMPDEST POP SWAP1 POP POP PUSH1 0xA SLOAD PUSH1 0x6 PUSH1 0x0 DUP4 PUSH20 0xFFFFFFFFFFFFFFFFFFFFFFFFFFFFFFFFFFFFFFFF AND PUSH20 0xFFFFFFFFFFFFFFFFFFFFFFFFFFFFFFFFFFFFFFFF AND DUP2 MSTORE PUSH1 0x20 ADD SWAP1 DUP2 MSTORE PUSH1 0x20 ADD PUSH1 0x0 KECCAK256 DUP2 SWAP1 SSTORE POP POP POP JUMP JUMPDEST PUSH1 0x40 MLOAD DUP1 PUSH2 0x200 ADD PUSH1 0x40 MSTORE DUP1 PUSH1 0x60 DUP2 MSTORE PUSH1 0x20 ADD PUSH1 0x60 DUP2 MSTORE PUSH1 0x20 ADD PUSH1 0x60 DUP2 MSTORE PUSH1 0x20 ADD PUSH1 0x60 DUP2 MSTORE PUSH1 0x20 ADD PUSH1 0x60 DUP2 MSTORE PUSH1 0x20 ADD PUSH1 0x60 DUP2 MSTORE PUSH1 0x20 ADD PUSH1 0x60 DUP2 MSTORE PUSH1 0x20 ADD PUSH1 0x60 DUP2 MSTORE PUSH1 0x20 ADD PUSH1 0x60 DUP2 MSTORE PUSH1 0x20 ADD PUSH1 0x60 DUP2 MSTORE PUSH1 0x20 ADD PUSH1 0x60 DUP2 MSTORE PUSH1 0x20 ADD PUSH1 0x60 DUP2 MSTORE PUSH1 0x20 ADD PUSH1 0x60 DUP2 MSTORE PUSH1 0x20 ADD PUSH1 0x0 DUP2 MSTORE PUSH1 0x20 ADD PUSH1 0x0 DUP2 MSTORE PUSH1 0x20 ADD PUSH1 0x60 DUP2 MSTORE POP SWAP1 JUMP JUMPDEST PUSH1 0x40 MLOAD DUP1 PUSH2 0x100 ADD PUSH1 0x40 MSTORE DUP1 PUSH1 0x0 DUP2 MSTORE PUSH1 0x20 ADD PUSH1 0x60 DUP2 MSTORE PUSH1 0x20 ADD PUSH1 0x0 DUP2 MSTORE PUSH1 0x20 ADD PUSH1 0x60 DUP2 MSTORE PUSH1 0x20 ADD PUSH1 0x60 DUP2 MSTORE PUSH1 0x20 ADD PUSH1 0x60 DUP2 MSTORE PUSH1 0x20 ADD PUSH1 0x60 DUP2 MSTORE PUSH1 0x20 ADD PUSH1 0x0 DUP2 MSTORE POP SWAP1 JUMP JUMPDEST DUP3 DUP1 SLOAD PUSH1 0x1 DUP2 PUSH1 0x1 AND ISZERO PUSH2 0x100 MUL SUB AND PUSH1 0x2 SWAP1 DIV SWAP1 PUSH1 0x0 MSTORE PUSH1 0x20 PUSH1 0x0 KECCAK256 SWAP1 PUSH1 0x1F ADD PUSH1 0x20 SWAP1 DIV DUP2 ADD SWAP3 DUP3 PUSH1 0x1F LT PUSH2 0x32F6 JUMPI DUP1 MLOAD PUSH1 0xFF NOT AND DUP4 DUP1 ADD OR DUP6 SSTORE PUSH2 0x3324 JUMP JUMPDEST DUP3 DUP1 ADD PUSH1 0x1 ADD DUP6 SSTORE DUP3 ISZERO PUSH2 0x3324 JUMPI SWAP2 DUP3 ADD JUMPDEST DUP3 DUP2 GT ISZERO PUSH2 0x3323 JUMPI DUP3 MLOAD DUP3 SSTORE SWAP2 PUSH1 0x20 ADD SWAP2 SWAP1 PUSH1 0x1 ADD SWAP1 PUSH2 0x3308 JUMP JUMPDEST JUMPDEST POP SWAP1 POP PUSH2 0x3331 SWAP2 SWAP1 PUSH2 0x3437 JUMP JUMPDEST POP SWAP1 JUMP JUMPDEST PUSH1 0x40 MLOAD DUP1 PUSH1 0xC0 ADD PUSH1 0x40 MSTORE DUP1 PUSH1 0x60 DUP2 MSTORE PUSH1 0x20 ADD PUSH1 0x60 DUP2 MSTORE PUSH1 0x20 ADD PUSH1 0x60 DUP2 MSTORE PUSH1 0x20 ADD PUSH1 0x60 DUP2 MSTORE PUSH1 0x20 ADD PUSH1 0x60 DUP2 MSTORE PUSH1 0x20 ADD PUSH1 0x0 DUP2 MSTORE POP SWAP1 JUMP JUMPDEST PUSH1 0x40 MLOAD DUP1 PUSH2 0x120 ADD PUSH1 0x40 MSTORE DUP1 PUSH1 0x60 DUP2 MSTORE PUSH1 0x20 ADD PUSH1 0x60 DUP2 MSTORE PUSH1 0x20 ADD PUSH1 0x0 DUP2 MSTORE PUSH1 0x20 ADD PUSH1 0x60 DUP2 MSTORE PUSH1 0x20 ADD PUSH1 0x60 DUP2 MSTORE PUSH1 0x20 ADD PUSH1 0x60 DUP2 MSTORE PUSH1 0x20 ADD PUSH1 0x60 DUP2 MSTORE PUSH1 0x20 ADD PUSH1 0x60 DUP2 MSTORE PUSH1 0x20 ADD PUSH1 0x60 DUP2 MSTORE POP SWAP1 JUMP JUMPDEST DUP3 DUP1 SLOAD PUSH1 0x1 DUP2 PUSH1 0x1 AND ISZERO PUSH2 0x100 MUL SUB AND PUSH1 0x2 SWAP1 DIV SWAP1 PUSH1 0x0 MSTORE PUSH1 0x20 PUSH1 0x0 KECCAK256 SWAP1 PUSH1 0x1F ADD PUSH1 0x20 SWAP1 DIV DUP2 ADD SWAP3 DUP3 PUSH1 0x1F LT PUSH2 0x33F8 JUMPI DUP1 MLOAD PUSH1 0xFF NOT AND DUP4 DUP1 ADD OR DUP6 SSTORE PUSH2 0x3426 JUMP JUMPDEST DUP3 DUP1 ADD PUSH1 0x1 ADD DUP6 SSTORE DUP3 ISZERO PUSH2 0x3426 JUMPI SWAP2 DUP3 ADD JUMPDEST DUP3 DUP2 GT ISZERO PUSH2 0x3425 JUMPI DUP3 MLOAD DUP3 SSTORE SWAP2 PUSH1 0x20 ADD SWAP2 SWAP1 PUSH1 0x1 ADD SWAP1 PUSH2 0x340A JUMP JUMPDEST JUMPDEST POP SWAP1 POP PUSH2 0x3433 SWAP2 SWAP1 PUSH2 0x3437 JUMP JUMPDEST POP SWAP1 JUMP JUMPDEST PUSH2 0x3459 SWAP2 SWAP1 JUMPDEST DUP1 DUP3 GT ISZERO PUSH2 0x3455 JUMPI PUSH1 0x0 DUP2 PUSH1 0x0 SWAP1 SSTORE POP PUSH1 0x1 ADD PUSH2 0x343D JUMP JUMPDEST POP SWAP1 JUMP JUMPDEST SWAP1 JUMP JUMPDEST PUSH1 0x0 DUP2 CALLDATALOAD SWAP1 POP PUSH2 0x346B DUP2 PUSH2 0x4102 JUMP JUMPDEST SWAP3 SWAP2 POP POP JUMP JUMPDEST PUSH1 0x0 DUP2 MLOAD SWAP1 POP PUSH2 0x3480 DUP2 PUSH2 0x4119 JUMP JUMPDEST SWAP3 SWAP2 POP POP JUMP JUMPDEST PUSH1 0x0 DUP3 PUSH1 0x1F DUP4 ADD SLT PUSH2 0x3497 JUMPI PUSH1 0x0 DUP1 REVERT JUMPDEST DUP2 CALLDATALOAD PUSH2 0x34AA PUSH2 0x34A5 DUP3 PUSH2 0x3FB4 JUMP JUMPDEST PUSH2 0x3F87 JUMP JUMPDEST SWAP2 POP DUP1 DUP3 MSTORE PUSH1 0x20 DUP4 ADD PUSH1 0x20 DUP4 ADD DUP6 DUP4 DUP4 ADD GT ISZERO PUSH2 0x34C6 JUMPI PUSH1 0x0 DUP1 REVERT JUMPDEST PUSH2 0x34D1 DUP4 DUP3 DUP5 PUSH2 0x40AF JUMP JUMPDEST POP POP POP SWAP3 SWAP2 POP POP JUMP JUMPDEST PUSH1 0x0 DUP2 CALLDATALOAD SWAP1 POP PUSH2 0x34E9 DUP2 PUSH2 0x4130 JUMP JUMPDEST SWAP3 SWAP2 POP POP JUMP JUMPDEST PUSH1 0x0 DUP2 MLOAD SWAP1 POP PUSH2 0x34FE DUP2 PUSH2 0x4130 JUMP JUMPDEST SWAP3 SWAP2 POP POP JUMP JUMPDEST PUSH1 0x0 PUSH1 0x20 DUP3 DUP5 SUB SLT ISZERO PUSH2 0x3516 JUMPI PUSH1 0x0 DUP1 REVERT JUMPDEST PUSH1 0x0 PUSH2 0x3524 DUP5 DUP3 DUP6 ADD PUSH2 0x345C JUMP JUMPDEST SWAP2 POP POP SWAP3 SWAP2 POP POP JUMP JUMPDEST PUSH1 0x0 PUSH1 0x20 DUP3 DUP5 SUB SLT ISZERO PUSH2 0x353F JUMPI PUSH1 0x0 DUP1 REVERT JUMPDEST PUSH1 0x0 PUSH2 0x354D DUP5 DUP3 DUP6 ADD PUSH2 0x3471 JUMP JUMPDEST SWAP2 POP POP SWAP3 SWAP2 POP POP JUMP JUMPDEST PUSH1 0x0 PUSH1 0x20 DUP3 DUP5 SUB SLT ISZERO PUSH2 0x3568 JUMPI PUSH1 0x0 DUP1 REVERT JUMPDEST PUSH1 0x0 DUP3 ADD CALLDATALOAD PUSH8 0xFFFFFFFFFFFFFFFF DUP2 GT ISZERO PUSH2 0x3582 JUMPI PUSH1 0x0 DUP1 REVERT JUMPDEST PUSH2 0x358E DUP5 DUP3 DUP6 ADD PUSH2 0x3486 JUMP JUMPDEST SWAP2 POP POP SWAP3 SWAP2 POP POP JUMP JUMPDEST PUSH1 0x0 DUP1 PUSH1 0x40 DUP4 DUP6 SUB SLT ISZERO PUSH2 0x35AA JUMPI PUSH1 0x0 DUP1 REVERT JUMPDEST PUSH1 0x0 DUP4 ADD CALLDATALOAD PUSH8 0xFFFFFFFFFFFFFFFF DUP2 GT ISZERO PUSH2 0x35C4 JUMPI PUSH1 0x0 DUP1 REVERT JUMPDEST PUSH2 0x35D0 DUP6 DUP3 DUP7 ADD PUSH2 0x3486 JUMP JUMPDEST SWAP3 POP POP PUSH1 0x20 DUP4 ADD CALLDATALOAD PUSH8 0xFFFFFFFFFFFFFFFF DUP2 GT ISZERO PUSH2 0x35ED JUMPI PUSH1 0x0 DUP1 REVERT JUMPDEST PUSH2 0x35F9 DUP6 DUP3 DUP7 ADD PUSH2 0x3486 JUMP JUMPDEST SWAP2 POP POP SWAP3 POP SWAP3 SWAP1 POP JUMP JUMPDEST PUSH1 0x0 PUSH1 0x20 DUP3 DUP5 SUB SLT ISZERO PUSH2 0x3615 JUMPI PUSH1 0x0 DUP1 REVERT JUMPDEST PUSH1 0x0 PUSH2 0x3623 DUP5 DUP3 DUP6 ADD PUSH2 0x34DA JUMP JUMPDEST SWAP2 POP POP SWAP3 SWAP2 POP POP JUMP JUMPDEST PUSH1 0x0 PUSH1 0x20 DUP3 DUP5 SUB SLT ISZERO PUSH2 0x363E JUMPI PUSH1 0x0 DUP1 REVERT JUMPDEST PUSH1 0x0 PUSH2 0x364C DUP5 DUP3 DUP6 ADD PUSH2 0x34EF JUMP JUMPDEST SWAP2 POP POP SWAP3 SWAP2 POP POP JUMP JUMPDEST PUSH1 0x0 DUP1 PUSH1 0x0 DUP1 PUSH1 0x0 DUP1 PUSH1 0x0 PUSH1 0xE0 DUP9 DUP11 SUB SLT ISZERO PUSH2 0x3670 JUMPI PUSH1 0x0 DUP1 REVERT JUMPDEST PUSH1 0x0 PUSH2 0x367E DUP11 DUP3 DUP12 ADD PUSH2 0x34DA JUMP JUMPDEST SWAP8 POP POP PUSH1 0x20 DUP9 ADD CALLDATALOAD PUSH8 0xFFFFFFFFFFFFFFFF DUP2 GT ISZERO PUSH2 0x369B JUMPI PUSH1 0x0 DUP1 REVERT JUMPDEST PUSH2 0x36A7 DUP11 DUP3 DUP12 ADD PUSH2 0x3486 JUMP JUMPDEST SWAP7 POP POP PUSH1 0x40 DUP9 ADD CALLDATALOAD PUSH8 0xFFFFFFFFFFFFFFFF DUP2 GT ISZERO PUSH2 0x36C4 JUMPI PUSH1 0x0 DUP1 REVERT JUMPDEST PUSH2 0x36D0 DUP11 DUP3 DUP12 ADD PUSH2 0x3486 JUMP JUMPDEST SWAP6 POP POP PUSH1 0x60 DUP9 ADD CALLDATALOAD PUSH8 0xFFFFFFFFFFFFFFFF DUP2 GT ISZERO PUSH2 0x36ED JUMPI PUSH1 0x0 DUP1 REVERT JUMPDEST PUSH2 0x36F9 DUP11 DUP3 DUP12 ADD PUSH2 0x3486 JUMP JUMPDEST SWAP5 POP POP PUSH1 0x80 PUSH2 0x370A DUP11 DUP3 DUP12 ADD PUSH2 0x34DA JUMP JUMPDEST SWAP4 POP POP PUSH1 0xA0 PUSH2 0x371B DUP11 DUP3 DUP12 ADD PUSH2 0x34DA JUMP JUMPDEST SWAP3 POP POP PUSH1 0xC0 DUP9 ADD CALLDATALOAD PUSH8 0xFFFFFFFFFFFFFFFF DUP2 GT ISZERO PUSH2 0x3738 JUMPI PUSH1 0x0 DUP1 REVERT JUMPDEST PUSH2 0x3744 DUP11 DUP3 DUP12 ADD PUSH2 0x3486 JUMP JUMPDEST SWAP2 POP POP SWAP3 SWAP6 SWAP9 SWAP2 SWAP5 SWAP8 POP SWAP3 SWAP6 POP JUMP JUMPDEST PUSH2 0x375C DUP2 PUSH2 0x4055 JUMP JUMPDEST DUP3 MSTORE POP POP JUMP JUMPDEST PUSH2 0x376B DUP2 PUSH2 0x400D JUMP JUMPDEST DUP3 MSTORE POP POP JUMP JUMPDEST PUSH2 0x377A DUP2 PUSH2 0x4067 JUMP JUMPDEST DUP3 MSTORE POP POP JUMP JUMPDEST PUSH2 0x3789 DUP2 PUSH2 0x4079 JUMP JUMPDEST DUP3 MSTORE POP POP JUMP JUMPDEST PUSH1 0x0 PUSH2 0x379A DUP3 PUSH2 0x3FE0 JUMP JUMPDEST PUSH2 0x37A4 DUP2 DUP6 PUSH2 0x3FEB JUMP JUMPDEST SWAP4 POP PUSH2 0x37B4 DUP2 DUP6 PUSH1 0x20 DUP7 ADD PUSH2 0x40BE JUMP JUMPDEST PUSH2 0x37BD DUP2 PUSH2 0x40F1 JUMP JUMPDEST DUP5 ADD SWAP2 POP POP SWAP3 SWAP2 POP POP JUMP JUMPDEST PUSH1 0x0 PUSH2 0x37D3 DUP3 PUSH2 0x3FE0 JUMP JUMPDEST PUSH2 0x37DD DUP2 DUP6 PUSH2 0x3FFC JUMP JUMPDEST SWAP4 POP PUSH2 0x37ED DUP2 DUP6 PUSH1 0x20 DUP7 ADD PUSH2 0x40BE JUMP JUMPDEST PUSH2 0x37F6 DUP2 PUSH2 0x40F1 JUMP JUMPDEST DUP5 ADD SWAP2 POP POP SWAP3 SWAP2 POP POP JUMP JUMPDEST PUSH1 0x0 PUSH2 0x380E PUSH1 0x10 DUP4 PUSH2 0x3FFC JUMP JUMPDEST SWAP2 POP PUSH32 0x6E6F7420657461626C6973656D656E7400000000000000000000000000000000 PUSH1 0x0 DUP4 ADD MSTORE PUSH1 0x20 DUP3 ADD SWAP1 POP SWAP2 SWAP1 POP JUMP JUMPDEST PUSH1 0x0 PUSH2 0x384E PUSH1 0x11 DUP4 PUSH2 0x3FFC JUMP JUMPDEST SWAP2 POP PUSH32 0x746F6B656E206E6F7420616C6C6F776564000000000000000000000000000000 PUSH1 0x0 DUP4 ADD MSTORE PUSH1 0x20 DUP3 ADD SWAP1 POP SWAP2 SWAP1 POP JUMP JUMPDEST PUSH1 0x0 PUSH2 0x388E PUSH1 0x15 DUP4 PUSH2 0x3FFC JUMP JUMPDEST SWAP2 POP PUSH32 0x53747564656E7420646F65736E27742065786973740000000000000000000000 PUSH1 0x0 DUP4 ADD MSTORE PUSH1 0x20 DUP3 ADD SWAP1 POP SWAP2 SWAP1 POP JUMP JUMPDEST PUSH1 0x0 PUSH2 0x38CE PUSH1 0xE DUP4 PUSH2 0x3FFC JUMP JUMPDEST SWAP2 POP PUSH32 0x6E6F20456E747265707269736573000000000000000000000000000000000000 PUSH1 0x0 DUP4 ADD MSTORE PUSH1 0x20 DUP3 ADD SWAP1 POP SWAP2 SWAP1 POP JUMP JUMPDEST PUSH1 0x0 PUSH2 0x390E PUSH1 0xE DUP4 PUSH2 0x3FFC JUMP JUMPDEST SWAP2 POP PUSH32 0x7472616E7366657274206661696C000000000000000000000000000000000000 PUSH1 0x0 DUP4 ADD MSTORE PUSH1 0x20 DUP3 ADD SWAP1 POP SWAP2 SWAP1 POP JUMP JUMPDEST PUSH1 0x0 PUSH2 0x100 DUP4 ADD PUSH1 0x0 DUP4 ADD MLOAD PUSH2 0x395A PUSH1 0x0 DUP7 ADD DUP3 PUSH2 0x3BC0 JUMP JUMPDEST POP PUSH1 0x20 DUP4 ADD MLOAD DUP5 DUP3 SUB PUSH1 0x20 DUP7 ADD MSTORE PUSH2 0x3972 DUP3 DUP3 PUSH2 0x378F JUMP JUMPDEST SWAP2 POP POP PUSH1 0x40 DUP4 ADD MLOAD PUSH2 0x3987 PUSH1 0x40 DUP7 ADD DUP3 PUSH2 0x3BC0 JUMP JUMPDEST POP PUSH1 0x60 DUP4 ADD MLOAD DUP5 DUP3 SUB PUSH1 0x60 DUP7 ADD MSTORE PUSH2 0x399F DUP3 DUP3 PUSH2 0x378F JUMP JUMPDEST SWAP2 POP POP PUSH1 0x80 DUP4 ADD MLOAD DUP5 DUP3 SUB PUSH1 0x80 DUP7 ADD MSTORE PUSH2 0x39B9 DUP3 DUP3 PUSH2 0x378F JUMP JUMPDEST SWAP2 POP POP PUSH1 0xA0 DUP4 ADD MLOAD DUP5 DUP3 SUB PUSH1 0xA0 DUP7 ADD MSTORE PUSH2 0x39D3 DUP3 DUP3 PUSH2 0x378F JUMP JUMPDEST SWAP2 POP POP PUSH1 0xC0 DUP4 ADD MLOAD DUP5 DUP3 SUB PUSH1 0xC0 DUP7 ADD MSTORE PUSH2 0x39ED DUP3 DUP3 PUSH2 0x378F JUMP JUMPDEST SWAP2 POP POP PUSH1 0xE0 DUP4 ADD MLOAD PUSH2 0x3A02 PUSH1 0xE0 DUP7 ADD DUP3 PUSH2 0x3BC0 JUMP JUMPDEST POP DUP1 SWAP2 POP POP SWAP3 SWAP2 POP POP JUMP JUMPDEST PUSH1 0x0 PUSH2 0x200 DUP4 ADD PUSH1 0x0 DUP4 ADD MLOAD DUP5 DUP3 SUB PUSH1 0x0 DUP7 ADD MSTORE PUSH2 0x3A2B DUP3 DUP3 PUSH2 0x378F JUMP JUMPDEST SWAP2 POP POP PUSH1 0x20 DUP4 ADD MLOAD DUP5 DUP3 SUB PUSH1 0x20 DUP7 ADD MSTORE PUSH2 0x3A45 DUP3 DUP3 PUSH2 0x378F JUMP JUMPDEST SWAP2 POP POP PUSH1 0x40 DUP4 ADD MLOAD DUP5 DUP3 SUB PUSH1 0x40 DUP7 ADD MSTORE PUSH2 0x3A5F DUP3 DUP3 PUSH2 0x378F JUMP JUMPDEST SWAP2 POP POP PUSH1 0x60 DUP4 ADD MLOAD DUP5 DUP3 SUB PUSH1 0x60 DUP7 ADD MSTORE PUSH2 0x3A79 DUP3 DUP3 PUSH2 0x378F JUMP JUMPDEST SWAP2 POP POP PUSH1 0x80 DUP4 ADD MLOAD DUP5 DUP3 SUB PUSH1 0x80 DUP7 ADD MSTORE PUSH2 0x3A93 DUP3 DUP3 PUSH2 0x378F JUMP JUMPDEST SWAP2 POP POP PUSH1 0xA0 DUP4 ADD MLOAD DUP5 DUP3 SUB PUSH1 0xA0 DUP7 ADD MSTORE PUSH2 0x3AAD DUP3 DUP3 PUSH2 0x378F JUMP JUMPDEST SWAP2 POP POP PUSH1 0xC0 DUP4 ADD MLOAD DUP5 DUP3 SUB PUSH1 0xC0 DUP7 ADD MSTORE PUSH2 0x3AC7 DUP3 DUP3 PUSH2 0x378F JUMP JUMPDEST SWAP2 POP POP PUSH1 0xE0 DUP4 ADD MLOAD DUP5 DUP3 SUB PUSH1 0xE0 DUP7 ADD MSTORE PUSH2 0x3AE1 DUP3 DUP3 PUSH2 0x378F JUMP JUMPDEST SWAP2 POP POP PUSH2 0x100 DUP4 ADD MLOAD DUP5 DUP3 SUB PUSH2 0x100 DUP7 ADD MSTORE PUSH2 0x3AFD DUP3 DUP3 PUSH2 0x378F JUMP JUMPDEST SWAP2 POP POP PUSH2 0x120 DUP4 ADD MLOAD DUP5 DUP3 SUB PUSH2 0x120 DUP7 ADD MSTORE PUSH2 0x3B19 DUP3 DUP3 PUSH2 0x378F JUMP JUMPDEST SWAP2 POP POP PUSH2 0x140 DUP4 ADD MLOAD DUP5 DUP3 SUB PUSH2 0x140 DUP7 ADD MSTORE PUSH2 0x3B35 DUP3 DUP3 PUSH2 0x378F JUMP JUMPDEST SWAP2 POP POP PUSH2 0x160 DUP4 ADD MLOAD DUP5 DUP3 SUB PUSH2 0x160 DUP7 ADD MSTORE PUSH2 0x3B51 DUP3 DUP3 PUSH2 0x378F JUMP JUMPDEST SWAP2 POP POP PUSH2 0x180 DUP4 ADD MLOAD DUP5 DUP3 SUB PUSH2 0x180 DUP7 ADD MSTORE PUSH2 0x3B6D DUP3 DUP3 PUSH2 0x378F JUMP JUMPDEST SWAP2 POP POP PUSH2 0x1A0 DUP4 ADD MLOAD PUSH2 0x3B84 PUSH2 0x1A0 DUP7 ADD DUP3 PUSH2 0x3BC0 JUMP JUMPDEST POP PUSH2 0x1C0 DUP4 ADD MLOAD PUSH2 0x3B99 PUSH2 0x1C0 DUP7 ADD DUP3 PUSH2 0x3BC0 JUMP JUMPDEST POP PUSH2 0x1E0 DUP4 ADD MLOAD DUP5 DUP3 SUB PUSH2 0x1E0 DUP7 ADD MSTORE PUSH2 0x3BB3 DUP3 DUP3 PUSH2 0x378F JUMP JUMPDEST SWAP2 POP POP DUP1 SWAP2 POP POP SWAP3 SWAP2 POP POP JUMP JUMPDEST PUSH2 0x3BC9 DUP2 PUSH2 0x404B JUMP JUMPDEST DUP3 MSTORE POP POP JUMP JUMPDEST PUSH2 0x3BD8 DUP2 PUSH2 0x404B JUMP JUMPDEST DUP3 MSTORE POP POP JUMP JUMPDEST PUSH1 0x0 PUSH1 0x40 DUP3 ADD SWAP1 POP PUSH2 0x3BF3 PUSH1 0x0 DUP4 ADD DUP6 PUSH2 0x3753 JUMP JUMPDEST PUSH2 0x3C00 PUSH1 0x20 DUP4 ADD DUP5 PUSH2 0x3762 JUMP JUMPDEST SWAP4 SWAP3 POP POP POP JUMP JUMPDEST PUSH1 0x0 PUSH1 0x60 DUP3 ADD SWAP1 POP PUSH2 0x3C1C PUSH1 0x0 DUP4 ADD DUP7 PUSH2 0x3753 JUMP JUMPDEST PUSH2 0x3C29 PUSH1 0x20 DUP4 ADD DUP6 PUSH2 0x3762 JUMP JUMPDEST PUSH2 0x3C36 PUSH1 0x40 DUP4 ADD DUP5 PUSH2 0x3771 JUMP JUMPDEST SWAP5 SWAP4 POP POP POP POP JUMP JUMPDEST PUSH1 0x0 PUSH1 0x40 DUP3 ADD SWAP1 POP PUSH2 0x3C53 PUSH1 0x0 DUP4 ADD DUP6 PUSH2 0x3762 JUMP JUMPDEST PUSH2 0x3C60 PUSH1 0x20 DUP4 ADD DUP5 PUSH2 0x3762 JUMP JUMPDEST SWAP4 SWAP3 POP POP POP JUMP JUMPDEST PUSH1 0x0 PUSH1 0x60 DUP3 ADD SWAP1 POP PUSH2 0x3C7C PUSH1 0x0 DUP4 ADD DUP7 PUSH2 0x3762 JUMP JUMPDEST PUSH2 0x3C89 PUSH1 0x20 DUP4 ADD DUP6 PUSH2 0x3753 JUMP JUMPDEST PUSH2 0x3C96 PUSH1 0x40 DUP4 ADD DUP5 PUSH2 0x3780 JUMP JUMPDEST SWAP5 SWAP4 POP POP POP POP JUMP JUMPDEST PUSH1 0x0 PUSH1 0xC0 DUP3 ADD SWAP1 POP DUP2 DUP2 SUB PUSH1 0x0 DUP4 ADD MSTORE PUSH2 0x3CB8 DUP2 DUP10 PUSH2 0x37C8 JUMP JUMPDEST SWAP1 POP DUP2 DUP2 SUB PUSH1 0x20 DUP4 ADD MSTORE PUSH2 0x3CCC DUP2 DUP9 PUSH2 0x37C8 JUMP JUMPDEST SWAP1 POP DUP2 DUP2 SUB PUSH1 0x40 DUP4 ADD MSTORE PUSH2 0x3CE0 DUP2 DUP8 PUSH2 0x37C8 JUMP JUMPDEST SWAP1 POP DUP2 DUP2 SUB PUSH1 0x60 DUP4 ADD MSTORE PUSH2 0x3CF4 DUP2 DUP7 PUSH2 0x37C8 JUMP JUMPDEST SWAP1 POP DUP2 DUP2 SUB PUSH1 0x80 DUP4 ADD MSTORE PUSH2 0x3D08 DUP2 DUP6 PUSH2 0x37C8 JUMP JUMPDEST SWAP1 POP PUSH2 0x3D17 PUSH1 0xA0 DUP4 ADD DUP5 PUSH2 0x3BCF JUMP JUMPDEST SWAP8 SWAP7 POP POP POP POP POP POP POP JUMP JUMPDEST PUSH1 0x0 PUSH2 0x120 DUP3 ADD SWAP1 POP DUP2 DUP2 SUB PUSH1 0x0 DUP4 ADD MSTORE PUSH2 0x3D3D DUP2 DUP13 PUSH2 0x37C8 JUMP JUMPDEST SWAP1 POP DUP2 DUP2 SUB PUSH1 0x20 DUP4 ADD MSTORE PUSH2 0x3D51 DUP2 DUP12 PUSH2 0x37C8 JUMP JUMPDEST SWAP1 POP PUSH2 0x3D60 PUSH1 0x40 DUP4 ADD DUP11 PUSH2 0x3BCF JUMP JUMPDEST DUP2 DUP2 SUB PUSH1 0x60 DUP4 ADD MSTORE PUSH2 0x3D72 DUP2 DUP10 PUSH2 0x37C8 JUMP JUMPDEST SWAP1 POP DUP2 DUP2 SUB PUSH1 0x80 DUP4 ADD MSTORE PUSH2 0x3D86 DUP2 DUP9 PUSH2 0x37C8 JUMP JUMPDEST SWAP1 POP DUP2 DUP2 SUB PUSH1 0xA0 DUP4 ADD MSTORE PUSH2 0x3D9A DUP2 DUP8 PUSH2 0x37C8 JUMP JUMPDEST SWAP1 POP DUP2 DUP2 SUB PUSH1 0xC0 DUP4 ADD MSTORE PUSH2 0x3DAE DUP2 DUP7 PUSH2 0x37C8 JUMP JUMPDEST SWAP1 POP DUP2 DUP2 SUB PUSH1 0xE0 DUP4 ADD MSTORE PUSH2 0x3DC2 DUP2 DUP6 PUSH2 0x37C8 JUMP JUMPDEST SWAP1 POP DUP2 DUP2 SUB PUSH2 0x100 DUP4 ADD MSTORE PUSH2 0x3DD7 DUP2 DUP5 PUSH2 0x37C8 JUMP JUMPDEST SWAP1 POP SWAP11 SWAP10 POP POP POP POP POP POP POP POP POP POP JUMP JUMPDEST PUSH1 0x0 PUSH1 0x20 DUP3 ADD SWAP1 POP DUP2 DUP2 SUB PUSH1 0x0 DUP4 ADD MSTORE PUSH2 0x3E00 DUP2 PUSH2 0x3801 JUMP JUMPDEST SWAP1 POP SWAP2 SWAP1 POP JUMP JUMPDEST PUSH1 0x0 PUSH1 0x20 DUP3 ADD SWAP1 POP DUP2 DUP2 SUB PUSH1 0x0 DUP4 ADD MSTORE PUSH2 0x3E20 DUP2 PUSH2 0x3841 JUMP JUMPDEST SWAP1 POP SWAP2 SWAP1 POP JUMP JUMPDEST PUSH1 0x0 PUSH1 0x20 DUP3 ADD SWAP1 POP DUP2 DUP2 SUB PUSH1 0x0 DUP4 ADD MSTORE PUSH2 0x3E40 DUP2 PUSH2 0x3881 JUMP JUMPDEST SWAP1 POP SWAP2 SWAP1 POP JUMP JUMPDEST PUSH1 0x0 PUSH1 0x20 DUP3 ADD SWAP1 POP DUP2 DUP2 SUB PUSH1 0x0 DUP4 ADD MSTORE PUSH2 0x3E60 DUP2 PUSH2 0x38C1 JUMP JUMPDEST SWAP1 POP SWAP2 SWAP1 POP JUMP JUMPDEST PUSH1 0x0 PUSH1 0x20 DUP3 ADD SWAP1 POP DUP2 DUP2 SUB PUSH1 0x0 DUP4 ADD MSTORE PUSH2 0x3E80 DUP2 PUSH2 0x3901 JUMP JUMPDEST SWAP1 POP SWAP2 SWAP1 POP JUMP JUMPDEST PUSH1 0x0 PUSH1 0x20 DUP3 ADD SWAP1 POP DUP2 DUP2 SUB PUSH1 0x0 DUP4 ADD MSTORE PUSH2 0x3EA1 DUP2 DUP5 PUSH2 0x3941 JUMP JUMPDEST SWAP1 POP SWAP3 SWAP2 POP POP JUMP JUMPDEST PUSH1 0x0 PUSH1 0x20 DUP3 ADD SWAP1 POP DUP2 DUP2 SUB PUSH1 0x0 DUP4 ADD MSTORE PUSH2 0x3EC3 DUP2 DUP5 PUSH2 0x3A0D JUMP JUMPDEST SWAP1 POP SWAP3 SWAP2 POP POP JUMP JUMPDEST PUSH1 0x0 PUSH1 0x20 DUP3 ADD SWAP1 POP PUSH2 0x3EE0 PUSH1 0x0 DUP4 ADD DUP5 PUSH2 0x3BCF JUMP JUMPDEST SWAP3 SWAP2 POP POP JUMP JUMPDEST PUSH1 0x0 PUSH2 0x100 DUP3 ADD SWAP1 POP PUSH2 0x3EFC PUSH1 0x0 DUP4 ADD DUP12 PUSH2 0x3BCF JUMP JUMPDEST DUP2 DUP2 SUB PUSH1 0x20 DUP4 ADD MSTORE PUSH2 0x3F0E DUP2 DUP11 PUSH2 0x37C8 JUMP JUMPDEST SWAP1 POP PUSH2 0x3F1D PUSH1 0x40 DUP4 ADD DUP10 PUSH2 0x3BCF JUMP JUMPDEST DUP2 DUP2 SUB PUSH1 0x60 DUP4 ADD MSTORE PUSH2 0x3F2F DUP2 DUP9 PUSH2 0x37C8 JUMP JUMPDEST SWAP1 POP DUP2 DUP2 SUB PUSH1 0x80 DUP4 ADD MSTORE PUSH2 0x3F43 DUP2 DUP8 PUSH2 0x37C8 JUMP JUMPDEST SWAP1 POP DUP2 DUP2 SUB PUSH1 0xA0 DUP4 ADD MSTORE PUSH2 0x3F57 DUP2 DUP7 PUSH2 0x37C8 JUMP JUMPDEST SWAP1 POP DUP2 DUP2 SUB PUSH1 0xC0 DUP4 ADD MSTORE PUSH2 0x3F6B DUP2 DUP6 PUSH2 0x37C8 JUMP JUMPDEST SWAP1 POP PUSH2 0x3F7A PUSH1 0xE0 DUP4 ADD DUP5 PUSH2 0x3BCF JUMP JUMPDEST SWAP10 SWAP9 POP POP POP POP POP POP POP POP POP JUMP JUMPDEST PUSH1 0x0 PUSH1 0x40 MLOAD SWAP1 POP DUP2 DUP2 ADD DUP2 DUP2 LT PUSH8 0xFFFFFFFFFFFFFFFF DUP3 GT OR ISZERO PUSH2 0x3FAA JUMPI PUSH1 0x0 DUP1 REVERT JUMPDEST DUP1 PUSH1 0x40 MSTORE POP SWAP2 SWAP1 POP JUMP JUMPDEST PUSH1 0x0 PUSH8 0xFFFFFFFFFFFFFFFF DUP3 GT ISZERO PUSH2 0x3FCB JUMPI PUSH1 0x0 DUP1 REVERT JUMPDEST PUSH1 0x1F NOT PUSH1 0x1F DUP4 ADD AND SWAP1 POP PUSH1 0x20 DUP2 ADD SWAP1 POP SWAP2 SWAP1 POP JUMP JUMPDEST PUSH1 0x0 DUP2 MLOAD SWAP1 POP SWAP2 SWAP1 POP JUMP JUMPDEST PUSH1 0x0 DUP3 DUP3 MSTORE PUSH1 0x20 DUP3 ADD SWAP1 POP SWAP3 SWAP2 POP POP JUMP JUMPDEST PUSH1 0x0 DUP3 DUP3 MSTORE PUSH1 0x20 DUP3 ADD SWAP1 POP SWAP3 SWAP2 POP POP JUMP JUMPDEST PUSH1 0x0 PUSH2 0x4018 DUP3 PUSH2 0x402B JUMP JUMPDEST SWAP1 POP SWAP2 SWAP1 POP JUMP JUMPDEST PUSH1 0x0 DUP2 ISZERO ISZERO SWAP1 POP SWAP2 SWAP1 POP JUMP JUMPDEST PUSH1 0x0 PUSH20 0xFFFFFFFFFFFFFFFFFFFFFFFFFFFFFFFFFFFFFFFF DUP3 AND SWAP1 POP SWAP2 SWAP1 POP JUMP JUMPDEST PUSH1 0x0 DUP2 SWAP1 POP SWAP2 SWAP1 POP JUMP JUMPDEST PUSH1 0x0 PUSH2 0x4060 DUP3 PUSH2 0x408B JUMP JUMPDEST SWAP1 POP SWAP2 SWAP1 POP JUMP JUMPDEST PUSH1 0x0 PUSH2 0x4072 DUP3 PUSH2 0x404B JUMP JUMPDEST SWAP1 POP SWAP2 SWAP1 POP JUMP JUMPDEST PUSH1 0x0 PUSH2 0x4084 DUP3 PUSH2 0x404B JUMP JUMPDEST SWAP1 POP SWAP2 SWAP1 POP JUMP JUMPDEST PUSH1 0x0 PUSH2 0x4096 DUP3 PUSH2 0x409D JUMP JUMPDEST SWAP1 POP SWAP2 SWAP1 POP JUMP JUMPDEST PUSH1 0x0 PUSH2 0x40A8 DUP3 PUSH2 0x402B JUMP JUMPDEST SWAP1 POP SWAP2 SWAP1 POP JUMP JUMPDEST DUP3 DUP2 DUP4 CALLDATACOPY PUSH1 0x0 DUP4 DUP4 ADD MSTORE POP POP POP JUMP JUMPDEST PUSH1 0x0 JUMPDEST DUP4 DUP2 LT ISZERO PUSH2 0x40DC JUMPI DUP1 DUP3 ADD MLOAD DUP2 DUP5 ADD MSTORE PUSH1 0x20 DUP2 ADD SWAP1 POP PUSH2 0x40C1 JUMP JUMPDEST DUP4 DUP2 GT ISZERO PUSH2 0x40EB JUMPI PUSH1 0x0 DUP5 DUP5 ADD MSTORE JUMPDEST POP POP POP POP JUMP JUMPDEST PUSH1 0x0 PUSH1 0x1F NOT PUSH1 0x1F DUP4 ADD AND SWAP1 POP SWAP2 SWAP1 POP JUMP JUMPDEST PUSH2 0x410B DUP2 PUSH2 0x400D JUMP JUMPDEST DUP2 EQ PUSH2 0x4116 JUMPI PUSH1 0x0 DUP1 REVERT JUMPDEST POP JUMP JUMPDEST PUSH2 0x4122 DUP2 PUSH2 0x401F JUMP JUMPDEST DUP2 EQ PUSH2 0x412D JUMPI PUSH1 0x0 DUP1 REVERT JUMPDEST POP JUMP JUMPDEST PUSH2 0x4139 DUP2 PUSH2 0x404B JUMP JUMPDEST DUP2 EQ PUSH2 0x4144 JUMPI PUSH1 0x0 DUP1 REVERT JUMPDEST POP JUMP INVALID LOG2 PUSH5 0x6970667358 0x22 SLT KECCAK256 DUP7 0xA8 ORIGIN EXTCODEHASH RETURNDATASIZE 0xDD DUP5 0x2D 0xF6 0x4F LOG3 0xA8 SWAP9 STOP COINBASE ADD 0xEF 0xDD ISZERO PUSH4 0x97A1767A INVALID 0xB9 GASLIMIT SWAP12 0xB9 PUSH2 0xA06B PUSH5 0x736F6C6343 STOP MOD ADD STOP CALLER "
				},
				"gasEstimates": {
					"creation": {
						"codeDepositCost": "3353000",
						"executionCost": "infinite",
						"totalCost": "infinite"
					},
					"external": {
						"AddressEntreprises(address)": "1603",
						"Diplomes(uint256)": "infinite",
						"Entreprises(uint256)": "infinite",
						"Etablisements(uint256)": "infinite",
						"NbDiplomes()": "1196",
						"NbEntreprises()": "1217",
						"NbEtablisements()": "1152",
						"NbEtudiants()": "1175",
						"ajouter_diplome(uint256)": "infinite",
						"ajouter_entreprise(string)": "infinite",
						"ajouter_etablisement(string)": "infinite",
						"ajouter_etudiant(string,string)": "infinite",
						"evaluer(uint256,string,string,string,uint256,uint256,string)": "infinite",
						"get_Etudiants(uint256)": "infinite",
						"verifier(uint256)": "infinite"
					},
					"internal": {
						"ajouter_diplome(struct Entities.Diplome memory)": "infinite",
						"ajouter_entreprise(struct Entities.Entreprise memory,address)": "infinite",
						"ajouter_etablisement(struct Entities.Etablisement memory,address)": "infinite",
						"ajouter_etudiant(struct Entities.Etudiant memory)": "infinite"
					}
				},
				"methodIdentifiers": {
					"AddressEntreprises(address)": "78a31262",
					"Diplomes(uint256)": "4accf9a7",
					"Entreprises(uint256)": "56faba43",
					"Etablisements(uint256)": "7eae205d",
					"NbDiplomes()": "6f2962b7",
					"NbEntreprises()": "e23cc50d",
					"NbEtablisements()": "37683976",
					"NbEtudiants()": "161a9fb5",
					"ajouter_diplome(uint256)": "05d728f5",
					"ajouter_entreprise(string)": "c685e978",
					"ajouter_etablisement(string)": "5e00c8a2",
					"ajouter_etudiant(string,string)": "6573f803",
					"evaluer(uint256,string,string,string,uint256,uint256,string)": "27edee9e",
					"get_Etudiants(uint256)": "6b6df2be",
					"verifier(uint256)": "8d129178"
				}
			},
			"storageLayout": {
				"storage": [
					{
						"astId": 5,
						"contract": "contract/entities.sol:Entities",
						"label": "owner",
						"offset": 0,
						"slot": "0",
						"type": "t_address"
					},
					{
						"astId": 7,
						"contract": "contract/entities.sol:Entities",
						"label": "token",
						"offset": 0,
						"slot": "1",
						"type": "t_address"
					},
					{
						"astId": 93,
						"contract": "contract/entities.sol:Entities",
						"label": "Etablisements",
						"offset": 0,
						"slot": "2",
						"type": "t_mapping(t_uint256,t_struct(Etablisement)20_storage)"
					},
					{
						"astId": 97,
						"contract": "contract/entities.sol:Entities",
						"label": "AddressEtablisements",
						"offset": 0,
						"slot": "3",
						"type": "t_mapping(t_address,t_uint256)"
					},
					{
						"astId": 101,
						"contract": "contract/entities.sol:Entities",
						"label": "Etudiants",
						"offset": 0,
						"slot": "4",
						"type": "t_mapping(t_uint256,t_struct(Etudiant)70_storage)"
					},
					{
						"astId": 105,
						"contract": "contract/entities.sol:Entities",
						"label": "Entreprises",
						"offset": 0,
						"slot": "5",
						"type": "t_mapping(t_uint256,t_struct(Entreprise)89_storage)"
					},
					{
						"astId": 109,
						"contract": "contract/entities.sol:Entities",
						"label": "AddressEntreprises",
						"offset": 0,
						"slot": "6",
						"type": "t_mapping(t_address,t_uint256)"
					},
					{
						"astId": 113,
						"contract": "contract/entities.sol:Entities",
						"label": "Diplomes",
						"offset": 0,
						"slot": "7",
						"type": "t_mapping(t_uint256,t_struct(Diplome)37_storage)"
					},
					{
						"astId": 127,
						"contract": "contract/entities.sol:Entities",
						"label": "NbEtablisements",
						"offset": 0,
						"slot": "8",
						"type": "t_uint256"
					},
					{
						"astId": 129,
						"contract": "contract/entities.sol:Entities",
						"label": "NbEtudiants",
						"offset": 0,
						"slot": "9",
						"type": "t_uint256"
					},
					{
						"astId": 131,
						"contract": "contract/entities.sol:Entities",
						"label": "NbEntreprises",
						"offset": 0,
						"slot": "10",
						"type": "t_uint256"
					},
					{
						"astId": 133,
						"contract": "contract/entities.sol:Entities",
						"label": "NbDiplomes",
						"offset": 0,
						"slot": "11",
						"type": "t_uint256"
					}
				],
				"types": {
					"t_address": {
						"encoding": "inplace",
						"label": "address",
						"numberOfBytes": "20"
					},
					"t_mapping(t_address,t_uint256)": {
						"encoding": "mapping",
						"key": "t_address",
						"label": "mapping(address => uint256)",
						"numberOfBytes": "32",
						"value": "t_uint256"
					},
					"t_mapping(t_uint256,t_struct(Diplome)37_storage)": {
						"encoding": "mapping",
						"key": "t_uint256",
						"label": "mapping(uint256 => struct Entities.Diplome)",
						"numberOfBytes": "32",
						"value": "t_struct(Diplome)37_storage"
					},
					"t_mapping(t_uint256,t_struct(Entreprise)89_storage)": {
						"encoding": "mapping",
						"key": "t_uint256",
						"label": "mapping(uint256 => struct Entities.Entreprise)",
						"numberOfBytes": "32",
						"value": "t_struct(Entreprise)89_storage"
					},
					"t_mapping(t_uint256,t_struct(Etablisement)20_storage)": {
						"encoding": "mapping",
						"key": "t_uint256",
						"label": "mapping(uint256 => struct Entities.Etablisement)",
						"numberOfBytes": "32",
						"value": "t_struct(Etablisement)20_storage"
					},
					"t_mapping(t_uint256,t_struct(Etudiant)70_storage)": {
						"encoding": "mapping",
						"key": "t_uint256",
						"label": "mapping(uint256 => struct Entities.Etudiant)",
						"numberOfBytes": "32",
						"value": "t_struct(Etudiant)70_storage"
					},
					"t_string_storage": {
						"encoding": "bytes",
						"label": "string",
						"numberOfBytes": "32"
					},
					"t_struct(Diplome)37_storage": {
						"encoding": "inplace",
						"label": "struct Entities.Diplome",
						"members": [
							{
								"astId": 22,
								"contract": "contract/entities.sol:Entities",
								"label": "ID_Titulaire",
								"offset": 0,
								"slot": "0",
								"type": "t_uint256"
							},
							{
								"astId": 24,
								"contract": "contract/entities.sol:Entities",
								"label": "Nom_Etablisement_Enseignement_Superieur",
								"offset": 0,
								"slot": "1",
								"type": "t_string_storage"
							},
							{
								"astId": 26,
								"contract": "contract/entities.sol:Entities",
								"label": "ID_EES",
								"offset": 0,
								"slot": "2",
								"type": "t_uint256"
							},
							{
								"astId": 28,
								"contract": "contract/entities.sol:Entities",
								"label": "Pays",
								"offset": 0,
								"slot": "3",
								"type": "t_string_storage"
							},
							{
								"astId": 30,
								"contract": "contract/entities.sol:Entities",
								"label": "Type_Diplome",
								"offset": 0,
								"slot": "4",
								"type": "t_string_storage"
							},
							{
								"astId": 32,
								"contract": "contract/entities.sol:Entities",
								"label": "Specialite",
								"offset": 0,
								"slot": "5",
								"type": "t_string_storage"
							},
							{
								"astId": 34,
								"contract": "contract/entities.sol:Entities",
								"label": "Mention",
								"offset": 0,
								"slot": "6",
								"type": "t_string_storage"
							},
							{
								"astId": 36,
								"contract": "contract/entities.sol:Entities",
								"label": "Date_d_obtention",
								"offset": 0,
								"slot": "7",
								"type": "t_uint256"
							}
						],
						"numberOfBytes": "256"
					},
					"t_struct(Entreprise)89_storage": {
						"encoding": "inplace",
						"label": "struct Entities.Entreprise",
						"members": [
							{
								"astId": 72,
								"contract": "contract/entities.sol:Entities",
								"label": "Nom",
								"offset": 0,
								"slot": "0",
								"type": "t_string_storage"
							},
							{
								"astId": 74,
								"contract": "contract/entities.sol:Entities",
								"label": "Secteur",
								"offset": 0,
								"slot": "1",
								"type": "t_string_storage"
							},
							{
								"astId": 76,
								"contract": "contract/entities.sol:Entities",
								"label": "Date_Creation",
								"offset": 0,
								"slot": "2",
								"type": "t_uint256"
							},
							{
								"astId": 78,
								"contract": "contract/entities.sol:Entities",
								"label": "Classification_Taille",
								"offset": 0,
								"slot": "3",
								"type": "t_string_storage"
							},
							{
								"astId": 80,
								"contract": "contract/entities.sol:Entities",
								"label": "Pays",
								"offset": 0,
								"slot": "4",
								"type": "t_string_storage"
							},
							{
								"astId": 82,
								"contract": "contract/entities.sol:Entities",
								"label": "Adresse",
								"offset": 0,
								"slot": "5",
								"type": "t_string_storage"
							},
							{
								"astId": 84,
								"contract": "contract/entities.sol:Entities",
								"label": "Courriel",
								"offset": 0,
								"slot": "6",
								"type": "t_string_storage"
							},
							{
								"astId": 86,
								"contract": "contract/entities.sol:Entities",
								"label": "telephone",
								"offset": 0,
								"slot": "7",
								"type": "t_string_storage"
							},
							{
								"astId": 88,
								"contract": "contract/entities.sol:Entities",
								"label": "Site_Web",
								"offset": 0,
								"slot": "8",
								"type": "t_string_storage"
							}
						],
						"numberOfBytes": "288"
					},
					"t_struct(Etablisement)20_storage": {
						"encoding": "inplace",
						"label": "struct Entities.Etablisement",
						"members": [
							{
								"astId": 9,
								"contract": "contract/entities.sol:Entities",
								"label": "Nom_Etablisement",
								"offset": 0,
								"slot": "0",
								"type": "t_string_storage"
							},
							{
								"astId": 11,
								"contract": "contract/entities.sol:Entities",
								"label": "Type",
								"offset": 0,
								"slot": "1",
								"type": "t_string_storage"
							},
							{
								"astId": 13,
								"contract": "contract/entities.sol:Entities",
								"label": "Pays",
								"offset": 0,
								"slot": "2",
								"type": "t_string_storage"
							},
							{
								"astId": 15,
								"contract": "contract/entities.sol:Entities",
								"label": "Adresse",
								"offset": 0,
								"slot": "3",
								"type": "t_string_storage"
							},
							{
								"astId": 17,
								"contract": "contract/entities.sol:Entities",
								"label": "Site_Web",
								"offset": 0,
								"slot": "4",
								"type": "t_string_storage"
							},
							{
								"astId": 19,
								"contract": "contract/entities.sol:Entities",
								"label": "ID_Agent",
								"offset": 0,
								"slot": "5",
								"type": "t_uint256"
							}
						],
						"numberOfBytes": "192"
					},
					"t_struct(Etudiant)70_storage": {
						"encoding": "inplace",
						"label": "struct Entities.Etudiant",
						"members": [
							{
								"astId": 39,
								"contract": "contract/entities.sol:Entities",
								"label": "Nom",
								"offset": 0,
								"slot": "0",
								"type": "t_string_storage"
							},
							{
								"astId": 41,
								"contract": "contract/entities.sol:Entities",
								"label": "Prenom",
								"offset": 0,
								"slot": "1",
								"type": "t_string_storage"
							},
							{
								"astId": 43,
								"contract": "contract/entities.sol:Entities",
								"label": "Date_de_naisance",
								"offset": 0,
								"slot": "2",
								"type": "t_string_storage"
							},
							{
								"astId": 45,
								"contract": "contract/entities.sol:Entities",
								"label": "Sexe",
								"offset": 0,
								"slot": "3",
								"type": "t_string_storage"
							},
							{
								"astId": 47,
								"contract": "contract/entities.sol:Entities",
								"label": "Nationalite",
								"offset": 0,
								"slot": "4",
								"type": "t_string_storage"
							},
							{
								"astId": 49,
								"contract": "contract/entities.sol:Entities",
								"label": "Statut_civil",
								"offset": 0,
								"slot": "5",
								"type": "t_string_storage"
							},
							{
								"astId": 51,
								"contract": "contract/entities.sol:Entities",
								"label": "Adresse",
								"offset": 0,
								"slot": "6",
								"type": "t_string_storage"
							},
							{
								"astId": 53,
								"contract": "contract/entities.sol:Entities",
								"label": "Courriel",
								"offset": 0,
								"slot": "7",
								"type": "t_string_storage"
							},
							{
								"astId": 55,
								"contract": "contract/entities.sol:Entities",
								"label": "Telephone",
								"offset": 0,
								"slot": "8",
								"type": "t_string_storage"
							},
							{
								"astId": 57,
								"contract": "contract/entities.sol:Entities",
								"label": "Section",
								"offset": 0,
								"slot": "9",
								"type": "t_string_storage"
							},
							{
								"astId": 59,
								"contract": "contract/entities.sol:Entities",
								"label": "Sujet_PFE",
								"offset": 0,
								"slot": "10",
								"type": "t_string_storage"
							},
							{
								"astId": 61,
								"contract": "contract/entities.sol:Entities",
								"label": "Entreprise_Stage_PFE",
								"offset": 0,
								"slot": "11",
								"type": "t_string_storage"
							},
							{
								"astId": 63,
								"contract": "contract/entities.sol:Entities",
								"label": "NomPrenom_MaitreDuStage",
								"offset": 0,
								"slot": "12",
								"type": "t_string_storage"
							},
							{
								"astId": 65,
								"contract": "contract/entities.sol:Entities",
								"label": "Date_debut_stage",
								"offset": 0,
								"slot": "13",
								"type": "t_uint256"
							},
							{
								"astId": 67,
								"contract": "contract/entities.sol:Entities",
								"label": "Date_fin_stage",
								"offset": 0,
								"slot": "14",
								"type": "t_uint256"
							},
							{
								"astId": 69,
								"contract": "contract/entities.sol:Entities",
								"label": "Evaluation",
								"offset": 0,
								"slot": "15",
								"type": "t_string_storage"
							}
						],
						"numberOfBytes": "512"
					},
					"t_uint256": {
						"encoding": "inplace",
						"label": "uint256",
						"numberOfBytes": "32"
					}
				}
			},
			"userdoc": {
				"methods": {}
			}
		}
	}
}